:100000008BC10000B1C10000AFC100000C940925F4
:100010000C9409250C940925A7C100000C945524C3
:10002000A3C10000A1C100009FC100000C94812564
:100030009BC1000099C1000097C1000095C100005C
:100040000C940B2491C100000C94D7240C94B1247F
:100050008BC1000089C1000087C1000085C100007C
:100060000C943D2681C1000007634236B79BD8A798
:100070001A39685618AEBAAB558C1D3CB7CC5763CD
:10008000BD6DEDFD753EF6177231BF000000803F7B
:1000900008000000BE922449123EABAAAA2ABECD97
:1000A000CCCC4C3E00000080BEABAAAAAA3E000009
:1000B0000000BF000000803F000000000008417801
:1000C000D3BB4387D1133D190E3CC3BD4282AD2B38
:1000D0003E68EC8276BED98FE1A93E4C80EFFFBE30
:1000E00001C4FF7F3F00000000004E414E494E49D1
:1000F0005459494E46CDCCCC3D0AD7233C17B7D1F5
:100100003877CC2B329595E6241FB14F0A0000209A
:10011000410000C84200401C4620BCBE4CCA1B0E19
:100120005AAEC59D7400407A10F35A00A0724E1862
:10013000090010A5D4E80000E87648170000E40B99
:1001400054020000CA9A3B000000E1F5050000805F
:10015000969800000040420F000000A086010000B9
:1001600000102700000000E8030000000064000009
:100170000000000A00000000000100000000002C48
:1001800076D888DC674F0823DFC1DFAE59E1B1B70D
:1001900096E5E3E453C63AE651997696E8E6C284DA
:1001A00026EB898C9B62ED407C6FFCEFBC9C9F40F2
:1001B000F2BAA56FA5F490055A2AF75C936B6CF917
:1001C000676DC11BFCE0E40D47FEF520E6B500D0ED
:1001D000ED902E0300943577050080841E08000002
:1001E000204E0A000000C80C333333330F986E12D0
:1001F000831141EF8D2114893BE65516CFFEE6DBD6
:1002000018D1844B381BF77C1D901DA4BBE424201F
:100210003284725E228100C9F124ECA1E53D2752AF
:10022000454144592C4F4D2C00562C00AED580A88A
:100230003FD300408D142002A1C8DA1281CFD9F13A
:10024000DB40A4A6AF1F111F001F001D15171515B9
:100250001F07041F17151D1F151D01011F1F151F47
:1002600017151F41542B4E414D45000D0A004154B6
:100270002B4E414D453D004C4F472C0002542C0065
:100280004C4F472C004D50335F5245414459004F6D
:100290004B00455252004F4B0053415645442C00F1
:1002A00050524F4752414D5F444154412C005052EF
:1002B0004F4752414D5F52454144590000000000F4
:1002C000240027002A0000000008000201000003AB
:1002D00004070000000000000000000000002300F0
:1002E00026002900010204081020408001020408B1
:1002F0001020010204081020000000002500280042
:100300002B00040404040404040402020202020296
:10031000030303030303C82711241FBECFEFD8E054
:10032000DEBFCDBF12E0A0E0B1E0E8E8F6E702C032
:1003300005900D92A036B107D9F725E0A0E6B2E00E
:1003400001C01D92A536B207E1F711E0CCE8D1E07B
:1003500004C02197FE010E944139CB38D107C9F76B
:100360000E943F280C94423B4BCE833081F028F40E
:10037000813099F08230A9F008958730A9F0883053
:10038000C9F08430B1F4809180008F7D03C08091EA
:1003900080008F7780938000089584B58F7784BD27
:1003A000089584B58F7DFBCF8091B0008F778093C7
:1003B000B00008958091B0008F7DF9CFCF93DF9387
:1003C000282F30E0F901EA53FD4F8491F901EC51F7
:1003D000FD4FD491F901EE5FFC4FC491CC2399F00D
:1003E0008111C3DFEC2FF0E0EE0FFF1FE652FD4F4F
:1003F000A591B491EC91ED2381E090E009F480E0C7
:10040000DF91CF91089580E090E0FACF1F93CF93D2
:10041000DF93282F30E0F901EA53FD4F8491F90171
:10042000EC51FD4FD491F901EE5FFC4FC491CC2308
:10043000A1F0162F811199DFEC2FF0E0EE0FFF1FD6
:10044000E850FD4FA591B4918FB7F894EC9111113C
:1004500008C0D095DE23DC938FBFDF91CF911F9131
:100460000895DE2BF8CFCF93DF9390E0FC01EC51A1
:10047000FD4F24918E5F9C4FFC0184918823C9F02D
:1004800090E0880F991FFC01E454FD4FA591B491B1
:10049000FC01E850FD4FC591D49161110DC09FB78B
:1004A000F8948C91209582238C938881282328832B
:1004B0009FBFDF91CF910895623051F49FB7F894B8
:1004C0003C91822F809583238C93E8812E2BEFCF54
:1004D0008FB7F894EC912E2B2C938FBFEACF1F93FC
:1004E000CF93DF93182FEB0161E0BDDF209739F444
:1004F00060E0812F8BDFDF91CF911F910895CF3F77
:10050000D10511F461E0F5CFE12FF0E0EA53FD4FA2
:10051000E491E33019F140F4E130B1F0E230C9F098
:10052000C038D1057CF7E4CFE73011F1E83041F174
:10053000E430B1F780918000806280938000D09396
:100540008B00C0938A00D7CF84B5806884BDC7BDB7
:10055000D2CF84B5806284BDC8BDCDCF80918000EC
:10056000806880938000D0938900C0938800C3CFB7
:100570008091B00080688093B000C093B300BBCF7F
:100580008091B00080628093B000C093B400B3CF7C
:100590008E3008F08E508770806480937C0080914C
:1005A0007A00806480937A0080917A0086FDFCCF87
:1005B000809178009091790008953FB7F8948091E8
:1005C0000B0490910C04A0910D04B0910E0426B57B
:1005D000A89B05C02F3F19F00196A11DB11D3FBF7B
:1005E000BA2FA92F982F8827BC01CD01620F711D4A
:1005F000811D911D42E0660F771F881F991F4A9544
:10060000D1F708958F929F92AF92BF92CF92DF92CF
:10061000EF92FF924B015C01D0DF6B017C01CDDFDB
:100620006C197D098E099F09683E7340810591050B
:10063000B0F321E0821A9108A108B10888EEC80E33
:1006400083E0D81EE11CF11C81149104A104B104C3
:1006500031F7FF90EF90DF90CF90BF90AF909F90D9
:100660008F900895089590910C0189130BC0ECE7C9
:10067000F2E0E4919FEF90930C01E13049F028F013
:10068000E23061F060E0C2CE089510926E00FACFC1
:1006900090916F009D7F90936F00F4CF90917000C8
:1006A0009D7F9093700091E09093B0009091B10085
:1006B000987F94609093B1001092B300E3CFA5E0CF
:1006C000B0E0E5E6F3E00C9486368B0129013A01AF
:1006D00090910C01891739F09F3F09F46BC0259662
:1006E000E0E10C94A236ECE7F2E094919D8397FD53
:1006F000F6CF61E0B8DE8D81882321F09D819230B4
:1007000009F049C14801B12CA12C60E072E18AE7EF
:1007100090E0A50198010E94583629833A834B83C3
:100720005C8369017A0181E0C81AD108E108F10807
:100730009FEFC916D104E104F10409F00CF400C1E3
:1007400060E472E48FE090E0A50198010E945836C1
:1007500069017A0181E0C81AD108E108F1089D8198
:10076000923009F0A1C08FEFC816D104E104F10462
:1007700009F00CF4E7C160E970ED83E090E0A501B9
:1007800098010E94583669017A0191E0C91AD1088E
:10079000E108F1088FEFC816D104E104F10411F06B
:1007A0000CF080C183E09091B100987F892B8093F9
:1007B000B100CEC080930C01ECE7F2E094919D83F0
:1007C0009F3F09F48CCF913039F148F0923009F411
:1007D00045C09D8197FD83CF61E045DE8FCF14BC7E
:1007E00015BC94B5926094BD95B5916095BD282FC8
:1007F00030E0F901EE5FFC4FE491F0E0EE0FFF1FF7
:10080000E850FD4F45915491F901EC51FD4FE491B1
:10081000E0932E031D826DCF109280001092810014
:1008200090918100986090938100909181009160F7
:1008300090938100282F30E0F901EE5FFC4FE491A6
:10084000F0E0EE0FFF1FE850FD4F45915491F90184
:10085000EC51FD4FE491E0932D034BCF1092B0008B
:100860001092B1009091B00092609093B00090917E
:10087000B10091609093B100282F30E0F901EE5F54
:10088000FC4FE491F0E0EE0FFF1FE850FD4F459163
:1008900054915093380340933703F901EC51FD4FC5
:1008A000E491E093390325CF9FEFC916D104E10409
:1008B000F10409F00CF46DC068E478EE81E090E09A
:1008C000A50198010E94583669017A0181E0C81A91
:1008D000D108E108F1089D81992309F4FCC08FEF4C
:1008E000C816D104E104F10411F00CF0FDC0F1C010
:1008F00064E274EF80E090E0A50194010E94583614
:1009000069017A0181E0C81AD108E108F10885E09F
:100910009FEFC916D104E104F10409F008F443CFB4
:1009200062E17AE780E090E0A50194010E945836E8
:1009300069017A0181E0C81AD108E108F108E7C02D
:1009400081E09D8191112FCF95B5987F892B85BD31
:100950002FEF3FEFA901411451046104710409F024
:1009600045C09D81913009F460C0923009F46FC098
:100970009111B5CEC7BC2093330330933403409319
:1009800035035093360380916E00826080936E0031
:10099000A6CE82E0D6CF4801B12CA12C60E072E156
:1009A0008AE790E0A50198010E94583669017A0112
:1009B00081E0C81AD108E108F108C114D10491E01E
:1009C000E906F1040CF591E08D81813009F0C0CF8A
:1009D00080918100887F892B809381002FEF3FEFEA
:1009E000A9014114510461047104F9F0D801AA0F5E
:1009F000BB1FA30192010E94743628EE33E040E051
:100A000050E00E943636ADCF68E478EE81E090E0A9
:100A1000A50198010E94583669017A0181E0C81A3F
:100A2000D108E108F10893E0CFCFD0928900C092BD
:100A3000880020932F033093300340933103509369
:100A4000320380916F00826080936F0048CEC09225
:100A5000B30020933A0330933B0340933C035093FD
:100A60003D038091700082608093700038CE84E0F6
:100A70009FEFC916D104E104F10409F008F464CF32
:100A8000C980DA80EB80FC808AE0F594E794D79403
:100A9000C7948A95D1F781E0C81AD108E108F10816
:100AA00085E052CF68E478EE81E090E0A5019801FE
:100AB0000E94583669017A0181E0C81AD108E1081C
:100AC000F1089FEFC916D104E104F10411F00CF014
:100AD0000FCF84E068CE83E09FEFC916D104E10414
:100AE000F10409F00CF430CF62E17AE780E090E0A5
:100AF000A50194010E94583669017A0181E0C81A63
:100B0000D108E108F1089D81992309F4B0CF86E06E
:100B10009FEFC916D104E104F10409F008F443CEB3
:100B2000C980DA80EB80FC809AE0F594E794D79452
:100B3000C7949A95D1F781E0C81AD108E108F10865
:100B400087E031CE82E02FCEDB0114964D915C918F
:100B500015976D917C91DC01ED91FC910280F38100
:100B6000E02D09950895EF92FF920F931F93CF9375
:100B7000DF938C017B01D0E0C0E0F701EC0FFD1F9B
:100B80006491662361F0D801ED91FC910190F081B0
:100B9000E02DC8010995892B11F02196EECFCE01E9
:100BA000CDB7DEB7E6E00C94AC36B0E0A0E0EBEDFC
:100BB000F5E00C948C366C017B018B01040F151F42
:100BC000EB015E01AE18BF08C017D10759F069915B
:100BD000D601ED91FC910190F081E02DC6010995BF
:100BE000892B79F7C501CDB7DEB7EAE00C94A836BA
:100BF000FC01538D448D252F30E0842F90E0821B23
:100C0000930B541710F0CF96089501970895FC01A7
:100C1000918D828D981761F0A28DAE0FBF2FB11DFF
:100C20005D968C91928D9F5F9F73928F90E0089557
:100C30008FEF9FEF0895FC01918D828D981731F011
:100C4000828DE80FF11D858D90E008958FEF9FEF65
:100C50000895FC01918D228D892F90E0805C9F4F3B
:100C6000821B91098F739927089583E894E0F1DF3F
:100C700021E0892B09F420E0822F089580E090E0A4
:100C8000892B21F0F2DF81110E9400000895FC0100
:100C9000A48DA80FB92FB11DA35ABF4F2C91848DDD
:100CA00090E001968F739927848FA689B7892C933A
:100CB000A089B1898C91837080648C93938D848D8D
:100CC000981306C00288F389E02D80818F7D808390
:100CD0000895EF92FF920F931F93CF93DF93EC0150
:100CE00081E0888F9B8D8C8D981318C0E889F989D5
:100CF000808185FF13C09FB7F894EE89FF896083D8
:100D0000E889F98980818370806480839FBF81E056
:100D100090E0CDB7DEB7E6E00C94AC36F62E0B8D46
:100D200010E00F5F1F4F0F731127E02E8C8D8E1177
:100D30000BC00FB607FCFACFE889F989808185FFDF
:100D4000F5CFCE01A4DFF2CFEB8DEC0FFD2FF11D1F
:100D5000E35AFF4FF0829FB7F8940B8FEA89FB8923
:100D600080818062D2CF682F83E894E0B2CF08956B
:100D7000CF93DF93EC01888D8823B1F0AA89BB89DA
:100D8000E889F9898C9185FD03C0808186FD0CC0BE
:100D90000FB607FCF7CF8C9185FFF2CF808185FFDE
:100DA000EDCFCE0174DFEACFDF91CF9108958F921E
:100DB0009F92AF92BF92CF92DF92EF92FF921F93DA
:100DC000CF93DF93FC018281938168177907A8F59F
:100DD0004A01AA24BB24C82DC32ED42EE52EFF24FD
:100DE0001C2DD22F8085882361F0889E400111241C
:100DF000C92D8C9D600111241D2D829FD0011124CD
:100E0000DB2FA685E184F2849385A91322C0CB0150
:100E1000880F991F680F791F6E0D7F1DA385A60F80
:100E2000B72FB11DCC93A485A60FB72FB11D1C936E
:100E30008585680F711DFB01D083DF91CF911F91D4
:100E4000FF90EF90DF90CF90BF90AF909F908F90EA
:100E50000895660F771F660F771F6E0D7F1D252F74
:100E6000332744275527882349F090E0829F70015B
:100E7000839FF00C929FF00C11242F2DA60FB72FFB
:100E8000B11D2C93CBCFA9E0B0E0E9E4F7E00C94DE
:100E90008E368C01DC0119968D919C91892B09F479
:100EA00071C08BDBF801C784D088E188F2886C15AB
:100EB0007D058E059F0520F46787708B818B928B53
:100EC000F801C784D088E188F2886C197D098E0901
:100ED0009F096C3271408105910518F3F894D8018F
:100EE00014968D919C9115979A8389831996ED910B
:100EF000FC917F01BFEFEB1AFB0A80818987F80123
:100F000090810388F489E02DD80155968C9199231E
:100F100009F43CC09081982B988790818095892313
:100F20008F838F818C8388E08B8358856F8149857F
:100F30003B812C8189819A81D701508347FD252FE0
:100F40003A952083262F39F0441F00C000006083AB
:100F5000000000C0F2CF38E04D916083000001979F
:100F600061F7D8015496FC93EE93539749873B83DE
:100F70002C839A838983789420DBF8016787708BB0
:100F8000818B928B2996E8E00C94AA369081982B5D
:100F900098879081809589238F838F818E8388E0C5
:100FA0008D8358856F8149853D812E8189819A8104
:100FB000D701508347FD252F00C000C0208300C00B
:100FC00000C000C000C000C060830000262F3A951A
:100FD00041F0441F000000C000C000C000C000C0BD
:100FE000E8CF38E04D9100C0608300C0019709F759
:100FF000D8015496FC93EE93539749873D832E83F3
:10100000B8CFCF93DF93EC018E819F8197FD0AC00B
:1010100061E029DA60E08E81F9D981E08983DF918E
:10102000CF910895198280E0FACF20912B0330915F
:101030002C032817390771F490912A038091290312
:10104000981741F0E0912A03F0E0E751FD4F8081CD
:1010500090E008958FEF9FEF08950895EF92FF922B
:101060000F931F93CF93DF93DC015C96ED90FC9080
:101070005D97E114F10469F481E090E013969C938C
:101080008E93129790E080E0CDB7DEB7E6E00C9447
:10109000AC365196ED91FC91529750968C915097A9
:1010A000982F90950FB75E962C915E97122F127025
:1010B00021FD6095F8942081112319F1282B2083BC
:1010C000E7012197F1F728E0462F50E0308160FFDB
:1010D0001AC0382B3083E7012197F1F7BA017595D3
:1010E0006795215089F7112381F0808189238083BE
:1010F0000FBF5C968D919C910197F1F781E090E094
:10110000C3CF2923DCCF3923E5CF9081892BEFCFC3
:1011100020912B0330912C032817390761F480911B
:10112000290320912A0390E0805C9F4F821B910944
:101130008F739927089590E080E0089520912B0304
:1011400030912C0328173907B9F490912A03809124
:101150002903981789F0E0912A03F0E0E751FD4F49
:10116000808120912A0330E02F5F3F4F2F73332778
:1011700020932A0390E008958FEF9FEF08951F9327
:10118000CF93DF93EC01162F60E0812F6CD98E8D09
:1011900081FD03C061E0812F39D91C87812F90E048
:1011A000FC01EC51FD4FE491ED87FC01EE5FFC4F3B
:1011B000E491F0E0EE0FFF1FE652FD4F8591949110
:1011C0009F878E87DF91CF911F9108951F93CF93B3
:1011D000DF93EC01162F6E8D6695617081E06827B4
:1011E000812F14D961E0812F3ED9812F90E0FC013D
:1011F000EC51FD4FE491E88BFC01EE5FFC4FE49174
:10120000F0E0EE0FFF1FE850FD4F859194919A8B0F
:10121000898BDF91CF911F910895FC018CE191E0C2
:101220009183808380912B0390912C03E817F90719
:1012300059F4A389B4899C918589809589238C93DD
:1012400010922C0310922B030895CF93DF93FC018F
:10125000828D938D892B41F1A0912B03B0912C03AA
:10126000AE17BF0709F1109751F05396CD91DC915D
:101270005497988155968C91809589238883868D83
:101280008E7F868F1092290310922A03F0932C03ED
:10129000E0932B03A389B4898C919589892B8C9336
:1012A00081E0DF91CF91089580E0FBCFCF93DF9372
:1012B000EC019A01AB011B8E1A8E198E188E1F8AB3
:1012C0001E8A60E079E08DE390E00E945836F901D3
:1012D000C90103972430310510F481E090E09D8F1F
:1012E0008C8F6C85663108F053C0C901969587953F
:1012F0008431910508F451C043979F8B8E8BC901AF
:101300000597369710F481E090E0998F888FC90196
:10131000880F991F280F391F3695279536952795E1
:101320002D30310508F43CC02C5031093B8F2A8FF9
:101330009091680084E0683048F021E06E3008F455
:1013400020E081E001C0880F2A95EAF7892B80937D
:1013500068009C852DE630E0983050F02BE630E0B8
:101360009E3030F02CE630E0963110F030E020E096
:101370003C8B2B8B292F30E09830A8F481E001C002
:10138000880F9A95EAF78D8B8C8D9D8D0197F1F7DB
:10139000CE015BDFDF91CF91089581E090E0ADCF8A
:1013A00021E030E0C3CF9E3040F42850310981E085
:1013B00001C0880F2A95EAF7E6CF2E503109F7CF02
:1013C000CF92DF92EF92FF92CF93DF93EC016032E6
:1013D00082E07807CCF5653B710514F064EB70E0B2
:1013E000898128E830E0281B310987FD3395220FD9
:1013F000331F220F331F6901330FEE08FF088A8164
:1014000028E532E0281B310987FD3395220F331F71
:10141000220F331F032E000C440B550B2C193D09D2
:101420004E095F09DB0177FF02C0B0E0A0E00E9437
:101430007E3624EB30E040E050E00E945836C20E89
:10144000D31EE41EF51EB601E881EC3070F529814B
:1014500088E890E0821B910927FD9395880F991FDA
:10146000880F991F681779077CF02A8188E592E038
:10147000821B910927FD9395880F991F880F991F4B
:10148000681779070CF4CB010297880F991F4FB7A3
:10149000F8942E2F30E0F901EE0FFF1FE20FF31F3B
:1014A000E45DFA4F928381834FBFDF91CF91FF902C
:1014B000EF90DF90CF9008952091C302260F33273D
:1014C000331F21323105ECF420915904FC0190E0E6
:1014D00080E0243069F082E00895A091C302219158
:1014E000AC014F555D4FA40FB52FB11D2C93019644
:1014F000861798F38091C302680F6093C30280E05F
:10150000089581E008951092590481E08093580471
:101510001092330461E082E10E94060261E083E1FF
:101520000E940602E9EBF0E080818E7F808380815B
:101530008D7F808388E48093B80085E48093BC002D
:101540000895CF93DF9391E09093A0028823B1F0A8
:10155000C091B800D091BA008091BC008A7B809382
:10156000BC0060E082E10E94060260E083E10E942C
:101570000602C9DFD093BA00C093B800DF91CF91C3
:101580000895B0E0A0E0E7ECFAE00C948E36D0913C
:10159000820481E0D13208F09AC0C09181040DD854
:1015A0006B017C018091590481116CC082E08093B1
:1015B000590481E0809358048FEF80935704109270
:1015C0005604D0935504A1E6B4E0E5E3F4E080E0EE
:1015D000D81388C01092340480913404CC0FC82BE7
:1015E000C093340480913304813009F07FC010929D
:1015F00033040E94DD026B017C01809134048093EE
:10160000BB0080915B0490915C04A0915D04B0915B
:101610005E04892B8A2B8B2BA1F00E94DD020091A6
:101620005B0410915C0420915D0430915E046C19A0
:101630007D098E099F09061717072807390708F43F
:1016400042C08091BC0083FDD8CF85EC8093BC0064
:101650000E94DD026B017C0180915904823009F403
:1016600047C0809157048F3F09F464C080915704AC
:10167000803209F461C080915704803309F45EC060
:1016800084E025C080915B0490915C04A0915D048E
:10169000B0915E04892B8A2B8B2B09F483CF0E9497
:1016A000DD0200915B0410915C0420915D04309197
:1016B0005E046C197D098E099F0906171707280714
:1016C000390708F06FCF80915A043BDF85E0109214
:1016D00060041092820410925F04CDB7DEB7E8E098
:1016E0000C94AA369D9191938F5F72CF85EEAECF09
:1016F00080915B0490915C04A0915D04B0915E04C4
:10170000892B8A2B8B2B09F4A7CF0E94DD02009135
:101710005B0410915C0420915D0430915E046C19AF
:101720007D098E099F09061717072807390708F052
:1017300093CFC9CF80E0CBCF82E0C9CF83E0C7CFC2
:1017400008950895E0919F0280919E02E81730F479
:10175000F0E0E258FD4F808190E008958FEF9FEF19
:10176000089590919F0280919E022FEF3FEF98176E
:1017700048F4E92FF0E0E258FD4F208130E09F5F10
:1017800090939F02C901089580919E0290919F02BB
:10179000891B990B0895B0E0A0E0E1EDFBE00C940B
:1017A0008E367C01CB018A0120915F04222389F0CF
:1017B000EB016B01C40ED51ECC15DD0561F06991FE
:1017C000D701ED91FC910190F081E02DC7010995C1
:1017D000F3CF642F71DEC801CDB7DEB7E8E00C941B
:1017E000AA36A1E0B0E0E7EFFBE00C949436698301
:1017F00020915F042223F9F020918204203258F0D6
:1018000021E030E0FC013383228390E080E02196E8
:10181000E2E00C94B03680916004E82FF0E0EF59DC
:10182000FB4F998190838F5F809360048093820443
:1018300081E090E0ECCF61E0CE0101963DDEF8CF93
:10184000682F80E295E0CDCF089590E080E0089584
:10185000FF920F931F93CF93DF9300910F0410918A
:1018600010040115110519F1FC0124813581232B88
:10187000F1F0F62EEC01C801E8DCF1E0FF121CC02B
:101880006EE672E0C8016FD9BE0180910F0490919D
:1018900010045AD96BE672E080910F049091100405
:1018A00062D968EE73E080E090E00E940203CDB759
:1018B000DEB7E5E00C94AD3663E672E0C80153D9BB
:1018C000BE0180910F04909110043ED9EACFCF93CE
:1018D000FC012285222339F0C1E080859185892B86
:1018E00081F4C0E00EC060817181828193819F7715
:1018F000C1E02CEA35EC47E257E30E94C8371816DE
:1019000084F78C2FCF9108959091060121E02093C8
:101910005F049093810410926004109282048860A6
:1019200090E08EDF2ECE0895CF93C82F80910401D2
:1019300091E090935F048093810410926004109270
:10194000820490E080E07CDF6C2F80E295E049DF4C
:1019500018DECF910895CF93C82F862F806BE4DFD8
:101960008C2F8F70E1DF8C2F82958F708061DCDF90
:10197000CF910895A3E0B0E0E0ECFCE00C94843655
:101980006C01142F80914103882309F4D7C09091F2
:101990000501603108F06FE0092F000F000F609F14
:1019A000002D1124923009F064C0143008F013E0C7
:1019B000110F612F802FCFDF612C54E0E52E6AE0FC
:1019C000462E70E1372E5E0184E0A80EB11C262D54
:1019D00030E0F601848195812817390708F0AEC000
:1019E00080819181009709F449C0820F931FFC0107
:1019F000808119821A821B8290ED980F9A3008F02C
:101A00003FC0082E000C990BC0979C01220F331F7A
:101A1000820F931FDE01119630E020E08B5B9D4F1B
:101A2000FC01E20FF31FE491ED932F5F3F4F233052
:101A30003105B1F750900401809105018130B1F575
:101A400080935F045092810410926004109282048B
:101A500080E490E0F5DE43E050E0BE016F5F7F4F31
:101A600080E295E098DE90E080E0EADE8ADD639433
:101A7000AECF183008F49DCF17E09BCF80E0B9CFF0
:101A80008D3221F4EB82EA82E982D4CF8E3211F4D6
:101A90003A82D0CF8A3311F44A82CCCF853251F6C4
:101AA000F9E1F983EA8283E18B83C4CF712C22248C
:101AB0002394612F670D802F4EDF20925F04509298
:101AC0008104109260041092820480E490E0B8DEF9
:101AD000FE0131964F01F40181914F01711028C030
:101AE0008F70F4E08F9F90011124822B8373F82E66
:101AF000FF0C8F298575F82EFF0CF82A6F2D80E2D8
:101B000095E06FDE6F2D80E295E06BDEA814B904DE
:101B100011F790E080E094DE90E080E091DE31DD2E
:101B200081E0781202C0085FA2CF77247394C1CFFE
:101B3000F12C84FFE3CF83E0F82EE0CF2396E2E19F
:101B40000C94A0360F931F93CF93DF9380914103A2
:101B5000882311F1C0E001E06C2F80E0FCDED8E0CA
:101B60008091040100935F048093810410926004CB
:101B70001092820480E490E063DE10E190E080E067
:101B80005FDE1150D9F7FDDCD15051F7CF5FC8307F
:101B900019F760E080E0DFDEDF91CF911F910F91B8
:101BA0000895CF93DF9380930401623009F061E0E0
:101BB0006093050110929F0210929E0210926004A1
:101BC00010928204A0DC80EA9BE09093C202809392
:101BD000C10281EA9BE09093C6028093C502CCE2E9
:101BE000D2E0FE018491A0DE2196F2E0C534DF0749
:101BF000C1F781E080934103A5DFDF91CF91089584
:101C0000AAE0B0E0E6E0FEE00C94923600916002BB
:101C1000109161020115110581F11E821D829EE75E
:101C200099839FEF9A8396E09B839FEE9A878C839C
:101C3000272F30E07E836F8390E08B5F9E4F820F73
:101C4000931F860F911D919581959109988789879A
:101C5000C801FBDAD801ED91FC910280F381E02DFF
:101C60004AE050E0BE016F5F7F4FC801099568E709
:101C700070E080E090E00E9402032A96E4E00C9479
:101C8000AE36CF93C0E080916202C81758F4EC2FB3
:101C9000F0E0E85FFE4F70E060E080810E946F023C
:101CA000CF5FF1CF80910D0187FF0E9433038091B8
:101CB000600290916102892B21F070E060E086E182
:101CC0009FDFCF910895CF92DF92EF92FF921F9303
:101CD000CF93DF93E0E0F1E0DF01D0E0C0E0482FF8
:101CE00050E02D91022E000C330B2417350781F4A0
:101CF000CE01880F991FC80FD91FCF5ADA4FCE01D6
:101D0000DF91CF911F91FF90EF90DF90CF900895DA
:101D10002196C430D10529F7F12CE12C919197FF40
:101D200063C0F701E050FF4F80836701CC0CDD1CDE
:101D3000E601CE0DDF1DCF5ADA4F98819C30F8F6C0
:101D4000182F61E00E9433028881282F30E0F901CA
:101D5000EE0FFF1FE20FF31FE45DFA4F1F73908138
:101D6000907C192B108319821A822CE0622F0E941A
:101D70003539829FB001112430E020E0AB01420FE1
:101D8000531FFA01EE0FFF1FE40FF51FE45DFA4F3A
:101D9000908196FD16C02F5F3F4F2C30310571F7B3
:101DA00081110FC01092800082E080938100109218
:101DB000850010928400B19A80916F0082608093B8
:101DC0006F00F601EE0DFF1DEF5AFA4FE0818E2FE6
:101DD00090E0FC01EE0FFF1FE80FF91FE45DFA4FE2
:101DE0008081806480838BCF9FEFE91AF90A94E0A9
:101DF000E916F10409F092CFD0E0C0E080CFE09185
:101E00006202A8E0B1E090E0E91729F02D912817CF
:101E100061F09F5FF9CFE43040F491E09E0F909322
:101E20006202F0E0E85FFE4F80830895EF92FF9238
:101E30000F931F93CF93DF93082F162F7A01EA0198
:101E40004F3F510519F014F0CFEFD0E0C1308FEFC4
:101E5000D80714F4C1E0DFEF802FD1DF812FCFDF6F
:101E600061E0802F0E94330261E0812F0E943302E3
:101E7000BE01802F1E141F049CF070E060E0E1148E
:101E8000F10471F00E946F02662777276C1B7D0BAF
:101E9000812F0E946F02CDB7DEB7E6E00C94AC361E
:101EA0000E946F0270E060E0F3CF0F931F93CF9317
:101EB000DF93D82FC62F61E00E94330260E08D2FA0
:101EC0000E9406028BE594E00197F1F78C2FC63053
:101ED00008F085E0825F0E94C8028C018BE990E0E7
:101EE0000197F1F761E08D2F0E9406028BE397E9DD
:101EF0000197F1F7C801DF91CF911F910F910895DC
:101F0000DC0114968D919C9115976817790750F410
:101F1000ED91FC911197E60FF71F15967C936E9348
:101F2000149710820895CF93807FC82FC62B8C2FD3
:101F3000EBDC8C2F8460E8DC8C2FE6DC83EC90E01B
:101F40000197F1F7CF910895CF93DF93C82FD62F44
:101F5000EADF6D2F8C2F8295807FE5DFDF91CF91B7
:101F600008951F93CF93DF93209142032223B9F06A
:101F7000EC0110E0212F30E08C819D81281739077A
:101F800070F488819981009741F0820F931FFC01C2
:101F9000808161E0D9DF1F5FEDCF80E0FACFDF9174
:101FA000CF911F91089590910701891710F08FEF3D
:101FB000890F643008F063E0E62FF0E0EC5EFE4F3E
:101FC0009081890F60E08068BFCF089580914203BF
:101FD000882339F060E081E0B7DF8BE39FE1019770
:101FE000F1F708951F93CF93DF93142F8093060189
:101FF0006093070110929F0210929E02109260045B
:102000001092820480DA80EA9BE09093C20280936F
:10201000C10281EA9BE09093C6028093C50262E30D
:1020200070E080E090E00E94020360E080E37BDFEC
:10203000CBE4D6E4CE010197F1F760E080E373DFF3
:102040002197F1F760E080E36EDF83E592E001978E
:10205000F1F760E080E267DF80E2123008F088E2AA
:1020600060E072DF60E08CE06FDF60E086E06CDFF4
:1020700081E080934203AADFDF91CF911F91089501
:10208000FC014481558170E060E0818592850C946B
:102090002B3B0895B0E0A0E0E0E5F0E10C948E3633
:1020A000EC016B01F42EE52E198218861F86188A22
:1020B000198A1A8A81E08E878B871C8692E09D8719
:1020C00088838B01000F111F060F171F1D830C83C0
:1020D000C8010E9447399A878987009769F1A8014A
:1020E00070E060E00E942B3BDB82CA82FE82EF82BE
:1020F0008981882341F061E08F2D0E94330260E0E6
:102100008F2D0E9406028F2D9E2DFC01EE5FFC4F4D
:10211000E491F0E0EE0FFF1FE850FD4F2591349160
:102120003C8B2B8BFC01EC51FD4FE491ED8BCDB73B
:10213000DEB7E8E00C94AA361D821C821B821A824C
:10214000D5CF0F931F93CF93DF938C01EB01FC014D
:10215000808191810097E1F0688179816115710535
:10216000A9F0428153812C813D814217530770F0C1
:102170000E943B3B8C819D81F801958384831D8265
:102180001C82DF91CF911F910F9108950E94E33936
:1021900088819981F801918380838A819B819383CF
:1021A00082838C819D8195838483198218821B820E
:1021B0001A82E5CFB0E0A0E0E0EEF0E10C948E36BC
:1021C000EC018B01FB01C190D190E190F190BF0136
:1021D000FC01C192D192E192F192CF016E177F077B
:1021E00009F0AFDFF80182858A87CE01CDB7DEB76F
:1021F000E8E00C94AA36CF93DF93EC0188819981B3
:10220000009711F00E94E339198218821D821C8206
:102210001B821A82DF91CF910895FC018081918108
:10222000009711F00C94E33908950F931F93CF9307
:10223000DF93861306C080E0DF91CF911F910F914D
:102240000895062F182FC0916002D0916102209747
:1022500031F0CE010E940D09CE010E94E3398FE1D9
:1022600090E00E944739EC011B821A8288EE93E0CD
:10227000A0E0B0E08C839D83AE83BF838CE191E0CE
:10228000998388831F8A1E8A198E188E1B8E1A8E38
:102290001D8E1C8E8E8D8E7F8D7F8E8F602FCE013A
:1022A0000E94E608612FCE010E94BF08D093610210
:1022B000C0936002209709F4BECF40E855E260E089
:1022C00070E0CE010E945609CE010E94250964E605
:1022D00070E080E090E00E94020370E060E08CE03B
:1022E0008FDC68E978E080E090E00E94020362E021
:1022F00070E089E085DC6CE271E080E090E00E94B3
:10230000020381E099CF0F931F93762F89019A01E1
:1023100090E0FC01EC51FD4F6491FC01EE5FFC4F3D
:10232000E4917111762FF0E0EE0FFF1FE652FD4FA2
:1023300085919491472F0E945C2761157105810555
:10234000910529F06F5F7F4F8F4F9F4F9F701F91B7
:102350000F910895A5E0B0E0E0EBF1E10C948C362C
:10236000182F062FF42ECE0101966C0185E0F601A0
:1023700011928A95E9F761E0812F0E94330260E0B3
:10238000812F0E94060264E170E080E090E0063157
:1023900021F462E070E080E090E00E94020361E0DE
:1023A000812F0E94060283E790E00197F1F762E037
:1023B000812F0E94330228EE33E040E050E060E0DD
:1023C000812FA1DF672B682B692B41F460E070EC53
:1023D00089E794EC2596EAE00C94A83628EE33E0E1
:1023E00040E050E061E0812F8EDF672B682B692B86
:1023F00069F3B12CA12C28EE33E040E050E060E01E
:10240000812F81DF672B682B692B01F328EE33E0E6
:1024100040E050E061E0812F76DF611571058105B4
:102420009105A1F2F50123E0F595E7952A95E1F7ED
:10243000EC0DFD1D2081220F69327105810591058A
:1024400008F03EC02083FFEFAF1ABF0A88E2A8164B
:10245000B10489F6B9806A811B819C818B2D860F1E
:10246000810F890F2D818213B1CF063169F582E08A
:1024700090E0FF2011F090E080E08C0D9D1DFC01AC
:10248000008110E0102F0027E3E0F0E0FF2011F0C2
:10249000E1E0F0E0EC0DFD1D8081082BB8017F77B5
:1024A00090E080E00E94FC342DEC3CEC4CEC5DE3D1
:1024B0000E945D35F1108ECF17FF8CCF90588ACFD8
:1024C000822F81608083BFCFFF20D1F070E090E049
:1024D00080E00E94FE342DEC3CEC4CEC5DE30E946D
:1024E0005D356B017C016B2D70E090E080E00E9417
:1024F000FE349B01AC01C701B6010E94CB366ACF06
:10250000692F70E090E080E00E94FE342DEC3CECFE
:102510004CEC5DE30E945D356B017C01612FE4CFE3
:10252000CF93DF93C82FD62F61E00E94330260E083
:102530008D2F0E94330260E08C2F0E94060283E000
:1025400090E00197F1F761E08C2F0E94060283E290
:1025500090E00197F1F760E08C2F0E94060220E3E3
:1025600035E740E050E061E08D2FCDDE20E030E047
:10257000A901611571058105910531F02AE330E06B
:1025800040E050E00E943636CA01B901DF91CF9198
:102590000895FC0124813581FB0144815581241774
:1025A0003507A0F0FC0180819181009779F0FB0153
:1025B000608171816115710549F0241B350B820F13
:1025C000931F0E94323B21E0892B09F020E0822FEB
:1025D0000895CF93DF93EC01A881B981EB01E881E5
:1025E000F9811097E9F03097B1F4EC018C819D816D
:1025F000892BC1F08C9190E00BC0DB0114968D917A
:102600009C91892B79F0808190E091958195910939
:10261000DF91CF910895BF01CD010E94323BF8CFE9
:10262000309759F790E080E0F3CFFB010190002054
:10263000E9F73197AF01461B570BDC01ED91FC9197
:102640000280F381E02D099508958F929F92AF92B9
:10265000BF920F931F93CF93DF93CDB7DEB7A197B0
:102660000FB6F894DEBF0FBECDBF19A2423008F4FA
:102670004AE08E010F5D1F4F842E912CB12CA12CAE
:10268000A50194010E943636E62FB901CA01EA304D
:10269000FCF4E05DD801EE938D01232B242B252B38
:1026A00079F790E080E0109721F0BD0183E894E095
:1026B000BCDFA1960FB6F894DEBF0FBECDBFDF9191
:1026C000CF911F910F91BF90AF909F908F900895E1
:1026D000E95CE0CFCF93DF93BC0183E894E00E94F4
:1026E000B305EC016EE471E083E894E09EDF8C0FAB
:1026F0009D1FDF91CF9108950F931F93CF93DF9389
:10270000EC010E94A4058C016EE471E0CE018DDF26
:10271000800F911FDF91CF911F910F9108958F929C
:102720009F92AF92BF92CF92DF92EF92FF925C01A5
:102730006A017B0169E272E083E894E00E94B305DC
:10274000A114B10421F0B50183E894E06EDF8CE2BE
:102750000E94B306A7019601C701B6010E9418386E
:1027600061E571E081111AC046015701E894B7F89C
:102770002FEF3FEF4FE75FE7C501B4010E94183824
:1027800081111DC02FEF3FEF4FE75FE7C501B40197
:102790000E94F83418169CF465E571E083E894E033
:1027A00044DF6EE471E083E894E03FDFFF90EF9058
:1027B000DF90CF90BF90AF909F908F9008952FEFB4
:1027C0003FEF4FE75FE4C701B6010E94C837181614
:1027D0001CF469E571E0E2CF2FEF3FEF4FE75FECCC
:1027E000C701B6010E94F83487FDF3CF20E030E046
:1027F000A901C701B6010E94F83487FF07C08DE226
:102800000E94B306F7FAF094F7F8F0942AE037ED57
:1028100043EA5BE3C701B6010E94CB364B015C0182
:102820000E949C376B017C010E94FC349B01AC012F
:10283000C501B4010E94CA364B015C014AE0C701E0
:10284000B60103DF8EE20E94B30620E030E040E2F2
:1028500051E4C501B4010E945D354B015C010E9449
:102860009C376B01F12CE12C4AE0C701B601EDDE8B
:10287000C701B6010E94FC349B01AC01C501B40143
:102880000E94CA3620E030E040E251E40E945D350B
:102890000E949C3790E080E04AE0D7DE82CF6FE173
:1028A00072E083E894E00E94B3056DE571E083E88F
:1028B00094E0BBDE6EE471E083E894E0B6CE089568
:1028C0000F931F93CF93DF93EC0188819981009739
:1028D00059F02A813B812617370730F081E0DF91DC
:1028E000CF911F910F9108958B016F5F7F4F0E94D1
:1028F0006C3A009759F0998388831B830A832C8153
:102900003D81232B59F7FC011082E8CF80E0E7CF0F
:10291000A2E0B0E0EEE8F4E10C9490368C0169831B
:102920001A82FC01E480F580FFEFEF1AFF0AB7017D
:10293000C7DF882381F0F80120813181848195816E
:10294000BE016F5F7F4F820F931F0E943B3BF801D8
:10295000F582E48281E02296E6E00C94AC36EF92B8
:10296000FF920F931F93CF93DF93EC017B018A01BA
:10297000BA01A6DF811108C0CE013DDCCE01CDB782
:10298000DEB7E6E00C94AC361D830C83B70188817A
:1029900099810E943B3BF2CFCF93DF93EC0161150D
:1029A000710569F0FB0101900020E9F73197AF0153
:1029B000461B570BD4DFCE01DF91CF9108951BDC6E
:1029C000FACFCF93DF93EC01FB018617970741F015
:1029D000608171816115710539F044815581BFDFD6
:1029E000CE01DF91CF91089506DCFACF0F931F93AC
:1029F000CF93DF93EC018B01FB0181919191A19128
:102A0000B191BF0188839983AA83BB831D821C82F5
:102A10001F821E8219861886CE010496D2DFF80125
:102A200082858A87DF91CF911F910F910895FC01D4
:102A3000118210821382128215821482FB0101908E
:102A40000020E9F73197AF01461B570B88CF089557
:102A5000CF92DF92EF92FF92CF93DF93EC0160E58C
:102A600071E0E5DF80910F0490911004009709F464
:102A700041C00E9425098FB7F894C0900704D090F8
:102A80000804E0900904F0900A048FBF2FB7F8946F
:102A90008091070490910804A0910904B0910A0460
:102AA0002FBF8C199D09AE09BF0980359105A1057D
:102AB000B10500F580910F0490911004DC01ED91B7
:102AC000FC910084F185E02D0995892BF9F2809124
:102AD0000F0490911004DC01ED91FC910284F385C8
:102AE000E02D09958D3011F08A3061F48C819D8143
:102AF000892B01F3CE01DF91CF91FF90EF90DF9012
:102B0000CF900895682FCE0103DFD4CF60E571E048
:102B100004968DCF0895A3E0B0E0E1E9F5E10C94CF
:102B20008C366C018B0160E571E081DF01151105C8
:102B300049F1F80101900020E9F731975F01A01AEF
:102B4000B10AB50176956795C601BADEEE24E39425
:102B5000F12CEA14FB04B0F41B82F8018081898314
:102B600081818A8340E150E070E060E0CE0101960F
:102B70000E94E52FC601CCDEF2E0EF0EF11C0E5FE5
:102B80001F4FE7CFC6012396EAE00C94A83685EDE7
:102B90008093BC0080915B0490915C04A0915D04E3
:102BA000B0915E040796A11DB11D23E0B695A795CF
:102BB000979587952A95D1F72091BC0024FD03C0F5
:102BC00010925904089540915B0450915C04609107
:102BD0005D0470915E04452B462B472B69F30097EB
:102BE000A105B10541F02AE22A95F1F700C001974D
:102BF000A109B109E1CF80915A040C94A10A08956A
:102C00001F93CF93DF93EC01162F0E9411361817F4
:102C100021F0612FCE010E941936DF91CF911F91D3
:102C200008950C9411360895B0E0A0E0EAE1F6E1D1
:102C30000C948C361092500383E090E0F2DFC82FA2
:102C400084E090E0EEDFD82FD0934403C093430399
:102C500085E090E0E6DF082F86E090E0E2DF182FC5
:102C600010937C0200937B0287E090E0DADFA82ECD
:102C700088E090E0D6DFB82E90E080E0D2DF8F349D
:102C800009F044C081E090E0CCDF8D3409F03EC013
:102C900082E090E0C6DF8130C9F5CE010197873F21
:102CA0009340A0F5C017D10788F1D12CC12CF12C8D
:102CB000E12CC7010996B5DFC80ED11C8FEFE81AC9
:102CC000F80ACE15DF05A9F7AC14BD04F9F4E1E16B
:102CD000F4E080E2DF011D928A95E9F710923E034D
:102CE00010924C0310924D0310924E0310924F031A
:102CF00081E00115110509F080E080937D021092BA
:102D000032041092310481E080935003CDB7DEB7D6
:102D1000EAE00C94A83620914303309144038217D3
:102D2000930718F409967DCF089580E00895A9E3EC
:102D3000B0E0EDE9F6E10C9486367C01FB0182857A
:102D4000882381F0F701118210821382128215828A
:102D500014826C5F7F4FC70134DEC701E996E0E162
:102D60000C94A23680809180A280B38020E030E075
:102D7000A901C501B4010E94C83720E030E040E05D
:102D80005FE387FD38C0C501B4010E94CB360E94C5
:102D900097370E94FE342B013C01AC019B01C50119
:102DA000B4010E94CA369F772FE632E143E85AE326
:102DB0000E94F8349E012F5F3F4F690187FF20C0BA
:102DC000F701118210821382128215821482C301CC
:102DD000B2010E9497372AE0A6010E941D31F60138
:102DE00001900020E9F73197AF014C195D09B60158
:102DF000C701B5DDB2CFC501B4010E94CA36C7CF45
:102E00001DAA1CAA1FAA1EAA19AE18AE890122E08B
:102E100044E0C501B4010E94C82FBC01CE01C49694
:102E2000BBDD63E671E0C60102DEB601CE01C496E9
:102E3000B0DBB82EC601F1D9BB2041F068AD79AD49
:102E400061507109CE01C4965BD8EBCF65E671E0A5
:102E5000C601EDDDB601CE01C4969BDBB82EC601DE
:102E6000DCD9BB2039F068AD79AD61507109CE0174
:102E7000C49646D8F70111821082138212821582FD
:102E80001482BE016C5C7F4FC7015BD9CE01C49632
:102E9000C4D963CFFC018285882339F08481958170
:102EA000009741F00C94CB3008956081718182814C
:102EB0009381089560E070E0CB0108950F931F9314
:102EC000CF93DF93EC018B0121DEF80180819181AA
:102ED000009791F00E94CB30FE0161937193819332
:102EE0009193B801CF016DDD81E08A87CE01DF913A
:102EF000CF911F910F91089560E070E0CB01ECCF6E
:102F0000A3EAB0E0E6E8F7E10C9484364C01809146
:102F10003104909132041C012FEF221A320A3092B0
:102F2000320420923104F7DE280E311CCE010196C6
:102F30007C018E01075A1F4FC956DF4F9983888342
:102F4000C759D040C701E2DD9BE0E90EF11CE01655
:102F5000F106C1F7F12CA4E6B0E0AC0FBD1F14964A
:102F6000C456DF4FB983A883CC59D040EFE6F0E0D8
:102F7000EC0FFD1F3496C056DF4FF983E883C05A2B
:102F8000D0402AE730E02C0F3D1F2C5F3F4FCE553D
:102F9000DF4F39832883C25AD040C0903104D0908B
:102FA0003204C214D30408F0E4C536013FEF631ABB
:102FB000730A7092320460923104C601ACDEE82ECE
:102FC00081E0E81235C097E09F1538F338016801B9
:102FD000A4E0CA0ED11C80913104909132049C016E
:102FE0002F5F3F4F309332042093310494DEF3017E
:102FF00081933F01CE16DF0671F7D8014D905D90A9
:103000006D907C90C80182DDF8014082518262821D
:1030100073821286EE24E394EF0CB80181E090E015
:103020008C0F9D1FFBE0FF9E800D911D112484C01D
:1030300022E0E2124DC032E0C30ED11CD092320425
:10304000C0923104C30167DEE82E60E571E0CE0175
:103050008C599F4FECDC6E2D70E0CE018C599F4F48
:103060002FDCEE20B1F08091310490913204EA948B
:103070008215930570F49C012F5F3F4F309332040B
:103080002093310448DE682FCE018C599F4F40DCDD
:10309000E8CF87E08F15B8F0BE016C597F4FC801AB
:1030A0000DDFEE24E394EF0CB80181E090E08C0F8B
:1030B0009D1FABE0FA9E800D911D11247BD8C801A5
:1030C0000496ABD8FE2CCE018C599F4FA6D865CF65
:1030D000B3E0EB1237C0E2E0CE0ED11CD092320446
:1030E000C0923104C30117DEF7E0FF1508F455CF95
:1030F000883008F08EC024E0829FF0011124EF5E3A
:10310000FB4F4080518062807380C801FFDCD80192
:103110004D925D926D927C9213971A961C92EE24BA
:10312000E394EF0CB80181E090E08C0F9D1FBBE0B1
:10313000FB9E800D911D11243DD8C80104966DD8C9
:10314000FE2C2BCFE4E0EE122CC0F2E0CF0ED11C0F
:10315000D0923204C0923104C301DDDD27E02F1587
:1031600008F41BCF90E0B0E0A0E086309105A10507
:10317000B10524F085E090E0A0E0B0E0825F0E941D
:10318000C8026C01C801C2DCB601DD0C880B990BCA
:103190000E94FE34D8016D937D938D939C93139779
:1031A000BCCFE5E0EE1215C0F2E0CF0ED11CD092FC
:1031B0003204C0923104C301AEDDE82E60E00E940B
:1031C000330227E02F1508F4E8CE8E2D0E94DE0191
:1031D000D8CFE6E0EE1221C0F2E0CF0ED11CD092A3
:1031E0003204C0923104C30196DDE82E60E00E94F3
:1031F000330227E02F1508F4D0CE8E2D0E94DE0179
:10320000412C512CF0E86F2EFFE37F2E019709F43B
:103210007CCF412C512C320178CFE7E0EE1222C056
:103220002601F2E04F0E511C5092320440923104BC
:10323000C30171DDE82E23E0C20ED11CD09232040E
:10324000C0923104C20167DD37E03F1508F4A5CE16
:10325000682F8E2D65D92B013C01C80157DCC301B5
:10326000B20196CFE8E0EE122DC02601F2E04F0E3B
:10327000511C5092320440923104C3014CDDE82EBF
:10328000360123E0620E711C7092320460923104A8
:10329000C20141DD582E34E0C30ED11CD09232045D
:1032A000C0923104C30137DD97E09F1508F475CE55
:1032B00041E0811101C040E0652D8E2D4BD82B01DE
:1032C0003C0123CFE9E0EE121DC02601F2E04F0ED3
:1032D000511C5092320440923104C3011CDDE82E8F
:1032E00023E0C20ED11CD0923204C0923104C2013C
:1032F00012DD37E03F1508F450CE682F8E2D0E9466
:10330000550F3FCFEAE0EE1224C0C0900F04D090DA
:103310001004C114D10409F45FC4C6010E94250938
:10332000F7E0FF1508F439CED601ED91FC91008449
:10333000F185E02DC6010995412C512CE0E86E2E57
:10334000EFE37E2E892B09F05DCE412C512C32010A
:1033500059CE2BE0E21226C037E03F1508F41DCE0F
:10336000CE018C599F4F74DBBE016C597F4FC80151
:10337000A5DDDD24D394DF0CB80181E090E08C0F53
:103380009D1FFE9C800D911D11240E94DA10C80122
:1033900004960E940D11CE018C599F4F0E940D1171
:1033A000FD2CFBCD8AE2E8122CC0FF2009F4F5CDFC
:1033B00081E090E08C0F9D1FABE0FA9E800D911D87
:1033C0001124FC013B976F01CF010E94670CE82E8E
:1033D000C8019CDB61E0E6266E2D70E090E080E0A5
:1033E0000E94FC34D8016D937D938D939C93139729
:1033F0001A961C92B801C6010E94DA10C801049600
:1034000065CEB1E0BF1508F0C8CDEFEFEF0DC756A0
:10341000DF4FE883C959D0407BE0D72E61E070E0F0
:103420006C0F7D1FED9D600D711D1124CE0186581E
:103430009F4FDCDAFA94FA942F2D30E0C256DF4F1A
:1034400039832883CE59D040FD9CC0011124C65633
:10345000DF4F99838883CA59D04061E070E06C0FD8
:103460007D1F680F791FCE0181599F4FBFDACE01B2
:103470008C599F4F4BDBA8961CAE1DAE1EAE1FAEE7
:10348000A897AF961FAEAF97CE0181599F4F02DD2F
:103490005B016C01CE0186589F4FFCDC2B013C0187
:1034A000ECEEEE0DE93108F0C0C0F0E0E65AF54E62
:1034B0000C944139731A861AA11AA81AB81A151B46
:1034C000151B151B151B151BBF1A801BE51BF41BB9
:1034D000031C0F1C151B151B151B151B1B1C371C58
:1034E000151B541CD81CAC019B01C601B5010E94E0
:1034F000CB362B013C01C80109DBD8014D925D920E
:103500006D927C9213971A961C9210C0AC019B018D
:10351000C601B5010E94CA362B013C01C801F6DA8A
:10352000F80140825182628273821286B801CE0114
:103530008C599F4F0E94DA10C80104960E940D1109
:1035400074C0AC019B01C601B5010E945D35D1CFAD
:103550002CEA35EC47E257E39F770E94F83487FD69
:103560005AC1A3019201C601B5010E942F37D4CFE1
:10357000AC019B01C601B5010E94CC37BACFEA96D7
:103580008FADEA97811108C0CC57DF4FE880C4584F
:10359000D040EE2009F49BC0BE0166587F4FCE019B
:1035A0008B579F4FC4DBBE0161597F4FCE018557BA
:1035B0009F4FBDDBC157DF4F28813981CF58D040A5
:1035C000C757DF4F88819981C958D04028173907DC
:1035D00059F4BE016B577F4FCE0185579F4F0E9414
:1035E000E91261E0892B09F060E070E090E080E092
:1035F0000E94FE342B013C01EE24E394C80186DADC
:10360000F80140825182628273821286B801CE0133
:103610008C599F4F0E94DA10C80104960E940D1128
:10362000CE0185579F4FE110B7C1B7E0BF15C0F17C
:103630008BE0C256DF4FE881F981CE59D0408E9F92
:1036400070018F9FF00C112421E030E02C0F3D1F02
:10365000E20EF31EA8968CAD9DADAEADBFADA897A2
:10366000F70180839183A283B383C656DF4F88819D
:103670009981CA59D0400496C456DF4F6881798138
:10368000CC59D040820F931F9CD9AF968FADAF9786
:10369000D7011A968C93C756DF4FF880C959D0408E
:1036A000C456DF4F88819981CC59D0400E940D11BA
:1036B000C056DF4F88819981C05AD0400E940D11B9
:1036C000CE55DF4F88819981C25AD040FFCCA301EB
:1036D0009201C601B5010E94CA369F772CEA35ECEB
:1036E00047E257E30E94F834412C512C60E8662EE3
:1036F0006FE3762E87FD82CF412C512C32017ECF95
:10370000EA968FADEA97811108C0CC57DF4FE88069
:10371000C458D040EE2009F43FC0BE0166587F4F28
:10372000CE018B579F4F03DBBE0161597F4FCE0106
:1037300085579F4FFCDAC157DF4F28813981CF5819
:10374000D040C757DF4F88819981C958D04028178A
:10375000390759F4BE016B577F4FCE0185579F4FF4
:103760000E94E91261E0892B09F060E081E068279E
:1037700070E090E080E00E94FE342B013C01EE24DA
:10378000E394C801C3D9D8014D925D926D927C92A9
:1037900013971A961C923ACFA3019201C601B50164
:1037A0000E94CA369F772CEA35EC47E257E30E9425
:1037B000C837412C512C50E8652E5FE3752E87FFEA
:1037C000E0CF412C512C3201DCCFAC019B01C60172
:1037D000B5010E94F83487FF1EC0412C512C40E8EF
:1037E000642E4FE3742E9ACEAC019B01C601B50145
:1037F0000E94F8341816DCF0412C512C30E8632E6E
:103800003FE3732E78CEAC019B01C601B5010E9447
:10381000C837181614F3412C512C32017FCEAC015D
:103820009B01C601B5010E94C83787FFE5CF412C37
:10383000512C320160CECE0181599F4F0E94670CFE
:10384000E82E882331F0CE0186589F4F0E94670CE6
:10385000E82EC8015BD96E2D70E090E080E00E94F8
:10386000FC34F80160837183828393835ECECE0142
:1038700081599F4F0E94670CE82E811106C0CE012E
:1038800086589F4F0E94670CE82EC8013FD96E2DC5
:1038900070E090E080E00E94FC34D8016D937D934D
:1038A0008D939C9313972FCEBE0166587F4FCE0108
:1038B0008B579F4F3CDABE0161597F4FCE018F5627
:1038C0009F4F35DAC557DF4F19821882CB58D04049
:1038D000C357DF4F19821882CD58D040C157DF4FF0
:1038E00019821882CF58D040BE016F567F4FCE014B
:1038F00085579F4F66D8CB57DF4F68807980C55872
:10390000D0406114710409F44DC0C757DF4FC8801F
:10391000D980C958D040C114D10439F1C157DF4F03
:1039200088819981CF58D040C80ED91EB601CE01EA
:1039300085579F4F0E9460148823A1F1C557DF4F20
:1039400028813981CB58D040C157DF4F8881998178
:10395000CF58D040B301820F931F0E943B3BC15709
:10396000DF4FD982C882CF58D040BE0165577F4F04
:10397000C801A4DAB801CE018C599F4F0E94DA1019
:10398000C80104960E940D11CE0185579F4F0E94D9
:103990000D11CE018F569F4F0E940D11CE018B57F6
:1039A0009F4FCCCDCE0185579F4F0E94FB10DDCF9E
:1039B000C601B5010E9497376B01613471051CF097
:1039C00020E4C22ED12C1C141D041CF0CC24C39462
:1039D000D12CC301B2010E9497373B01C616D7060E
:1039E0000CF43601161417041CF066246394712C31
:1039F000CE018F569F4F2CD8CB56DF4F4880598031
:103A0000C559D040C414D5040CF4260160E571E01A
:103A1000C8010DD8CB56DF4F88819981C559D04058
:103A2000009709F18415950508F42C01CF56DF4F56
:103A3000E881F981C159D040E40DF51DE080108284
:103A4000CF56DF4F68817981C159D040C8010E94AB
:103A5000CC14CF56DF4F88819981C159D040480E90
:103A6000591EF201E082B801CE018F569F4F0E948D
:103A7000A110C8010E940D116301CB56DF4F888150
:103A80009981C559D0408615970508F462C0230175
:103A9000F1E04F1A51086414750410F0620123011B
:103AA00060E571E0CE018B579F4F0E941715CB56F2
:103AB000DF4F68807980C559D040C614D70428F5F7
:103AC0004614570408F43201CF56DF4FE881F981DC
:103AD000C159D040E60DF71DE0801082CF56DF4F70
:103AE00068817981C159D0406C0D7D1DCE018B5705
:103AF0009F4F0E94CC14CF56DF4F88819981C159C6
:103B0000D040680E791ED301EC92BE016B577F4FF7
:103B1000C801D4D9D12CEE24E394B801CE018C593C
:103B20009F4F0E94DA10C80104960E940D11DD20FB
:103B300029F0CE0185579F4F0E940D11EE2029F0EC
:103B4000CE018B579F4F0E940D11CE018F569F4F74
:103B5000F5CC60E571E0CE0185579F4F0E941715A7
:103B6000BE0165577F4FC801A9D9DD24D394E12C4C
:103B7000D4CF3092320420923104FF2019F161E059
:103B800070E06C0F7D1FBBE0FB9E600D711D11246A
:103B90006B507109C4010E94F6140B501109C80141
:103BA00004960E940D11C956DF4F28813981C759EB
:103BB000D0402017310789F7C401CD55DF4FE2E12E
:103BC0000C94A036C4010E948615F4011082118263
:103BD000128213821286E1CF37E03F1508F4DDC967
:103BE000B4CBA5E1B0E0E7EFFDE10C948436109290
:103BF0004C0310924D0310924E0310924F032091EC
:103C00007D02A0904303B0904403211104C0A09012
:103C10007B02B0907C0280913104909132048A152D
:103C20009B05B0F4009131041091320468012FEF2C
:103C3000C21AD20AD0923204C0923104C8016BD8A1
:103C4000F82E81111FC0B0923204A092310416C028
:103C500010923E0380917B0290917C02211103C05F
:103C600021E020937D0290933204809331042091CF
:103C700043033091440382179307A0F26596E2E173
:103C80000C94A03661E086133AC0CE01019638D973
:103C9000CE010196FFD86B017C01CE0105960E94F2
:103CA0000D1120E030E0A901C701B6010E94F834EF
:103CB00087FF03C0C12CD12C76018FB7F894809078
:103CC000070490900804A0900904B0900A048FBFE4
:103CD00020E030E04AE754E4C701B6010E945D35B8
:103CE0000E949C37860E971EA81EB91E80924C0318
:103CF00090924D03A0924E03B0924F03BFCF8EEF30
:103D00008F0D8230B0F50E5F1F4F10933204009379
:103D10003104C60100D8082FCE010196F1D8CE019A
:103D20000196B8D84B015C01CE0105960E940D1199
:103D3000083008F0A3CF74E0079F8001112482E0CF
:103D40000F5E1B4FF81206C0F80180829182A2829A
:103D5000B38294CFA5019401F801608171818281C1
:103D600093810E94CB36F8016083718382839383B1
:103D700085CFF4E0FF1222C0580122E0A20EB11C50
:103D8000B0923204A0923104C6010E948B16F82E24
:103D90000D5F1F4F1093320400933104C5010E9440
:103DA0008B16182F61E08F2D0E94330261E01111F4
:103DB00001C060E08F2D0E94060260CF65E0F61220
:103DC00030C00E5F1F4F1093320400933104C601C0
:103DD0000E948B16182F61E00E943302CE010196DB
:103DE0008FD8CE01019656D86B017C01CE01059685
:103DF0000E940D11C701B6010E9497376F3F7105F0
:103E00008105910529F024F06FEF70E080E090E0EB
:103E100097FF03C060E070E0CB01812F0E946F022A
:103E20002DCF76E0F71240C0780182E0E80EF11C59
:103E3000F0923204E0923104C6010E948B16D82E13
:103E40000D5F1F4F1093320400933104C7010E948D
:103E50008B16182FCE01019653D8CE0101961AD891
:103E60004B015C01CE0105960E940D11C501B40104
:103E70000E9497376F3F71058105910529F024F065
:103E80006FEF70E080E090E06130AFEF7A078A0773
:103E90009A0724F461E07FEF8FEF9FEFAB01612F72
:103EA0008D2D0E94160FEACEE7E0FE1233C00E5FA2
:103EB0001F4F1093320400933104C6010E948B16E9
:103EC0000E94630E8C01CE0101961AD8CE01019694
:103ED0000E944A176B017C01CE0105960E940D11CC
:103EE0000115110509F4CACEC701B6010E94973722
:103EF000653B71058105910524F064EB70E080E07D
:103F000090E097FF03C060E070E0CB01C8010E9421
:103F1000E009B4CEF8E0FF126CC00E5F1F4F1093A3
:103F2000320400933104C6010E948B16182FCE0173
:103F300001960E948017CE0101960E944A176B01DC
:103F40007C01CE0105960E940D11C701B6010E94A9
:103F500097376B017C0121E2C2162EE4D206E10400
:103F6000F10434F050E2C52E5EE4D52EE12CF12CA4
:103F700064E1C616D104E104F1042CF444E1C42E3A
:103F8000D12CE12CF12CCE0101960E948017CE019C
:103F900001960E944A174B015C01CE0105960E94D2
:103FA0000D1120E030E0A901C501B4010E94F834F0
:103FB00087FF03C0812C912C540120E030E04AE7B8
:103FC00054E4C501B4010E945D350E949C379B01F9
:103FD000AC0110930D01211531054105510521F466
:103FE00021E030E040E050E0B601812F0E945F0305
:103FF00045CE79E0F7120CC00E5F1F4F10933204CC
:1040000000933104C6010E948B160E94330336CE02
:104010008AE0F81227C05801A2E0AA0EB11CB092A3
:104020003204A0923104C6010E948B16D82E78016A
:10403000E3E0EE0EF11CF0923204E0923104C5018F
:104040000E948B16C82E0C5F1F4F109332040093F2
:104050003104C7010E948B16482F6C2D8D2D0E94B4
:10406000F20F0CCEFBE0FF1265C0CE0101960E945C
:104070008017CE0101960E944A176B017C01CE0188
:1040800005960E940D11CE0101960E948017CE0167
:1040900001960E944A174B015C01CE0105960E94D1
:1040A0000D11CE0101960E948017BE016F5F7F4FF8
:1040B000CE010C960E949716CE0105960E940D1116
:1040C00080914203882389F1C701B6010E94973786
:1040D0006B017C0124E0C216D104E104F1042CF050
:1040E00033E0C32ED12CE12CF12CF7FE03C0C12C00
:1040F000D12C7601C501B4010E949737DC01CB01B8
:1041000084319105A105B10524F083E190E0A0E0A0
:10411000B0E0B7FF03C080E090E0DC016C2D0E94AE
:10412000D30FCE010C960E94B10FCE010C960E94C7
:104130000D11A4CD6CE0F61203C00E94E60F9ECDD7
:104140007DE1F7121AC0780182E0E80EF11CF092CE
:104150003204E0923104C6010E948B16D82E0D5F06
:104160001F4F1093320400933104C7010E948B1635
:10417000682F8D2D0E94D10D81CDAEE1FA1259C06C
:10418000CE0101960E948017CE0101960E944A1727
:104190006B017C01CE0105960E940D11CE010196A6
:1041A0000E948017CE0101960E944A174B015C01C4
:1041B000CE0105960E940D11CE0101960E94801736
:1041C000BE016F5F7F4FCE010C960E949716CE0105
:1041D00005960E940D11C701B6010E9497376B0129
:1041E0007C01E8E0CE16D104E104F1042CF027E0D4
:1041F000C22ED12CE12CF12CF7FE03C0C12CD12C06
:104200007601C501B4010E949737603171058105BF
:10421000910524F06FE070E080E090E097FF03C02C
:1042200060E070E0CB014C2DCE010C960E94BA0CE0
:104230007CCFFFE1FF1203C00E94A20D1FCD2DE035
:10424000F2125EC00E5F1F4F1093320400933104D0
:10425000C6010E948B16B82ECE0101960E948017CF
:10426000CE0101960E944A176B017C01CE01059692
:104270000E940D11C701B6010E9497376B017C01A6
:104280006DE3C616D104E104F1042CF09CE3C92EC1
:10429000D12CE12CF12C1C141D041E041F0424F04D
:1042A000C12CD12C7601C39400913F03109140039F
:1042B0000115110581F0F801818592850E94E3398D
:1042C000F8018681978197FD03C060E00E94330268
:1042D000C8010E94E33986E190E00E9447398C01D1
:1042E0004B2D50E0B6010E944A10109340030093FA
:1042F0003F03C8010E940108C8010E9440108FC0FE
:10430000FEE0FF1293C0CE0101960E948017CE01FD
:1043100001960E944A176A8B7B8B8C8B9D8BCE01FA
:1043200005960E940D11CE0101960E948017CE01C4
:1043300001960E944A176B017C01CE0105960E94EE
:104340000D11CE0101960E948017CE0101960E94A8
:104350004A174B015C01CE0105960E940D11CE015A
:1043600001960E948017CE0101960E944A172B01E8
:104370003C01CE0105960E940D1100913F03109162
:1043800040030115110509F479CCF801228033802E
:104390002114310409F472CCC301B2010E94973791
:1043A000712C77FD07C06F3F710519F014F06FEFA6
:1043B00070E0762EC501B4010E949737B12C77FDCD
:1043C00007C06F3F710519F014F06FEF70E0B62E63
:1043D000C701B6010E949737F12C77FD07C06F3FE8
:1043E000710519F014F06FEF70E0F62E6A897B8981
:1043F0008C899D890E949737272D30E050E040E05E
:104400003B294F2977FD0FC0A1E02A1A3108621518
:10441000730508F41B01B101C8010E94D706C80149
:104420000E9443072BCC312C212CF5CFEFE0FE125C
:1044300009C000913F03109140030115110509F0D7
:104440005BCF1CCCF0E1FF123FC0780122E0E20E0E
:10445000F11CF0923204E0923104C6010E948B16E6
:10446000B82E0D5F1F4F1093320400933104C70123
:104470000E948B16182FCE0101960E948017CE0144
:1044800001960E944A176B017C01CE0105960E949D
:104490000D11612F8B2D0E941511882309F4EECB8D
:1044A000C701B6010E9497376F31710581059105EB
:1044B00024F06EE170E080E090E097FF03C060E0E0
:1044C00070E0CB0186E01FC061E1F6121FC0CE0193
:1044D00001960E948017CE0101960E944A176B0137
:1044E0007C01CE0105960E940D11C701B6010E9404
:1044F0009737161617061806190624F061E070E0C3
:1045000080E090E083E00E94000EB8CB72E1F712E9
:104510000FC0CE0101960E948017CE0101960E9425
:104520004A176B017C01CE0105960E940D11B8CF90
:1045300083E1F81204C070E060E086E1E4CFA4E11A
:10454000FA1258C07801E2E0EE0EF11CF09232044B
:10455000E0923104C6010E948B16D82E0D5F1F4FCA
:104560001093320400933104C7010E948B16C82EA9
:10457000E8D47C0100910F0410911004011511057D
:1045800031F0C8010E940D09C8010E94E3398FE192
:1045900090E00E9447398C01FC011382128288EE60
:1045A00093E0A0E0B0E084839583A683B7838CE199
:1045B00091E091838083178A168A118E108E138E54
:1045C000128E158E148E868D8E7F8D7F868F6C2D2C
:1045D000C8010E94E6086D2DC8010E94BF08109313
:1045E000100400930F04A70170E060E0C8010E946E
:1045F000560944CBF5E1FF1222C000910F0410913F
:10460000100401151105D1F1C8010E942509CE0140
:1046100001960E948017BE016F5F7F4FCE010C96FE
:104620000E949716BE01645F7F4FC8010E947C13F1
:10463000CE010C960E940D11CE01059678CD2BE18E
:10464000F21221C000910F04109110040115110500
:10465000A9F0C8010E942509CE0101960E94801789
:10466000BE016F5F7F4FCE010C960E949716BE0170
:10467000645F7F4FC8010E94A405DACFCE01019686
:104680000E948017D9CF6CE1F61221C00E5F1F4F38
:104690001093320400933104C6010E948B16182F28
:1046A000CE0101960E948017BE016F5F7F4FCE0141
:1046B0000C960E949716612FCE010C960E94280C32
:1046C000CE010C960E940D11CE01059630CD76E1FB
:1046D000F71219C067E772E083E894E00E94B3051F
:1046E000CE0101960E948017BE016F5F7F4FCE0101
:1046F0000C960E949716BE01645F7F4F83E894E09A
:104700000E947C13DDCF87E1F81206C01AD4909383
:10471000320480933104B2CAA8E1FA1211C0CE016A
:1047200001960E948017CE0101960E94670C182FF7
:10473000CE0105960E940D1104D411119FCAE7CF36
:10474000E9E1FE1234C0CE0101960E948017CE012D
:1047500001960E944A170E9497376B017C01CE0197
:1047600005960E940D11EDD39C011C141D041E041E
:104770001F042CF030933204209331047FCA9091AF
:104780003E039430B8F726E0929FF0011124ED59D2
:10479000FD4F209131043091320431832083C28255
:1047A000D382E482F5829F5F90933E0367CA6AE1F9
:1047B000F61227C0C6D39C0190913E03992309F4B9
:1047C0005DCAE92FE150FF0BAF0186E0849FF00145
:1047D000859FF00D1124ED59FD4F42815381648175
:1047E0007581415051096109710942835383648382
:1047F000758314161506160617060CF4BBCF9150D8
:10480000D3CF109250033ACA009719F00E94CE30CD
:10481000BC01CB0108951F920F920FB60F92112485
:104820002F933F938F939F93AF93BF9380910704F0
:1048300090910804A0910904B0910A0430910604F3
:1048400023E0230F2D3758F50196A11DB11D2093AC
:1048500006048093070490930804A0930904B0937E
:104860000A0480910B0490910C04A0910D04B09166
:104870000E040196A11DB11D80930B0490930C04AE
:10488000A0930D04B0930E04BF91AF919F918F91AF
:104890003F912F910F900FBE0F901F90189526E813
:1048A000230F0296A11DB11DD2CF1F920F920FB6FA
:1048B0000F9211242F933F934F935F936F937F93A6
:1048C0008F939F93AF93BF93EF93FF9380913A039E
:1048D00090913B03A0913C03B0913D03892B8A2B1F
:1048E0008B2BD1F190913903E0913703F09138038C
:1048F00080818927808380913A0390913B03A09126
:104900003C03B0913D03181619061A061B069CF4C9
:1049100080913A0390913B03A0913C03B0913D03F9
:104920000197A109B10980933A0390933B03A093A7
:104930003C03B0933D03FF91EF91BF91AF919F91E5
:104940008F917F916F915F914F913F912F910F9038
:104950000FBE0F901F90189580910C010E94330399
:10496000EACF1F920F920FB60F9211242F933F930D
:104970004F935F936F937F938F939F93AF93BF9367
:10498000EF93FF9383E894E00E944706FF91EF9135
:10499000BF91AF919F918F917F916F915F914F9157
:1049A0003F912F910F900FBE0F901F9018951F925F
:1049B0000F920FB60F9211242F938F939F93EF9323
:1049C000FF93E0919304F09194048081E091990425
:1049D000F0919A0482FD1BC0908180919C048F5FAE
:1049E0008F7320919D04821741F0E0919C04F0E0C8
:1049F000ED57FB4F958F80939C04FF91EF919F9112
:104A00008F912F910F900FBE0F901F90189580815E
:104A1000F4CF1F920F920FB60F9211242F933F9352
:104A20004F935F936F937F938F939F93AF93BF93B6
:104A3000EF93FF93E0912B03F0912C03309749F013
:104A4000A685B7858585968D91FF14C09C91892395
:104A5000A1F4FF91EF91BF91AF919F918F917F91C1
:104A60006F915F914F913F912F910F900FBE0F90DB
:104A70001F9018959C91892361F7A389B4899C9113
:104A80008589809589238C93868997890197F1F789
:104A9000608D718DA685B785558538E020E0CB0106
:104AA0000197F1F7822F90E095958795282F4C91EB
:104AB000452309F02068315091F7868D81FD2095BE
:104AC0008091290390E001968F73992730912A03F2
:104AD000381799F0A0912903B0E0A751BD4F2C934E
:104AE00080932903828D938D0197F1F7A389B4896F
:104AF0008C919589892B8C93ACCF868D8160868F24
:104B0000F1CF1F920F920FB60F9211242F933F9364
:104B10004F935F936F937F938F939F93AF93BF93C5
:104B2000CF93DF93EF93FF938091E802C0915005FC
:104B3000D0E087FF24C010928500109284008091FD
:104B4000E8028F5F8093E8028091E802082E000C53
:104B5000990B8C179D0724F48091E8028C30C4F1E6
:104B60008091840090918500049680349C4908F4DB
:104B70007AC08091840090918500049676C08091DF
:104B8000E802082E000C990B8C179D07C4F6E091E3
:104B9000E8028E2FEE0F990BFC01EE0FFF1FE80FBE
:104BA000F91FE45DFA4F808186FFC9CFE091E802EA
:104BB0008E2FEE0F990BFC01EE0FFF1FE80FF91F70
:104BC000E45DFA4F808160E08F730E940602B7CFE8
:104BD0002091840030918500E091E8028E2FEE0F45
:104BE000990BFC01EE0FFF1FE80FF91FE45DFA4F70
:104BF00081819281820F931F909389008093880016
:104C0000E091E8028E2FEE0F990BFC01EE0FFF1FD3
:104C1000E80FF91FE45DFA4F808186FF11C0E09133
:104C2000E8028E2FEE0F990BFC01EE0FFF1FE80F2D
:104C3000F91FE45DFA4F808161E08F730E940602E4
:104C4000FF91EF91DF91CF91BF91AF919F918F91A4
:104C50007F916F915F914F913F912F910F900FBE78
:104C60000F901F90189580E49CE9909389008093A1
:104C700088008FEF8093E802E3CF1F920F920FB668
:104C80000F9211242F933F934F935F936F937F93D2
:104C90008F939F93AF93BF93EF93FF938091B9004E
:104CA000887F803609F44AC0F0F5883209F4A7C03D
:104CB00018F5803109F49BC0B8F4882309F4F9C0D1
:104CC000883009F494C0FF91EF91BF91AF919F910B
:104CD0008F917F916F915F914F913F912F910F90A5
:104CE0000FBE0F901F901895883109F488C080324C
:104CF00051F78093570414C0803409F49DC040F4E8
:104D00008033B9F38833F9F68093570485ECB0C04B
:104D1000803509F485C0883509F496C0883499F641
:104D20000E94C715D0CF883909F48CC038F5883770
:104D300029F050F4883611F0803729F683E080930B
:104D400059041092E70257C0883809F47BC08039B3
:104D500019F0803809F0B7CF8091E702803208F06F
:104D600071C0E091E70281E08E0F8093E7028091AD
:104D7000BB00F0E0E953FD4F80833DC0803B39F03C
:104D8000E0F4803A09F479C0883A09F09CCF84E0D5
:104D9000809359041092C4021092C302E091C102A0
:104DA000F091C20209958091C30281110FC081E088
:104DB0008093C3021092A10209C0803C09F4A6CFDF
:104DC000883C09F4A3CF883B09F07DCFE091C40271
:104DD00081E08E0F8093C402F0E0EF55FD4F80819B
:104DE0008093BB009091C4028091C30229C080913E
:104DF00034048093BB0085EC8093BC0064CF909119
:104E0000560480915504981758F5E091560481E0B6
:104E10008E0F80935604F0E0EB5CFB4F8081E9CF6E
:104E2000E091560481E08E0F809356048091BB0080
:104E3000F0E0EB5CFB4F8083909156048091550429
:104E40009817C8F285E8D8CFE091560481E08E0F1C
:104E5000809356048091BB00F0E0EB5CFB4F8083B5
:104E60008091580481115CCF81E08093330484EAFF
:104E70008093BC001092590426CF85EC8093BC002F
:104E8000109259048091E702803230F4E091E702F9
:104E9000F0E0E953FD4F10826091E70270E0E0918D
:104EA000C502F091C60287EC92E009951092E702E4
:104EB0000ACF1092570434CFCF92DF92EF92FF9235
:104EC0000F931F93E82FF92F05C0015011092109F5
:104ED000310961F1908196239417B9F305C001500F
:104EE00011092109310911F1908196239413F7CF0B
:104EF000C12CD12CE12CF12C0AC08FEFC81AD80A92
:104F0000E80AF80A0C151D052E053F0579F0808189
:104F10008623841791F36C2D7D2D8E2D9F2D1F914F
:104F20000F91FF90EF90DF90CF90089560E070E0D8
:104F300080E090E01F910F91FF90EF90DF90CF9075
:104F40000895EF92FF920F931F93CF93DF93C09139
:104F50003104D09132047E012FEFE21AF20AF0926E
:104F60003204E0923104CE010E948B16082F10E02B
:104F70002296D0933204C0933104C7010E948B164D
:104F80009801382BC901CDB7DEB7E6E00C94AC36FA
:104F9000109286041092850488EE93E0A0E0B0E0C1
:104FA0008093870490938804A0938904B0938A0423
:104FB0002EE231E0309384042093830425EC30E02A
:104FC0003093900420938F0424EC30E030939204CB
:104FD0002093910420EC30E03093940420939304C8
:104FE00021EC30E0309396042093950422EC30E0DD
:104FF000309398042093970426EC30E030939A0481
:105000002093990410929C0410929D0410929E0487
:1050100010929F041092230510922205809324057C
:1050200090932505A0932605B093270580E491E091
:105030009093210580932005E1E5F5E02DE535E02D
:105040004FEF68EB7BE0809150058C30B0F491E03D
:10505000980F90935005808390E0DC01AA0FBB1F4E
:10506000A80FB91FA45DBA4F12967C936E93119747
:1050700033962E173F0739F708954083F9CFA3E2FF
:10508000B0E0E5E4F8E20C948436789484B582606C
:1050900084BD84B5816084BD85B5826085BD85B5DC
:1050A000816085BD80916E00816080936E0010925A
:1050B00081008091810082608093810080918100D5
:1050C0008160809381008091800081608093800066
:1050D0008091B10084608093B1008091B0008160C4
:1050E0008093B00080917A00846080937A008091F0
:1050F0007A00826080937A0080917A008160809348
:105100007A0080917A00806880937A001092C100C2
:10511000E0919304F091940482E08083E0918F0405
:10512000F09190041082E0919104F091920480E15A
:10513000808310929B04E0919704F091980486E09C
:105140008083E0919504F091960480818061808352
:10515000E0919504F0919604808188608083E091CD
:105160009504F0919604808180688083E091950495
:10517000F091960480818F7D80836EE571E080E000
:1051800090E00E9402030E944F140E94141668EEE1
:10519000862E63E0962EA12CB12C5CE1252E51E0E9
:1051A000352E83E894E00E942906892B09F4B7C6BE
:1051B00083E894E00E9407068D3099F3E09105049E
:1051C0008A3009F0A0C6AE2FB0E0AF5ABC4F1C9297
:1051D000EE2351F067E671E081E593E00E94323BF7
:1051E000892B29F40E944F1410920504DACF6CE643
:1051F00071E081E593E0F7D77C016CE671E090E027
:1052000080E0F1D78C01E114F10471F3892B61F393
:105210006EE671E0C7010E94323B892B09F048C15C
:105220006CE671E090E080E0DED77C016E0122E167
:10523000C20ED11C712C6CE671E090E080E0D3D7F7
:10524000D6018D939D936D01892B21F07394B6E067
:105250007B12F1CFE114F10439F260E771E0C7018C
:105260000E94323B892BD1F47720C1F070E060E0DE
:105270008A899B89C9DAF82E60E00E9433028F2D5B
:105280000E94DE01BC01990F880B990B0E94FE342D
:10529000AB01BC01C8010E948F13A6CF6BEC71E07B
:1052A000C7010E94323B892BA1F4772091F070E076
:1052B00060E08A899B89A8DA97FD07C0863091054E
:1052C00034F4825F0E94C802DDCF8EE0FBCF83E121
:1052D000F9CF63E771E0C7010E94323B892BB1F43B
:1052E0007720A1F070E060E08A899B898DDAF82E42
:1052F00060E00E9433028F2D0E94DE01019709F0C9
:1053000077C040E050E060E87FE3C4CF6AE771E037
:10531000C7010E94323B892B91F4E1E0E71578F454
:1053200070E060E08C899D896FDAF82E70E060E0B3
:105330008A899B8969DA6F2D0E949012A7CF60E855
:1053400071E0C7010E94323B892B91F4F1E0F7151F
:1053500078F470E060E08C899D8956DAF82E70E070
:1053600060E08A899B8950DA6F2D0E94550F8ACFA1
:1053700065E871E0C7010E94323B892BE9F422E025
:105380002715D0F470E060E08A899B893DDAD82E39
:1053900070E060E08E899F8937DA7C0170E060E020
:1053A0008C899D8931DA41E0EF2809F440E0682FCB
:1053B0008D2D0E94AA116CCF69E871E0C7010E948F
:1053C000323B892BC9F4E0900F04F0901004E114F3
:1053D000F10471F0C7010E942509D701ED91FC91FC
:1053E0000084F185E02DC7010995892B09F089CF4B
:1053F00040E050E0BA014ECF61E971E0C7010E9480
:10540000323B892BA9F7CE014E960E9428156DE7F5
:1054100072E083E894E00E94B305B80183E894E069
:105420000E9415138CE20E94B30681E1EFE4F2E0E2
:10543000DE01119601900D928A95E1F710E000E0EF
:105440008AA19BA10817190740F58E8D9F8DF12C1D
:10545000009721F0800F911FFC01F080EF2DF0E00C
:1054600044E0F595E7954A95E1F781E090E08C0FEF
:105470009D1FE80FF91F80810E94B306EF2DEF708A
:10548000A1E0B0E0AC0FBD1FAE0FB11DFD018081EA
:105490000E94B3060F5F1F4FD3CF6EE471E083E825
:1054A00094E00E941513CE014E960E940D119CCEE1
:1054B00068E971E0C7010E94323B892B09F0C4C33F
:1054C000FE0131966F01F12C6CE671E090E080E016
:1054D0008AD6D6018D939D936D01892B09F0AFC3B8
:1054E0006AE971E0C8010E94323B892BC9F4B1E03E
:1054F000BF15B0F470E060E089819A8185D9182FDA
:1055000061E00E94330270E060E08B819C817CD975
:1055100061E0892B09F460E0812F0E94060264CECD
:105520006DE971E0C8010E94323B892B01F5E1E091
:10553000EF15E8F470E060E089819A8165D9182F51
:1055400061E00E94330270E060E08B819C815CD955
:105550008F3F910519F014F08FEF90E097FF02C094
:1055600090E080E0BC01812F0E946F023DCE60EA96
:1055700071E0C8010E94323B892BC9F4F2E0FF15AB
:10558000B0F470E060E08D819E813ED97C0170E0D6
:1055900060E08B819C8138D9182F70E060E08981B0
:1055A0009A8132D9A701612F0E94160F1DCE66EA9B
:1055B00071E0C8010E94323B892B09F521E02F15CB
:1055C000F0F470E060E089819A811ED90E94630E38
:1055D0008C01892B09F408CE70E060E08B819C81FE
:1055E00013D9853B910514F084EB90E097FF02C03E
:1055F00090E080E0BC01C8010E94E009F5CD6EEAB0
:1056000071E0C8010E94323B892B79F582E08F1549
:1056100060F570E060E089819A81F6D8182F809358
:105620000D0170E060E08D819E81EED8181619069C
:1056300014F081E090E06C01990FEE08FF0870E033
:1056400060E08B819C81E0D864E170E08431910559
:1056500034F0BC0181329E4414F060E27EE4A70184
:105660009601812F0E945F03BFCD6CEA71E0C801F3
:105670000E94323B892B51F4FF2041F070E060E042
:1056800089819A81C1D80E943303AECD63EB71E06A
:10569000C8010E94323B892BC9F4B2E0BF15B0F4B7
:1056A00070E060E08D819E81AFD8082F70E060E0EF
:1056B0008B819C81A9D8182F70E060E089819A8144
:1056C000A3D8402F612F0E94F20F8ECD6CEB71E0BA
:1056D000C8010E94323B892B11F5E2E0EF15F8F486
:1056E000809142038823D9F070E060E089819A813B
:1056F0008BD8182F70E060E08B819C8185D8612F5A
:105700000E94D30F6D817E81CE0142960E948B153F
:10571000CE0142960E94B10FCE014296C6CE65ECF4
:1057200071E0C8010E94323B892B39F48091420319
:10573000882319F00E94E60F57CD6EEC71E0C80186
:105740000E94323B892B91F4F1E0FF1578F461E07F
:1057500070E08B819C8158D8182F6CE370E08981B0
:105760009A8152D8612F0E94D10D3ECD68ED71E033
:10577000C8010E94323B892B01F522E02F15E8F485
:10578000809141038823C9F070E060E089819A81AB
:105790003BD8082F70E060E08B819C8135D8182FB2
:1057A0006D817E81CE0142960E948B15402F612F24
:1057B000CE0142960E94BA0CAFCF62EE71E0C801F2
:1057C0000E94323B892B39F480914103882319F0E0
:1057D0000E94A20D09CD6CEE71E0C8010E94323B1F
:1057E000892B09F04CC081E08F1508F048C000916A
:1057F0003F03109140030115110589F0D801199656
:105800008D919C910E94E339F8018681978197FDE3
:1058100003C060E00E943302C8010E94E33970E0D7
:1058200060E08B819C810E9404241816190634F4D0
:105830006C01CD9734F03CE3C32E02C0CC24C3945A
:10584000D12C70E060E089819A810E9404247C015F
:1058500086E190E00E9447398C01A701B6010E94C1
:105860004A101093400300933F03C8010E940108AF
:10587000C8010E944010C8010E944307B5CC65EFE3
:1058800071E0C8010E94323B892B09F05BC0F3E054
:10589000FF1508F057C0C0903F03D0904003C114DB
:1058A000D10409F44FC070E060E08F8198850E94B8
:1058B000042410E097FD06C0182F8F3F910511F0CA
:1058C0000CF01FEF70E060E08D819E810E94042447
:1058D00000E097FD06C0082F8F3F910511F00CF0F6
:1058E0000FEF70E060E08B819C810E94042497FDA3
:1058F00025C08F3F910509F01CF5412E512C712CCC
:10590000612C502A682A70E060E089819A810E94A7
:10591000042470E060E097FD0AC0D60112966D91F4
:105920007C91615071098617970708F4BC01A301A7
:105930009201C6010E94D706C6019ECF80E0DDCF4E
:105940008FEFDBCF6CEF71E0C8010E94323B892BF7
:1059500059F4C0903F03D0904003C114D10421F00A
:10596000C6010E944010E8CF65E072E0C8010E94C5
:10597000323B892B99F5B1E0BF1580F5E2E004E1F7
:1059800010E0FE1679F070E060E08D819E810E944B
:1059900004248C014F9714F00EE110E017FF02C0B1
:1059A00010E000E070E060E08B819C810E940424A4
:1059B000F82E70E060E089819A810E9404246F2DA6
:1059C0000E941511882309F40FCCB80186E00E94CB
:1059D000000E85E892E00E946A1306CC6EE072E049
:1059E000C8010E94323B892B91F4FF2081F070E0C6
:1059F00060E089819A810E9404241816190614F027
:105A000081E090E0BC0183E00E94000EEDCB66E1F6
:105A100072E0C8010E94323B892B99F4FF2089F083
:105A200070E060E089819A810E94042497FD05C09E
:105A3000BC014F9724F06EE101C060E070E086E0A9
:105A4000E3CF6DE172E0C8010E94323B892B21F463
:105A500070E060E086E1D8CF65E272E0C8010E94A4
:105A6000323B892B09F056C0F2E0FF1508F052C016
:105A700000910F04109110040115110531F0C801B7
:105A80000E940D09C8010E94E33970E060E089813D
:105A90009A810E940424F82E70E060E08B819C8142
:105AA0000E940424E82E8FE190E00E9447398C0187
:105AB000DC0113961C921E921297FC01848295823F
:105AC000A682B78231822082178A168A118E108EA2
:105AD000138E128E158E148E868D8E7F8D7F868FFF
