:100000000C94B9010C94E1010C94E1010C944C2581
:100010000C944C250C944C250C94E1010C949824E0
:100020000C94E1010C94E1010C94E1010C94C425C1
:100030000C94E1010C94E1010C94E1010C94E101B8
:100040000C944E240C94E1010C941A250C94F42485
:100050000C94E1010C94E1010C94E1010C94E10198
:100060000C9480260C94E10107634236B79BD8A715
:100070001A39685618AEBAAB558C1D3CB7CC5763CD
:10008000BD6DEDFD753EF6177231BF000000803F7B
:1000900008000000BE922449123EABAAAA2ABECD97
:1000A000CCCC4C3E00000080BEABAAAAAA3E000009
:1000B0000000BF000000803F000000000008417801
:1000C000D3BB4387D1133D190E3CC3BD4282AD2B38
:1000D0003E68EC8276BED98FE1A93E4C80EFFFBE30
:1000E00001C4FF7F3F00000000004E414E494E49D1
:1000F0005459494E46CDCCCC3D0AD7233C17B7D1F5
:100100003877CC2B329595E6241FB14F0A0000209A
:10011000410000C84200401C4620BCBE4CCA1B0E19
:100120005AAEC59D7400407A10F35A00A0724E1862
:10013000090010A5D4E80000E87648170000E40B99
:1001400054020000CA9A3B000000E1F5050000805F
:10015000969800000040420F000000A086010000B9
:1001600000102700000000E8030000000064000009
:100170000000000A00000000000100000000002C48
:1001800076D888DC674F0823DFC1DFAE59E1B1B70D
:1001900096E5E3E453C63AE651997696E8E6C284DA
:1001A00026EB898C9B62ED407C6FFCEFBC9C9F40F2
:1001B000F2BAA56FA5F490055A2AF75C936B6CF917
:1001C000676DC11BFCE0E40D47FEF520E6B500D0ED
:1001D000ED902E0300943577050080841E08000002
:1001E000204E0A000000C80C333333330F986E12D0
:1001F000831141EF8D2114893BE65516CFFEE6DBD6
:1002000018D1844B381BF77C1D901DA4BBE424201F
:100210003284725E228100C9F124ECA1E53D2752AF
:10022000454144592C4F6E654D616B65722041729A
:100230006475696E6F2052756E74696D652C005619
:100240002C0050524F4752414D5F4552524F522C55
:10025000696E76616C69642D6F70636F6465004CC4
:100260004F472C0002542C004C4F472C0050524F4B
:100270004752414D5F434C45415245440050524F17
:100280004752414D5F4552524F522C656D70747903
:100290000050524F4752414D5F52554E4E494E47C6
:1002A0000053415645442C0050524F4752414D5F38
:1002B0004552524F522C636865636B73756D0050E5
:1002C000524F4752414D5F444154412C0050524FD0
:1002D0004752414D5F4552524F522C72616E6765D5
:1002E0000050524F4752414D5F4552524F522C736E
:1002F000697A650050524F4752414D5F5245414423
:1003000059004552524F522C6C696E652D746F6FB7
:100310002D6C6F6E670000000000240027002A008B
:1003200000000008000201000003040700000000B4
:100330000000000000000000230026002900010248
:100340000408102040800102040810200102040863
:10035000102000000000250028002B0004040404E5
:10036000040404040202020202020303030303035F
:100370000D2811241FBECFEFD8E0DEBFCDBF12E0A5
:10038000A0E0B1E0EAE1F7E702C005900D92A034E9
:10039000B107D9F725E0A0E4B2E001C01D92A8346E
:1003A000B207E1F711E0C9EBD1E004C02197FE01EB
:1003B0000E948339C83BD107C9F70E9484280C9456
:1003C0008B3B0C940000833081F028F4813099F04D
:1003D0008230A9F008958730A9F08830C9F08430C0
:1003E000B1F4809180008F7D03C0809180008F7771
:1003F00080938000089584B58F7784BD089584B577
:100400008F7DFBCF8091B0008F778093B0000895EF
:100410008091B0008F7DF9CFCF93DF93282F30E00C
:10042000F901E05EFC4F8491F901E25CFC4FD4914C
:10043000F901E45AFC4FC491CC23A1F081110E9430
:10044000E301EC2FF0E0EE0FFF1FEC5CFC4FA591F9
:10045000B491EC91ED2381E090E009F480E0DF912C
:10046000CF91089580E090E0FACF1F93CF93DF9370
:10047000282F30E0F901E05EFC4F8491F901E25C45
:10048000FC4FD491F901E45AFC4FC491CC23A9F05C
:10049000162F81110E94E301EC2FF0E0EE0FFF1FF9
:1004A000EE5AFC4FA591B4918FB7F894EC911111CD
:1004B00008C0D095DE23DC938FBFDF91CF911F91D1
:1004C0000895DE2BF8CFCF93DF9390E0FC01E25C40
:1004D000FC4F2491845A9C4FFC0184918823C9F0DD
:1004E00090E0880F991FFC01EA5EFC4FA591B49142
:1004F000FC01EE5AFC4FC591D49161110DC09FB71C
:10050000F8948C91209582238C93888128232883CA
:100510009FBFDF91CF910895623051F49FB7F89457
:100520003C91822F809583238C93E8812E2BEFCFF3
:100530008FB7F894EC912E2B2C938FBFEACF0F93AB
:100540001F93CF93DF93EC01162F042F1B821A8287
:1005500088EE93E0A0E0B0E08C839D83AE83BF8300
:1005600089E291E0998388831F8A1E8A198E188EEA
:100570001B8E1A8E1D8E1C8E6E8D6E7F6D7F6E8F04
:100580006695617081E06827842F0E94350261E0E2
:10059000802F0E946302802F90E0FC01E25CFC4F00
:1005A000E491E88BFC01E45AFC4FE491F0E0EE0F9B
:1005B000FF1FEE5AFC4F859194919A8B898B60E0D6
:1005C000812F0E9463028E8D81FD04C061E0812F26
:1005D0000E9435021C87812F90E0FC01E25CFC4FF9
:1005E000E491ED87FC01E45AFC4FE491F0E0EE0F5A
:1005F000FF1FEC5CFC4F859194919F878E87DF9164
:10060000CF911F910F9108951F93CF93DF93182FD0
:10061000EB0161E00E946302209739F460E0812FD2
:10062000DF91CF911F910C943502CF3FD10511F48A
:1006300061E0F5CFE12FF0E0E05EFC4FE491E330C4
:1006400031F140F4E130B1F0E230E1F0C038D105F1
:100650007CF7E4CFE73029F1E83059F1E430B1F725
:1006600080918000806280938000D0938B00C09343
:100670008A0004C084B5806884BDC7BDDF91CF9176
:100680001F91089584B5806284BDC8BDF7CF809165
:100690008000806880938000D0938900C093880098
:1006A000EDCF8091B00080688093B000C093B3001C
:1006B000E5CF8091B00080628093B000C093B40019
:1006C000DDCF8E3008F08E508770806480937C0080
:1006D00080917A00806480937A0080917A0086FD10
:1006E000FCCF809178009091790008953FB7F894FD
:1006F00080913E0490913F04A0914004B091410448
:1007000026B5A89B05C02F3F19F00196A11DB11D6C
:100710003FBFBA2FA92F982F8827BC01CD01620FA8
:10072000711D811D911D42E0660F771F881F991F63
:100730004A95D1F708958F929F92AF92BF92CF9230
:10074000DF92EF92FF924B015C010E9476036B01F6
:100750007C010E9476036C197D098E099F09683E11
:10076000734081059105A8F321E0821A9108A10840
:10077000B10888EEC80E83E0D81EE11CF11C81147C
:100780009104A104B10429F7FF90EF90DF90CF907E
:10079000BF90AF909F908F9008952FB7F89460917D
:1007A0003A0470913B0480913C0490913D042FBF2A
:1007B000089508959091090189130BC0E4E6F2E0D1
:1007C000E4919FEF90930901E13049F028F0E23085
:1007D00061F060E00C94350210926E00FACF9091B7
:1007E0006F009D7F90936F00F4CF909170009D7F7C
:1007F0009093700091E09093B0009091B100987F39
:1008000094609093B1001092B300E3CF4F925F9247
:100810006F927F928F929F92AF92BF92CF92DF9210
:10082000EF92FF920F931F93CF93DF9300D000D0EE
:100830001F92CDB7DEB78B0129013A0190910901D2
:100840008917C9F09F3F09F47EC00F900F900F9059
:100850000F900F90DF91CF911F910F91FF90EF902C
:10086000DF90CF90BF90AF909F908F907F906F90D0
:100870005F904F900895E4E6F2E094919D8397FD98
:10088000E4CF61E00E9463028D81882321F09D8185
:10089000923009F04AC14801B12CA12C60E072E10C
:1008A0008AE790E0A50198010E945B3629833A838C
:1008B0004B835C8369017A0181E0C81AD108E108A1
:1008C000F1089FEFC916D104E104F10409F00CF41A
:1008D00001C160E472E48FE090E0A50198010E94FC
:1008E0005B3669017A0181E0C81AD108E108F10894
:1008F0009D81923009F0A2C08FEFC816D104E104A7
:10090000F10409F00CF4E6C160E970ED83E090E0D9
:10091000A50198010E945B3669017A0191E0C91A2C
:10092000D108E108F1088FEFC816D104E104F10401
:1009300011F00CF07FC183E09091B100987F892B7A
:100940008093B100CFC080930901E4E6F2E0949176
:100950009D839F3F09F479CF913041F150F092305F
:1009600009F446C09D8197FD70CF61E00E9463024B
:100970008ECF14BC15BC94B5926094BD95B59160B2
:1009800095BD282F30E0F901E45AFC4FE491F0E0E6
:10099000EE0FFF1FEE5AFC4F45915491F901E25CB6
:1009A000FC4FE491E0935F031D826BCF10928000B7
:1009B00010928100909181009860909381009091B5
:1009C0008100916090938100282F30E0F901E45A72
:1009D000FC4FE491F0E0EE0FFF1FEE5AFC4F459103
:1009E0005491F901E25CFC4FE491E0935E0349CF3E
:1009F0001092B0001092B1009091B000926090936C
:100A0000B0009091B10091609093B100282F30E038
:100A1000F901E45AFC4FE491F0E0EE0FFF1FEE5AAB
:100A2000FC4F459154915093690340936803F90139
:100A3000E25CFC4FE491E0936A0323CF9FEFC91679
:100A4000D104E104F10409F00CF46DC068E478EE1F
:100A500081E090E0A50198010E945B3669017A016E
:100A600081E0C81AD108E108F1089D81992309F4B1
:100A7000FAC08FEFC816D104E104F10411F00CF0B4
:100A8000FBC0EFC064E274EF80E090E0A501940148
:100A90000E945B3669017A0181E0C81AD108E10839
:100AA000F10885E09FEFC916D104E104F10409F0D3
:100AB00008F442CF62E17AE780E090E0A50194017A
:100AC0000E945B3669017A0181E0C81AD108E10809
:100AD000F108E5C081E09D8191112ECF95B5987FF9
:100AE000892B85BD2FEF3FEFA9014114510461040B
:100AF000710409F043C09D81913009F45EC09230C9
:100B000009F46DC09111A1CEC7BC2093640330934A
:100B10006503409366035093670380916E00826083
:100B200080936E0092CE82E0D6CFB12CA12C60E0F3
:100B300072E18AE790E0A50198010E945B366901A5
:100B40007A0181E0C81AD108E108F108C114D10482
:100B500091E0E906F10404F591E08D81813011F610
:100B600080918100887F892B809381002FEF3FEF58
:100B7000A9014114510461047104F9F0D801AA0FCC
:100B8000BB1FA30192010E947A3628EE33E040E0B9
:100B900050E00E943936AFCF68E478EE81E090E013
:100BA000A50198010E945B3669017A0181E0C81AAB
:100BB000D108E108F10893E0D0CFD0928900C0922B
:100BC0008800209360033093610340936203509345
:100BD000630380916F00826080936F0036CEC09275
:100BE000B30020936B0330936C0340936D035093D9
:100BF0006E038091700082608093700026CE84E046
:100C00009FEFC916D104E104F10409F008F466CF9E
:100C1000C980DA80EB80FC808AE0F594E794D79471
:100C2000C7948A95D1F781E0C81AD108E108F10884
:100C300085E054CF68E478EE81E090E0A50198016A
:100C40000E945B3669017A0181E0C81AD108E10887
:100C5000F1089FEFC916D104E104F10411F00CF082
:100C600011CF84E069CE83E09FEFC916D104E1047F
:100C7000F10409F00CF432CF62E17AE780E090E011
:100C8000A50194010E945B3669017A0181E0C81ACE
:100C9000D108E108F1089D81992309F4B0CF86E0DD
:100CA0009FEFC916D104E104F10409F008F444CE21
:100CB000C980DA80EB80FC809AE0F594E794D794C1
:100CC000C7949A95D1F781E0C81AD108E108F108D4
:100CD00087E032CE82E030CEDB0114964D915C91FC
:100CE00015976D917C91DC01ED91FC910280F3816F
:100CF000E02D0994AF92BF92CF92DF92EF92FF92D4
:100D00000F931F93CF93DF936C017B018B01040F33
:100D1000151FEB015E01AE18BF08C017D10759F0CF
:100D20006991D601ED91FC910190F081E02DC60111
:100D30000995892B79F7C501DF91CF911F910F910B
:100D4000FF90EF90DF90CF90BF90AF900895FC019F
:100D5000538D448D252F30E0842F90E0821B930B20
:100D6000541710F0CF96089501970895FC01918DC6
:100D7000828D981761F0A28DAE0FBF2FB11D5D96C9
:100D80008C91928D9F5F9F73928F90E008958FEF6B
:100D90009FEF0895FC01918D828D981731F0828D1F
:100DA000E80FF11D858D90E008958FEF9FEF089576
:100DB000FC01918D228D892F90E0805C9F4F821BDA
:100DC00091098F739927089586E694E00E94D806CA
:100DD00021E0892B09F420E0822F089580E090E043
:100DE000892B29F00E94E40681110C9400000895DB
:100DF000FC01A48DA80FB92FB11DA35ABF4F2C9190
:100E0000848D90E001968F739927848FA689B78986
:100E10002C93A089B1898C91837080648C93938D7D
:100E2000848D981306C00288F389E02D80818F7D20
:100E300080830895EF92FF920F931F93CF93DF93D8
:100E4000EC0181E0888F9B8D8C8D98131AC0E88906
:100E5000F989808185FF15C09FB7F894EE89FF89D5
:100E60006083E889F98980818370806480839FBF73
:100E700081E090E0DF91CF911F910F91FF90EF9073
:100E80000895F62E0B8D10E00F5F1F4F0F73112783
:100E9000E02E8C8D8E110CC00FB607FCFACFE889BE
:100EA000F989808185FFF5CFCE010E94F806F1CF48
:100EB000EB8DEC0FFD2FF11DE35AFF4FF0829FB732
:100EC000F8940B8FEA89FB8980818062CFCF682FED
:100ED00086E694E00C941A070F931F93CF93DF9349
:100EE0008C01D0E0C0E0F801EC0FFD1F6491662397
:100EF00041F086E694E00E941A07892B11F02196B2
:100F0000F2CFCE01DF91CF911F910F910895CF9332
:100F1000DF93EC01888D8823B9F0AA89BB89E88921
:100F2000F9898C9185FD03C0808186FD0DC00FB6C7
:100F300007FCF7CF8C9185FFF2CF808185FFEDCF45
:100F4000CE010E94F806E9CFDF91CF9108958F92EC
:100F50009F92AF92BF92CF92DF92EF92FF921F9338
:100F6000CF93DF93FC018281938168177907A8F5FD
:100F70004A01AA24BB24C82DC32ED42EE52EFF245B
:100F80001C2DD22F8085882361F0889E400111247A
:100F9000C92D8C9D600111241D2D829FD00111242B
:100FA000DB2FA685E184F2849385A91322C0CB01AF
:100FB000880F991F680F791F6E0D7F1DA385A60FDF
:100FC000B72FB11DCC93A485A60FB72FB11D1C93CD
:100FD0008585680F711DFB01D083DF91CF911F9133
:100FE000FF90EF90DF90CF90BF90AF909F908F9049
:100FF0000895660F771F660F771F6E0D7F1D252FD3
:10100000332744275527882349F090E0829F7001B9
:10101000839FF00C929FF00C11242F2DA60FB72F59
:10102000B11D2C93CBCFCF92DF92EF92FF920F9313
:101030001F93CF93DF93CDB7DEB729970FB6F89400
:10104000DEBF0FBECDBF8C01DC0119968D919C9146
:10105000892B09F473C00E947603F801C784D088F5
:10106000E188F2886C157D058E059F0520F4678761
:10107000708B818B928BF801C784D088E188F288CD
:101080006C197D098E099F096C32714081059105AB
:1010900010F3F894D80114968D919C9115979A832A
:1010A00089831996ED91FC917F01BFEFEB1AFB0A42
:1010B00080818987F80190810388F489E02DD80127
:1010C00055968C91992309F448C09081982B988764
:1010D0009081809589238F838F818C8388E08B8397
:1010E00058856F8149853B812C8189819A81D701FF
:1010F000508347FD252F3A952083262F39F0441F32
:1011000000C000006083000000C0F2CF38E04D91C5
:1011100060830000019761F7D8015496FC93EE9329
:10112000539749873B832C839A83898378940E94C1
:101130007603F8016787708B818B928B29960FB6A7
:10114000F894DEBF0FBECDBFDF91CF911F910F91FD
:10115000FF90EF90DF90CF9008959081982B988723
:101160009081809589238F838F818E8388E08D8302
:1011700058856F8149853D812E8189819A81D7016A
:10118000508347FD252F00C000C0208300C000C051
:1011900000C000C000C060830000262F3A9541F0D7
:1011A000441F000000C000C000C000C000C0E8CF65
:1011B00038E04D9100C0608300C0019709F7D80165
:1011C0005496FC93EE93539749873D832E83ACCF7F
:1011D000CF93DF93EC018E819F8197FD0CC061E07E
:1011E0000E94630260E08E810E94350281E0898363
:1011F000DF91CF910895198280E0FACF0895089584
:10120000CF92DF92EF92FF92CF93DF93DC0117969C
:10121000CC911797D0E06111DC2F18962C9118977C
:1012200030E0220F331F2C5C3C4F50E040E0F901CE
:1012300085919491FC01F080BA0190E080E0EF2D5F
:10124000EC23ED1310C04F5F5F4F1D96CD90DD90E6
:10125000ED90FC9050976C157D058E059F0538F339
:101260006FEF7FEFCB01DF91CF91FF90EF90DF9099
:10127000CF9008958F929F92AF92BF92CF92DF92BC
:10128000EF92FF920F931F93CF93DF93CDB7DEB70B
:10129000C054D1400FB6F894DEBF0FBECDBF8C0155
:1012A0000E94CD03F801C184D284E384F4849B01BD
:1012B000AC012C193D094E095F0969017A0130ED35
:1012C000C31637E0D306E104F104A8F48189C05CB9
:1012D000DE4F0FB6F894DEBF0FBECDBFDF91CF91CA
:1012E0001F910F91FF90EF90DF90CF90BF90AF9044
:1012F0009F908F9008956187728783879487148267
:10130000138212821182108262E085810E94630240
:1013100061E070E080E090E00E949B0361E0F801F2
:1013200085810E94630260E0F80185810E94350298
:10133000F80186818551823028F58BE291E1019791
:10134000F1F762E0F80185810E946302F801828969
:1013500090E08230910538F0880F991F880F991F0F
:1013600005970197F1F7F89460E0C8010E94000921
:101370006F3F7F4F8F4F9F4F61F4F801118A789430
:1013800080E0A5CF64E170E080E090E00E949B03E4
:10139000D8CF61E0C8010E9400096F3F7F4F8F4F97
:1013A0009F4F59F39E012F5F3F4F79015E013FEB45
:1013B000A31A3EEFB30A670160E0C8010E9400096A
:1013C000F601608371838283938361E0C8010E9488
:1013D0000009F6016483758386839783F8E0CF0E56
:1013E000D11CCA14DB0441F7789430E020E0F70107
:1013F00080809180A280B38044815581668177810D
:10140000FFEF8F169F06AF06BF0631F04F3F8FEFFD
:1014100058076807780719F4F801118AB1CFF90164
:1014200083E0F595E7958A95E1F7E00FF11F80815C
:10143000880F84169506A606B706F0F080832F5F06
:101440003F4FF8E0EF0EF11C2832310581F6F8012C
:10145000448120818181280F3327331F8281280F07
:10146000311D8381820F932F911D992748171906EB
:1014700099F681E0818B2BCF8160E0CF209106032C
:10148000309107032817390771F490910503809173
:101490000403981741F0E0910503F0E0EC53FD4F91
:1014A000808190E008958FEF9FEF08950895EF9267
:1014B000FF920F931F93CF93DF93DC015C96ED9027
:1014C000FC905D97E114F10479F481E090E01396CB
:1014D0009C938E93129790E080E0DF91CF911F91C3
:1014E0000F91FF90EF9008955196ED91FC915297D6
:1014F00050968C915097982F90950FB75E962C919F
:101500005E97122F127021FD6095F89420811123AF
:1015100019F1282B2083E7012197F1F728E0462FC6
:1015200050E0308160FF1AC0382B3083E7012197EB
:10153000F1F7BA0175956795215089F7112381F06C
:101540008081892380830FBF5C968D919C91019748
:10155000F1F781E090E0C1CF2923DCCF3923E5CF3B
:101560009081892BEFCF2091060330910703281734
:10157000390761F4809104032091050390E0805CB9
:101580009F4F821B91098F739927089590E080E007
:101590000895209106033091070328173907B9F4FD
:1015A0009091050380910403981789F0E091050359
:1015B000F0E0EC53FD4F80812091050330E02F5F78
:1015C0003F4F2F7333272093050390E008958FEF4B
:1015D0009FEF0895FC0189E291E0918380838091DF
:1015E000060390910703E817F90759F4A389B48912
:1015F0009C918589809589238C9310920703109282
:1016000006030895CF93DF93FC01828D938D892B80
:1016100041F1A0910603B0910703AE17BF0709F18E
:10162000109751F05396CD91DC915497988155962F
:101630008C91809589238883868D8E7F868F1092EA
:10164000040310920503F0930703E0930603A389B4
:10165000B4898C919589892B8C9381E0DF91CF910E
:10166000089580E0FBCFCF93DF93EC019A01AB01AB
:101670001B8E1A8E198E188E1F8A1E8A60E079E0E2
:101680008DE390E00E945B36F901C9010397243095
:10169000310510F481E090E09D8F8C8F6C85663170
:1016A00008F052C0C901969587958431910508F4D8
:1016B00050C043979F8B8E8BC9010597369710F4C6
:1016C00081E090E0998F888FC901880F991F280FBA
:1016D000391F36952795369527952D303105E0F140
:1016E0002C5031093B8F2A8F9091680084E068303C
:1016F00048F021E06E3008F420E081E001C0880F5E
:101700002A95EAF7892B809368009C852DE630E0C6
:10171000983050F02BE630E09E3030F02CE630E090
:10172000963110F030E020E03C8B2B8B292F30E0FD
:101730009830A8F481E001C0880F9A95EAF78D8B64
:101740008C8D9D8D0197F1F7CE01DF91CF910C9497
:10175000020B81E090E0AECF21E030E0C3CF9E30BD
:1017600040F42850310981E001C0880F2A95EAF73A
:10177000E6CF2E503109F7CFCF92DF92EF92FF9252
:10178000CF93DF93EC01603282E07807CCF5653BC4
:10179000710514F064EB70E0898128E830E0281BC3
:1017A000310987FD3395220F331F220F331F690143
:1017B000330FEE08FF088A8128E532E0281B310943
:1017C00087FD3395220F331F220F331F032E000C8A
:1017D000440B550B2C193D094E095F09DB0177FFBE
:1017E00002C0B0E0A0E00E94853624EB30E040E08B
:1017F00050E00E945B36C20ED31EE41EF51EB601F9
:10180000E881EC3070F5298188E890E0821B91092D
:1018100027FD9395880F991F880F991F68177907DF
:101820007CF02A8188E592E0821B910927FD93953F
:10183000880F991F880F991F681779070CF4CB013F
:101840000297880F991F4FB7F8942E2F30E0F901B7
:10185000EE0FFF1FE20FF31FE15FFA4F92838183C8
:101860004FBFDF91CF91FF90EF90DF90CF90089521
:101870002091A002260F3327331F21323105ECF4CB
:1018800020913403FC0190E080E0243069F082E094
:101890000895A091A0022191AC0140585D4FA40F82
:1018A000B52FB11D2C930196861798F38091A00255
:1018B000680F6093A00280E0089581E0089510927F
:1018C000340381E08093330310920E0361E082E1E0
:1018D0000E94350261E083E10E943502E9EBF0E00D
:1018E00080818E7F808380818D7F808388E4809358
:1018F000B80085E48093BC000895CF93DF9391E016
:1019000090937F028823B9F0C091B800D091BA00BB
:101910008091BC008A7B8093BC0060E082E10E94E1
:10192000350260E083E10E9435020E945F0CD09393
:10193000BA00C093B800DF91CF910895E0910D03F4
:1019400080910C03E81730F4F0E0E15AFD4F8081FC
:1019500090E008958FEF9FEF089590910D0380918F
:101960000C032FEF3FEF981748F4E92FF0E0E15A0E
:10197000FD4F208130E09F5F90930D03C9010895D2
:1019800080910C0390910D03891B990B0895CF92C0
:10199000DF92EF92FF920F931F93CF93DF937C011F
:1019A000CB018A0120913A03222389F0EB016B01DC
:1019B000C40ED51ECC15DD0569F06991D701ED91F6
:1019C000FC910190F081E02DC7010995F3CF642FC0
:1019D0000E94380CC801DF91CF911F910F91FF90A9
:1019E000EF90DF90CF900895CF93DF931F92CDB704
:1019F000DEB7698320913A032223F9F020915D0339
:101A0000203258F021E030E0FC013383228390E063
:101A100080E00F90DF91CF91089580913B03E82FF4
:101A2000F0E0E45CFC4F998190838F5F80933B03EF
:101A300080935D0381E090E0ECCF61E0CE01019600
:101A40000E94380CF7CFCF92DF92EF92FF920F9364
:101A50001F93CF93DF93FC01C48121E020933A03CD
:101A6000C0935C0310923B0310925D038385682B47
:101A700083E095E00E94F40CD0915D03D13208F030
:101A800092C00E9476036B017C0180913403811126
:101A900065C082E08093340381E0809333038FEF4D
:101AA0008093320310923103D0933003ACE3B3E060
:101AB000E0E1F3E080E0D81385C010920F0380913D
:101AC0000F03CC0FC82BC0930F0380910E038130FE
:101AD00009F07CC010920E030E9476036B017C011A
:101AE00080910F038093BB00809136039091370360
:101AF000A0913803B0913903892B8A2B8B2B99F055
:101B00000E94760300913603109137032091380329
:101B1000309139036C197D098E099F090617170743
:101B200028073907E0F18091BC0083FDD9CF85EC0F
:101B30008093BC000E9476036B017C01809134038A
:101B4000823009F445C0809132038F3F61F180916A
:101B50003203803241F18091320325C080913603F7
:101B600090913703A0913803B0913903892B8A2BC8
:101B70008B2B09F48ACF0E947603009136031091D3
:101B8000370320913803309139036C197D098E0990
:101B90009F09061717072807390708F076CF8091A5
:101BA00035030E947D0C10923B0310925D0310924E
:101BB0003A03DF91CF911F910F91FF90EF90DF904B
:101BC000CF9008959D9191938F5F75CF85EEB0CFA3
:101BD0008091360390913703A0913803B091390377
:101BE000892B8A2B8B2B09F4A9CF0E9476030091B5
:101BF00036031091370320913803309139036C1963
:101C00007D098E099F09061717072807390708F06D
:101C100095CFC5CF90E080E00895CF93FC01228559
:101C2000222339F0C1E080859185892B81F4C0E0C1
:101C30000EC060817181828193819F77C1E02CEA1F
:101C400035EC47E257E30E94E837181684F78C2FEB
:101C5000CF9108950F931F93CF93DF93CDB7DEB746
:101C60002A970FB6F894DEBF0FBECDBF0091700368
:101C7000109171030115110589F11E821D829EE7E5
:101C800099839FEF9A8396E09B839FEE9A878C833C
:101C9000272F30E07E836F8390E08B5F9E4F820F13
:101CA000931F860F911D919581959109988789873A
:101CB000C8010E94020BD801ED91FC910280F381D2
:101CC000E02D4AE050E0BE016F5F7F4FC8010995EB
:101CD00068E770E080E090E00E949B032A960FB6D0
:101CE000F894DEBF0FBECDBFDF91CF911F910F9152
:101CF0000895CF93C0E080914302C81758F4EC2FA9
:101D0000F0E0EB5FFE4F70E060E080810E94040332
:101D1000CF5FF1CF80910A0187FF0E94DA038091A3
:101D2000700390917103892B31F070E060E086E1DF
:101D3000CF910C942A0ECF910895CF92DF92EF921B
:101D4000FF921F93CF93DF93E0E0F1E0DF01D0E05B
:101D5000C0E0482F50E02D91022E000C330B2417C9
:101D6000350781F4CE01880F991FC80FD91FCC5CAD
:101D7000DA4FCE01DF91CF911F91FF90EF90DF906E
:101D8000CF9008952196C430D10529F7F12CE12C8C
:101D9000919197FF63C0F701E050FF4F8083670187
:101DA000CC0CDD1CE601CE0DDF1DCC5CDA4F98813A
:101DB0009C30F8F6182F61E00E9463028881282F7A
:101DC00030E0F901EE0FFF1FE20FF31FE15FFA4F62
:101DD0001F739081907C192B108319821A822CE03A
:101DE000622F0E947739829FB001112430E020E0F9
:101DF000AB01420F531FFA01EE0FFF1FE40FF51F57
:101E0000E15FFA4F908196FD16C02F5F3F4F2C3057
:101E1000310571F781110FC01092800082E080932C
:101E200081001092850010928400B19A80916F0019
:101E3000826080936F00F601EE0DFF1DEC5CFA4F9F
:101E4000E0818E2F90E0FC01EE0FFF1FE80FF91FDD
:101E5000E15FFA4F8081806480838BCF9FEFE91A26
:101E6000F90A94E0E916F10409F092CFD0E0C0E05D
:101E700080CFE0914302A5E0B1E090E0E91729F0BE
:101E80002D91281761F09F5FF9CFE43040F491E085
:101E90009E0F90934302F0E0EB5FFE4F8083089526
:101EA000EF92FF920F931F93CF93DF93082F162F7C
:101EB0007A01EA014F3F510519F014F0CFEFD0E05D
:101EC000C1308FEFD80714F4C1E0DFEF802F0E94FC
:101ED000390F812F0E94390F61E0802F0E94630229
:101EE00061E0812F0E946302BE01802F1E141F0437
:101EF0009CF070E060E0EF2879F00E940403662710
:101F000077276C1B7D0B812FDF91CF911F910F9154
:101F1000FF90EF900C9404030E94040370E060E0D3
:101F2000F2CF0F931F93CF93DF93D82FC62F61E08B
:101F30000E94630260E08D2F0E9435028BE594E0E1
:101F40000197F1F78C2FC63008F085E0825F0E9480
:101F500061038C018BE990E00197F1F761E08D2F2F
:101F60000E9435028BE397E90197F1F7C801DF91F1
:101F7000CF911F910F910895DC0114968D919C9142
:101F800015976817790750F4ED91FC911197E60FBA
:101F9000F71F15967C936E931497108208950F93F4
:101FA0001F93CF938C01C62F0E94230D6C2F64606A
:101FB000C8010E94230D6C2F6B7FC8010E94230D66
:101FC00083EC90E00197F1F7CF911F910F91089565
:101FD0000F931F93CF93DF938C01D62FC42F607F75
:101FE000642B0E94CF0F80E1D89FB00111246C2B8D
:101FF000C801DF91CF911F910F910C94CF0FCF9318
:10200000DF93CDB7DEB728970FB6F894DEBF0FBECB
:10201000CDBF28E0E1E1F1E0DE01119601900D92E3
:102020002A95E1F7FC012085241710F44FEF420FA9
:1020300050E0440F551F21E030E02C0F3D1F420FB0
:10204000531FFA012081620F606840E028960FB6A6
:10205000F894DEBF0FBECDBFDF91CF910C94E80F97
:1020600040E061E00E94E80F8BE39FE10197F1F708
:10207000089541E00E94E80F81E090E008950F93F9
:102080001F93CF93DF93EC0110920D0310920C037A
:1020900010923B0310925D030E945F0C8EEF98E05C
:1020A00090930B0380930A038FEF98E090930903BA
:1020B000809308031D828A85823010F098E09D830A
:1020C000888762E370E080E090E00E949B036B856C
:1020D000CE010E94230D68EE73E080E090E00E9444
:1020E0009B0360E3CE010E94CF0F0BE416E4C8010E
:1020F0000197F1F760E3CE010E94CF0FC80101976D
:10210000F1F760E3CE010E94CF0F83E592E00197E3
:10211000F1F760E2CE010E94CF0F6D81606240E076
:10212000CE010E94E80F84E08E8340E06CE0CE0197
:102130000E94E80FCE010E94301082E08F8340E0C1
:1021400066E0CE010E94E80F40E062E0CE010E940E
:10215000E80F8BE39FE10197F1F7DF91CF911F919A
:102160000F910895FC014481558170E060E0818504
:1021700092850C94743BCF92DF92EF92FF920F9373
:102180001F93CF93DF93EC016B01F42EE52E1982A0
:1021900018861F86188A198A1A8A81E08E878B878B
:1021A0001C8692E09D8788838B01000F111F060F0C
:1021B000171F1D830C83C8010E9489399A8789875C
:1021C000009789F1A80170E060E00E94743BDB8217
:1021D000CA82FE82EF828981882341F061E08F2DDF
:1021E0000E94630260E08F2D0E9435028F2D9E2D8C
:1021F000FC01E45AFC4FE491F0E0EE0FFF1FEE5AB1
:10220000FC4F259134913C8B2B8BFC01E25CFC4F05
:10221000E491ED8BDF91CF911F910F91FF90EF90A3
:10222000DF90CF9008951D821C821B821A82D1CF2D
:10223000CF93DF93EC0188819981009711F00E9480
:10224000253A198218821D821C821B821A82DF9114
:10225000CF910895FC0180819181009711F00C9439
:10226000253A08950F931F93CF93DF938C01EB01D1
:1022700088819981AA81BB81F80180839183A2839F
:10228000B38360177107C9F084819581009701F1CC
:102290006C817D8161157105C9F046815781288562
:1022A00039854217530790F00E94843B88859985B1
:1022B000F80191878087198618868A85F8018287B8
:1022C000C801DF91CF911F910F9108950E94253A87
:1022D0008C819D81F801958384838E819F81978372
:1022E000868388859985918780871D821C821F82BD
:1022F0001E82E1CFCF92DF92EF92FF920F931F9356
:10230000CF93DF93E82EF62ED42E86E1681711F0D6
:102310002BE0F22E80914102909142020E2D10E0AE
:10232000009779F020910401022E000C330B201746
:10233000310729F4209140022F1509F439C00E9479
:10234000253A83E190E00E948939EC01ED82FE821A
:10235000F801E25CFC4FE491EF83F801E45AFC4F92
:10236000E491E88780E89EE3A0E0B0E08D879E8757
:10237000AF87B88BD0934202C0934102E092040130
:10238000F092400262E08E2D0E9463020E94CD0313
:10239000605D77408109910969877A878B879C877F
:1023A00087E38A8B64E170E080E090E00E949B0309
:1023B000C0914102D0914202CE01DD2009F453C008
:1023C0000E943A09811112C0C12C90ECD92E99E7D4
:1023D000E92E94ECF92EC701B601DF91CF911F9140
:1023E0000F91FF90EF90DF90CF9008958E818B300A
:1023F00058F38D30E8F08551823030F7688179816B
:1024000076276727762790E080E00E94F4342DEC51
:102410003CEC4CEC5DE30E9455356B017C01A7015F
:102420009601C701B6010E943D388823A1F2CCCFA6
:10243000698170E090E080E00E94F6342DEC3CEC85
:102440004CEC5DE30E9455356B017C01688170E0C6
:1024500090E080E00E94F6349B01AC01C701B60118
:102460000E94D436DACF0E943A09882309F4ACCF0F
:102470008E818C3009F441C040F58B3009F0A4CF37
:102480006A8170E090E080E00E94F4346B017C018E
:10249000CB81C7FF0AC0AC019B0160E070E080E81F
:1024A0009FEB0E94D3366B017C01CF706C2F70E0E4
:1024B00090E080E00E94F6342DEC3CEC4CEC5DE3C7
:1024C0000E945535A7019601CBCF8551823008F087
:1024D0007BCF1A81612F70E0762F662766277F7782
:1024E0008B81682B90E080E00E94F4342DEC3CEC72
:1024F0004CEC5DE30E9455351AC01A81612F70E0E3
:1025000090E080E00E94F4346B017C016B816F707D
:1025100070E090E080E00E94F6342DEC3CEC4CEC56
:102520005DE30E945535A70196010E94D4366B01E8
:102530007C0117FF74CFF7FAF094F7F8F0946FCF9F
:10254000FC0124813581FB01448155812417350725
:10255000A0F0FC0180819181009779F0FB016081FE
:1025600071816115710549F0241B350B820F931F92
:102570000E947B3B21E0892B09F020E0822F089507
:10258000CF93DF93EC01A881B981EB01E881F98158
:102590001097F1F03097B1F4EC018C819D81892B7B
:1025A000C9F08C9190E00BC0DB0114968D919C9149
:1025B000892B81F0808190E0919581959109DF913F
:1025C000CF910895BF01CD01DF91CF910C947B3B5A
:1025D000309751F790E080E0F2CFFB0101900020AE
:1025E000E9F73197AF01461B570BDC01ED91FC91E8
:1025F0000280F381E02D09948F929F92AF92BF9257
:102600000F931F93CF93DF93CDB7DEB7A1970FB68C
:10261000F894DEBF0FBECDBF19A2423008F44AE0E5
:102620008E010F5D1F4F842E912CB12CA12CA50182
:1026300094010E943936E62FB901CA01EA3004F547
:10264000E05DD801EE938D01232B242B252B79F708
:1026500090E080E0109729F0BD0186E694E00E94AA
:10266000ED12A1960FB6F894DEBF0FBECDBFDF917D
:10267000CF911F910F91BF90AF909F908F90089531
:10268000E95CDFCFCF93DF930E946C07EC016BE531
:1026900071E086E694E00E94ED128C0F9D1FDF91A1
:1026A000CF9108950F931F93CF93DF93EC010E9476
:1026B0006C068C016BE571E0CE010E94ED12800F7B
:1026C000911FDF91CF911F910F9108958F929F924B
:1026D000AF92BF92CF92DF92EF92FF925C016A01BC
:1026E0007B018FE392E00E946C07A114B10429F0F2
:1026F000B50186E694E00E94ED128CE20E94670725
:10270000A7019601C701B6010E943D386EE571E050
:1027100081111AC046015701E894B7F82FEF3FEF37
:102720004FE75FE7C501B4010E943D3881111EC02B
:102730002FEF3FEF4FE75FE7C501B4010E94EF3491
:102740001816A4F462E671E086E694E00E94ED12A9
:102750006BE571E086E694E0FF90EF90DF90CF901C
:10276000BF90AF909F908F900C94ED122FEF3FEFA2
:102770004FE75FE4C701B6010E94E83718161CF462
:1027800066E671E0E1CF2FEF3FEF4FE75FECC70167
:10279000B6010E94EF3487FDF3CF20E030E0A901BD
:1027A000C701B6010E94EF3487FF07C08DE20E9487
:1027B0006707F7FAF094F7F8F0942AE037ED43EA68
:1027C0005BE3C701B6010E94D4364B015C010E9455
:1027D000B9376B017C010E94F4349B01AC01C50147
:1027E000B4010E94D3364B015C014AE0C701B60137
:1027F0000E94FC128EE20E94670720E030E040E277
:1028000051E4C501B4010E9455354B015C010E94A1
:10281000B9376B01F12CE12C4AE0C701B6010E94E7
:10282000FC12C701B6010E94F4349B01AC01C50142
:10283000B4010E94D33620E030E040E251E40E942F
:1028400055350E94B93790E080E04AE00E94FC12C2
:102850007FCF8FE192E00E946C076AE671E086E626
:1028600094E00E94ED126BE571E086E694E00C9432
:10287000ED120F931F93CF93DF93EC018881998121
:10288000009759F02A813B812617370730F081E005
:10289000DF91CF911F910F9108958B016F5F7F4F53
:1028A0000E94AE3A009759F0998388831B830A836C
:1028B0002C813D81232B59F7FC011082E8CF80E069
:1028C000E7CFEF92FF920F931F93CF93DF9300D048
:1028D000CDB7DEB78C0169831A82FC01E480F580F4
:1028E000FFEFEF1AFF0AB7010E943914882381F025
:1028F000F8012081318184819581BE016F5F7F4F16
:10290000820F931F0E94843BF801F582E48281E0EC
:102910000F900F90DF91CF911F910F91FF90EF904B
:102920000895EF92FF920F931F93CF93DF93EC01E3
:102930007B018A01BA010E94391481110BC0CE01BA
:102940000E941811CE01DF91CF911F910F91FF903E
:10295000EF9008951D830C83B701888199810E94AF
:10296000843BF0CFCF93DF93EC01FB0186179707F1
:1029700049F0608171816115710541F04481558193
:102980000E949114CE01DF91CF9108950E941811F9
:10299000F9CF0F931F93CF93DF93EC018B01FB01D2
:1029A00081919191A191B191BF0188839983AA836B
:1029B000BB831D821C821F821E8219861886CE014F
:1029C00004960E94B214F80182858A87DF91CF9124
:1029D0001F910F910895FC011182108213821282BF
:1029E00015821482FB0101900020E9F73197AF01B5
:1029F000461B570B0C949114CF92DF92EF92FF92EB
:102A0000CF93DF93EC016DE571E00E94EB148091B0
:102A1000420490914304009789F10E94020B0E94A6
:102A2000CD036B017C010E94CD036C197D098E09D9
:102A30009F09603571058105910500F5809142047B
:102A400090914304DC01ED91FC910084F185E02D2F
:102A50000995892B41F38091420490914304DC0154
:102A6000ED91FC910284F385E02D09958D3011F0F4
:102A70008A3061F48C819D81892B01F3CE01DF9135
:102A8000CF91FF90EF90DF90CF900895682FCE0107
:102A90000E946114D3CF6DE571E004960C94EB14A1
:102AA000AF92BF92CF92DF92EF92FF920F931F935C
:102AB000CF93DF9300D01F92CDB7DEB76C018B01AF
:102AC0006DE571E00E94EB140115110559F1F80153
:102AD00001900020E9F731975F01A01AB10AB50112
:102AE00076956795C6010E943914EE24E394F12C83
:102AF000EA14FB04B8F41B82F80180818983818188
:102B00008A8340E150E070E060E0CE0101960E94CF
:102B1000C22FC6010E946114F2E0EF0EF11C0E5F9D
:102B20001F4FE6CFC6010F900F900F90DF91CF910E
:102B30001F910F91FF90EF90DF90CF90BF90AF90DB
:102B4000089585ED8093BC00809136039091370302
:102B5000A0913803B09139030796A11DB11D23E060
:102B6000B695A795979587952A95D1F72091BC00A2
:102B700024FD03C010923403089540913603509110
:102B800037036091380370913903452B462B472B4F
:102B900069F30097A105B10541F02AE22A95F1F702
:102BA00000C00197A109B109E1CF809135030C94D0
:102BB0007D0C1F93CF93DF93EC01162F0E941336E9
:102BC000181739F0612FCE01DF91CF911F910C942E
:102BD0001B36DF91CF911F9108950C941336AF925D
:102BE000BF92CF92DF92EF92FF920F931F93CF93FA
:102BF000DF931092830383E090E00E94ED15C82FCD
:102C000084E090E00E94ED15D82FD0937703C09315
:102C1000760385E090E00E94ED15082F86E090E0B5
:102C20000E94ED15182F10935D0200935C0287E05F
:102C300090E00E94ED15A82E88E090E00E94ED152E
:102C4000B82E90E080E00E94ED158F3409F046C068
:102C500081E090E00E94ED158D3409F03FC082E0E4
:102C600090E00E94ED158130C9F5CE010197873FB4
:102C70009340A0F5C017D10788F1D12CC12CF12CBD
:102C8000E12CC70109960E94ED15C80ED11C8FEFEB
:102C9000E81AF80ACE15DF05A1F7AC14BD04F1F46B
:102CA000E4E4F4E080E2DF011D928A95E9F71092F6
:102CB0006F0310927F031092800310928103109291
:102CC000820381E0012B09F080E080935E02109284
:102CD00065041092640481E080938303DF91CF91B7
:102CE0001F910F91FF90EF90DF90CF90BF90AF902A
:102CF000089520917603309177038217930718F493
:102D000009960C94ED1580E008954F925F926F92B2
:102D10007F928F929F92AF92BF92CF92DF92EF926B
:102D2000FF920F931F93CF93DF93CDB7DEB7E99751
:102D30000FB6F894DEBF0FBECDBF7C01FB018285CC
:102D4000882321F1F70111821082138212821582E9
:102D500014826C5F7F4FC7010E94B214C701E996CD
:102D60000FB6F894DEBF0FBECDBFDF91CF911F919C
:102D70000F91FF90EF90DF90CF90BF90AF909F901A
:102D80008F907F906F905F904F900895808091809A
:102D9000A280B38020E030E0A901C501B4010E9407
:102DA000E83720E030E040E05FE387FD39C0C5014F
:102DB000B4010E94D4360E94B2370E94F6342B012F
:102DC0003C01AC019B01C501B4010E94D3369F7741
:102DD0002FE632E143E85AE30E94EF349E012F5F71
:102DE0003F4F690187FF21C0F701118210821382D2
:102DF000128215821482C301B2010E94B2372AE006
:102E0000A6010E940431F60101900020E9F73197F4
:102E1000AF014C195D09B601C7010E9491149ECF04
:102E2000C501B4010E94D336C6CF1DAA1CAA1FAA91
:102E30001EAA19AE18AE890122E044E0C501B40112
:102E40000E94A42F009731F1FC0101900020E9F7C6
:102E50003197AF01481B590BBC01CE01C4960E94AB
:102E600091146EE671E0C6010E94EB14B601CE012A
:102E7000C4960E94A012B82EC6010E942A11BB203F
:102E800071F068AD79AD61507109CE01C4960E94B0
:102E9000BC0FE7CFCE01C4960E941811E2CF60E7C5
:102EA00071E0C6010E94EB14B601CE01C4960E94E7
:102EB000A012B82EC6010E942A11BB2041F068ADB5
:102EC00079AD61507109CE01C4960E94BC0F8CA9E6
:102ED0009DA9F701918380838EA99FA99383828303
:102EE00088AD99AD958384831DAA1CAA1FAA1EAA2A
:102EF00019AE18AECE01C4960E942A112FCFFC0144
:102F00008285882331F084819581009739F00C9473
:102F1000AD306081718182819381089560E070E0BD
:102F2000CB0108950F931F93CF93DF93EC018B0197
:102F30000E944B15F80180819181009799F00E94C1
:102F4000AD30FE016193719381939193B801CF01EC
:102F50000E94B21481E08A87CE01DF91CF911F9148
:102F60000F91089560E070E0CB01EBCF0F931F93BA
:102F7000CF93DF93D82FC62F61E00E94630260E0F9
:102F80008C2F0E94630260E08D2F0E94350283E047
:102F900090E00197F1F761E08D2F0E94350283E206
:102FA00090E00197F1F760E08D2F0E943502D0E0AC
:102FB000FE01E25CFC4F6491FE01E45AFC4FE49197
:102FC000F0E0EE0FFF1FEC5CFC4F8591949100E365
:102FD00015E720E030E0462F0E949F27611571051C
:102FE00081059105B9F06F5F7F4F8F4F9F4F9F70A5
:102FF000611571058105910569F02AE330E040E033
:1030000050E00E943936CA01B901DF91CF911F917A
:103010000F91089520E030E0A901F5CF2F923F9263
:103020004F925F926F927F928F929F92AF92BF92D8
:10303000CF92DF92EF92FF920F931F93CF93DF9384
:10304000CDB7DEB7C35AD1090FB6F894DEBF0FBEB5
:10305000CDBF4C0180916404909165041C012FEF59
:10306000221A320A30926504209264040E94791672
:10307000280E311CCE0101967C018E01075A1F4F8C
:10308000C956DF4F99838883C759D040C7010E9432
:103090004B159BE0E90EF11C0E151F05B9F7F12C3D
:1030A000A4E6B0E0AC0FBD1F1496C456DF4FB98341
:1030B000A883CC59D040EFE6F0E0EC0FFD1F34962A
:1030C000C056DF4FF983E883C05AD0402AE730E08A
:1030D0002C0F3D1F2C5F3F4FCE55DF4F3983288388
:1030E000C25AD040C0906404D0906504C214D30486
:1030F00008F03BC536013FEF631A730A709265040E
:1031000060926404C6010E947916E82E81E0E812FC
:1031100037C097E09F1530F338016801A4E0CA0E6C
:10312000D11C80916404909165049C012F5F3F4FF6
:1031300030936504209364040E947916F30181930F
:103140003F01CE16DF0669F7D8014D905D906D9076
:103150007C90C8010E944B15F80140825182628226
:1031600073821286EE24E394EF0CB80181E090E0C4
:103170008C0F9D1FFBE0FF9E800D911D11248FC0C1
:1031800022E0E21256C032E0C30ED11CD092650498
:10319000C0926404C3010E947916E82E6DE571E0C7
:1031A000CE018C599F4F0E94EB146E2D70E0CE0122
:1031B0008C599F4F0E943914EE20C1F08091640415
:1031C00090916504EA948215930580F49C012F5F29
:1031D0003F4F30936504209364040E947916682F52
:1031E000CE018C599F4F0E946114E6CF87E08F1566
:1031F000D0F0BE016C597F4FC8010E949217EE2497
:10320000E394EF0CB80181E090E08C0F9D1FABE0E0
:10321000FA9E800D911D11240E943211C80104965E
:103220000E942A11FE2CCE018C599F4F0E942A1118
:1032300059CFB3E0EB123BC0E2E0CE0ED11CD092EE
:103240006504C0926404C3010E947916F7E0FF157B
:1032500008F448CF883008F099C024E0829FF0013C
:103260001124EC5BFB4F4080518062807380C80169
:103270000E944B15D8014D925D926D927C921397EE
:103280001A961C92EE24E394EF0CB80181E090E0D2
:103290008C0F9D1FBBE0FB9E800D911D11240E9491
:1032A0003211C80104960E942A11FE2C1BCFE4E0C3
:1032B000EE1232C0F7E0FF1508F414CF360123E018
:1032C000620E711C7092650460926404C6010296DD
:1032D0000E9479168630F0F434E0C30ED11CD092EF
:1032E0006504C0926404C3010E947916825F0E9443
:1032F00061036C01C8010E944B15B601DD0C880BFF
:10330000990B0E94F634D8016D937D938D939C9315
:103310001397B6CF83E1EBCFE5E0EE1216C0F2E0F3
:10332000CF0ED11CD0926504C0926404C3010E94E8
:103330007916E82E60E00E94630227E02F1508F45A
:10334000D1CE8E2D0E940C02D4CFE6E0EE1222C028
:10335000F2E0CF0ED11CD0926504C0926404C30188
:103360000E947916E82E62E00E94630227E02F1582
:1033700008F4B8CE8E2D0E940C02412C512C60E82E
:10338000662E6FE3762E892B09F471CF412C512CD8
:1033900032016DCFE7E0EE1226C02601F2E04F0EBB
:1033A000511C5092650440926404C3010E94791636
:1033B000E82E23E0C20ED11CD0926504C0926404B2
:1033C000C2010E94791637E03F1508F48BCE682FB2
:1033D0008E2D0E94B6172B013C01C8010E944B158F
:1033E000C301B2018ECFE8E0EE1231C02601F2E057
:1033F0004F0E511C5092650440926404C3010E9418
:103400007916E82E360123E0620E711C7092650475
:1034100060926404C2010E947916582E34E0C30EF3
:10342000D11CD0926504C0926404C3010E94791635
:1034300097E09F1508F456CE41E0811101C040E0AD
:10344000652D8E2D0E947A112B013C0110CFE9E0F1
:10345000EE121FC02601F2E04F0E511C509265047F
:1034600040926404C3010E947916E82E23E0C20E44
:10347000D11CD0926504C0926404C2010E947916E6
:1034800037E03F1508F42ECE682F8E2D0E94910F45
:1034900030CFEAE0EE1224C0C0904204D090430442
:1034A000C114D10409F4A9C3C6010E94020BF7E0BC
:1034B000FF1508F417CED601ED91FC910084F1853B
:1034C000E02DC6010995412C512C50E8652E5FE393
:1034D000752E892B09F03DCE412C512C320139CE6D
:1034E0002BE0E21228C037E03F1508F4FBCDCE01F7
:1034F0008C599F4F0E94FC14BE016C597F4FC8012C
:103500000E949217DD24D394DF0CB80181E090E093
:103510008C0F9D1FFE9C800D911D11240E94321165
:10352000C80104960E942A11CE018C599F4F0E9417
:103530002A11FD2CD7CD8AE2E8122DC0FF2009F414
:10354000D1CD81E090E08C0F9D1FABE0FA9E800D05
:10355000911D1124FC013B976F01CF010E940D0EBC
:10356000E82EC8010E944B1561E0E6266E2D70E042
:1035700090E080E00E94F434D8016D937D938D93A8
:103580009C9313971A961C92B801C6010E9432119F
:10359000C80104964BCEB1E0BF1508F0A3CDEFEF04
:1035A000EF0DC756DF4FE883C959D0404BE0D42E0A
:1035B00061E070E06C0F7D1FED9D600D711D1124A9
:1035C000CE0186589F4F0E94C914FA94FA942F2D69
:1035D00030E0C256DF4F39832883CE59D040FD9C5E
:1035E000C0011124C656DF4F99838883CA59D04041
:1035F00061E070E06C0F7D1F680F791FCE0181596B
:103600009F4F0E94C914CE018C599F4F0E944B15A9
:10361000A8961CAE1DAE1EAE1FAEA897AF961FAEED
:10362000AF97CE0181599F4F0E947F175B016C01BC
:10363000CE0186589F4F0E947F172B013C01ECEE74
:10364000EE0DE83108F0C4C0F0E0E75DF44E0C94F4
:103650008339411B551B711B781B881BE81BE81B1A
:10366000E81BE81BE81B8F1B541CBC1CCB1CDA1C82
:10367000E61CE81BE81BE81BE81BF21C0F1DE81BFF
:103680002D1DAC019B01C601B5010E94D4362B0152
:103690003C01C8010E944B15D8014D925D926D927C
:1036A0007C9213971A961C9211C0AC019B01C60123
:1036B000B5010E94D3362B013C01C8010E944B1575
:1036C000F80140825182628273821286B801CE0173
:1036D0008C599F4F0E943211C80104960E942A11F2
:1036E00077C0AC019B01C601B5010E945535CFCF13
:1036F0002CEA35EC47E257E39F770E94EF3487FDD1
:1037000061C1A3019201C601B5010E944037D3CF28
:10371000AC019B01C601B5010E94ED37B8CFEA9616
:103720008FADEA97811108C0CC57DF4FE880C458AD
:10373000D040EE2009F49FC0BE0166587F4FCE01F5
:103740008B579F4F0E948516BE0161597F4FCE0156
:1037500085579F4F0E948516C157DF4F28813981B9
:10376000CF58D040C757DF4F88819981C958D04082
:103770002817390759F4BE016B577F4FCE01855783
:103780009F4F0E94C01261E0892B09F060E070E059
:1037900090E080E00E94F6342B013C01EE24E3949B
:1037A000C8010E944B15F8014082518262827382E7
:1037B0001286B801CE018C599F4F0E943211C80168
:1037C00004960E942A11CE0185579F4FE110C1C176
:1037D000B7E0BF15C8F18BE0C256DF4FE881F98131
:1037E000CE59D0408E9F70018F9FF00C112421E0A4
:1037F00030E02C0F3D1FE20EF31EA8968CAD9DAD60
:10380000AEADBFADA897F70180839183A283B38348
:10381000C656DF4F88819981CA59D0400496C45654
:10382000DF4F68817981CC59D040820F931F0E946D
:10383000B214AF968FADAF97D7011A968C93C75637
:10384000DF4FF880C959D040C456DF4F8881998135
:10385000CC59D0400E942A11C056DF4F88819981EF
:10386000C05AD0400E942A11CE55DF4F88819981DD
:10387000C25AD040DBCCA3019201C601B5010E941F
:10388000D3369F772CEA35EC47E257E30E94EF34BA
:10389000412C512C30E8632E3FE3732E87FD80CFFF
:1038A000412C512C32017CCFEA968FADEA978111E1
:1038B00008C0CC57DF4FE880C458D040EE2009F450
:1038C00042C0BE0166587F4FCE018B579F4F0E946A
:1038D0008516BE0161597F4FCE0185579F4F0E94CB
:1038E0008516C157DF4F28813981CF58D040C7573F
:1038F000DF4F88819981C958D0402817390759F47A
:10390000BE016B577F4FCE0185579F4F0E94C0125B
:1039100061E0892B09F060E081E0682770E090E0C9
:1039200080E00E94F6342B013C01EE24E394C801B0
:103930000E944B15D8014D925D926D927C92139727
:103940001A961C9236CFA3019201C601B5010E94BE
:10395000D3369F772CEA35EC47E257E30E94E837ED
:10396000412C512C20E8622E2FE3722E87FFDFCFEF
:10397000412C512C3201DBCFAC019B01C601B501BA
:103980000E94EF3487FF1EC0412C512C90E8692E15
:103990009FE3792E92CEAC019B01C601B5010E9436
:1039A000EF341816DCF0412C512C80E8682E8FE3A0
:1039B000782E6FCEAC019B01C601B5010E94E8379D
:1039C000181614F3412C512C320177CEAC019B0117
:1039D000C601B5010E94E83787FFE5CF412C512C85
:1039E000320157CECE0181599F4F0E940D0EE82E15
:1039F000882331F0CE0186589F4F0E940D0EE82E8D
:103A0000C8010E944B156E2D70E090E080E00E948E
:103A1000F434F801608371838283938356CECE01A0
:103A200081599F4F0E940D0EE82E811106C0CE01D4
:103A300086589F4F0E940D0EE82EC8010E944B151C
:103A40006E2D70E090E080E00E94F434D8016D9318
:103A50007D938D939C93139725CEBE0166587F4F1F
:103A6000CE018B579F4F0E948516BE0161597F4F33
:103A7000CE018F569F4F0E948516C557DF4F198282
:103A80001882CB58D040C357DF4F19821882CD58C7
:103A9000D040C157DF4F19821882CF58D040BE01A5
:103AA0006F567F4FCE0185579F4F0E94B214CB5760
:103AB000DF4F68807980C558D0406114710409F4E3
:103AC0004EC0C757DF4FC880D980C958D040C114F5
:103AD000D10439F1C157DF4F88819981CF58D04047
:103AE000C80ED91EB601CE0185579F4F0E943914CA
:103AF0008823A9F1C557DF4F28813981CB58D040A1
:103B0000C157DF4F88819981CF58D040B301820FD0
:103B1000931F0E94843BC157DF4FD982C882CF5880
:103B2000D040BE0165577F4FC8010E949217B8016F
:103B3000CE018C599F4F0E943211C80104960E94F9
:103B40002A11CE0185579F4F0E942A11CE018F5610
:103B50009F4F0E942A11CE018B579F4FBFCDCE01A0
:103B600085579F4F0E941811DCCF30926504209238
:103B70006404FF20C1F161E070E06C0F7D1FBBE0C9
:103B8000FB9E600D711D11246B507109C4010E94D0
:103B9000C9140B501109C80104960E942A11C95674
:103BA000DF4F28813981C759D0402017310789F765
:103BB000C401CD55DF4F0FB6F894DEBF0FBECDBFA9
:103BC000DF91CF911F910F91FF90EF90DF90CF90F9
:103BD000BF90AF909F908F907F906F905F904F902D
:103BE0003F902F900895C4010E944B15F40110825C
:103BF0001182128213821286CCCF37E03F1508F46F
:103C000071CA6ACC2F923F924F925F926F927F92CD
:103C10008F929F92AF92BF92CF92DF92EF92FF92DC
:103C20000F931F93CF93DF93CDB7DEB7A5970FB652
:103C3000F894DEBF0FBECDBF10927F0310928003B9
:103C4000109281031092820320915E02A09076036D
:103C5000B0907703211104C0A0905C02B0905D0287
:103C600080916404909165048A159B05B8F40091D5
:103C700064041091650468012FEFC21AD20AD09231
:103C80006504C0926404C8010E947916F82E81115F
:103C900034C0B0926504A092640416C010926F0301
:103CA00080915C0290915D02211103C021E020937C
:103CB0005E029093650480936404209176033091B2
:103CC00077038217930798F2A5960FB6F894DEBF94
:103CD0000FBECDBFDF91CF911F910F91FF90EF905D
:103CE000DF90CF90BF90AF909F908F907F906F901C
:103CF0005F904F903F902F90089561E086133BC0F6
:103D0000CE0101960E940E18CE0101960E947F17E7
:103D100020E030E0A9010E94EF34C12CD12C7601C3
:103D200087FD16C0CE010C960E940E18CE010C968F
:103D30000E947F1720E030E04AE754E40E945535A6
:103D40000E94B9376B017C01CE0140960E942A1176
:103D5000CE0105960E942A110E94CD03C60ED71EE1
:103D6000E81EF91EC0927F03D0928003E092810387
:103D7000F0928203A9CF8EEF8F0D8230C8F50E5FCF
:103D80001F4F1093650400936404C6010E947916C6
:103D9000082FCE0101960E940E18CE0101960E94B6
:103DA0007F174B015C01CE0105960E942A11083055
:103DB00008F08ACF74E0079F8001112482E00C5B39
:103DC0001B4FF81206C0F80180829182A282B38252
:103DD0007BCFA5019401F80160817181828193817B
:103DE0000E94D436F80160837183828393836CCF01
:103DF000F4E0FF1222C0580122E0A20EB11CB092E2
:103E00006504A0926404C6010E947916F82E0D5F25
:103E10001F4F1093650400936404C5010E94791636
:103E2000182F61E08F2D0E94630261E0111101C023
:103E300060E08F2D0E94350247CF65E0F61248C042
:103E40000E5F1F4F1093650400936404C6010E9427
:103E50007916F82E61E00E946302CE0101960E945D
:103E60000E18CE0101960E947F170E94B23777FD8F
:103E700025C0CE010C960E940E18CE010C960E9411
:103E80007F170E94B2376F3F710509F0E4F4CE014D
:103E900047960E940E18CE0147960E947F170E94F7
:103EA000B23701E011E08F2D0E940403002309F4D2
:103EB000ADC3CE014B960E942A11A8C300E010E0CA
:103EC00070E060E0F0CF00E011E06FEF70E0EBCF6A
:103ED00076E0F7124BC0780182E0E80EF11CF09218
:103EE0006504E0926404C6010E947916D82E0D5F25
:103EF0001F4F1093650400936404C7010E94791654
:103F0000F82ECE0101960E940E18CE0101960E9455
:103F10007F170E94B23700E010E041E05FEF6130B0
:103F20007F4FFCF0CE010C960E940E18CE010C962D
:103F30000E947F170E94B23700E011E04FEF50E07F
:103F40006F3F710509F06CF4CE0147960E940E1880
:103F5000CE0147960E947F170E94B237AB0101E065
:103F600011E06F2D8D2D0E94500FA0CFE7E0FE12C3
:103F700042C00E5F1F4F1093650400936404C60196
:103F80000E9479160E949D0E7C01892B09F49CCE1B
:103F9000CE0101960E940E18CE0101960E947F1755
:103FA0000E94B23777FD1DC0CE010C960E940E18FC
:103FB000CE010C960E947F170E94B237653B7105B7
:103FC000ACF4CE0147960E940E18CE0147960E948F
:103FD0007F170E94B23701E011E0C7010E94BC0BBD
:103FE00065CF00E010E070E060E0F7CF00E011E0A6
:103FF00064EB70E0F2CFF8E0FF127DC00E5F1F4F60
:104000001093650400936404C6010E947916B82ECB
:10401000CE0101960E940E18CE0101960E947F17D4
:104020000E94B23704E110E06431710514F1CE0151
:104030000C960E940E18CE010C960E947F170E94CB
:10404000B23700E21EE461327E447CF4CE01479632
:104050000E940E18CE0147960E947F170E94B23729
:104060008B01CE014B960E942A11CE0140960E94F0
:104070002A11CE0105960E942A11CE0101960E94B6
:104080000E18CE0101960E947F1720E030E0A901B2
:104090000E94EF34C12CD12C760187FD16C0CE01D1
:1040A0000C960E940E18CE010C960E947F1720E0FD
:1040B00030E04AE754E40E9455350E94B9376B015D
:1040C0007C01CE0140960E942A11CE0105960E94E5
:1040D0002A11B0920A01C114D104E104F10421F4BF
:1040E000C12CD12C7601C394A7019601B8018B2D68
:1040F0000E940604E9CD69E0F6120CC00E5F1F4F66
:104100001093650400936404C6010E9479160E940E
:10411000DA03DACD7AE0F7124CC0580182E0A80E3B
:10412000B11CB0926504A0926404C6010E94791685
:10413000C82E7801A3E0EA0EF11CF0926504E0922B
:104140006404C5010E947916D82E0C5F1F4F10938E
:10415000650400936404C7010E947916F82E8091CB
:10416000740390917503009711F00E94253A8CE03A
:1041700090E00E9489398C01FC01138212828DE14A
:1041800091E091838083C482D186F2861386109356
:10419000750300937403C8010E943F1088E0F80182
:1041A000838760E0C8010E94230DC8010E9430107F
:1041B0008BCDFBE0FF128AC0CE0101960E940E1843
:1041C000CE0101960E947F170E94B23700E077FD72
:1041D00021C0CE010C960E940E18CE010C960E94B2
:1041E0007F170E94B23703E0643071057CF4CE0182
:1041F00047960E940E18CE0147960E947F170E9494
:10420000B237062FCE014B960E942A11CE0140965E
:104210000E942A11CE0105960E942A11CE01019614
:104220000E940E18CE0101960E947F170E94B2379D
:1042300010E077FD21C0CE010C960E940E18CE0131
:104240000C960E947F170E94B23713E1643171050A
:104250007CF4CE0147960E940E18CE0147960E942C
:104260007F170E94B237162FCE014B960E942A115B
:10427000CE0140960E942A11CE0105960E942A1175
:10428000CE0101960E940E18BE016F5F7F4FCE01D6
:104290000C960E948516CE0105960E942A11E09088
:1042A0007403F0907503E114F10459F0402F612F6D
:1042B000C7010E94FF0FBE01645F7F4FC7010E94CC
:1042C0006C06CE010C960E942A11FECC2CE0F21254
:1042D00008C08091740390917503009709F066CF30
:1042E000F3CC6DE0F6126DC00E5F1F4F10936504A6
:1042F00000936404C6010E947916082FCE0101962E
:104300000E940E18CE0101960E947F170E94B237BC
:1043100011E0161617060CF5CE010C960E940E1829
:10432000CE010C960E947F170E94B2371CE36D33BA
:1043300071057CF4CE0147960E940E18CE01479677
:104340000E947F170E94B237162FCE014B960E9413
:104350002A11CE0140960E942A11CE0105960E9494
:104360002A11E0907203F0907303E114F10481F0DC
:10437000F701818592850E94253AF7018681978110
:1043800097FD03C060E00E946302C7010E94253AC6
:1043900086E190E00E9489397C01402F50E0612F36
:1043A00070E00E94BB10F0927303E0927203C701A9
:1043B0000E94E808C7010E94B210C7010E941308BA
:1043C00083CCFEE0FF1291C0CE0101960E940E1830
:1043D000CE0101960E947F176AA37BA38CA39DA3A5
:1043E000CE0105960E942A11CE0101960E940E1858
:1043F000CE0101960E947F176B017C01CE010596CC
:104400000E942A11CE0101960E940E18CE0101963B
:104410000E947F174B015C01CE0105960E942A1174
:10442000CE0101960E940E18CE0101960E947F17C0
:104430002B013C01CE0105960E942A1100917203C6
:10444000109173030115110509F43ECCF801228087
:1044500033802114310409F437CCC301B2010E9426
:10446000B237712C77FD07C06F3F710519F014F05A
:104470006FEF70E0762EC501B4010E94B237B12C07
:1044800077FD07C06F3F710519F014F06FEF70E012
:10449000B62EC701B6010E94B237F12C77FD07C0D6
:1044A0006F3F710519F014F06FEF70E0F62E6AA1FE
:1044B0007BA18CA19DA10E94B237272D30E050E056
:1044C00040E03B294F2977FD0DC0A1E02A1A3108B1
:1044D0006215730508F41B01B101C8010E94A7070A
:1044E000C8016CCF312C212CF7CFEFE0FE120CC0AD
:1044F00000917203109173030115110509F4E4CBC7
:10450000C8010E94B210ECCFF0E1FF1261C0780147
:1045100022E0E20EF11CF0926504E0926404C60110
:104520000E947916D82E0D5F1F4F109365040093DB
:104530006404C7010E947916F82E0091700310914F
:1045400071030115110531F0C8010E94EA0AC80182
:104550000E94253A8FE190E00E9489398C014F2D0D
:104560006D2D0E949F02109371030093700340E829
:1045700055E260E070E0C8010E94330BCE01019665
:104580000E940E18CE0101960E947F170E94B2373A
:1045900077FD56C0CE010C960E940E18CE010C96E7
:1045A0000E947F170E94B2376F3171050CF04DC029
:1045B000CE0147960E940E18CE0147960E947F17A3
:1045C0000E94B23701E011E086E00E942A0E6ECC14
:1045D00061E1F61228C0CE0101960E940E18CE01AC
:1045E00001960E947F170E94B23716161706BCF478
:1045F000CE010C960E940E18CE010C960E947F17D9
:104600000E94B23711E083E00E942A0E112321F0AC
:10461000CE0140960E942A11CE01059654CE10E09C
:1046200061E070E0F0CF72E1F71609F4A7CF83E103
:10463000F81210C070E060E086E10E942A0E44CBC0
:1046400000E010E070E060E0BFCF00E011E06EE15C
:1046500070E0BACFA4E1FA123AC07801E2E0EE0EBF
:10466000F11CF0926504E0926404C6010E94791680
:10467000D82E0D5F1F4F1093650400936404C7018B
:104680000E947916C82E0E94E4277C010091420402
:10469000109143040115110531F0C8010E94EA0A86
:1046A000C8010E94253A8FE190E00E9489398C016F
:1046B0004C2D6D2D0E949F021093430400934204E1
:1046C000A70170E060E0C8010E94330BFDCAF5E16C
:1046D000FF1227C0009142041091430401151105F7
:1046E000D9F0C8010E94020BCE0101960E940E185B
:1046F000BE016F5F7F4FCE010C960E948516BE01F2
:10470000645F7F4FC8010E945213CE010C960E9435
:104710002A11CE010596D7CDCE0101960E940E1822
:10472000F8CF26E1F21219C08FE592E00E946C07E3
:10473000CE0101960E940E18BE016F5F7F4FCE0121
:104740000C960E948516BE01645F7F4F86E694E05A
:104750000E945213CE010C965DCF67E1F61207C09E
:104760000E94E4279093650480936404ADCA78E1C5
:10477000F71212C0CE0101960E940E18CE010196CA
:104780000E940D0E182FCE0105960E942A110E943C
:10479000E427111199CAE6CF89E1F81248C0CE0189
:1047A00001960E940E18CE0101960E947F170E946A
:1047B000B237C12CD12C760197FD10C0CE010C96DA
:1047C0000E940E18CE010C960E947F170E94B237ED
:1047D0006B017C01CE0140960E942A11CE01059604
:1047E0000E942A110E94E4279C01C114D104E10413
:1047F000F10429F4309365042093640465CA909110
:104800006F039430B8F7A6E09A9FF0011124EC5B97
:10481000FD4F209164043091650431832083C2826E
:10482000D382E482F5829F5F90936F034DCAEAE1E1
:10483000FE1227C00E94E4279C0190916F039923E8
:1048400009F442CA692F6150770B86E0869FF00118
:10485000879FF00D1124EC5BFD4F428153816481F1
:104860007581415051096109710942835383648301
:10487000758314161506160617060CF4BBCF915057
:10488000D3CF1092830382E492E00E9442131CCAA9
:10489000009711F00C94B130CB0108951F920F9244
:1048A0000FB60F9211242F933F938F939F93AF9343
:1048B000BF9380913A0490913B04A0913C04B09145
:1048C0003D043091390423E0230F2D3758F501962C
:1048D000A11DB11D2093390480933A0490933B04A9
:1048E000A0933C04B0933D0480913E0490913F041A
:1048F000A0914004B09141040196A11DB11D809387
:104900003E0490933F04A0934004B0934104BF91B0
:10491000AF919F918F913F912F910F900FBE0F906C
:104920001F90189526E8230F0296A11DB11DD2CF26
:104930001F920F920FB60F9211242F933F934F9314
:104940005F936F937F938F939F93AF93BF93EF93F7
:10495000FF9380916B0390916C03A0916D03B091D4
:104960006E03892B8A2B8B2BD1F190916A03E091F6
:104970006803F091690380818927808380916B03AC
:1049800090916C03A0916D03B0916E0318161906F7
:104990001A061B069CF480916B0390916C03A09106
:1049A0006D03B0916E030197A109B10980936B0368
:1049B00090936C03A0936D03B0936E03FF91EF91FE
:1049C000BF91AF919F918F917F916F915F914F9127
:1049D0003F912F910F900FBE0F901F9018958091CF
:1049E00009010E94DA03EACF1F920F920FB60F92CD
:1049F00011242F933F934F935F936F937F938F93E4
:104A00009F93AF93BF93EF93FF9386E694E00E944A
:104A1000F806FF91EF91BF91AF919F918F917F9198
:104A20006F915F914F913F912F910F900FBE0F901B
:104A30001F9018951F920F920FB60F9211242F936B
:104A40008F939F93EF93FF93E0917604F091770417
:104A50008081E0917C04F0917D0482FD1BC09081F7
:104A600080917F048F5F8F7320918004821741F0C3
:104A7000E0917F04F0E0EA59FB4F958F80937F042B
:104A8000FF91EF919F918F912F910F900FBE0F90FB
:104A90001F9018958081F4CF1F920F920FB60F923E
:104AA00011242F933F934F935F936F937F938F9333
:104AB0009F93AF93BF93EF93FF93E0910603F09121
:104AC0000703309749F0A685B7858585968D91FFB8
:104AD00014C09C918923A1F4FF91EF91BF91AF91F4
:104AE0009F918F917F916F915F914F913F912F9106
:104AF0000F900FBE0F901F9018959C91892361F71E
:104B0000A389B4899C918589809589238C93868912
:104B100097890197F1F7608D718DA685B7855585C9
:104B200038E020E0CB010197F1F7822F90E09595D6
:104B30008795282F4C91452309F02068315091F733
:104B4000868D81FD20958091040390E001968F73FE
:104B5000992730910503381799F0A0910403B0E02C
:104B6000AC53BD4F2C9380930403828D938D01979A
:104B7000F1F7A389B4898C919589892B8C93ACCF5B
:104B8000868D8160868FF1CF1F920F920FB60F92A4
:104B900011242F933F934F935F936F937F938F9342
:104BA0009F93AF93BF93CF93DF93EF93FF93809146
:104BB000C302C0913305D0E087FF24C01092850066
:104BC000109284008091C3028F5F8093C302809112
:104BD000C302082E000C990B8C179D0724F48091BA
:104BE000C3028C30C4F180918400909185000496BA
:104BF00080349C4908F47AC08091840090918500AB
:104C0000049676C08091C302082E000C990B8C1775
:104C10009D07C4F6E091C3028E2FEE0F990BFC01A5
:104C2000EE0FFF1FE80FF91FE15FFA4F808186FF4B
:104C3000C9CFE091C3028E2FEE0F990BFC01EE0F4E
:104C4000FF1FE80FF91FE15FFA4F808160E08F736B
:104C50000E943502B7CF2091840030918500E09109
:104C6000C3028E2FEE0F990BFC01EE0FFF1FE80F12
:104C7000F91FE15FFA4F81819281820F931F909318
:104C8000890080938800E091C3028E2FEE0F990B6C
:104C9000FC01EE0FFF1FE80FF91FE15FFA4F808163
:104CA00086FF11C0E091C3028E2FEE0F990BFC011D
:104CB000EE0FFF1FE80FF91FE15FFA4F808161E0FF
:104CC0008F730E943502FF91EF91DF91CF91BF91D9
:104CD000AF919F918F917F916F915F914F913F9194
:104CE0002F910F900FBE0F901F90189580E49CE9B4
:104CF00090938900809388008FEF8093C302E3CF65
:104D00001F920F920FB60F9211242F933F934F9340
:104D10005F936F937F938F939F93AF93BF93EF9323
:104D2000FF938091B900887F803609F44AC0F0F57E
:104D3000883209F4A7C018F5803109F49BC0B8F493
:104D4000882309F4F9C0883009F494C0FF91EF91E9
:104D5000BF91AF919F918F917F916F915F914F9193
:104D60003F912F910F900FBE0F901F901895883193
:104D700009F488C0803251F78093320314C0803424
:104D800009F49DC040F48033B9F38833F9F6809379
:104D9000320385ECB0C0803509F485C0883509F44C
:104DA00096C0883499F60E94A115D0CF883909F4AD
:104DB0008CC038F5883729F050F4883611F08037E8
:104DC00029F683E0809334031092C20257C08838DA
:104DD00009F47BC0803919F0803809F0B7CF809191
:104DE000C202803208F071C0E091C20281E08E0FF1
:104DF0008093C2028091BB00F0E0EE55FD4F8083AE
:104E00003DC0803B39F0E0F4803A09F479C0883A3B
:104E100009F09CCF84E0809334031092A102109299
:104E2000A002E0910A03F0910B0309958091A00282
:104E300081110FC081E08093A0021092800209C00E
:104E4000803C09F4A6CF883C09F4A3CF883B09F045
:104E50007DCFE091A10281E08E0F8093A102F0E06E
:104E6000E058FD4F80818093BB009091A10280911A
:104E7000A00229C080910F038093BB0085EC809332
:104E8000BC0064CF9091310380913003981758F59E
:104E9000E091310381E08E0F80933103F0E0E05F19
:104EA000FC4F8081E9CFE091310381E08E0F809348
:104EB00031038091BB00F0E0E05FFC4F8083909174
:104EC0003103809130039817C8F285E8D8CFE0917C
:104ED000310381E08E0F809331038091BB00F0E0BD
:104EE000E05FFC4F80838091330381115CCF81E0D0
:104EF00080930E0384EA8093BC001092340326CF83
:104F000085EC8093BC00109234038091C202803201
:104F100030F4E091C202F0E0EE55FD4F1082609156
:104F2000C20270E0E0910803F091090382EA92E086
:104F300009951092C2020ACF1092320334CFCF9259
:104F4000DF92EF92FF920F931F93E82FF92F05C086
:104F5000015011092109310961F1908196239417BB
:104F6000B9F305C0015011092109310911F19081EE
:104F700096239413F7CFC12CD12CE12CF12C0AC02D
:104F80008FEFC81AD80AE80AF80A0C151D052E0575
:104F90003F0579F080818623841791F36C2D7D2D58
:104FA0008E2D9F2D1F910F91FF90EF90DF90CF904E
:104FB000089560E070E080E090E01F910F91FF9015
:104FC000EF90DF90CF900895EF92FF920F931F9391
:104FD000CF93DF93C0916404D09165047E012FEFDD
:104FE000E21AF20AF0926504E0926404CE010E9493
:104FF0007916082F10E02296D0936504C0936404BC
:10500000C7010E9479169801382BC901DF91CF9111
:105010001F910F91FF90EF900895109269041092E4
:10502000680488EE93E0A0E0B0E080936A04909377
:105030006B04A0936C04B0936D042BE331E03093C8
:1050400067042093660425EC30E0309373042093CA
:10505000720424EC30E0309375042093740420EC47
:1050600030E0309377042093760421EC30E03093E5
:1050700079042093780422EC30E030937B04209371
:105080007A0426EC30E030937D0420937C04109267
:105090007F04109280041092810410928204109276
:1050A0000605109205058093070590930805A093C7
:1050B0000905B0930A058DE491E09093040580936F
:1050C0000305E4E3F5E020E435E04FEF68EB7BE037
:1050D000809133058C30B0F491E0980F90933305B4
:1050E000808390E0DC01AA0FBB1FA80FB91FA15F4E
:1050F000BA4F12967C936E93119733962E173F07F3
:1051000039F708954083F9CFCF93DF93CDB7DEB75A
:10511000A3970FB6F894DEBF0FBECDBF789484B5C9
:10512000826084BD84B5816084BD85B5826085BDA3
:1051300085B5816085BD80916E00816080936E0031
:105140001092810080918100826080938100809123
:1051500081008160809381008091800081608093D4
:1051600080008091B10084608093B1008091B00094
:1051700081608093B00080917A00846080937A008F
:1051800080917A00826080937A0080917A008160B9
:1051900080937A0080917A00806880937A001092E0
:1051A000C100E0917604F091770482E08083E09181
:1051B0007204F09173041082E0917404F09175040C
:1051C00080E1808310927E04E0917A04F0917B0468
:1051D00086E08083E0917804F09179048081806199
:1051E0008083E0917804F0917904808188608083E5
:1051F000E0917804F0917904808180688083E09167
:105200007804F091790480818F7D80836EE571E070
:1052100080E090E00E949B030E9429140E94EF15F9
:105220005DE1652E51E0752E86E694E00E94D80679
:10523000892B09F460C686E694E00E94B6068D309C
:1052400099F3E09138048A3009F043C6AE2FB0E0FC
:10525000AC57BC4F1C92EE2351F062E771E084E83A
:1052600093E00E947B3B892B29F40E942914109221
:105270003804DACF67E771E084E893E00E94D83021
:105280007C0167E771E090E080E00E94D8308C01FB
:10529000E114F10461F3892B51F369E771E0C7016F
:1052A0000E947B3B892B09F053C167E771E090E0D6
:1052B00080E00E94D8307C015E0122E1A20EB11C88
:1052C000D12C67E771E090E080E00E94D830D501F2
:1052D0008D939D935D01892B21F0D394B6E0DB1271
:1052E000F0CFE114F10419F26BE771E0C7010E94FD
:1052F0007B3B892BD9F4DD20C9F070E060E08A891E
:105300009B890E944824F82E60E00E9463028F2D42
:105310000E940C02BC01990F880B990B0E94F63475
:10532000AB01BC01C8010E946613A1CF66ED71E01C
:10533000C7010E947B3B892BA9F4DD2099F070E026
:1053400060E08A899B890E94482497FD07C08630C7
:10535000910534F4825F0E946103DCCF8EE0FBCFC5
:1053600083E1F9CF6EE771E0C7010E947B3B892B97
:10537000B9F4DD20A9F070E060E08A899B890E9481
:105380004824F82E62E00E9463028F2D0E940C02D6
:10539000892B09F07EC040E050E060E87FE3C2CF97
:1053A00065E871E0C7010E947B3B892BA1F4E1E035
:1053B000ED1588F470E060E08C899D890E94482496
:1053C000F82E70E060E08A899B890E9448246F2D46
:1053D0000E94B617A3CF6BE871E0C7010E947B3B28
:1053E000892BA1F4F1E0FD1588F470E060E08C8970
:1053F0009D890E944824F82E70E060E08A899B898C
:105400000E9448246F2D0E94910F84CF60E971E0C3
:10541000C7010E947B3B892B01F522E02D15E8F4A2
:1054200070E060E08A899B890E944824F82E70E031
:1054300060E08E899F890E9448246C0170E060E0E2
:105440008C899D890E94482441E0CD2809F440E0E0
:10545000682F8F2D0E947A1163CF64E971E0C70134
:105460000E947B3B892BC9F4E0904204F0904304F6
:10547000E114F10471F0C7010E94020BD701ED9114
:10548000FC910084F185E02DC7010995892B09F075
:1054900082CF40E050E0BA0145CF6CE971E0C7012E
:1054A0000E947B3B892BA9F7CE014E960E94FC14EB
:1054B00085E692E00E946C07B80186E694E00E94BF
:1054C000ED128CE20E94670781E1EFE2F2E0DE017B
:1054D000119601900D928A95E1F7F12CE12C8AA1A9
:1054E0009BA1E816F90648F58E8D9F8D10E0009778
:1054F00021F08E0D9F1DFC011081E12FF0E044E0B2
:10550000F595E7954A95E1F781E090E08C0F9D1FB6
:10551000E80FF91F80810E946707E12FEF70A1E07B
:10552000B0E0AC0FBD1FAE0FB11DFD0180810E9428
:105530006707BFEFEB1AFB0AD2CF6BE571E086E697
:1055400094E00E94ED12CE014E960E942A118FCE59
:1055500063EA71E0C7010E947B3B892B09F04FC3CE
:10556000FE0131966F01F12C67E771E090E080E079
:105570000E94D830D6018D939D936D01892B09F03F
:1055800039C365EA71E0C8010E947B3B892BD9F4DD
:10559000B1E0BF15C0F470E060E089819A810E949B
:1055A0004824182F61E00E94630270E060E08B8164
:1055B0009C810E94482461E0892B09F460E0812FDE
:1055C0000E94350254CE68EA71E0C8010E947B3B1C
:1055D000892B11F5E1E0EF15F8F470E060E08981C6
:1055E0009A810E944824182F61E00E94630270E0B3
:1055F00060E08B819C810E9448248F3F910519F0C7
:1056000014F08FEF90E097FF02C090E080E0BC01C3
:10561000812F0E9404032BCE6BEA71E0C8010E9427
:105620007B3B892BE1F4F2E0FF15C8F470E060E009
:105630008D819E810E9448247C0170E060E08B8116
:105640009C810E944824182F70E060E089819A8133
:105650000E944824A701612F0E94500F08CE61EBE1
:1056600071E0C8010E947B3B892B19F521E02F15C1
:1056700000F570E060E089819A810E9448240E94D0
:105680009D0E8C01892B09F4F2CD70E060E08B81D6
:105690009C810E944824853B910514F084EB90E0A6
:1056A00097FF02C090E080E0BC01C8010E94BC0BE3
:1056B000DECD69EB71E0C8010E947B3B892B91F53F
:1056C00082E08F1578F570E060E089819A810E9410
:1056D0004824182F80930A0170E060E08D819E813C
:1056E0000E9448241816190614F081E090E06C011D
:1056F000990FEE08FF0870E060E08B819C810E94AA
:10570000482464E170E08431910534F0BC018132B9
:105710009E4414F060E27EE4A7019601812F0E946E
:105720000604A5CD67EB71E0C8010E947B3B892B85
:1057300059F4FF2049F070E060E089819A810E946D
:1057400048240E94DA0393CD6EEB71E0C8010E94F9
:105750007B3B892B09F040C0B2E0BF15E8F5809192
:10576000740390917503009711F00E94253A70E040
:1057700060E089819A810E944824D82E70E060E020
:105780008B819C810E944824E82E70E060E08D812E
:105790009E810E944824F82E8CE090E00E94893976
:1057A0008C01FC011382128271826082D482E186B4
:1057B000F286138690937503809374030E943F10C2
:1057C00088E0D8011B968C9360E0C8010E94230DED
:1057D000C8010E9430104BCD67EC71E0C8010E94F7
:1057E0007B3B892B59F5B2E0BF1540F5C09074039F
:1057F000D0907503C114D10409F170E060E0898193
:105800009A810E944824182F70E060E08B819C816F
:105810000E944824412F682FC6010E94FF0F6D810E
:105820007E81CE0142960E945015BE016E5E7F4F72
:10583000C6010E946C06CE01429687CE60ED71E0F3
:10584000C8010E947B3B892B39F4809174039091AD
:105850007503009709F0BDCF69ED71E0C8010E94A2
:105860007B3B892B09F04CC0E1E0EF1508F048C004
:1058700000917203109173030115110589F0D8018D
:1058800019968D919C910E94253AF8018681978105
:1058900097FD03C060E00E946302C8010E94253AA0
:1058A00070E060E08B819C810E94482418161906E4
:1058B00034F47C01CD9734F03CE3E32E02C0EE24B7
:1058C000E394F12C70E060E089819A810E94482481
:1058D0006C0186E190E00E9489398C01A601B70134
:1058E0000E94BB101093730300937203C8010E94BF
:1058F000E808C8010E94B210C8010E941308B7CC82
:1059000062EE71E0C8010E947B3B892B09F05BC00D
:10591000F3E0FF1508F057C0C0907203D0907303F6
:10592000C114D10409F44FC070E060E08F81988504
:105930000E94482410E097FD06C0182F8F3F910564
:1059400011F00CF01FEF70E060E08D819E810E94ED
:10595000482400E097FD06C0082F8F3F910511F005
:105960000CF00FEF70E060E08B819C810E94482476
:1059700097FD25C08F3F910509F01CF5812E912CD4
:10598000B12CA12C902AA82A70E060E089819A812C
:105990000E94482470E060E097FD0AC0D60112968C
:1059A0006D917C91615071098617970708F4BC01CD
:1059B000A5019401C6010E94A707C6019ECF80E001
:1059C000DDCF8FEFDBCF69EE71E0C8010E947B3B3A
:1059D000892B59F4C0907203D0907303C114D10481
:1059E00021F0C6010E94B210E8CF62EF71E0C80159
:1059F0000E947B3B892B99F5B1E0BF1580F50091A2
:105A00007003109171030115110531F0C8010E9456
:105A1000EA0AC8010E94253A70E060E089819A8113
:105A20000E944824F82E70E060E08B819C810E94E7
:105A30004824E82E8FE190E00E9489398C014E2D98
:105A40006F2D0E949F02109371030093700340E832
:105A500055E260E070E0C8010E94330B08CC6BEFA8
:105A600071E0C8010E947B3B892B91F4FF2081F0FB
:105A700070E060E089819A810E9448241816190616
:105A800014F081E090E0BC0183E00E942A0EEFCB8D
:105A900063E072E0C8010E947B3B892B99F4FF20F0
:105AA00089F070E060E089819A810E94482497FD26
:105AB00005C0BC014F9724F06EE101C060E070E0CA
:105AC00086E0E3CF6AE072E0C8010E947B3B892B4D
:105AD00021F470E060E086E1D8CF62E172E0C801B5
