:100000002DC1000053C1000051C100000C94B32762
:100010000C94B3270C94B32749C100000C94FF261D
:1000200045C1000043C1000041C100000C942B28D1
:100030003DC100003BC1000039C1000037C10000D4
:100040000C94B52633C100000C9481270C945B27D7
:100050002DC100002BC1000029C1000027C10000F4
:100060000C94E72823C1000000407A10F35A00A046
:10007000724E18090010A5D4E80000E87648170071
:1000800000E40B54020000CA9A3B000000E1F505B1
:10009000000080969800000040420F000000A086FB
:1000A00001000000102700000000E803000000002D
:1000B0006400000000000A000000000001000000D1
:1000C00000002C76D888DC674F0823DFC1DFAE59EB
:1000D000E1B1B796E5E3E453C63AE651997696E87E
:1000E000E6C28426EB898C9B62ED407C6FFCEFBC02
:1000F0009C9F40F2BAA56FA5F490055A2AF75C932D
:100100006B6CF9676DC11BFCE0E40D47FEF520E662
:10011000B500D0ED902E0300943577050080841E45
:10012000080000204E0A000000C80C333333330FA0
:10013000986E12831141EF8D2114893BE65516CF3D
:10014000FEE6DB18D1844B381BF77C1D901DA4BB49
:10015000E424203284725E228100C9F124ECA1E5FE
:100160003D2752454144592C4F4D2C00562C00AE92
:10017000D580A83FD300408D142002A1C8DA128197
:10018000CFD9F1DB40A4A6AF1F111F001F001D1522
:100190001715151F07041F17151D1F151D01011F1A
:1001A0001F151F17151F41542B4E414D45000D0AB9
:1001B0000041542B4E414D453D004C4F472C000211
:1001C000542C004C4F472C004D50335F5245414456
:1001D00059004F4B00455252004F4B00534156457A
:1001E000442C0050524F4752414D5F444154412CE2
:1001F0000050524F4752414D5F5245414459000013
:10020000000000240027002A000000000023002630
:10021000002900000000080002010000030407009C
:1002200000000000000000010204081020408001CE
:10023000020408102001020408102000000000251C
:100240000028002B00040404040404040402020235
:10025000020202030303030303009E2A11241FBEAC
:10026000CFEFD8E0DEBFCDBF12E0A0E0B1E0E0E725
:10027000F5E702C005900D92A436B107D9F725E045
:10028000A4E6B2E001C01D92A837B207E1F711E081
:10029000CEE2D1E004C02197FE010E94B538CD32F4
:1002A000D107C9F70E94152B0C94B63AA9CE089530
:1002B0000895833081F028F4813099F08230A9F0DC
:1002C00008958730A9F08830C9F08430B1F4809166
:1002D00080008F7D03C0809180008F7780938000A5
:1002E000089584B58F7784BD089584B58F7DFBCF45
:1002F0008091B0008F778093B00008958091B00016
:100300008F7DF9CFCF93DF93282F30E0F901ED5E99
:10031000FD4F8491F901E95DFD4FD491F901EB5B4B
:10032000FD4FC491CC2399F08111C3DFEC2FF0E095
:10033000EE0FFF1FE75FFD4FA591B491EC91ED2308
:1003400081E090E009F480E0DF91CF91089580E0B2
:1003500090E0FACF1F93CF93DF93282F30E0F9017D
:10036000ED5EFD4F8491F901E95DFD4FD491F901F6
:10037000EB5BFD4FC491CC23A1F0162F811199DFC7
:10038000EC2FF0E0EE0FFF1FE55CFD4FA591B4915F
:100390008FB7F894EC91111108C0D095DE23DC934F
:1003A0008FBFDF91CF911F910895DE2BF8CFCF93B0
:1003B000DF9390E0FC01E95DFD4F24918B5B9D4F45
:1003C000FC0184918823C9F090E0880F991FFC01FB
:1003D000E150FE4FA591B491FC01E55CFD4FC59144
:1003E000D49161110DC09FB7F8948C912095822310
:1003F0008C938881282328839FBFDF91CF91089514
:10040000623051F49FB7F8943C91822F80958323FA
:100410008C93E8812E2BEFCF8FB7F894EC912E2B95
:100420002C938FBFEACF1F93CF93DF93182FEB014D
:1004300061E0BDDF209739F460E0812F8BDFDF9131
:10044000CF911F910895CF3FD10511F461E0F5CF11
:10045000E12FF0E0ED5EFD4FE491E33019F140F45F
:10046000E130B1F0E230C9F0C038D1057CF7E4CF1B
:10047000E73011F1E83041F1E430B1F780918000CC
:10048000806280938000D0938B00C0938A00D7CF86
:1004900084B5806884BDC7BDD2CF84B5806284BD79
:1004A000C8BDCDCF80918000806880938000D093BC
:1004B0008900C0938800C3CF8091B000806880938A
:1004C000B000C093B300BBCF8091B0008062809336
:1004D000B000C093B400B3CF8E3008F08E50877058
:1004E000806480937C0080917A00806480937A009D
:1004F00080917A0086FDFCCF809178009091790000
:1005000008953FB7F8948091160490911704A09134
:100510001804B091190426B5A89B05C02F3F19F007
:100520000196A11DB11D3FBFBA2FA92F982F882773
:10053000BC01CD01620F711D811D911D42E0660F4E
:10054000771F881F991F4A95D1F708958F929F9220
:10055000AF92BF92CF92DF92EF92FF926B017C013C
:10056000D0DF4B015C01C114D104E104F104B1F00E
:10057000C8DF681979098A099B09683E73408105BB
:10058000910588F321E0C21AD108E108F10888EE4C
:10059000880E83E0981EA11CB11CE5CFFF90EF9060
:1005A000DF90CF90BF90AF909F908F9008952FB71E
:1005B000F894609112047091130480911404909146
:1005C00015042FBF0895FC0124813581621773073C
:1005D00048F480819181009729F0860F971FFC01D4
:1005E0008081089580E00895089590910C01891309
:1005F0000BC0EFEBF1E0E4919FEF90930C01E13041
:1006000049F028F0E23061F060E0A4CE0895109245
:100610006E00FACF90916F009D7F90936F00F4CFA2
:10062000909170009D7F9093700091E09093B00046
:100630009091B100987F94609093B1001092B300B4
:10064000E3CFA5E0B0E0E7E2F3E00C94FA368B01EB
:1006500029013A0190910C01891739F09F3F09F463
:100660006BC02596E0E10C941637EFEBF1E0949126
:100670009D8397FDF6CF61E09ADE8D81882321F07E
:100680009D81923009F049C14801B12CA12C60E054
:1006900072E18AE790E0A50198010E94CC36298397
:1006A0003A834B835C8369017A0181E0C81AD108DF
:1006B000E108F1089FEFC916D104E104F10409F043
:1006C0000CF400C160E472E48FE090E0A5019801B1
:1006D0000E94CC3669017A0181E0C81AD108E1088C
:1006E000F1089D81923009F0A1C08FEFC816D104A6
:1006F000E104F10409F00CF4E7C160E970ED83E076
:1007000090E0A50198010E94CC3669017A0191E040
:10071000C91AD108E108F1088FEFC816D104E10425
:10072000F10411F00CF080C183E09091B100987F4A
:10073000892B8093B100CEC080930C01EFEBF1E0E8
:1007400094919D839F3F09F48CCF913039F148F00B
:10075000923009F445C09D8197FD83CF61E027DE8B
:100760008FCF14BC15BC94B5926094BD95B59160C3
:1007700095BD282F30E0F901EB5BFD4FE491F0E0EF
:10078000EE0FFF1FE55CFD4F45915491F901E95DC6
:10079000FD4FE491E09339031D826DCF10928000EC
:1007A00010928100909181009860909381009091C7
:1007B0008100916090938100282F30E0F901EB5B7C
:1007C000FD4FE491F0E0EE0FFF1FE55CFD4F45911A
:1007D0005491F901E95DFD4FE491E09338034BCF6B
:1007E0001092B0001092B1009091B000926090937E
:1007F000B0009091B10091609093B100282F30E04B
:10080000F901EB5BFD4FE491F0E0EE0FFF1FE55CBB
:10081000FD4F459154915093430340934203F90196
:10082000E95DFD4FE491E093440325CF9FEFC916A6
:10083000D104E104F10409F00CF46DC068E478EE31
:1008400081E090E0A50198010E94CC3669017A010F
:1008500081E0C81AD108E108F1089D81992309F4C3
:10086000FCC08FEFC816D104E104F10411F00CF0C4
:10087000FDC0F1C064E274EF80E090E0A501940156
:100880000E94CC3669017A0181E0C81AD108E108DA
:10089000F10885E09FEFC916D104E104F10409F0E5
:1008A00008F443CF62E17AE780E090E0A50194018B
:1008B0000E94CC3669017A0181E0C81AD108E108AA
:1008C000F108E7C081E09D8191112FCF95B5987F08
:1008D000892B85BD2FEF3FEFA9014114510461041D
:1008E000710409F045C09D81913009F460C09230D7
:1008F00009F46FC09111B5CEC7BC20933E0330936D
:100900003F03409340035093410380916E00826007
:1009100080936E00A6CE82E0D6CF4801B12CA12CE8
:1009200060E072E18AE790E0A50198010E94CC3670
:1009300069017A0181E0C81AD108E108F108C114FF
:10094000D10491E0E906F1040CF591E08D8181304C
:1009500009F0C0CF80918100887F892B809381002E
:100960002FEF3FEFA9014114510461047104F9F024
:10097000D801AA0FBB1FA30192010E94E83628EEFE
:1009800033E040E050E00E942F37ADCF68E478EECE
:1009900081E090E0A50198010E94CC3669017A01BE
:1009A00081E0C81AD108E108F10893E0CFCFD092D6
:1009B0008900C092880020933A0330933B03409310
:1009C0003C0350933D0380916F00826080936F00E1
:1009D00048CEC092B3002093450330934603409322
:1009E00047035093480380917000826080937000A9
:1009F00038CE84E09FEFC916D104E104F10409F078
:100A000008F464CFC980DA80EB80FC808AE0F5943A
:100A1000E794D794C7948A95D1F781E0C81AD10892
:100A2000E108F10885E052CF68E478EE81E090E0DB
:100A3000A50198010E94CC3669017A0181E0C81AAB
:100A4000D108E108F1089FEFC916D104E104F104CF
:100A500011F00CF00FCF84E068CE83E09FEFC91651
:100A6000D104E104F10409F00CF430CF62E17AE73B
:100A700080E090E0A50194010E94CC3669017A01E2
:100A800081E0C81AD108E108F1089D81992309F491
:100A9000B0CF86E09FEFC916D104E104F10409F05C
:100AA00008F443CEC980DA80EB80FC809AE0F594AC
:100AB000E794D794C7949A95D1F781E0C81AD108E2
:100AC000E108F10887E031CE82E02FCEDB011496F9
:100AD0004D915C9115976D917C91DC01ED91FC91AC
:100AE0000280F381E02D09950895EF92FF920F9314
:100AF0001F93CF93DF938C017B01D0E0C0E0F7011F
:100B0000EC0FFD1F6491662361F0D801ED91FC911B
:100B10000190F081E02DC8010995892B11F02196F3
:100B2000EECFCE01CDB7DEB7E6E00C942037B0E0D3
:100B3000A0E0EDE9F5E00C9400376C017B018B013E
:100B4000040F151FEB015E01AE18BF08C017D107D7
:100B500059F06991D601ED91FC910190F081E02D61
:100B6000C6010995892B79F7C501CDB7DEB7EAE053
:100B70000C941C37FC01538D448D252F30E0842FBD
:100B800090E0821B930B541710F0CF9608950197B5
:100B90000895FC01918D828D981761F0A28DAE0FA2
:100BA000BF2FB11D5D968C91928D9F5F9F73928F29
:100BB00090E008958FEF9FEF0895FC01918D828D55
:100BC000981731F0828DE80FF11D858D90E0089522
:100BD0008FEF9FEF0895FC01918D228D892F90E07A
:100BE000805C9F4F821B91098F739927089588E934
:100BF00094E0F1DF21E0892B09F420E0822F0895B1
:100C000080E090E0892B21F0F2DF81110E9400004A
:100C10000895FC01A48DA80FB92FB11DA35ABF4F91
:100C20002C91848D90E001968F739927848FA689EB
:100C3000B7892C93A089B1898C91837080648C933F
:100C4000938D848D981306C00288F389E02D8081EE
:100C50008F7D80830895EF92FF920F931F93CF9320
:100C6000DF93EC0181E0888F9B8D8C8D981318C0E9
:100C7000E889F989808185FF13C09FB7F894EE89D0
:100C8000FF896083E889F98980818370806480832B
:100C90009FBF81E090E0CDB7DEB7E6E00C9420374F
:100CA000F62E0B8D10E00F5F1F4F0F731127E02EF4
:100CB0008C8D8E110BC00FB607FCFACFE889F9892D
:100CC000808185FFF5CFCE01A4DFF2CFEB8DEC0F55
:100CD000FD2FF11DE35AFF4FF0829FB7F8940B8F61
:100CE000EA89FB8980818062D2CF682F88E994E00D
:100CF000B2CF0895CF93DF93EC01888D8823B1F0B4
:100D0000AA89BB89E889F9898C9185FD03C0808116
:100D100086FD0CC00FB607FCF7CF8C9185FFF2CF94
:100D2000808185FFEDCFCE0174DFEACFDF91CF91D7
:100D30000895A9E0B0E0EFE9F6E00C9402378C01E9
:100D4000DC0119968D919C91892B09F471C0D9DB36
:100D5000F801C784D088E188F2886C157D058E057E
:100D60009F0520F46787708B818B928BF801C78475
:100D7000D088E188F2886C197D098E099F096C3250
:100D800071408105910518F3F894D80114968D915E
:100D90009C9115979A8389831996ED91FC917F0117
:100DA000BFEFEB1AFB0A80818987F80190810388E5
:100DB000F489E02DD80155968C91992309F43CC013
:100DC0009081982B98879081809589238F838F813C
:100DD0008C8388E08B8358856F8149853B812C818A
:100DE00089819A81D701508347FD252F3A95208329
:100DF000262F39F0441F00C000006083000000C0AF
:100E0000F2CF38E04D9160830000019761F7D8017F
:100E10005496FC93EE93539749873B832C839A8394
:100E2000898378946EDBF8016787708B818B928B56
:100E30002996E8E00C941E379081982B9887908132
:100E4000809589238F838F818E8388E08D83588559
:100E50006F8149853D812E8189819A81D701508397
:100E600047FD252F00C000C0208300C000C000C087
:100E700000C000C060830000262F3A9541F0441F57
:100E8000000000C000C000C000C000C0E8CF38E0D3
:100E90004D9100C0608300C0019709F7D8015496B6
:100EA000FC93EE93539749873D832E83B8CFCF931E
:100EB000DF93EC018E819F8197FD0AC061E077DAB4
:100EC00060E08E8147DA81E08983DF91CF910895D8
:100ED000198280E0FACF209136033091370328172A
:100EE000390771F49091350380913403981741F0DC
:100EF000E0913503F0E0EC50FD4F808190E00895E3
:100F00008FEF9FEF08950895EF92FF920F931F9335
:100F1000CF93DF93DC015C96ED90FC905D97E1143C
:100F2000F10469F481E090E013969C938E931297FC
:100F300090E080E0CDB7DEB7E6E00C942037519624
:100F4000ED91FC91529750968C915097982F9095D7
:100F50000FB75E962C915E97122F127021FD60954F
:100F6000F8942081112319F1282B2083E701219780
:100F7000F1F728E0462F50E0308160FF1AC0382B8F
:100F80003083E7012197F1F7BA01759567952150F4
:100F900089F7112381F08081892380830FBF5C96BC
:100FA0008D919C910197F1F781E090E0C3CF2923C7
:100FB000DCCF3923E5CF9081892BEFCF2091360309
:100FC000309137032817390761F480913403209159
:100FD000350390E0805C9F4F821B91098F739927A6
:100FE000089590E080E00895209136033091370312
:100FF00028173907B9F49091350380913403981775
:1010000089F0E0913503F0E0EC50FD4F80812091B4
:10101000350330E02F5F3F4F2F7333272093350385
:1010200090E008958FEF9FEF08951F93CF93DF9384
:10103000EC01162F60E0812FBAD98E8D81FD03C09F
:1010400061E0812F87D91C87812F90E0FC01E95D49
:10105000FD4FE491ED87FC01EB5BFD4FE491F0E087
:10106000EE0FFF1FE75FFD4F859194919F878E875D
:10107000DF91CF911F9108951F93CF93DF93EC01E0
:10108000162F6E8D6695617081E06827812F62D979
:1010900061E0812F8CD9812F90E0FC01E95DFD4F4B
:1010A000E491E88BFC01EB5BFD4FE491F0E0EE0F87
:1010B000FF1FE55CFD4F859194919A8B898BDF91A1
:1010C000CF911F910895FC018CE191E09183808381
:1010D0008091360390913703E817F90759F4A389F3
:1010E000B4899C918589809589238C9310923703CC
:1010F000109236030895CF93DF93FC01828D938D78
:10110000892B41F1A0913603B0913703AE17BF0789
:1011100009F1109751F05396CD91DC915497988135
:1011200055968C91809589238883868D8E7F868FB6
:101130001092340310923503F0933703E093360393
:10114000A389B4898C919589892B8C9381E0DF9157
:10115000CF91089580E0FBCFCF93DF93EC019A010C
:10116000AB011B8E1A8E198E188E1F8A1E8A60E0A4
:1011700079E08DE390E00E94CC36F901C901039734
:101180002430310510F481E090E09D8F8C8F6C85C8
:10119000663108F053C0C901969587958431910551
:1011A00008F451C043979F8B8E8BC90105973697E2
:1011B00010F481E090E0998F888FC901880F991F02
:1011C000280F391F36952795369527952D303105EF
:1011D00008F43CC02C5031093B8F2A8F9091680055
:1011E00084E0683048F021E06E3008F420E081E0CF
:1011F00001C0880F2A95EAF7892B809368009C85A7
:101200002DE630E0983050F02BE630E09E3030F0A4
:101210002CE630E0963110F030E020E03C8B2B8B58
:10122000292F30E09830A8F481E001C0880F9A950A
:10123000EAF78D8B8C8D9D8D0197F1F7CE015BDFE9
:10124000DF91CF91089581E090E0ADCF21E030E0D3
:10125000C3CF9E3040F42850310981E001C0880F8F
:101260002A95EAF7E6CF2E503109F7CFCF92DF92D9
:10127000EF92FF92CF93DF93EC01603282E0780728
:10128000CCF5653B710514F064EB70E0898128E8CA
:1012900030E0281B310987FD3395220F331F220FC1
:1012A000331F6901330FEE08FF088A8128E532E019
:1012B000281B310987FD3395220F331F220F331F5F
:1012C000032E000C440B550B2C193D094E095F09E8
:1012D000DB0177FF02C0B0E0A0E00E94F23624EB11
:1012E00030E040E050E00E94CC36C20ED31EE41E37
:1012F000F51EB601E881EC3070F5298188E890E0B0
:10130000821B910927FD9395880F991F880F991FBC
:10131000681779077CF02A8188E592E0821B9109A1
:1013200027FD9395880F991F880F991F68177907D4
:101330000CF4CB010297880F991F4FB7F8942E2F0A
:1013400030E0F901EE0FFF1FE20FF31FEF5BFA4FE2
:10135000928381834FBFDF91CF91FF90EF90DF9019
:10136000CF9008952091D002260F3327331F2132CA
:101370003105ECF420916E04FC0190E080E0243013
:1013800069F082E00895A091D0022191AC0140550E
:101390005D4FA40FB52FB11D2C930196861798F3BE
:1013A0008091D002680F6093D00280E0089581E0C0
:1013B000089510926E0481E080936D0410924804A9
:1013C00061E082E10E94AA0161E083E10E94AA013A
:1013D000E9EBF0E080818E7F808380818D7F808348
:1013E00088E48093B80085E48093BC00089510924F
:1013F0004704109246041092750410929704D9DFA6
:1014000087E591E0909345048093440488E591E05A
:1014100090934304809342040895CF93DF9391E027
:101420009093AF028823B1F0C091B800D091BA0078
:101430008091BC008A7B8093BC0060E082E10E94C6
:10144000AA0160E083E10E94AA01B3DFD093BA0051
:10145000C093B800DF91CF910895B0E0A0E0E3E33E
:10146000FAE00C940237D091970481E0D13208F071
:1014700098C0C091960445D86B017C0180916E04A0
:1014800081116AC082E080936E0481E080936D04D4
:101490008FEF80936C0410926B04D0936A04A6E7DC
:1014A000B4E0EAE4F4E080E0D81386C01092490486
:1014B00080914904CC0FC82BC09349048091480403
:1014C000813009F07DC0109248041BD86B017C016B
:1014D000809149048093BB008091700490917104C5
:1014E000A0917204B0917304892B8A2B8B2B99F0F5
:1014F00008D8009170041091710420917204309109
:1015000073046C197D098E099F09061717072807B0
:10151000390708F442C08091BC0083FDD9CF85EC27
:101520008093BC000E9481026B017C0180916E045B
:10153000823009F447C080916C048F3F09F464C085
:1015400080916C04803209F461C080916C04803316
:1015500009F45EC084E025C080917004909171040C
:10156000A0917204B0917304892B8A2B8B2B09F400
:1015700085CF0E9481020091700410917104209126
:101580007204309173046C197D098E099F09061746
:1015900017072807390708F071CF80916F043DDFE6
:1015A00085E0109275041092970410927404CDB7E0
:1015B000DEB7E8E00C941E379D9191938F5F74CF56
:1015C00085EEAECF8091700490917104A091720469
:1015D000B0917304892B8A2B8B2B09F4A7CF0E941F
:1015E0008102009170041091710420917204309175
:1015F00073046C197D098E099F09061717072807C0
:10160000390708F093CFC9CF80E0CBCF82E0C9CFB4
:1016100083E0C7CFE091470480914604E81730F497
:10162000F0E0E157FD4F808190E008958FEF9FEF4C
:10163000089590914704809146042FEF3FEF98174B
:1016400048F4E92FF0E0E157FD4F208130E09F5F43
:1016500090934704C90108958091460490914704EE
:10166000891B990B0895B0E0A0E0E9E3FBE00C943E
:1016700002377C01CB018A0120917404222389F076
:10168000EB016B01C40ED51ECC15DD0561F069912F
:10169000D701ED91FC910190F081E02DC7010995F2
:1016A000F3CF642F5FDEC801CDB7DEB7E8E00C945E
:1016B0001E37A1E0B0E0EFE5FBE00C94083769834A
:1016C000209174042223F9F020919704203258F0DD
:1016D00021E030E0FC013383228390E080E021961A
:1016E000E2E00C94243780917504E82FF0E0EA588A
:1016F000FB4F998190838F5F80937504809397044B
:1017000081E090E0ECCF61E0CE0101962BDEF8CFD6
:10171000682F85E395E0CDCF089590E080E00895AF
:10172000FF920F931F93CF93DF9300911E041091AC
:101730001F040115110519F1FC0124813581232BAA
:10174000F1F0F62EEC01C801D6DCF1E0FF121CC06E
:1017500061EB71E0C801C9D9BE0180911E0490916E
:101760001F04B4D96EEA71E080911E0490911F04A9
:10177000BCD968EE73E080E090E00E94A602CDB78D
:10178000DEB7E5E00C94213766EA71E0C801ADD917
:10179000BE0180911E0490911F0498D9EACF0F9347
:1017A0001F93CF93DF93D82FC0E0062F10E08D2F2B
:1017B0000E9482018017910721F4CF5FCF3FB9F7D4
:1017C000C0E08C2FDF91CF911F910F910895B0E071
:1017D000A0E0EDEEFBE00C940237C82F162FD42FBB
:1017E00080917202882329F0809170028C1709F48D
:1017F0007BC081E080937202C093700262E08C2F04
:101800000E94D70160ED77E080E090E00E94A602A0
:10181000109371020E94D70260936702709368026E
:101820008093690290936A021092730261E08C2F98
:101830000E94D70160E08C2F0E94AA0162E070E054
:1018400080E090E0163121F064E170E080E090E00B
:101850000E94A602DFB6F89461E08C2F0E94AA01D4
:1018600083E790E00197F1F762E08C2F0E94D701A7
:1018700061E08C2F94DF60E08C2F91DF882331F0C2
:1018800061E08C2F8CDF91E0811101C090E0F12CA0
:10189000E12C992309F449C088E2E816F10409F41F
:1018A00044C060E08C2F7BDF082F61E08C2F77DF56
:1018B000002319F091E0811101C090E0F70133E0BD
:1018C000F595E7953A95E1F7E559FD4F208130E030
:1018D000220F331F41E0081708F040E0242B20833B
:1018E0002FEFE21AF20AD5CF0E94D702C09067020A
:1018F000D0906802E0906902F0906A026C197D094C
:101900008E099F09603D77408105910508F080CFE1
:10191000809171028117F1F060E070EC89E794EC3E
:10192000CDB7DEB7E8E00C941E37DFBE992381F017
:1019300080916B0290916C02890F90916D02890FDA
:1019400090916E02890F91E020916F02821390E0D6
:1019500090937302809173028823F1F2F0E0E0E04B
:10196000D11102C0E2E0F0E0E559FD4F90818181A4
:101970001631F1F4692F70E0762F662766277F779E
:10198000682B892F881F8827881FD11104C019F060
:10199000719561957109072E000C880B990B0E94B7
:1019A000A3352DEC3CEC4CEC5DE30E940236B8CF45
:1019B000682F6F7770E02AE0929F600D711D1124EF
:1019C000E1CFCF93FC012285222339F0C1E080854D
:1019D0009185892B81F4C0E00EC060817181828184
:1019E00093819F77C1E02CEA35EC47E257E30E94F0
:1019F0005E38181684F78C2FCF910895B0E0A0E0E0
:101A0000E4E0FDE00C94FE36EC010A85002309F4C5
:101A10007DC0249670E060E0CE010E94E30211E0F8
:101A20008D3211F000E010E0C12CD12C7601612F35
:101A300070E0CE010E94E302B82E082E000C990B34
:101A4000C0970A9708F51F5F20E030E040E251E4BC
:101A5000C701B6010E9402366B017C016B2DBB0CE5
:101A6000770B880B990B0E94A3359B01AC01C70132
:101A7000B6010E94613720E030E040E452E40E9469
:101A800060376B017C01D3CF8EE2B81232C08DEC8F
:101A9000882E8CEC982EA92C8DE3B82E1F5F612F19
:101AA00070E0CE010E94E302682F880F770B60532D
:101AB00071096A307105E8F4072E000C880B990B48
:101AC0000E94A335A50194010E9402369B01AC013E
:101AD000C701B6010E9461376B017C012DEC3CEC23
:101AE0004CEC5DE3C501B4010E9402364B015C0180
:101AF000D5CF002321F0F7FAF094F7F8F094C7015E
:101B0000B601CDB7DEB7ECE00C941A37C880D980A7
:101B1000EA80FB80F4CF9091060121E020937404C9
:101B2000909396041092750410929704886090E048
:101B3000EFDD93CC08952F923F925F926F927F9248
:101B40008F929F92AF92BF92CF92DF92EF92FF92CD
:101B50000F931F93CF93DF93E0914A03F0914B03D0
:101B6000309741F1A281B381109721F18F3F910508
:101B700099F197FD9FC0ED012197C817D90710F47F
:101B80008FEF8A0F77247394780E28C020E02EC040
:101B900040E034C060E03AC0880F991F880F991F59
:101BA000E80EF91EC701810F911DEC0118826CC06F
:101BB000CF01BFD8DF91CF911F910F91FF90EF9090
:101BC000DF90CF90BF90AF909F908F907F906F905D
:101BD0005F903F902F9008957A2E80E037FDD6CF0A
:101BE0002F3F310519F014F02FEF30E057FDD0CF23
:101BF0004F3F510519F014F04FEF50E077FDCACF79
:101C00006F3F710519F014F06FEF70E0822E912C88
:101C1000B12CA12C942AA62AA50166277727542E39
:101C2000292DBA01482F50E0DA01312C212C682CE3
:101C3000A71508F0BDCF82819381A817B907A8F531
:101C4000C62C8085D22E352D882371F0869F800189
:101C5000879F100D1124312F829F80011124D12ED6
:101C6000889DC0011124C92E1685E184F284038564
:101C7000CA01820D931D10138FCF8C01000F111F0D
:101C8000800F911FE80EF91E83858E0D9F2D911DEB
:101C9000EC01388384858E0D9F2D911DEC01D88237
:101CA0008585E80EF11CE701C8828FEF281A380AF3
:101CB0001196BECF80E066CFCF93C82F80910401EC
:101CC00091E090937404809396041092750410929E
:101CD000970490E080E01CDD6C2F85E395E0E9DC63
:101CE000BCDBCF910895CF93C82F862F806BE4DFA4
:101CF0008C2F8F70E1DF8C2F82958F708061DCDFFD
:101D0000CF910895A3E0B0E0E8E8FEE00C94F83647
:101D10006C01142F80914C03882309F4CFC090915B
:101D20000501603108F06FE0092F000F000F609F80
:101D3000002D1124923009F05EC0143008F013E039
:101D4000110F612F802FCFDF612C54E0E52E6AE068
:101D5000462E70E1372E5E0184E0A80EB11C662D80
:101D600070E0F601848195816817790708F0A6C0B4
:101D7000C6010E94E30219821A821B8290ED980F1D
:101D80009A3008F03DC0082E000C990BC0979C01BA
:101D9000220F331F820F931FDE01119630E020E0E7
:101DA00088579E4FFC01E20FF31FE491ED932F5FE4
:101DB0003F4F23303105B1F7509004018091050168
:101DC0008130A1F5809374045092960410927504AA
:101DD0001092970480E490E09BDC43E050E0BE0169
:101DE0006F5F7F4F85E395E03EDC90E080E090DC24
:101DF00034DB6394B4CF183008F4A3CF17E0A1CF3D
:101E00008D3221F4EB82EA82E982D6CF8E3211F450
:101E10003A82D2CF8A3311F44A82CECF853261F62C
:101E2000F9E1F983EA8283E18B83C6CF712C222406
:101E30002394612F670D802F56DF209274045092F7
:101E40009604109275041092970480E490E060DC90
:101E5000FE0131964F01F40181914F01711028C0AC
:101E60008F70F4E08F9F90011124822B8373F82EE2
:101E7000FF0C8F298575F82EFF0CF82A6F2D85E34E
:101E800095E017DC6F2D85E395E013DCA814B90409
:101E900011F790E080E03CDC90E080E039DCDDDAB6
:101EA00081E0781202C0085FA4CF77247394C1CF79
:101EB000F12C84FFE3CF83E0F82EE0CF2396E2E11C
:101EC0000C9414370F931F93CF93DF9380914C039F
:101ED000882311F1C0E001E06C2F80E004DFD8E03E
:101EE0008091040100937404809396041092750409
:101EF0001092970480E490E00BDC10E190E080E029
:101F000007DC1150D9F7A9DAD15051F7CF5FC830AB
:101F100019F760E080E0E7DEDF91CF911F910F912C
:101F20000895CF93DF9380930401623009F061E05C
:101F3000609305015CDACFE6D1E0FE018491BCDE5E
:101F40002196F1E0C838DF07C1F781E080934C03A8
:101F5000B9DFDF91CF910895AAE0B0E0E2EBFFE0B6
:101F60000C94063700916402109165020115110569
:101F700081F11E821D829EE799839FEF9A8396E0EE
:101F80009B839FEE9A878C83272F30E07E836F831D
:101F900090E08B5F9E4F820F931F860F911D91954E
:101FA0008195910998878987C801A5D8D801ED91B5
:101FB000FC910280F381E02D4AE050E0BE016F5FAA
:101FC0007F4FC801099568E770E080E090E00E94CB
:101FD000A6022A96E4E00C942237CF93C0E08091C9
:101FE0006602C81758F4EC2FF0E0E85FFE4F70E08F
:101FF00060E080810E941302CF5FF1CF85B1807FC6
:1020000085B980910D0187FF0E94F50280916402DD
:1020100090916502892B21F070E060E086E19CDF01
:10202000CF910895CF92DF92EF92FF921F93CF93BB
:10203000DF93E0E0F1E0DF01D0E0C0E0482F50E0C6
:102040002D91022E000C330B2417350781F4CE019D
:10205000880F991FC80FD91FCA59DA4FCE01DF91D7
:10206000CF911F91FF90EF90DF90CF900895219630
:10207000C430D10529F7F12CE12C919197FF63C071
:10208000F701E050FF4F80836701CC0CDD1CE601B7
:10209000CE0DDF1DCA59DA4F98819C30F8F6182F03
:1020A00061E00E94D7018881282F30E0F901EE0F0E
:1020B000FF1FE20FF31FEF5BFA4F1F739081907CBD
:1020C000192B108319821A822CE0622F0E94A938E2
:1020D000829FB001112430E020E0AB01420F531F7A
:1020E000FA01EE0FFF1FE40FF51FEF5BFA4F90812F
:1020F00096FD16C02F5F3F4F2C30310571F78111CF
:102100000FC01092800082E08093810010928500C1
:1021100010928400B19A80916F00826080936F006A
:10212000F601EE0DFF1DEA59FA4FE0818E2F90E087
:10213000FC01EE0FFF1FE80FF91FEF5BFA4F8081E4
:10214000806480838BCF9FEFE91AF90A94E0E91647
:10215000F10409F092CFD0E0C0E080CFE0916602B8
:10216000A8E0B1E090E0E91729F02D91281761F07F
:102170009F5FF9CFE43040F491E09E0F90936602A8
:10218000F0E0E85FFE4F80830895EF92FF920F9397
:102190001F93CF93DF93082F162F7A01EA014F3F49
:1021A000510519F014F0CFEFD0E0C1308FEFD80710
:1021B00014F4C1E0DFEF802FD1DF812FCFDF61E0AA
:1021C000802F0E94D70161E0812F0E94D701BE01BC
:1021D000802F1E141F049CF070E060E0E114F104F5
:1021E00071F00E941302662777276C1B7D0B812FED
:1021F0000E941302CDB7DEB7E6E00C9420370E94B0
:10220000130270E060E0F3CFA8E0B0E0EAE0F1E1B3
:102210000C94063718861F8295E599839AEA9A836B
:1022200091E19B8392E09C838D836E837F83FE018B
:1022300031969E01285F3F4F8F0191918885890FCC
:102240008887E217F307C9F7D2D881E08093740436
:1022500082E380939604109275041092970448E0EC
:1022600050E0B80185E395E0FED9F7D82896E4E080
:102270000C9422370F931F93CF93DF93D82FC62F41
:1022800061E00E94D70160E08D2F0E94AA018BE5DA
:1022900094E00197F1F78C2FC63008F085E0825F5B
:1022A0000E946C028C018BE990E00197F1F761E0EC
:1022B0008D2F0E94AA018BE397E90197F1F7C801DE
:1022C000DF91CF911F910F910895982F80ED890F85
:1022D0008A3048F0892F80629FE9980F963010F479
:1022E0008755089580E00895DC0114968D919C91A6
:1022F00015976817790750F4ED91FC911197E60F47
:10230000F71F15967C936E93149710820895CF93C0
:10231000807FC82FC62B8C2FFEDB8C2F8460FBDBCD
:102320008C2FF9DB83EC90E00197F1F7CF910895C2
:10233000CF93DF93C82FD62FEADF6D2F8C2F829596
:10234000807FE5DFDF91CF9108951F93CF93DF93D7
:1023500020914D03222381F0EC0110E0612F70E009
:102360008C819D816817790738F4CE010E94E302C1
:1023700061E0DEDF1F5FF2CFDF91CF911F91089503
:1023800090910701891710F08FEF890F643008F0E2
:1023900063E0E62FF0E0EC5EFE4F9081890F60E095
:1023A0008068C6CF089580914D03882339F060E09E
:1023B00081E0BEDF8BE39FE10197F1F708951F9362
:1023C000CF93DF93142F80930601609307010FD8FA
:1023D00062E370E080E090E00E94A60260E080E3AB
:1023E00096DFCBE4D6E4CE010197F1F760E080E31D
:1023F0008EDF2197F1F760E080E389DF83E592E0EB
:102400000197F1F760E080E282DF80E2123008F0AD
:1024100088E260E08DDF60E08CE08ADF60E086E0EB
:1024200087DF81E080934D03BEDFDF91CF911F9165
:102430000895A0E1B0E0EFE1F2E10C94F836882EC7
:10244000962EC72E93E0E92EDD24D39477247A9438
:102450002FE0622E6AE070E080E090E00E94A60229
:102460000E9481021B012C0180916E04811162C0C7
:10247000D0926E04D0926D0470926C0410926B0432
:1024800060926A04D09249048091490484668093E2
:10249000490480914804813009F085C010924804B5
:1024A0000E9481021B012C01809149048093BB0092
:1024B0008091700490917104A0917204B0917304A2
:1024C000892B8A2B8B2BA1F00E9481020091700432
:1024D0001091710420917204309173046219730990
:1024E00084099509061717072807390708F443C018
:1024F0008091BC0083FDD8CF85EC8093BC000E9406
:1025000081021B012C0180916E04813009F44FC0BF
:1025100080916B04803108F06CC0F0906B04AAE4E9
:10252000B4E0EFE8F2E080E08F1551F19D919193D6
:102530008F5FFACF8091700490917104A091720422
:10254000B0917304892B8A2B8B2B09F48DCF0E94B9
:1025500081020091700410917104209172043091F5
:102560007304621973098409950906171707280768
:10257000390708F079CF80916F040E940D0AF12C81
:1025800010924704F09246048E010F5F1F4F5801CE
:102590008A2D801B8F1580F585E395E04AD8F501DB
:1025A00081935F01F5CFA5EEA093BC00A8CF8091E9
:1025B000700490917104A0917204B0917304892BFE
:1025C0008A2B8B2B09F49FCF0E948102009170040B
:1025D000109171042091720430917304621973098F
:1025E00084099509061717072807390708F08BCFC4
:1025F000C2CF80E1F82E93CFF0E1FF1203C08D81AE
:10260000881529F0EA94E11025CF80E016C0E92D65
:10261000FC2D9801265F3F4FD80116968C91169796
:1026200015969C91892798278927819391930E5F0E
:102630001F4F2017310781F781E06096E2E10C948B
:102640001437CF92DF92EF92FF921F93CF93DF93D5
:10265000CDB7DEB72A970FB6F894DEBF0FBECDBF59
:102660006C01162F7A01BC0187E2CEDDBE016F5FDF
:102670007F4F89E2DEDE81110FC080E02A960FB61F
:10268000F894DEBF0FBECDBFDF91CF911F91FF90B9
:10269000EF90DF90CF90089589819A8118161906DE
:1026A00064F7BE016F5F7F4F8AE2C3DE882329F3A0
:1026B00029853A852C153D0501F721E030E01123ED
:1026C00079F0212F2150330BB901660F771FE1E01C
:1026D000F0E0EC0FFD1F6E0F7F1FFB0120813181A9
:1026E000F70131832083CACF282F220F292F221FE1
:1026F0002F3F19F00C946238089560E070E0CB0130
:102700000895FC014481558170E060E081859285E7
:102710000C949F3A0895B0E0A0E0E1E9F3E10C9455
:102720000237EC016B01F42EE52E198218861F8604
:10273000188A198A1A8A81E08E878B871C8692E014
:102740009D8788838B01000F111F060F171F1D83A4
:102750000C83C8010E94BB389A878987009769F16A
:10276000A80170E060E00E949F3ADB82CA82FE828C
:10277000EF828981882341F061E08F2D0E94D7018B
:1027800060E08F2D0E94AA018F2D9E2DFC01EB5B36
:10279000FD4FE491F0E0EE0FFF1FE55CFD4F25914A
:1027A00034913C8B2B8BFC01E95DFD4FE491ED8B6B
:1027B000CDB7DEB7E8E00C941E371D821C821B8269
:1027C0001A82D5CF0F931F93CF93DF938C01EB0128
:1027D000FC01808191810097E1F068817981611528
:1027E0007105A9F0428153812C813D814217530725
:1027F00070F00E94AF3A8C819D81F80195838483AB
:102800001D821C82DF91CF911F910F9108950E942C
:10281000573988819981F801918380838A819B81CE
:10282000938382838C819D8195838483198218820E
:102830001B821A82E5CFB0E0A0E0E1E2F4E10C9463
:102840000237EC018B01FB01C190D190E190F19036
:10285000BF01FC01C192D192E192F192CF016E17BA
:102860007F0709F0AFDFF80182858A87CE01CDB7F7
:10287000DEB7E8E00C941E37CF93DF93EC0188813C
:102880009981009711F00E945739198218821D8290
:102890001C821B821A82DF91CF910895FC018081F6
:1028A0009181009711F00C94573908950F931F935D
:1028B000CF93DF93861306C080E0DF91CF911F9105
:1028C0000F910895062F182FC0916402D0916502D0
:1028D000209731F0CE010E946308CE010E94573943
:1028E0008FE190E00E94BB38EC011B821A8288EED7
:1028F00093E0A0E0B0E08C839D83AE83BF838CE146
:1029000091E0998388831F8A1E8A198E188E1B8EE8
:102910001A8E1D8E1C8E8E8D8E7F8D7F8E8F602FDA
:10292000CE010E943C08612FCE010E941508D09371
:102930006502C0936402209709F4BECF40E855E2D7
:1029400060E070E0CE010E94AC08CE010E947B08DE
:1029500064E670E080E090E00E94A60270E060E033
:102960008CE0FADA68E978E080E090E00E94A60264
:1029700062E070E089E0F0DA6CE271E080E090E023
:102980000E94A60281E099CFFC0124813581FB01E0
:102990004481558124173507A0F0FC018081918185
:1029A000009779F0FB01608171816115710549F033
:1029B000241B350B820F931F0E94A63A21E0892B1E
:1029C00009F020E0822F0895FB0101900020E9F733
:1029D0003197AF01461B570BDC01ED91FC91028052
:1029E000F381E02D09950895CF93DF93BC0188E929
:1029F00094E00E947505EC016EE471E088E994E0D2
:102A0000E3DF8C0F9D1FDF91CF910895A1E2B0E02D
:102A1000ECE0F5E10C9402379C0150E040E019A293
:102A20008E010F5D1F4F8AE0C82ED12CE12CF12CB6
:102A3000CA01B901A70196010E942F37605DF80114
:102A400062938F01211531054105510589F73097B2
:102A500081F0BF0188E994E0B7DF8C016EE471E09A
:102A600088E994E0B1DF800F911FA196E8E00C9413
:102A70001E3710E000E0F2CF0F931F93CF93DF9348
:102A8000EC010E9466058C016EE471E0CE019CDFD2
:102A9000800F911FDF91CF911F910F91089562E6F2
:102AA00071E088E994E00E94750561E571E088E9CC
:102AB00094E08ADF6EE471E088E994E085CF0895C0
:102AC0000F931F93CF93DF93EC0188819981009737
:102AD00059F02A813B812617370730F081E0DF91DA
:102AE000CF911F910F9108958B016F5F7F4F0E94CF
:102AF000E039009759F0998388831B830A832C81DE
:102B00003D81232B59F7FC011082E8CF80E0E7CF0D
:102B1000A2E0B0E0EEE8F5E10C9404378C016983A3
:102B20001A82FC01E480F580FFEFEF1AFF0AB7017B
:102B3000C7DF882381F0F80120813181848195816C
:102B4000BE016F5F7F4F820F931F0E94AF3AF80163
:102B5000F582E48281E02296E6E00C942037EF9241
:102B6000FF920F931F93CF93DF93EC017B018A01B8
:102B7000BA01A6DF811108C0CE017EDECE01CDB73D
:102B8000DEB7E6E00C9420371D830C83B701888103
:102B900099810E94AF3AF2CFFB0101900020E9F742
:102BA0003197AF01461B570BDACF0895A3E3B0E08E
:102BB000ECEDF5E10C9404377C01CB01BA01F7018F
:102BC0001182108213821282158214828E010F5F8D
:102BD0001F4F22E044E00E94BE32009739F0BC0152
:102BE000C701DADFE396E6E00C942037C70144DE44
:102BF000F9CFA6E0B0E0EFEFF5E10C9402378C01DD
:102C00006A017B016CE671E088E994E00E94750539
:102C10000115110521F0B80188E994E0D5DE8CE2B8
:102C20000E947506B701A601CE010196BFDFBE0165
:102C30006F5F7F4F88E994E01FDFCE0101962EDEA3
:102C40002696E8E00C941E37FC0140835183628392
:102C50007383128660E571E004969ECF0895CF934A
:102C6000DF93EC01FB018617970741F060817181CA
:102C70006115710539F04481558171DFCE01DF9115
:102C8000CF910895F9DDFACFFC01118210821382F1
:102C9000128215821482FB0101900020E9F731971E
:102CA000AF01461B570B5BCF0895B0E0A0E0EBE50A
:102CB000F6E10C9400376C015B017A01890124175D
:102CC000350720F48F2D7901042F182F60E571E06E
:102CD000C601DADFD5011496CD91DC91EC16FD0624
:102CE000D8F40C171D0708F4E801D501ED91FC910B
:102CF0001197EC0FFD1F108110826D917C916E0D6C
:102D00007F1DC6016115710569F046DFF5018081FF
:102D10009181C80FD91F1883C601CDB7DEB7EAE08D
:102D20000C941C37A9DDF2CFCF92DF92EF92FF9285
:102D3000CF93DF93EC0160E571E0A6DF80911E0484
:102D400090911F04009789F10E947B080E94D7028E
:102D50006B017C010E94D7026C197D098E099F09C5
:102D6000603571058105910500F580911E049091F3
:102D70001F04DC01ED91FC910084F185E02D0995A3
:102D8000892B41F380911E0490911F04DC01ED9189
:102D9000FC910284F385E02D09958D3011F08A3085
:102DA00061F48C819D81892B01F3CE01DF91CF915C
:102DB000FF90EF90DF90CF900895682FCE01A8DEAE
:102DC000D4CFAF92BF92CF92DF92FF920F931F9317
:102DD000CF93DF936C01EB0160E571E055DF209745
:102DE00021F1FE0101900020E9F731978F010C1BC2
:102DF0001D0BB80176956795C60162DEAA24A394DF
:102E0000B12CA016B10688F488815FDAF82E89818A
:102E10005CDA90E1F99EB0011124682BC60178DEDE
:102E200082E0A80EB11C2296ECCFC601DF91CF91B3
:102E30001F910F91FF90DF90CF90BF90AF900895BA
:102E400085ED8093BC008091700490917104A091F5
:102E50007204B09173040796A11DB11D23E0B695CD
:102E6000A795979587952A95D1F72091BC0024FDC9
:102E700003C010926E040895409170045091710443
:102E80006091720470917304452B462B472B69F3B4
:102E90000097A105B10541F02AE22A95F1F700C09B
:102EA0000197A109B109E1CF80916F040C940D0A3B
:102EB00008951F93CF93DF93EC01162F0E94B6362F
:102EC000181721F0612FCE010E94BE36DF91CF91FD
:102ED0001F9108950C94B6360895B0E0A0E0E3E7A2
:102EE000F7E10C94003710925B0383E090E0F2DF8F
:102EF000C82F84E090E0EEDFD82FD0934F03C0932B
:102F00004E0385E090E0E6DF082F86E090E0E2DF08
:102F1000182F10938D0200938C0287E090E0DADF87
:102F2000A82E88E090E0D6DFB82E90E080E0D2DFD7
:102F30008F3409F044C081E090E0CCDF8D3409F09B
:102F40003EC082E090E0C6DF8130C9F5CE01019736
:102F5000873F9340A0F5C017D10788F1D12CC12C31
:102F6000F12CE12CC7010996B5DFC80ED11C8FEFFB
:102F7000E81AF80ACE15DF05A9F7AC14BD04F9F478
:102F8000E0E2F4E080E2DF011D928A95E9F7109219
:102F9000490310925703109258031092590310924C
:102FA0005A0381E00115110509F080E080938E023B
:102FB000109241041092400481E080935B03CDB7EE
:102FC000DEB7EAE00C941C3720914E0330914F039A
:102FD0008217930718F409967DCF089580E008952D
:102FE000A8E2B0E0E6EFF7E10C94FE368C01FB01BD
:102FF0008285882381F0F801118210821382128267
:10300000158214826C5F7F4FC80129DEC801A89623
:10301000ECE00C941A37C080D180E280F38020E08D
:1030200030E0A901C701B6010E945E3820E030E01F
:1030300040E05FE387FD30C0C701B6010E94613701
:103040000E942D380E94A3354B015C01AC019B010D
:10305000C701B6010E9460379F772FE632E143E84F
:103060005AE30E949D3587FF1CC0F801118210822F
:103070001382128215821482C501B4010E942D3878
:103080002AE0AE014F5F5F4F0E942233BE016F5FA7
:103090007F4FC80181DDBACFC701B6010E946037FA
:1030A000CFCFB701A601CE01839680DD68E571E040
:1030B000CE010196E9DDBE016F5F7F4FCE018396A1
:1030C00063DCF82ECE010196E9DBFF2041F06FA111
:1030D00078A561507109CE01839606D9E7CF6AE5DC
:1030E00071E0CE010196D0DDBE016F5F7F4FCE0152
:1030F00083964ADCF82ECE010196D0DBFF2039F012
:103100006FA178A561507109CE018396EDD8F801C1
:10311000118210821382128215821482BE016D5DAB
:103120007F4FC8014FDBCE018396B8DB6FCF0F9383
:103130001F93CF93DF93D82FC62F61E00E94D70152
:1031400060E08C2F0E94D70160E08D2F0E94AA01C1
:1031500083E090E00197F1F761E08D2F0E94AA01D2
:1031600083E290E00197F1F760E08D2F0E94AA01C1
:10317000D0E0FE01E95DFD4F6491FE01EB5BFD4F88
:10318000E491F0E0EE0FFF1FE75FFD4F8591949112
:1031900000E315E720E030E0462F0E94062A611583
:1031A000710581059105B9F06F5F7F4F8F4F9F4F7C
:1031B0009F70611571058105910569F02AE330E082
:1031C00040E050E00E942F37CA01B901DF91CF9152
:1031D0001F910F91089520E030E0A901F5CFAFE8ED
:1031E000B0E0E5EFF8E10C94F836CB57DF4F998368
:1031F0008883C558D04080914004909141048C014F
:103200000F5F1F4F1093410400934004DDDE9801CF
:10321000280F311DC557DF4F39832883CB58D04045
:103220008E010B5F1F4F7E013DE5E30EF11C60E553
:1032300071E0C80129DD055F1F4F0E151F05B9F7A5
:10324000312C49E550E04C0F5D1F4C5F5F4FC1587A
:10325000DF4F59834883CF57D040C158DF4F588143
:10326000CF57D040C257DF4F5883CE58D040C058B8
:10327000DF4F8881C058D040C157DF4F8883CF5877
:10328000D0400091400410914104C557DF4FA88100
:10329000B981CB58D0400A171B0708F0CBC678017C
:1032A000BFEFEB1AFB0AF0924104E0924004C80120
:1032B0008BDE282EE1E08E1333C06E01F9E5CF0ED0
:1032C000D11C760124E0E20EF11C860180914004BD
:1032D000909141049C012F5F3F4F30934104209314
:1032E000400472DED6018D936D01EA16FB0671F77C
:1032F000F801608171818281938137E0331508F490
:10330000C0CF11E0130DAB01BC0181E090E08C0F48
:103310009D1FABE03A9E800D911D112495DC95C157
:10332000F2E08F136FC00E5F1F4F109341040093A4
:103330004004C70149DE182F60E571E0CE018359D2
:103340009F4FA2DC612F70E0CE0183599F4FB8DB05
:103350001123E1F080914004909141041150C55730
:10336000DF4F28813981CB58D0408217930770F402
:103370009C012F5F3F4F309341042093400424DE93
:10338000682FCE0183599F4FC3DBE2CF37E033155F
:10339000A0F160E571E0C158DF4F88819981CF5776
:1033A000D04072DC6D961CAE1DAE1EAE1FAE6D978A
:1033B000BE0163597F4FC158DF4F88819981CF5734
:1033C000D0404DDC81E0A4968FAFA49711E0130D9F
:1033D000BE01675A7F4F81E090E08C0F9D1F4BE04C
:1033E000349E800D911D112426DAC158DF4F88814B
:1033F0009981CF57D04052DA312ECE0183599F4F59
:103400004DDA3FCF53E0851312C00E5F1F4F10936C
:10341000410400934004C701D7DD883008F0D0C0D4
:1034200094E0899FF0011124E05EFB4F62CFA4E09D
:103430008A131CC00E5F1F4F109341040093400479
:10344000C701C2DD90E0B0E0A0E086309105A105A3
:10345000B10524F085E090E0A0E0B0E0825F0E943A
:103460006C02BC01990F880B990B46C0B5E08B1319
:1034700010C00E5F1F4F1093410400934004C7011A
:10348000A3DD182F60E00E94D701812F0E948201E6
:10349000E8CFE6E08E1317C00E5F1F4F1093410474
:1034A00000934004C70190DD182F60E00E94D7010F
:1034B000812F0E948201019709F082C060E070E0D4
:1034C00080E89FE31ACFF7E08F1319C0680122E06C
:1034D000C20ED11CD0924104C0924004C70174DDD9
:1034E000F82E0D5F1F4F1093410400934004C60156
:1034F0006BDD682F8F2D1BDE0E94A335FECE38E0DA
:1035000083132BC0680142E0C40ED11CD092410449
:10351000C0924004C70158DDB82E780153E0E50E93
:10352000F11CF0924104E0924004C6014DDDD82E1A
:103530000C5F1F4F1093410400934004C70144DD0A
:1035400093E19B1508F471C541E0811101C040E091
:103550006D2D8B2D0E94E70BD0CEA9E08A1318C0E9
:103560006801B2E0CB0ED11CD0924104C09240045D
:10357000C7012ADDF82E0D5F1F4F10934104009301
:103580004004C60121DD682F8F2D0E943A1169CFBA
:10359000EAE08E1319C000911E0410911F0401155A
:1035A000110571F0C8010E947B08D801ED91FC91D2
:1035B0000084F185E02DC8010995892B09F07ECFA3
:1035C00060E070E0CB0199CEBBE08B1340C0E7E038
:1035D000E31508F456CECE0183599F4FA5DB60E575
:1035E00071E0C158DF4F88819981CF57D0404CDBC3
:1035F0006D961CAE1DAE1EAE1FAE6D97BE0163591B
:103600007F4FC158DF4F88819981CF57D04027DB4A
:1036100081E0A4968FAFA49711E0130DBE01675A05
:103620007F4F81E090E08C0F9D1F329C800D911D9B
:10363000112401D9C158DF4F88819981CF57D040DB
:103640002DD9CE0183599F4F29D9312E1ACE14EF8F
:10365000D12ED80EF4E0FD1508F43FC0332009F454
:1036600010CE01E010E00C0F1D1F2BE0329E000D6C
:10367000111D11240B501109C8010E94FE0C0E945B
:103680002D387B0177FD26C0C8010E94FE0C6B9689
:103690001FAE1EAE6B973CE0231201C0D12CAE01D1
:1036A000475A5F4F6D2DC7010E94211340E050E043
:1036B000BA01882361F06B966EAD7FAD6B97072ED4
:1036C000000C880B990B0E94A335AB01BC01C8010B
:1036D000BBDAD7CDF12CE12CDACF4DE2841314C044
:1036E000332009F4CECD01E010E00C0F1D1F5BE08C
:1036F000359E000D111D11240B501109C8010E94A7
:10370000FE0C0E947413E1CF8FE22812AEC094E049
:10371000931508F003C5ABEF2A2E230C6E01A9E523
:10372000CA0ED11CF12CE12C8601A22CB12CBBE0DD
:103730009B2E95012E0D3F1D929EC001939E900DD4
:103740001124E1E0F0E0EC0FFD1F8E0F9F1F0E949F
:10375000FE0CD6016D937D938D939D936D01BFEF0C
:10376000EB1AFB0AE5E0EE16F10419F7D8015096C2
:103770002D913D914D915C915397C957DF4F28830F
:1037800039834A835B83C758D0401C96CD90DD9027
:10379000ED90FC901F9718962D913D914D915C9165
:1037A0001B97CF57DF4F288339834A835B83C158E8
:1037B000D04014968D909D90AD90BC9017974D90F1
:1037C0005D906D907C90A5019401CF57DF4F68818B
:1037D00079818A819B81C158D0400E949D35882380
:1037E000B1F1A5019401C301B2010E9460372B0120
:1037F0003C01A7019601C957DF4F688179818A8111
:103800009B81C758D0400E9460379B01AC01C30127
:10381000B2010E9402362B013C01A5019401CF5751
:10382000DF4F688179818A819B81C158D0400E9495
:1038300060379B01AC01C301B2010E94C5379B01F7
:10384000AC01C701B6010E9461376B017C01BCEF7E
:103850003B0EB701A60181E090E08C0F9D1FEBE0CD
:103860002E9E800D911D112433CFFAE22F1219C024
:10387000332009F406CD01E010E00C0F1D1F2BE0F2
:10388000329E000D111D11240B501109C8010E9418
:10389000E10C61E0682770E090E080E00E94A135D3
:1038A00014CF31E0331508F0ECCC3A94E32CF12C32
:1038B0004BE0349EC001112401E010E00C0F1D1FED
:1038C000080F191FD7011197CF57DF4FB983A8836E
:1038D000C158D0400B97CC24C394D12CCC0EDD1E04
:1038E000C80ED91EC6010E94FE0C4B015C01C80126
:1038F0000E94FE0C2B013C01BBE22B1287C0B801D9
:10390000CE0183599F4F6CDBB601CE0187589F4F84
:1039100067DBE5961FAE1EAEE597E7961FAE1EAEBF
:10392000E797E9961FAE1EAEE997BE0167587F4F35
:10393000CE018D589F4F93D9AF96EEACFFACAF97A9
:10394000E114F10409F45CC0E3960EAD1FADE397FA
:1039500001151105F9F0E9968EAD9FADE997080FB5
:10396000191FB801CE018D589F4FAAD8882309F49A
:1039700047C0E5962EAD3FADE597E9968EAD9FAD7C
:10398000E997B701820F931F0E94AF3AE9961FAFE4
:103990000EAFE99760E571E0C158DF4F88819981EA
:1039A000CF57D04071D96D961CAE1DAE1EAE1FAE66
:1039B0006D97BE016D587F4FC158DF4F8881998147
:1039C000CF57D0404CD981E0A4968FAFA497BE01C9
:1039D000675A7F4FC6010E941B14C158DF4F888170
:1039E0009981CF57D0400E944E14CE018D589F4FE1
:1039F0000E944E14CE0187589F4F0E944E14FDCC5A
:103A0000CE018D589F4F0E943C14C4CFECE22E1281
:103A1000BCC0C501B4010E942D388B016134710511
:103A200014F000E410E01016110614F001E010E0AC
:103A3000C301B2010E942D387B01061717070CF451
:103A400078011E141F041CF0EE24E394F12CCE0127
:103A500087589F4F69D9EF962EAD3FADEF9702176C
:103A600013070CF4980150E040E0BE0167587F4F07
:103A7000CE01875A9F4F19D9BE01675A7F4FCE0199
:103A800087589F4F0E94E213CE01875A9F4F0E9492
:103A90004E14EF968EAD9FADEF978E159F0508F4EF
:103AA0004EC0A701415051099701BE0167587F4F91
:103AB000CE0183599F4FF9D860E571E0C158DF4FBF
:103AC00088819981CF57D040DFD86D961CAE1DAE4E
:103AD0001EAE1FAE6D97BE0163597F4FC158DF4FB9
:103AE00088819981CF57D040BAD881E0A4968FAF12
:103AF000A49700E011E0BE01675A7F4FC6010E9403
:103B00001B14C257DF4F8881CE58D040C157DF4FBA
:103B10009881CF58D0400E944E14002329F0CE0146
:103B20008D589F4F0E944E14112329F0CE018359C6
:103B30009F4F0E944E14CE0187589F4F61CC60E585
:103B400071E0CE018D589F4F9FD860E571E0C1585C
:103B5000DF4F88819981CF57D04096D86D961CAEA3
:103B60001DAE1EAE1FAE6D97BE016D587F4FC15882
:103B7000DF4F88819981CF57D04071D881E0A496DA
:103B80008FAFA49701E010E0B6CFECEEE20DEB3181
:103B900008F0AEC1F0E0E153F24E0C94B538CB1E04
:103BA000D41EDB1EE21EF21E781F781F781F781FBE
:103BB000781F171F7B1FD01FDD1FEA1FF51F781FFF
:103BC000781F781F781F00200920781F781F781F22
:103BD000781FEA1DC501B4010E9474137B018C019A
:103BE000C301B2010E9474135B014C019B01AC0143
:103BF000B701C8010E949D3587FFBCC0CF57DF4F7A
:103C0000E882C158D040C957DF4FF882C758D0402A
:103C1000202EC357DF4F1883CD58D0409501A40103
:103C2000B701C8010E945E38181614F45701480104
:103C300080911A0490911B04A0911C04B0911D0462
:103C4000892B8A2B8B2B59F40E948102616060932F
:103C50001A0470931B0480931C0490931D0480919C
:103C60001A0490911B04A0911C04B0911D048C01B6
:103C70009D014DE0000F111F221F331F4A95D1F700
:103C8000082719272A273B27D901C80151E1B695F2
:103C9000A795979587955A95D1F7082719272A2729
:103CA0003B27D901C80165E0880F991FAA1FBB1FD8
:103CB0006A95D1F7082719272A273B2700931A046A
:103CC00010931B0420931C0430931D049927832F09
:103CD000722F612F0E94A13520E030E040E853E3CD
:103CE0000E9402362B013C01CF57DF4F2881C1587B
:103CF000D040C957DF4F3881C758D040422DC357F5
:103D0000DF4F5881CD58D040B501C4010E946037C3
:103D100020E030E040E85FE30E9461379B01AC01A6
:103D2000C301B2010E9402360E9462389B01AC01BD
:103D3000CF57DF4F6881C158D040C957DF4F7881D6
:103D4000C758D040822DC357DF4F9881CD58D040FF
:103D50000E9461377B018C019B01AC01B501C4015C
:103D60000E949D3587FF02C075018401A701B8013B
:103D7000C601AECCCF57DF4FA882C158D040C9573B
:103D8000DF4FB882C758D040282CC357DF4F9882E6
:103D9000CD58D04043CFAC019B01C501B4010E9476
:103DA00061377B018C01E2CFAC019B01C501B401FD
:103DB0000E946037F6CFAC019B01C501B4010E949F
:103DC0000236EFCF2CEA35EC47E257E39F770E94AB
:103DD0009D3587FD8DC0A3019201C501B4010E94EC
:103DE000C537DFCF0E942D382B013C01E12CF12C8F
:103DF00000E81FE314141504160417040CF0B6CFE2
:103E000040FE08C0A5019401B701C8010E94023616
:103E10007B018C01A5019401C501B4010E94023609
:103E20004B015C017594679457944794E3CF8BE002
:103E3000CF57DF4F28813981C158D040829FF00190
:103E4000839FF00D112441E050E04C0F5D1FE40F03
:103E5000F51F928591110AC08E9DF0018F9DF00D86
:103E60001124E40FF51F8285882399F1B801CE0152
:103E7000875A9F4FB5D8B601CE0183599F4FB0D80E
:103E8000E3962EAD3FADE3976F968EAD9FAD6F97E6
:103E90002817390759F4BE01675A7F4FCE0183595D
:103EA0009F4F0E944B2A61E0892B09F060E070E08F
:103EB00090E080E00E94A3357B018C01CE01835904
:103EC0009F4F0E944E14CE01875A9F4F0E944E145E
:103ED0004DCFA3019201C501B4010E9460379F77C5
:103EE0002CEA35EC47E257E30E949D3587FD55C02B
:103EF000E12CF12C6CC08BE0CF57DF4FA881B9814A
:103F0000C158D0408A9FF0018B9FF00D112421E011
:103F100030E02C0F3D1FE20FF31F928591110AC074
:103F20008E9DF0018F9DF00D1124E20FF31F82850D
:103F3000882321F1B801CE01875A9F4F51D8B6018D
:103F4000CE0183599F4F4CD8E3962EAD3FADE397FA
:103F50006F968EAD9FAD6F972817390759F4BE0144
:103F6000675A7F4FCE0183599F4F0E944B2A61E0D1
:103F7000892B09F060E081E0682799CFA3019201C5
:103F8000C501B4010E9460379F772CEA35EC47E207
:103F900057E30E945E3887FDABCFE12CF12C0AC0BD
:103FA000AC019B01C501B4010E949D35E12CF12CAF
:103FB00087FF0DC000E81FE3D9CEAC019B01C5010E
:103FC000B4010E949D35E12CF12C18169CF700E0FD
:103FD00010E0CCCEAC019B01C501B4010E945E385B
:103FE000E12CF12C18169CF7E5CFAC019B01C50123
:103FF000B4010E945E38E12CF12C87FDE8CFDACFC6
:10400000C6010E94E10C882349F0C8010E94E10C1E
:1040100005C0C6010E94E10C8823B9F3682F70E047
:1040200090E080E00E94A135BCCE60E070EC89E7B2
:1040300094EC63C9C557DF4FE881F981CB58D04074
:10404000F0934104E0934004CB57DF4F888199817E
:10405000C558D04004968E010F5F1F4F332009F4DE
:104060004BC0432D4150550B9A014BE0429FB0018C
:10407000439F700D11247801E60EF71ED7018D9035
:104080009D90AD90BC90CB57DF4FE881F981C5582A
:10409000D04080829182A282B382158214821782DC
:1040A0001682118610866C5F7F4F600F711F0E9411
:1040B0002F16D7011A968C91CB57DF4FE881F981E3
:1040C000C558D04082877E01B9E5EB0EF11CEBE0CC
:1040D000EE1AF108C70104960E944E140E151F0532
:1040E000B1F7CB57DF4F88819981C558D040C15770
:1040F000DF4FE2E10C94143760E571E00E94441652
:10410000CB57DF4FA881B981C558D0401D921D9271
:104110001D921C9213971A961C92D5CF51E05315FD
:1041200008F0AFC83A94FBE03F9E8001112468017B
:104130002BE0C21AD10841E050E04C0F5D1FC40EC5
:10414000D51EC6010E94FE0C81E090E08C0F9D1FE1
:10415000800F911F0E94FE0CCBCEA5E1B0E0E3EBF7
:10416000F0E20C94FA361092570310925803109212
:10417000590310925A0320918E02A0904E03B090E2
:104180004F03211104C0A0908C02B0908D02809149
:104190004004909141048A159B05B8F4E0904004D6
:1041A000F090410467012FEFC21AD20AD092410465
:1041B000C0924004C7010E94E417182F81111FC04C
:1041C000B0924104A092400416C01092490380911D
:1041D0008C0290918D02211103C021E020938E0268
:1041E000909341048093400420914E0330914F03FB
:1041F0008217930798F26596E0E10C9416378130A8
:10420000A9F5CE0101960E94EF18CE0101960E94F9
:10421000FE0C6B017C01CE0105960E944E1420E03D
:1042200030E0A901C701B6010E949D3587FF03C098
:10423000C12CD12C76010E94D7024B015C0120E0F9
:1042400030E04AE754E4C701B6010E9402360E94FA
:104250003238860E971EA81EB91E80925703909280
:104260005803A0925903B0925A03C5CF8EEF810F25
:104270008230F0F562E0E60EF11CF0924104E0922B
:104280004004C6010E94E417082FCE0101960E9447
:10429000EF18CE0101960E94FE0C6B017C01CE014D
:1042A00005960E944E14083008F0A5CF74E0079FD1
:1042B000C0011124123049F4805E9B4FDC01CD9285
:1042C000DD92ED92FC92139796CF8C01005E1B4F0E
:1042D000A7019601F80160817181828193810E941A
:1042E0006137D8016D937D938D939C93139783CF02
:1042F000143019F55701B2E0AB0EB11CB092410475
:10430000A0924004C6010E94E417182FE3E0EE0ECD
:10431000F11CF0924104E0924004C5010E94E417B0
:10432000082F61E0812F0E94D70161E0011101C0D7
:1043300060E0812F0E94AA015ECF153099F5F2E06E
:10434000EF0EF11CF0924104E0924004C6010E947D
:10435000E417182F61E00E94D701CE0101960E9458
:10436000EF18CE0101960E94FE0C6B017C01CE017C
:1043700005960E944E14C701B6010E942D386F3F6A
:1043800071058105910529F024F06FEF70E080E060
:1043900090E097FF03C060E070E0CB01812F0E94A6
:1043A000130229CF163009F042C087010E5F1F4F5C
:1043B0001093410400934004C6010E94E417D82ED4
:1043C00023E0E20EF11CF0924104E0924004C801A7
:1043D0000E94E417182FCE0101960E94EF18CE011B
:1043E00001960E94FE0C4B015C01CE0105960E94D5
:1043F0004E14C501B4010E942D386F3F710581052F
:10440000910529F024F06FEF70E080E090E06130DA
:10441000AFEF7A078A079A0724F461E07FEF8FEF06
:104420009FEFAB01612F8D2D0E94C510E4CE173098
:1044300009F041C0B2E0EB0EF11CF0924104E092B1
:104440004004C6010E94E4170E9412108C01CE01A4
:1044500001960E94EF18CE0101960E94FE0C6B019E
:104460007C01CE0105960E944E140115110509F438
:10447000C2CEC701B6010E942D3897FF0FC0D801E8
:10448000EC918E2F90E0FC01EE0FFF1FE80FF91F5B
:10449000EF5BFA4F80818F7B8083ADCE653B7105EA
:1044A0008105910524F064EB70E080E090E0C801A4
:1044B0000E943609A0CE183009F06DC0B2E0EB0EB4
:1044C000F11CF0924104E0924004C6010E94E417FE
:1044D000182FCE0101960E94EF18CE0101960E947E
:1044E000FE0C6B017C01CE0105960E944E14C701A3
:1044F000B6010E942D386B017C01E1E2CE16EEE49C
:10450000DE06E104F10434F050E2C52E5EE4D52E5F
:10451000E12CF12CF4E1CF16D104E104F1042CF4E8
:1045200044E1C42ED12CE12CF12CCE0101960E9445
:10453000EF18CE0101960E94FE0C4B015C01CE01EA
:1045400005960E944E1420E030E0A901C501B40197
:104550000E949D3587FF03C0812C912C540120E0DF
:1045600030E04AE754E4C501B4010E9402360E94DB
:1045700032389B01AC0110930D0121153105410525
:10458000510521F421E030E040E050E0B601812FF8
:104590000E94210330CE193069F422E0E20EF11CB2
:1045A000F0924104E0924004C6010E94E4170E9488
:1045B000F50221CE1A3039F5570162E0A60EB11C82
:1045C000B0924104A0924004C6010E94E417D82E84
:1045D00087010D5F1F4F1093410400934004C501F4
:1045E0000E94E417C82E74E0E70EF11CF09241041B
:1045F000E0924004C8010E94E417482F6C2D8D2DD5
:104600000E94DF11F8CD1B3009F065C0CE01019684
:104610000E94EF18CE0101960E94FE0C6B017C01F6
:10462000CE0105960E944E14CE0101960E94EF180D
:10463000CE0101960E94FE0C4B015C01CE01059655
:104640000E944E14CE0101960E94EF18BE016F5FCA
:104650007F4FCE010C960E94F017CE0105960E9466
:104660004E1480914D03882389F1C701B6010E9441
:104670002D386B017C0184E0C816D104E104F104FB
:104680002CF033E0C32ED12CE12CF12CF7FE03C02B
:10469000C12CD12C7601C501B4010E942D38DC015A
:1046A000CB0184319105A105B10524F083E190E0AF
:1046B000A0E0B0E0B7FF03C080E090E0DC016C2D2B
:1046C0000E94C011CE010C960E94A511CE010C963D
:1046D0000E944E1490CD1C3019F40E94D3118BCD42
:1046E0001D31D1F487010E5F1F4F109341040093D9
:1046F0004004C6010E94E417D82EA3E0EA0EF11C84
:10470000F0924104E0924004C8010E94E417682F2F
:104710008D2D0E94910F6FCD1E3109F059C0CE0131
:1047200001960E94EF18CE0101960E94FE0C6B01CB
:104730007C01CE0105960E944E14CE0101960E9486
:10474000EF18CE0101960E94FE0C4B015C01CE01D8
:1047500005960E944E14CE0101960E94EF18BE01EC
:104760006F5F7F4FCE010C960E94F017CE01059629
:104770000E944E14C701B6010E942D386B017C01C6
:10478000B8E0CB16D104E104F1042CF027E0C22EEE
:10479000D12CE12CF12CF7FE03C0C12CD12C7601D9
:1047A000C501B4010E942D38603171058105910564
:1047B00024F06FE070E080E090E097FF03C060E0DD
:1047C00070E0CB014C2DCE010C960E94820E7ECF64
:1047D0001F3119F40E94620F0ECD1032C9F4E2E0CD
:1047E000EE0EF11CF0924104E0924004C6010E94DA
:1047F000E417873008F086E0682F70E08DE20E94B1
:1048000004116CE271E080E090E00E94A602F3CC1B
:104810001D3009F063C0F2E0EF0EF11CF09241048C
:10482000E0924004C6010E94E417B82ECE01019622
:104830000E94EF18CE0101960E94FE0C6B017C01D4
:10484000CE0105960E944E14C701B6010E942D3874
:104850006B017C012DE3C216D104E104F1042CF0BC
:104860009CE3C92ED12CE12CF12C1C141D041E0438
:104870001F0424F0C12CD12C7601C39400914A036B
:1048800010914B030115110589F0D80119968D91EE
:104890009C910E945739F8018681978197FD03C04A
:1048A00060E00E94D701C8010E94573986E190E07C
:1048B0000E94BB388C014B2D50E0B6010E948B1337
:1048C00010934B0300934A03C8010E945707C80185
:1048D0000E948113C8010E9499068DCC1E3009F0F8
:1048E00059C0CE0101960E94EF18CE0101960E9498
:1048F000FE0C6A8B7B8B8C8B9D8BCE0105960E9468
:104900004E14CE0101960E94EF18CE0101960E942E
:10491000FE0C6B017C01CE0105960E944E14CE0167
:1049200001960E94EF18CE0101960E94FE0C4B01E9
:104930005C01CE0105960E944E14CE0101960E94A4
:10494000EF18CE0101960E94FE0C2B013C01CE0116
:1049500005960E944E14C301B2010E942D382B010E
:104960003C01C501B4010E942D384B015C01C70117
:10497000B6010E942D386B017C016A897B898C8984
:104980009D890E942D38CB019201A401B6010E949D
:104990009B0D31CC1F3049F400914A0310914B0319
:1049A0000115110509F093CF26CC103109F03FC055
:1049B00087010E5F1F4F1093410400934004C6010E
:1049C0000E94E417B82EF3E0EF0EF11CF0924104C0
:1049D000E0924004C8010E94E417182FCE0101960E
:1049E0000E94EF18CE0101960E94FE0C6B017C0123
:1049F000CE0105960E944E14612F8B2D0E945614F5
:104A0000882309F4F8CBC701B6010E942D386F3115
:104A100071058105910524F06EE170E080E090E081
:104A200097FF03C060E070E0CB0186E01EC011314B
:104A3000F9F4CE0101960E94EF18CE0101960E9472
:104A4000FE0C6B017C01CE0105960E944E14C7013D
:104A5000B6010E942D38161617061806190624F0FE
:104A600061E070E080E090E083E00E94AC0FC3CB97
:104A7000123179F4CE0101960E94EF18CE01019611
:104A80000E94FE0C6B017C01CE0105960E944E1423
:104A9000BACF70E060E086E1133139F3143109F0E8
:104AA0005BC087010E5F1F4F1093410400934004C9
:104AB000C6010E94E417D82E23E0E20EF11CF0920A
:104AC0004104E0924004C8010E94E417C82E0FD5AB
:104AD0008C01E0901E04F0901F04E114F10431F009
:104AE000C7010E946308C7010E9457398FE190E017
:104AF0000E94BB387C01DC0113961C921E92129717
:104B000088EE93E0A0E0B0E0F70184839583A6836C
:104B1000B7838CE191E091838083178A168A118E86
:104B2000108E138E128E158E148E868D8E7F8D7F35
:104B3000868F6C2DC7010E943C086D2DC7010E9415
:104B40001508F0921F04E0921E04A80170E060E0D6
:104B5000C7010E94AC084FCB153111F500911E041E
:104B600010911F0401151105C9F1C8010E947B08AD
:104B7000CE0101960E94EF18BE016F5F7F4FCE01FC
:104B80000C960E94F017BE01645F7F4FC8010E941F
:104B90003C15CE010C960E944E14CE01059698CD80
:104BA0001B3109F500911E0410911F040115110518
:104BB000A9F0C8010E947B08CE0101960E94EF185F
:104BC000BE016F5F7F4FCE010C960E94F017BE01B1
:104BD000645F7F4FC8010E946605DBCFCE0101965E
:104BE0000E94EF18DACF1C3111F5F2E0EF0EF11C44
:104BF000F0924104E0924004C6010E94E417182F8D
:104C0000CE0101960E94EF18BE016F5F7F4FCE016B
:104C10000C960E94F017612FCE010C960E94900B0B
:104C2000CE010C960E944E14CE01059651CD163140
:104C3000C9F46AEB71E088E994E00E947505CE0141
:104C400001960E94EF18BE016F5F7F4FCE010C9658
:104C50000E94F017BE01645F7F4F88E994E00E94D4
:104C60003C15DECF173131F442D490934104809348
:104C70004004C1CA183189F4CE0101960E94EF1890
:104C8000CE0101960E94E10C182FCE0105960E94DC
:104C90004E142DD41111AFCAE8CF1931A1F5CE01B0
:104CA00001960E94EF18CE0101960E94FE0C0E9410
:104CB0002D386B017C01CE0105960E944E1417D44D
:104CC0009C011C141D041E041F042CF0309341048D
:104CD0002093400490CA909149039430B8F726E09D
:104CE000929FF0011124EC58FD4F20914004309127
:104CF000410431832083C282D382E482F5829F5FA4
:104D00009093490378CA1A3131F5F1D39C019091FF
:104D10004903992309F46FCA692F6150770B86E024
:104D2000869FF001879FF00D1124EC58FD4F4281C2
:104D30005381648175814150510961097109428330
:104D400053836483758314161506160617060CF430
:104D5000BDCF9150D5CF10925B034DCA009719F08B
:104D60000E94DB32BC01CB0108951F920F920FB657
:104D70000F9211242F933F938F939F93AF93BF93E1
:104D80008091120490911304A0911404B091150421
:104D90003091110423E0230F2D3758F50196A11D02
:104DA000B11D209311048093120490931304A093D7
:104DB0001404B09315048091160490911704A091E7
:104DC0001804B09119040196A11DB11D8093160419
:104DD00090931704A0931804B0931904BF91AF9156
:104DE0009F918F913F912F910F900FBE0F901F9029
:104DF000189526E8230F0296A11DB11DD2CF1F9250
:104E00000F920FB60F9211242F933F934F935F93FE
:104E10006F937F938F939F93AF93BF93EF93FF9382
:104E20008091450390914603A0914703B0914803B8
:104E3000892B8A2B8B2BD1F190914403E091420373
:104E4000F09143038081892780838091450390916D
:104E50004603A0914703B0914803181619061A0695
:104E60001B069CF48091450390914603A091470353
:104E7000B09148030197A109B1098093450390932C
:104E80004603A0934703B0934803FF91EF91BF916E
:104E9000AF919F918F917F916F915F914F913F91D2
:104EA0002F910F900FBE0F901F90189580910C01BD
:104EB0000E94F502EACF1F920F920FB60F921124B3
:104EC0002F933F934F935F936F937F938F939F9312
:104ED000AF93BF93EF93FF9388E994E00E94090694
:104EE000FF91EF91BF91AF919F918F917F916F91C2
:104EF0005F914F913F912F910F900FBE0F901F9098
:104F000018951F920F920FB60F9211242F938F9323
:104F10009F93EF93FF93E091A804F091A9048081FF
:104F2000E091AE04F091AF0482FD1BC090818091AE
:104F3000B1048F5F8F732091B204821741F0E0912A
:104F4000B104F0E0E856FB4F958F8093B104FF91D8
:104F5000EF919F918F912F910F900FBE0F901F9007
:104F600018958081F4CF1F920F920FB60F921124E3
:104F70002F933F934F935F936F937F938F939F9361
:104F8000AF93BF93EF93FF93E0913603F091370314
:104F9000309749F0A685B7858585968D91FF14C019
:104FA0009C918923A1F4FF91EF91BF91AF919F91C3
:104FB0008F917F916F915F914F913F912F910F90C2
:104FC0000FBE0F901F9018959C91892361F7A389BC
:104FD000B4899C918589809589238C93868997894A
:104FE0000197F1F7608D718DA685B785558538E0FD
:104FF00020E0CB010197F1F7822F90E095958795FE
:10500000282F4C91452309F02068315091F7868D67
:1050100081FD20958091340390E001968F7399274C
:1050200030913503381799F0A0913403B0E0AC50BB
:10503000BD4F2C9380933403828D938D0197F1F7AC
:10504000A389B4898C919589892B8C93ACCF868D5B
:105050008160868FF1CF1F920F920FB60F921124AD
:105060002F933F934F935F936F937F938F939F9370
:10507000AF93BF93CF93DF93EF93FF938091F302AE
:10508000C0916505D0E087FF24C010928500109282
:1050900084008091F3028F5F8093F3028091F3028A
:1050A000082E000C990B8C179D0724F48091F302B5
:1050B0008C30C4F1809184009091850004968034F6
:1050C0009C4908F47AC080918400909185000496F0
:1050D00076C08091F302082E000C990B8C179D0767
:1050E000C4F6E091F3028E2FEE0F990BFC01EE0F48
:1050F000FF1FE80FF91FEF5BFA4F808186FFC9CFD2
:10510000E091F3028E2FEE0F990BFC01EE0FFF1FC3
:10511000E80FF91FEF5BFA4F808160E08F730E9408
:10512000AA01B7CF2091840030918500E091F3026D
:105130008E2FEE0F990BFC01EE0FFF1FE80FF91FEA
:10514000EF5BFA4F81819281820F931F90938900C8
:1051500080938800E091F3028E2FEE0F990BFC01F3
:10516000EE0FFF1FE80FF91FEF5BFA4F808186FFFC
:1051700011C0E091F3028E2FEE0F990BFC01EE0FA0
:10518000FF1FE80FF91FEF5BFA4F808161E08F731B
:105190000E94AA01FF91EF91DF91CF91BF91AF9152
:1051A0009F918F917F916F915F914F913F912F913F
:1051B0000F900FBE0F901F90189580E49CE990937C
:1051C0008900809388008FEF8093F302E3CF1F92D2
:1051D0000F920FB60F9211242F933F934F935F932B
:1051E0006F937F938F939F93AF93BF93EF93FF93AF
:1051F0008091B900887F803609F44AC0F0F5883282
:1052000009F4A7C018F5803109F49BC0B8F48823CD
:1052100009F4F9C0883009F494C0FF91EF91BF916F
:10522000AF919F918F917F916F915F914F913F913E
:105230002F910F900FBE0F901F901895883109F491
:1052400088C0803251F780936C0414C0803409F414
:105250009DC040F48033B9F38833F9F680936C0431
:1052600085ECB0C0803509F485C0883509F496C056
:10527000883499F60E942017D0CF883909F48CC061
:1052800038F5883729F050F4883611F0803729F640
:1052900083E080936E041092F20257C0883809F4BC
:1052A0007BC0803919F0803809F0B7CF8091F202C5
:1052B000803208F071C0E091F20281E08E0F80939D
:1052C000F2028091BB00F0E0EE52FD4F80833DC0C2
:1052D000803B39F0E0F4803A09F479C0883A09F06B
:1052E0009CCF84E080936E041092D1021092D00281
:1052F000E0914404F091450409958091D002811118
:105300000FC081E08093D0021092B00209C0803CAF
:1053100009F4A6CF883C09F4A3CF883B09F07DCFE0
:10532000E091D10281E08E0F8093D102F0E0E05550
:10533000FD4F80818093BB009091D1028091D0027B
:1053400029C0809149048093BB0085EC8093BC0008
:1053500064CF90916B0480916A04981758F5E0919E
:105360006B0481E08E0F80936B04F0E0E65BFB4FF3
:105370008081E9CFE0916B0481E08E0F80936B0414
:105380008091BB00F0E0E65BFB4F808390916B0463
:1053900080916A049817C8F285E8D8CFE0916B0431
:1053A00081E08E0F80936B048091BB00F0E0E65BA0
:1053B000FB4F808380916D0481115CCF81E08093ED
:1053C000480484EA8093BC0010926E0426CF85ECDA
:1053D0008093BC0010926E048091F202803230F40F
:1053E000E091F202F0E0EE52FD4F10826091F20285
:1053F00070E0E0914204F091430482ED92E009955F
:105400001092F2020ACF10926C0434CFCF92DF9246
:10541000EF92FF920F931F93E82FF92F05C00150D1
:1054200011092109310961F1908196239417B9F38B
:1054300005C0015011092109310911F1908196230C
:105440009413F7CFC12CD12CE12CF12C0AC08FEF93
:10545000C81AD80AE80AF80A0C151D052E053F05DA
:1054600079F080818623841791F36C2D7D2D8E2D0C
:105470009F2D1F910F91FF90EF90DF90CF90089597
:1054800060E070E080E090E01F910F91FF90EF905E
:10549000DF90CF900895CF93DF93EC01A881B9817D
:1054A000EB01E881F9811097E9F03097B1F4EC0154
:1054B0008C819D81892BC1F08C9190E00BC0DB0128
:1054C00014968D919C91892B79F0808190E0919533
:1054D00081959109DF91CF910895BF01CD010E947F
:1054E000A63AF8CF309759F790E080E0F3CFEF92EB
:1054F000FF920F931F93CF93DF93C0914004D091FD
:1055000041047E012FEFE21AF20AF0924104E09288
:105510004004CE010E94E417082F10E02296D09399
:105520004104C0934004C7010E94E4179801382B3E
:10553000C901CDB7DEB7E6E00C94203710929B048A
:1055400010929A0488EE93E0A0E0B0E080939C046F
:1055500090939D04A0939E04B0939F042EE231E0AB
:10556000309399042093980425EC30E03093A504FF
:105570002093A40424EC30E03093A7042093A604E5
:1055800020EC30E03093A9042093A80421EC30E013
:105590003093AB042093AA0422EC30E03093AD04A6
:1055A0002093AC0426EC30E03093AF042093AE049B
:1055B0001092B1041092B2041092B3041092B40489
:1055C00010923805109237058093390590933A056B
:1055D000A0933B05B0933C0580E491E090933605A1
:1055E00080933505E6E6F5E022E735E04FEF68EB1E
:1055F0007BE0809165058C30B0F491E0980F90933A
:105600006505808390E0DC01AA0FBB1FA80FB91FBE
:10561000AF5BBA4F12967C936E93119733962E1709
:105620003F0739F708954083F9CFA4E2B0E0EBE1FA
:10563000FBE20C94F836789484B5826084BD84B51E
:10564000816084BD85B5826085BD85B5816085BD7D
:1056500080916E00816080936E0010928100809135
:1056600081008260809381008091810081608093BD
:105670008100809180008160809380008091B100E2
:1056800084608093B1008091B00081608093B0000D
:1056900080917A00846080937A0080917A008260A1
:1056A00080937A0080917A00816080937A00809163
:1056B0007A00806880937A001092C100E091A8047B
:1056C000F091A90482E08083E091A404F091A50404
:1056D0001082E091A604F091A70480E180831092EB
:1056E000B004E091AC04F091AD0486E08083E091D9
:1056F000AA04F091AB04808180618083E091AA04C8
:10570000F091AB04808188608083E091AA04F091DD
:10571000AB04808180688083E091AA04F091AB049F
:1057200080818F7D80836EE571E080E090E00E9453
:10573000A6020E944F150E946D17E8EE8E2EE3E040
:105740009E2EA12CB12C7CE1272E71E0372E88E90A
:1057500094E00E94EB05892B09F4E7C688E994E000
:105760000E94C9058D3099F3E09110048A3009F048
:10577000D0C6AE2FB0E0A45ABC4F1C92EE2351F01D
:105780006CE571E08CE593E00E94A63A892B29F440
:105790000E944F1510921004DACF61E671E08CE59B
:1057A00093E026D77C0161E671E090E080E020D7AD
:1057B0008C01E114F10471F3892B61F363E671E06C
:1057C000C7010E94A63A892B09F07CC161E671E00D
:1057D00090E080E00DD77C016E0122E1C20ED11C69
:1057E000712C61E671E090E080E002D7D6018D93E4
:1057F0009D936D01892B21F07394B6E07B12F1CF5C
:10580000E114F10439F265E671E0C7010E94A63A9D
:10581000892BD1F47720C1F070E060E08A899B8900
:105820009DDAF82E60E00E94D7018F2D0E94820140
:10583000BC01990F880B990B0E94A335AB01BC01E9
:10584000C8010E94F915A6CF66EC71E0C7010E945D
:10585000A63A892BA1F4772091F070E060E08A8964
:105860009B897CDA97FD07C08630910534F4825F0E
:105870000E946C02DDCF8EE0FBCF83E1F9CF68E6BA
:1058800071E0C7010E94A63A892BB1F47720A1F0FC
:1058900070E060E08A899B8961DAF82E60E00E94FE
:1058A000D7018F2D0E948201019709F0AEC040E020
:1058B00050E060E87FE3C4CF6FE671E0C7010E946B
:1058C000A63A892B91F4E1E0E71578F470E060E006
:1058D0008C899D8943DAF82E70E060E08A899B8983
:1058E0003DDA6F2D0E949718A7CF65E771E0C701D9
:1058F0000E94A63A892B91F4F1E0F71578F470E054
:1059000060E08C899D892ADAF82E70E060E08A894F
:105910009B8924DA6F2D0E943A118ACF6AE771E0E1
:10592000C7010E94A63A892B29F522E0271510F518
:1059300070E060E08A899B8911DAD82E70E060E01F
:105940008E899F890BDA7C0170E060E08C899D89EB
:1059500005DA93E140E050EC69E774EC9D1508F43A
:105960006FCF41E0EF2809F440E0682F8D2D0E94B1
:10597000E70B64CF6EE771E0C7010E94A63A892B5E
:1059800041F5A1E0A71528F51A82198270E060E0C0
:105990008C899D89E3D9F12C97FD05C0F82E0597D8
:1059A00014F064E0F62E70E060E08A899B89D6D915
:1059B00097FF02C090E080E0AE014F5F5F4F6F2D18
:1059C0000E94211369817A81072E000C880B990BA4
:1059D00033CF64E871E0C7010E94A63A892BC9F46D
:1059E000E0901E04F0901F04E114F10471F0C7016F
:1059F0000E947B08D701ED91FC910084F185E02D98
:105A0000C7010995892B09F052CF40E050E0BA0157
:105A100017CF6CE871E0C7010E94A63A892BA9F75D
:105A2000CE014E960E94941660EC71E088E994E0F5
:105A30000E947505B80188E994E00E94E4148CE2A4
:105A40000E94750681E1E3E5F2E0DE011196019026
:105A50000D928A95E1F710E000E08AA19BA108175A
:105A6000190728F5B801CE014E960E94E302F82EE0
:105A7000E82FF0E054E0F595E7955A95E1F781E0DD
:105A800090E08C0F9D1FE80FF91F80810E94750622
:105A9000EF2DEF70A1E0B0E0AC0FBD1FAE0FB11D58
:105AA000FD0180810E9475060F5F1F4FD6CF6EE407
:105AB00071E088E994E00E94E414CE014E960E94C1
:105AC0004E1468CE63E971E0C7010E94A63A892BA3
:105AD00009F0CAC3FE0131966F01F12C61E671E055
