:100000002DC1000053C1000051C100000C94A52E69
:100010000C94A52E0C94A52E49C100000C94F12D32
:1000200045C1000043C1000041C100000C941D2FD8
:100030003DC100003BC1000039C1000037C10000D4
:100040000C94A72D33C100000C94732E0C944D2EEC
:100050002DC100002BC1000029C1000027C10000F4
:100060000C94D92F23C1000000407A10F35A00A04D
:10007000724E18090010A5D4E80000E87648170071
:1000800000E40B54020000CA9A3B000000E1F505B1
:10009000000080969800000040420F000000A086FB
:1000A00001000000102700000000E803000000002D
:1000B0006400000000000A000000000001000000D1
:1000C00000002C76D888DC674F0823DFC1DFAE59EB
:1000D000E1B1B796E5E3E453C63AE651997696E87E
:1000E000E6C28426EB898C9B62ED407C6FFCEFBC02
:1000F0009C9F40F2BAA56FA5F490055A2AF75C932D
:100100006B6CF9676DC11BFCE0E40D47FEF520E662
:10011000B500D0ED902E0300943577050080841E45
:10012000080000204E0A000000C80C333333330FA0
:10013000986E12831141EF8D2114893BE65516CF3D
:10014000FEE6DB18D1844B381BF77C1D901DA4BB49
:10015000E424203284725E228100C9F124ECA1E5FE
:100160003D2752454144592C4F4D2C00562C00AE92
:10017000D580A83FD300408D142002A1C8DA128197
:10018000CFD9F1DB40A4A6AF1F111F001F001D1522
:100190001715151F07041F17151D1F151D01011F1A
:1001A0001F151F17151F41542B4E414D45000D0AB9
:1001B0000041542B4E414D453D004F4B004552529E
:1001C000004F4B0053415645442C0050524F47526C
:1001D000414D5F444154412C0050524F4752414DD4
:1001E0005F5245414459004C4F472C004D50335FFE
:1001F000524541445900542C004C4F472C000200FA
:10020000000000240027002A000000000023002630
:10021000002900000000080002010000030407009C
:1002200000000000000000010204081020408001CE
:10023000020408102001020408102000000000251C
:100240000028002B00040404040404040402020235
:10025000020202030303030303008F3111241FBEB4
:10026000CFEFD8E0DEBFCDBF12E0A0E0B1E0E4E820
:10027000F6E702C005900D92A636B107D9F725E042
:10028000A6E6B2E001C01D92AB3FB207E1F711E074
:10029000CEE2D1E004C02197FE010E943F39CD3269
:1002A000D107C9F70E9406320C94403BA9CE0895AD
:1002B0000895833081F028F4813099F08230A9F0DC
:1002C00008958730A9F08830C9F08430B1F4809166
:1002D00080008F7D03C0809180008F7780938000A5
:1002E000089584B58F7784BD089584B58F7DFBCF45
:1002F0008091B0008F778093B00008958091B00016
:100300008F7DF9CFCF93DF93282F30E0F901ED5E99
:10031000FD4F8491F901E95DFD4FD491F901EB5B4B
:10032000FD4FC491CC2399F08111C3DFEC2FF0E095
:10033000EE0FFF1FE75FFD4FA591B491EC91ED2308
:1003400081E090E009F480E0DF91CF91089580E0B2
:1003500090E0FACF1F93CF93DF93282F30E0F9017D
:10036000ED5EFD4F8491F901E95DFD4FD491F901F6
:10037000EB5BFD4FC491CC23A1F0162F811199DFC7
:10038000EC2FF0E0EE0FFF1FE55CFD4FA591B4915F
:100390008FB7F894EC91111108C0D095DE23DC934F
:1003A0008FBFDF91CF911F910895DE2BF8CFCF93B0
:1003B000DF9390E0FC01E95DFD4F24918B5B9D4F45
:1003C000FC0184918823C9F090E0880F991FFC01FB
:1003D000E150FE4FA591B491FC01E55CFD4FC59144
:1003E000D49161110DC09FB7F8948C912095822310
:1003F0008C938881282328839FBFDF91CF91089514
:10040000623051F49FB7F8943C91822F80958323FA
:100410008C93E8812E2BEFCF8FB7F894EC912E2B95
:100420002C938FBFEACF1F93CF93DF93182FEB014D
:1004300061E0BDDF209739F460E0812F8BDFDF9131
:10044000CF911F910895CF3FD10511F461E0F5CF11
:10045000E12FF0E0ED5EFD4FE491E33019F140F45F
:10046000E130B1F0E230C9F0C038D1057CF7E4CF1B
:10047000E73011F1E83041F1E430B1F780918000CC
:10048000806280938000D0938B00C0938A00D7CF86
:1004900084B5806884BDC7BDD2CF84B5806284BD79
:1004A000C8BDCDCF80918000806880938000D093BC
:1004B0008900C0938800C3CF8091B000806880938A
:1004C000B000C093B300BBCF8091B0008062809336
:1004D000B000C093B400B3CF8E3008F08E50877058
:1004E000806480937C0080917A00806480937A009D
:1004F00080917A0086FDFCCF809178009091790000
:1005000008953FB7F8948091990490919A04A0912E
:100510009B04B0919C0426B5A89B05C02F3F19F001
:100520000196A11DB11D3FBFBA2FA92F982F882773
:10053000BC01CD01620F711D811D911D42E0660F4E
:10054000771F881F991F4A95D1F708958F929F9220
:10055000AF92BF92CF92DF92EF92FF926B017C013C
:10056000D0DF4B015C01C114D104E104F104B1F00E
:10057000C8DF681979098A099B09683E73408105BB
:10058000910588F321E0C21AD108E108F10888EE4C
:10059000880E83E0981EA11CB11CE5CFFF90EF9060
:1005A000DF90CF90BF90AF909F908F9008952FB71E
:1005B000F8946091950470919604809197049091BD
:1005C00098042FBF0895FC012481358162177307B9
:1005D00048F480819181009729F0860F971FFC01D4
:1005E0008081089580E00895089590910D01891308
:1005F0000BC0EEEFF1E0E4919FEF90930D01E1303D
:1006000049F028F0E23061F060E0A4CE0895109245
:100610006E00FACF90916F009D7F90936F00F4CFA2
:10062000909170009D7F9093700091E09093B00046
:100630009091B100987F94609093B1001092B300B4
:10064000E3CFA5E0B0E0E7E2F3E00C9484378B0160
:1006500029013A0190910D01891739F09F3F09F462
:100660006BC02596E0E10C94A037EEEFF1E0949199
:100670009D8397FDF6CF61E09ADE8D81882321F07E
:100680009D81923009F049C14801B12CA12C60E054
:1006900072E18AE790E0A50198010E94563729830C
:1006A0003A834B835C8369017A0181E0C81AD108DF
:1006B000E108F1089FEFC916D104E104F10409F043
:1006C0000CF400C160E472E48FE090E0A5019801B1
:1006D0000E94563769017A0181E0C81AD108E10801
:1006E000F1089D81923009F0A1C08FEFC816D104A6
:1006F000E104F10409F00CF4E7C160E970ED83E076
:1007000090E0A50198010E94563769017A0191E0B5
:10071000C91AD108E108F1088FEFC816D104E10425
:10072000F10411F00CF080C183E09091B100987F4A
:10073000892B8093B100CEC080930D01EEEFF1E0E4
:1007400094919D839F3F09F48CCF913039F148F00B
:10075000923009F445C09D8197FD83CF61E027DE8B
:100760008FCF14BC15BC94B5926094BD95B59160C3
:1007700095BD282F30E0F901EB5BFD4FE491F0E0EF
:10078000EE0FFF1FE55CFD4F45915491F901E95DC6
:10079000FD4FE491E09349031D826DCF10928000DC
:1007A00010928100909181009860909381009091C7
:1007B0008100916090938100282F30E0F901EB5B7C
:1007C000FD4FE491F0E0EE0FFF1FE55CFD4F45911A
:1007D0005491F901E95DFD4FE491E09348034BCF5B
:1007E0001092B0001092B1009091B000926090937E
:1007F000B0009091B10091609093B100282F30E04B
:10080000F901EB5BFD4FE491F0E0EE0FFF1FE55CBB
:10081000FD4F459154915093530340935203F90176
:10082000E95DFD4FE491E093540325CF9FEFC91696
:10083000D104E104F10409F00CF46DC068E478EE31
:1008400081E090E0A50198010E94563769017A0184
:1008500081E0C81AD108E108F1089D81992309F4C3
:10086000FCC08FEFC816D104E104F10411F00CF0C4
:10087000FDC0F1C064E274EF80E090E0A501940156
:100880000E94563769017A0181E0C81AD108E1084F
:10089000F10885E09FEFC916D104E104F10409F0E5
:1008A00008F443CF62E17AE780E090E0A50194018B
:1008B0000E94563769017A0181E0C81AD108E1081F
:1008C000F108E7C081E09D8191112FCF95B5987F08
:1008D000892B85BD2FEF3FEFA9014114510461041D
:1008E000710409F045C09D81913009F460C09230D7
:1008F00009F46FC09111B5CEC7BC20934E0330935D
:100900004F03409350035093510380916E008260D7
:1009100080936E00A6CE82E0D6CF4801B12CA12CE8
:1009200060E072E18AE790E0A50198010E945637E5
:1009300069017A0181E0C81AD108E108F108C114FF
:10094000D10491E0E906F1040CF591E08D8181304C
:1009500009F0C0CF80918100887F892B809381002E
:100960002FEF3FEFA9014114510461047104F9F024
:10097000D801AA0FBB1FA30192010E94723728EE73
:1009800033E040E050E00E94B937ADCF68E478EE44
:1009900081E090E0A50198010E94563769017A0133
:1009A00081E0C81AD108E108F10893E0CFCFD092D6
:1009B0008900C092880020934A0330934B034093F0
:1009C0004C0350934D0380916F00826080936F00C1
:1009D00048CEC092B3002093550330935603409302
:1009E0005703509358038091700082608093700089
:1009F00038CE84E09FEFC916D104E104F10409F078
:100A000008F464CFC980DA80EB80FC808AE0F5943A
:100A1000E794D794C7948A95D1F781E0C81AD10892
:100A2000E108F10885E052CF68E478EE81E090E0DB
:100A3000A50198010E94563769017A0181E0C81A20
:100A4000D108E108F1089FEFC916D104E104F104CF
:100A500011F00CF00FCF84E068CE83E09FEFC91651
:100A6000D104E104F10409F00CF430CF62E17AE73B
:100A700080E090E0A50194010E94563769017A0157
:100A800081E0C81AD108E108F1089D81992309F491
:100A9000B0CF86E09FEFC916D104E104F10409F05C
:100AA00008F443CEC980DA80EB80FC809AE0F594AC
:100AB000E794D794C7949A95D1F781E0C81AD108E2
:100AC000E108F10887E031CE82E02FCEDC01ED9124
:100AD000FC910190F081E02D09950895DB011496B9
:100AE0004D915C9115976D917C91DC01ED91FC919C
:100AF0000280F381E02D09950895EF92FF920F9304
:100B00001F93CF93DF938C017B01D0E0C0E0F7010E
:100B1000EC0FFD1F6491662361F0D801ED91FC910B
:100B20000190F081E02DC8010995892B11F02196E3
:100B3000EECFCE01CDB7DEB7E6E00C94AA37B0E039
:100B4000A0E0E5EAF5E00C948A376C017B018B01AB
:100B5000040F151FEB015E01AE18BF08C017D107C7
:100B600059F06991D601ED91FC910190F081E02D51
:100B7000C6010995892B79F7C501CDB7DEB7EAE043
:100B80000C94A637FC01538D448D252F30E0842F23
:100B900090E0821B930B541710F0CF9608950197A5
:100BA0000895FC01918D828D981761F0A28DAE0F92
:100BB000BF2FB11D5D968C91928D9F5F9F73928F19
:100BC00090E008958FEF9FEF0895FC01918D828D45
:100BD000981731F0828DE80FF11D858D90E0089512
:100BE0008FEF9FEF0895FC01918D228D892F90E06A
:100BF000805C9F4F821B91098F73992708958BE129
:100C000095E0F1DF21E0892B09F420E0822F08959F
:100C100080E090E0892B21F0F2DF81110E9400003A
:100C20000895FC01A48DA80FB92FB11DA35ABF4F81
:100C30002C91848D90E001968F739927848FA689DB
:100C4000B7892C93A089B1898C91837080648C932F
:100C5000938D848D981306C00288F389E02D8081DE
:100C60008F7D80830895EF92FF920F931F93CF9310
:100C7000DF93EC0181E0888F9B8D8C8D981318C0D9
:100C8000E889F989808185FF13C09FB7F894EE89C0
:100C9000FF896083E889F98980818370806480831B
:100CA0009FBF81E090E0CDB7DEB7E6E00C94AA37B5
:100CB000F62E0B8D10E00F5F1F4F0F731127E02EE4
:100CC0008C8D8E110BC00FB607FCFACFE889F9891D
:100CD000808185FFF5CFCE01A4DFF2CFEB8DEC0F45
:100CE000FD2FF11DE35AFF4FF0829FB7F8940B8F51
:100CF000EA89FB8980818062D2CFCF93DF93EC01B8
:100D0000888D8823B1F0AA89BB89E889F9898C91FB
:100D100085FD03C0808186FD0CC00FB607FCF7CFB0
:100D20008C9185FFF2CF808185FFEDCFCE0179DFF9
:100D3000EACFDF91CF910895A9E0B0E0E2EAF6E0D2
:100D40000C948C378C01DC0119968D919C91892B28
:100D500009F471C0D6DBF801C784D088E188F28835
:100D60006C157D058E059F0520F46787708B818B40
:100D7000928BF801C784D088E188F2886C197D09CC
:100D80008E099F096C3271408105910518F3F89422
:100D9000D80114968D919C9115979A838983199601
:100DA000ED91FC917F01BFEFEB1AFB0A80818987EF
:100DB000F80190810388F489E02DD80155968C9133
:100DC000992309F43CC09081982B98879081809555
:100DD00089238F838F818C8388E08B8358856F81F3
:100DE00049853B812C8189819A81D701508347FDB8
:100DF000252F3A952083262F39F0441F00C000008C
:100E00006083000000C0F2CF38E04D9160830000A5
:100E1000019761F7D8015496FC93EE935397498755
:100E20003B832C839A83898378946BDBF8016787F3
:100E3000708B818B928B2996E8E00C94A837908177
:100E4000982B98879081809589238F838F818E83BB
:100E500088E08D8358856F8149853D812E81898108
:100E60009A81D701508347FD252F00C000C0208301
:100E700000C000C000C000C000C060830000262F7A
:100E80003A9541F0441F000000C000C000C000C0FF
:100E900000C0E8CF38E04D9100C0608300C00197EA
:100EA00009F7D8015496FC93EE93539749873D83F5
:100EB0002E83B8CFCF93DF93EC018E819F8197FD76
:100EC0000AC061E074DA60E08E8144DA81E08983EF
:100ED000DF91CF910895198280E0FACF20914603E7
:100EE000309147032817390771F490914503809199
:100EF0004403981741F0E0914503F0E0EC5FFC4FAC
:100F0000808190E008958FEF9FEF08950895EF920C
:100F1000FF920F931F93CF93DF93DC015C96ED90CC
:100F2000FC905D97E114F10469F481E090E0139680
:100F30009C938E93129790E080E0CDB7DEB7E6E009
:100F40000C94AA375196ED91FC91529750968C9142
:100F50005097982F90950FB75E962C915E97122F11
:100F6000127021FD6095F8942081112319F1282B2E
:100F70002083E7012197F1F728E0462F50E03081E8
:100F800060FF1AC0382B3083E7012197F1F7BA01CF
:100F900075956795215089F7112381F08081892308
:100FA00080830FBF5C968D919C910197F1F781E052
:100FB00090E0C3CF2923DCCF3923E5CF9081892B63
:100FC000EFCF20914603309147032817390761F48A
:100FD000809144032091450390E0805C9F4F821BE9
:100FE00091098F739927089590E080E008952091EA
:100FF00046033091470328173907B9F49091450308
:1010000080914403981789F0E0914503F0E0EC5F8C
:10101000FC4F80812091450330E02F5F3F4F2F73BD
:1010200033272093450390E008958FEF9FEF0895B5
:101030001F93CF93DF93EC01162F60E0812FB7D978
:101040008E8D81FD03C061E0812F84D91C87812FA3
:1010500090E0FC01E95DFD4FE491ED87FC01EB5B65
:10106000FD4FE491F0E0EE0FFF1FE75FFD4F85912C
:1010700094919F878E87DF91CF911F9108951F9341
:10108000CF93DF93EC01162F6E8D6695617081E032
:101090006827812F5FD961E0812F89D9812F90E066
:1010A000FC01E95DFD4FE491E88BFC01EB5BFD4F3A
:1010B000E491F0E0EE0FFF1FE55CFD4F8591949108
:1010C0009A8B898BDF91CF911F910895FC018EE15E
:1010D00091E0918380838091460390914703E817C4
:1010E000F90759F4A389B4899C918589809589234E
:1010F0008C9310924703109246030895CF93DF9389
:10110000FC01828D938D892B41F1A0914603B09112
:101110004703AE17BF0709F1109751F05396CD91D1
:10112000DC915497988155968C918095892388837A
:10113000868D8E7F868F1092440310924503F09324
:101140004703E0934603A389B4898C919589892B41
:101150008C9381E0DF91CF91089580E0FBCFCF9316
:10116000DF93EC019A01AB011B8E1A8E198E188E3B
:101170001F8A1E8A60E079E08DE390E00E94563776
:10118000F901C90103972430310510F481E090E0A2
:101190009D8F8C8F6C85663108F053C0C901969580
:1011A00087958431910508F451C043979F8B8E8BAE
:1011B000C9010597369710F481E090E0998F888FE8
:1011C000C901880F991F280F391F36952795369525
:1011D00027952D30310508F43CC02C5031093B8F48
:1011E0002A8F9091680084E0683048F021E06E30EA
:1011F00008F420E081E001C0880F2A95EAF7892BE6
:10120000809368009C852DE630E0983050F02BE606
:1012100030E09E3030F02CE630E0963110F030E0D7
:1012200020E03C8B2B8B292F30E09830A8F481E014
:1012300001C0880F9A95EAF78D8B8C8D9D8D019753
:10124000F1F7CE015BDFDF91CF91089581E090E06F
:10125000ADCF21E030E0C3CF9E3040F428503109BB
:1012600081E001C0880F2A95EAF7E6CF2E503109B8
:10127000F7CFCF92DF92EF92FF92CF93DF93EC0103
:10128000603282E07807CCF5653B710514F064EBC1
:1012900070E0898128E830E0281B310987FD33950B
:1012A000220F331F220F331F6901330FEE08FF088F
:1012B0008A8128E532E0281B310987FD3395220F0A
:1012C000331F220F331F032E000C440B550B2C1918
:1012D0003D094E095F09DB0177FF02C0B0E0A0E0E5
:1012E0000E947C3724EB30E040E050E00E9456370B
:1012F000C20ED31EE41EF51EB601E881EC3070F577
:10130000298188E890E0821B910927FD9395880F39
:10131000991F880F991F681779077CF02A8188E543
:1013200092E0821B910927FD9395880F991F880FE2
:10133000991F681779070CF4CB010297880F991F42
:101340004FB7F8942E2F30E0F901EE0FFF1FE20F98
:10135000F31FEC53FA4F928381834FBFDF91CF91FC
:10136000FF90EF90DF90CF9008952091E002260F3C
:101370003327331F21323105ECF42091F104FC01B5
:1013800090E080E0243069F082E00895A091E002CE
:101390002191AC0140545D4FA40FB52FB11D2C938A
:1013A0000196861798F38091E002680F6093E0023F
:1013B00080E0089581E008951092F10481E0809327
:1013C000F0041092CB0461E082E10E94AA0161E086
:1013D00083E10E94AA01E9EBF0E080818E7F8083A7
:1013E00080818D7F808388E48093B80085E480933A
:1013F000BC0008951092CA041092C9041092F80417
:1014000010921A05D9DF87E591E09093C804809384
:10141000C70488E591E09093C6048093C5040895BD
:10142000CF93DF9391E09093BF028823B1F0C091F6
:10143000B800D091BA008091BC008A7B8093BC0038
:1014400060E082E10E94AA0160E083E10E94AA01BB
:10145000B3DFD093BA00C093B800DF91CF91089565
:10146000B0E0A0E0E6E3FAE00C948C37D0911A05E6
:1014700081E0D13208F098C0C091190542D86B01C3
:101480007C018091F10481116AC082E08093F104B3
:1014900081E08093F0048FEF8093EF041092EE04CC
:1014A000D093ED04A9EFB4E0EDECF4E080E0D813C4
:1014B00086C01092CC048091CC04CC0FC82BC09372
:1014C000CC048091CB04813009F07DC01092CB0414
:1014D00018D86B017C018091CC048093BB00809173
:1014E000F3049091F404A091F504B091F604892BD3
:1014F0008A2B8B2B99F005D80091F3041091F404FA
:101500002091F5043091F6046C197D098E099F092C
:10151000061717072807390708F442C08091BC0056
:1015200083FDD9CF85EC8093BC000E9481026B01C2
:101530007C018091F104823009F447C08091EF046E
:101540008F3F09F464C08091EF04803209F461C0D8
:101550008091EF04803309F45EC084E025C080915F
:10156000F3049091F404A091F504B091F604892B52
:101570008A2B8B2B09F485CF0E9481020091F30402
:101580001091F4042091F5043091F6046C197D0952
:101590008E099F09061717072807390708F071CF2A
:1015A0008091F2043DDF85E01092F80410921A0554
:1015B0001092F704CDB7DEB7E8E00C94A8379D9100
:1015C00091938F5F74CF85EEAECF8091F3049091AD
:1015D000F404A091F504B091F604892B8A2B8B2B8F
:1015E00009F4A7CF0E9481020091F3041091F40442
:1015F0002091F5043091F6046C197D098E099F093C
:10160000061717072807390708F093CFC9CF80E0DE
:10161000CBCF82E0C9CF83E0C7CFE091CA048091ED
:10162000C904E81730F4F0E0E156FD4F808190E006
:1016300008958FEF9FEF08959091CA048091C90497
:101640002FEF3FEF981748F4E92FF0E0E156FD4FF8
:10165000208130E09F5F9093CA04C9010895809172
:10166000C9049091CA04891B990B0895B0E0A0E0C9
:10167000ECE3FBE00C948C377C01CB018A012091D8
:10168000F704222389F0EB016B01C40ED51ECC15A3
:10169000DD0561F06991D701ED91FC910190F08138
:1016A000E02DC7010995F3CF642F5FDEC801CDB7E8
:1016B000DEB7E8E00C94A837A1E0B0E0E2E6FBE09A
:1016C0000C94923769832091F7042223F9F020913A
:1016D0001A05203258F021E030E0FC0133832283E8
:1016E00090E080E02196E2E00C94AE378091F8041F
:1016F000E82FF0E0E750FB4F998190838F5F809354
:10170000F80480931A0581E090E0ECCF61E0CE010F
:1017100001962BDEF8CF682F88EB95E0CDCF0895AA
:1017200090E080E00895FF920F931F93CF93DF9393
:101730000091A1041091A2040115110519F1FC01F9
:1017400024813581232BF1F0F62EEC01C801D6DC83
:10175000F1E0FF121CC061EB71E0C801CED9BE01FF
:101760008091A1049091A204B9D96EEA71E08091B0
:10177000A1049091A204C1D968EE73E080E090E0EA
:101780000E94A602CDB7DEB7E5E00C94AB3766EA5F
:1017900071E0C801B2D9BE018091A1049091A20468
:1017A0009DD9EACF0F931F93CF93DF93D82FC0E03B
:1017B000062F10E08D2F0E9482018017910721F4DF
:1017C000CF5FCF3FB9F7C0E08C2FDF91CF911F9152
:1017D0000F910895B0E0A0E0E0EFFBE00C948C37AF
:1017E000C82F162FD42F80917C02882329F0809156
:1017F0007A028C1709F47BC081E080937C02C0934D
:101800007A0262E08C2F0E94D70160ED77E080E0E1
:1018100090E00E94A60210937B020E94D702609380
:10182000710270937202809373029093740210920B
:101830007D0261E08C2F0E94D70160E08C2F0E9416
:10184000AA0162E070E080E090E0163121F064E1EE
:1018500070E080E090E00E94A602DFB6F89461E0BC
:101860008C2F0E94AA0183E790E00197F1F762E0D4
:101870008C2F0E94D70161E08C2F94DF60E08C2FC9
:1018800091DF882331F061E08C2F8CDF91E08111B2
:1018900001C090E0F12CE12C992309F449C088E2C1
:1018A000E816F10409F444C060E08C2F7BDF082FB8
:1018B00061E08C2F77DF002319F091E0811101C0E6
:1018C00090E0F70133E0F595E7953A95E1F7EB58AD
:1018D000FD4F208130E0220F331F41E0081708F050
:1018E00040E0242B20832FEFE21AF20AD5CF0E948A
:1018F000D702C0907102D0907202E0907302F09013
:1019000074026C197D098E099F09603D774081053D
:10191000910508F080CF80917B028117F1F060E0A3
:1019200070EC89E794ECCDB7DEB7E8E00C94A8370B
:10193000DFBE992381F08091750290917602890F24
:1019400090917702890F90917802890F91E0209110
:101950007902821390E090937D0280917D0288232A
:10196000F1F2F0E0E0E0D11102C0E2E0F0E0EB588B
:10197000FD4F908181811631F1F4692F70E0762F4F
:10198000662766277F77682B892F881F8827881FFF
:10199000D11104C019F0719561957109072E000CE1
:1019A000880B990B0E942D362DEC3CEC4CEC5DE342
:1019B0000E948C36B8CF682F6F7770E02AE0929F34
:1019C000600D711D1124E1CFCF93FC0122852223EC
:1019D00039F0C1E080859185892B81F4C0E00EC08B
:1019E00060817181828193819F77C1E02CEA35EC1F
:1019F00047E257E30E94E838181684F78C2FCF91FE
:101A00000895B0E0A0E0E7E0FDE00C948837EC0139
:101A10000A85002309F47DC0249670E060E0CE01C1
:101A20000E94E30211E08D3211F000E010E0C12CC1
:101A3000D12C7601612F70E0CE010E94E302B82E16
:101A4000082E000C990BC0970A9708F51F5F20E03D
:101A500030E040E251E4C701B6010E948C366B01D0
:101A60007C016B2DBB0C770B880B990B0E942D36DC
:101A70009B01AC01C701B6010E94EB3720E030E0CA
:101A800040E452E40E94EA376B017C01D3CF8EE23E
:101A9000B81232C08DEC882E8CEC982EA92C8DE3D8
:101AA000B82E1F5F612F70E0CE010E94E302682F05
:101AB000880F770B605371096A307105E8F4072EBF
:101AC000000C880B990B0E942D36A50194010E94F1
:101AD0008C369B01AC01C701B6010E94EB376B014C
:101AE0007C012DEC3CEC4CEC5DE3C501B4010E94A3
:101AF0008C364B015C01D5CF002321F0F7FAF0942E
:101B0000F7F8F094C701B601CDB7DEB7ECE00C945E
:101B1000A437C880D980EA80FB80F4CF9091060179
:101B200021E02093F704909319051092F804109285
:101B30001A05886090E0EFDD93CC08952F923F92D4
:101B40005F926F927F928F929F92AF92BF92CF924D
:101B5000DF92EF92FF920F931F93CF93DF93E09169
:101B60009602F0919702309741F1A281B3811097CC
:101B700021F18F3F910599F197FD9FC0ED012197CC
:101B8000C817D90710F48FEF8A0F77247394780E53
:101B900028C020E02EC040E034C060E03AC0880F8A
:101BA000991F880F991FE80EF91EC701810F911D1B
:101BB000EC0118826CC0CF01BFD8DF91CF911F918B
:101BC0000F91FF90EF90DF90CF90BF90AF909F90DC
:101BD0008F907F906F905F903F902F9008957A2E16
:101BE00080E037FDD6CF2F3F310519F014F02FEFED
:101BF00030E057FDD0CF4F3F510519F014F04FEFB3
:101C000050E077FDCACF6F3F710519F014F06FEF08
:101C100070E0822E912CB12CA12C942AA62AA50129
:101C200066277727542E292DBA01482F50E0DA0174
:101C3000312C212C682CA71508F0BDCF828193810F
:101C4000A817B907A8F5C62C8085D22E352D882374
:101C500071F0869F8001879F100D1124312F829F84
:101C600080011124D12E889DC0011124C92E168512
:101C7000E184F2840385CA01820D931D10138FCF76
:101C80008C01000F111F800F911FE80EF91E838534
:101C90008E0D9F2D911DEC01388384858E0D9F2D17
:101CA000911DEC01D8828585E80EF11CE701C88200
:101CB0008FEF281A380A1196BECF80E066CFCF93F7
:101CC000C82F8091040191E09093F7048093190547
:101CD0001092F80410921A0590E080E01CDD6C2F41
:101CE00088EB95E0E9DCBCDBCF910895CF93C82F5A
:101CF000862F806BE4DF8C2F8F70E1DF8C2F829535
:101D00008F708061DCDFCF910895A3E0B0E0EBE855
:101D1000FEE00C9482376C01142F809170028823AE
:101D200009F4CFC090910501603108F06FE0092FF0
:101D3000000F000F609F002D1124923009F05EC04B
:101D4000143008F013E0110F612F802FCFDF612CCA
:101D500054E0E52E6AE0462E70E1372E5E0184E005
:101D6000A80EB11C662D70E0F6018481958168177C
:101D7000790708F0A6C0C6010E94E30219821A8200
:101D80001B8290ED980F9A3008F03DC0082E000C91
:101D9000990BC0979C01220F331F820F931FDE0106
:101DA000119630E020E088579E4FFC01E20FF31FB0
:101DB000E491ED932F5F3F4F23303105B1F7509001
:101DC0000401809105018130A1F58093F7045092C0
:101DD00019051092F80410921A0580E490E09BDC3B
:101DE00043E050E0BE016F5F7F4F88EB95E03EDC43
:101DF00090E080E090DC34DB6394B4CF183008F4DA
:101E0000A3CF17E0A1CF8D3221F4EB82EA82E982E1
:101E1000D6CF8E3211F43A82D2CF8A3311F44A826D
:101E2000CECF853261F6F9E1F983EA8283E18B83D3
:101E3000C6CF712C22242394612F670D802F56DF8B
:101E40002092F704509219051092F80410921A0586
:101E500080E490E060DCFE0131964F01F401819155
:101E60004F01711028C08F70F4E08F9F90011124F2
:101E7000822B8373F82EFF0C8F298575F82EFF0CAB
:101E8000F82A6F2D88EB95E017DC6F2D88EB95E035
:101E900013DCA814B90411F790E080E03CDC90E07A
:101EA00080E039DCDDDA81E0781202C0085FA4CF7F
:101EB00077247394C1CFF12C84FFE3CF83E0F82E15
:101EC000E0CF2396E2E10C949E370F931F93CF93BC
:101ED000DF9380917002882311F1C0E001E06C2F44
:101EE00080E004DFD8E0809104010093F704809340
:101EF00019051092F80410921A0580E490E00BDCAA
:101F000010E190E080E007DC1150D9F7A9DAD15058
:101F100051F7CF5FC83019F760E080E0E7DEDF916E
:101F2000CF911F910F910895CF93DF938093040178
:101F3000623009F061E0609305015CDACFE6D1E040
:101F4000FE018491BCDE2196F1E0C838DF07C1F7BD
:101F500081E080937002B9DFDF91CF910895AAE00C
:101F6000B0E0E5EBFFE00C94903700916602109131
:101F700067020115110581F11E821D829EE799837A
:101F80009FEF9A8396E09B839FEE9A878C83272FFF
:101F900030E07E836F8390E08B5F9E4F820F931FB4
:101FA000860F911D91958195910998878987C80120
:101FB000A5D8D801ED91FC910280F381E02D4AE093
:101FC00050E0BE016F5F7F4FC801099568E770E080
:101FD00080E090E00E94A6022A96E4E00C94AC37E0
:101FE000CF93C0E080916802C81758F4EC2FF0E05E
:101FF000E85FFE4F70E060E080810E941302CF5FD7
:10200000F1CF85B1807F85B980910C0187FF0E9457
:10201000F5028091660290916702892B21F070E0B1
:1020200060E086E19CDFCF910895CF92DF92EF923E
:10203000FF921F93CF93DF93E0E0F1E0DF01D0E068
:10204000C0E0482F50E02D91022E000C330B2417D6
:10205000350781F4CE01880F991FC80FD91FC751CA
:10206000DA4FCE01DF91CF911F91FF90EF90DF907B
:10207000CF9008952196C430D10529F7F12CE12C99
:10208000919197FF63C0F701E050FF4F8083670194
:10209000CC0CDD1CE601CE0DDF1DC751DA4F988157
:1020A0009C30F8F6182F61E00E94D7018881282F14
:1020B00030E0F901EE0FFF1FE20FF31FEC53FA4F70
:1020C0001F739081907C192B108319821A822CE047
:1020D000622F0E943339829FB001112430E020E04A
:1020E000AB01420F531FFA01EE0FFF1FE40FF51F64
:1020F000EC53FA4F908196FD16C02F5F3F4F2C3066
:10210000310571F781110FC01092800082E0809339
:1021100081001092850010928400B19A80916F0026
:10212000826080936F00F601EE0DFF1DE751FA4FBC
:10213000E0818E2F90E0FC01EE0FFF1FE80FF91FEA
:10214000EC53FA4F8081806480838BCF9FEFE91A34
:10215000F90A94E0E916F10409F092CFD0E0C0E06A
:1021600080CFE0916802A8E0B1E090E0E91729F0A3
:102170002D91281761F09F5FF9CFE43040F491E092
:102180009E0F90936802F0E0E85FFE4F8083089511
:10219000EF92FF920F931F93CF93DF93082F162F89
:1021A0007A01EA014F3F510519F014F0CFEFD0E06A
:1021B000C1308FEFD80714F4C1E0DFEF802FD1DFFB
:1021C000812FCFDF61E0802F0E94D70161E0812F56
:1021D0000E94D701BE01802F1E141F049CF070E0E6
:1021E00060E0E114F10471F00E9413026627772782
:1021F0006C1B7D0B812F0E941302CDB7DEB7E6E08A
:102200000C94AA370E94130270E060E0F3CFA8E0BC
:10221000B0E0EDE0F1E10C94903718861F8295E56F
:1022200099839AEA9A8391E19B8392E09C838D83C0
:102230006E837F83FE0131969E01285F3F4F8F01A1
:1022400091918885890F8887E217F307C9F7D2D85B
:1022500081E08093F70482E3809319051092F804DB
:1022600010921A0548E050E0B80188EB95E0FED9DD
:10227000F7D82896E4E00C94AC370F931F93CF93D4
:10228000DF93D82FC62F61E00E94D70160E08D2F29
:102290000E94AA018BE594E00197F1F78C2FC630DC
:1022A00008F085E0825F0E946C028C018BE990E06F
:1022B0000197F1F761E08D2F0E94AA018BE397E966
:1022C0000197F1F7C801DF91CF911F910F91089508
:1022D000982F80ED890F8A3048F0892F80629FE91E
:1022E000980F963010F48755089580E00895DC012A
:1022F00014968D919C9115976817790750F4ED917C
:10230000FC911197E60FF71F15967C936E93149727
:1023100010820895CF93807FC82FC62B8C2FFEDBB1
:102320008C2F8460FBDB8C2FF9DB83EC90E0019732
:10233000F1F7CF910895CF93DF93C82FD62FEADF1F
:102340006D2F8C2F8295807FE5DFDF91CF910895EF
:102350001F93CF93DF9320919802222381F0EC0109
:1023600010E0612F70E08C819D816817790738F447
:10237000CE010E94E30261E0DEDF1F5FF2CFDF915A
:10238000CF911F91089590910701891710F08FEF59
:10239000890F643008F063E0E62FF0E0EA5EFE4F5C
:1023A0009081890F60E08068C6CF0895809198027F
:1023B000882339F060E081E0BEDF8BE39FE1019785
:1023C000F1F708951F93CF93DF93142F80930601A5
:1023D000609307010FD862E370E080E090E00E9414
:1023E000A60260E080E396DFCBE4D6E4CE0101975D
:1023F000F1F760E080E38EDF2197F1F760E080E3A2
:1024000089DF83E592E00197F1F760E080E282DF07
:1024100080E2123008F088E260E08DDF60E08CE05E
:102420008ADF60E086E087DF81E080939802BEDF8C
:10243000DF91CF911F910895A0E1B0E0E2E2F2E1D7
:102440000C948237882E962EC72E93E0E92EDD2439
:10245000D39477247A942FE0622E6AE070E080E0D3
:1024600090E00E94A6020E9481021B012C01809133
:10247000F104811162C0D092F104D092F004709204
:10248000EF041092EE046092ED04D092CC0480919F
:10249000CC0484668093CC048091CB04813009F015
:1024A00085C01092CB040E9481021B012C018091F7
:1024B000CC048093BB008091F3049091F404A0912C
:1024C000F504B091F604892B8A2B8B2BA1F00E9486
:1024D00081020091F3041091F4042091F5043091ED
:1024E000F604621973098409950906171707280766
:1024F000390708F443C08091BC0083FDD8CF85EC38
:102500008093BC000E9481021B012C018091F10488
:10251000813009F44FC08091EE04803108F06CC026
:10252000F090EE04ADECB4E0EFE9F2E080E08F155E
:1025300051F19D9191938F5FFACF8091F304909127
:10254000F404A091F504B091F604892B8A2B8B2B0F
:1025500009F48DCF0E9481020091F3041091F404DC
:102560002091F5043091F6046219730984099509E4
:10257000061717072807390708F079CF8091F2046A
:102580000E94100AF12C1092CA04F092C9048E0124
:102590000F5F1F4F58018A2D801B8F1580F588EB28
:1025A00095E04AD8F50181935F01F5CFA5EEA093A0
:1025B000BC00A8CF8091F3049091F404A091F5049D
:1025C000B091F604892B8A2B8B2B09F49FCF0E94A4
:1025D00081020091F3041091F4042091F5043091EC
:1025E000F604621973098409950906171707280765
:1025F000390708F08BCFC2CF80E1F82E93CFF0E1FE
:10260000FF1203C08D81881529F0EA94E11025CFCF
:1026100080E016C0E92DFC2D9801265F3F4FD801C0
:1026200016968C91169715969C918927982789273D
:10263000819391930E5F1F4F2017310781F781E03F
:102640006096E2E10C949E37CF92DF92EF92FF9278
:102650001F93CF93DF93CDB7DEB72A970FB6F894C9
:10266000DEBF0FBECDBF6C01162F7A01BC0187E221
:10267000CEDDBE016F5F7F4F89E2DEDE81110FC0CC
:1026800080E02A960FB6F894DEBF0FBECDBFDF9173
:10269000CF911F91FF90EF90DF90CF9008958981A7
:1026A0009A811816190664F7BE016F5F7F4F8AE2A0
:1026B000C3DE882329F329853A852C153D0501F7CA
:1026C00021E030E0112379F0212F2150330BB901A3
:1026D000660F771FE1E0F0E0EC0FFD1F6E0F7F1F2C
:1026E000FB0120813181F70131832083CACF282F5C
:1026F000220F292F221F2F3F19F00C94EC38089538
:1027000060E070E0CB010895FC014481558170E0E8
:1027100060E0818592850C94293B0895B0E0A0E0AB
:10272000E4E9F3E10C948C37EC016B01F42EE52E17
:10273000198218861F86188A198A1A8A81E08E875C
:102740008B871C8692E09D8788838B01000F111F69
:10275000060F171F1D830C83C8010E9445399A87F5
:102760008987009769F1A80170E060E00E94293B29
:10277000DB82CA82FE82EF828981882341F061E098
:102780008F2D0E94D70160E08F2D0E94AA018F2D0E
:102790009E2DFC01EB5BFD4FE491F0E0EE0FFF1F7F
:1027A000E55CFD4F259134913C8B2B8BFC01E95D61
:1027B000FD4FE491ED8BCDB7DEB7E8E00C94A83780
:1027C0001D821C821B821A82D5CF0F931F93CF9339
:1027D000DF938C01EB01FC01808191810097E1F096
:1027E0006881798161157105A9F0428153812C813D
:1027F0003D814217530770F00E94393B8C819D81C7
:10280000F801958384831D821C82DF91CF911F91F3
:102810000F9108950E94E13988819981F80191838F
:1028200080838A819B81938382838C819D81958320
:102830008483198218821B821A82E5CFB0E0A0E05F
:10284000E4E2F4E10C948C37EC018B01FB01C190C4
:10285000D190E190F190BF01FC01C192D192E1923F
:10286000F192CF016E177F0709F0AFDFF801828583
:102870008A87CE01CDB7DEB7E8E00C94A837CF93B6
:10288000DF93EC0188819981009711F00E94E13972
:10289000198218821D821C821B821A82DF91CF91BD
:1028A0000895FC0180819181009711F00C94E13929
:1028B0000895EF92FF920F931F93CF93DF93C091F0
:1028C000A104D091A20420910E0130910F012C1788
:1028D0003D07E1F18A01E62EF82E209731F0CE0176
:1028E0000E946608CE010E94E1398FE190E00E94CB
:1028F0004539EC011B821A8288EE93E0A0E0B0E03B
:102900008C839D83AE83BF838EE191E0998388831E
:102910001F8A1E8A198E188E1B8E1A8E1D8E1C8E73
:102920009E8D9E7F9D7F9E8F6E2DCE010E943F08C3
:102930006F2DCE010E941808D093A204C093A10469
:10294000A80170E060E0CE010E94AF08CDB7DEB70D
:10295000E6E00C94AA370F931F93CF93DF9386136F
:1029600006C080E0DF91CF911F910F910895062F4F
:10297000182FC0916602D0916702209731F0CE01E6
:102980000E946608CE010E94E1398FE190E00E942A
:102990004539EC011B821A8288EE93E0A0E0B0E09A
:1029A0008C839D83AE83BF838EE191E0998388837E
:1029B0001F8A1E8A198E188E1B8E1A8E1D8E1C8ED3
:1029C0008E8D8E7F8D7F8E8F602FCE010E943F086F
:1029D000612FCE010E941808D0936702C09366024F
:1029E000209709F4BECF40E855E260E070E0CE01E8
:1029F0000E94AF08CE010E947E0864E670E080E08D
:102A000090E00E94A60270E060E08CE0A8DA68E93D
:102A100078E080E090E00E94A60262E070E089E049
:102A20009EDA6CE271E080E090E00E94A60281E014
:102A300099CFFB0101900020E9F73197AF01461BC8
:102A4000570BDC01ED91FC910280F381E02D09959B
:102A500008958F929F92AF92BF92EF92FF920F9341
:102A60001F93CF93DF93CDB7DEB7A1970FB6F8943E
:102A7000DEBF0FBECDBF7C019B0150E040E019A23C
:102A80008E010F5D1F4F8AE0882E912CA12CB12C56
:102A9000CA01B901A50194010E94B937605DF8012E
:102AA00062938F01211531054105510589F7309752
:102AB000D9F0BF01C701BDDF8C0160E571E0C7013E
:102AC000B8DF800F911FA1960FB6F894DEBF0FBE3E
:102AD000CDBFDF91CF911F910F91FF90EF90BF90ED
:102AE000AF909F908F90089510E000E0E6CF0F9395
:102AF0001F93CF93DF93EC010E946E058C0160E57C
:102B000071E0CE0196DF800F911FDF91CF911F9171
:102B10000F9108950F931F93CF93DF93EC010E94C1
:102B20007D058C0160E571E0CE0183DF800F911F90
:102B3000DF91CF911F910F910895CF93DF9362E6BC
:102B400071E080910E0190910F010E947D05C0916E
:102B50000E01D0910F0163E571E0CE016ADF60E5FF
:102B600071E0CE0166DFDF91CF910895FC012481F1
:102B70003581FB014481558124173507A0F0FC0104
:102B800080819181009779F0FB01608171816115ED
:102B9000710549F0241B350B820F931F0E94303BB7
:102BA00021E0892B09F020E0822F08950F931F93D5
:102BB000CF93DF93EC0188819981009759F02A81A6
:102BC0003B812617370730F081E0DF91CF911F91CD
:102BD0000F9108958B016F5F7F4F0E946A3A0097B3
:102BE00059F0998388831B830A832C813D81232B91
:102BF00059F7FC011082E8CF80E0E7CFA2E0B0E017
:102C0000E4E0F6E10C948E378C0169831A82FC01B2
:102C1000E480F580FFEFEF1AFF0AB701C7DF8823D2
:102C200081F0F8012081318184819581BE016F5F3F
:102C30007F4F820F931F0E94393BF801F582E48297
:102C400081E02296E6E00C94AA37EF92FF920F9370
:102C50001F93CF93DF93EC017B018A01BA01A6DFBA
:102C6000811108C0CE010BDECE01CDB7DEB7E6E0A4
:102C70000C94AA371D830C83B701888199810E9427
:102C8000393BF2CFFB0101900020E9F73197AF010A
:102C9000461B570BDACF0895A3E3B0E0E2E5F6E177
:102CA0000C948E377C01CB01BA01F701118210829E
:102CB00013821282158214828E010F5F1F4F22E051
:102CC00044E00E944833009739F0BC01C701DADFC5
:102CD000E396E6E00C94AA37C701D1DDF9CFA6E070
:102CE000B0E0E5E7F6E10C948C378C016A017B01DA
:102CF0006CE671E080910E0190910F010E947D05BC
:102D00000115110531F0B80180910E0190910F016C
:102D100090DE6CE280910E0190910F010E94660599
:102D200000910E0110910F01B701A601CE0101968D
:102D3000B3DFBE016F5F7F4FC801D9DECE010196C0
:102D4000B0DD2696E8E00C94A837FC01408351835F
:102D500062837383128662E571E0049693CF0895CF
:102D6000CF93DF93EC01FB018617970741F0608159
:102D700071816115710539F04481558166DFCE019D
:102D8000DF91CF9108957BDDFACFFC011182108293
:102D90001382128215821482FB0101900020E9F750
:102DA0003197AF01461B570B50CF0895B0E0A0E01C
:102DB000ECEDF6E10C948A376C015B017A01890134
:102DC0002417350720F48F2D7901042F182F62E581
:102DD00071E0C601DADFD5011496CD91DC91EC16D5
:102DE000FD06D8F40C171D0708F4E801D501ED9194
:102DF000FC911197EC0FFD1F108110826D917C9159
:102E00006E0D7F1DC6016115710569F03BDFF5018F
:102E100080819181C80FD91F1883C601CDB7DEB755
:102E2000EAE00C94A6372BDDF2CFCF92DF92EF923F
:102E3000FF92CF93DF93EC0162E571E0A6DF809112
:102E4000A1049091A204009789F10E947E080E943B
:102E5000D7026B017C010E94D7026C197D098E0993
:102E60009F09603571058105910500F58091A104E8
:102E70009091A204DC01ED91FC910084F185E02D9C
:102E80000995892B41F38091A1049091A204DC0162
:102E9000ED91FC910284F385E02D09958D3011F0C0
:102EA0008A3061F48C819D81892B01F3CE01DF9101
:102EB000CF91FF90EF90DF90CF900895682FCE01D3
:102EC0009DDED4CFAF92BF92CF92DF92FF920F934D
:102ED0001F93CF93DF936C01EB0162E571E055DF47
:102EE000209721F1FE0101900020E9F731978F0131
:102EF0000C1B1D0BB80176956795C60157DEAA24F9
:102F0000A394B12CA016B10688F48881E1D9F82EDB
:102F10008981DED990E1F99EB0011124682BC601A8
:102F20006DDE82E0A80EB11C2296ECCFC601DF91C7
:102F3000CF911F910F91FF90DF90CF90BF90AF90F6
:102F4000089585ED8093BC008091F3049091F40482
:102F5000A091F504B091F6040796A11DB11D23E0E0
:102F6000B695A795979587952A95D1F72091BC009E
:102F700024FD03C01092F10408954091F304509190
:102F8000F4046091F5047091F604452B462B472B11
:102F900069F30097A105B10541F02AE22A95F1F7FE
:102FA00000C00197A109B109E1CF8091F2040C940E
:102FB000100A08951F93CF93DF93EC01162F0E9400
:102FC0004037181721F0612FCE010E944837DF915A
:102FD000CF911F9108950C9440370895B0E0A0E080
:102FE000E4EFF7E10C948A371092DE0383E090E07F
:102FF000F2DFC82F84E090E0EEDFD82FD0939D025F
:10300000C0939C0285E090E0E6DF082F86E090E028
:10301000E2DF182F10939B0200939A0287E090E062
:10302000DADFA82E88E090E0D6DFB82E90E080E0CE
:10303000D2DF8F3409F044C081E090E0CCDF8D34E2
:1030400009F03EC082E090E0C6DF8130C9F5CE01D4
:103050000197873F9340A0F5C017D10788F1D12C85
:10306000C12CF12CE12CC7010996B5DFC80ED11C8B
:103070008FEFE81AF80ACE15DF05A9F7AC14BD04E6
:10308000F9F4E3EAF4E080E2DF011D928A95E9F7C2
:10309000109299021092DA031092DB031092DC0373
:1030A0001092DD0381E00115110509F080E08093A5
:1030B0009E021092C4041092C30481E08093DE0348
:1030C000CDB7DEB7EAE00C94A63720919C02309190
:1030D0009D028217930718F409967DCF089580E02A
:1030E0000895A8E2B0E0E7E7F8E10C9488378C0196
:1030F000FB018285882381F0F801118210821382FE
:103100001282158214826C5F7F4FC80129DEC801CC
:10311000A896ECE00C94A437C080D180E280F380C4
:1031200020E030E0A901C701B6010E94E83820E0A4
:1031300030E040E05FE387FD30C0C701B6010E9488
:10314000EB370E94B7380E942D364B015C01AC0171
:103150009B01C701B6010E94EA379F772FE632E153
:1031600043E85AE30E94273687FF1CC0F80111820A
:1031700010821382128215821482C501B4010E944A
:10318000B7382AE0AE014F5F5F4F0E94AC33BE01FB
:103190006F5F7F4FC80176DDBACFC701B6010E94CD
:1031A000EA37CFCFB701A601CE01839675DD6AE578
:1031B00071E0CE010196E9DDBE016F5F7F4FCE0168
:1031C0008396D4DCF82ECE0101966BDBFF2041F014
:1031D0006FA178A561507109CE01839688D8E7CF99
:1031E0006CE571E0CE010196D0DDBE016F5F7F4FCF
:1031F000CE018396BBDCF82ECE01019652DBFF2078
:1032000039F06FA178A561507109CE0183966FD80E
:10321000F801118210821382128215821482BE017B
:103220006D5D7F4FC801D1DACE0183963ADB6FCF57
:103230000F931F93CF93DF93D82FC62F61E00E9487
:10324000D70160E08C2F0E94D70160E08D2F0E9493
:10325000AA0183E090E00197F1F761E08D2F0E94D1
:10326000AA0183E290E00197F1F760E08D2F0E94C0
:10327000AA01D0E0FE01E95DFD4F6491FE01EB5B28
:10328000FD4FE491F0E0EE0FFF1FE75FFD4F8591EA
:10329000949100E315E720E030E0462F0E94F830DB
:1032A0006115710581059105B9F06F5F7F4F8F4FF3
:1032B0009F4F9F70611571058105910569F02AE3A3
:1032C00030E040E050E00E94B937CA01B901DF9117
:1032D000CF911F910F91089520E030E0A901F5CF23
:1032E000AFE8B0E0E6E7F9E10C948237CB57DF4F67
:1032F00099838883C558D0408091C3049091C404B9
:103300008C010F5F1F4F1093C4040093C304DDDED4
:103310009801280F311DC557DF4F39832883CB58BB
:10332000D0408E010B5F1F4F7E013DE5E30EF11C87
:1033300062E571E0C80129DD055F1F4F0E151F050D
:10334000B9F7312C49E550E04C0F5D1F4C5F5F4FE2
:10335000C158DF4F59834883CF57D040C158DF4F02
:103360005881CF57D040C257DF4F5883CE58D040F6
:10337000C058DF4F8881C058D040C157DF4F888385
:10338000CF58D0400091C3041091C404C557DF4FFB
:10339000A881B981CB58D0400A171B0708F0CBC6CB
:1033A0007801BFEFEB1AFB0AF092C404E092C30469
:1033B000C8018BDE282EE1E08E1333C06E01F9E5E3
:1033C000CF0ED11C760124E0E20EF11C8601809123
:1033D000C3049091C4049C012F5F3F4F3093C404F9
:1033E0002093C30472DED6018D936D01EA16FB06AD
:1033F00071F7F801608171818281938137E0331523
:1034000008F4C0CF11E0130DAB01BC0181E090E0E6
:103410008C0F9D1FABE03A9E800D911D112495DC11
:1034200095C1F2E08F136FC00E5F1F4F1093C4045D
:103430000093C304C70149DE182F62E571E0CE0195
:1034400083599F4FA2DC612F70E0CE0183599F4FBB
:10345000ADDB1123E1F08091C3049091C4041150BD
:10346000C557DF4F28813981CB58D0408217930749
:1034700070F49C012F5F3F4F3093C4042093C3042A
:1034800024DE682FCE0183599F4FB8DBE2CF37E0AF
:103490003315A0F162E571E0C158DF4F8881998151
:1034A000CF57D04072DC6D961CAE1DAE1EAE1FAE67
:1034B0006D97BE0163597F4FC158DF4F8881998155
:1034C000CF57D0404DDC81E0A4968FAFA49711E098
:1034D000130DBE01675A7F4F81E090E08C0F9D1F56
:1034E0004BE0349E800D911D1124A8D9C158DF4FA7
:1034F00088819981CF57D040D4D9312ECE018359BC
:103500009F4FCFD93FCF53E0851312C00E5F1F4F9F
:103510001093C4040093C304C701D7DD883008F0BA
:10352000D0C094E0899FF0011124ED55FB4F62CF8C
:10353000A4E08A131CC00E5F1F4F1093C4040093B5
:10354000C304C701C2DD90E0B0E0A0E08630910581
:10355000A105B10524F085E090E0A0E0B0E0825F35
:103560000E946C02BC01990F880B990B46C0B5E014
:103570008B1310C00E5F1F4F1093C4040093C3043D
:10358000C701A3DD182F60E00E94D701812F0E94A0
:103590008201E8CFE6E08E1317C00E5F1F4F109335
:1035A000C4040093C304C70190DD182F60E00E949B
:1035B000D701812F0E948201019709F082C060E04B
:1035C00070E080E89FE31ACFF7E08F1319C068011D
:1035D00022E0C20ED11CD092C404C092C304C70121
:1035E00074DDF82E0D5F1F4F1093C4040093C304C5
:1035F000C6016BDD682F8F2D1BDE0E942D36FECE9F
:1036000038E083132BC0680142E0C40ED11CD09275
:10361000C404C092C304C70158DDB82E780153E03A
:10362000E50EF11CF092C404E092C304C6014DDD26
:10363000D82E0C5F1F4F1093C4040093C304C7011E
:1036400044DD93E19B1508F471C541E0811101C08F
:1036500040E06D2D8B2D0E94EA0BD0CEA9E08A139D
:1036600018C06801B2E0CB0ED11CD092C404C09245
:10367000C304C7012ADDF82E0D5F1F4F1093C40449
:103680000093C304C60121DD682F8F2D0E943D11D8
:1036900069CFEAE08E1319C00091A1041091A20431
:1036A0000115110571F0C8010E947E08D801ED9145
:1036B000FC910084F185E02DC8010995892B09F062
:1036C0007ECF60E070E0CB0199CEBBE08B1340C0B1
:1036D000E7E0E31508F456CECE0183599F4FA5DBF2
:1036E00062E571E0C158DF4F88819981CF57D040A2
:1036F0004CDB6D961CAE1DAE1EAE1FAE6D97BE01AF
:1037000063597F4FC158DF4F88819981CF57D0408F
:1037100027DB81E0A4968FAFA49711E0130DBE01C3
:10372000675A7F4F81E090E08C0F9D1F329C800D87
:10373000911D112483D8C158DF4F88819981CF57BB
:10374000D040AFD8CE0183599F4FABD8312E1ACE7F
:1037500014EFD12ED80EF4E0FD1508F43FC033204D
:1037600009F410CE01E010E00C0F1D1F2BE0329E7B
:10377000000D111D11240B501109C8010E94010DEB
:103780000E94B7387B0177FD26C0C8010E94010D59
:103790006B961FAE1EAE6B973CE0231201C0D12C7E
:1037A000AE01475A5F4F6D2DC7010E94241340E0C0
:1037B00050E0BA01882361F06B966EAD7FAD6B97D8
:1037C000072E000C880B990B0E942D36AB01BC0113
:1037D000C801BBDAD7CDF12CE12CDACF4DE284134E
:1037E00014C0332009F4CECD01E010E00C0F1D1FF2
:1037F0005BE0359E000D111D11240B501109C8010D
:103800000E94010D0E947713E1CF8FE22812AEC013
:1038100094E0931508F003C5ABEF2A2E230C6E013C
:10382000A9E5CA0ED11CF12CE12C8601A22CB12CE9
:10383000BBE09B2E95012E0D3F1D929EC001939ED5
:10384000900D1124E1E0F0E0EC0FFD1F8E0F9F1FA3
:103850000E94010DD6016D937D938D939D936D0113
:10386000BFEFEB1AFB0AE5E0EE16F10419F7D801F9
:1038700050962D913D914D915C915397C957DF4FD3
:10388000288339834A835B83C758D0401C96CD90E8
:10389000DD90ED90FC901F9718962D913D914D91E4
:1038A0005C911B97CF57DF4F288339834A835B8313
:1038B000C158D04014968D909D90AD90BC901797B4
:1038C0004D905D906D907C90A5019401CF57DF4F96
:1038D000688179818A819B81C158D0400E942736B6
:1038E0008823B1F1A5019401C301B2010E94EA3716
:1038F0002B013C01A7019601C957DF4F68817981EF
:103900008A819B81C758D0400E94EA379B01AC0155
:10391000C301B2010E948C362B013C01A501940128
:10392000CF57DF4F688179818A819B81C158D04010
:103930000E94EA379B01AC01C301B2010E944F38DB
:103940009B01AC01C701B6010E94EB376B017C0102
:10395000BCEF3B0EB701A60181E090E08C0F9D1FEC
:10396000EBE02E9E800D911D112433CFFAE22F1231
:1039700019C0332009F406CD01E010E00C0F1D1F23
:103980002BE0329E000D111D11240B501109C801AE
:103990000E94E40C61E0682770E090E080E00E9403
:1039A0002B3614CF31E0331508F0ECCC3A94E32CED
:1039B000F12C4BE0349EC001112401E010E00C0F0B
:1039C0001D1F080F191FD7011197CF57DF4FB9835C
:1039D000A883C158D0400B97CC24C394D12CCC0ED3
:1039E000DD1EC80ED91EC6010E94010D4B015C01EF
:1039F000C8010E94010D2B013C01BBE22B1287C0C4
:103A0000B801CE0183599F4F6CDBB601CE018758B8
:103A10009F4F67DBE5961FAE1EAEE597E7961FAE9C
:103A20001EAEE797E9961FAE1EAEE997BE01675836
:103A30007F4FCE018D589F4F93D9AF96EEACFFAC20
:103A4000AF97E114F10409F45CC0E3960EAD1FAD2D
:103A5000E39701151105F9F0E9968EAD9FADE99751
:103A6000080F191FB801CE018D589F4F9FD888238A
:103A700009F447C0E5962EAD3FADE597E9968EADCA
:103A80009FADE997B701820F931F0E94393BE996DA
:103A90001FAF0EAFE99762E571E0C158DF4F888133
:103AA0009981CF57D04071D96D961CAE1DAE1EAE18
:103AB0001FAE6D97BE016D587F4FC158DF4F888193
:103AC0009981CF57D0404CD981E0A4968FAFA4976D
:103AD000BE01675A7F4FC6010E941E14C158DF4FB6
:103AE00088819981CF57D0400E945114CE018D58C2
:103AF0009F4F0E945114CE0187589F4F0E9451142E
:103B0000FDCCCE018D589F4F0E943F14C4CFECE2F4
:103B10002E12BCC0C501B4010E94B7388B016134BC
:103B2000710514F000E410E01016110614F001E025
:103B300010E0C301B2010E94B7387B0106171707D6
:103B40000CF478011E141F041CF0EE24E394F12CF5
:103B5000CE0187589F4F69D9EF962EAD3FADEF97B5
:103B6000021713070CF4980150E040E0BE016758BB
:103B70007F4FCE01875A9F4F19D9BE01675A7F4F99
:103B8000CE0187589F4F0E94E513CE01875A9F4F61
:103B90000E945114EF968EAD9FADEF978E159F0545
:103BA00008F44EC0A701415051099701BE01675862
:103BB0007F4FCE0183599F4FF9D862E571E0C1581C
:103BC000DF4F88819981CF57D040DFD86D961CAEEA
:103BD0001DAE1EAE1FAE6D97BE0163597F4FC1581B
:103BE000DF4F88819981CF57D040BAD881E0A49621
:103BF0008FAFA49700E011E0BE01675A7F4FC60166
:103C00000E941E14C257DF4F8881CE58D040C15742
:103C1000DF4F9881CF58D0400E945114002329F0E3
:103C2000CE018D589F4F0E945114112329F0CE01CF
:103C300083599F4F0E945114CE0187589F4F61CCEA
:103C400062E571E0CE018D589F4F9FD862E571E02B
:103C5000C158DF4F88819981CF57D04096D86D9653
:103C60001CAE1DAE1EAE1FAE6D97BE016D587F4FD0
:103C7000C158DF4F88819981CF57D04071D881E0FA
:103C8000A4968FAFA49701E010E0B6CFECEEE20D62
:103C9000EB3108F0AEC1F0E0E05BF14E0C943F393F
:103CA0004C1F551F5C1F631F731FF91FF91FF91F5E
:103CB000F91FF91F981FFC1F51205E206B207620F2
:103CC000F91FF91FF91FF91F81208A20F91FF91F19
:103CD000F91FF91F6B1EC501B4010E9477137B0108
:103CE0008C01C301B2010E9477135B014C019B015F
:103CF000AC01B701C8010E94273687FFBCC0CF576F
:103D0000DF4FE882C158D040C957DF4FF882C7580B
:103D1000D040202EC357DF4F1883CD58D040950197
:103D2000A401B701C8010E94E838181614F457011D
:103D3000480180919D0490919E04A0919F04B091B0
:103D4000A004892B8A2B8B2B59F40E94810261607D
:103D500060939D0470939E0480939F049093A004AD
:103D600080919D0490919E04A0919F04B091A00425
:103D70008C019D014DE0000F111F221F331F4A953A
:103D8000D1F7082719272A273B27D901C80151E174
:103D9000B695A795979587955A95D1F7082719272E
:103DA0002A273B27D901C80165E0880F991FAA1F60
:103DB000BB1F6A95D1F7082719272A273B270093AD
:103DC0009D0410939E0420939F043093A004992790
:103DD000832F722F612F0E942B3620E030E040E8C5
:103DE00053E30E948C362B013C01CF57DF4F2881D3
:103DF000C158D040C957DF4F3881C758D040422DF5
:103E0000C357DF4F5881CD58D040B501C4010E943F
:103E1000EA3720E030E040E85FE30E94EB379B01A7
:103E2000AC01C301B2010E948C360E94EC389B01A8
:103E3000AC01CF57DF4F6881C158D040C957DF4F21
:103E40007881C758D040822DC357DF4F9881CD5815
:103E5000D0400E94EB377B018C019B01AC01B50186
:103E6000C4010E94273687FF02C075018401A701A3
:103E7000B801C601AECCCF57DF4FA882C158D040A1
:103E8000C957DF4FB882C758D040282CC357DF4FDF
:103E90009882CD58D04043CFAC019B01C501B401FD
:103EA0000E94EB377B018C01E2CFAC019B01C50185
:103EB000B4010E94EA37F6CFAC019B01C501B40101
:103EC0000E948C36EFCF2CEA35EC47E257E39F7720
:103ED0000E94273687FD8DC0A3019201C501B40160
:103EE0000E944F38DFCF0E94B7382B013C01E12CF4
:103EF000F12C00E81FE314141504160417040CF049
:103F0000B6CF40FE08C0A5019401B701C8010E94C8
:103F10008C367B018C01A5019401C501B4010E947E
:103F20008C364B015C017594679457944794E3CFAA
:103F30008BE0CF57DF4F28813981C158D040829F15
:103F4000F001839FF00D112441E050E04C0F5D1F04
:103F5000E40FF51F928591110AC08E9DF0018F9D8F
:103F6000F00D1124E40FF51F8285882399F1B80123
:103F7000CE01875A9F4FB5D8B601CE0183599F4FC6
:103F8000B0D8E3962EAD3FADE3976F968EAD9FAD63
:103F90006F972817390759F4BE01675A7F4FCE0132
:103FA00083599F4F0E943D3161E0892B09F060E009
:103FB00070E090E080E00E942D367B018C01CE0104
:103FC00083599F4F0E945114CE01875A9F4F0E94E0
:103FD00051144DCFA3019201C501B4010E94EA37EB
:103FE0009F772CEA35EC47E257E30E94273687FD9E
:103FF00055C0E12CF12C6CC08BE0CF57DF4FA8816E
:10400000B981C158D0408A9FF0018B9FF00D1124D7
:1040100021E030E02C0F3D1FE20FF31F928591113C
:104020000AC08E9DF0018F9DF00D1124E20FF31F49
:104030008285882321F1B801CE01875A9F4F51D83C
:10404000B601CE0183599F4F4CD8E3962EAD3FADBC
:10405000E3976F968EAD9FAD6F972817390759F488
:10406000BE01675A7F4FCE0183599F4F0E943D3159
:1040700061E0892B09F060E081E0682799CFA30116
:104080009201C501B4010E94EA379F772CEA35EC12
:1040900047E257E30E94E83887FDABCFE12CF12CD3
:1040A0000AC0AC019B01C501B4010E942736E12C76
:1040B000F12C87FF0DC000E81FE3D9CEAC019B01B6
:1040C000C501B4010E942736E12CF12C18169CF78B
:1040D00000E010E0CCCEAC019B01C501B4010E9410
:1040E000E838E12CF12C18169CF7E5CFAC019B01C8
:1040F000C501B4010E94E838E12CF12C87FDE8CF1E
:10410000DACFC6010E94E40C882349F0C8010E945E
:10411000E40C05C0C6010E94E40C8823B9F3682FA3
:1041200070E090E080E00E942B36BCCE60E070EC46
:1041300089E794EC63C9C557DF4FE881F981CB5813
:10414000D040F093C404E093C304CB57DF4F888181
:104150009981C558D04004968E010F5F1F4F3320C0
:1041600009F44BC0432D4150550B9A014BE0429F3F
:10417000B001439F700D11247801E60EF71ED701A0
:104180008D909D90AD90BC90CB57DF4FE881F98129
:10419000C558D04080829182A282B3821582148257
:1041A00017821682118610866C5F7F4F600F711F19
:1041B0000E94B016D7011A968C91CB57DF4FE88139
:1041C000F981C558D04082877E01B9E5EB0EF11C1C
:1041D000EBE0EE1AF108C70104960E9451140E1587
:1041E0001F05B1F7CB57DF4F88819981C558D04063
:1041F000C157DF4FE2E10C949E3762E571E00E9407
:10420000C516CB57DF4FA881B981C558D0401D9244
:104210001D921D921C9213971A961C92D5CF51E0B5
:10422000531508F0AFC83A94FBE03F9E800111247B
:1042300068012BE0C21AD10841E050E04C0F5D1F2D
:10424000C40ED51EC6010E94010D81E090E08C0FC6
:104250009D1F800F911F0E94010DCBCEA5E1B0E004
:10426000E4E3F1E20C9484371092DA031092DB035A
:104270001092DC031092DD0320919E02A0909C021C
:10428000B0909D02211104C0A0909A02B0909B02B0
:104290008091C3049091C4048A159B05B8F4E09002
:1042A000C304F090C40467012FEFC21AD20AD0925F
:1042B000C404C092C304C7010E946518182F81115D
:1042C0001FC0B092C404A092C30416C010929902F9
:1042D00080919A0290919B02211103C021E02093CA
:1042E0009E029093C4048093C30420919C02309159
:1042F0009D028217930798F26596E0E10C94A0372F
:104300008130A9F5CE0101960E947019CE01019667
:104310000E94010D6B017C01CE0105960E94511493
:1043200020E030E0A901C701B6010E94273687FFCF
:1043300003C0C12CD12C76010E94D7024B015C0135
:1043400020E030E04AE754E4C701B6010E948C3611
:104350000E94BC38860E971EA81EB91E8092DA03F2
:104360009092DB03A092DC03B092DD03C5CF8EEF09
:10437000810F8230F0F562E0E60EF11CF092C40489
:10438000E092C304C6010E946518082FCE01019671
:104390000E947019CE0101960E94010D6B017C01F3
:1043A000CE0105960E945114083008F0A5CF74E0A4
:1043B000079FC0011124123049F48D559B4FDC0139
:1043C000CD92DD92ED92FC92139796CF8C010D5514
:1043D0001B4FA7019601F801608171818281938151
:1043E0000E94EB37D8016D937D938D939C93139727
:1043F00083CF143019F55701B2E0AB0EB11CB09267
:10440000C404A092C304C6010E946518182FE3E0FB
:10441000EE0EF11CF092C404E092C304C5010E94A8
:104420006518082F61E0812F0E94D70161E001111A
:1044300001C060E0812F0E94AA015ECF153099F57E
:10444000F2E0EF0EF11CF092C404E092C304C60146
:104450000E946518182F61E00E94D701CE010196D5
:104460000E947019CE0101960E94010D6B017C0122
:10447000CE0105960E945114C701B6010E94B738BB
:104480006F3F71058105910529F024F06FEF70E011
:1044900080E090E097FF03C060E070E0CB01812FE7
:1044A0000E94130229CF163009F042C087010E5F27
:1044B0001F4F1093C4040093C304C6010E946518E3
:1044C000D82E23E0E20EF11CF092C404E092C30463
:1044D000C8010E946518182FCE0101960E9470191C
:1044E000CE0101960E94010D4B015C01CE010596A3
:1044F0000E945114C501B4010E94B7386F3F710585
:104500008105910529F024F06FEF70E080E090E0E4
:104510006130AFEF7A078A079A0724F461E07FEFF2
:104520008FEF9FEFAB01612F8D2D0E94C810E4CE5D
:10453000173009F041C0B2E0EB0EF11CF092C40458
:10454000E092C304C6010E9465180E9415108C01F8
:10455000CE0101960E947019CE0101960E94010DB4
:104560006B017C01CE0105960E94511401151105C5
:1045700009F4C2CEC701B6010E94B73897FF0FC039
:10458000D801EC918E2F90E0FC01EE0FFF1FE80F99
:10459000F91FEC53FA4F80818F7B8083ADCE653B52
:1045A00071058105910524F064EB70E080E090E0F6
:1045B000C8010E943909A0CE183009F06DC0B2E0E0
:1045C000EB0EF11CF092C404E092C304C6010E94F9
:1045D0006518182FCE0101960E947019CE01019620
:1045E0000E94010D6B017C01CE0105960E945114C1
:1045F000C701B6010E94B7386B017C01E1E2CE161B
:10460000EEE4DE06E104F10434F050E2C52E5EE48F
:10461000D52EE12CF12CF4E1CF16D104E104F10404
:104620002CF444E1C42ED12CE12CF12CCE010196C6
:104630000E947019CE0101960E94010D4B015C0190
:10464000CE0105960E94511420E030E0A901C50179
:10465000B4010E94273687FF03C0812C912C54019E
:1046600020E030E04AE754E4C501B4010E948C36F2
:104670000E94BC389B01AC0110930C01211531053F
:104680004105510521F421E030E040E050E0B60161
:10469000812F0E94210330CE193069F422E0E20E0E
:1046A000F11CF092C404E092C304C6010E94651894
:1046B0000E94F50221CE1A3039F5570162E0A60EAC
:1046C000B11CB092C404A092C304C6010E94651834
:1046D000D82E87010D5F1F4F1093C4040093C304AD
:1046E000C5010E946518C82E74E0E70EF11CF09217
:1046F000C404E092C304C8010E946518482F6C2DC1
:104700008D2D0E94E211F8CD1B3009F065C0CE015D
:1047100001960E947019CE0101960E94010D6B0155
:104720007C01CE0105960E945114CE0101960E9493
:104730007019CE0101960E94010D4B015C01CE0162
:1047400005960E945114CE0101960E947019BE0177
:104750006F5F7F4FCE010C960E947118CE010596B7
:104760000E94511480919802882389F1C701B601F3
:104770000E94B7386B017C0184E0C816D104E104C3
:10478000F1042CF033E0C32ED12CE12CF12CF7FEF8
:1047900003C0C12CD12C7601C501B4010E94B738E9
:1047A000DC01CB0184319105A105B10524F083E141
:1047B00090E0A0E0B0E0B7FF03C080E090E0DC0153
:1047C0006C2D0E94C311CE010C960E94A811CE013F
:1047D0000C960E94511490CD1C3019F40E94D611F1
:1047E0008BCD1D31D1F487010E5F1F4F1093C40490
:1047F0000093C304C6010E946518D82EA3E0EA0EF8
:10480000F11CF092C404E092C304C8010E94651830
:10481000682F8D2D0E94940F6FCD1E3109F059C065
:10482000CE0101960E947019CE0101960E94010DE1
:104830006B017C01CE0105960E945114CE010196B8
:104840000E947019CE0101960E94010D4B015C017E
:10485000CE0105960E945114CE0101960E94701956
:10486000BE016F5F7F4FCE010C960E947118CE0182
:1048700005960E945114C701B6010E94B7386B011A
:104880007C01B8E0CB16D104E104F1042CF027E060
:10489000C22ED12CE12CF12CF7FE03C0C12CD12C5F
:1048A0007601C501B4010E94B738603171058105F8
:1048B000910524F06FE070E080E090E097FF03C086
:1048C00060E070E0CB014C2DCE010C960E94850E6D
:1048D0007ECF1F3119F40E94650F0ECD1032C9F43E
:1048E000E2E0EE0EF11CF092C404E092C304C601B3
:1048F0000E946518873008F086E0682F70E08DE22E
:104900000E9407116CE271E080E090E00E94A60234
:10491000F3CC1D3009F063C0F2E0EF0EF11CF09211
:10492000C404E092C304C6010E946518B82ECE01EB
:1049300001960E947019CE0101960E94010D6B0133
:104940007C01CE0105960E945114C701B6010E9458
:10495000B7386B017C012DE3C216D104E104F104E8
:104960002CF09CE3C92ED12CE12CF12C1C141D043D
:104970001E041F0424F0C12CD12C7601C394009195
:104980009602109197020115110589F0D801199628
:104990008D919C910E94E139F8018681978197FD64
:1049A00003C060E00E94D701C8010E94E13986E19E
:1049B00090E00E9445398C014B2D50E0B6010E94D9
:1049C0008E131093970200939602C8010E945A0713
:1049D000C8010E948413C8010E949C068DCC1E3021
:1049E00009F059C0CE0101960E947019CE010196BE
:1049F0000E94010D6A8B7B8B8C8B9D8BCE01059663
:104A00000E945114CE0101960E947019CE010196A8
:104A10000E94010D6B017C01CE0105960E9451148C
:104A2000CE0101960E947019CE0101960E94010DDF
:104A30004B015C01CE0105960E945114CE010196F6
:104A40000E947019CE0101960E94010D2B013C01BC
:104A5000CE0105960E945114C301B2010E94B738DD
:104A60002B013C01C501B4010E94B7384B015C0128
:104A7000C701B6010E94B7386B017C016A897B8946
:104A80008C899D890E94B738CB019201A401B6019F
:104A90000E949E0D31CC1F3049F400919602109176
:104AA00097020115110509F093CF26CC103109F0BA
:104AB0003FC087010E5F1F4F1093C4040093C304CF
:104AC000C6010E946518B82EF3E0EF0EF11CF092BB
:104AD000C404E092C304C8010E946518182FCE01D7
:104AE00001960E947019CE0101960E94010D6B0182
:104AF0007C01CE0105960E945114612F8B2D0E94DE
:104B0000AB14882309F4F8CBC701B6010E94B7386B
:104B10006F3171058105910524F06EE170E080E050
:104B200090E097FF03C060E070E0CB0186E01EC01C
:104B30001131F9F4CE0101960E947019CE0101964F
:104B40000E94010D6B017C01CE0105960E9451145B
:104B5000C701B6010E94B7381616170618061906BF
:104B600024F061E070E080E090E083E00E94AF0F0D
:104B7000C3CB123179F4CE0101960E947019CE0197
:104B800001960E94010D6B017C01CE0105960E94E9
:104B90005114BACF70E060E086E1133139F314317B
:104BA000F1F487010E5F1F4F1093C4040093C304F8
:104BB000C6010E946518D82E23E0E20EF11CF09287
:104BC000C404E092C304C8010E946518182F0E9413
:104BD0006931AC01612F8D2D0E9459148DCB153197
:104BE00011F50091A1041091A20401151105C9F15C
:104BF000C8010E947E08CE0101960E947019BE0174
:104C00006F5F7F4FCE010C960E947118BE01645FEA
:104C10007F4FC8010E947715CE010C960E94511457
:104C2000CE010596D6CD1B3109F50091A104109156
:104C3000A20401151105A9F0C8010E947E08CE0149
:104C400001960E947019BE016F5F7F4FCE010C96D6
:104C50000E947118BE01645F7F4FC8010E946E05FB
:104C6000DBCFCE0101960E947019DACF1C3111F50D
:104C700062E0E60EF11CF092C404E092C304C601A7
:104C80000E946518182FCE0101960E947019BE016E
:104C90006F5F7F4FCE010C960E947118612FCE017D
:104CA0000C960E94930BCE010C960E945114CE01DB
:104CB00005968FCD1631F1F469EF71E080910E0108
:104CC00090910F010E947D0500910E0110910F013E
:104CD000CE0101960E947019BE016F5F7F4FCE0119
:104CE0000C960E947118BE01645F7F4FC8010E943C
:104CF0007715D9CF173139F40E9469319093C404E4
:104D00008093C304F9CA183191F4CE0101960E9430
:104D10007019CE0101960E94E40C182FCE01059661
:104D20000E9451140E9469311111E6CAE7CF19316E
:104D3000A9F5CE0101960E947019CE0101960E943C
:104D4000010D0E94B7386B017C01CE0105960E94CF
:104D500051140E9469319C011C141D041E041F047F
:104D60002CF03093C4042093C304C6CA90919902D6
:104D70009430B8F776E0979FF0011124E258FD4F88
:104D80002091C3043091C40431832083C282D38232
:104D9000E482F5829F5F90939902AECA1A3139F589
:104DA0000E9469319C0190919902992309F4A4CA47
:104DB000A92FA150BB0B86E08A9FF0018B9FF00DBD
:104DC0001124E258FD4F4281538164817581415025
:104DD00051096109710942835383648375831416F1
:104DE0001506160617060CF4BCCF9150D4CF1092BE
:104DF000DE0382CA009719F00E946533BC01CB0123
:104E00000895A3E2B0E0E7E0F7E20C9487378C0165
:104E10006EE571E00E94303B892B31F40E949D15B4
:104E2000A396EDE00C94A33763E671E0C8010E94FD
:104E300082337C0163E671E090E080E00E9482337F
:104E40008C01E114F10461F3892B51F365E671E003
:104E5000C7010E94303B892B09F090C163E671E0E5
:104E600090E080E00E9482337C015E0122E1A20E8C
:104E7000B11CD12C63E671E090E080E00E948233A7
:104E8000D5018D939D935D01892B21F0D394B6E0DC
:104E9000DB12F0CFE114F10419F267E671E0C7010B
:104EA0000E94303B892BD1F4DD20C1F070E060E03E
:104EB0008A899B899FDFF82E60E00E94D7018F2DA1
:104EC0000E948201BC01990F880B990B0E942D361C
:104ED000AB01BC01C8010E946F16A2CF68EC71E063
:104EE000C7010E94303B892BA1F4DD2091F070E0D6
:104EF00060E08A899B897EDF97FD07C08630910537
:104F000034F4825F0E946C02DDCF8EE0FBCF83E140
:104F1000F9CF6AE671E0C7010E94303B892BB1F4FA
:104F2000DD20A1F070E060E08A899B8963DFF82EC4
:104F300060E00E94D7018F2D0E948201019709F045
:104F4000AFC040E050E060E87FE3C4CF61E771E0CC
:104F5000C7010E94303B892B91F4E1E0ED1578F414
:104F600070E060E08C899D8945DFF82E70E060E09C
:104F70008A899B893FDF6F2D0E941819A7CF67E7A9
:104F800071E0C7010E94303B892B91F4F1E0FD15DF
:104F900078F470E060E08C899D892CDFF82E70E059
:104FA00060E08A899B8926DF6F2D0E943D118ACFA0
:104FB0006CE771E0C7010E94303B892B31F522E09C
:104FC0002D1518F570E060E08A899B8913DFF82EB3
:104FD00070E060E08E899F890DDF6C0170E060E019
:104FE0008C899D8907DF93E140E050EC69E774EC20
:104FF0009F1508F46FCF41E0C114D10409F440E0DB
:10500000682F8F2D0E94EA0B63CF60E871E0C70123
:105010000E94303B892B41F5A1E0AD1528F51A829D
:10502000198270E060E08C899D89E4DEF12C97FDA7
:1050300005C0F82E059714F064E0F62E70E060E0ED
:105040008A899B89D7DE97FF02C090E080E0AE019D
:105050004F5F5F4F6F2D0E94241369817A81072E65
:10506000000C880B990B32CF66E871E0C7010E94F3
:10507000303B892BC9F4E090A104F090A204E11424
:10508000F10471F0C7010E947E08D701ED91FC91F7
:105090000084F185E02DC7010995892B09F051CFD6
:1050A00040E050E0BA0116CF6EE871E0C7010E94FF
:1050B000303B892BA9F7CE014E960E94151766EF5B
:1050C00071E080910E0190910F010E947D05B80161
:1050D00080910E0190910F010E9419156CE2809150
:1050E0000E0190910F010E94660581E1E5E5F2E075
:1050F000DE01119601900D928A95E1F7F12CE12CD9
:10510000C0900E01D0900F018AA19BA1E816F9066C
:1051100058F5B701CE014E960E94E302182FE82FF2
:10512000F0E054E0F595E7955A95E1F781E090E0DD
:105130008C0F9D1FE80FF91F6081C6010E94660554
:10514000E12FEF70A1E0B0E0AC0FBD1FAE0FB11DBD
:10515000FD01608180910E0190910F010E94660512
:10516000BFEFEB1AFB0ACCCF60E571E0C6010E94ED
:105170001915CE014E960E94511452CE65E971E088
:10518000C7010E94303B892B09F083C3FE01319691
:105190006F01F12C63E671E090E080E00E948233C1
:1051A000D6018D939D936D01892B09F06DC367E93D
:1051B00071E0C8010E94303B892BC9F4B1E0BF15F2
:1051C000B0F470E060E089819A8114DE182F61E00C
:1051D0000E94D70170E060E08B819C810BDE61E072
:1051E000892B09F460E0812F0E94AA0119CE6AE997
:1051F00071E0C8010E94303B892B01F5E1E0EF1519
:10520000E8F470E060E089819A81F4DD182F61E0B4
:105210000E94D70170E060E08B819C81EBDD8F3FC5
:10522000910519F014F08FEF90E097FF02C090E025
:1052300080E0BC01812F0E941302F2CD6DE971E084
:10524000C8010E94303B892BD1F4F2E0FF15B8F47D
:1052500070E060E089819A81CDDD182F70E060E018
:105260008B819C81C7DD082F70E060E08D819E817D
:10527000C1DDAC01602F812F0E94C810D1CD63EA3F
:1052800071E0C8010E94303B892B79F521E02F1590
:1052900060F570E060E089819A81ACDD0E941510B4
:1052A0008C0170E060E08B819C81A4DD011511050B
:1052B00009F4B6CD97FF0FC0D801EC918E2F90E086
:1052C000FC01EE0FFF1FE80FF91FEC53FA4F80812E
:1052D0008F7B8083A5CDBC01853B910514F064EBE9
:1052E00070E0C8010E9439099BCD6BEA71E0C801EA
:1052F0000E94303B892B79F5B2E0BF1560F570E074
:1053000060E089819A8176DD182F80930C0170E02E
:1053100060E08D819E816EDD1816190614F081E023
:1053200090E06C01990FEE08FF0870E060E08B815F
:105330009C8160DD64E170E08431910534F0BC0152
:1053400081329E4414F060E27EE4A7019601812F31
:105350000E94210365CD69EA71E0C8010E94303BDB
:10536000892B51F4FF2041F070E060E089819A813F
:1053700041DD0E94F50254CD60EB71E0C8010E944E
:10538000303B892BC9F4F2E0FF15B0F470E060E027
:105390008D819E812FDD082F70E060E08B819C81E4
:1053A00029DD182F70E060E089819A8123DD402F8C
:1053B000612F0E94E21134CD69EB71E0C8010E94B7
:1053C000303B892B11F522E02F15F8F480919802DB
:1053D0008823D9F070E060E089819A810BDD182F75
:1053E00070E060E08B819C8105DD612F0E94C3111C
:1053F0006D817E81CE0142960E946217CE01429657
:105400000E94A811CE014296B6CE62EC71E0C801AE
:105410000E94303B892B39F480919802882319F03F
:105420000E94D611FDCC6BEC71E0C8010E94303BAC
:10543000892B91F481E08F1578F461E070E08B8125
:105440009C81D8DC182F6CE370E089819A81D2DCD2
:10545000612F0E94940FE4CC65ED71E0C8010E94B9
:10546000303B892B01F592E09F15E8F480917002A2
:105470008823C9F070E060E089819A81BBDC082F45
:1054800070E060E08B819C81B5DC182F6D817E819E
:10549000CE0142960E946217402F612FCE014296A4
:1054A0000E94850EAFCF6FED71E0C8010E94303BC6
:1054B000892B39F480917002882319F00E94650FBE
:1054C000AFCC69EE71E0C8010E94303B892BE1F45A
:1054D000FF20D1F070E060E089819A818BDC97FD3C
:1054E0000FC08730910574F4682F70E08DE20E9440
:1054F00007116CE271E080E090E00E94A60290CC7F
:1055000080E0F2CF86E0F0CF62EF71E0C8010E9448
:10551000303B892B09F04AC0A1E0AF1508F046C026
:1055200000919602109197020115110589F0F8017A
:10553000818592850E94E139D80116968D919C91C2
:1055400097FD03C060E00E94D701C8010E94E139C5
:1055500070E060E08B819C814DDC1816190634F4F4
:105560007C01CD9734F03CE3E32E02C0EE24E394BB
:10557000F12C70E060E089819A813CDC6C0186E16D
:1055800090E00E9445398C01A601B7010E948E135C
:105590001093970200939602C8010E945A07C8010F
:1055A0000E948413C8010E949C063ACC6BEF71E004
:1055B000C8010E94303B892B31F5B3E0BF1518F5C7
:1055C0008091960290919702892BE9F070E060E05B
:1055D0008F8198850FDC6C0170E060E08D819E8189
:1055E00009DC7C0170E060E08B819C8103DC8C0134
:1055F00070E060E089819A81FDDB9601A701B80126
:105600000E949E0D0DCC62E072E0C8010E94303B0A
:10561000892B61F4C0909602D0909702C114D104F6
:1056200029F0C6010E948413C601BDCF6BE072E071
:10563000C8010E94303B892B91F5E1E0EF1578F528
:10564000F2E004E110E0FF1671F070E060E08D819F
:105650009E81D0DB8C014F9714F00EE110E017FF14
:1056600002C010E000E070E060E08B819C81C2DB52
:10567000F82E70E060E089819A81BCDB6F2D0E947A
:10568000AB14882309F4CCCBB80186E00E94AF0F9D
:105690006CEE71E080910E0190910F013CC264E1CB
:1056A00072E0C8010E94303B892B89F4FF2079F019
:1056B00070E060E089819A819DDB1816190614F06C
:1056C00081E090E0BC0183E00E94AF0FA9CB6CE1C8
:1056D00072E0C8010E94303B892B91F4FF2081F0D9
:1056E00070E060E089819A8185DB97FD05C0BC018F
:1056F0004F9724F06EE101C060E070E086E0E4CFF7
:1057000063E272E0C8010E94303B892B21F470E013
:1057100060E086E1D9CF6BE272E0C8010E94303BC5
:10572000892BC9F422E02F15B0F460E875E28D8171
:105730009E8160DB7C0170E060E08B819C815ADBA4
:10574000182F70E060E089819A8154DBA701612FF6
:105750000E94591465CB63E372E0C8010E94303B9C
:10576000892BC9F4FF20B9F0C090A104D090A20405
:10577000C114D10481F0C6010E947E0869817A813A
:10578000CE0142960E946217BE016E5E7F4FC60137
:105790000E94771537CE6AE372E0C8010E94303B61
:1057A000892BC9F4FF20B9F0C090A104D090A204C5
:1057B000C114D10481F0C6010E947E0869817A81FA
:1057C000CE0142960E946217BE016E5E7F4FC601F7
:1057D0000E946E0517CE60E472E0C8010E94303B63
:1057E000892BD9F481E08F15C0F470E060E08981E5
:1057F0009A8100DB10E097FD04C0182F02970CF08F
:1058000011E06B817C81CE0142960E946217612F6C
:10581000CE0142960E94930BF5CD6CEB71E0C8016E
:105820000E94303B892BC9F4FF20B9F067EE71E08C
:1058300080910E0190910F010E947D0500910E0153
:1058400010910F0169817A81CE0142960E94621700
:10585000BE016E5E7F4FC8019BCF66E272E0C80159
:105860000E94303B892B09F0DBCA1092DE031092B4
:10587000DA031092DB031092DC031092DD03109226
:1058800099020E94F00FCCCAF39497E0F91282CCEF
:105890008ECC69E272E0C7010E94303B892B09F08F
:1058A000BFCADE0111966D01F12C63E671E090E054
:1058B00080E028D7F601819391936F01892B09F03D
:1058C00041C16EE072E0C8010E94303B892BD9F5DE
:1058D000F2E0FF15C0F570E060E089819A818ADA14
:1058E0008C0190936F0280936E0270E060E08B8178
:1058F0009C8180DA7C0190936D0280936C0270E051
:1059000060E08D819E8176DA90936B0280936A02CB
:10591000C8010197873F934020F481E00E151F05D1
:1059200008F480E0809369021092DE0360E090E06A
:1059300080E00E94DA178091690269ED71E08823A6
:1059400009F46ECAA7CE67E472E0C8010E94303B3A
:10595000892B09F05BC081E08F1508F057C080915A
:105960006902882309F452C070E060E089819A815D
:1059700041DAAB81BC81FD0101900020E9F731974C
:105980007F01EA1AFB0AF694E7944C018E0C9F1CE7
:1059900020916E0230916F022815390520F18D019A
:1059A000D12CC12C5C01A9E0AA0EB11CEC14FD04A1
:1059B000E9F0F80180810E946811782ED8011196D3
:1059C0008C910E946811B0E17B9EB0011124682B7C
:1059D000C5018C0D9D1D0E94DA17EFEFCE1ADE0A6D
:1059E0000E5F1F4FE3CF109269021ACA6BEC71E091
:1059F00080910E0190910F010E947D05B40180916C
:105A00000E0190910F010E9429150ACA6CE472E000
:105A1000C8010E94303B892B09F066C08091690261
:105A2000882309F461C0C0906E02D0906F0210E02C
:105A300000E0F12CE12CC016D10649F0C80109960E
:105A40000E94EB17E80EF11C0F5F1F4FF4CF8091FF
:105A50006A0290916B028E159F0529F66DE481E034
:105A600090E00E94DA1761E082E090E00E94DA178D
:105A700060916E0283E090E00E94DA1760916F02FD
:105A800084E090E00E94DA1760916C0285E090E07B
:105A90000E94DA1760916D0286E090E00E94DA17AA
:105AA00060916A0287E090E00E94DA1760916B02D1
:105AB00088E090E00E94DA176FE490E080E00E94B6
:105AC000DA17109269020E94F00F0E94EE1764EC40
:105AD00071E080910E0190910F010E947D0560910F
