:100000008BC10000B1C10000AFC100000C941725E6
:100010000C9417250C941725A7C100000C94632499
:10002000A3C10000A1C100009FC100000C948F2556
:100030009BC1000099C1000097C1000095C100005C
:100040000C94192491C100000C94E5240C94BF2455
:100050008BC1000089C1000087C1000085C100007C
:100060000C944B2681C1000007634236B79BD8A78A
:100070001A39685618AEBAAB558C1D3CB7CC5763CD
:10008000BD6DEDFD753EF6177231BF000000803F7B
:1000900008000000BE922449123EABAAAA2ABECD97
:1000A000CCCC4C3E00000080BEABAAAAAA3E000009
:1000B0000000BF000000803F000000000008417801
:1000C000D3BB4387D1133D190E3CC3BD4282AD2B38
:1000D0003E68EC8276BED98FE1A93E4C80EFFFBE30
:1000E00001C4FF7F3F00000000004E414E494E49D1
:1000F0005459494E46CDCCCC3D0AD7233C17B7D1F5
:100100003877CC2B329595E6241FB14F0A0000209A
:10011000410000C84200401C4620BCBE4CCA1B0E19
:100120005AAEC59D7400407A10F35A00A0724E1862
:10013000090010A5D4E80000E87648170000E40B99
:1001400054020000CA9A3B000000E1F5050000805F
:10015000969800000040420F000000A086010000B9
:1001600000102700000000E8030000000064000009
:100170000000000A00000000000100000000002C48
:1001800076D888DC674F0823DFC1DFAE59E1B1B70D
:1001900096E5E3E453C63AE651997696E8E6C284DA
:1001A00026EB898C9B62ED407C6FFCEFBC9C9F40F2
:1001B000F2BAA56FA5F490055A2AF75C936B6CF917
:1001C000676DC11BFCE0E40D47FEF520E6B500D0ED
:1001D000ED902E0300943577050080841E08000002
:1001E000204E0A000000C80C333333330F986E12D0
:1001F000831141EF8D2114893BE65516CFFEE6DBD6
:1002000018D1844B381BF77C1D901DA4BBE424201F
:100210003284725E228100C9F124ECA1E53D2752AF
:10022000454144592C4F4D2C00562C00AED580A88A
:100230003FD300408D142002A1C8DA1281CFD9F13A
:10024000DB40A4A6AF1F111F001F001D15171515B9
:100250001F07041F17151D1F151D01011F1F151F47
:1002600017151F41542B4E414D45000D0A004154B6
:100270002B4E414D453D004C4F472C0002542C0065
:100280004C4F472C004D50335F5245414459004F6D
:100290004B00455252004F4B0053415645442C00F1
:1002A00050524F4752414D5F444154412C005052EF
:1002B0004F4752414D5F52454144590000000000F4
:1002C000240027002A0000000008000201000003AB
:1002D00004070000000000000000000000002300F0
:1002E00026002900010204081020408001020408B1
:1002F0001020010204081020000000002500280042
:100300002B00040404040404040402020202020296
:10031000030303030303D62711241FBECFEFD8E046
:10032000DEBFCDBF12E0A0E0B1E0E2E4F6E702C03C
:1003300005900D92A036B107D9F725E0A0E6B2E00E
:1003400001C01D92A536B207E1F711E0CCE8D1E07B
:1003500004C02197FE010E941E39CB38D107C9F78E
:100360000E944D280C941F3B4BCE833081F028F423
:10037000813099F08230A9F008958730A9F0883053
:10038000C9F08430B1F4809180008F7D03C08091EA
:1003900080008F7780938000089584B58F7784BD27
:1003A000089584B58F7DFBCF8091B0008F778093C7
:1003B000B00008958091B0008F7DF9CFCF93DF9387
:1003C000282F30E0F901EA53FD4F8491F901EC51F7
:1003D000FD4FD491F901EE5FFC4FC491CC2399F00D
:1003E0008111C3DFEC2FF0E0EE0FFF1FE652FD4F4F
:1003F000A591B491EC91ED2381E090E009F480E0C7
:10040000DF91CF91089580E090E0FACF1F93CF93D2
:10041000DF93282F30E0F901EA53FD4F8491F90171
:10042000EC51FD4FD491F901EE5FFC4FC491CC2308
:10043000A1F0162F811199DFEC2FF0E0EE0FFF1FD6
:10044000E850FD4FA591B4918FB7F894EC9111113C
:1004500008C0D095DE23DC938FBFDF91CF911F9131
:100460000895DE2BF8CFCF93DF9390E0FC01EC51A1
:10047000FD4F24918E5F9C4FFC0184918823C9F02D
:1004800090E0880F991FFC01E454FD4FA591B491B1
:10049000FC01E850FD4FC591D49161110DC09FB78B
:1004A000F8948C91209582238C938881282328832B
:1004B0009FBFDF91CF910895623051F49FB7F894B8
:1004C0003C91822F809583238C93E8812E2BEFCF54
:1004D0008FB7F894EC912E2B2C938FBFEACF1F93FC
:1004E000CF93DF93182FEB0161E0BDDF209739F444
:1004F00060E0812F8BDFDF91CF911F910895CF3F77
:10050000D10511F461E0F5CFE12FF0E0EA53FD4FA2
:10051000E491E33019F140F4E130B1F0E230C9F098
:10052000C038D1057CF7E4CFE73011F1E83041F174
:10053000E430B1F780918000806280938000D09396
:100540008B00C0938A00D7CF84B5806884BDC7BDB7
:10055000D2CF84B5806284BDC8BDCDCF80918000EC
:10056000806880938000D0938900C0938800C3CFB7
:100570008091B00080688093B000C093B300BBCF7F
:100580008091B00080628093B000C093B400B3CF7C
:100590008E3008F08E508770806480937C0080914C
:1005A0007A00806480937A0080917A0086FDFCCF87
:1005B000809178009091790008953FB7F8948091E8
:1005C0000B0490910C04A0910D04B0910E0426B57B
:1005D000A89B05C02F3F19F00196A11DB11D3FBF7B
:1005E000BA2FA92F982F8827BC01CD01620F711D4A
:1005F000811D911D42E0660F771F881F991F4A9544
:10060000D1F708958F929F92AF92BF92CF92DF92CF
:10061000EF92FF924B015C01D0DF6B017C01CDDFDB
:100620006C197D098E099F09683E7340810591050B
:10063000B0F321E0821A9108A108B10888EEC80E33
:1006400083E0D81EE11CF11C81149104A104B104C3
:1006500031F7FF90EF90DF90CF90BF90AF909F90D9
:100660008F900895089590910C0189130BC0ECE7C9
:10067000F2E0E4919FEF90930C01E13049F028F013
:10068000E23061F060E0C2CE089510926E00FACFC1
:1006900090916F009D7F90936F00F4CF90917000C8
:1006A0009D7F9093700091E09093B0009091B10085
:1006B000987F94609093B1001092B300E3CFA5E0CF
:1006C000B0E0E5E6F3E00C9463368B0129013A01D2
:1006D00090910C01891739F09F3F09F46BC0259662
:1006E000E0E10C947F36ECE7F2E094919D8397FD76
:1006F000F6CF61E0B8DE8D81882321F09D819230B4
:1007000009F049C14801B12CA12C60E072E18AE7EF
:1007100090E0A50198010E94353629833A834B83E6
:100720005C8369017A0181E0C81AD108E108F10807
:100730009FEFC916D104E104F10409F00CF400C1E3
:1007400060E472E48FE090E0A50198010E943536E4
:1007500069017A0181E0C81AD108E108F1089D8198
:10076000923009F0A1C08FEFC816D104E104F10462
:1007700009F00CF4E7C160E970ED83E090E0A501B9
:1007800098010E94353669017A0191E0C91AD108B1
:10079000E108F1088FEFC816D104E104F10411F06B
:1007A0000CF080C183E09091B100987F892B8093F9
:1007B000B100CEC080930C01ECE7F2E094919D83F0
:1007C0009F3F09F48CCF913039F148F0923009F411
:1007D00045C09D8197FD83CF61E045DE8FCF14BC7E
:1007E00015BC94B5926094BD95B5916095BD282FC8
:1007F00030E0F901EE5FFC4FE491F0E0EE0FFF1FF7
:10080000E850FD4F45915491F901EC51FD4FE491B1
:10081000E0932E031D826DCF109280001092810014
:1008200090918100986090938100909181009160F7
:1008300090938100282F30E0F901EE5FFC4FE491A6
:10084000F0E0EE0FFF1FE850FD4F45915491F90184
:10085000EC51FD4FE491E0932D034BCF1092B0008B
:100860001092B1009091B00092609093B00090917E
:10087000B10091609093B100282F30E0F901EE5F54
:10088000FC4FE491F0E0EE0FFF1FE850FD4F459163
:1008900054915093380340933703F901EC51FD4FC5
:1008A000E491E093390325CF9FEFC916D104E10409
:1008B000F10409F00CF46DC068E478EE81E090E09A
:1008C000A50198010E94353669017A0181E0C81AB4
:1008D000D108E108F1089D81992309F4FCC08FEF4C
:1008E000C816D104E104F10411F00CF0FDC0F1C010
:1008F00064E274EF80E090E0A50194010E94353637
:1009000069017A0181E0C81AD108E108F10885E09F
:100910009FEFC916D104E104F10409F008F443CFB4
:1009200062E17AE780E090E0A50194010E9435360B
:1009300069017A0181E0C81AD108E108F108E7C02D
:1009400081E09D8191112FCF95B5987F892B85BD31
:100950002FEF3FEFA901411451046104710409F024
:1009600045C09D81913009F460C0923009F46FC098
:100970009111B5CEC7BC2093330330933403409319
:1009800035035093360380916E00826080936E0031
:10099000A6CE82E0D6CF4801B12CA12C60E072E156
:1009A0008AE790E0A50198010E94353669017A0135
:1009B00081E0C81AD108E108F108C114D10491E01E
:1009C000E906F1040CF591E08D81813009F0C0CF8A
:1009D00080918100887F892B809381002FEF3FEFEA
:1009E000A9014114510461047104F9F0D801AA0F5E
:1009F000BB1FA30192010E94513628EE33E040E074
:100A000050E00E941336ADCF68E478EE81E090E0CC
:100A1000A50198010E94353669017A0181E0C81A62
:100A2000D108E108F10893E0CFCFD0928900C092BD
:100A3000880020932F033093300340933103509369
:100A4000320380916F00826080936F0048CEC09225
:100A5000B30020933A0330933B0340933C035093FD
:100A60003D038091700082608093700038CE84E0F6
:100A70009FEFC916D104E104F10409F008F464CF32
:100A8000C980DA80EB80FC808AE0F594E794D79403
:100A9000C7948A95D1F781E0C81AD108E108F10816
:100AA00085E052CF68E478EE81E090E0A5019801FE
:100AB0000E94353669017A0181E0C81AD108E1083F
:100AC000F1089FEFC916D104E104F10411F00CF014
:100AD0000FCF84E068CE83E09FEFC916D104E10414
:100AE000F10409F00CF430CF62E17AE780E090E0A5
:100AF000A50194010E94353669017A0181E0C81A86
:100B0000D108E108F1089D81992309F4B0CF86E06E
:100B10009FEFC916D104E104F10409F008F443CEB3
:100B2000C980DA80EB80FC809AE0F594E794D79452
:100B3000C7949A95D1F781E0C81AD108E108F10865
:100B400087E031CE82E02FCEDB0114964D915C918F
:100B500015976D917C91DC01ED91FC910280F38100
:100B6000E02D09950895EF92FF920F931F93CF9375
:100B7000DF938C017B01D0E0C0E0F701EC0FFD1F9B
:100B80006491662361F0D801ED91FC910190F081B0
:100B9000E02DC8010995892B11F02196EECFCE01E9
:100BA000CDB7DEB7E6E00C948936B0E0A0E0EBED1F
:100BB000F5E00C9469366C017B018B01040F151F65
:100BC000EB015E01AE18BF08C017D10759F069915B
:100BD000D601ED91FC910190F081E02DC6010995BF
:100BE000892B79F7C501CDB7DEB7EAE00C948536DD
:100BF000FC01538D448D252F30E0842F90E0821B23
:100C0000930B541710F0CF96089501970895FC01A7
:100C1000918D828D981761F0A28DAE0FBF2FB11DFF
:100C20005D968C91928D9F5F9F73928F90E0089557
:100C30008FEF9FEF0895FC01918D828D981731F011
:100C4000828DE80FF11D858D90E008958FEF9FEF65
:100C50000895FC01918D228D892F90E0805C9F4F3B
:100C6000821B91098F739927089583E894E0F1DF3F
:100C700021E0892B09F420E0822F089580E090E0A4
:100C8000892B21F0F2DF81110E9400000895FC0100
:100C9000A48DA80FB92FB11DA35ABF4F2C91848DDD
:100CA00090E001968F739927848FA689B7892C933A
:100CB000A089B1898C91837080648C93938D848D8D
:100CC000981306C00288F389E02D80818F7D808390
:100CD0000895EF92FF920F931F93CF93DF93EC0150
:100CE00081E0888F9B8D8C8D981318C0E889F989D5
:100CF000808185FF13C09FB7F894EE89FF896083D8
:100D0000E889F98980818370806480839FBF81E056
:100D100090E0CDB7DEB7E6E00C948936F62E0B8D69
:100D200010E00F5F1F4F0F731127E02E8C8D8E1177
:100D30000BC00FB607FCFACFE889F989808185FFDF
:100D4000F5CFCE01A4DFF2CFEB8DEC0FFD2FF11D1F
:100D5000E35AFF4FF0829FB7F8940B8FEA89FB8923
:100D600080818062D2CF682F83E894E0B2CF08956B
:100D7000CF93DF93EC01888D8823B1F0AA89BB89DA
:100D8000E889F9898C9185FD03C0808186FD0CC0BE
:100D90000FB607FCF7CF8C9185FFF2CF808185FFDE
:100DA000EDCFCE0174DFEACFDF91CF910895A9E0B6
:100DB000B0E0EDEDF6E00C946B368C01DC01199699
:100DC0008D919C91892B09F471C0F7DBF801C784E0
:100DD000D088E188F2886C157D058E059F0520F48A
:100DE0006787708B818B928BF801C784D088E188EC
:100DF000F2886C197D098E099F096C32714081055A
:100E0000910518F3F894D80114968D919C9115973B
:100E10009A8389831996ED91FC917F01BFEFEB1ABC
:100E2000FB0A80818987F80190810388F489E02D8D
:100E3000D80155968C91992309F43CC09081982B48
:100E400098879081809589238F838F818C8388E018
:100E50008B8358856F8149853B812C8189819A815B
:100E6000D701508347FD252F3A952083262F39F04F
:100E7000441F00C000006083000000C0F2CF38E0D3
:100E80004D9160830000019761F7D8015496FC935F
:100E9000EE93539749873B832C839A838983789475
:100EA0008CDBF8016787708B818B928B2996E8E049
:100EB0000C9487369081982B988790818095892310
:100EC0008F838F818E8388E08D8358856F814985DC
:100ED0003D812E8189819A81D701508347FD252F3D
:100EE00000C000C0208300C000C000C000C000C01F
:100EF00060830000262F3A9541F0441F000000C097
:100F000000C000C000C000C0E8CF38E04D9100C074
:100F1000608300C0019709F7D8015496FC93EE93C3
:100F2000539749873D832E83B8CFCF93DF93EC014E
:100F30008E819F8197FD0AC061E095DA60E08E8125
:100F400065DA81E08983DF91CF910895198280E08D
:100F5000FACF20912B0330912C032817390771F415
:100F600090912A0380912903981741F0E0912A0378
:100F7000F0E0E751FD4F808190E008958FEF9FEF03
:100F800008950895EF92FF920F931F93CF93DF93ED
:100F9000DC015C96ED90FC905D97E114F10469F43E
:100FA00081E090E013969C938E93129790E080E0FE
:100FB000CDB7DEB7E6E00C9489365196ED91FC9101
:100FC000529750968C915097982F90950FB75E96A8
:100FD0002C915E97122F127021FD6095F89420815C
:100FE000112319F1282B2083E7012197F1F728E03D
:100FF000462F50E0308160FF1AC0382B3083E70164
:101000002197F1F7BA0175956795215089F711235A
:1010100081F08081892380830FBF5C968D919C91A4
:101020000197F1F781E090E0C3CF2923DCCF39238A
:10103000E5CF9081892BEFCF20912B0330912C03AA
:101040002817390761F48091290320912A0390E041
:10105000805C9F4F821B91098F739927089590E0C0
:1010600080E0089520912B0330912C032817390735
:10107000B9F490912A0380912903981789F0E0919F
:101080002A03F0E0E751FD4F808120912A0330E0F0
:101090002F5F3F4F2F73332720932A0390E008954B
:1010A0008FEF9FEF08951F93CF93DF93EC01162FDF
:1010B00060E0812FD8D98E8D81FD03C061E0812F42
:1010C000A5D91C87812F90E0FC01EC51FD4FE491E4
:1010D000ED87FC01EE5FFC4FE491F0E0EE0FFF1FA7
:1010E000E652FD4F859194919F878E87DF91CF9136
:1010F0001F9108951F93CF93DF93EC01162F6E8DF0
:101100006695617081E06827812F80D961E0812F29
:10111000AAD9812F90E0FC01EC51FD4FE491E88BBE
:10112000FC01EE5FFC4FE491F0E0EE0FFF1FE85092
:10113000FD4F859194919A8B898BDF91CF911F916F
:101140000895FC018CE191E09183808380912B03D1
:1011500090912C03E817F90759F4A389B4899C915D
:101160008589809589238C9310922C0310922B03F0
:101170000895CF93DF93FC01828D938D892B41F1EC
:10118000A0912B03B0912C03AE17BF0709F1109764
:1011900051F05396CD91DC915497988155968C914E
:1011A000809589238883868D8E7F868F1092290370
:1011B00010922A03F0932C03E0932B03A389B489A4
:1011C0008C919589892B8C9381E0DF91CF91089543
:1011D00080E0FBCFCF93DF93EC019A01AB011B8E34
:1011E0001A8E198E188E1F8A1E8A60E079E08DE3B0
:1011F00090E00E943536F901C9010397243031058A
:1012000010F481E090E09D8F8C8F6C85663108F042
:1012100053C0C901969587958431910508F451C052
:1012200043979F8B8E8BC9010597369710F481E009
:1012300090E0998F888FC901880F991F280F391F57
:1012400036952795369527952D30310508F43CC005
:101250002C5031093B8F2A8F9091680084E06830D0
:1012600048F021E06E3008F420E081E001C0880FF2
:101270002A95EAF7892B809368009C852DE630E05B
:10128000983050F02BE630E09E3030F02CE630E025
:10129000963110F030E020E03C8B2B8B292F30E092
:1012A0009830A8F481E001C0880F9A95EAF78D8BF9
:1012B0008C8D9D8D0197F1F7CE015BDFDF91CF9192
:1012C000089581E090E0ADCF21E030E0C3CF9E30C3
:1012D00040F42850310981E001C0880F2A95EAF7CF
:1012E000E6CF2E503109F7CFCF92DF92EF92FF92E7
:1012F000CF93DF93EC01603282E07807CCF5653B59
:10130000710514F064EB70E0898128E830E0281B57
:10131000310987FD3395220F331F220F331F6901D7
:10132000330FEE08FF088A8128E532E0281B3109D7
:1013300087FD3395220F331F220F331F032E000C1E
:10134000440B550B2C193D094E095F09DB0177FF52
:1013500002C0B0E0A0E00E945B3624EB30E040E049
:1013600050E00E943536C20ED31EE41EF51EB601B3
:10137000E881EC3070F5298188E890E0821B9109C2
:1013800027FD9395880F991F880F991F6817790774
:101390007CF02A8188E592E0821B910927FD9395D4
:1013A000880F991F880F991F681779070CF4CB01D4
:1013B0000297880F991F4FB7F8942E2F30E0F9014C
:1013C000EE0FFF1FE20FF31FE45DFA4F928381835C
:1013D0004FBFDF91CF91FF90EF90DF90CF900895B6
:1013E0002091C302260F3327331F21323105ECF43D
:1013F00020915904FC0190E080E0243069F082E003
:101400000895A091C3022191AC014F555D4FA40FE7
:10141000B52FB11D2C930196861798F38091C302C6
:10142000680F6093C30280E0089581E008951092F0
:10143000590481E0809358041092330461E082E102
:101440000E94060261E083E10E940602E9EBF0E0FF
:1014500080818E7F808380818D7F808388E48093EC
:10146000B80085E48093BC000895CF93DF9391E0AA
:101470009093A0028823B1F0C091B800D091BA0037
:101480008091BC008A7B8093BC0060E082E10E9476
:10149000060260E083E10E940602C9DFD093BA0031
:1014A000C093B800DF91CF910895B0E0A0E0EBE5E4
:1014B000FAE00C946B36D091820481E0D13208F0CE
:1014C00097C0C091810479D86B017C018091590447
:1014D000811169C082E08093590481E080935804AF
:1014E0008FEF8093570410925604D0935504A1E6D1
:1014F000B4E0E5E3F4E080E0D81385C01092340452
:1015000080913404CC0FC82BC093340480913304F1
:10151000813009F07CC0109233044FD86B017C01FC
:10152000809134048093BB0080915B0490915C04B3
:10153000A0915D04B0915E04892B8A2B8B2B99F0CE
:101540003CD800915B0410915C0420915D043091C3
:101550005E046C197D098E099F0906171707280775
:10156000390708F441C08091BC0083FDD9CF85ECD8
:101570008093BC0022D86B017C0180915904823099
:1015800009F447C0809157048F3F09F464C08091EB
:101590005704803209F461C080915704803309F404
:1015A0005EC084E025C080915B0490915C04A091B2
:1015B0005D04B0915E04892B8A2B8B2B09F486CFB6
:1015C0000E94DD0200915B0410915C0420915D0497
:1015D00030915E046C197D098E099F090617170763
:1015E0002807390708F072CF80915A043EDF85E062
:1015F000109260041092820410925F04CDB7DEB79F
:10160000E8E00C9487369D9191938F5F75CF85EEBE
:10161000AFCF80915B0490915C04A0915D04B09188
:101620005E04892B8A2B8B2B09F4A7CF0E94DD0245
:1016300000915B0410915C0420915D0430915E0484
:101640006C197D098E099F090617170728073907A6
:1016500008F093CFC9CF80E0CBCF82E0C9CF83E041
:10166000C7CF08950895E0919F0280919E02E817E8
:1016700030F4F0E0E258FD4F808190E008958FEF64
:101680009FEF089590919F0280919E022FEF3FEF70
:10169000981748F4E92FF0E0E258FD4F208130E040
:1016A0009F5F90939F02C901089580919E0290913F
:1016B0009F02891B990B0895B0E0A0E0E2E6FBE0F1
:1016C0000C946B367C01CB018A0120915F042223AC
:1016D00089F0EB016B01C40ED51ECC15DD0561F060
:1016E0006991D701ED91FC910190F081E02DC70146
:1016F0000995F3CF642F74DEC801CDB7DEB7E8E0FB
:101700000C948736A1E0B0E0E8E8FBE00C94713679
:10171000698320915F042223F9F020918204203212
:1017200058F021E030E0FC013383228390E080E038
:101730002196E2E00C948D3680916004E82FF0E071
:10174000EF59FB4F998190838F5F80936004809362
:10175000820481E090E0ECCF61E0CE01019640DEB2
:10176000F8CF682F80E295E0CDCF089590E080E03B
:101770000895FF920F931F93CF93DF9300910F046F
:10178000109110040115110519F1FC012481358116
:10179000232BF1F0F62EEC01C801EBDCF1E0FF1297
:1017A0001CC06EE672E0C801DED9BE0180910F0454
:1017B00090911004C9D96BE672E080910F0490916A
:1017C0001004D1D968EE73E080E090E00E9402033B
:1017D000CDB7DEB7E5E00C948A3663E672E0C80167
:1017E000C2D9BE0180910F0490911004ADD9EACF07
:1017F000CF93FC012285222339F0C1E080859185B9
:10180000892B81F4C0E00EC0608171818281938157
:101810009F77C1E02CEA35EC47E257E30E94A537F9
:10182000181684F78C2FCF9108959091060121E02E
:1018300020935F04909381041092600410928204BC
:10184000886090E08EDF31CE08952F923F925F92B4
:101850006F927F928F929F92AF92BF92CF92DF92C0
:10186000EF92FF920F931F93CF93DF93E0913F038B
:10187000F0914003309741F1A281B381109721F19B
:101880008F3F910599F197FD9FC0ED012197C817F2
:10189000D90710F48FEF8A0F77247394780E28C03D
:1018A00020E02EC040E034C060E03AC0880F991FAD
:1018B000880F991FE80EF91EC701810F911DEC01D9
:1018C00018826CC0CF0173DADF91CF911F910F9115
:1018D000FF90EF90DF90CF90BF90AF909F908F9050
:1018E0007F906F905F903F902F9008957A2E80E0C8
:1018F00037FDD6CF2F3F310519F014F02FEF30E030
:1019000057FDD0CF4F3F510519F014F04FEF50E085
:1019100077FDCACF6F3F710519F014F06FEF70E0DB
:10192000822E912CB12CA12C942AA62AA5016627DF
:101930007727542E292DBA01482F50E0DA01312C97
:10194000212C682CA71508F0BDCF82819381A817A0
:10195000B907A8F5C62C8085D22E352D882371F0C5
:10196000869F8001879F100D1124312F829F800157
:101970001124D12E889DC0011124C92E1685E18421
:10198000F2840385CA01820D931D10138FCF8C0141
:10199000000F111F800F911FE80EF91E83858E0D19
:1019A0009F2D911DEC01388384858E0D9F2D911DF7
:1019B000EC01D8828585E80EF11CE701C8828FEF23
:1019C000281A380A1196BECF80E066CFCF93C82F71
:1019D0008091040191E090935F04809381041092C0
:1019E00060041092820490E080E0BBDE6C2F80E205
:1019F00095E088DE5ADDCF910895CF93C82F862FCA
:101A0000806BE4DF8C2F8F70E1DF8C2F82958F70DD
:101A10008061DCDFCF910895A3E0B0E0E2E1FDE07A
:101A20000C9461366C01142F80914103882309F4D2
:101A3000D7C090910501603108F06FE0092F000FC9
:101A4000000F609F002D1124923009F064C0143003
:101A500008F013E0110F612F802FCFDF612C54E0CD
:101A6000E52E6AE0462E70E1372E5E0184E0A80E76
:101A7000B11C262D30E0F6018481958128173907A5
:101A800008F0AEC080819181009709F449C0820FAF
:101A9000931FFC01808119821A821B8290ED980F9E
:101AA0009A3008F03FC0082E000C990BC0979C019B
:101AB000220F331F820F931FDE01119630E020E0CA
:101AC0008B5B9D4FFC01E20FF31FE491ED932F5FC1
:101AD0003F4F23303105B1F750900401809105014B
:101AE0008130B1F580935F045092810410926004BC
:101AF0001092820480E490E034DE43E050E0BE01C6
:101B00006F5F7F4F80E295E0D7DD90E080E029DED7
:101B1000CCDC6394AECF183008F49DCF17E09BCF98
:101B200080E0B9CF8D3221F4EB82EA82E982D4CF12
:101B30008E3211F43A82D0CF8A3311F44A82CCCF5C
:101B4000853251F6F9E1F983EA8283E18B83C4CFD0
:101B5000712C22242394612F670D802F4EDF209259
:101B60005F0450928104109260041092820480E419
:101B700090E0F7DDFE0131964F01F40181914F01B4
:101B8000711028C08F70F4E08F9F90011124822B78
:101B90008373F82EFF0C8F298575F82EFF0CF82A19
:101BA0006F2D80E295E0AEDD6F2D80E295E0AADD3D
:101BB000A814B90411F790E080E0D3DD90E080E054
:101BC000D0DD73DC81E0781202C0085FA2CF7724F9
:101BD0007394C1CFF12C84FFE3CF83E0F82EE0CFE4
:101BE0002396E2E10C947D360F931F93CF93DF93FE
:101BF00080914103882311F1C0E001E06C2F80E067
:101C0000FCDED8E08091040100935F04809381049E
:101C1000109260041092820480E490E0A2DD10E152
:101C200090E080E09EDD1150D9F73FDCD15051F7B4
:101C3000CF5FC83019F760E080E0DFDEDF91CF9141
:101C40001F910F910895CF93DF9380930401623029
:101C500009F061E06093050110929F0210929E02CC
:101C60001092600410928204E2DB81E39BE0909387
:101C7000C2028093C10282E39BE09093C6028093EC
:101C8000C502CCE2D2E0FE018491A0DE2196F2E012
:101C9000C534DF07C1F781E080934103A5DFDF9101
:101CA000CF910895AAE0B0E0E8E5FEE00C946F362D
:101CB00000916002109161020115110581F11E82EF
:101CC0001D829EE799839FEF9A8396E09B839FEE08
:101CD0009A878C83272F30E07E836F8390E08B5F21
:101CE0009E4F820F931F860F911D919581959109AB
:101CF00098878987C8013DDAD801ED91FC9102806F
:101D0000F381E02D4AE050E0BE016F5F7F4FC801D4
:101D1000099568E770E080E090E00E9402032A964F
:101D2000E4E00C948B36CF93C0E080916202C81738
:101D300058F4EC2FF0E0E85FFE4F70E060E0808147
:101D40000E946F02CF5FF1CF80910D0187FF0E944B
:101D500033038091600290916102892B21F070E041
:101D600060E086E19FDFCF910895CF92DF92EF92FE
:101D7000FF921F93CF93DF93E0E0F1E0DF01D0E02B
:101D8000C0E0482F50E02D91022E000C330B241799
:101D9000350781F4CE01880F991FC80FD91FCF5A7C
:101DA000DA4FCE01DF91CF911F91FF90EF90DF903E
:101DB000CF9008952196C430D10529F7F12CE12C5C
:101DC000919197FF63C0F701E050FF4F8083670157
:101DD000CC0CDD1CE601CE0DDF1DCF5ADA4F988109
:101DE0009C30F8F6182F61E00E9433028881282F7A
:101DF00030E0F901EE0FFF1FE20FF31FE45DFA4F31
:101E00001F739081907C192B108319821A822CE009
:101E1000622F0E941239829FB001112430E020E02D
:101E2000AB01420F531FFA01EE0FFF1FE40FF51F26
:101E3000E45DFA4F908196FD16C02F5F3F4F2C3026
:101E4000310571F781110FC01092800082E08093FC
:101E500081001092850010928400B19A80916F00E9
:101E6000826080936F00F601EE0DFF1DEF5AFA4F6E
:101E7000E0818E2F90E0FC01EE0FFF1FE80FF91FAD
:101E8000E45DFA4F8081806480838BCF9FEFE91AF5
:101E9000F90A94E0E916F10409F092CFD0E0C0E02D
:101EA00080CFE0916202A8E0B1E090E0E91729F06C
:101EB0002D91281761F09F5FF9CFE43040F491E055
:101EC0009E0F90936202F0E0E85FFE4F80830895DA
:101ED000EF92FF920F931F93CF93DF93082F162F4C
:101EE0007A01EA014F3F510519F014F0CFEFD0E02D
:101EF000C1308FEFD80714F4C1E0DFEF802FD1DFBE
:101F0000812FCFDF61E0802F0E94330261E0812FBB
:101F10000E943302BE01802F1E141F049CF070E04B
:101F200060E0E114F10471F00E946F0266277727E8
:101F30006C1B7D0B812F0E946F02CDB7DEB7E6E0F0
:101F40000C9489360E946F0270E060E0F3CF0F932B
:101F50001F93CF93DF93D82FC62F61E00E943302E7
:101F600060E08D2F0E9406028BE594E00197F1F767
:101F70008C2FC63008F085E0825F0E94C8028C0179
:101F80008BE990E00197F1F761E08D2F0E94060246
:101F90008BE397E90197F1F7C801DF91CF911F918A
:101FA0000F910895DC0114968D919C9115976817F7
:101FB000790750F4ED91FC911197E60FF71F1596F4
:101FC0007C936E93149710820895CF93807FC82FCF
:101FD000C62B8C2F2ADC8C2F846027DC8C2F25DCF1
:101FE00083EC90E00197F1F7CF910895CF93DF93C1
:101FF000C82FD62FEADF6D2F8C2F8295807FE5DFEB
:10200000DF91CF9108951F93CF93DF9320914203E7
:102010002223B9F0EC0110E0212F30E08C819D816A
:102020002817390770F488819981009741F0820F51
:10203000931FFC01808161E0D9DF1F5FEDCF80E05D
:10204000FACFDF91CF911F910895909107018917E1
:1020500010F08FEF890F643008F063E0E62FF0E0B6
:10206000EC5EFE4F9081890F60E08068BFCF0895DD
:1020700080914203882339F060E081E0B7DF8BE391
:102080009FE10197F1F708951F93CF93DF93142FEA
:10209000809306016093070110929F0210929E02A6
:1020A0001092600410928204C2D981E39BE0909365
:1020B000C2028093C10282E39BE09093C6028093A8
:1020C000C50262E370E080E090E00E94020360E0FD
:1020D00080E37BDFCBE4D6E4CE010197F1F760E04B
:1020E00080E373DF2197F1F760E080E36EDF83E543
:1020F00092E00197F1F760E080E267DF80E2123062
:1021000008F088E260E072DF60E08CE06FDF60E0A2
:1021100086E06CDF81E080934203AADFDF91CF91FC
:102120001F910895FC014481558170E060E0818534
:1021300092850C94083B0895B0E0A0E0E2EAF0E15B
:102140000C946B36EC016B01F42EE52E1982188687
:102150001F86188A198A1A8A81E08E878B871C86C7
:1021600092E09D8788838B01000F111F060F171FB8
:102170001D830C83C8010E9424399A8789870097A0
:1021800069F1A80170E060E00E94083BDB82CA822E
:10219000FE82EF828981882341F061E08F2D0E94C9
:1021A000330260E08F2D0E9406028F2D9E2DFC01D0
:1021B000EE5FFC4FE491F0E0EE0FFF1FE850FD4FA3
:1021C000259134913C8B2B8BFC01EC51FD4FE4911C
:1021D000ED8BCDB7DEB7E8E00C9487361D821C820C
:1021E0001B821A82D5CF0F931F93CF93DF938C015D
:1021F000EB01FC01808191810097E1F06881798198
:1022000061157105A9F0428153812C813D814217EE
:10221000530770F00E94183B8C819D81F8019583D3
:1022200084831D821C82DF91CF911F910F910895AD
:102230000E94C03988819981F801918380838A81C5
:102240009B81938382838C819D8195838483198272
:1022500018821B821A82E5CFB0E0A0E0E2E3F1E150
:102260000C946B36EC018B01FB01C190D190E19095
:10227000F190BF01FC01C192D192E192F192CF01A4
:102280006E177F0709F0AFDFF80182858A87CE01DC
:10229000CDB7DEB7E8E00C948736CF93DF93EC013F
:1022A00088819981009711F00E94C03919821882A3
:1022B0001D821C821B821A82DF91CF910895FC013E
:1022C00080819181009711F00C94C03908950F938B
:1022D0001F93CF93DF93861306C080E0DF91CF91E9
:1022E0001F910F910895062F182FC0916002D09171
:1022F0006102209731F0CE010E94A108CE010E9418
:10230000C0398FE190E00E942439EC011B821A82CF
:1023100088EE93E0A0E0B0E08C839D83AE83BF8322
:102320008CE191E0998388831F8A1E8A198E188E0A
:102330001B8E1A8E1D8E1C8E8E8D8E7F8D7F8E8FA6
:10234000602FCE010E947A08612FCE010E945308AF
:10235000D0936102C0936002209709F4BECF40E899
:1023600055E260E070E0CE010E94EA08CE010E94D2
:10237000B90864E670E080E090E00E94020370E03B
:1023800060E08CE08FDC68E978E080E090E00E941B
:10239000020362E070E089E085DC6CE271E080E0DD
:1023A00090E00E94020381E099CF0F931F93762F54
:1023B00089019A0190E0FC01EC51FD4F6491FC0110
:1023C000EE5FFC4FE4917111762FF0E0EE0FFF1FEE
:1023D000E652FD4F85919491472F0E946A2761151F
:1023E00071058105910529F06F5F7F4F8F4F9F4FDA
:1023F0009F701F910F910895A5E0B0E0E2E0F2E137
:102400000C946936182F062FF42ECE0101966C011C
:1024100085E0F60111928A95E9F761E0812F0E942B
:10242000330260E0812F0E94060264E170E080E0E8
:1024300090E0063121F462E070E080E090E00E94DC
:10244000020361E0812F0E94060283E790E001977A
:10245000F1F762E0812F0E94330228EE33E040E082
:1024600050E060E0812FA1DF672B682B692B41F4DE
:1024700060E070EC89E794EC2596EAE00C948536F0
:1024800028EE33E040E050E061E0812F8EDF672BE3
:10249000682B692B69F3B12CA12C28EE33E040E0C6
:1024A00050E060E0812F81DF672B682B692B01F3FF
:1024B00028EE33E040E050E061E0812F76DF6115E7
:1024C000710581059105A1F2F50123E0F595E795E8
:1024D0002A95E1F7EC0DFD1D2081220F693271056F
:1024E0008105910508F03EC02083FFEFAF1ABF0AB7
:1024F00088E2A816B10489F6B9806A811B819C81A3
:102500008B2D860F810F890F2D818213B1CF06315C
:1025100069F582E090E0FF2011F090E080E08C0D02
:102520009D1DFC01008110E0102F0027E3E0F0E08A
:10253000FF2011F0E1E0F0E0EC0DFD1D8081082BA3
:10254000B8017F7790E080E00E94D9342DEC3CEC1C
:102550004CEC5DE30E943A35F1108ECF17FF8CCF23
:1025600090588ACF822F81608083BFCFFF20D1F027
:1025700070E090E080E00E94DB342DEC3CEC4CEC11
:102580005DE30E943A356B017C016B2D70E090E0B9
:1025900080E00E94DB349B01AC01C701B6010E94C0
:1025A000A8366ACF692F70E090E080E00E94DB34AB
:1025B0002DEC3CEC4CEC5DE30E943A356B017C0168
:1025C000612FE4CFCF93DF93C82FD62F61E00E9415
:1025D000330260E08D2F0E94330260E08C2F0E9456
:1025E000060283E090E00197F1F761E08C2F0E94F2
:1025F000060283E290E00197F1F760E08C2F0E94E1
:10260000060220E335E740E050E061E08D2FCDDEAB
:1026100020E030E0A901611571058105910531F0D7
:102620002AE330E040E050E00E941336CA01B901CD
:10263000DF91CF910895FC0124813581FB01448114
:10264000558124173507A0F0FC0180819181009706
:1026500079F0FB01608171816115710549F0241BDE
:10266000350B820F931F0E940F3B21E0892B09F04D
:1026700020E0822F0895CF93DF93EC01A881B981E8
:10268000EB01E881F9811097E9F03097B1F4EC01A2
:102690008C819D81892BC1F08C9190E00BC0DB0176
:1026A00014968D919C91892B79F0808190E0919581
:1026B00081959109DF91CF910895BF01CD010E94CD
:1026C0000F3BF8CF309759F790E080E0F3CFFB0154
:1026D00001900020E9F73197AF01461B570BDC0151
:1026E000ED91FC910280F381E02D099508958F9280
:1026F0009F92AF92BF920F931F93CF93DF93CDB76B
:10270000DEB7A1970FB6F894DEBF0FBECDBF19A2FA
:10271000423008F44AE08E010F5D1F4F842E912C49
:10272000B12CA12CA50194010E941336E62FB9010A
:10273000CA01EA30FCF4E05DD801EE938D01232B51
:10274000242B252B79F790E080E0109721F0BD0134
:1027500083E894E0BCDFA1960FB6F894DEBF0FBE0D
:10276000CDBFDF91CF911F910F91BF90AF909F9000
:102770008F900895E95CE0CFCF93DF93BC0183E8AD
:1027800094E00E94B305EC016EE471E083E894E00C
:102790009EDF8C0F9D1FDF91CF9108950F931F93A4
:1027A000CF93DF93EC010E94A4058C016EE471E0ED
:1027B000CE018DDF800F911FDF91CF911F910F917F
:1027C00008958F929F92AF92BF92CF92DF92EF9235
:1027D000FF925C016A017B0169E272E083E894E0A8
:1027E0000E94B305A114B10421F0B50183E894E07F
:1027F0006EDF8CE20E94B306A7019601C701B60105
:102800000E94F53761E571E081111AC04601570158
:10281000E894B7F82FEF3FEF4FE75FE7C501B4014A
:102820000E94F53781111DC02FEF3FEF4FE75FE7A3
:10283000C501B4010E94D53418169CF465E571E019
:1028400083E894E044DF6EE471E083E894E03FDFE6
:10285000FF90EF90DF90CF90BF90AF909F908F90C0
:1028600008952FEF3FEF4FE75FE4C701B6010E94E5
:10287000A53718161CF469E571E0E2CF2FEF3FEFA2
:102880004FE75FECC701B6010E94D53487FDF3CF57
:1028900020E030E0A901C701B6010E94D53487FFCE
:1028A00007C08DE20E94B306F7FAF094F7F8F094AF
:1028B0002AE037ED43EA5BE3C701B6010E94A83680
:1028C0004B015C010E9479376B017C010E94D93475
:1028D0009B01AC01C501B4010E94A7364B015C010C
:1028E0004AE0C701B60103DF8EE20E94B30620E092
:1028F00030E040E251E4C501B4010E943A354B0199
:102900005C010E9479376B01F12CE12C4AE0C70190
:10291000B601EDDEC701B6010E94D9349B01AC01BE
:10292000C501B4010E94A73620E030E040E251E446
:102930000E943A350E94793790E080E04AE0D7DE85
:1029400082CF6FE172E083E894E00E94B3056DE509
:1029500071E083E894E0BBDE6EE471E083E894E02C
:10296000B6CE08950F931F93CF93DF93EC01888128
:102970009981009759F02A813B812617370730F05B
:1029800081E0DF91CF911F910F9108958B016F5FCF
:102990007F4F0E94493A009759F0998388831B839F
:1029A0000A832C813D81232B59F7FC011082E8CF4B
:1029B00080E0E7CFA2E0B0E0E0EEF4E10C946D3609
:1029C0008C0169831A82FC01E480F580FFEFEF1A25
:1029D000FF0AB701C7DF882381F0F8012081318128
:1029E00084819581BE016F5F7F4F820F931F0E948C
:1029F000183BF801F582E48281E02296E6E00C942F
:102A00008936EF92FF920F931F93CF93DF93EC01E0
:102A10007B018A01BA01A6DF811108C0CE013DDC2D
:102A2000CE01CDB7DEB7E6E00C9489361D830C836A
:102A3000B701888199810E94183BF2CFCF93DF9331
:102A4000EC016115710569F0FB0101900020E9F7C7
:102A50003197AF01461B570BD4DFCE01DF91CF91E9
:102A600008951BDCFACFCF93DF93EC01FB018617AF
:102A7000970741F0608171816115710539F04481DA
:102A80005581BFDFCE01DF91CF91089506DCFACFEB
:102A90000F931F93CF93DF93EC018B01FB01819187
:102AA0009191A191B191BF0188839983AA83BB833E
:102AB0001D821C821F821E8219861886CE010496F2
:102AC000D2DFF80182858A87DF91CF911F910F9124
:102AD0000895FC01118210821382128215821482E1
:102AE000FB0101900020E9F73197AF01461B570B1E
:102AF00088CF0895CF92DF92EF92FF92CF93DF932A
:102B0000EC0160E571E0E5DF80910F049091100425
:102B1000009709F441C00E94B9088FB7F894C0909B
:102B20000704D0900804E0900904F0900A048FBFD5
:102B30002FB7F8948091070490910804A09109049C
:102B4000B0910A042FBF8C199D09AE09BF098035C9
:102B50009105A105B10500F580910F049091100435
:102B6000DC01ED91FC910084F185E02D0995892B24
:102B7000F9F280910F0490911004DC01ED91FC9129
:102B80000284F385E02D09958D3011F08A3061F4CF
:102B90008C819D81892B01F3CE01DF91CF91FF9034
:102BA000EF90DF90CF900895682FCE0103DFD4CF50
:102BB00060E571E004968DCF0895A3E0B0E0E3EE08
:102BC000F5E10C9469366C018B0160E571E081DF01
:102BD0000115110549F1F80101900020E9F731973D
:102BE0005F01A01AB10AB50176956795C601BADEF4
:102BF000EE24E394F12CEA14FB04B0F41B82F801F8
:102C00008081898381818A8340E150E070E060E0C7
:102C1000CE0101960E94C22FC601CCDEF2E0EF0E7B
:102C2000F11C0E5F1F4FE7CFC6012396EAE00C941C
:102C3000853685ED8093BC0080915B0490915C04A7
:102C4000A0915D04B0915E040796A11DB11D23E023
:102C5000B695A795979587952A95D1F72091BC00B1
:102C600024FD03C010925904089540915B045091D3
:102C70005C0460915D0470915E04452B462B472BEC
:102C800069F30097A105B10541F02AE22A95F1F711
:102C900000C00197A109B109E1CF80915A040C94B9
:102CA000350A08951F93CF93DF93EC01162F0E94EE
:102CB000EE35181721F0612FCE010E94F635DF9115
:102CC000CF911F9108950C94EE350895B0E0A0E0E7
:102CD000ECE6F6E10C9469361092500383E090E044
:102CE000F2DFC82F84E090E0EEDFD82FD0934403CA
:102CF000C093430385E090E0E6DF082F86E090E094
:102D0000E2DF182F10937C0200937B0287E090E0B3
:102D1000DADFA82E88E090E0D6DFB82E90E080E0E1
:102D2000D2DF8F3409F044C081E090E0CCDF8D34F5
:102D300009F03EC082E090E0C6DF8130C9F5CE01E7
:102D40000197873F9340A0F5C017D10788F1D12C98
:102D5000C12CF12CE12CC7010996B5DFC80ED11C9E
:102D60008FEFE81AF80ACE15DF05A9F7AC14BD04F9
:102D7000F9F4E1E1F4E080E2DF011D928A95E9F7E0
:102D800010923E0310924C0310924D0310924E038A
:102D900010924F0381E00115110509F080E0809346
:102DA0007D02109232041092310481E0809350032E
:102DB000CDB7DEB7EAE00C9485362091430330911D
:102DC00044038217930718F409967DCF089580E095
:102DD0000895A9E3B0E0EFEEF6E10C9463367C01D0
:102DE000FB018285882381F0F70111821082138212
:102DF0001282158214826C5F7F4FC70134DEC701D7
:102E0000E996E0E10C947F3680809180A280B380C7
:102E100020E030E0A901C501B4010E94A53720E0FF
:102E200030E040E05FE387FD38C0C501B4010E9497
:102E3000A8360E9474370E94DB342B013C01AC01A0
:102E40009B01C501B4010E94A7369F772FE632E1AE
:102E500043E85AE30E94D5349E012F5F3F4F69013A
:102E600087FF20C0F701118210821382128215821F
:102E70001482C301B2010E9474372AE0A6010E94A5
:102E8000FA30F60101900020E9F73197AF014C19B3
:102E90005D09B601C701B5DDB2CFC501B4010E941D
:102EA000A736C7CF1DAA1CAA1FAA1EAA19AE18AE04
:102EB000890122E044E0C501B4010E94A52FBC01B4
:102EC000CE01C496BBDD63E671E0C60102DEB60149
:102ED000CE01C496B0DBB82EC601F1D9BB2041F0BB
:102EE00068AD79AD61507109CE01C4965BD8EBCF66
:102EF00065E671E0C601EDDDB601CE01C4969BDB4F
:102F0000B82EC601DCD9BB2039F068AD79AD61506F
:102F10007109CE01C49646D8F7011182108213823E
:102F2000128215821482BE016C5C7F4FC7015BD98F
:102F3000CE01C496C4D963CFFC018285882339F0C1
:102F400084819581009741F00C94A83008956081A8
:102F5000718182819381089560E070E0CB010895D2
:102F60000F931F93CF93DF93EC018B0121DEF801C8
:102F700080819181009791F00E94A830FE016193B9
:102F8000719381939193B801CF016DDD81E08A87C0
:102F9000CE01DF91CF911F910F91089560E070E015
:102FA000CB01ECCFA3EAB0E0E8EDF7E10C94613699
:102FB0004C0180913104909132041C012FEF221AB0
:102FC000320A3092320420923104F7DE280E311C8E
:102FD000CE0101967C018E01075A1F4FC956DF4F63
:102FE00099838883C759D040C701E2DD9BE0E90E91
:102FF000F11CE016F106C1F7F12CA4E6B0E0AC0F2D
:10300000BD1F1496C456DF4FB983A883CC59D04056
:10301000EFE6F0E0EC0FFD1F3496C056DF4FF9836A
:10302000E883C05AD0402AE730E02C0F3D1F2C5FC8
:103030003F4FCE55DF4F39832883C25AD040C090CE
:103040003104D0903204C214D30408F0E4C5360130
:103050003FEF631A730A7092320460923104C60122
:10306000ACDEE82E81E0E81235C097E09F1538F31A
:1030700038016801A4E0CA0ED11C809131049091FE
:1030800032049C012F5F3F4F309332042093310470
:1030900094DEF30181933F01CE16DF0671F7D8016C
:1030A0004D905D906D907C90C80182DDF80140826A
:1030B0005182628273821286EE24E394EF0CB8018F
:1030C00081E090E08C0F9D1FFBE0FF9E800D911D25
:1030D000112484C022E0E2124DC032E0C30ED11CA4
:1030E000D0923204C0923104C30167DEE82E60E55D
:1030F00071E0CE018C599F4FECDC6E2D70E0CE015B
:103100008C599F4F2FDCEE20B1F0809131049091CB
:103110003204EA948215930570F49C012F5F3F4FAF
:10312000309332042093310448DE682FCE018C594D
:103130009F4F40DCE8CF87E08F15B8F0BE016C5997
:103140007F4FC8010DDFEE24E394EF0CB80181E05E
:1031500090E08C0F9D1FABE0FA9E800D911D112415
:103160007BD8C8010496ABD8FE2CCE018C599F4F5A
:10317000A6D865CFB3E0EB1237C0E2E0CE0ED11C8B
:10318000D0923204C0923104C30117DEF7E0FF157C
:1031900008F455CF883008F08EC024E0829FF001FB
:1031A0001124EF5EFB4F4080518062807380C80124
:1031B000FFDCD8014D925D926D927C9213971A9626
:1031C0001C92EE24E394EF0CB80181E090E08C0FA8
:1031D0009D1FBBE0FB9E800D911D11243DD8C801B1
:1031E00004966DD8FE2C2BCFE4E0EE122CC0F2E05A
:1031F000CF0ED11CD0923204C0923104C301DDDD68
:1032000027E02F1508F41BCF90E0B0E0A0E0863057
:103210009105A105B10524F085E090E0A0E0B0E0C3
:10322000825F0E94C8026C01C801C2DCB601DD0CDD
:10323000880B990B0E94DB34D8016D937D938D939D
:103240009C931397BCCFE5E0EE1215C0F2E0CF0ED1
:10325000D11CD0923204C0923104C301AEDDE82EFD
:1032600060E00E94330227E02F1508F4E8CE8E2D8F
:103270000E94DE01D8CFE6E0EE1221C0F2E0CF0ED0
:10328000D11CD0923204C0923104C30196DDE82EE5
:1032900060E00E94330227E02F1508F4D0CE8E2D77
:1032A0000E94DE01412C512CF0E86F2EFFE37F2EAF
:1032B000019709F47CCF412C512C320178CFE7E003
:1032C000EE1222C02601F2E04F0E511C5092320441
:1032D00040923104C30171DDE82E23E0C20ED11CFF
:1032E000D0923204C0923104C20167DD37E03F154D
:1032F00008F4A5CE682F8E2D65D92B013C01C8019D
:1033000057DCC301B20196CFE8E0EE122DC02601D2
:10331000F2E04F0E511C5092320440923104C3012E
:103320004CDDE82E360123E0620E711C70923204EF
:1033300060923104C20141DD582E34E0C30ED11C2D
:10334000D0923204C0923104C30137DD97E09F155B
:1033500008F475CE41E0811101C040E0652D8E2D4D
:103360004BD82B013C0123CFE9E0EE121DC0260112
:10337000F2E04F0E511C5092320440923104C301CE
:103380001CDDE82E23E0C20ED11CD0923204C09284
:103390003104C20112DD37E03F1508F450CE682F2A
:1033A0008E2D0E94A70F3FCFEAE0EE1224C0C090FE
:1033B0000F04D0901004C114D10409F45FC4C601F5
:1033C0000E94B908F7E0FF1508F439CED601ED9157
:1033D000FC910084F185E02DC6010995412C512C0A
:1033E000E0E86E2EEFE37E2E892B09F05DCE412CB6
:1033F000512C320159CE2BE0E21226C037E03F15A6
:1034000008F41DCECE018C599F4F74DBBE016C5960
:103410007F4FC801A5DDDD24D394DF0CB80181E026
:1034200090E08C0F9D1FFE9C800D911D11240E9429
:103430002C11C80104960E945F11CE018C599F4F38
:103440000E945F11FD2CFBCD8AE2E8122CC0FF2008
:1034500009F4F5CD81E090E08C0F9D1FABE0FA9E62
:10346000800D911D1124FC013B976F01CF010E943B
:10347000F80BE82EC8019CDB61E0E6266E2D70E0BB
:1034800090E080E00E94D934D8016D937D938D93B4
:103490009C9313971A961C92B801C6010E942C1196
:1034A000C801049665CEB1E0BF1508F0C8CDEFEFB6
:1034B000EF0DC756DF4FE883C959D0407BE0D72EC8
:1034C00061E070E06C0F7D1FED9D600D711D11249A
:1034D000CE0186589F4FDCDAFA94FA942F2D30E013
:1034E000C256DF4F39832883CE59D040FD9CC0019E
:1034F0001124C656DF4F99838883CA59D04061E0B2
:1035000070E06C0F7D1F680F791FCE0181599F4FAE
:10351000BFDACE018C599F4F4BDBA8961CAE1DAE77
:103520001EAE1FAEA897AF961FAEAF97CE018159C2
:103530009F4F02DD5B016C01CE0186589F4FFCDC82
:103540002B013C01ECEEEE0DE93108F0C0C0F0E0DB
:10355000E455F54E0C941E39C51AD81AF31AFA1A06
:103560000A1B671B671B671B671B671B111BD21B93
:10357000371C461C551C611C671B671B671B671BA0
:103580006D1C891C671BA61C2A1DAC019B01C60172
:10359000B5010E94A8362B013C01C80109DBD80106
:1035A0004D925D926D927C9213971A961C9210C068
:1035B000AC019B01C601B5010E94A7362B013C015D
:1035C000C801F6DAF8014082518262827382128663
:1035D000B801CE018C599F4F0E942C11C80104964E
:1035E0000E945F1174C0AC019B01C601B5010E942D
:1035F0003A35D1CF2CEA35EC47E257E39F770E946A
:10360000D53487FD5AC1A3019201C601B5010E94BC
:103610000C37D4CFAC019B01C601B5010E94A9377C
:10362000BACFEA968FADEA97811108C0CC57DF4F29
:10363000E880C458D040EE2009F49BC0BE01665813
:103640007F4FCE018B579F4FC4DBBE0161597F4F27
:10365000CE0185579F4FBDDBC157DF4F2881398190
:10366000CF58D040C757DF4F88819981C958D04083
:103670002817390759F4BE016B577F4FCE01855784
:103680009F4F0E943B1361E0892B09F060E070E0DE
:1036900090E080E00E94DB342B013C01EE24E394B7
:1036A000C80186DAF80140825182628273821286F2
:1036B000B801CE018C599F4F0E942C11C80104966D
:1036C0000E945F11CE0185579F4FE110B7C1B7E04F
:1036D000BF15C0F18BE0C256DF4FE881F981CE59AA
:1036E000D0408E9F70018F9FF00C112421E030E0BC
:1036F0002C0F3D1FE20EF31EA8968CAD9DADAEAD16
:10370000BFADA897F70180839183A283B383C65688
:10371000DF4F88819981CA59D0400496C456DF4F43
:1037200068817981CC59D040820F931F9CD9AF9684
:103730008FADAF97D7011A968C93C756DF4FF8809D
:10374000C959D040C456DF4F88819981CC59D040A7
:103750000E945F11C056DF4F88819981C05AD040C6
:103760000E945F11CE55DF4F88819981C25AD040A7
:10377000FFCCA3019201C601B5010E94A7369F7735
:103780002CEA35EC47E257E30E94D534412C512C0A
:1037900060E8662E6FE3762E87FD82CF412C512C98
:1037A00032017ECFEA968FADEA97811108C0CC57DF
:1037B000DF4FE880C458D040EE2009F43FC0BE017E
:1037C00066587F4FCE018B579F4F03DBBE01615977
:1037D0007F4FCE0185579F4FFCDAC157DF4F2881BD
:1037E0003981CF58D040C757DF4F88819981C95858
:1037F000D0402817390759F4BE016B577F4FCE01CF
:1038000085579F4F0E943B1361E0892B09F060E0D0
:1038100081E0682770E090E080E00E94DB342B01BB
:103820003C01EE24E394C801C3D9D8014D925D92C6
:103830006D927C9213971A961C923ACFA301920133
:10384000C601B5010E94A7369F772CEA35EC47E206
:1038500057E30E94A537412C512C50E8652E5FE3B9
:10386000752E87FFE0CF412C512C3201DCCFAC010B
:103870009B01C601B5010E94D53487FF1EC0412CB3
:10388000512C40E8642E4FE3742E9ACEAC019B017C
:10389000C601B5010E94D5341816DCF0412C512C1C
:1038A00030E8632E3FE3732E78CEAC019B01C60156
:1038B000B5010E94A537181614F3412C512C320182
:1038C0007FCEAC019B01C601B5010E94A53787FFE1
:1038D000E5CF412C512C320160CECE0181599F4F52
:1038E0000E94F80BE82E882331F0CE0186589F4FB6
:1038F0000E94F80BE82EC8015BD96E2D70E090E0B5
:1039000080E00E94D934F8016083718382839383BD
:103910005ECECE0181599F4F0E94F80BE82E811197
:1039200006C0CE0186589F4F0E94F80BE82EC801B2
:103930003FD96E2D70E090E080E00E94D934D8012C
:103940006D937D938D939C9313972FCEBE016658F4
:103950007F4FCE018B579F4F3CDABE0161597F4F9D
:10396000CE018F569F4F35DAC557DF4F1982188227
:10397000CB58D040C357DF4F19821882CD58D04062
:10398000C157DF4F19821882CF58D040BE016F5601
:103990007F4FCE0185579F4F66D8CB57DF4F68804A
:1039A0007980C558D0406114710409F44DC0C757DF
:1039B000DF4FC880D980C958D040C114D10439F133
:1039C000C157DF4F88819981CF58D040C80ED91E8A
:1039D000B601CE0185579F4F0E94B2148823A1F1F2
:1039E000C557DF4F28813981CB58D040C157DF4FB1
:1039F00088819981CF58D040B301820F931F0E94D4
:103A0000183BC157DF4FD982C882CF58D040BE0182
:103A100065577F4FC801A4DAB801CE018C599F4F7A
:103A20000E942C11C80104960E945F11CE01855797
:103A30009F4F0E945F11CE018F569F4F0E945F11D2
:103A4000CE018B579F4FCCCDCE0185579F4F0E9403
:103A50004D11DDCFC601B5010E9474376B01613491
:103A600071051CF020E4C22ED12C1C141D041CF086
:103A7000CC24C394D12CC301B2010E9474373B0102
:103A8000C616D7060CF43601161417041CF066246B
:103A90006394712CCE018F569F4F2CD8CB56DF4F9D
:103AA00048805980C559D040C414D5040CF426016F
:103AB00060E571E0C8010DD8CB56DF4F8881998150
:103AC000C559D040009709F18415950508F42C01DB
:103AD000CF56DF4FE881F981C159D040E40DF51D83
:103AE000E0801082CF56DF4F68817981C159D04084
:103AF000C8010E941E15CF56DF4F88819981C15998
:103B0000D040480E591EF201E082B801CE018F5616
:103B10009F4F0E94F310C8010E945F116301CB56B2
:103B2000DF4F88819981C559D0408615970508F4E3
:103B300062C02301F1E04F1A51086414750410F0BB
:103B40006201230160E571E0CE018B579F4F0E9417
:103B50006915CB56DF4F68807980C559D040C614AF
:103B6000D70428F54614570408F43201CF56DF4F26
:103B7000E881F981C159D040E60DF71DE08010823F
:103B8000CF56DF4F68817981C159D0406C0D7D1DC2
:103B9000CE018B579F4F0E941E15CF56DF4F888155
:103BA0009981C159D040680E791ED301EC92BE01B3
:103BB0006B577F4FC801D4D9D12CEE24E394B801C0
:103BC000CE018C599F4F0E942C11C80104960E946F
:103BD0005F11DD2029F0CE0185579F4F0E945F11B4
:103BE000EE2029F0CE018B579F4F0E945F11CE012E
:103BF0008F569F4FF5CC60E571E0CE0185579F4F02
:103C00000E946915BE0165577F4FC801A9D9DD24FF
:103C1000D394E12CD4CF3092320420923104FF208F
:103C200019F161E070E06C0F7D1FBBE0FB9E600D41
:103C3000711D11246B507109C4010E9448150B506D
:103C40001109C80104960E945F11C956DF4F2881EF
:103C50003981C759D0402017310789F7C401CD55A4
:103C6000DF4FE2E10C947D36C4010E94D815F401C7
:103C700010821182128213821286E1CF37E03F1543
:103C800008F4DDC9B4CBA5E1B0E0E9E4FEE10C94B1
:103C9000633610924C0310924D0310924E03109213
:103CA0004F0320917D02A0904303B0904403211163
:103CB00004C0A0907B02B0907C028091310490916E
:103CC00032048A159B05B0F4E0903104F090320480
:103CD00067012FEFC21AD20AD0923204C092310487
:103CE000C7016BD8182F81111FC0B0923204A09267
:103CF000310416C010923E0380917B0290917C02A9
:103D0000211103C021E020937D029093320480931F
:103D10003104209143033091440382179307A0F2AA
:103D20006596E0E10C947F368130D1F5CE010196A5
:103D300039D9CE01019600D96B017C01CE010596DF
:103D40000E945F1120E030E0A901C701B6010E9486
:103D5000D53487FF03C0C12CD12C76018FB7F894DE
:103D60008090070490900804A0900904B0900A0481
:103D70008FBF20E030E04AE754E4C701B6010E945B
:103D80003A350E947937860E971EA81EB91E80927A
:103D90004C0390924D03A0924E03B0924F03C0CFBC
:103DA0008EEF810F8230C8F562E0E60EF11CF092D2
:103DB0003204E0923104C60100D8082FCE010196EA
:103DC000F1D8CE010196B8D86B017C01CE010596E1
:103DD0000E945F11083008F0A3CF74E0079FC00174
:103DE0001124123041F48F5E9B4FFC01C082D182BE
:103DF000E282F38295CF8C010F5E1B4FA7019601E3
:103E0000F80160817181828193810E94A836F80156
:103E1000608371838283938383CF143019F55701B4
:103E2000F2E0AF0EB11CB0923204A0923104C60190
:103E30000E94DD16182F23E0E20EF11CF0923204EE
:103E4000E0923104C5010E94DD16082F61E0812F48
:103E50000E94330261E0011101C060E0812F0E94E5
:103E600006025ECF153089F562E0E60EF11CF09295
:103E70003204E0923104C6010E94DD16182F61E081
:103E80000E943302CE0101968DD8CE01019654D8FE
:103E90006B017C01CE0105960E945F11C701B6013E
:103EA0000E9474376F3F71058105910529F024F058
:103EB0006FEF70E080E090E097FF03C060E070E09B
:103EC000CB01812F0E946F022BCF163009F040C02A
:103ED00087010E5F1F4F1093320400933104C60117
:103EE0000E94DD16D82E73E0E70EF11CF09232042A
:103EF000E0923104C8010E94DD16182FCE01019610
:103F000051D8CE01019618D84B015C01CE0105961F
:103F10000E945F11C501B4010E9474376F3F7105A3
:103F20008105910529F024F06FEF70E080E090E0CA
:103F30006130EFEF7E078E079E0724F461E07FEF8C
:103F40008FEF9FEFAB01612F8D2D0E94680FE8CEA0
:103F50001730A1F5F2E0EF0EF11CF0923204E0927E
:103F60003104C6010E94DD160E94B50E8C01CE01FF
:103F7000019618D8CE0101960E949C176B017C0116
:103F8000CE0105960E945F110115110509F4C8CEF6
:103F9000C701B6010E947437653B71058105910523
:103FA00024F064EB70E080E090E097FF03C060E0F5
:103FB00070E0CB01C8010E947409B2CE183009F03C
:103FC0006DC022E0E20EF11CF0923204E092310466
:103FD000C6010E94DD16182FCE0101960E94D2174D
:103FE000CE0101960E949C176B017C01CE010596C3
:103FF0000E945F11C701B6010E9474376B017C01FA
:1040000061E2C6166EE4D606E104F10434F050E233
:10401000C52E5EE4D52EE12CF12C74E1C716D10437
:10402000E104F1042CF444E1C42ED12CE12CF12C58
:10403000CE0101960E94D217CE0101960E949C17D4
:104040004B015C01CE0105960E945F1120E030E03B
:10405000A901C501B4010E94D53487FF03C0812C9A
:10406000912C540120E030E04AE754E4C501B4014A
:104070000E943A350E9479379B01AC0110930D01E3
:10408000211531054105510521F421E030E040E0E2
:1040900050E0B601812F0E945F0342CE193069F4CF
:1040A00082E0E80EF11CF0923204E0923104C60185
:1040B0000E94DD160E94330333CE1A3039F55701C2
:1040C000E2E0AE0EB11CB0923204A0923104C601FF
:1040D0000E94DD16D82E87010D5F1F4F109332040A
:1040E00000933104C5010E94DD16C82EF4E0EF0EE6
:1040F000F11CF0923204E0923104C8010E94DD16F6
:10410000482F6C2D8D2D0E9444100ACE1B3009F0D3
:1041100065C0CE0101960E94D217CE0101960E9481
:104120009C176B017C01CE0105960E945F11CE01A8
:1041300001960E94D217CE0101960E949C174B0156
:104140005C01CE0105960E945F11CE0101960E948E
:10415000D217BE016F5F7F4FCE010C960E94E91609
:10416000CE0105960E945F1180914203882389F158
:10417000C701B6010E9474376B017C0124E0C216AE
:10418000D104E104F1042CF033E0C32ED12CE12C56
:10419000F12CF7FE03C0C12CD12C7601C501B4016E
:1041A0000E947437DC01CB0184319105A105B10572
:1041B00024F083E190E0A0E0B0E0B7FF03C080E02E
:1041C00090E0DC016C2D0E942510CE010C960E941F
:1041D0000310CE010C960E945F11A2CD1C3019F481
:1041E0000E9438109DCD1D31D1F487010E5F1F4F05
:1041F0001093320400933104C6010E94DD16D82EBC
:1042000063E0E60EF11CF0923204E0923104C80142
:104210000E94DD16682F8D2D0E94230E81CD1E3148
:1042200009F059C0CE0101960E94D217CE01019625
:104230000E949C176B017C01CE0105960E945F11C4
:10424000CE0101960E94D217CE0101960E949C17C2
:104250004B015C01CE0105960E945F11CE010196D3
:104260000E94D217BE016F5F7F4FCE010C960E9455
:10427000E916CE0105960E945F11C701B6010E94A2
:1042800074376B017C0178E0C716D104E104F104B6
:104290002CF027E0C22ED12CE12CF12CF7FE03C02C
:1042A000C12CD12C7601C501B4010E947437603154
:1042B00071058105910524F06FE070E080E090E0E9
:1042C00097FF03C060E070E0CB014C2DCE010C964F
:1042D0000E940C0D7ECF1F3119F40E94F40D20CDE9
:1042E0001D3009F062C082E0E80EF11CF092320449
:1042F000E0923104C6010E94DD16B82ECE0101966F
:104300000E94D217CE0101960E949C176B017C017E
:10431000CE0105960E945F11C701B6010E94743755
:104320006B017C01EDE3CE16D104E104F1042CF025
:104330009CE3C92ED12CE12CF12C1C141D041E046D
:104340001F0424F0C12CD12C7601C39400913F03AB
:10435000109140030115110581F0F80181859285C6
:104360000E94C039F8018681978197FD03C060E003
:104370000E943302C8010E94C03986E190E00E9489
:1043800024398C014B2D50E0B6010E949C101093F3
:10439000400300933F03C8010E949507C8010E9493
:1043A0009210C8010E94D706BBCC1E3009F059C03C
:1043B000CE0101960E94D217CE0101960E949C1751
:1043C0006A8B7B8B8C8B9D8BCE0105960E945F1137
:1043D000CE0101960E94D217CE0101960E949C1731
:1043E0006B017C01CE0105960E945F11CE01019602
:1043F0000E94D217CE0101960E949C174B015C01CE
:10440000CE0105960E945F11CE0101960E94D2173F
:10441000CE0101960E949C172B013C01CE0105960E
:104420000E945F11C301B2010E9474372B013C014D
:10443000C501B4010E9474374B015C01C701B6018C
:104440000E9474376B017C016A897B898C899D8904
:104450000E947437CB019201A401B6010E94250C81
:104460005FCC1F3049F400913F03109140030115C8
:10447000110509F093CF54CC103109F03FC08701EA
:104480000E5F1F4F1093320400933104C6010E9447
:10449000DD16B82EF3E0EF0EF11CF0923204E0923C
:1044A0003104C8010E94DD16182FCE0101960E942A
:1044B000D217CE0101960E949C176B017C01CE01A0
:1044C00005960E945F11612F8B2D0E946711882332
:1044D00009F426CCC701B6010E9474376F3171050B
:1044E0008105910524F06EE170E080E090E097FF97
:1044F00003C060E070E0CB0186E01EC01131F9F42A
:10450000CE0101960E94D217CE0101960E949C17FF
:104510006B017C01CE0105960E945F11C701B601B7
:104520000E947437161617061806190624F061E063
:1045300070E080E090E083E00E94520EF1CB1231F7
:1045400079F4CE0101960E94D217CE0101960E9405
:104550009C176B017C01CE0105960E945F11BACFBA
:1045600070E060E086E1133139F3143109F058C08E
:1045700087010E5F1F4F1093320400933104C60170
:104580000E94DD16D82E23E0E20EF11CF0923204D8
:10459000E0923104C8010E94DD16C82EE0D48C01DF
:1045A000E0900F04F0901004E114F10431F0C70121
:1045B0000E94A108C7010E94C0398FE190E00E94CB
:1045C00024397C01FC011382128288EE93E0A0E082
:1045D000B0E084839583A683B7838CE191E09183D7
:1045E0008083178A168A118E108E138E128E158E66
:1045F000148E868D8E7F8D7F868F6C2DC7010E94D5
:104600007A086D2DC7010E945308F0921004E092C1
:104610000F04A80170E060E0C7010E94EA0880CBA7
:10462000153111F500910F041091100401151105B9
:10463000C9F1C8010E94B908CE0101960E94D217A3
:10464000BE016F5F7F4FCE010C960E94E916BE013E
:10465000645F7F4FC8010E94CE13CE010C960E946A
:104660005F11CE010596B7CD1B3109F500910F04FE
:104670001091100401151105A9F0C8010E94B90894
:10468000CE0101960E94D217BE016F5F7F4FCE010F
:104690000C960E94E916BE01645F7F4FC8010E941C
:1046A000A405DBCFCE0101960E94D217DACF1C31D0
:1046B00011F5F2E0EF0EF11CF0923204E0923104B9
:1046C000C6010E94DD16182FCE0101960E94D21756
:1046D000BE016F5F7F4FCE010C960E94E916612FDD
:1046E000CE010C960E94B90BCE010C960E945F1170
:1046F000CE01059670CD1631C9F467E772E083E804
:1047000094E00E94B305CE0101960E94D217BE012B
:104710006F5F7F4FCE010C960E94E916BE01645F69
:104720007F4F83E894E00E94CE13DECF173131F43F
:1047300016D49093320480933104F2CA183189F46C
:10474000CE0101960E94D217CE0101960E94F80B6D
:10475000182FCE0105960E945F1101D41111E0CAF5
:10476000E8CF1931A1F5CE0101960E94D217CE01F2
:1047700001960E949C170E9474376B017C01CE0148
:1047800005960E945F11EBD39C011C141D041E04AE
:104790001F042CF03093320420933104C1CA90914D
:1047A0003E039430B8F726E0929FF0011124ED59B2
:1047B000FD4F209131043091320431832083C28235
:1047C000D382E482F5829F5F90933E03A9CA1A3197
:1047D00031F5C5D39C0190913E03992309F4A0CAF9
:1047E000692F6150770B86E0869FF001879FF00D5F
:1047F0001124ED59FD4F42815381648175814150EF
:1048000051096109710942835383648375831416C6
:104810001506160617060CF4BDCF9150D5CF109291
:1048200050037ECA009719F00E94AB30BC01CB0147
:1048300008951F920F920FB60F9211242F933F935A
:104840008F939F93AF93BF93809107049091080437
:10485000A0910904B0910A043091060423E0230FCB
:104860002D3758F50196A11DB11D209306048093A4
:10487000070490930804A0930904B0930A0480915C
:104880000B0490910C04A0910D04B0910E040196BC
:10489000A11DB11D80930B0490930C04A0930D04F3
:1048A000B0930E04BF91AF919F918F913F912F9143
:1048B0000F900FBE0F901F90189526E8230F0296B9
:1048C000A11DB11DD2CF1F920F920FB60F921124CE
:1048D0002F933F934F935F936F937F938F939F9308
:1048E000AF93BF93EF93FF9380913A0390913B0373
:1048F000A0913C03B0913D03892B8A2B8B2BD1F1E6
:1049000090913903E0913703F09138038081892732
:10491000808380913A0390913B03A0913C03B09136
:104920003D03181619061A061B069CF480913A03DB
:1049300090913B03A0913C03B0913D030197A109E5
:10494000B10980933A0390933B03A0933C03B09347
:104950003D03FF91EF91BF91AF919F918F917F9117
:104960006F915F914F913F912F910F900FBE0F90DC
:104970001F90189580910C010E943303EACF1F927B
:104980000F920FB60F9211242F933F934F935F9383
:104990006F937F938F939F93AF93BF93EF93FF9307
:1049A00083E894E00E944706FF91EF91BF91AF9199
:1049B0009F918F917F916F915F914F913F912F9137
:1049C0000F900FBE0F901F9018951F920F920FB669
:1049D0000F9211242F938F939F93EF93FF93E09166
:1049E0009304F09194048081E0919904F0919A04E9
:1049F00082FD1BC0908180919C048F5F8F732091FA
:104A00009D04821741F0E0919C04F0E0ED57FB4FCC
:104A1000958F80939C04FF91EF919F918F912F919F
:104A20000F900FBE0F901F9018958081F4CF1F92AA
:104A30000F920FB60F9211242F933F934F935F93D2
:104A40006F937F938F939F93AF93BF93EF93FF9356
:104A5000E0912B03F0912C03309749F0A685B785A0
:104A60008585968D91FF14C09C918923A1F4FF91B7
:104A7000EF91BF91AF919F918F917F916F915F91D6
:104A80004F913F912F910F900FBE0F901F9018954F
:104A90009C91892361F7A389B4899C91858980952C
:104AA00089238C93868997890197F1F7608D718DA1
:104AB000A685B785558538E020E0CB010197F1F751
:104AC000822F90E095958795282F4C91452309F0EA
:104AD0002068315091F7868D81FD209580912903C2
:104AE00090E001968F73992730912A03381799F037
:104AF000A0912903B0E0A751BD4F2C9380932903C7
:104B0000828D938D0197F1F7A389B4898C91958952
:104B1000892B8C93ACCF868D8160868FF1CF1F92CD
:104B20000F920FB60F9211242F933F934F935F93E1
:104B30006F937F938F939F93AF93BF93CF93DF93A5
:104B4000EF93FF938091E802C0915005D0E087FF7A
:104B500024C010928500109284008091E8028F5F3B
:104B60008093E8028091E802082E000C990B8C17C4
:104B70009D0724F48091E8028C30C4F18091840078
:104B800090918500049680349C4908F47AC0809105
:104B9000840090918500049676C08091E802082EEA
:104BA000000C990B8C179D07C4F6E091E8028E2F3C
:104BB000EE0F990BFC01EE0FFF1FE80FF91FE45DEC
:104BC000FA4F808186FFC9CFE091E8028E2FEE0F69
:104BD000990BFC01EE0FFF1FE80FF91FE45DFA4F80
:104BE000808160E08F730E940602B7CF209184001D
:104BF00030918500E091E8028E2FEE0F990BFC01B9
:104C0000EE0FFF1FE80FF91FE45DFA4F81819281DB
:104C1000820F931F9093890080938800E091E802AF
:104C20008E2FEE0F990BFC01EE0FFF1FE80FF91FFF
:104C3000E45DFA4F808186FF11C0E091E8028E2F7B
:104C4000EE0F990BFC01EE0FFF1FE80FF91FE45D5B
:104C5000FA4F808161E08F730E940602FF91EF910D
:104C6000DF91CF91BF91AF919F918F917F916F9184
:104C70005F914F913F912F910F900FBE0F901F901A
:104C8000189580E49CE990938900809388008FEFC9
:104C90008093E802E3CF1F920F920FB60F92112478
:104CA0002F933F934F935F936F937F938F939F9334
:104CB000AF93BF93EF93FF938091B900887F8036C5
:104CC00009F44AC0F0F5883209F4A7C018F580311C
:104CD00009F49BC0B8F4882309F4F9C0883009F4BA
:104CE00094C0FF91EF91BF91AF919F918F917F9170
:104CF0006F915F914F913F912F910F900FBE0F9049
:104D00001F901895883109F488C0803251F780933C
:104D1000570414C0803409F49DC040F48033B9F3C3
:104D20008833F9F68093570485ECB0C0803509F4D8
:104D300085C0883509F496C0883499F60E94191602
:104D4000D0CF883909F48CC038F5883729F050F471
:104D5000883611F0803729F683E080935904109249
:104D6000E70257C0883809F47BC0803919F08038D1
:104D700009F0B7CF8091E702803208F071C0E0916E
:104D8000E70281E08E0F8093E7028091BB00F0E0A4
:104D9000E953FD4F80833DC0803B39F0E0F4803A19
:104DA00009F479C0883A09F09CCF84E080935904D3
:104DB0001092C4021092C302E091C102F091C202AB
:104DC00009958091C30281110FC081E08093C302D5
:104DD0001092A10209C0803C09F4A6CF883C09F4D6
:104DE000A3CF883B09F07DCFE091C40281E08E0F14
:104DF0008093C402F0E0EF55FD4F80818093BB00AB
:104E00009091C4028091C30229C0809134048093A0
:104E1000BB0085EC8093BC0064CF909156048091D8
:104E20005504981758F5E091560481E08E0F809351
:104E30005604F0E0EB5CFB4F8081E9CFE091560433
:104E400081E08E0F809356048091BB00F0E0EB5C14
:104E5000FB4F808390915604809155049817C8F2B7
:104E600085E8D8CFE091560481E08E0F80935604F8
:104E70008091BB00F0E0EB5CFB4F80838091580495
:104E800081115CCF81E08093330484EA8093BC007D
:104E90001092590426CF85EC8093BC0010925904DF
:104EA0008091E702803230F4E091E702F0E0E953CC
:104EB000FD4F10826091E70270E0E091C502F09131
:104EC000C60287EC92E009951092E7020ACF109291
:104ED000570434CFCF92DF92EF92FF920F931F933C
:104EE000E82FF92F05C0015011092109310961F19D
:104EF000908196239417B9F305C001501109210937
:104F0000310911F1908196239413F7CFC12CD12C44
:104F1000E12CF12C0AC08FEFC81AD80AE80AF80A67
:104F20000C151D052E053F0579F080818623841719
:104F300091F36C2D7D2D8E2D9F2D1F910F91FF9044
:104F4000EF90DF90CF90089560E070E080E090E017
:104F50001F910F91FF90EF90DF90CF900895EF9207
:104F6000FF920F931F93CF93DF93C0913104D091A1
:104F700032047E012FEFE21AF20AF0923204E0923C
:104F80003104CE010E94DD16082F10E02296D09346
:104F90003204C0933104C7010E94DD169801382BFA
:104FA000C901CDB7DEB7E6E00C94893610928604CD
:104FB0001092850488EE93E0A0E0B0E0809387042F
:104FC00090938804A0938904B0938A042EE231E080
:104FD000309384042093830425EC30E030939004D4
:104FE00020938F0424EC30E03093920420939104BA
:104FF00020EC30E0309394042093930421EC30E0D3
:10500000309396042093950422EC30E0309398047A
:105010002093970426EC30E030939A04209399046F
:1050200010929C0410929D0410929E0410929F0472
:105030001092230510922205809324059093250554
:10504000A0932605B093270580E491E09093210575
:1050500080932005E1E5F5E02DE535E04FEF68EBC5
:105060007BE0809150058C30B0F491E0980F9093E4
:105070005005808390E0DC01AA0FBB1FA80FB91F69
:10508000A45DBA4F12967C936E93119733962E17A8
:105090003F0739F708954083F9CFA3E2B0E0E3E595
:1050A000F8E20C946136789484B5826084BD84B54E
:1050B000816084BD85B5826085BD85B5816085BD13
:1050C00080916E00816080936E00109281008091CB
:1050D0008100826080938100809181008160809353
:1050E0008100809180008160809380008091B10078
:1050F00084608093B1008091B00081608093B000A3
:1051000080917A00846080937A0080917A00826036
:1051100080937A0080917A00816080937A008091F8
:105120007A00806880937A001092C100E091930425
:10513000F091940482E08083E0918F04F0919004D8
:105140001082E0919104F091920480E180831092AA
:105150009B04E0919704F091980486E08083E091AD
:105160009504F0919604808180618083E09195049C
:10517000F0919604808188608083E0919504F0919D
:105180009604808180688083E0919504F091960474
:1051900080818F7D80836EE571E080E090E00E94E9
:1051A00002030E94A1140E94661668EE862E63E038
:1051B000962EA12CB12C5CE1252E51E0352E83E8F2
:1051C00094E00E942906892B09F486C683E894E0BE
:1051D0000E9407068D3099F3E09105048A3009F0AA
:1051E0006FC6AE2FB0E0AF5ABC4F1C92EE2351F009
:1051F00067E671E081E593E00E940F3B892B29F47B
:105200000E94A11410920504DACF6CE671E081E5EA
:1052100093E0C6D77C016CE671E090E080E0C0D7F7
:105220008C01E114F10471F3892B61F36EE671E0F6
:10523000C7010E940F3B892B09F048C16CE671E061
:1052400090E080E0ADD77C016E0122E1C20ED11C5E
:10525000712C6CE671E090E080E0A2D7D6018D93CE
:105260009D936D01892B21F07394B6E07B12F1CFF1
:10527000E114F10439F260E771E0C7010E940F3BCD
:10528000892BD1F47720C1F070E060E08A899B8996
:10529000C9DAF82E60E00E9433028F2D0E94DE01F1
:1052A000BC01990F880B990B0E94DB34AB01BC0148
:1052B000C8010E94E113A6CF6BEC71E0C7010E9408
:1052C0000F3B892BA1F4772091F070E060E08A8990
:1052D0009B89A8DA97FD07C08630910534F4825F78
:1052E0000E94C802DDCF8EE0FBCF83E1F9CF63E7F8
:1052F00071E0C7010E940F3B892BB1F47720A1F028
:1053000070E060E08A899B898DDAF82E60E00E9467
:1053100033028F2D0E94DE01019709F077C040E033
:1053200050E060E87FE3C4CF6AE771E0C7010E9404
:105330000F3B892B91F4E1E0E71578F470E060E031
:105340008C899D896FDAF82E70E060E08A899B89EC
:1053500069DA6F2D0E94E212A7CF60E871E0C70101
:105360000E940F3B892B91F4F1E0F71578F470E07F
:1053700060E08C899D8956DAF82E70E060E08A89B9
:105380009B8950DA6F2D0E94A70F8ACF65E871E0E4
:10539000C7010E940F3B892BE9F422E02715D0F4C6
:1053A00070E060E08A899B893DDAD82E70E060E089
:1053B0008E899F8937DA7C0170E060E08C899D8955
:1053C00031DA41E0EF2809F440E0682F8D2D0E948A
:1053D000FC116CCF69E871E0C7010E940F3B892B7B
:1053E000C9F4E0900F04F0901004E114F10471F09E
:1053F000C7010E94B908D701ED91FC910084F185A5
:10540000E02DC7010995892B09F089CF40E050E0D4
:10541000BA014ECF61E971E0C7010E940F3B892BB1
:10542000A9F7CE014E960E947A156DE772E083E8E7
:1054300094E00E94B305B80183E894E00E946713EA
:105440008CE20E94B30681E1EFE4F2E0DE01119606
:1054500001900D928A95E1F710E000E08AA19BA1EE
:105460000817190740F58E8D9F8DF12C009721F0BC
:10547000800F911FFC01F080EF2DF0E044E0F595E6
:10548000E7954A95E1F781E090E08C0F9D1FE80FCA
:10549000F91F80810E94B306EF2DEF70A1E0B0E00C
:1054A000AC0FBD1FAE0FB11DFD0180810E94B30680
:1054B0000F5F1F4FD3CF6EE471E083E894E00E944A
:1054C0006713CE014E960E945F119CCE68E971E091
:1054D000C7010E940F3B892B09F093C3FE0131964F
:1054E0006F01F12C6CE671E090E080E059D6D601B6
:1054F0008D939D936D01892B09F07EC36AE971E05C
:10550000C8010E940F3B892BC9F4B1E0BF15B0F46C
:1055100070E060E089819A8185D9182F61E00E944E
:10552000330270E060E08B819C817CD961E0892B43
:1055300009F460E0812F0E94060264CE6DE971E0FB
:10554000C8010E940F3B892B01F5E1E0EF15E8F45B
:1055500070E060E089819A8165D9182F61E00E942E
:10556000330270E060E08B819C815CD98F3F9105B4
:1055700019F014F08FEF90E097FF02C090E080E008
:10558000BC01812F0E946F023DCE60EA71E0C8012C
:105590000E940F3B892BC9F4F2E0FF15B0F470E0D4
:1055A00060E08D819E813ED97C0170E060E08B815E
:1055B0009C8138D9182F70E060E089819A8132D9B6
:1055C000A701612F0E94680F1DCE66EA71E0C80135
:1055D0000E940F3B892B09F521E02F15F0F470E0B4
:1055E00060E089819A811ED90E94B50E8C01892BB9
:1055F00009F408CE70E060E08B819C8113D9853B73
:10560000910514F084EB90E097FF02C090E080E0F9
:10561000BC01C8010E947409F5CD6EEA71E0C801B1
:105620000E940F3B892B79F582E08F1560F570E0C1
:1056300060E089819A81F6D8182F80930D0170E07F
:1056400060E08D819E81EED81816190614F081E075
:1056500090E06C01990FEE08FF0870E060E08B812C
:105660009C81E0D864E170E08431910534F0BC01A4
:1056700081329E4414F060E27EE4A7019601812FFE
:105680000E945F03BFCD6CEA71E0C8010E940F3B2E
:10569000892B51F4FF2041F070E060E089819A810C
:1056A000C1D80E943303AECD63EB71E0C8010E9404
:1056B0000F3B892BC9F4B2E0BF15B0F470E060E095
:1056C0008D819E81AFD8082F70E060E08B819C8136
:1056D000A9D8182F70E060E089819A81A3D8402F63
:1056E000612F0E9444108ECD6CEB71E0C8010E94C6
:1056F0000F3B892B11F5E2E0EF15F8F4809142039E
:105700008823D9F070E060E089819A818BD8182FC6
:1057100070E060E08B819C8185D8612F0E9425100C
:105720006D817E81CE0142960E94DD15CE014296AA
:105730000E940310CE014296C6CE65EC71E0C8010E
:105740000E940F3B892B39F480914203882319F082
:105750000E94381057CD6EEC71E0C8010E940F3BDB
:10576000892B91F4F1E0FF1578F461E070E08B8112
:105770009C8158D8182F6CE370E089819A8152D8A7
:10578000612F0E94230E3ECD68ED71E0C8010E949A
:105790000F3B892B01F522E02F15E8F4809141039E
:1057A0008823C9F070E060E089819A813BD8082F96
:1057B00070E060E08B819C8135D8182F6D817E81EF
:1057C000CE0142960E94DD15402F612FCE014296F8
:1057D0000E940C0DAFCF62EE71E0C8010E940F3B3A
:1057E000892B39F480914103882319F00E94F40D2C
:1057F00009CD6CEE71E0C8010E940F3B892B09F0C6
:105800004CC081E08F1508F048C000913F03109113
:1058100040030115110589F0D80119968D919C91CD
:105820000E94C039F8018681978197FD03C060E02E
:105830000E943302C8010E94C03970E060E08B8191
:105840009C810E9412241816190634F46C01CD971D
:1058500034F03CE3C32E02C0CC24C394D12C70E0BE
:1058600060E089819A810E9412247C0186E190E0A7
:105870000E9424398C01A701B6010E949C1010934C
:10588000400300933F03C8010E949507C8010E948E
:105890009210C8010E94D706B5CC65EF71E0C8012F
:1058A0000E940F3B892B51F5F3E0FF1538F58091ED
:1058B0003F0390914003892B09F170E060E08F81F4
:1058C00098850E9412247C0170E060E08D819E81A9
:1058D0000E9412246C0170E060E08B819C810E9428
:1058E00012248C0170E060E089819A810E94122468
:1058F0009701A601B8010E94250C84CC6CEF71E0E1
:10590000C8010E940F3B892B61F4C0903F03D090E7
:105910004003C114D10429F0C6010E949210C601AF
:10592000B9CF65E072E0C8010E940F3B892B99F561
:1059300021E02F1580F582E004E110E0F81679F0FF
:1059400070E060E08D819E810E9412248C014F974F
:1059500014F00EE110E017FF02C010E000E070E06C
:1059600060E08B819C810E941224F82E70E060E040
:1059700089819A810E9412246F2D0E9467118823C9
:1059800009F440CCB80186E00E94520E85E892E00E
:105990000E94BC1337CC6EE072E0C8010E940F3B3E
:1059A000892B91F4FF2081F070E060E089819A8179
:1059B0000E9412241816190614F081E090E0BC0130
:1059C00083E00E94520E1ECC66E172E0C8010E9484
:1059D0000F3B892B99F4FF2089F070E060E089810A
:1059E0009A810E94122497FD05C0BC014F9724F0B4
:1059F0006EE101C060E070E086E0E3CF6DE172E04F
:105A0000C8010E940F3B892B21F470E060E086E121
:105A1000D8CF65E272E0C8010E940F3B892B09F0E4
:105A200056C092E09F1508F052C000910F041091EB
:105A300010040115110531F0C8010E94A108C80128
:105A40000E94C03970E060E089819A810E9412242E
:105A5000F82E70E060E08B819C810E941224E82E79
:105A60008FE190E00E9424398C01DC0113961C9296
:105A70001E921297FC0184829582A682B78231829F
:105A80002082178A168A118E108E138E128E158E12
:105A9000148E868D8E7F8D7F868F6E2DC8010E941D
:105AA0007A086F2DC8010E945308109310040093C8
:105AB0000F0460E875E28D819E810E941224AC0182
:105AC000990F660B770BC8010E94EA089BCB6DE229
:105AD00072E0C8010E940F3B892BC9F4FF20B9F086
