:10000000AEC10000D4C10000D2C100000C94C224D3
:100010000C94C2240C94C224CAC100000C940E2477
:10002000C6C10000C4C10000C2C100000C943A2542
:10003000BEC10000BCC10000BAC10000B8C10000D0
:100040000C94C423B4C100000C9490240C946A2432
:10005000AEC10000ACC10000AAC10000A8C10000F0
:100060000C94F625A4C1000007634236B79BD8A7BD
:100070001A39685618AEBAAB558C1D3CB7CC5763CD
:10008000BD6DEDFD753EF6177231BF000000803F7B
:1000900008000000BE922449123EABAAAA2ABECD97
:1000A000CCCC4C3E00000080BEABAAAAAA3E000009
:1000B0000000BF000000803F000000000008417801
:1000C000D3BB4387D1133D190E3CC3BD4282AD2B38
:1000D0003E68EC8276BED98FE1A93E4C80EFFFBE30
:1000E00001C4FF7F3F00000000004E414E494E49D1
:1000F0005459494E46CDCCCC3D0AD7233C17B7D1F5
:100100003877CC2B329595E6241FB14F0A0000209A
:10011000410000C84200401C4620BCBE4CCA1B0E19
:100120005AAEC59D7400407A10F35A00A0724E1862
:10013000090010A5D4E80000E87648170000E40B99
:1001400054020000CA9A3B000000E1F5050000805F
:10015000969800000040420F000000A086010000B9
:1001600000102700000000E8030000000064000009
:100170000000000A00000000000100000000002C48
:1001800076D888DC674F0823DFC1DFAE59E1B1B70D
:1001900096E5E3E453C63AE651997696E8E6C284DA
:1001A00026EB898C9B62ED407C6FFCEFBC9C9F40F2
:1001B000F2BAA56FA5F490055A2AF75C936B6CF917
:1001C000676DC11BFCE0E40D47FEF520E6B500D0ED
:1001D000ED902E0300943577050080841E08000002
:1001E000204E0A000000C80C333333330F986E12D0
:1001F000831141EF8D2114893BE65516CFFEE6DBD6
:1002000018D1844B381BF77C1D901DA4BBE424201F
:100210003284725E228100C9F124ECA1E53D2752AF
:10022000454144592C4F4D2C00562C00AED580A88A
:100230003FD300408D142002A1C8DA1281CFD9F13A
:10024000DB40A4A6AF1F111F001F001D15171515B9
:100250001F07041F17151D1F151D01011F1F151F47
:1002600017151F41542B4E414D45000D0A004154B6
:100270002B4E414D453D004552522C4F50004C4FA6
:10028000472C0002542C004C4F472C004552522C56
:100290004D5033004D50335F5245414459004F4B50
:1002A0002C434C454152004552522C454D50545917
:1002B000004F4B2C52554E0053415645442C00459F
:1002C00052522C434845434B0050524F4752414DE8
:1002D0005F444154412C004552522C52414E4745F7
:1002E000004552522C53495A450050524F475241F3
:1002F0004D5F5245414459004552522C4C4F4E4798
:100300000000000000240027002A00000000080070
:1003100002010000030407000000000000000000CC
:1003200000000023002600290001020408102040DC
:1003300080010204081020010204081020000000BF
:1003400000250028002B0004040404040404040213
:1003500002020202020303030303030081271124A4
:100360001FBECFEFD8E0DEBFCDBF12E0A0E0B1E00E
:10037000E0E3F6E702C005900D92A036B107D9F789
:1003800025E0A0E6B2E001C01D92A536B207E1F774
:1003900011E0CFEAD1E004C02197FE010E94153997
:1003A000CE3AD107C9F70E94F8270C94163B28CE05
:1003B000833081F028F4813099F08230A9F00895DB
:1003C0008730A9F08830C9F08430B1F48091800082
:1003D0008F7D03C0809180008F7780938000089587
:1003E00084B58F7784BD089584B58F7DFBCF8091D0
:1003F000B0008F778093B00008958091B0008F7D1A
:10040000F9CFCF93DF93282F30E0F901E55FFC4F60
:100410008491F901E75DFC4FD491F901E95BFC4F50
:10042000C491CC2399F08111C3DFEC2FF0E0EE0FE3
:10043000FF1FE15EFC4FA591B491EC91ED2381E0AB
:1004400090E009F480E0DF91CF91089580E090E0A2
:10045000FACF1F93CF93DF93282F30E0F901E55FA8
:10046000FC4F8491F901E75DFC4FD491F901E95B00
:10047000FC4FC491CC23A1F0162F811199DFEC2FF2
:10048000F0E0EE0FFF1FE35CFC4FA591B4918FB736
:10049000F894EC91111108C0D095DE23DC938FBF46
:1004A000DF91CF911F910895DE2BF8CFCF93DF938B
:1004B00090E0FC01E75DFC4F2491895B9C4FFC01BF
:1004C00084918823C9F090E0880F991FFC01EF5FA9
:1004D000FC4FA591B491FC01E35CFC4FC591D49114
:1004E00061110DC09FB7F8948C91209582238C9355
:1004F0008881282328839FBFDF91CF9108956230A0
:1005000051F49FB7F8943C91822F809583238C936C
:10051000E8812E2BEFCF8FB7F894EC912E2B2C93F4
:100520008FBFEACF1F93CF93DF93182FEB0161E0CA
:10053000BDDF209739F460E0812F8BDFDF91CF9111
:100540001F910895CF3FD10511F461E0F5CFE12F60
:10055000F0E0E55FFC4FE491E33019F140F4E13065
:10056000B1F0E230C9F0C038D1057CF7E4CFE73014
:1005700011F1E83041F1E430B1F780918000806200
:1005800080938000D0938B00C0938A00D7CF84B52E
:10059000806884BDC7BDD2CF84B5806284BDC8BD2C
:1005A000CDCF80918000806880938000D0938900B7
:1005B000C0938800C3CF8091B00080688093B00062
:1005C000C093B300BBCF8091B00080628093B00035
:1005D000C093B400B3CF8E3008F08E508770806423
:1005E00080937C0080917A00806480937A0080916F
:1005F0007A0086FDFCCF8091780090917900089573
:100600003FB7F89480910B0490910C04A0910D04D5
:10061000B0910E0426B5A89B05C02F3F19F0019696
:10062000A11DB11D3FBFBA2FA92F982F8827BC014C
:10063000CD01620F711D811D911D42E0660F771F74
:10064000881F991F4A95D1F708958F929F92AF9274
:10065000BF92CF92DF92EF92FF924B015C01D0DF0D
:100660006B017C01CDDF6C197D098E099F09683E05
:10067000734081059105B0F321E0821A9108A10829
:10068000B10888EEC80E83E0D81EE11CF11C81146D
:100690009104A104B10431F7FF90EF90DF90CF9067
:1006A000BF90AF909F908F900895089590910B0107
:1006B00089130BC0E3E8F2E0E4919FEF90930B0104
:1006C000E13049F028F0E23061F060E0C2CE0895F8
:1006D00010926E00FACF90916F009D7F90936F0003
:1006E000F4CF909170009D7F9093700091E0909373
:1006F000B0009091B100987F94609093B1001092F7
:10070000B300E3CFA5E0B0E0E8E8F3E00C945A369C
:100710008B0129013A0190910B01891739F09F3F14
:1007200009F46BC02596E0E10C947636E3E8F2E03C
:1007300094919D8397FDF6CF61E0B8DE8D8188238B
:1007400021F09D81923009F049C14801B12CA12CC2
:1007500060E072E18AE790E0A50198010E942C36E2
:1007600029833A834B835C8369017A0181E0C81A4B
:10077000D108E108F1089FEFC916D104E104F104A2
:1007800009F00CF400C160E472E48FE090E0A50190
:1007900098010E942C3669017A0181E0C81AD108BB
:1007A000E108F1089D81923009F0A1C08FEFC816D1
:1007B000D104E104F10409F00CF4E7C160E970ED43
:1007C00083E090E0A50198010E942C3669017A012E
:1007D00091E0C91AD108E108F1088FEFC816D104D9
:1007E000E104F10411F00CF080C183E09091B100BC
:1007F000987F892B8093B100CEC080930B01E3E8F2
:10080000F2E094919D839F3F09F48CCF913039F1B0
:1008100048F0923009F445C09D8197FD83CF61E097
:1008200045DE8FCF14BC15BC94B5926094BD95B5D0
:10083000916095BD282F30E0F901E95BFC4FE49110
:10084000F0E0EE0FFF1FE35CFC4F45915491F9017E
:10085000E75DFC4FE491E0932E031D826DCF109273
:1008600080001092810090918100986090938100A7
:1008700090918100916090938100282F30E0F901E0
:10088000E95BFC4FE491F0E0EE0FFF1FE35CFC4FEF
:1008900045915491F901E75DFC4FE491E0932D03FC
:1008A0004BCF1092B0001092B1009091B0009260C6
:1008B0009093B0009091B10091609093B100282F77
:1008C00030E0F901E95BFC4FE491F0E0EE0FFF1F2F
:1008D000E35CFC4F459154915093380340933703A8
:1008E000F901E75DFC4FE491E093390325CF9FEFD9
:1008F000C916D104E104F10409F00CF46DC068E4F8
:1009000078EE81E090E0A50198010E942C36690103
:100910007A0181E0C81AD108E108F1089D81992384
:1009200009F4FCC08FEFC816D104E104F10411F002
:100930000CF0FDC0F1C064E274EF80E090E0A5012E
:1009400094010E942C3669017A0181E0C81AD1080D
:10095000E108F10885E09FEFC916D104E104F10434
:1009600009F008F443CF62E17AE780E090E0A50166
:1009700094010E942C3669017A0181E0C81AD108DD
:10098000E108F108E7C081E09D8191112FCF95B575
:10099000987F892B85BD2FEF3FEFA90141145104AA
:1009A0006104710409F045C09D81913009F460C073
:1009B000923009F46FC09111B5CEC7BC20933303B8
:1009C00030933403409335035093360380916E0087
:1009D000826080936E00A6CE82E0D6CF4801B12C13
:1009E000A12C60E072E18AE790E0A50198010E94E5
:1009F0002C3669017A0181E0C81AD108E108F108B2
:100A0000C114D10491E0E906F1040CF591E08D8167
:100A1000813009F0C0CF80918100887F892B80933D
:100A200081002FEF3FEFA9014114510461047104CB
:100A3000F9F0D801AA0FBB1FA30192010E9448360A
:100A400028EE33E040E050E00E940A36ADCF68E483
:100A500078EE81E090E0A50198010E942C366901B2
:100A60007A0181E0C81AD108E108F10893E0CFCFFC
:100A7000D0928900C092880020932F0330933003D6
:100A8000409331035093320380916F0082608093D2
:100A90006F0048CEC092B30020933A0330933B03DB
:100AA00040933C0350933D0380917000826080939B
:100AB000700038CE84E09FEFC916D104E104F10440
:100AC00009F008F464CFC980DA80EB80FC808AE00A
:100AD000F594E794D794C7948A95D1F781E0C81A22
:100AE000D108E108F10885E052CF68E478EE81E0B2
:100AF00090E0A50198010E942C3669017A0181E0FD
:100B0000C81AD108E108F1089FEFC916D104E10421
:100B1000F10411F00CF00FCF84E068CE83E09FEF7A
:100B2000C916D104E104F10409F00CF430CF62E1FC
:100B30007AE780E090E0A50194010E942C366901DB
:100B40007A0181E0C81AD108E108F1089D81992352
:100B500009F4B0CF86E09FEFC916D104E104F10497
:100B600009F008F443CEC980DA80EB80FC809AE07B
:100B7000F594E794D794C7949A95D1F781E0C81A71
:100B8000D108E108F10887E031CE82E02FCEDB0109
:100B900014964D915C9115976D917C91DC01ED91CE
:100BA000FC910280F381E02D09950895EF92FF9268
:100BB0000F931F93CF93DF938C017B01D0E0C0E0B4
:100BC000F701EC0FFD1F6491662361F0D801ED91F0
:100BD000FC910190F081E02DC8010995892B11F05D
:100BE0002196EECFCE01CDB7DEB7E6E00C9480368D
:100BF000B0E0A0E0EEEFF5E00C9460366C017B0114
:100C00008B01040F151FEB015E01AE18BF08C01762
:100C1000D10759F06991D601ED91FC910190F081D5
:100C2000E02DC6010995892B79F7C501CDB7DEB74F
:100C3000EAE00C947C36FC01538D448D252F30E086
:100C4000842F90E0821B930B541710F0CF960895D9
:100C500001970895FC01918D828D981761F0A28D06
:100C6000AE0FBF2FB11D5D968C91928D9F5F9F73CC
:100C7000928F90E008958FEF9FEF0895FC01918D82
:100C8000828D981731F0828DE80FF11D858D90E0EF
:100C900008958FEF9FEF0895FC01918D228D892F8C
:100CA00090E0805C9F4F821B91098F739927089574
:100CB00083E894E0F1DF21E0892B09F420E0822F22
:100CC000089580E090E0892B21F0F2DF81110E94ED
:100CD00000000895FC01A48DA80FB92FB11DA35ADF
:100CE000BF4F2C91848D90E001968F739927848F4C
:100CF000A689B7892C93A089B1898C91837080646F
:100D00008C93938D848D981306C00288F389E02D0F
:100D100080818F7D80830895EF92FF920F931F93C0
:100D2000CF93DF93EC0181E0888F9B8D8C8D98139E
:100D300018C0E889F989808185FF13C09FB7F894AE
:100D4000EE89FF896083E889F989808183708064F6
:100D500080839FBF81E090E0CDB7DEB7E6E00C94E2
:100D60008036F62E0B8D10E00F5F1F4F0F7311278B
:100D7000E02E8C8D8E110BC00FB607FCFACFE889E0
:100D8000F989808185FFF5CFCE01A4DFF2CFEB8D0D
:100D9000EC0FFD2FF11DE35AFF4FF0829FB7F8943F
:100DA0000B8FEA89FB8980818062D2CF682F83E82C
:100DB00094E0B2CF0895CF93DF93EC01888D882320
:100DC000B1F0AA89BB89E889F9898C9185FD03C0B6
:100DD000808186FD0CC00FB607FCF7CF8C9185FF94
:100DE000F2CF808185FFEDCFCE0174DFEACFDF91B6
:100DF000CF9108958F929F92AF92BF92CF92DF9240
:100E0000EF92FF921F93CF93DF93FC018281938136
:100E100068177907A8F54A01AA24BB24C82DC32E58
:100E2000D42EE52EFF241C2DD22F8085882361F03F
:100E3000889E40011124C92D8C9D600111241D2D17
:100E4000829FD0011124DB2FA685E184F284938553
:100E5000A91322C0CB01880F991F680F791F6E0D4F
:100E60007F1DA385A60FB72FB11DCC93A485A60F18
:100E7000B72FB11D1C938585680F711DFB01D083B1
:100E8000DF91CF911F91FF90EF90DF90CF90BF90B7
:100E9000AF909F908F900895660F771F660F771F12
:100EA0006E0D7F1D252F332744275527882349F0B2
:100EB00090E0829F7001839FF00C929FF00C1124B0
:100EC0002F2DA60FB72FB11D2C93CBCFA9E0B0E0EB
:100ED000ECE6F7E00C9462368C01DC0119968D91FA
:100EE0009C91892B09F471C08BDBF801C784D088F1
:100EF000E188F2886C157D058E059F0520F46787D3
:100F0000708B818B928BF801C784D088E188F2883E
:100F10006C197D098E099F096C327140810591051C
:100F200018F3F894D80114968D919C9115979A8393
:100F300089831996ED91FC917F01BFEFEB1AFB0AB3
:100F400080818987F80190810388F489E02DD80198
:100F500055968C91992309F43CC09081982B9887E1
:100F60009081809589238F838F818C8388E08B8308
:100F700058856F8149853B812C8189819A81D70170
:100F8000508347FD252F3A952083262F39F0441FA3
:100F900000C000006083000000C0F2CF38E04D9137
:100FA00060830000019761F7D8015496FC93EE939B
:100FB000539749873B832C839A838983789420DBDA
:100FC000F8016787708B818B928B2996E8E00C94EF
:100FD0007E369081982B98879081809589238F8386
:100FE0008F818E8388E08D8358856F8149853D810F
:100FF0002E8189819A81D701508347FD252F00C01A
:1010000000C0208300C000C000C000C000C06083DA
:101010000000262F3A9541F0441F000000C000C098
:1010200000C000C000C0E8CF38E04D9100C0608330
:1010300000C0019709F7D8015496FC93EE9353979B
:1010400049873D832E83B8CFCF93DF93EC018E8108
:101050009F8197FD0AC061E029DA60E08E81F9D9AD
:1010600081E08983DF91CF910895198280E0FACFE2
:1010700020912B0330912C032817390771F490919C
:101080002A0380912903981741F0E0912A03F0E0A8
:10109000E751FD4F808190E008958FEF9FEF089515
:1010A0000895EF92FF920F931F93CF93DF93DC018C
:1010B0005C96ED90FC905D97E114F10469F481E099
:1010C00090E013969C938E93129790E080E0CDB7BA
:1010D000DEB7E6E00C9480365196ED91FC91529784
:1010E00050968C915097982F90950FB75E962C91B3
:1010F0005E97122F127021FD6095F89420811123C4
:1011000019F1282B2083E7012197F1F728E0462FDA
:1011100050E0308160FF1AC0382B3083E7012197FF
:10112000F1F7BA0175956795215089F7112381F080
:101130008081892380830FBF5C968D919C9101975C
:10114000F1F781E090E0C3CF2923DCCF3923E5CF4D
:101150009081892BEFCF20912B0330912C032817FE
:10116000390761F48091290320912A0390E0805C83
:101170009F4F821B91098F739927089590E080E01B
:10118000089520912B0330912C0328173907B9F4C7
:1011900090912A0380912903981789F0E0912A03FE
:1011A000F0E0E751FD4F808120912A0330E02F5F6E
:1011B0003F4F2F73332720932A0390E008958FEF3A
:1011C0009FEF08951F93CF93DF93EC01162F60E0FC
:1011D000812F6CD98E8D81FD03C061E0812F39D9BB
:1011E0001C87812F90E0FC01E75DFC4FE491ED87C7
:1011F000FC01E95BFC4FE491F0E0EE0FFF1FE15EC4
:10120000FC4F859194919F878E87DF91CF911F919D
:1012100008951F93CF93DF93EC01162F6E8D669583
:10122000617081E06827812F14D961E0812F3ED958
:10123000812F90E0FC01E75DFC4FE491E88BFC011D
:10124000E95BFC4FE491F0E0EE0FFF1FE35CFC4F25
:10125000859194919A8B898BDF91CF911F910895FD
:10126000FC018BE191E09183808380912B0390912D
:101270002C03E817F90759F4A389B4899C9185894F
:10128000809589238C9310922C0310922B03089540
:10129000CF93DF93FC01828D938D892B41F1A09137
:1012A0002B03B0912C03AE17BF0709F1109751F033
:1012B0005396CD91DC915497988155968C91809559
:1012C00089238883868D8E7F868F109229031092C2
:1012D0002A03F0932C03E0932B03A389B4898C9108
:1012E0009589892B8C9381E0DF91CF91089580E0DF
:1012F000FBCFCF93DF93EC019A01AB011B8E1A8ECB
:10130000198E188E1F8A1E8A60E079E08DE390E0C6
:101310000E942C36F901C90103972430310510F4DD
:1013200081E090E09D8F8C8F6C85663108F053C012
:10133000C901969587958431910508F451C043976A
:101340009F8B8E8BC9010597369710F481E090E052
:10135000998F888FC901880F991F280F391F3695DB
:101360002795369527952D30310508F43CC02C5033
:1013700031093B8F2A8F9091680084E0683048F0F3
:1013800021E06E3008F420E081E001C0880F2A954A
:10139000EAF7892B809368009C852DE630E0983031
:1013A00050F02BE630E09E3030F02CE630E0963105
:1013B00010F030E020E03C8B2B8B292F30E0983070
:1013C000A8F481E001C0880F9A95EAF78D8B8C8D87
:1013D0009D8D0197F1F7CE015BDFDF91CF910895ED
:1013E00081E090E0ADCF21E030E0C3CF9E3040F40B
:1013F0002850310981E001C0880F2A95EAF7E6CF2D
:101400002E503109F7CFCF92DF92EF92FF92CF9318
:10141000DF93EC01603282E07807CCF5653B710523
:1014200014F064EB70E0898128E830E0281B310972
:1014300087FD3395220F331F220F331F6901330FAE
:10144000EE08FF088A8128E532E0281B310987FD74
:101450003395220F331F220F331F032E000C440B32
:10146000550B2C193D094E095F09DB0177FF02C0BE
:10147000B0E0A0E00E94523624EB30E040E050E0C3
:101480000E942C36C20ED31EE41EF51EB601E88162
:10149000EC3070F5298188E890E0821B910927FDE6
:1014A0009395880F991F880F991F681779077CF00B
:1014B0002A8188E592E0821B910927FD9395880F88
:1014C000991F880F991F681779070CF4CB010297B1
:1014D000880F991F4FB7F8942E2F30E0F901EE0FC7
:1014E000FF1FE20FF31FE45DFA4F928381834FBF2A
:1014F000DF91CF91FF90EF90DF90CF9008952091F2
:10150000C302260F3327331F21323105ECF420911B
:101510005904FC0190E080E0243069F082E00895F5
:10152000A091C3022191AC014F555D4FA40FB52F7F
:10153000B11D2C930196861798F38091C302680F12
:101540006093C30280E0089581E0089510925904E9
:1015500081E0809358041092330461E082E10E949C
:10156000290261E083E10E942902E9EBF0E0808139
:101570008E7F808380818D7F808388E48093B80014
:1015800085E48093BC000895CF93DF9391E090931E
:10159000A0028823B1F0C091B800D091BA00809128
:1015A000BC008A7B8093BC0060E082E10E9429023B
:1015B00060E083E10E942902C9DFD093BA00C093A2
:1015C000B800DF91CF910895B0E0A0E0EAEEFAE034
:1015D0000C946236D091820481E0D13208F09AC036
:1015E000C09181040DD86B017C0180915904811157
:1015F0006CC082E08093590481E0809358048FEF9F
:101600008093570410925604D0935504A1E6B4E099
:10161000E5E3F4E080E0D81388C0109234048091B0
:101620003404CC0FC82BC093340480913304813030
:1016300009F07FC0109233040E9400036B017C010B
:10164000809134048093BB0080915B0490915C0492
:10165000A0915D04B0915E04892B8A2B8B2BA1F0A5
:101660000E94000300915B0410915C0420915D04D2
:1016700030915E046C197D098E099F0906171707C2
:101680002807390708F442C08091BC0083FDD8CFF9
:1016900085EC8093BC000E9400036B017C0180916B
:1016A0005904823009F447C0809157048F3F09F4F0
:1016B00064C080915704803209F461C0809157045E
:1016C000803309F45EC084E025C080915B04909172
:1016D0005C04A0915D04B0915E04892B8A2B8B2B56
:1016E00009F483CF0E94000300915B0410915C0415
:1016F00020915D0430915E046C197D098E099F096B
:10170000061717072807390708F06FCF80915A048A
:101710003BDF85E0109260041092820410925F0417
:10172000CDB7DEB7E8E00C947E369D9191938F5F44
:1017300072CF85EEAECF80915B0490915C04A09156
:101740005D04B0915E04892B8A2B8B2B09F4A7CF03
:101750000E94000300915B0410915C0420915D04E1
:1017600030915E046C197D098E099F0906171707D1
:101770002807390708F093CFC9CF80E0CBCF82E0AC
:10178000C9CF83E0C7CF08950895E0919F0280916B
:101790009E02E81730F4F0E0E258FD4F808190E0BF
:1017A00008958FEF9FEF089590919F0280919E0280
:1017B0002FEF3FEF981748F4E92FF0E0E258FD4F84
:1017C000208130E09F5F90939F02C901089580912E
:1017D0009E0290919F02891B990B0895B0E0A0E0B2
:1017E000E4EFFBE00C9462367C01CB018A0120918E
:1017F0005F04222389F0EB016B01C40ED51ECC15CA
:10180000DD0561F06991D701ED91FC910190F081C6
:10181000E02DC7010995F3CF642F71DEC801CDB764
:10182000DEB7E8E00C947E36A1E0B0E0EAE1FCE04F
:101830000C946836698320915F042223F9F020918B
:101840008204203258F021E030E0FC01338322830F
:1018500090E080E02196E2E00C9484368091600470
:10186000E82FF0E0EF59FB4F998190838F5F8093D1
:1018700060048093820481E090E0ECCF61E0CE01CF
:1018800001963DDEF8CF682F80E295E0CDCF089538
:1018900090E080E00895FF920F931F93CF93DF9322
:1018A00000910F04109110040115110519F1FC01AC
:1018B00024813581232BF1F0F62EEC01C801E8DC00
:1018C000F1E0FF121CC06EE672E0C8016FD9BE01E4
:1018D00080910F04909110045AD96BE672E08091C8
:1018E0000F049091100462D968EE73E080E090E0FC
:1018F0000E942503CDB7DEB7E5E00C94813663E6A0
:1019000072E0C80153D9BE0180910F049091100478
:101910003ED9EACFCF93FC012285222339F0C1E0E2
:1019200080859185892B81F4C0E00EC06081718132
:10193000828193819F77C1E02CEA35EC47E257E33F
:101940000E949C37181684F78C2FCF9108959091A0
:10195000050121E020935F049093810410926004BC
:1019600010928204886090E08EDF2ECE0895A3E06E
:10197000B0E0EDEBFCE00C945F36209141032223B4
:1019800009F470C07C0100E059E1C52E14E063E168
:10199000B62E7AE0A72EE0E19E2EDD24D394202FF0
:1019A00030E0F701848195812817390708F05AC083
:1019B00080819181009709F43FC0820F931FFC0141
:1019C000208119821A821B8280ED820F8A30B0F545
:1019D000022E000C330B20533109C901880F991FC7
:1019E000280F391FDE01119690E080E02B5B3D4F00
:1019F000F901E80FF91FE491ED9301968330910509
:101A0000B9F780910401D0925F0480938104109211
:101A100060041092820480E490E035DF43E050E0FF
:101A2000BE016F5F7F4F80E295E0D8DE90E080E0FE
:101A30002ADFCADD0F5FB3CF20E0C3CF2D3221F400
:101A40001B831A831983DDCF2E3211F49A82D9CFEA
:101A50002A3311F4AA82D5CF253299F6C9821A8386
:101A6000BB82CFCF2396EBE00C947B36CF93C82F6D
:101A70008091040191E090935F048093810410921F
:101A800060041092820490E080E0FDDE6C2F80E222
:101A900095E0CADE99DDCF910895CF93803208F0AA
:101AA0008FE1C82FCC0FCC0F862F683008F087E06D
:101AB000806BDCDF8C2F8C70D9DF8C2F82958F7040
:101AC0008061D4DFCF9108950F931F93CF93DF935D
:101AD00080914103882311F1C0E001E06C2F80E088
:101AE000DCDFD8E08091040100935F0480938104DF
:101AF000109260041092820480E490E0C4DE10E151
:101B000090E080E0C0DE1150D9F75EDDD15051F792
:101B1000CF5FC83019F760E080E0BFDFDF91CF9181
:101B20001F910F910895CF93DF938093040110923A
:101B30009F0210929E02109260041092820406DDB1
:101B400083EC9BE09093C2028093C10284EC9BE003
:101B50009093C6028093C502CCE2D2E0FE0184914C
:101B600085DF2196F2E0C534DF07C1F781E080937D
:101B70004103AADFDF91CF910895AAE0B0E0E3EC42
:101B8000FDE00C946636009160021091610201152F
:101B9000110581F11E821D829EE799839FEF9A8332
:101BA00096E09B839FEE9A878C83272F30E07E837D
:101BB0006F8390E08B5F9E4F820F931F860F911D66
:101BC00091958195910998878987C80161DBD80132
:101BD000ED91FC910280F381E02D4AE050E0BE01DE
:101BE0006F5F7F4FC801099568E770E080E090E083
:101BF0000E9425032A96E4E00C948236CF93C0E03D
:101C000080916202C81758F4EC2FF0E0E95FFE4FB4
:101C100070E060E080810E949202CF5FF1CF8091FE
:101C20000C0187FF0E94560380916002909161022F
:101C3000892B21F070E060E086E19FDFCF9108956D
:101C4000CF92DF92EF92FF921F93CF93DF93E0E06A
:101C5000F1E0DF01D0E0C0E0482F50E02D91022EEE
:101C6000000C330B2417350781F4CE01880F991F20
:101C7000C80FD91FCF5ADA4FCE01DF91CF911F91F4
:101C8000FF90EF90DF90CF9008952196C430D1055A
:101C900029F7F12CE12C919197FF63C0F701E050F7
:101CA000FF4F80836701CC0CDD1CE601CE0DDF1DEC
:101CB000CF5ADA4F98819C30F8F6182F61E00E94D5
:101CC00056028881282F30E0F901EE0FFF1FE20F46
:101CD000F31FE45DFA4F1F739081907C192B1083E2
:101CE00019821A822CE0622F0E940939829FB0016A
:101CF000112430E020E0AB01420F531FFA01EE0F38
:101D0000FF1FE40FF51FE45DFA4F908196FD16C0AA
:101D10002F5F3F4F2C30310571F781110FC01092AA
:101D2000800082E0809381001092850010928400F0
:101D3000B19A80916F00826080936F00F601EE0D82
:101D4000FF1DEF5AFA4FE0818E2F90E0FC01EE0F5D
:101D5000FF1FE80FF91FE45DFA4F808180648083E4
:101D60008BCF9FEFE91AF90A94E0E916F10409F024
:101D700092CFD0E0C0E080CFE0916202A7E0B1E076
:101D800090E0E91729F02D91281761F09F5FF9CFB6
:101D9000E43040F491E09E0F90936202F0E0E95F3E
:101DA000FE4F80830895EF92FF920F931F93CF937E
:101DB000DF93082F162F7A01EA014F3F510519F0E2
:101DC00014F0CFEFD0E0C1308FEFD80714F4C1E0AA
:101DD000DFEF802FD1DF812FCFDF61E0802F0E94E6
:101DE000560261E0812F0E945602BE01802F1E1410
:101DF0001F049CF070E060E0E114F10471F00E94B7
:101E00009202662777276C1B7D0B812F0E9492021E
:101E1000CDB7DEB7E6E00C9480360E94920270E007
:101E200060E0F3CF0F931F93CF93DF93D82FC62F8C
:101E300061E00E94560260E08D2F0E9429028BE52E
:101E400094E00197F1F78C2FC63008F085E0825FAF
:101E50000E94EB028C018BE990E00197F1F761E0C1
:101E60008D2F0E9429028BE397E90197F1F7C801B2
:101E7000DF91CF911F910F910895DC0114968D9100
:101E80009C9115976817790750F4ED91FC91119783
:101E9000E60FF71F15967C936E93149710820895A2
:101EA000CF93807FC82FC62B8C2F51DD8C2F846061
:101EB0004EDD8C2F4CDD83EC90E00197F1F7CF9154
:101EC0000895CF93DF93C82FD62FEADF6D2F8C2F85
:101ED0008295807FE5DFDF91CF9108951F93CF93A7
:101EE000DF93209142032223B9F0EC0110E0212F6F
:101EF00030E08C819D812817390770F488819981A1
:101F0000009741F0820F931FFC01808161E0D9DFCF
:101F10001F5FEDCF80E0FACFDF91CF911F91089541
:101F200090910601891710F08FEF890F643008F047
:101F300063E0E62FF0E0ED5EFE4F9081890F60E0F8
:101F40008068BFCF089580914203882339F060E014
:101F500081E0B7DF8BE39FE10197F1F708951F93CD
:101F6000CF93DF93142F80930501609306011092A5
:101F70009F0210929E021092600410928204E6DA90
:101F800083EC9BE09093C2028093C10284EC9BE0BF
:101F90009093C6028093C50262E370E080E090E017
:101FA0000E94250360E080E37BDFCBE4D6E4CE0132
:101FB0000197F1F760E080E373DF2197F1F760E0CC
:101FC00080E36EDF83E592E00197F1F760E080E265
:101FD00067DF80E2123008F088E260E072DF60E0E4
:101FE0008CE06FDF60E086E06CDF81E0809342038D
:101FF000AADFDF91CF911F910895FC0144815581A3
:1020000070E060E0818592850C94FF3A0895B0E01D
:10201000A0E0EDE0F0E10C946236EC016B01F42EEF
:10202000E52E198218861F86188A198A1A8A81E075
:102030008E878B871C8692E09D8788838B01000F9B
:10204000111F060F171F1D830C83C8010E941B3927
:102050009A878987009769F1A80170E060E00E9483
:10206000FF3ADB82CA82FE82EF828981882341F0B7
:1020700061E08F2D0E94560260E08F2D0E942902A0
:102080008F2D9E2DFC01E95BFC4FE491F0E0EE0FFB
:10209000FF1FE35CFC4F259134913C8B2B8BFC01A3
:1020A000E75DFC4FE491ED8BCDB7DEB7E8E00C9433
:1020B0007E361D821C821B821A82D5CF0F931F93FE
:1020C000CF93DF938C01EB01FC018081918100971C
:1020D000E1F06881798161157105A9F04281538130
:1020E0002C813D814217530770F00E940F3B8C8179
:1020F0009D81F801958384831D821C82DF91CF919D
:102100001F910F9108950E94B73988819981F80134
:10211000918380838A819B81938382838C819D813B
:1021200095838483198218821B821A82E5CFB0E0DE
:10213000A0E0EDE9F0E10C946236EC018B01FB01CB
:10214000C190D190E190F190BF01FC01C192D19278
:10215000E192F192CF016E177F0709F0AFDFF8012E
:1021600082858A87CE01CDB7DEB7E8E00C947E3653
:10217000CF93DF93EC0188819981009711F00E9441
:10218000B739198218821D821C821B821A82DF9144
:10219000CF910895FC0180819181009711F00C94FA
:1021A000B73908950F931F93CF93DF93861306C01B
:1021B00080E0DF91CF911F910F910895062F182F86
:1021C000C0916002D0916102209729F0CE0148D8D9
:1021D000CE010E94B7398FE190E00E941B39EC01DB
:1021E0001B821A8288EE93E0A0E0B0E08C839D838E
:1021F000AE83BF838BE191E0998388831F8A1E8A17
:10220000198E188E1B8E1A8E1D8E1C8E8E8D8E7FB3
:102210008D7F8E8F602FCE010E940909612FCE0124
:102220000E94E208D0936102C0936002209709F4F3
:10223000BFCF40E855E260E070E0CE015AD8CE0151
:1022400027D864E670E080E090E00E94250370E00B
:1022500060E08CE092DC68E978E080E090E00E9449
:10226000250362E070E089E088DC6CE271E080E0E8
:1022700090E00E94250381E09CCF0F931F93762F5F
:1022800089019A0190E0FC01E75DFC4F6491FC013B
:10229000E95BFC4FE4917111762FF0E0EE0FFF1F28
:1022A000E15EFC4F85919491472F0E94152761159F
:1022B00071058105910529F06F5F7F4F8F4F9F4F0B
:1022C0009F701F910F910895A5E0B0E0EAE6F1E15B
:1022D0000C946036182F062FF42ECE0101966C0157
:1022E00085E0F60111928A95E9F761E0812F0E945D
:1022F000560260E0812F0E94290264E170E080E0D4
:1023000090E0063121F462E070E080E090E00E940D
:10231000250361E0812F0E94290283E790E0019765
:10232000F1F762E0812F0E94560228EE33E040E090
:1023300050E060E0812FA1DF672B682B692B41F40F
:1023400060E070EC89E794EC2596EAE00C947C362A
:1023500028EE33E040E050E061E0812F8EDF672B14
:10236000682B692B69F3B12CA12C28EE33E040E0F7
:1023700050E060E0812F81DF672B682B692B01F330
:1023800028EE33E040E050E061E0812F76DF611518
:10239000710581059105A1F2F50123E0F595E79519
:1023A0002A95E1F7EC0DFD1D2081220F69327105A0
:1023B0008105910508F03EC02083FFEFAF1ABF0AE8
:1023C00088E2A816B10489F6B9806A811B819C81D4
:1023D0008B2D860F810F890F2D818213B1CF06318E
:1023E00069F582E090E0FF2011F090E080E08C0D34
:1023F0009D1DFC01008110E0102F0027E3E0F0E0BC
:10240000FF2011F0E1E0F0E0EC0DFD1D8081082BD4
:10241000B8017F7790E080E00E94D0342DEC3CEC56
:102420004CEC5DE30E943135F1108ECF17FF8CCF5D
:1024300090588ACF822F81608083BFCFFF20D1F058
:1024400070E090E080E00E94D2342DEC3CEC4CEC4B
:102450005DE30E9431356B017C016B2D70E090E0F3
:1024600080E00E94D2349B01AC01C701B6010E94FA
:102470009F366ACF692F70E090E080E00E94D234EE
:102480002DEC3CEC4CEC5DE30E9431356B017C01A2
:10249000612FE4CFCF93DF93C82FD62F61E00E9446
:1024A000560260E08D2F0E94560260E08C2F0E9441
:1024B000290283E090E00197F1F761E08C2F0E9400
:1024C000290283E290E00197F1F760E08C2F0E94EF
:1024D000290220E335E740E050E061E08D2FCDDEBA
:1024E00020E030E0A901611571058105910531F009
:1024F0002AE330E040E050E00E940A36CA01B90108
:10250000DF91CF910895FC0124813581FB01448145
:10251000558124173507A0F0FC0180819181009737
:1025200079F0FB01608171816115710549F0241B0F
:10253000350B820F931F0E94063B21E0892B09F087
:1025400020E0822F0895CF93DF93EC01A881B98119
:10255000EB01E881F9811097E9F03097B1F4EC01D3
:102560008C819D81892BC1F08C9190E00BC0DB01A7
:1025700014968D919C91892B79F0808190E09195B2
:1025800081959109DF91CF910895BF01CD010E94FE
:10259000063BF8CF309759F790E080E0F3CFFB018E
:1025A00001900020E9F73197AF01461B570BDC0182
:1025B000ED91FC910280F381E02D099508958F92B1
:1025C0009F92AF92BF920F931F93CF93DF93CDB79C
:1025D000DEB7A1970FB6F894DEBF0FBECDBF19A22C
:1025E000423008F44AE08E010F5D1F4F842E912C7B
:1025F000B12CA12CA50194010E940A36E62FB90145
:10260000CA01EA30FCF4E05DD801EE938D01232B82
:10261000242B252B79F790E080E0109721F0BD0165
:1026200083E894E0BCDFA1960FB6F894DEBF0FBE3E
:10263000CDBFDF91CF911F910F91BF90AF909F9031
:102640008F900895E95CE0CFCF93DF93BC0183E8DE
:1026500094E00E94D605EC016DE471E083E894E01B
:102660009EDF8C0F9D1FDF91CF9108950F931F93D5
:10267000CF93DF93EC010E94C7058C016DE471E0FC
:10268000CE018DDF800F911FDF91CF911F910F91B0
:1026900008958F929F92AF92BF92CF92DF92EF9266
:1026A000FF925C016A017B0169E272E083E894E0D9
:1026B0000E94D605A114B10421F0B50183E894E08D
:1026C0006EDF8CE20E94D606A7019601C701B60113
:1026D0000E94EC3760E571E081111AC04601570194
:1026E000E894B7F82FEF3FEF4FE75FE7C501B4017C
:1026F0000E94EC3781111DC02FEF3FEF4FE75FE7DE
:10270000C501B4010E94CC3418169CF464E571E054
:1027100083E894E044DF6DE471E083E894E03FDF18
:10272000FF90EF90DF90CF90BF90AF909F908F90F1
:1027300008952FEF3FEF4FE75FE4C701B6010E9416
:102740009C3718161CF468E571E0E2CF2FEF3FEFDD
:102750004FE75FECC701B6010E94CC3487FDF3CF91
:1027600020E030E0A901C701B6010E94CC3487FF08
:1027700007C08DE20E94D606F7FAF094F7F8F094BD
:102780002AE037ED43EA5BE3C701B6010E949F36BA
:102790004B015C010E9470376B017C010E94D034B8
:1027A0009B01AC01C501B4010E949E364B015C0146
:1027B0004AE0C701B60103DF8EE20E94D60620E0A0
:1027C00030E040E251E4C501B4010E9431354B01D3
:1027D0005C010E9470376B01F12CE12C4AE0C701CB
:1027E000B601EDDEC701B6010E94D0349B01AC01F9
:1027F000C501B4010E949E3620E030E040E251E481
:102800000E9431350E94703790E080E04AE0D7DEC8
:1028100082CF6FE172E083E894E00E94D6056CE518
:1028200071E083E894E0BBDE6DE471E083E894E05E
:10283000B6CE08950F931F93CF93DF93EC01888159
:102840009981009759F02A813B812617370730F08C
:1028500081E0DF91CF911F910F9108958B016F5F00
:102860007F4F0E94403A009759F0998388831B83D9
:102870000A832C813D81232B59F7FC011082E8CF7C
:1028800080E0E7CFA2E0B0E0E8E4F4E10C94643645
:102890008C0169831A82FC01E480F580FFEFEF1A56
:1028A000FF0AB701C7DF882381F0F8012081318159
:1028B00084819581BE016F5F7F4F820F931F0E94BD
:1028C0000F3BF801F582E48281E02296E6E00C9469
:1028D0008036EF92FF920F931F93CF93DF93EC011B
:1028E0007B018A01BA01A6DF811108C0CE0140DC5C
:1028F000CE01CDB7DEB7E6E00C9480361D830C83A5
:10290000B701888199810E940F3BF2CFCF93DF936B
:10291000EC016115710569F0FB0101900020E9F7F8
:102920003197AF01461B570BD4DFCE01DF91CF911A
:1029300008951EDCFACFCF93DF93EC01FB018617DD
:10294000970741F0608171816115710539F044810B
:102950005581BFDFCE01DF91CF91089509DCFACF19
:102960000F931F93CF93DF93EC018B01FB018191B8
:102970009191A191B191BF0188839983AA83BB836F
:102980001D821C821F821E8219861886CE01049623
:10299000D2DFF80182858A87DF91CF911F910F9155
:1029A0000895FC0111821082138212821582148212
:1029B000FB0101900020E9F73197AF01461B570B4F
:1029C00088CF0895CF92DF92EF92FF92CF93DF935B
:1029D000EC016FE471E0E5DF80910F049091100449
:1029E000009709F441C00E9448098FB7F894C0903D
:1029F0000704D0900804E0900904F0900A048FBF07
:102A00002FB7F8948091070490910804A0910904CD
:102A1000B0910A042FBF8C199D09AE09BF098035FA
:102A20009105A105B10500F580910F049091100466
:102A3000DC01ED91FC910084F185E02D0995892B55
:102A4000F9F280910F0490911004DC01ED91FC915A
:102A50000284F385E02D09958D3011F08A3061F400
:102A60008C819D81892B01F3CE01DF91CF91FF9065
:102A7000EF90DF90CF900895682FCE0103DFD4CF81
:102A80006FE471E004968DCF0895A3E0B0E0EBE42D
:102A9000F5E10C9460366C018B016FE471E081DF2D
:102AA0000115110549F1F80101900020E9F731976E
:102AB0005F01A01AB10AB50176956795C601BADE25
:102AC000EE24E394F12CEA14FB04B0F41B82F80129
:102AD0008081898381818A8340E150E070E060E0F9
:102AE000CE0101960E94B92FC601CCDEF2E0EF0EB6
:102AF000F11C0E5F1F4FE7CFC6012396EAE00C944E
:102B00007C3685ED8093BC0080915B0490915C04E1
:102B1000A0915D04B0915E040796A11DB11D23E054
:102B2000B695A795979587952A95D1F72091BC00E2
:102B300024FD03C010925904089540915B04509104
:102B40005C0460915D0470915E04452B462B472B1D
:102B500069F30097A105B10541F02AE22A95F1F742
:102B600000C00197A109B109E1CF80915A040C94EA
:102B7000C40A08951F93CF93DF93EC01162F0E9490
:102B8000E535181721F0612FCE010E94ED35DF9158
:102B9000CF911F9108950C94E5350895B0E0A0E021
:102BA000E4EDF5E10C9460361092500383E090E080
:102BB000F2DFC82F84E090E0EEDFD82FD0934403FB
:102BC000C093430385E090E0E6DF082F86E090E0C5
:102BD000E2DF182F10937C0200937B0287E090E0E5
:102BE000DADFA82E88E090E0D6DFB82E90E080E013
:102BF000D2DF8F3409F044C081E090E0CCDF8D3427
:102C000009F03EC082E090E0C6DF8130C9F5CE0118
:102C10000197873F9340A0F5C017D10788F1D12CC9
:102C2000C12CF12CE12CC7010996B5DFC80ED11CCF
:102C30008FEFE81AF80ACE15DF05A9F7AC14BD042A
:102C4000F9F4E1E1F4E080E2DF011D928A95E9F711
:102C500010923E0310924C0310924D0310924E03BB
:102C600010924F0381E00115110509F080E0809377
:102C70007D02109232041092310481E0809350035F
:102C8000CDB7DEB7EAE00C947C3620914303309157
:102C900044038217930718F409967DCF089580E0C6
:102CA0000895A9E3B0E0E7E5F6E10C945A367C011B
:102CB000FB018285882381F0F70111821082138243
:102CC0001282158214826C5F7F4FC70134DEC70108
:102CD000E996E0E10C94763680809180A280B38002
:102CE00020E030E0A901C501B4010E949C3720E03A
:102CF00030E040E05FE387FD38C0C501B4010E94C9
:102D00009F360E946B370E94D2342B013C01AC01EC
:102D10009B01C501B4010E949E369F772FE632E1E8
:102D200043E85AE30E94CC349E012F5F3F4F690174
:102D300087FF20C0F7011182108213821282158250
:102D40001482C301B2010E946B372AE0A6010E94DF
:102D5000F130F60101900020E9F73197AF014C19ED
:102D60005D09B601C701B5DDB2CFC501B4010E944E
:102D70009E36C7CF1DAA1CAA1FAA1EAA19AE18AE3E
:102D8000890122E044E0C501B4010E949C2FBC01EE
:102D9000CE01C496BBDD62E671E0C60102DEB6017B
:102DA000CE01C496B0DBB82EC601F4D9BB2041F0E9
:102DB00068AD79AD61507109CE01C4965ED8EBCF94
:102DC00064E671E0C601EDDDB601CE01C4969BDB81
:102DD000B82EC601DFD9BB2039F068AD79AD61509E
:102DE0007109CE01C49649D8F7011182108213826D
:102DF000128215821482BE016C5C7F4FC7015ED9BE
:102E0000CE01C496C7D963CFFC018285882339F0EF
:102E100084819581009741F00C949F3008956081E2
:102E2000718182819381089560E070E0CB01089503
:102E30000F931F93CF93DF93EC018B0121DEF801F9
:102E400080819181009791F00E949F30FE016193F3
:102E5000719381939193B801CF016DDD81E08A87F1
:102E6000CE01DF91CF911F910F91089560E070E046
:102E7000CB01ECCFA3EAB0E0E0E4F7E10C945836E4
:102E80004C0180913104909132041C012FEF221AE1
:102E9000320A3092320420923104F7DE280E311CBF
:102EA000CE0101967C018E01075A1F4FC956DF4F94
:102EB00099838883C759D040C701E2DD9BE0E90EC2
:102EC000F11CE016F106C1F7F12CA4E6B0E0AC0F5E
:102ED000BD1F1496C456DF4FB983A883CC59D04088
:102EE000EFE6F0E0EC0FFD1F3496C056DF4FF9839C
:102EF000E883C05AD0402AE730E02C0F3D1F2C5FFA
:102F00003F4FCE55DF4F39832883C25AD040C090FF
:102F10003104D0903204C214D30408F0E4C5360161
:102F20003FEF631A730A7092320460923104C60153
:102F3000ACDEE82E81E0E81235C097E09F1538F34B
:102F400038016801A4E0CA0ED11C8091310490912F
:102F500032049C012F5F3F4F3093320420933104A1
:102F600094DEF30181933F01CE16DF0671F7D8019D
:102F70004D905D906D907C90C80182DDF80140829B
:102F80005182628273821286EE24E394EF0CB801C0
:102F900081E090E08C0F9D1FFBE0FF9E800D911D56
:102FA000112484C022E0E2124DC032E0C30ED11CD5
:102FB000D0923204C0923104C30167DEE82E6FE480
:102FC00071E0CE018C599F4FECDC6E2D70E0CE018C
:102FD0008C599F4F2FDCEE20B1F0809131049091FD
:102FE0003204EA948215930570F49C012F5F3F4FE1
:102FF000309332042093310448DE682FCE018C597F
:103000009F4F40DCE8CF87E08F15B8F0BE016C59C8
:103010007F4FC8010DDFEE24E394EF0CB80181E08F
:1030200090E08C0F9D1FABE0FA9E800D911D112446
:103030007ED8C8010496AED8FE2CCE018C599F4F85
:10304000A9D865CFB3E0EB1237C0E2E0CE0ED11CB9
:10305000D0923204C0923104C30117DEF7E0FF15AD
:1030600008F455CF883008F08EC024E0829FF0012C
:103070001124EF5EFB4F4080518062807380C80155
:10308000FFDCD8014D925D926D927C9213971A9657
:103090001C92EE24E394EF0CB80181E090E08C0FD9
:1030A0009D1FBBE0FB9E800D911D112440D8C801DF
:1030B000049670D8FE2C2BCFE4E0EE122CC0F2E088
:1030C000CF0ED11CD0923204C0923104C301DDDD99
:1030D00027E02F1508F41BCF90E0B0E0A0E0863089
:1030E0009105A105B10524F085E090E0A0E0B0E0F5
:1030F000825F0E94EB026C01C801C2DCB601DD0CEC
:10310000880B990B0E94D234D8016D937D938D93D7
:103110009C931397BCCFE5E0EE1215C0F2E0CF0E02
:10312000D11CD0923204C0923104C301AEDDE82E2E
:1031300060E00E94560227E02F1508F4E8CE8E2D9D
:103140000E940102D8CFE6E0EE1221C0F2E0CF0EDD
:10315000D11CD0923204C0923104C30196DDE82E16
:1031600060E00E94560227E02F1508F4D0CE8E2D85
:103170000E940102412C512CF0E86F2EFFE37F2EBC
:10318000019709F47CCF412C512C320178CFE7E034
:10319000EE1222C02601F2E04F0E511C5092320472
:1031A00040923104C30171DDE82E23E0C20ED11C30
:1031B000D0923204C0923104C20167DD37E03F157E
:1031C00008F4A5CE682F8E2D65D92B013C01C801CE
:1031D00057DCC301B20196CFE8E0EE122DC0260104
:1031E000F2E04F0E511C5092320440923104C30160
:1031F0004CDDE82E360123E0620E711C7092320421
:1032000060923104C20141DD582E34E0C30ED11C5E
:10321000D0923204C0923104C30137DD97E09F158C
:1032200008F475CE41E0811101C040E0652D8E2D7E
:103230004BD82B013C0123CFE9E0EE121DC0260143
:10324000F2E04F0E511C5092320440923104C301FF
:103250001CDDE82E23E0C20ED11CD0923204C092B5
:103260003104C20112DD37E03F1508F450CE682F5B
:103270008E2D0E94120F3FCFEAE0EE1224C0C090C4
:103280000F04D0901004C114D10409F45FC4C60126
:103290000E944809F7E0FF1508F439CED601ED91F8
:1032A000FC910084F185E02DC6010995412C512C3B
:1032B000E0E86E2EEFE37E2E892B09F05DCE412CE7
:1032C000512C320159CE2BE0E21226C037E03F15D7
:1032D00008F41DCECE018C599F4F74DBBE016C5992
:1032E0007F4FC801A5DDDD24D394DF0CB80181E058
:1032F00090E08C0F9D1FFE9C800D911D11240E945B
:103300009710C80104960E94CA10CE018C599F4F95
:103310000E94CA10FD2CFBCD8AE2E8122CC0FF20CF
:1033200009F4F5CD81E090E08C0F9D1FABE0FA9E93
:10333000800D911D1124FC013B976F01CF010E946C
:103340008A0CE82EC8019CDB61E0E6266E2D70E059
:1033500090E080E00E94D034D8016D937D938D93EE
:103360009C9313971A961C92B801C6010E9497105D
:10337000C801049665CEB1E0BF1508F0C8CDEFEFE7
:10338000EF0DC756DF4FE883C959D0407BE0D72EF9
:1033900061E070E06C0F7D1FED9D600D711D1124CB
:1033A000CE0186589F4FDCDAFA94FA942F2D30E044
:1033B000C256DF4F39832883CE59D040FD9CC001CF
:1033C0001124C656DF4F99838883CA59D04061E0E3
:1033D00070E06C0F7D1F680F791FCE0181599F4FE0
:1033E000BFDACE018C599F4F4BDBA8961CAE1DAEA9
:1033F0001EAE1FAEA897AF961FAEAF97CE018159F4
:103400009F4F02DD5B016C01CE0186589F4FFCDCB3
:103410002B013C01ECEEEE0DE93108F0C0C0F0E00C
:10342000EC5EF54E0C9415392D1A401A5B1A621A8F
:10343000721ACF1ACF1ACF1ACF1ACF1A791A3A1B8B
:103440009F1BAE1BBD1BC91BCF1ACF1ACF1ACF1A99
:10345000D51BF11BCF1A0E1C921CAC019B01C6019F
:10346000B5010E949F362B013C01C80109DBD80140
:103470004D925D926D927C9213971A961C9210C099
:10348000AC019B01C601B5010E949E362B013C0197
:10349000C801F6DAF8014082518262827382128694
:1034A000B801CE018C599F4F0E949710C801049615
:1034B0000E94CA1074C0AC019B01C601B5010E94F4
:1034C0003135D1CF2CEA35EC47E257E39F770E94A4
:1034D000CC3487FD5AC1A3019201C601B5010E94F7
:1034E0000337D4CFAC019B01C601B5010E94A037C0
:1034F000BACFEA968FADEA97811108C0CC57DF4F5B
:10350000E880C458D040EE2009F49BC0BE01665844
:103510007F4FCE018B579F4FC4DBBE0161597F4F58
:10352000CE0185579F4FBDDBC157DF4F28813981C1
:10353000CF58D040C757DF4F88819981C958D040B4
:103540002817390759F4BE016B577F4FCE018557B5
:103550009F4F0E94A31261E0892B09F060E070E0A8
:1035600090E080E00E94D2342B013C01EE24E394F1
:10357000C80186DAF8014082518262827382128623
:10358000B801CE018C599F4F0E949710C801049634
:103590000E94CA10CE0185579F4FE110B7C1B7E016
:1035A000BF15C0F18BE0C256DF4FE881F981CE59DB
:1035B000D0408E9F70018F9FF00C112421E030E0ED
:1035C0002C0F3D1FE20EF31EA8968CAD9DADAEAD47
:1035D000BFADA897F70180839183A283B383C656BA
:1035E000DF4F88819981CA59D0400496C456DF4F75
:1035F00068817981CC59D040820F931F9CD9AF96B6
:103600008FADAF97D7011A968C93C756DF4FF880CE
:10361000C959D040C456DF4F88819981CC59D040D8
:103620000E94CA10C056DF4F88819981C05AD0408D
:103630000E94CA10CE55DF4F88819981C25AD0406E
:10364000FFCCA3019201C601B5010E949E369F776F
:103650002CEA35EC47E257E30E94CC34412C512C44
:1036600060E8662E6FE3762E87FD82CF412C512CC9
:1036700032017ECFEA968FADEA97811108C0CC5710
:10368000DF4FE880C458D040EE2009F43FC0BE01AF
:1036900066587F4FCE018B579F4F03DBBE016159A8
:1036A0007F4FCE0185579F4FFCDAC157DF4F2881EE
:1036B0003981CF58D040C757DF4F88819981C95889
:1036C000D0402817390759F4BE016B577F4FCE0100
:1036D00085579F4F0E94A31261E0892B09F060E09B
:1036E00081E0682770E090E080E00E94D2342B01F6
:1036F0003C01EE24E394C801C3D9D8014D925D92F8
:103700006D927C9213971A961C923ACFA301920164
:10371000C601B5010E949E369F772CEA35EC47E240
:1037200057E30E949C37412C512C50E8652E5FE3F3
:10373000752E87FFE0CF412C512C3201DCCFAC013C
:103740009B01C601B5010E94CC3487FF1EC0412CED
:10375000512C40E8642E4FE3742E9ACEAC019B01AD
:10376000C601B5010E94CC341816DCF0412C512C56
:1037700030E8632E3FE3732E78CEAC019B01C60187
:10378000B5010E949C37181614F3412C512C3201BC
:103790007FCEAC019B01C601B5010E949C3787FF1B
:1037A000E5CF412C512C320160CECE0181599F4F83
:1037B0000E948A0CE82E882331F0CE0186589F4F54
:1037C0000E948A0CE82EC8015BD96E2D70E090E053
:1037D00080E00E94D034F8016083718382839383F8
:1037E0005ECECE0181599F4F0E948A0CE82E811136
:1037F00006C0CE0186589F4F0E948A0CE82EC80151
:103800003FD96E2D70E090E080E00E94D034D80166
:103810006D937D938D939C9313972FCEBE01665825
:103820007F4FCE018B579F4F3CDABE0161597F4FCE
:10383000CE018F569F4F35DAC557DF4F1982188258
:10384000CB58D040C357DF4F19821882CD58D04093
:10385000C157DF4F19821882CF58D040BE016F5632
:103860007F4FCE0185579F4F66D8CB57DF4F68807B
:103870007980C558D0406114710409F44DC0C75710
:10388000DF4FC880D980C958D040C114D10439F164
:10389000C157DF4F88819981CF58D040C80ED91EBB
:1038A000B601CE0185579F4F0E941A148823A1F1BB
:1038B000C557DF4F28813981CB58D040C157DF4FE2
:1038C00088819981CF58D040B301820F931F0E9405
:1038D0000F3BC157DF4FD982C882CF58D040BE01BD
:1038E00065577F4FC801A4DAB801CE018C599F4FAC
:1038F0000E949710C80104960E94CA10CE018557F5
:103900009F4F0E94CA10CE018F569F4F0E94CA102F
:10391000CE018B579F4FCCCDCE0185579F4F0E9434
:10392000B810DDCFC601B5010E946B376B01613461
:1039300071051CF020E4C22ED12C1C141D041CF0B7
:10394000CC24C394D12CC301B2010E946B373B013C
:10395000C616D7060CF43601161417041CF066249C
:103960006394712CCE018F569F4F2CD8CB56DF4FCE
:1039700048805980C559D040C414D5040CF42601A0
:103980006FE471E0C8010DD8CB56DF4F8881998173
:10399000C559D040009709F18415950508F42C010C
:1039A000CF56DF4FE881F981C159D040E40DF51DB4
:1039B000E0801082CF56DF4F68817981C159D040B5
:1039C000C8010E948614CF56DF4F88819981C15962
:1039D000D040480E591EF201E082B801CE018F5648
:1039E0009F4F0E945E10C8010E94CA106301CB560F
:1039F000DF4F88819981C559D0408615970508F415
:103A000062C02301F1E04F1A51086414750410F0EC
:103A1000620123016FE471E0CE018B579F4F0E943A
:103A2000D114CB56DF4F68807980C559D040C61479
:103A3000D70428F54614570408F43201CF56DF4F57
:103A4000E881F981C159D040E60DF71DE080108270
:103A5000CF56DF4F68817981C159D0406C0D7D1DF3
:103A6000CE018B579F4F0E948614CF56DF4F88811F
:103A70009981C159D040680E791ED301EC92BE01E4
:103A80006B577F4FC801D4D9D12CEE24E394B801F1
:103A9000CE018C599F4F0E949710C80104960E9436
:103AA000CA10DD2029F0CE0185579F4F0E94CA1011
:103AB000EE2029F0CE018B579F4F0E94CA10CE01F5
:103AC0008F569F4FF5CC6FE471E0CE0185579F4F25
:103AD0000E94D114BE0165577F4FC801A9D9DD24CA
:103AE000D394E12CD4CF3092320420923104FF20C1
:103AF00019F161E070E06C0F7D1FBBE0FB9E600D73
:103B0000711D11246B507109C4010E94B0140B5037
:103B10001109C80104960E94CA10C956DF4F2881B6
:103B20003981C759D0402017310789F7C401CD55D5
:103B3000DF4FE2E10C947436C4010E944015F40199
:103B400010821182128213821286E1CF37E03F1574
:103B500008F4DDC9B4CBA5E1B0E0E1EBFDE10C94E4
:103B6000583610924C0310924D0310924E0310924F
:103B70004F0320917D02A0904303B0904403211194
:103B800004C0A0907B02B0907C028091310490919F
:103B900032048A159B05B0F400913104109132046F
:103BA00068012FEFC21AD20AD0923204C0923104B7
:103BB000C8016BD8F82E81111FC0B0923204A092B8
:103BC000310416C010923E0380917B0290917C02DA
:103BD000211103C021E020937D0290933204809351
:103BE0003104209143033091440382179307A0F2DC
:103BF0006596E2E10C94743661E086133AC0CE011A
:103C0000019638D9CE010196FFD86B017C01CE0117
:103C100005960E94CA1020E030E0A901C701B60154
:103C20000E94CC3487FF03C0C12CD12C76018FB702
:103C3000F8948090070490900804A0900904B09034
:103C40000A048FBF20E030E04AE754E4C701B60120
:103C50000E9431350E947037860E971EA81EB91E2D
:103C600080924C0390924D03A0924E03B0924F036A
:103C7000BFCF8EEF8F0D8230B0F50E5F1F4F1093C8
:103C8000320400933104C60100D8082FCE010196FA
:103C9000F1D8CE010196B8D84B015C01CE01059652
:103CA0000E94CA10083008F0A3CF74E0079F80017B
:103CB000112482E00F5E1B4FF81206C0F8018082CB
:103CC0009182A282B38294CFA5019401F801608110
:103CD0007181828193810E949F36F8016083718394
:103CE0008283938385CFF4E0FF1222C0580122E043
:103CF000A20EB11CB0923204A0923104C6010E94FF
:103D00004516F82E0D5F1F4F1093320400933104B7
:103D1000C5010E944516182F61E08F2D0E945602A2
:103D200061E0111101C060E08F2D0E94290260CF77
:103D300065E0F61230C00E5F1F4F109332040093FF
:103D40003104C6010E944516182F61E00E945602F8
:103D5000CE0101968FD8CE01019656D86B017C0119
:103D6000CE0105960E94CA10C701B6010E946B37AA
:103D70006F3F71058105910529F024F06FEF70E028
:103D800080E090E097FF03C060E070E0CB01812FFE
:103D90000E9492022DCF76E0F71240C0780182E0B7
:103DA000E80EF11CF0923204E0923104C6010E9448
:103DB0004516D82E0D5F1F4F109332040093310427
:103DC000C7010E944516182FCE01019653D8CE0187
:103DD00001961AD84B015C01CE0105960E94CA10CB
:103DE000C501B4010E946B376F3F710581059105D4
:103DF00029F024F06FEF70E080E090E06130AFEFE9
:103E00007A078A079A0724F461E07FEF8FEF9FEF2C
:103E1000AB01612F8D2D0E94D30EEACEE7E0FE129A
:103E200033C00E5F1F4F1093320400933104C6015C
:103E30000E9445160E94200E8C01CE0101961AD8D0
:103E4000CE0101960E9404176B017C01CE010596FC
:103E50000E94CA100115110509F4CACEC701B601A6
:103E60000E946B37653B71058105910524F064EB79
:103E700070E080E090E097FF03C060E070E0CB016D
:103E8000C8010E94030AB4CEF8E0FF126CC00E5FB6
:103E90001F4F1093320400933104C6010E9445164F
:103EA000182FCE0101960E943A17CE0101960E946A
:103EB00004176B017C01CE0105960E94CA10C70150
:103EC000B6010E946B376B017C0121E2C2162EE421
:103ED000D206E104F10434F050E2C52E5EE4D52EA2
:103EE000E12CF12C64E1C616D104E104F1042CF4B8
:103EF00044E1C42ED12CE12CF12CCE0101960E947C
:103F00003A17CE0101960E9404174B015C01CE01C5
:103F100005960E94CA1020E030E0A901C501B40155
:103F20000E94CC3487FF03C0812C912C540120E0E7
:103F300030E04AE754E4C501B4010E9431350E94E3
:103F400070379B01AC0110930C012115310541051F
:103F5000510521F421E030E040E050E0B601812F2E
:103F60000E94820345CE79E0F7120CC00E5F1F4F0E
:103F70001093320400933104C6010E9445160E943A
:103F8000560336CE8AE0F81227C05801A2E0AA0EE6
:103F9000B11CB0923204A0923104C6010E944516B1
:103FA000D82E7801E3E0EE0EF11CF0923204E0929C
:103FB0003104C5010E944516C82E0C5F1F4F109397
:103FC000320400933104C7010E944516482F6C2D1E
:103FD0008D2D0E94AF0F0CCEFBE0FF1265C0CE010D
:103FE00001960E943A17CE0101960E9404176B01B8
:103FF0007C01CE0105960E94CA10CE0101960E9456
:104000003A17CE0101960E9404174B015C01CE01C4
:1040100005960E94CA10CE0101960E943A17BE0171
:104020006F5F7F4FCE010C960E945116CE01059610
:104030000E94CA1080914203882389F1C701B6010A
:104040000E946B376B017C0124E0C216D104E104AD
:10405000F1042CF033E0C32ED12CE12CF12CF7FE2F
:1040600003C0C12CD12C7601C501B4010E946B376D
:10407000DC01CB0184319105A105B10524F083E178
:1040800090E0A0E0B0E0B7FF03C080E090E0DC018A
:104090006C2D0E94900FCE010C960E946E0FCE01E7
:1040A0000C960E94CA10A4CD6CE0F61203C00E94C8
:1040B000A30F9ECD7DE1F7120CC00E5F1F4F109332
:1040C000320400933104C6010E9445160E94930DEC
:1040D0008FCD8EE1F81262C0CE0101960E943A1790
:1040E000CE0101960E9404176B017C01CE0105965A
:1040F0000E94CA10CE0101960E943A17CE01019685
:104100000E9404174B015C01CE0105960E94CA1063
:10411000CE0101960E943A17BE016F5F7F4FCE011C
:104120000C960E945116CE0105960E94CA108091ED
:104130004103882309F4B3CFC701B6010E946B374E
:104140006B017C01A8E0CA16D104E104F1042CF053
:1041500027E0C22ED12CE12CF12CF7FE03C0C12C9C
:10416000D12C7601C501B4010E946B37DC01CB0173
:1041700080319105A105B10524F08FE090E0A0E029
:10418000B0E0B7FF03C080E090E0DC016C2D0E943E
:104190004D0DCE010C960E94B70C81CFEFE1FE12BF
:1041A00003C00E94640D24CDFDE0FF125EC00E5FCF
:1041B0001F4F1093320400933104C6010E9445162C
:1041C000B82ECE0101960E943A17CE0101960E94A8
:1041D00004176B017C01CE0105960E94CA10C7012D
:1041E000B6010E946B376B017C012DE3C216D1042E
:1041F000E104F1042CF09CE3C92ED12CE12CF12C2C
:104200001C141D041E041F0424F0C12CD12C7601A3
:10421000C39400913F03109140030115110581F0F3
:10422000F801818592850E94B739F80186819781CE
:1042300097FD03C060E00E945602C8010E94B73992
:1042400086E190E00E941B398C014B2D50E0B601B5
:104250000E9407101093400300933F03C8010E947F
:104260002408C8010E94FD0F8FC0FEE0FF1293C01A
:10427000CE0101960E943A17CE0101960E940417C2
:104280006A8B7B8B8C8B9D8BCE0105960E94CA100E
:10429000CE0101960E943A17CE0101960E940417A2
:1042A0006B017C01CE0105960E94CA10CE010196D9
:1042B0000E943A17CE0101960E9404174B015C013F
:1042C000CE0105960E94CA10CE0101960E943A17AF
:1042D000CE0101960E9404172B013C01CE010596E8
:1042E0000E94CA1000913F0310914003011511056F
:1042F00009F47ECCF801228033802114310409F4C2
:1043000077CCC301B2010E946B37712C77FD07C0D7
:104310006F3F710519F014F06FEF70E0762EC50154
:10432000B4010E946B37B12C77FD07C06F3F710558
:1043300019F014F06FEF70E0B62EC701B6010E94BD
:104340006B37F12C77FD07C06F3F710519F014F042
:104350006FEF70E0F62E6A897B898C899D890E94B7
:104360006B37272D30E050E040E03B294F2977FDA7
:104370000FC0A1E02A1A31086215730508F41B0169
:10438000B101C8010E94FA06C8010E94660730CC3C
:10439000312C212CF5CFEFE0FE1209C000913F0334
:1043A000109140030115110509F05BCF21CCF0E11C
:1043B000FF123FC0780122E0E20EF11CF0923204BD
:1043C000E0923104C6010E944516B82E0D5F1F4FC2
:1043D0001093320400933104C7010E944516182F30
:1043E000CE0101960E943A17CE0101960E94041751
:1043F0006B017C01CE0105960E94CA10612F8B2DA6
:104400000E94D210882309F4F3CBC701B6010E94A1
:104410006B376F3171058105910524F06EE170E015
:1044200080E090E097FF03C060E070E0CB0186E0A1
:104430001FC061E1F6121FC0CE0101960E943A171B
:10444000CE0101960E9404176B017C01CE010596F6
:104450000E94CA10C701B6010E946B3716161706D4
:104460001806190624F061E070E080E090E083E037
:104470000E94BD0DBDCB72E1F7120FC0CE010196B7
:104480000E943A17CE0101960E9404176B017C012D
:10449000CE0105960E94CA10B8CF83E1F81204C07D
:1044A00070E060E086E1E4CFA4E1FA1258C0780140
:1044B000E2E0EE0EF11CF0923204E0923104C6010B
:1044C0000E944516D82E0D5F1F4F109332040093A3
:1044D0003104C7010E944516C82EECD47C0100911E
:1044E0000F04109110040115110531F0C8010E944C
:1044F0003009C8010E94B7398FE190E00E941B3952
:104500008C01FC011382128288EE93E0A0E0B0E0FF
:1045100084839583A683B7838BE191E09183808325
:10452000178A168A118E108E138E128E158E148E87
:10453000868D8E7F8D7F868F6C2DC8010E94090924
:104540006D2DC8010E94E2081093100400930F041F
:10455000A70170E060E0C8010E94790949CBF5E14C
:10456000FF1222C000910F041091100401151105D3
:10457000D1F1C8010E944809CE0101960E943A1764
:10458000BE016F5F7F4FCE010C960E945116BE0197
:10459000645F7F4FC8010E943613CE010C960E94C3
:1045A000CA10CE0105967DCD2BE1F21221C00091FB
:1045B0000F041091100401151105A9F0C8010E9403
:1045C0004809CE0101960E943A17BE016F5F7F4FE6
:1045D000CE010C960E945116BE01645F7F4FC80148
:1045E0000E94C705DACFCE0101960E943A17D9CFB3
:1045F0006CE1F61221C00E5F1F4F1093320400933E
:104600003104C6010E944516182FCE0101960E9462
:104610003A17BE016F5F7F4FCE010C960E94511674
:10462000612FCE010C960E944B0CCE010C960E947D
:10463000CA10CE01059635CD76E1F71219C06EE7A6
:1046400072E083E894E00E94D605CE0101960E94B4
:104650003A17BE016F5F7F4FCE010C960E94511634
:10466000BE01645F7F4F83E894E00E943613DDCF84
:1046700087E1F81206C01ED490933204809331046F
:10468000B7CAA8E1FA1211C0CE0101960E943A17EA
:10469000CE0101960E948A0C182FCE0105960E9429
:1046A000CA1008D41111A4CAE7CFE9E1FE1234C040
:1046B000CE0101960E943A17CE0101960E9404177E
:1046C0000E946B376B017C01CE0105960E94CA10D7
:1046D000F1D39C011C141D041E041F042CF0309304
:1046E00032042093310484CA90913E039430B8F789
:1046F00026E0929FF0011124ED59FD4F20913104E5
:104700003091320431832083C282D382E482F582E5
:104710009F5F90933E036CCA6AE1F61227C0CAD32A
:104720009C0190913E03992309F462CAE92FE1505C
:10473000FF0BAF0186E0849FF001859FF00D1124EF
:10474000ED59FD4F4281538164817581415051097A
:1047500061097109428353836483758314161506B6
:10476000160617060CF4BBCF9150D3CF109250030E
:1047700087E792E00E9424133BCA009719F00E9439
:10478000A230BC01CB0108951F920F920FB60F9279
:1047900011242F933F938F939F93AF93BF93809157
:1047A000070490910804A0910904B0910A04309183
:1047B000060423E0230F2D3758F50196A11DB11DE6
:1047C000209306048093070490930804A09309049F
:1047D000B0930A0480910B0490910C04A0910D04F5
:1047E000B0910E040196A11DB11D80930B0490930E
:1047F0000C04A0930D04B0930E04BF91AF919F9150
:104800008F913F912F910F900FBE0F901F90189591
:1048100026E8230F0296A11DB11DD2CF1F920F9241
:104820000FB60F9211242F933F934F935F936F9383
:104830007F938F939F93AF93BF93EF93FF93809159
:104840003A0390913B03A0913C03B0913D03892B27
:104850008A2B8B2BD1F190913903E0913703F091A2
:10486000380380818927808380913A0390913B03AC
:10487000A0913C03B0913D03181619061A061B06B9
:104880009CF480913A0390913B03A0913C03B0913A
:104890003D030197A109B10980933A0390933B032B
:1048A000A0933C03B0933D03FF91EF91BF91AF9173
:1048B0009F918F917F916F915F914F913F912F9138
:1048C0000F900FBE0F901F90189580910B010E94C2
:1048D0005603EACF1F920F920FB60F9211242F9317
:1048E0003F934F935F936F937F938F939F93AF9378
:1048F000BF93EF93FF9383E894E00E946A06FF91D1
:10490000EF91BF91AF919F918F917F916F915F9147
:104910004F913F912F910F900FBE0F901F901895C0
:104920001F920F920FB60F9211242F938F939F9384
:10493000EF93FF93E0919304F09194048081E091D0
:104940009904F0919A0482FD1BC0908180919C048F
:104950008F5F8F7320919D04821741F0E0919C043A
:10496000F0E0ED57FB4F958F80939C04FF91EF9102
:104970009F918F912F910F900FBE0F901F901895C0
:104980008081F4CF1F920F920FB60F9211242F93B4
:104990003F934F935F936F937F938F939F93AF93C7
:1049A000BF93EF93FF93E0912B03F0912C0330978B
:1049B00049F0A685B7858585968D91FF14C09C9199
:1049C0008923A1F4FF91EF91BF91AF919F918F91B6
:1049D0007F916F915F914F913F912F910F900FBEFB
:1049E0000F901F9018959C91892361F7A389B48932
:1049F0009C918589809589238C93868997890197D5
:104A0000F1F7608D718DA685B785558538E020E07A
:104A1000CB010197F1F7822F90E095958795282F8C
:104A20004C91452309F02068315091F7868D81FD26
:104A300020958091290390E001968F7399273091FA
:104A40002A03381799F0A0912903B0E0A751BD4F70
:104A50002C9380932903828D938D0197F1F7A3897D
:104A6000B4898C919589892B8C93ACCF868D81608C
:104A7000868FF1CF1F920F920FB60F9211242F93B2
:104A80003F934F935F936F937F938F939F93AF93D6
:104A9000BF93CF93DF93EF93FF938091E802C09190
:104AA0005005D0E087FF24C010928500109284004A
:104AB0008091E8028F5F8093E8028091E802082EDF
:104AC000000C990B8C179D0724F48091E8028C3020
:104AD000C4F18091840090918500049680349C49B3
:104AE00008F47AC08091840090918500049676C085
:104AF0008091E802082E000C990B8C179D07C4F6D4
:104B0000E091E8028E2FEE0F990BFC01EE0FFF1FD4
:104B1000E80FF91FE45DFA4F808186FFC9CFE0916D
:104B2000E8028E2FEE0F990BFC01EE0FFF1FE80F2E
:104B3000F91FE45DFA4F808160E08F730E942902C3
:104B4000B7CF2091840030918500E091E8028E2F4C
:104B5000EE0F990BFC01EE0FFF1FE80FF91FE45D4C
:104B6000FA4F81819281820F931F909389008093E5
:104B70008800E091E8028E2FEE0F990BFC01EE0FFA
:104B8000FF1FE80FF91FE45DFA4F808186FF11C017
:104B9000E091E8028E2FEE0F990BFC01EE0FFF1F44
:104BA000E80FF91FE45DFA4F808161E08F730E9486
:104BB0002902FF91EF91DF91CF91BF91AF919F912A
:104BC0008F917F916F915F914F913F912F910F90B6
:104BD0000FBE0F901F90189580E49CE99093890078
:104BE000809388008FEF8093E802E3CF1F920F92AB
:104BF0000FB60F9211242F933F934F935F936F93B0
:104C00007F938F939F93AF93BF93EF93FF93809185
:104C1000B900887F803609F44AC0F0F5883209F47B
:104C2000A7C018F5803109F49BC0B8F4882309F4B3
:104C3000F9C0883009F494C0FF91EF91BF91AF9112
:104C40009F918F917F916F915F914F913F912F91A4
:104C50000F900FBE0F901F901895883109F488C0EF
:104C6000803251F78093570414C0803409F49DC0FA
:104C700040F48033B9F38833F9F68093570485EC18
:104C8000B0C0803509F485C0883509F496C08834F1
:104C900099F60E948115D0CF883909F48CC038F577
:104CA000883729F050F4883611F0803729F683E0F0
:104CB000809359041092E70257C0883809F47BC0EA
:104CC000803919F0803809F0B7CF8091E70280323F
:104CD00008F071C0E091E70281E08E0F8093E70257
:104CE0008091BB00F0E0E953FD4F80833DC0803BE5
:104CF00039F0E0F4803A09F479C0883A09F09CCFA1
:104D000084E0809359041092C4021092C302E0918F
:104D1000C102F091C20209958091C30281110FC0B6
:104D200081E08093C3021092A10209C0803C09F483
:104D3000A6CF883C09F4A3CF883B09F07DCFE09152
:104D4000C40281E08E0F8093C402F0E0EF55FD4F66
:104D500080818093BB009091C4028091C30229C0DE
:104D6000809134048093BB0085EC8093BC0064CFB9
:104D70009091560480915504981758F5E091560487
:104D800081E08E0F80935604F0E0EB5CFB4F808156
:104D9000E9CFE091560481E08E0F80935604809114
:104DA000BB00F0E0EB5CFB4F808390915604809158
:104DB00055049817C8F285E8D8CFE091560481E0F1
:104DC0008E0F809356048091BB00F0E0EB5CFB4FAC
:104DD00080838091580481115CCF81E080933304FB
:104DE00084EA8093BC001092590426CF85EC80930E
:104DF000BC00109259048091E702803230F4E091B7
:104E0000E702F0E0E953FD4F10826091E70270E0A5
:104E1000E091C502F091C60287EC92E009951092EC
:104E2000E7020ACF1092570434CFCF92DF92EF926D
:104E3000FF920F931F93E82FF92F05C0015011091E
:104E40002109310961F1908196239417B9F305C0C6
:104E5000015011092109310911F190819623941310
:104E6000F7CFC12CD12CE12CF12C0AC08FEFC81A3E
:104E7000D80AE80AF80A0C151D052E053F0579F039
:104E800080818623841791F36C2D7D2D8E2D9F2D8F
:104E90001F910F91FF90EF90DF90CF90089560E009
:104EA00070E080E090E01F910F91FF90EF90DF9015
:104EB000CF900895EF92FF920F931F93CF93DF93BC
:104EC000C0913104D09132047E012FEFE21AF20A30
:104ED000F0923204E0923104CE010E944516082F70
:104EE00010E02296D0933204C0933104C7010E948F
:104EF00045169801382BC901CDB7DEB7E6E00C9412
:104F00008036109286041092850488EE93E0A0E02B
:104F1000B0E08093870490938804A0938904B093B1
:104F20008A042DE231E0309384042093830425EC3D
:104F300030E03093900420938F0424EC30E03093E1
:104F400092042093910420EC30E030939404209359
:104F5000930421EC30E0309396042093950422ECE6
:104F600030E0309398042093970426EC30E030939F
:104F70009A042093990410929C0410929D0410921C
:104F80009E0410929F041092230510922205809394
:104F9000240590932505A0932605B09327058FE35C
:104FA00091E09093210580932005E1E5F5E02DE562
:104FB00035E04FEF68EB7BE0809150058C30B0F42A
:104FC00091E0980F90935005808390E0DC01AA0F48
:104FD000BB1FA80FB91FA45DBA4F12967C936E93A6
:104FE000119733962E173F0739F708954083F9CF6D
:104FF000A3E2B0E0EEEFF7E20C945836789484B573
:10500000826084BD84B5816084BD85B5826085BDC4
:1050100085B5816085BD80916E00816080936E0052
:105020001092810080918100826080938100809144
:1050300081008160809381008091800081608093F5
:1050400080008091B10084608093B1008091B000B5
:1050500081608093B00080917A00846080937A00B0
:1050600080917A00826080937A0080917A008160DA
:1050700080937A0080917A00806880937A00109201
:10508000C100E0919304F091940482E08083E09168
:105090008F04F09190041082E0919104F0919204B9
:1050A00080E1808310929B04E0919704F091980432
:1050B00086E08083E0919504F09196048081806180
:1050C0008083E0919504F0919604808188608083CC
:1050D000E0919504F0919604808180688083E0914E
:1050E0009504F091960480818F7D80836EE571E058
:1050F00080E090E00E9425030E9409140E94CE15D2
:1051000068EE862E63E0962EA12CB12C5BE1252E55
:1051100051E0352E83E894E00E944C06892B09F477
:10512000D2C683E894E00E942A068D3099F3E0917C
:1051300005048A3009F0B5C6AE2FB0E0AF5ABC4FB7
:105140001C92EE2351F066E671E081E593E00E9447
:10515000063B892B29F40E94091410920504DACF2A
:105160006BE671E081E593E00E94C7307C016BE65D
:1051700071E090E080E00E94C7308C01E114F104FE
:1051800061F3892B51F36DE671E0C7010E94063B84
:10519000892B09F048C16BE671E090E080E0F7D719
:1051A0007C016E0122E1C20ED11C712C6BE671E014
:1051B00090E080E0ECD7D6018D939D936D01892B13
:1051C00021F07394B6E07B12F1CFE114F10429F2DF
:1051D0006FE671E0C7010E94063B892BD1F477206E
:1051E000C1F070E060E08A899B89C7DAF82E60E040
:1051F0000E9456028F2D0E940102BC01990F880B5C
:10520000990B0E94D234AB01BC01C8010E94491322
:10521000A4CF6AEC71E0C7010E94063B892BA1F480
:10522000772091F070E060E08A899B89A6DA97FD8B
:1052300007C08630910534F4825F0E94EB02DDCF17
:105240008EE0FBCF83E1F9CF62E771E0C7010E94F6
:10525000063B892BB1F47720A1F070E060E08A89E9
:105260009B898BDAF82E60E00E9456028F2D0E94F7
:105270000102019709F077C040E050E060E87FE369
:10528000C4CF69E771E0C7010E94063B892B91F406
:10529000E1E0E71578F470E060E08C899D896DDAD3
:1052A000F82E70E060E08A899B8967DA6F2D0E9492
:1052B0004A12A7CF6FE771E0C7010E94063B892B16
:1052C00091F4F1E0F71578F470E060E08C899D8945
:1052D00054DAF82E70E060E08A899B894EDA6F2DEF
:1052E0000E94120F8ACF64E871E0C7010E94063B5A
:1052F000892BE9F422E02715D0F470E060E08A8978
:105300009B893BDAD82E70E060E08E899F8935DA80
:105310007C0170E060E08C899D892FDA41E0EF2804
:1053200009F440E0682F8D2D0E9464116CCF68E86D
:1053300071E0C7010E94063B892BC9F4E0900F047D
:10534000F0901004E114F10471F0C7010E944809C3
:10535000D701ED91FC910084F185E02DC7010995FD
:10536000892B09F089CF40E050E0BA014ECF60E9C7
:1053700071E0C7010E94063B892BA9F7CE014E962A
:105380000E94E21464E872E083E894E00E94D6058B
:10539000B80183E894E00E94CF128CE20E94D60606
:1053A00081E1EEE4F2E0DE01119601900D928A9522
:1053B000E1F710E000E08AA19BA10817190740F56A
:1053C0008E8D9F8DF12C009721F0800F911FFC0195
:1053D000F080EF2DF0E044E0F595E7954A95E1F790
:1053E00081E090E08C0F9D1FE80FF91F80810E94E3
:1053F000D606EF2DEF70A1E0B0E0AC0FBD1FAE0FF1
:10540000B11DFD0180810E94D6060F5F1F4FD3CFD3
:105410006DE471E083E894E00E94CF12CE014E96D5
:105420000E94CA109ACE67E971E0C7010E94063B4C
:10543000892B09F0CDC3FE0131966F01F12C6BE68B
:1054400071E090E080E0A3D6D6018D939D936D012D
:10545000892B09F0B8C369E971E0C8010E94063BD5
:10546000892BC9F4B1E0BF15B0F470E060E0898128
:105470009A8183D9182F61E00E94560270E060E0A3
:105480008B819C817AD961E0892B09F460E0812FBE
:105490000E94290262CE6CE971E0C8010E94063BBD
:1054A000892B01F5E1E0EF15E8F470E060E0898117
:1054B0009A8163D9182F61E00E94560270E060E083
:1054C0008B819C815AD98F3F910519F014F08FEF91
:1054D00090E097FF02C090E080E0BC01812F0E9425
:1054E00092023BCE6FE971E0C8010E94063B892B16
:1054F000C9F4F2E0FF15B0F470E060E08D819E81A8
:105500003CD97C0170E060E08B819C8136D9182FFA
:1055100070E060E089819A8130D9A701612F0E94F3
:10552000D30E1BCE65EA71E0C8010E94063B892BB1
:1055300009F521E02F15F0F470E060E089819A818F
:105540001CD90E94200E8C01892B09F406CE70E034
:1055500060E08B819C8111D9853B910514F084EB2F
:1055600090E097FF02C090E080E0BC01C8010E947B
:10557000030AF3CD6DEA71E0C8010E94063B892B56
:1055800079F582E08F1560F570E060E089819A819D
:10559000F4D8182F80930C0170E060E08D819E811B
:1055A000ECD81816190614F081E090E06C01990F00
:1055B000EE08FF0870E060E08B819C81DED864E13A
:1055C00070E08431910534F0BC0181329E4414F0C6
:1055D00060E27EE4A7019601812F0E948203BDCD87
:1055E0006BEA71E0C8010E94063B892B51F4FF2051
:1055F00041F070E060E089819A81BFD80E94560333
:10560000ACCD62EB71E0C8010E94063B892BC9F466
:10561000B2E0BF15B0F470E060E08D819E81ADD83E
:10562000082F70E060E08B819C81A7D8182F70E074
:1056300060E089819A81A1D8402F612F0E94AF0F2D
:105640008CCD6BEB71E0C8010E94063B892B11F5F4
:10565000E2E0EF15F8F4809142038823D9F070E07E
:1056600060E089819A8189D8182F70E060E08B8191
:105670009C8183D8612F0E94900F6D817E81CE0125
:1056800042960E944515CE0142960E946E0FCE01B1
:105690004296C6CE64EC71E0C8010E94063B892B9D
:1056A00039F480914203882319F00E94A30F55CD4D
:1056B0006DEC71E0C8010E94063B892B51F4FF207C
:1056C00041F06CE370E089819A8157D80E94930D74
:1056D00044CD67ED71E0C8010E94063B892B79F546
:1056E000F2E0FF1560F580914103882341F170E0FD
:1056F00060E089819A8141D810E097FD04C0182F9D
:1057000008970CF017E070E060E08B819C8135D841
:1057100097FD11C08031910584F4612F0E944D0DD9
:105720006D817E81CE0142960E944515CE01429642
:105730000E94B70CACCF80E0F0CF8FE0EECF61EEEF
:1057400071E0C8010E94063B892B39F48091410326
:10575000882319F00E94640D00CD6BEE71E0C80142
:105760000E94063B892B09F04CC021E02F1508F060
:1057700048C000913F03109140030115110589F0C5
:10578000D80119968D919C910E94B739F8018681B4
:10579000978197FD03C060E00E945602C8010E94F5
:1057A000B73970E060E08B819C810E94BD231816A0
:1057B000190634F46C01CD9734F03CE3C32E02C0DB
:1057C000CC24C394D12C70E060E089819A810E943E
:1057D000BD237C0186E190E00E941B398C01A7016A
:1057E000B6010E9407101093400300933F03C801C5
:1057F0000E942408C8010E94FD0FC8010E9466078C
:10580000ACCC64EF71E0C8010E94063B892B09F023
:105810005BC0F3E0FF1508F057C0C0903F03D09085
:105820004003C114D10409F44FC070E060E08F81DF
:1058300098850E94BD2310E097FD06C0182F8F3F6A
:10584000910511F00CF01FEF70E060E08D819E81FA
:105850000E94BD2300E097FD06C0082F8F3F9105F1
:1058600011F00CF00FEF70E060E08B819C810E94E2
:10587000BD2397FD25C08F3F910509F01CF5412EF2
:10588000512C712C612C502A682A70E060E08981CB
:105890009A810E94BD2370E060E097FD0AC0D601A6
:1058A00012966D917C91615071098617970708F4E3
:1058B000BC01A3019201C6010E94FA06C6019ECF57
:1058C00080E0DDCF8FEFDBCF6BEF71E0C8010E948E
:1058D000063B892B59F4C0903F03D0904003C1147C
:1058E000D10421F0C6010E94FD0FE8CF64E072E010
:1058F000C8010E94063B892BA9F5B1E0BF1590F5C0
:10590000E2E004E110E0FE1679F070E060E08D81E5
:105910009E810E94BD238C014F9714F00EE110E090
:1059200017FF02C010E000E070E060E08B819C8116
:105930000E94BD23F82E70E060E089819A810E9468
:10594000BD236F2D0E94D210882349F0B80186E054
:105950000E94BD0D84E992E00E942413FECB8CE8E6
:1059600092E0FACF6DE072E0C8010E94063B892BFD
:1059700091F4FF2081F070E060E089819A810E94BB
:10598000BD231816190614F081E090E0BC0183E0F5
:105990000E94BD0DE2CB65E172E0C8010E94063BAA
:1059A000892B99F4FF2089F070E060E089819A8169
:1059B0000E94BD2397FD05C0BC014F9724F06EE106
:1059C00001C060E070E086E0E3CF6CE172E0C80106
:1059D0000E94063B892B21F470E060E086E1D8CF7D
:1059E00064E272E0C8010E94063B892B09F056C0B0
:1059F000F2E0FF1508F052C000910F04109110045E
:105A00000115110531F0C8010E943009C8010E943A
:105A1000B73970E060E089819A810E94BD23F82E39
:105A200070E060E08B819C810E94BD23E82E8FE1B5
:105A300090E00E941B398C01DC0113961C921E928F
:105A40001297FC0184829582A682B78231822082DD
:105A5000178A168A118E108E138E128E158E148E42
:105A6000868D8E7F8D7F868F6E2DC8010E940909DD
:105A70006F2DC8010E94E2081093100400930F04D8
:105A800060E875E28D819E810E94BD23AC01990F73
:105A9000660B770BC8010E9479095FCB6CE272E05C
:105AA000C8010E94063B892BC9F4FF20B9F0C090C1
:105AB0000F04D0901004C114D10481F0C6010E94DB
:105AC000480969817A81CE0142960E944515BE013E
:105AD0006E5E7F4FC6010E943613D9CD63E372E03C
