:100000000C94C6010C94EE010C94EE010C944D2559
:100010000C944D250C944D250C94EE010C949924D0
:100020000C94EE010C94EE010C94EE010C94C52599
:100030000C94EE010C94EE010C94EE010C94EE0184
:100040000C944F240C94EE010C941B250C94F52475
:100050000C94EE010C94EE010C94EE010C94EE0164
:100060000C9481260C94EE0107634236B79BD8A707
:100070001A39685618AEBAAB558C1D3CB7CC5763CD
:10008000BD6DEDFD753EF6177231BF000000803F7B
:1000900008000000BE922449123EABAAAA2ABECD97
:1000A000CCCC4C3E00000080BEABAAAAAA3E000009
:1000B0000000BF000000803F000000000008417801
:1000C000D3BB4387D1133D190E3CC3BD4282AD2B38
:1000D0003E68EC8276BED98FE1A93E4C80EFFFBE30
:1000E00001C4FF7F3F00000000004E414E494E49D1
:1000F0005459494E46CDCCCC3D0AD7233C17B7D1F5
:100100003877CC2B329595E6241FB14F0A0000209A
:10011000410000C84200401C4620BCBE4CCA1B0E19
:100120005AAEC59D7400407A10F35A00A0724E1862
:10013000090010A5D4E80000E87648170000E40B99
:1001400054020000CA9A3B000000E1F5050000805F
:10015000969800000040420F000000A086010000B9
:1001600000102700000000E8030000000064000009
:100170000000000A00000000000100000000002C48
:1001800076D888DC674F0823DFC1DFAE59E1B1B70D
:1001900096E5E3E453C63AE651997696E8E6C284DA
:1001A00026EB898C9B62ED407C6FFCEFBC9C9F40F2
:1001B000F2BAA56FA5F490055A2AF75C936B6CF917
:1001C000676DC11BFCE0E40D47FEF520E6B500D0ED
:1001D000ED902E0300943577050080841E08000002
:1001E000204E0A000000C80C333333330F986E12D0
:1001F000831141EF8D2114893BE65516CFFEE6DBD6
:1002000018D1844B381BF77C1D901DA4BBE424201F
:100210003284725E228100C9F124ECA1E53D2752AF
:10022000454144592C4F6E654D616B65722041729A
:100230006475696E6F2052756E74696D652C005619
:100240002C0050524F4752414D5F4552524F522C55
:10025000696E76616C69642D6F70636F6465004CC4
:100260004F472C0002542C004C4F472C0045525253
:100270004F522C6D70332D70696E73004D50335F8B
:1002800052454144590050524F4752414D5F434CF3
:1002900045415245440050524F4752414D5F4552EF
:1002A000524F522C656D7074790050524F47524135
:1002B0004D5F52554E4E494E470053415645442CD2
:1002C0000050524F4752414D5F4552524F522C639E
:1002D0006865636B73756D0050524F4752414D5FB7
:1002E000444154412C0050524F4752414D5F4552BA
:1002F000524F522C72616E67650050524F47524107
:100300004D5F4552524F522C73697A650050524FDF
:100310004752414D5F5245414459004552524F5258
:100320002C6C696E652D746F6F2D6C6F6E6700009D
:10033000000000240027002A0000000000230026FF
:10034000002900000000080002010000030407006B
:10035000000000000000000102040810204080019D
:1003600002040810200102040810200000000025EB
:100370000028002B00040404040404040402020204
:1003800002020203030303030300E52711241FBE37
:10039000CFEFD8E0DEBFCDBF12E0A0E0B1E0E6E1F4
:1003A000F7E702C005900D92A234B107D9F725E016
:1003B000A2E4B2E001C01D92AA34B207E1F711E055
:1003C000C6ECD1E004C02197FE010E948139C53CF2
:1003D000D107C9F70E945C280C94893B0C9400005B
:1003E000833081F028F4813099F08230A9F00895AB
:1003F0008730A9F08830C9F08430B1F48091800052
:100400008F7D03C0809180008F7780938000089556
:1004100084B58F7784BD089584B58F7DFBCF80919F
:10042000B0008F778093B00008958091B0008F7DE9
:10043000F9CFCF93DF93282F30E0F901ED5BFC4F2C
:100440008491F901E95AFC4FD491F901EB58FC4F22
:10045000C491CC23A1F081110E94F001EC2FF0E0B7
:10046000EE0FFF1FE75CFC4FA591B491EC91ED23DB
:1004700081E090E009F480E0DF91CF91089580E081
:1004800090E0FACF1F93CF93DF93282F30E0F9014C
:10049000ED5BFC4F8491F901E95AFC4FD491F901CD
:1004A000EB58FC4FC491CC23A9F0162F81110E9468
:1004B000F001EC2FF0E0EE0FFF1FE559FC4FA59186
:1004C000B4918FB7F894EC91111108C0D095DE2348
:1004D000DC938FBFDF91CF911F910895DE2BF8CF72
:1004E000CF93DF9390E0FC01E95AFC4F24918B58A5
:1004F0009C4FFC0184918823C9F090E0880F991FDC
:10050000FC01E15DFC4FA591B491FC01E559FC4F64
:10051000C591D49161110DC09FB7F8948C9120952D
:1005200082238C938881282328839FBFDF91CF91DA
:100530000895623051F49FB7F8943C91822F8095D2
:1005400083238C93E8812E2BEFCF8FB7F894EC9117
:100550002E2B2C938FBFEACF1F93CF93DF93182FAF
:10056000EB0161E00E947002209739F460E0812F76
:10057000DF91CF911F910C944202CF3FD10511F42E
:1005800061E0F5CFE12FF0E0ED5BFC4FE491E3306B
:1005900031F140F4E130B1F0E230E1F0C038D105A2
:1005A0007CF7E4CFE73029F1E83059F1E430B1F7D6
:1005B00080918000806280938000D0938B00C093F4
:1005C0008A0004C084B5806884BDC7BDDF91CF9127
:1005D0001F91089584B5806284BDC8BDF7CF809116
:1005E0008000806880938000D0938900C093880049
:1005F000EDCF8091B00080688093B000C093B300CD
:10060000E5CF8091B00080628093B000C093B400C9
:10061000DDCF8E3008F08E508770806480937C0030
:1006200080917A00806480937A0080917A0086FDC0
:10063000FCCF809178009091790008953FB7F894AD
:100640008091400490914104A0914204B0914304F0
:1006500026B5A89B05C02F3F19F00196A11DB11D1D
:100660003FBFBA2FA92F982F8827BC01CD01620F59
:10067000711D811D911D42E0660F771F881F991F14
:100680004A95D1F708958F929F92AF92BF92CF92E1
:10069000DF92EF92FF924B015C010E941E036B01FF
:1006A0007C010E941E036C197D098E099F09683E1A
:1006B000734081059105A8F321E0821A9108A108F1
:1006C000B10888EEC80E83E0D81EE11CF11C81142D
:1006D0009104A104B10429F7FF90EF90DF90CF902F
:1006E000BF90AF909F908F9008952FB7F89460912E
:1006F0003C0470913D0480913E0490913F042FBFD3
:10070000089508959091090189130BC0E4E6F2E081
:10071000E4919FEF90930901E13049F028F0E23035
:1007200061F060E00C94420210926E00FACF90915A
:100730006F009D7F90936F00F4CF909170009D7F2C
:100740009093700091E09093B0009091B100987FE9
:1007500094609093B1001092B300E3CF4F925F92F8
:100760006F927F928F929F92AF92BF92CF92DF92C1
:10077000EF92FF920F931F93CF93DF9300D000D09F
:100780001F92CDB7DEB78B0129013A019091090183
:100790008917C9F09F3F09F47EC00F900F900F900A
:1007A0000F900F90DF91CF911F910F91FF90EF90DD
:1007B000DF90CF90BF90AF909F908F907F906F9081
:1007C0005F904F900895E4E6F2E094919D8397FD49
:1007D000E4CF61E00E9470028D81882321F09D8129
:1007E000923009F04AC14801B12CA12C60E072E1BD
:1007F0008AE790E0A50198010E94593629833A833F
:100800004B835C8369017A0181E0C81AD108E10851
:10081000F1089FEFC916D104E104F10409F00CF4CA
:1008200001C160E472E48FE090E0A50198010E94AC
:10083000593669017A0181E0C81AD108E108F10846
:100840009D81923009F0A2C08FEFC816D104E10457
:10085000F10409F00CF4E6C160E970ED83E090E08A
:10086000A50198010E94593669017A0191E0C91ADF
:10087000D108E108F1088FEFC816D104E104F104B2
:1008800011F00CF07FC183E09091B100987F892B2B
:100890008093B100CFC080930901E4E6F2E0949127
:1008A0009D839F3F09F479CF913041F150F0923010
:1008B00009F446C09D8197FD70CF61E00E947002EF
:1008C0008ECF14BC15BC94B5926094BD95B5916063
:1008D00095BD282F30E0F901EB58FC4FE491F0E092
:1008E000EE0FFF1FE559FC4F45915491F901E95A6C
:1008F000FC4FE491E09363031D826BCF1092800064
:100900001092810090918100986090938100909165
:100910008100916090938100282F30E0F901EB581D
:10092000FC4FE491F0E0EE0FFF1FE559FC4F4591BD
:100930005491F901E95AFC4FE491E093620349CFE5
:100940001092B0001092B1009091B000926090931C
:10095000B0009091B10091609093B100282F30E0E9
:10096000F901EB58FC4FE491F0E0EE0FFF1FE55961
:10097000FC4F4591549150936D0340936C03F901E2
:10098000E95AFC4FE491E0936E0323CF9FEFC91621
:10099000D104E104F10409F00CF46DC068E478EED0
:1009A00081E090E0A50198010E94593669017A0121
:1009B00081E0C81AD108E108F1089D81992309F462
:1009C000FAC08FEFC816D104E104F10411F00CF065
:1009D000FBC0EFC064E274EF80E090E0A5019401F9
:1009E0000E94593669017A0181E0C81AD108E108EC
:1009F000F10885E09FEFC916D104E104F10409F084
:100A000008F442CF62E17AE780E090E0A50194012A
:100A10000E94593669017A0181E0C81AD108E108BB
:100A2000F108E5C081E09D8191112ECF95B5987FA9
:100A3000892B85BD2FEF3FEFA901411451046104BB
:100A4000710409F043C09D81913009F45EC0923079
:100A500009F46DC09111A1CEC7BC209368033093F7
:100A6000690340936A0350936B0380916E00826028
:100A700080936E0092CE82E0D6CFB12CA12C60E0A4
:100A800072E18AE790E0A50198010E945936690158
:100A90007A0181E0C81AD108E108F108C114D10433
:100AA00091E0E906F10404F591E08D81813011F6C1
:100AB00080918100887F892B809381002FEF3FEF09
:100AC000A9014114510461047104F9F0D801AA0F7D
:100AD000BB1FA30192010E94783628EE33E040E06C
:100AE00050E00E943736AFCF68E478EE81E090E0C6
:100AF000A50198010E94593669017A0181E0C81A5E
:100B0000D108E108F10893E0D0CFD0928900C092DB
:100B100088002093640330936503409366035093E9
:100B2000670380916F00826080936F0036CEC09221
:100B3000B30020936F03309370034093710350937D
:100B400072038091700082608093700026CE84E0F2
:100B50009FEFC916D104E104F10409F008F466CF4F
:100B6000C980DA80EB80FC808AE0F594E794D79422
:100B7000C7948A95D1F781E0C81AD108E108F10835
:100B800085E054CF68E478EE81E090E0A50198011B
:100B90000E94593669017A0181E0C81AD108E1083A
:100BA000F1089FEFC916D104E104F10411F00CF033
:100BB00011CF84E069CE83E09FEFC916D104E10430
:100BC000F10409F00CF432CF62E17AE780E090E0C2
:100BD000A50194010E94593669017A0181E0C81A81
:100BE000D108E108F1089D81992309F4B0CF86E08E
:100BF0009FEFC916D104E104F10409F008F444CED2
:100C0000C980DA80EB80FC809AE0F594E794D79471
:100C1000C7949A95D1F781E0C81AD108E108F10884
:100C200087E032CE82E030CEDB0114964D915C91AC
:100C300015976D917C91DC01ED91FC910280F3811F
:100C4000E02D0994AF92BF92CF92DF92EF92FF9284
:100C50000F931F93CF93DF936C017B018B01040FE4
:100C6000151FEB015E01AE18BF08C017D10759F080
:100C70006991D601ED91FC910190F081E02DC601C2
:100C80000995892B79F7C501DF91CF911F910F91BC
:100C9000FF90EF90DF90CF90BF90AF900895FC0150
:100CA000538D448D252F30E0842F90E0821B930BD1
:100CB000541710F0CF96089501970895FC01918D77
:100CC000828D981761F0A28DAE0FBF2FB11D5D967A
:100CD0008C91928D9F5F9F73928F90E008958FEF1C
:100CE0009FEF0895FC01918D828D981731F0828DD0
:100CF000E80FF11D858D90E008958FEF9FEF089527
:100D0000FC01918D228D892F90E0805C9F4F821B8A
:100D100091098F739927089588E694E00E948006D0
:100D200021E0892B09F420E0822F089580E090E0F3
:100D3000892B29F00E948C0681110C9400000895E3
:100D4000FC01A48DA80FB92FB11DA35ABF4F2C9140
:100D5000848D90E001968F739927848FA689B78937
:100D60002C93A089B1898C91837080648C93938D2E
:100D7000848D981306C00288F389E02D80818F7DD1
:100D800080830895EF92FF920F931F93CF93DF9389
:100D9000EC0181E0888F9B8D8C8D98131AC0E889B7
:100DA000F989808185FF15C09FB7F894EE89FF8986
:100DB0006083E889F98980818370806480839FBF24
:100DC00081E090E0DF91CF911F910F91FF90EF9024
:100DD0000895F62E0B8D10E00F5F1F4F0F73112734
:100DE000E02E8C8D8E110CC00FB607FCFACFE8896F
:100DF000F989808185FFF5CFCE010E94A006F1CF51
:100E0000EB8DEC0FFD2FF11DE35AFF4FF0829FB7E2
:100E1000F8940B8FEA89FB8980818062CFCF682F9D
:100E200088E694E00C94C2060F931F93CF93DF9350
:100E30008C01D0E0C0E0F801EC0FFD1F6491662347
:100E400041F088E694E00E94C206892B11F02196B9
:100E5000F2CFCE01DF91CF911F910F910895CF93E3
:100E6000DF93EC01888D8823B9F0AA89BB89E889D2
:100E7000F9898C9185FD03C0808186FD0DC00FB678
:100E800007FCF7CF8C9185FFF2CF808185FFEDCFF6
:100E9000CE010E94A006E9CFDF91CF9108958F92F5
:100EA0009F92AF92BF92CF92DF92EF92FF921F93E9
:100EB000CF93DF93FC018281938168177907A8F5AE
:100EC0004A01AA24BB24C82DC32ED42EE52EFF240C
:100ED0001C2DD22F8085882361F0889E400111242B
:100EE000C92D8C9D600111241D2D829FD0011124DC
:100EF000DB2FA685E184F2849385A91322C0CB0160
:100F0000880F991F680F791F6E0D7F1DA385A60F8F
:100F1000B72FB11DCC93A485A60FB72FB11D1C937D
:100F20008585680F711DFB01D083DF91CF911F91E3
:100F3000FF90EF90DF90CF90BF90AF909F908F90F9
:100F40000895660F771F660F771F6E0D7F1D252F83
:100F5000332744275527882349F090E0829F70016A
:100F6000839FF00C929FF00C11242F2DA60FB72F0A
:100F7000B11D2C93CBCFCF92DF92EF92FF920F93C4
:100F80001F93CF93DF93CDB7DEB729970FB6F894B1
:100F9000DEBF0FBECDBF8C01DC0119968D919C91F7
:100FA000892B09F473C00E941E03F801C784D088FE
:100FB000E188F2886C157D058E059F0520F4678712
:100FC000708B818B928BF801C784D088E188F2887E
:100FD0006C197D098E099F096C327140810591055C
:100FE00010F3F894D80114968D919C9115979A83DB
:100FF00089831996ED91FC917F01BFEFEB1AFB0AF3
:1010000080818987F80190810388F489E02DD801D7
:1010100055968C91992309F448C09081982B988714
:101020009081809589238F838F818C8388E08B8347
:1010300058856F8149853B812C8189819A81D701AF
:10104000508347FD252F3A952083262F39F0441FE2
:1010500000C000006083000000C0F2CF38E04D9176
:1010600060830000019761F7D8015496FC93EE93DA
:10107000539749873B832C839A83898378940E9472
:101080001E03F8016787708B818B928B29960FB6B0
:10109000F894DEBF0FBECDBFDF91CF911F910F91AE
:1010A000FF90EF90DF90CF9008959081982B9887D4
:1010B0009081809589238F838F818E8388E08D83B3
:1010C00058856F8149853D812E8189819A81D7011B
:1010D000508347FD252F00C000C0208300C000C002
:1010E00000C000C000C060830000262F3A9541F088
:1010F000441F000000C000C000C000C000C0E8CF16
:1011000038E04D9100C0608300C0019709F7D80115
:101110005496FC93EE93539749873D832E83ACCF2F
:10112000CF93DF93EC018E819F8197FD0CC061E02E
:101130000E94700260E08E810E94420281E08983F9
:10114000DF91CF910895198280E0FACF0895089534
:10115000CF92DF92EF92FF92CF93DF93DC0117964D
:10116000CC911797D0E06111DC2F18962C9118972D
:1011700030E0220F331F275C3C4F50E040E0F90184
:1011800085919491FC01F080BA0190E080E0EF2D10
:10119000EC23ED1310C04F5F5F4F1D96CD90DD9097
:1011A000ED90FC9050976C157D058E059F0538F3EA
:1011B0006FEF7FEFCB01DF91CF91FF90EF90DF904A
:1011C000CF9008958F929F92AF92BF92CF92DF926D
:1011D000EF92FF920F931F93CF93DF93CDB7DEB7BC
:1011E000C054D1400FB6F894DEBF0FBECDBF8C0106
:1011F0000E947503F801C184D284E384F4849B01C6
:10120000AC012C193D094E095F0969017A0130EDE5
:10121000C31637E0D306E104F104A8F48189C05C69
:10122000DE4F0FB6F894DEBF0FBECDBFDF91CF917A
:101230001F910F91FF90EF90DF90CF90BF90AF90F4
:101240009F908F9008956187728783879487148217
:10125000138212821182108262E085810E947002E4
:1012600061E070E080E090E00E94430361E0F801FB
:1012700085810E94700260E0F80185810E9442022F
:10128000F80186818551823028F58BE291E1019742
:10129000F1F762E0F80185810E947002F80182890D
:1012A00090E08230910538F0880F991F880F991FC0
:1012B00005970197F1F7F89460E0C8010E94A8082B
:1012C0006F3F7F4F8F4F9F4F61F4F801118A7894E1
:1012D00080E0A5CF64E170E080E090E00E944303ED
:1012E000D8CF61E0C8010E94A8086F3F7F4F8F4FA1
:1012F0009F4F59F39E012F5F3F4F79015E013FEBF6
:10130000A31A3EEFB30A670160E0C8010E94A80873
:10131000F601608371838283938361E0C8010E9438
:10132000A808F6016483758386839783F8E0CF0E5F
:10133000D11CCA14DB0441F7789430E020E0F701B7
:1013400080809180A280B3804481558166817781BD
:10135000FFEF8F169F06AF06BF0631F04F3F8FEFAE
:1013600058076807780719F4F801118AB1CFF90115
:1013700083E0F595E7958A95E1F7E00FF11F80810D
:10138000880F84169506A606B706F0F080832F5FB7
:101390003F4FF8E0EF0EF11C2832310581F6F801DD
:1013A000448120818181280F3327331F8281280FB8
:1013B000311D8381820F932F911D9927481719069C
:1013C00099F681E0818B2BCF8160E0CF20910A03D9
:1013D00030910B032817390771F49091090380911C
:1013E0000803981741F0E0910903F0E0E853FD4F3E
:1013F000808190E008958FEF9FEF08950895EF9218
:10140000FF920F931F93CF93DF93DC015C96ED90D7
:10141000FC905D97E114F10479F481E090E013967B
:101420009C938E93129790E080E0DF91CF911F9173
:101430000F91FF90EF9008955196ED91FC91529786
:1014400050968C915097982F90950FB75E962C914F
:101450005E97122F127021FD6095F8942081112360
:1014600019F1282B2083E7012197F1F728E0462F77
:1014700050E0308160FF1AC0382B3083E70121979C
:10148000F1F7BA0175956795215089F7112381F01D
:101490008081892380830FBF5C968D919C910197F9
:1014A000F1F781E090E0C1CF2923DCCF3923E5CFEC
:1014B0009081892BEFCF20910A0330910B032817DD
:1014C000390761F4809108032091090390E0805C62
:1014D0009F4F821B91098F739927089590E080E0B8
:1014E000089520910A0330910B0328173907B9F4A6
:1014F0009091090380910803981789F0E0910903FE
:10150000F0E0E853FD4F80812091090330E02F5F28
:101510003F4F2F7333272093090390E008958FEFF7
:101520009FEF08951F93CF93DF93EC01162F60E098
:10153000812F0E9470028E8D81FD04C061E0812F99
:101540000E9442021C87812F90E0FC01E95AFC4F67
:10155000E491ED87FC01EB58FC4FE491F0E0EE0FD5
:10156000FF1FE75CFC4F859194919F878E87DF91E9
:10157000CF911F9108951F93CF93DF93EC01162F06
:101580006E8D6695617081E06827812F0E9442020E
:1015900061E0812F0E947002812F90E0FC01E95AE6
:1015A000FC4FE491E88BFC01EB58FC4FE491F0E038
:1015B000EE0FFF1FE559FC4F859194919A8B898B13
:1015C000DF91CF911F910895FC018DE191E091830E
:1015D000808380910A0390910B03E817F90759F46F
:1015E000A389B4899C918589809589238C931092D5
:1015F0000B0310920A030895CF93DF93FC01828DB1
:10160000938D892B41F1A0910A03B0910B03AE1782
:10161000BF0709F1109751F05396CD91DC91549783
:10162000988155968C91809589238883868D8E7FAD
:10163000868F1092080310920903F0930B03E09336
:101640000A03A389B4898C919589892B8C9381E0B5
:10165000DF91CF91089580E0FBCFCF93DF93EC0132
:101660009A01AB011B8E1A8E198E188E1F8A1E8A44
:1016700060E079E08DE390E00E945936F901C901FC
:1016800003972430310510F481E090E09D8F8C8F1A
:101690006C85663108F052C0C901969587958431F2
:1016A000910508F450C043979F8B8E8BC901059715
:1016B000369710F481E090E0998F888FC901880FE8
:1016C000991F280F391F36952795369527952D3068
:1016D0003105E0F12C5031093B8F2A8F9091680041
:1016E00084E0683048F021E06E3008F420E081E0CA
:1016F00001C0880F2A95EAF7892B809368009C85A2
:101700002DE630E0983050F02BE630E09E3030F09F
:101710002CE630E0963110F030E020E03C8B2B8B53
:10172000292F30E09830A8F481E001C0880F9A9505
:10173000EAF78D8B8C8D9D8D0197F1F7CE01DF91AE
:10174000CF910C94FC0A81E090E0AECF21E030E034
:10175000C3CF9E3040F42850310981E001C0880F8A
:101760002A95EAF7E6CF2E503109F7CFCF92DF92D4
:10177000EF92FF92CF93DF93EC01603282E0780723
:10178000CCF5653B710514F064EB70E0898128E8C5
:1017900030E0281B310987FD3395220F331F220FBC
:1017A000331F6901330FEE08FF088A8128E532E014
:1017B000281B310987FD3395220F331F220F331F5A
:1017C000032E000C440B550B2C193D094E095F09E3
:1017D000DB0177FF02C0B0E0A0E00E94833624EB7B
:1017E00030E040E050E00E945936C20ED31EE41EA5
:1017F000F51EB601E881EC3070F5298188E890E0AB
:10180000821B910927FD9395880F991F880F991FB7
:10181000681779077CF02A8188E592E0821B91099C
:1018200027FD9395880F991F880F991F68177907CF
:101830000CF4CB010297880F991F4FB7F8942E2F05
:1018400030E0F901EE0FFF1FE20FF31FEF5EFA4FDA
:10185000928381834FBFDF91CF91FF90EF90DF9014
:10186000CF9008952091A402260F3327331F2132F1
:101870003105ECF420913803FC0190E080E0243045
:1018800069F082E00895A091A4022191AC014C5727
:101890005D4FA40FB52FB11D2C930196861798F3B9
:1018A0008091A402680F6093A40280E0089581E013
:1018B00008951092380381E0809337031092120349
:1018C00061E082E10E94420261E083E10E94420203
:1018D000E9EBF0E080818E7F808380818D7F808343
:1018E00088E48093B80085E48093BC000895CF938A
:1018F000DF9391E0909383028823B9F0C091B80000
:10190000D091BA008091BC008A7B8093BC0060E0DB
:1019100082E10E94420260E083E10E9442020E9452
:10192000590CD093BA00C093B800DF91CF910895BD
:10193000E091110380911003E81730F4F0E0ED59C5
:10194000FD4F808190E008958FEF9FEF0895909173
:101950001103809110032FEF3FEF981748F4E92F00
:10196000F0E0ED59FD4F208130E09F5F909311032F
:10197000C90108958091100390911103891B990B5F
:101980000895CF92DF92EF92FF920F931F93CF9320
:10199000DF937C01CB018A0120913E03222389F051
:1019A000EB016B01C40ED51ECC15DD0569F0699104
:1019B000D701ED91FC910190F081E02DC7010995CF
:1019C000F3CF642F0E94320CC801DF91CF911F9199
:1019D0000F91FF90EF90DF90CF900895CF93DF931A
:1019E0001F92CDB7DEB7698320913E032223F9F021
:1019F00020916103203258F021E030E0FC01338374
:101A0000228390E080E00F90DF91CF910895809144
:101A10003F03E82FF0E0E05CFC4F998190838F5FFB
:101A200080933F038093610381E090E0ECCF61E01D
:101A3000CE0101960E94320CF7CFCF92DF92EF9247
:101A4000FF920F931F93CF93DF93FC01C48121E09A
:101A500020933E03C093600310923F0310926103F2
:101A60008385682B85E095E00E94EE0CD0916103A0
:101A7000D13208F092C00E941E036B017C0180915C
:101A80003803811165C082E08093380381E0809340
:101A900037038FEF8093360310923503D0933403CE
:101AA000A0E4B3E0E4E1F3E080E0D81385C0109255
:101AB000130380911303CC0FC82BC09313038091A1
:101AC0001203813009F07CC0109212030E941E03A1
:101AD0006B017C01809113038093BB0080913A03DA
:101AE00090913B03A0913C03B0913D03892B8A2B3D
:101AF0008B2B99F00E941E0300913A0310913B0337
:101B000020913C0330913D036C197D098E099F099A
:101B10000617170728073907E0F18091BC0083FDFD
:101B2000D9CF85EC8093BC000E941E036B017C0121
:101B300080913803823009F445C0809136038F3F8D
:101B400061F180913603803241F18091360325C0E6
:101B500080913A0390913B03A0913C03B0913D03E7
:101B6000892B8A2B8B2B09F48ACF0E941E030091AC
:101B70003A0310913B0320913C0330913D036C19D3
:101B80007D098E099F09061717072807390708F0EE
:101B900076CF809139030E94770C10923F03109208
:101BA000610310923E03DF91CF911F910F91FF903F
:101BB000EF90DF90CF9008959D9191938F5F75CFB7
:101BC00085EEB0CF80913A0390913B03A0913C0306
:101BD000B0913D03892B8A2B8B2B09F4A9CF0E944E
:101BE0001E0300913A0310913B0320913C03309176
:101BF0003D036C197D098E099F09061717072807F1
:101C0000390708F095CFC5CF90E080E00895CF93D5
:101C1000FC012285222339F0C1E080859185892B42
:101C200081F4C0E00EC060817181828193819F77D1
:101C3000C1E02CEA35EC47E257E30E94E63718167C
:101C400084F78C2FCF9108950F931F93CF93DF9339
:101C5000CDB7DEB72A970FB6F894DEBF0FBECDBF63
:101C600000914502109146020115110589F11E826D
:101C70001D829EE799839FEF9A8396E09B839FEE58
:101C80009A878C83272F30E07E836F8390E08B5F71
:101C90009E4F820F931F860F911D919581959109FB
:101CA00098878987C8010E94FC0AD801ED91FC91B0
:101CB0000280F381E02D4AE050E0BE016F5F7F4F6C
:101CC000C801099568E770E080E090E00E94430356
:101CD0002A960FB6F894DEBF0FBECDBFDF91CF912D
:101CE0001F910F910895CF93C0E080914702C817CC
:101CF00058F4EC2FF0E0EB5FFE4F70E060E0808185
:101D00000E94AC02CF5FF1CF80910A0187FF0E9451
:101D100082038091450290914602892B31F070E058
:101D200060E086E1CF910C94240ECF910895CF927C
:101D3000DF92EF92FF921F93CF93DF93E0E0F1E009
:101D4000DF01D0E0C0E0482F50E02D91022E000CC2
:101D5000330B2417350781F4CE01880F991FC80F64
:101D6000D91FCA5CDA4FCE01DF91CF911F91FF904E
:101D7000EF90DF90CF9008952196C430D10529F7D8
:101D8000F12CE12C919197FF63C0F701E050FF4FD8
:101D900080836701CC0CDD1CE601CE0DDF1DCA5C23
:101DA000DA4F98819C30F8F6182F61E00E9470029B
:101DB0008881282F30E0F901EE0FFF1FE20FF31F9B
:101DC000EF5EFA4F1F739081907C192B108319825C
:101DD0001A822CE0622F0E947539829FB001112473
:101DE00030E020E0AB01420F531FFA01EE0FFF1F5E
:101DF000E40FF51FEF5EFA4F908196FD16C02F5F3E
:101E00003F4F2C30310571F781110FC010928000C7
:101E100082E0809381001092850010928400B19A34
:101E200080916F00826080936F00F601EE0DFF1DC0
:101E3000EA5CFA4FE0818E2F90E0FC01EE0FFF1F6D
:101E4000E80FF91FEF5EFA4F8081806480838BCFAB
:101E50009FEFE91AF90A94E0E916F10409F092CF2C
:101E6000D0E0C0E080CFE0914702A5E0B1E090E093
:101E7000E91729F02D91281761F09F5FF9CFE43021
:101E800040F491E09E0F90934702F0E0EB5FFE4F2D
:101E900080830895EF92FF920F931F93CF93DF9368
:101EA000082F162F7A01EA014F3F510519F014F05F
:101EB000CFEFD0E0C1308FEFD80714F4C1E0DFEFEF
:101EC000802F0E94330F812F0E94330F61E0802FFB
:101ED0000E94700261E0812F0E947002BE01802F7B
:101EE0001E141F049CF070E060E0EF2879F00E945F
:101EF000AC02662777276C1B7D0B812FDF91CF917A
:101F00001F910F91FF90EF900C94AC020E94AC02D5
:101F100070E060E0F2CF0F931F93CF93DF93D82F41
:101F2000C62F61E00E94700260E08D2F0E94420285
:101F30008BE594E00197F1F78C2FC63008F085E02F
:101F4000825F0E9409038C018BE990E00197F1F711
:101F500061E08D2F0E9442028BE397E90197F1F730
:101F6000C801DF91CF911F910F910895DC01149664
:101F70008D919C9115976817790750F4ED91FC911C
:101F80001197E60FF71F15967C936E9314971082A6
:101F900008950F931F93CF938C01C62F0E941D0DA0
:101FA0006C2F6460C8010E941D0D6C2F6B7FC801EF
:101FB0000E941D0D83EC90E00197F1F7CF911F91E6
:101FC0000F9108950F931F93CF93DF938C01D62F1A
:101FD000C42F607F642B0E94C90F80E1D89FB0019D
:101FE00011246C2BC801DF91CF911F910F910C949C
:101FF000C90FCF93DF93CDB7DEB728970FB6F8940C
:10200000DEBF0FBECDBF28E0E1E1F1E0DE011196B9
:1020100001900D922A95E1F7FC012085241710F418
:102020004FEF420F50E0440F551F21E030E02C0FDE
:102030003D1F420F531FFA012081620F606840E08C
:1020400028960FB6F894DEBF0FBECDBFDF91CF91BB
:102050000C94E20F40E061E00E94E20F8BE39FE10D
:102060000197F1F7089541E00E94E20F81E090E0CE
:1020700008950F931F93CF93DF93EC0110921103F8
:102080001092100310923F03109261030E94590CAA
:1020900086EA98E090930F0380930E0387EA98E016
:1020A00090930D0380930C031D828A85823010F07B
:1020B00098E09D83888762E370E080E090E00E9472
:1020C00043036B85CE010E941D0D68EE73E080E036
:1020D00090E00E94430360E3CE010E94C90F0BE42D
:1020E00016E4C8010197F1F760E3CE010E94C90F21
:1020F000C8010197F1F760E3CE010E94C90F83E5A3
:1021000092E00197F1F760E2CE010E94C90F6D8164
:10211000606240E0CE010E94E20F84E08E8340E0E6
:102120006CE0CE010E94E20FCE010E942A1082E0F4
:102130008F8340E066E0CE010E94E20F40E062E063
:10214000CE010E94E20F8BE39FE10197F1F7DF914F
:10215000CF911F910F910895FC014481558170E04A
:1021600060E0818592850C94723BCF92DF92EF9272
:10217000FF920F931F93CF93DF93EC016B01F42E2B
:10218000E52E198218861F86188A198A1A8A81E014
:102190008E878B871C8692E09D8788838B01000F3A
:1021A000111F060F171F1D830C83C8010E9487395A
:1021B0009A878987009789F1A80170E060E00E9402
:1021C000723BDB82CA82FE82EF828981882341F0E2
:1021D00061E08F2D0E94700260E08F2D0E9442020C
:1021E0008F2D9E2DFC01EB58FC4FE491F0E0EE0F9B
:1021F000FF1FE559FC4F259134913C8B2B8BFC0143
:10220000E95AFC4FE491ED8BDF91CF911F910F9133
:10221000FF90EF90DF90CF9008951D821C821B826B
:102220001A82D1CF0F931F93CF93DF93861306C0EB
:1022300080E0DF91CF911F910F910895062F182F05
:10224000C0914502D0914602209731F0CE010E9404
:10225000E40ACE010E94233A8FE190E00E94873980
:10226000EC011B821A8288EE93E0A0E0B0E08C8340
:102270009D83AE83BF838DE191E0998388831F8A1C
:102280001E8A198E188E1B8E1A8E1D8E1C8E8E8D98
:102290008E7F8D7F8E8F602FCE010E94BB0A612FB3
:1022A000CE010E94920AD0934602C0934502209725
:1022B00009F4BECF40E855E260E070E0CE010E9434
:1022C0002D0BCE010E94FC0A64E670E080E090E0F5
:1022D0000E94430370E060E08CE00E94240E68E9F5
:1022E00078E080E090E00E94430362E070E089E0E3
:1022F0000E94240E6CE271E080E090E00E944303B3
:1023000081E097CFCF93DF93EC018881998100978B
:1023100011F00E94233A198218821D821C821B82AE
:102320001A82DF91CF910895FC01808191810097FD
:1023300011F00C94233A08950F931F93CF93DF93DA
:102340008C01EB0188819981AA81BB81F80180838E
:102350009183A283B38360177107C9F0848195814B
:10236000009701F16C817D8161157105C9F046818D
:102370005781288539854217530790F00E94823B88
:1023800088859985F80191878087198618868A85BE
:10239000F8018287C801DF91CF911F910F910895B5
:1023A0000E94233A8C819D81F801958384838E81DC
:1023B0009F819783868388859985918780871D82F1
:1023C0001C821F821E82E1CFCF92DF92EF92FF929A
:1023D0000F931F93CF93DF93E82EF62ED42E86E132
:1023E000681711F02BE0F22E809143029091440285
:1023F0000E2D10E0009779F020910401022E000CC0
:10240000330B2017310729F4209142022F1509F4CC
:1024100039C00E94233A83E190E00E948739EC01A1
:10242000ED82FE82F801E95AFC4FE491EF83F80156
:10243000EB58FC4FE491E88780E89EE3A0E0B0E031
:102440008D879E87AF87B88BD0934402C093430299
:10245000E0920401F092420262E08E2D0E9470022E
:102460000E947503605D77408109910969877A87C9
:102470008B879C8787E38A8B64E170E080E090E043
:102480000E944303C0914302D0914402CE01DD205B
:1024900009F453C00E94E208811112C0C12C90ECD3
:1024A000D92E99E7E92E94ECF92EC701B601DF91F8
:1024B000CF911F910F91FF90EF90DF90CF900895F3
:1024C0008E818B3058F38D30E8F08551823030F7B3
:1024D0006881798176276727762790E080E00E94DF
:1024E000F2342DEC3CEC4CEC5DE30E9453356B0177
:1024F0007C01A7019601C701B6010E943B388823E1
:10250000A1F2CCCF698170E090E080E00E94F434C9
:102510002DEC3CEC4CEC5DE30E9453356B017C01EF
:10252000688170E090E080E00E94F4349B01AC018F
:10253000C701B6010E94D236DACF0E94E208882392
:1025400009F4ACCF8E818C3009F441C040F58B305A
:1025500009F0A4CF6A8170E090E080E00E94F2343C
:102560006B017C01CB81C7FF0AC0AC019B0160E01D
:1025700070E080E89FEB0E94D1366B017C01CF7048
:102580006C2F70E090E080E00E94F4342DEC3CEC85
:102590004CEC5DE30E945335A7019601CBCF8551EA
:1025A000823008F07BCF1A81612F70E0762F66278A
:1025B00066277F778B81682B90E080E00E94F23461
:1025C0002DEC3CEC4CEC5DE30E9453351AC01A81B3
:1025D000612F70E090E080E00E94F2346B017C019A
:1025E0006B816F7070E090E080E00E94F4342DEC1D
:1025F0003CEC4CEC5DE30E945335A70196010E9430
:10260000D2366B017C0117FF74CFF7FAF094F7F81C
:10261000F0946FCFFC0124813581FB014481558109
:1026200024173507A0F0FC0180819181009779F093
:10263000FB01608171816115710549F0241B350B27
:10264000820F931F0E94793B21E0892B09F020E043
:10265000822F0895CF93DF93EC01A881B981EB011C
:10266000E881F9811097F1F03097B1F4EC018C8199
:102670009D81892BC9F08C9190E00BC0DB011496F1
:102680008D919C91892B81F0808190E0919581952D
:102690009109DF91CF910895BF01CD01DF91CF91D5
:1026A0000C94793B309751F790E080E0F2CFFB013A
:1026B00001900020E9F73197AF01461B570BDC0171
:1026C000ED91FC910280F381E02D09948F929F920D
:1026D000AF92BF920F931F93CF93DF93CDB7DEB727
:1026E000A1970FB6F894DEBF0FBECDBF19A242303E
:1026F00008F44AE08E010F5D1F4F842E912CB12CFF
:10270000A12CA50194010E943736E62FB901CA0118
:10271000EA3004F5E05DD801EE938D01232B242BE4
:10272000252B79F790E080E0109729F0BD0188E62D
:1027300094E00E945713A1960FB6F894DEBF0FBE27
:10274000CDBFDF91CF911F910F91BF90AF909F9020
:102750008F900895E95CDFCFCF93DF930E94140739
:10276000EC016BE571E088E694E00E9457138C0F52
:102770009D1FDF91CF9108950F931F93CF93DF9308
:10278000EC010E9414068C016BE571E0CE010E9401
:102790005713800F911FDF91CF911F910F910895D3
:1027A0008F929F92AF92BF92CF92DF92EF92FF9261
:1027B0005C016A017B018FE392E00E941407A1147F
:1027C000B10429F0B50188E694E00E9457138CE229
:1027D0000E940F07A7019601C701B6010E943B386E
:1027E0006EE571E081111AC046015701E894B7F80F
:1027F0002FEF3FEF4FE75FE7C501B4010E943B3881
:1028000081111EC02FEF3FEF4FE75FE7C501B40115
:102810000E94ED341816A4F462E671E088E694E0B4
:102820000E9457136BE571E088E694E0FF90EF900B
:10283000DF90CF90BF90AF909F908F900C945713E4
:102840002FEF3FEF4FE75FE4C701B6010E94E63785
:1028500018161CF466E671E0E1CF2FEF3FEF4FE76B
:102860005FECC701B6010E94ED3487FDF3CF20E095
:1028700030E0A901C701B6010E94ED3487FF07C00F
:102880008DE20E940F07F7FAF094F7F8F0942AE02F
:1028900037ED43EA5BE3C701B6010E94D2364B0134
:1028A0005C010E94B7376B017C010E94F2349B01EE
:1028B000AC01C501B4010E94D1364B015C014AE074
:1028C000C701B6010E9466138EE20E940F0720E046
:1028D00030E040E251E4C501B4010E9453354B01A0
:1028E0005C010E94B7376B01F12CE12C4AE0C70173
:1028F000B6010E946613C701B6010E94F2349B0123
:10290000AC01C501B4010E94D13620E030E040E2C4
:1029100051E40E9453350E94B73790E080E04AE0CE
:102920000E9466137FCF8FE192E00E9414076AE64F
:1029300071E088E694E00E9457136BE571E088E649
:1029400094E00C9457130F931F93CF93DF93EC01F4
:1029500088819981009759F02A813B812617370792
:1029600030F081E0DF91CF911F910F9108958B019D
:102970006F5F7F4F0E94AC3A009759F0998388832C
:102980001B830A832C813D81232B59F7FC01108284
:10299000E8CF80E0E7CFEF92FF920F931F93CF93A2
:1029A000DF9300D0CDB7DEB78C0169831A82FC01BA
:1029B000E480F580FFEFEF1AFF0AB7010E94A3142D
:1029C000882381F0F8012081318184819581BE01C5
:1029D0006F5F7F4F820F931F0E94823BF801F58249
:1029E000E48281E00F900F90DF91CF911F910F91C2
:1029F000FF90EF900895EF92FF920F931F93CF9364
:102A0000DF93EC017B018A01BA010E94A3148111BA
:102A10000BC0CE010E948211CE01DF91CF911F9198
:102A20000F91FF90EF9008951D830C83B70188816B
:102A300099810E94823BF0CFCF93DF93EC01FB01A1
:102A40008617970749F0608171816115710541F022
:102A5000448155810E94FB14CE01DF91CF910895EE
:102A60000E948211F9CF0F931F93CF93DF93EC0154
:102A70008B01FB0181919191A191B191BF0188835B
:102A80009983AA83BB831D821C821F821E821986A2
:102A90001886CE0104960E941C15F80182858A874B
:102AA000DF91CF911F910F910895FC011182108247
:102AB0001382128215821482FB0101900020E9F733
:102AC0003197AF01461B570B0C94FB14CF92DF924A
:102AD000EF92FF92CF93DF93EC016DE571E00E94DE
:102AE00055158091440490914504009789F10E9406
:102AF000FC0A0E9475036B017C010E9475036C192E
:102B00007D098E099F09603571058105910500F5E4
:102B10008091440490914504DC01ED91FC91008486
:102B2000F185E02D0995892B41F380914404909122
:102B30004504DC01ED91FC910284F385E02D0995BB
:102B40008D3011F08A3061F48C819D81892B01F3E5
:102B5000CE01DF91CF91FF90EF90DF90CF9008955D
:102B6000682FCE010E94CB14D3CF6DE571E004969F
:102B70000C945515AF92BF92CF92DF92EF92FF92D5
:102B80000F931F93CF93DF9300D01F92CDB7DEB783
:102B90006C018B016DE571E00E9455150115110561
:102BA00059F1F80101900020E9F731975F01A01A6F
:102BB000B10AB50176956795C6010E94A314EE246B
:102BC000E394F12CEA14FB04B8F41B82F801808131
:102BD000898381818A8340E150E070E060E0CE012A
:102BE00001960E94C02FC6010E94CB14F2E0EF0EA6
:102BF000F11C0E5F1F4FE6CFC6010F900F900F9094
:102C0000DF91CF911F910F91FF90EF90DF90CF90C8
:102C1000BF90AF90089585ED8093BC0080913A03FA
:102C200090913B03A0913C03B0913D030796A11DF9
:102C3000B11D23E0B695A795979587952A95D1F76D
:102C40002091BC0024FD03C01092380308954091E8
:102C50003A0350913B0360913C0370913D03452B37
:102C6000462B472B69F30097A105B10541F02AE2F5
:102C70002A95F1F700C00197A109B109E1CF809130
:102C800039030C94770C1F93CF93DF93EC01162F2D
:102C90000E941136181739F0612FCE01DF91CF91C4
:102CA0001F910C941936DF91CF911F9108950C94C8
:102CB0001136AF92BF92CF92DF92EF92FF920F93B5
:102CC0001F93CF93DF931092850383E090E00E94DF
:102CD0005716C82F84E090E00E945716D82FD09343
:102CE0007903C093780385E090E00E945716082F7F
:102CF00086E090E00E945716182F1093610200930F
:102D0000600287E090E00E945716A82E88E090E0CD
:102D10000E945716B82E90E080E00E9457168F341C
:102D200009F046C081E090E00E9457168D3409F00A
:102D30003FC082E090E00E9457168130C9F5CE0175
:102D40000197873F9340A0F5C017D10788F1D12C98
:102D5000C12CF12CE12CC70109960E945716C80E10
:102D6000D11C8FEFE81AF80ACE15DF05A1F7AC14D5
:102D7000BD04F1F4E6E4F4E080E2DF011D928A95FF
:102D8000E9F710927303109281031092820310925C
:102D900083031092840381E0012B09F080E080938B
:102DA0006202109267041092660481E080938503AA
:102DB000DF91CF911F910F91FF90EF90DF90CF9017
:102DC000BF90AF90089520917803309179038217D6
:102DD000930718F409960C94571680E00895EF9223
:102DE000FF920F931F93CF93DF93C0916604D0910E
:102DF00067047E012FEFE21AF20AF0926704E09274
:102E00006604CE010E94E316082F10E02296D093AC
:102E10006704C0936604C7010E94E3169801382B2B
:102E2000C901DF91CF911F910F91FF90EF9008950D
:102E30004F925F926F927F928F929F92AF92BF92CA
:102E4000CF92DF92EF92FF920F931F93CF93DF9376
:102E5000CDB7DEB7E9970FB6F894DEBF0FBECDBF92
:102E60007C01FB018285882321F1F7011182108208
:102E700013821282158214826C5F7F4FC7010E94F9
:102E80001C15C701E9960FB6F894DEBF0FBECDBF83
:102E9000DF91CF911F910F91FF90EF90DF90CF9036
:102EA000BF90AF909F908F907F906F905F904F906A
:102EB000089580809180A280B38020E030E0A90155
:102EC000C501B4010E94E63720E030E040E05FE356
:102ED00087FD39C0C501B4010E94D2360E94B037C7
:102EE0000E94F4342B013C01AC019B01C501B401EB
:102EF0000E94D1369F772FE632E143E85AE30E94E1
:102F0000ED349E012F5F3F4F690187FF21C0F7011C
:102F1000118210821382128215821482C301B201BF
:102F20000E94B0372AE0A6010E940231F60101900A
:102F30000020E9F73197AF014C195D09B601C701CF
:102F40000E94FB149ECFC501B4010E94D136C6CFAA
:102F50001DAA1CAA1FAA1EAA19AE18AE890122E03A
:102F600044E0C501B4010E94A22F009731F1FC0199
:102F700001900020E9F73197AF01481B590BBC01C4
:102F8000CE01C4960E94FB1460E771E0C6010E9466
:102F90005515B601CE01C4960E940A13B82EC6017B
:102FA0000E949411BB2071F068AD79AD6150710938
:102FB000CE01C4960E94B60FE7CFCE01C4960E9400
:102FC0008211E2CF62E771E0C6010E945515B60199
:102FD000CE01C4960E940A13B82EC6010E94941115
:102FE000BB2041F068AD79AD61507109CE01C49646
:102FF0000E94B60F8CA99DA9F701918380838EA9A9
:103000009FA99383828388AD99AD958384831DAAFC
:103010001CAA1FAA1EAA19AE18AECE01C4960E9401
:1030200094112FCFFC018285882331F08481958112
:10303000009739F00C94AB3060817181828193816B
:10304000089560E070E0CB0108950F931F93CF9334
:10305000DF93EC018B010E94B515F801808191810D
:10306000009799F00E94AB30FE01619371938193B8
:103070009193B801CF010E941C1581E08A87CE018F
:10308000DF91CF911F910F91089560E070E0CB0127
:10309000EBCF0F931F93CF93DF93D82FC62F61E011
:1030A0000E94700260E08C2F0E94700260E08D2F01
:1030B0000E94420283E090E00197F1F761E08D2FDA
:1030C0000E94420283E290E00197F1F760E08D2FC9
:1030D0000E944202D0E0FE01E95AFC4F6491FE01D9
:1030E000EB58FC4FE491F0E0EE0FFF1FE75CFC4F64
:1030F0008591949100E315E720E030E0462F0E948F
:10310000A0276115710581059105B9F06F5F7F4FAB
:103110008F4F9F4F9F70611571058105910569F073
:103120002AE330E040E050E00E943736CA01B9019E
:10313000DF91CF911F910F91089520E030E0A90118
:10314000F5CF2F923F924F925F926F927F928F9224
:103150009F92AF92BF92CF92DF92EF92FF920F9326
:103160001F93CF93DF93CDB7DEB7C35AD1090FB604
:10317000F894DEBF0FBECDBF4C01809166049091E4
:1031800067041C012FEF221A320A30926704209242
:1031900066040E94E316280E311CCE0101967C01C4
:1031A0008E01075A1F4FC956DF4F99838883C7592D
:1031B000D040C7010E94B5159BE0E90EF11C0E1529
:1031C0001F05B9F7F12CA4E6B0E0AC0FBD1F1496B3
:1031D000C456DF4FB983A883CC59D040EFE6F0E066
:1031E000EC0FFD1F3496C056DF4FF983E883C05AB9
:1031F000D0402AE730E02C0F3D1F2C5F3F4FCE55CB
:10320000DF4F39832883C25AD040C0906604D090E3
:103210006704C214D30408F037C536013FEF631AC0
:10322000730A7092670460926604C6010E94E316F6
:10323000E82E81E0E81237C097E09F1530F338019F
:103240006801A4E0CA0ED11C8091660490916704C5
:103250009C012F5F3F4F30936704209366040E94C8
:10326000E316F30181933F01CE16DF0669F7D8011B
:103270004D905D906D907C90C8010E94B515F8014D
:1032800040825182628273821286EE24E394EF0CB4
:10329000B80181E090E08C0F9D1FFBE0FF9E800D48
:1032A000911D11248FC022E0E21256C032E0C30EFD
:1032B000D11CD0926704C0926604C3010E94E31639
:1032C000E82E6DE571E0CE018C599F4F0E94551597
:1032D0006E2D70E0CE018C599F4F0E94A314EE20FA
:1032E000C1F08091660490916704EA948215930579
:1032F00080F49C012F5F3F4F309367042093660456
:103300000E94E316682FCE018C599F4F0E94CB1468
:10331000E6CF87E08F15D0F0BE016C597F4FC80112
:103320000E942518EE24E394EF0CB80181E090E0B0
:103330008C0F9D1FABE0FA9E800D911D11240E9401
:103340009C11C80104960E949411FE2CCE018C5948
:103350009F4F0E94941159CFB3E0EB123BC0E2E0C3
:10336000CE0ED11CD0926704C0926604C3010E94A5
:10337000E316F7E0FF1508F448CF883008F095C051
:1033800024E0829FF0011124EA5BFB4F40805180D2
:1033900062807380C8010E94B515D8014D925D927C
:1033A0006D927C9213971A961C92EE24E394EF0C84
:1033B000B80181E090E08C0F9D1FBBE0FB9E800D6B
:1033C000911D11240E949C11C80104960E94941121
:1033D000FE2C1BCFE4E0EE122EC0F2E0CF0ED11C8B
:1033E000D0926704C0926604C3010E94E31627E0EE
:1033F0002F1508F40ACF90E0B0E0A0E086309105E8
:10340000A105B10524F085E090E0A0E0B0E0825F86
:103410000E9409036C01C8010E94B515B601DD0CBC
:10342000880B990B0E94F434D8016D937D938D9392
:103430009C931397B8CFE5E0EE1216C0F2E0CF0EE2
:10344000D11CD0926704C0926604C3010E94E316A7
:10345000E82E60E00E94700227E02F1508F4D5CE18
:103460008E2D0E941902D6CFE6E0EE1222C0F2E0C5
:10347000CF0ED11CD0926704C0926604C3010E9493
:10348000E316E82E62E00E94700227E02F1508F490
:10349000BCCE8E2D0E941902412C512C60E8662E64
:1034A0006FE3762E892B09F475CF412C512C320114
:1034B00071CFE7E0EE1226C02601F2E04F0E511C5C
:1034C0005092670440926604C3010E94E316E82EFE
:1034D00023E0C20ED11CD0926704C0926604C201E0
:1034E0000E94E31637E03F1508F48FCE682F8E2D2B
:1034F0000E9449182B013C01C8010E94B515C30167
:10350000B20190CFE8E0EE1231C02601F2E04F0E9A
:10351000511C5092670440926604C3010E94E31656
:10352000E82E360123E0620E711C709267046092EF
:103530006604C2010E94E316582E34E0C30ED11C6B
:10354000D0926704C0926604C3010E94E31697E01C
:103550009F1508F45ACE41E0811101C040E0652D6D
:103560008E2D0E94E4112B013C0114CFE9E0EE12F4
:103570001FC02601F2E04F0E511C5092670440928A
:103580006604C3010E94E316E82E23E0C20ED11C9C
:10359000D0926704C0926604C2010E94E31637E02D
:1035A0003F1508F432CE682F8E2D0E948B0F32CF3C
:1035B000EAE0EE1224C0C0904404D0904504C11447
:1035C000D10409F4A9C3C6010E94FC0AF7E0FF1563
:1035D00008F41BCED601ED91FC910084F185E02D1D
:1035E000C6010995412C512C50E8652E5FE3752EDC
:1035F000892B09F041CE412C512C32013DCE2BE0DC
:10360000E21228C037E03F1508F4FFCDCE018C59F7
:103610009F4F0E946615BE016C597F4FC8010E94E2
:103620002518DD24D394DF0CB80181E090E08C0FE5
:103630009D1FFE9C800D911D11240E949C11C801AC
:1036400004960E949411CE018C599F4F0E949411B0
:10365000FD2CDBCD8AE2E8122DC0FF2009F4D5CD88
:1036600081E090E08C0F9D1FABE0FA9E800D911DD4
:103670001124FC013B976F01CF010E94070EE82E39
:10368000C8010E94B51561E0E6266E2D70E090E05D
:1036900080E00E94F234D8016D937D938D939C93CA
:1036A00013971A961C92B801C6010E949C11C8017A
:1036B00004964FCEB1E0BF1508F0A7CDEFEFEF0DA8
:1036C000C756DF4FE883C959D0404BE0D42E61E0A4
:1036D00070E06C0F7D1FED9D600D711D1124CE01FA
:1036E00086589F4F0E943315FA94FA942F2D30E09C
:1036F000C256DF4F39832883CE59D040FD9CC0018C
:103700001124C656DF4F99838883CA59D04061E09F
:1037100070E06C0F7D1F680F791FCE0181599F4F9C
:103720000E943315CE018C599F4F0E94B515A89663
:103730001CAE1DAE1EAE1FAEA897AF961FAEAF97C4
:10374000CE0181599F4F0E9412185B016C01CE017E
:1037500086589F4F0E9412182B013C01ECEEEE0D93
:10376000E83108F0C4C0F0E0E854F44E0C9481391C
:10377000D01BE41B001C071C171C771C771C771C34
:10378000771C771C1E1CE31C4B1D5A1D691D751DE3
:10379000771C771C771C771C811D9E1D771CBC1D18
:1037A000AC019B01C601B5010E94D2362B013C0140
:1037B000C8010E94B515D8014D925D926D927C9220
:1037C00013971A961C9211C0AC019B01C601B5015A
:1037D0000E94D1362B013C01C8010E94B515F801A9
:1037E00040825182628273821286B801CE018C5966
:1037F0009F4F0E949C11C80104960E94941177C0AB
:10380000AC019B01C601B5010E945335CFCF2CEA14
:1038100035EC47E257E39F770E94ED3487FD61C1A5
:10382000A3019201C601B5010E943E37D3CFAC017E
:103830009B01C601B5010E94EB37B8CFEA968FAD68
:10384000EA97811108C0CC57DF4FE880C458D040B8
:10385000EE2009F49FC0BE0166587F4FCE018B5702
:103860009F4F0E941817BE0161597F4FCE018557A7
:103870009F4F0E941817C157DF4F28813981CF58B9
:10388000D040C757DF4F88819981C958D040281749
:10389000390759F4BE016B577F4FCE0185579F4FB3
:1038A0000E942A1361E0892B09F060E070E090E04B
:1038B00080E00E94F4342B013C01EE24E394C80123
:1038C0000E94B515F801408251826282738212868D
:1038D000B801CE018C599F4F0E949C11C8010496DB
:1038E0000E949411CE0185579F4FE110C1C1B7E0EE
:1038F000BF15C8F18BE0C256DF4FE881F981CE5980
:10390000D0408E9F70018F9FF00C112421E030E099
:103910002C0F3D1FE20EF31EA8968CAD9DADAEADF3
:10392000BFADA897F70180839183A283B383C65666
:10393000DF4F88819981CA59D0400496C456DF4F21
:1039400068817981CC59D040820F931F0E941C1549
:10395000AF968FADAF97D7011A968C93C756DF4FAE
:10396000F880C959D040C456DF4F88819981CC591D
:10397000D0400E949411C056DF4F88819981C05A6F
:10398000D0400E949411CE55DF4F88819981C25A50
:10399000D040DFCCA3019201C601B5010E94D1360F
:1039A0009F772CEA35EC47E257E30E94ED34412C37
:1039B000512C30E8632E3FE3732E87FD80CF412CDE
:1039C000512C32017CCFEA968FADEA97811108C065
:1039D000CC57DF4FE880C458D040EE2009F442C0F5
:1039E000BE0166587F4FCE018B579F4F0E9418171C
:1039F000BE0161597F4FCE0185579F4F0E94181716
:103A0000C157DF4F28813981CF58D040C757DF4F8A
:103A100088819981C958D0402817390759F4BE01C7
:103A20006B577F4FCE0185579F4F0E942A1361E04D
:103A3000892B09F060E081E0682770E090E080E089
:103A40000E94F4342B013C01EE24E394C8010E944F
:103A5000B515D8014D925D926D927C9213971A968E
:103A60001C9236CFA3019201C601B5010E94D13646
:103A70009F772CEA35EC47E257E30E94E637412C6A
:103A8000512C20E8622E2FE3722E87FFDFCF412CCE
:103A9000512C3201DBCFAC019B01C601B5010E9464
:103AA000ED3487FF1EC0412C512C90E8692E9FE316
:103AB000792E92CEAC019B01C601B5010E94ED3476
:103AC0001816DCF0412C512C80E8682E8FE3782EFC
:103AD0006FCEAC019B01C601B5010E94E6371816F6
:103AE00014F3412C512C320177CEAC019B01C6015D
:103AF000B5010E94E63787FFE5CF412C512C3201FA
:103B000057CECE0181599F4F0E94070EE82E882381
:103B100031F0CE0186589F4F0E94070EE82EC80153
:103B20000E94B5156E2D70E090E080E00E94F234A6
:103B3000F801608371838283938356CECE018159CD
:103B40009F4F0E94070EE82E811106C0CE018658B5
:103B50009F4F0E94070EE82EC8010E94B5156E2DDA
:103B600070E090E080E00E94F234D8016D937D9384
:103B70008D939C93139725CEBE0166587F4FCE013F
:103B80008B579F4F0E941817BE0161597F4FCE017E
:103B90008F569F4F0E941817C557DF4F1982188202
:103BA000CB58D040C357DF4F19821882CD58D04030
:103BB000C157DF4F19821882CF58D040BE016F56CF
:103BC0007F4FCE0185579F4F0E941C15CB57DF4F6B
:103BD00068807980C558D0406114710409F44EC0E2
:103BE000C757DF4FC880D980C958D040C114D1040D
:103BF00039F1C157DF4F88819981CF58D040C80E25
:103C0000D91EB601CE0185579F4F0E94A314882369
:103C1000A9F1C557DF4F28813981CB58D040C15712
:103C2000DF4F88819981CF58D040B301820F931F15
:103C30000E94823BC157DF4FD982C882CF58D04003
:103C4000BE0165577F4FC8010E942518B801CE01FB
:103C50008C599F4F0E949C11C80104960E94941198
:103C6000CE0185579F4F0E949411CE018F569F4FD2
:103C70000E949411CE018B579F4FBFCDCE01855727
:103C80009F4F0E948211DCCF30926704209266041D
:103C9000FF20C1F161E070E06C0F7D1FBBE0FB9E77
:103CA000600D711D11246B507109C4010E94331500
:103CB0000B501109C80104960E949411C956DF4F98
:103CC00028813981C759D0402017310789F7C401AD
:103CD000CD55DF4F0FB6F894DEBF0FBECDBFDF91DD
:103CE000CF911F910F91FF90EF90DF90CF90BF90F9
:103CF000AF909F908F907F906F905F904F903F908C
:103D00002F900895C4010E94B515F401108211820C
:103D1000128213821286CCCF37E03F1508F475CAA1
:103D20006ACC2F923F924F925F926F927F928F92C6
:103D30009F92AF92BF92CF92DF92EF92FF920F933A
:103D40001F93CF93DF93CDB7DEB765970FB6F89487
:103D5000DEBF0FBECDBF109281031092820310927E
:103D600083031092840320916202A0907803B090A4
:103D70007903211104C0A0906002B090610280918B
:103D80006604909167048A159B05B8F40091660457
:103D90001091670468012FEFC21AD20AD09267040B
:103DA000C0926604C8010E94E316F82E811134C047
:103DB000B0926704A092660416C0109273038091BB
:103DC000600290916102211103C021E02093620200
:103DD000909367048093660420917803309179036F
:103DE0008217930798F265960FB6F894DEBF0FBE60
:103DF000CDBFDF91CF911F910F91FF90EF90DF909A
:103E0000CF90BF90AF909F908F907F906F905F907A
:103E10004F903F902F90089561E0861335C0CE01FA
:103E200001960E94A118CE0101960E9412186B0102
:103E30007C01CE0105960E94941120E030E0A9019A
:103E4000C701B6010E94ED3487FF03C0C12CD12CFD
:103E500076010E9475034B015C0120E030E04AE7E7
:103E600054E4C701B6010E9453350E94B737860E4D
:103E7000971EA81EB91E8092810390928203A09281
:103E80008303B0928403AFCF8EEF8F0D8230C8F5DD
:103E90000E5F1F4F1093670400936604C6010E94D3
:103EA000E316082FCE0101960E94A118CE010196BB
:103EB0000E9412184B015C01CE0105960E949411DC
:103EC000083008F090CF74E0079F8001112482E051
:103ED0000A5B1B4FF81206C0F80180829182A28211
:103EE000B38281CFA5019401F80160817181828143
:103EF00093810E94D236F801608371838283938319
:103F000072CFF4E0FF1222C0580122E0A20EB11CD1
:103F1000B0926704A0926604C6010E94E316F82ED0
:103F20000D5F1F4F1093670400936604C5010E9444
:103F3000E316182F61E08F2D0E94700261E01111CD
:103F400001C060E08F2D0E9442024DCF65E0F61265
:103F500032C00E5F1F4F1093670400936604C601C2
:103F60000E94E316182F61E00E947002CE010196B4
:103F70000E94A118CE0101960E9412186B017C01CB
:103F8000CE0105960E949411C701B6010E94B03778
:103F90006F3F71058105910529F024F06FEF70E006
:103FA00080E090E097FF03C060E070E0CB01812FDC
:103FB0000E94AC0218CF76E0F71242C0780182E08E
:103FC000E80EF11CF0926704E0926604C6010E94BC
:103FD000E316D82E0D5F1F4F1093670400936604FD
:103FE000C7010E94E316182FCE0101960E94A11866
:103FF000CE0101960E9412184B015C01CE0105967C
:104000000E949411C501B4010E94B0376F3F710541
:104010008105910529F024F06FEF70E080E090E0D9
:104020006130AFEF7A078A079A0724F461E07FEFE7
:104030008FEF9FEFAB01612F8D2D0E944A0FD3CEE2
:10404000E7E0FE1234C00E5F1F4F10936704009329
:104050006604C6010E94E3160E94970E8C01CE01F1
:1040600001960E94A118CE0101960E9412186B01C0
:104070007C01CE0105960E9494110115110509F4E9
:10408000B2CEC701B6010E94B037653B710581050C
:10409000910524F064EB70E080E090E097FF03C0AE
:1040A00060E070E0CB01C8010E94B60B9CCEF8E046
:1040B000FF126CC00E5F1F4F1093670400936604DD
:1040C000C6010E94E316182FCE0101960E94A11886
:1040D000CE0101960E9412186B017C01CE0105965B
:1040E0000E949411C701B6010E94B0376B017C0198
:1040F00021E2C2162EE4D206E104F10434F040E2DB
:10410000C42E4EE4D42EE12CF12C64E1C616D10469
:10411000E104F1042CF434E1C32ED12CE12CF12C78
:10412000CE0101960E94A118CE0101960E9412189C
:104130004B015C01CE0105960E94941120E030E015
:10414000A901C501B4010E94ED3487FF03C0812C91
:10415000912C540120E030E04AE754E4C501B40159
:104160000E9453350E94B7379B01AC0110930A019E
:10417000211531054105510521F421E030E040E0F1
:1041800050E0B601812F0E94AE032DCE79E0F712E8
:104190000CC00E5F1F4F1093670400936604C601A6
:1041A0000E94E3160E9482031ECE8AE0F8124CC0E1
:1041B0005801A2E0AA0EB11CB0926704A092660456
:1041C000C6010E94E316C82E7801E3E0EE0EF11C52
:1041D000F0926704E0926604C5010E94E316D82EAF
:1041E0000C5F1F4F1093670400936604C7010E9481
:1041F000E316F82E8091760390917703009711F0E3
:104200000E94233A8CE090E00E9487398C01FC01E7
:10421000138212828FE291E091838083C482D186DF
:10422000F28613861093770300937603C8010E94E9
:10423000391088E0F801838760E0C8010E941D0DF5
:10424000C8010E942A10CFCDFBE0FF1269C0CE0149
:1042500001960E94A118CE0101960E9412186B01CE
:104260007C01CE0105960E949411CE0101960E9418
:10427000A118CE0101960E9412184B015C01CE01DB
:1042800005960E949411CE0101960E94A118BE01CC
:104290006F5F7F4FCE010C960E941817CE010596D6
:1042A0000E94941100917603109177030115110576
:1042B00091F1C701B6010E94B0376B017C0124E087
:1042C000C216D104E104F1042CF023E0C22ED12C5B
:1042D000E12CF12CF7FE03C0C12CD12C7601C501D5
:1042E000B4010E94B037643171058105910524F055
:1042F00063E170E080E090E097FF03C060E070E071
:10430000CB014C2DC8010E94F90FBE01645F7F4FA5
:10431000C8010E941406CE010C960E94941163CD30
:104320006CE0F61208C080917603909177030097B5
:1043300009F087CF58CD7DE0F7125EC00E5F1F4FAA
:104340001093670400936604C6010E94E316B82E1A
:10435000CE0101960E94A118CE0101960E9412186A
:104360006B017C01CE0105960E949411C701B60134
:104370000E94B0376B017C018DE3C816D104E104C3
:10438000F1042CF09CE3C92ED12CE12CF12C1C144F
:104390001D041E041F0424F0C12CD12C7601C394EB
:1043A00000917403109175030115110581F0F80156
:1043B000818592850E94233AF8018681978197FD35
:1043C00003C060E00E947002C8010E94233A86E1A7
:1043D00090E00E9487398C014B2D50E0B6010E947D
:1043E000B5101093750300937403C8010E949008E0
:1043F000C8010E94AC108FC0FEE0FF1293C0CE0136
:1044000001960E94A118CE0101960E9412186A8B93
:104410007B8B8C8B9D8BCE0105960E949411CE01D7
:1044200001960E94A118CE0101960E9412186B01FC
:104430007C01CE0105960E949411CE0101960E9446
:10444000A118CE0101960E9412184B015C01CE0109
:1044500005960E949411CE0101960E94A118CE01EA
:1044600001960E9412182B013C01CE0105960E9474
:10447000941100917403109175030115110509F44D
:10448000B2CCF801228033802114310409F4ABCC82
:10449000C301B2010E94B037712C77FD07C06F3F96
:1044A000710519F014F06FEF70E0762EC501B401BC
:1044B0000E94B037B12C77FD07C06F3F710519F02E
:1044C00014F06FEF70E0B62EC701B6010E94B0374E
:1044D000F12C77FD07C06F3F710519F014F06FEFF5
:1044E00070E0F62E6A897B898C899D890E94B0379D
:1044F000272D30E050E040E03B294F2977FD0FC0E9
:10450000A1E02A1A31086215730508F41B01B101F4
:10451000C8010E944F07C8010E94BB0764CC312C20
:10452000212CF5CFEFE0FE1209C000917403109129
:1045300075030115110509F05BCF55CCF0E1FF12B1
:104540003FC0780122E0E20EF11CF0926704E09295
:104550006604C6010E94E316B82E0D5F1F4F10932C
:10456000670400936604C7010E94E316182FCE016A
:1045700001960E94A118CE0101960E9412186B01AB
:104580007C01CE0105960E949411612F8B2D0E9413
:104590001211882309F427CCC701B6010E94B03755
:1045A0006F3171058105910524F06EE170E080E0C6
:1045B00090E097FF03C060E070E0CB0186E01FC091
:1045C00061E1F6121FC0CE0101960E94A118CE0132
:1045D00001960E9412186B017C01CE0105960E9483
:1045E0009411C701B6010E94B037161617061806B7
:1045F000190624F061E070E080E090E083E00E9422
:10460000240EF1CB72E1F7120FC0CE0101960E9489
:10461000A118CE0101960E9412186B017C01CE01F7
:1046200005960E949411B8CF83E1F81204C070E09F
:1046300060E086E1E4CFA4E1FA1259C07801E2E03B
:10464000EE0EF11CF0926704E0926604C6010E942F
:10465000E316D82E0D5F1F4F109367040093660476
:10466000C7010E94E316C82E0E94EF167C0100913C
:104670004404109145040115110531F0C8010E9450
:10468000E40AC8010E94233A8FE190E00E94873932
:104690008C01FC011382128288EE93E0A0E0B0E06E
:1046A00084839583A683B7838DE191E09183808392
:1046B000178A168A118E108E138E128E158E148EF6
:1046C000868D8E7F8D7F868F6C2DC8010E94BB0AE0
:1046D0006D2DC8010E94920A109345040093440472
:1046E000A70170E060E0C8010E942D0B7CCBF5E1D2
:1046F000FF1227C0009144041091450401151105D3
:10470000D9F0C8010E94FC0ACE0101960E94A118AE
:10471000BE016F5F7F4FCE010C960E941817BE013D
:10472000645F7F4FC8010E94BC13CE010C960E94AB
:104730009411CE010596F1CDCE0101960E94A118EB
:10474000F8CF26E1F2121DC08FE592E00E94140717
:10475000CE0101960E94A118BE016F5F7F4FCE016E
:104760000C960E941817BE01645F7F4F88E694E0A4
:104770000E94BC13CE010C960E949411CE010596A6
:10478000CCCD67E1F61207C00E94EF169093670444
:104790008093660428CB78E1F71212C0CE0101960F
:1047A0000E94A118CE0101960E94070E182FCE017B
:1047B00005960E9494110E94EF16111114CBE6CFBA
:1047C00089E1F81235C0CE0101960E94A118CE01F0
:1047D00001960E9412180E94B0376B017C01CE0135
:1047E00005960E9494110E94EF169C011C141D0452
:1047F0001E041F042CF03093670420936604F3CA50
:10480000909173039430B8F7A6E09A9FF0011124B9
:10481000E85BFD4F2091660430916704318320836B
:10482000C282D382E482F5829F5F90937303DBCAD6
:10483000EAE1FE1227C00E94EF169C0190917303DB
:10484000992309F4D0CA692F6150770B86E0869FBF
:10485000F001879FF00D1124E85BFD4F42815381E9
:104860006481758141505109610971094283538303
:104870006483758314161506160617060CF4BBCF51
:104880009150D3CF1092850382E492E00E94AC1342
:10489000AACA009711F00C94AF30CB0108951F9273
:1048A0000F920FB60F9211242F933F938F939F93E4
:1048B000AF93BF9380913C0490913D04A0913E043E
:1048C000B0913F0430913B0423E0230F2D3758F57E
:1048D0000196A11DB11D20933B0480933C0490934D
:1048E0003D04A0933E04B0933F0480914004909116
:1048F0004104A0914204B09143040196A11DB11D51
:104900008093400490934104A0934204B0934304E5
:10491000BF91AF919F918F913F912F910F900FBEBB
:104920000F901F90189526E8230F0296A11DB11D28
:10493000D2CF1F920F920FB60F9211242F933F9355
:104940004F935F936F937F938F939F93AF93BF9397
:10495000EF93FF9380916F0390917003A091710387
:10496000B0917203892B8A2B8B2BD1F190916E031E
:10497000E0916C03F0916D038081892780838091A1
:104980006F0390917003A0917103B0917203181698
:1049900019061A061B069CF480916F039091700310
:1049A000A0917103B09172030197A109B10980939D
:1049B0006F0390937003A0937103B0937203FF9100
:1049C000EF91BF91AF919F918F917F916F915F9187
:1049D0004F913F912F910F900FBE0F901F90189500
:1049E000809109010E948203EACF1F920F920FB6B5
:1049F0000F9211242F933F934F935F936F937F9365
:104A00008F939F93AF93BF93EF93FF9388E694E0C8
:104A10000E94A006FF91EF91BF91AF919F918F915E
:104A20007F916F915F914F913F912F910F900FBEAA
:104A30000F901F9018951F920F920FB60F9211248E
:104A40002F938F939F93EF93FF93E0917804F091CE
:104A500079048081E0917E04F0917F0482FD1BC087
:104A60009081809181048F5F8F73209182048217DF
:104A700041F0E0918104F0E0E859FB4F958F80937D
:104A80008104FF91EF919F918F912F910F900FBE15
:104A90000F901F9018958081F4CF1F920F920FB640
:104AA0000F9211242F933F934F935F936F937F93B4
:104AB0008F939F93AF93BF93EF93FF93E0910A037C
:104AC000F0910B03309749F0A685B7858585968DC3
:104AD00091FF14C09C918923A1F4FF91EF91BF91A4
:104AE000AF919F918F917F916F915F914F913F9186
:104AF0002F910F900FBE0F901F9018959C918923B6
:104B000061F7A389B4899C918589809589238C93C9
:104B1000868997890197F1F7608D718DA685B78594
:104B2000558538E020E0CB010197F1F7822F90E026
:104B300095958795282F4C91452309F02068315091
:104B400091F7868D81FD20958091080390E0019674
:104B50008F73992730910903381799F0A0910803B2
:104B6000B0E0A853BD4F2C9380930803828D938DA2
:104B70000197F1F7A389B4898C919589892B8C933E
:104B8000ACCF868D8160868FF1CF1F920F920FB6CA
:104B90000F9211242F933F934F935F936F937F93C3
:104BA0008F939F93AF93BF93CF93DF93EF93FF9335
:104BB0008091C702C0913505D0E087FF24C01092D4
:104BC0008500109284008091C7028F5F8093C70296
:104BD0008091C702082E000C990B8C179D0724F4B6
:104BE0008091C7028C30C4F180918400909185003F
:104BF000049680349C4908F47AC080918400909196
:104C00008500049676C08091C702082E000C990B8F
:104C10008C179D07C4F6E091C7028E2FEE0F990BFB
:104C2000FC01EE0FFF1FE80FF91FEF5EFA4F8081C6
:104C300086FFC9CFE091C7028E2FEE0F990BFC01C2
:104C4000EE0FFF1FE80FF91FEF5EFA4F808160E063
:104C50008F730E944202B7CF20918400309185006B
:104C6000E091C7028E2FEE0F990BFC01EE0FFF1F94
:104C7000E80FF91FEF5EFA4F81819281820F931F37
:104C80009093890080938800E091C7028E2FEE0FE9
:104C9000990BFC01EE0FFF1FE80FF91FEF5EFA4FB3
:104CA000808186FF11C0E091C7028E2FEE0F990B15
:104CB000FC01EE0FFF1FE80FF91FEF5EFA4F808136
:104CC00061E08F730E944202FF91EF91DF91CF91DB
:104CD000BF91AF919F918F917F916F915F914F9114
:104CE0003F912F910F900FBE0F901F90189580E469
:104CF0009CE990938900809388008FEF8093C7028E
:104D0000E3CF1F920F920FB60F9211242F933F9370
:104D10004F935F936F937F938F939F93AF93BF93C3
:104D2000EF93FF938091B900887F803609F44AC0E1
:104D3000F0F5883209F4A7C018F5803109F49BC05A
:104D4000B8F4882309F4F9C0883009F494C0FF91BD
:104D5000EF91BF91AF919F918F917F916F915F91F3
:104D60004F913F912F910F900FBE0F901F9018956C
:104D7000883109F488C0803251F78093360314C01B
:104D8000803409F49DC040F48033B9F38833F9F6D8
:104D90008093360385ECB0C0803509F485C0883532
:104DA00009F496C0883499F60E940B16D0CF883942
:104DB00009F48CC038F5883729F050F4883611F0A2
:104DC000803729F683E0809338031092C60257C0DB
:104DD000883809F47BC0803919F0803809F0B7CFE2
:104DE0008091C602803208F071C0E091C60281E075
:104DF0008E0F8093C6028091BB00F0E0EA55FD4F14
:104E000080833DC0803B39F0E0F4803A09F479C0FA
:104E1000883A09F09CCF84E0809338031092A50271
:104E20001092A402E0910E03F0910F030995809176
:104E3000A40281110FC081E08093A4021092840229
:104E400009C0803C09F4A6CF883C09F4A3CF883B75
:104E500009F07DCFE091A50281E08E0F8093A5023D
:104E6000F0E0EC57FD4F80818093BB009091A5024C
:104E70008091A40229C0809113038093BB0085EC2C
:104E80008093BC0064CF90913503809134039817D0
:104E900058F5E091350381E08E0F80933503F0E003
:104EA000EC5EFC4F8081E9CFE091350381E08E0F0D
:104EB000809335038091BB00F0E0EC5EFC4F808373
:104EC00090913503809134039817C8F285E8D8CFC4
:104ED000E091350381E08E0F809335038091BB0014
:104EE000F0E0EC5EFC4F80838091370381115CCF52
:104EF00081E08093120384EA8093BC00109238030F
:104F000026CF85EC8093BC00109238038091C602B6
:104F1000803230F4E091C602F0E0EA55FD4F108295
:104F20006091C60270E0E0910C03F0910D0386EAF7
:104F300092E009951092C6020ACF1092360334CF40
:104F4000CF92DF92EF92FF920F931F93E82FF92FEA
:104F500005C0015011092109310961F190819623A1
:104F60009417B9F305C0015011092109310911F154
:104F7000908196239413F7CFC12CD12CE12CF12CE6
:104F80000AC08FEFC81AD80AE80AF80A0C151D05DE
:104F90002E053F0579F080818623841791F36C2DCF
:104FA0007D2D8E2D9F2D1F910F91FF90EF90DF9003
:104FB000CF90089560E070E080E090E01F910F9145
:104FC000FF90EF90DF90CF90089510926B041092B5
:104FD0006A0488EE93E0A0E0B0E080936C049093C4
:104FE0006D04A0936E04B0936F042BE331E0309313
:104FF00069042093680425EC30E030937504209315
:10500000740424EC30E0309377042093760420EC91
:1050100030E0309379042093780421EC30E0309331
:105020007B0420937A0422EC30E030937D042093BB
:105030007C0426EC30E030937F0420937E041092B1
:1050400081041092820410928304109284041092BE
:105050000805109207058093090590930A05A0930F
:105060000B05B0930C058DE491E0909306058093B9
:105070000505E6E3F5E022E435E04FEF68EB7BE081
:10508000809135058C30B0F491E0980F9093350500
:10509000808390E0DC01AA0FBB1FA80FB91FAF5E91
:1050A000BA4F12967C936E93119733962E173F0743
:1050B00039F708954083F9CFCF93DF93CDB7DEB7AB
:1050C000A3970FB6F894DEBF0FBECDBF789484B51A
:1050D000826084BD84B5816084BD85B5826085BDF4
:1050E00085B5816085BD80916E00816080936E0082
:1050F0001092810080918100826080938100809174
:105100008100816080938100809180008160809324
:1051100080008091B10084608093B1008091B000E4
:1051200081608093B00080917A00846080937A00DF
:1051300080917A00826080937A0080917A00816009
:1051400080937A0080917A00806880937A00109230
:10515000C100E0917804F091790482E08083E091CD
:105160007404F09175041082E0917604F091770454
:1051700080E1808310928004E0917C04F0917D04B2
:1051800086E08083E0917A04F0917B0480818061E5
:105190008083E0917A04F0917B0480818860808331
:1051A000E0917A04F0917B04808180688083E091B3
:1051B0007A04F0917B0480818F7D80836EE571E0BD
:1051C00080E090E00E9443030E9493140E945916CD
:1051D00068EE862E63E0962EA12CB12C5FE2252E80
:1051E00051E0352E88E694E00E948006892B09F470
:1051F00080C688E694E00E945E068D3099F3E091C7
:105200003A048A3009F063C6AE2FB0E0AA57BC4F0B
:105210001C92EE2351F064E771E086E893E00E946F
:10522000793B892B29F40E94931410923A04DACF27
:1052300069E771E086E893E00E94D6307C0169E777
:1052400071E090E080E00E94D6308C01E114F1041E
:1052500061F3892B51F36BE771E0C7010E94793B41
:10526000892B09F052C169E771E090E080E00E946B
:10527000D6307C016E0122E1C20ED11C712C69E78F
:1052800071E090E080E00E94D630D6018D939D932E
:105290006D01892B21F07394B6E07B12F0CFE114FD
:1052A000F10419F26DE771E0C7010E94793B892B87
:1052B000D9F47720C9F070E060E08A899B890E9468
:1052C0004924F82E60E00E9470028F2D0E9419027E
:1052D000BC01990F880B990B0E94F434AB01BC01FF
:1052E000C8010E94D013A1CF68ED71E0C7010E94F0
:1052F000793B892BA9F4772099F070E060E08A89E6
:105300009B890E94492497FD07C08630910534F49B
:10531000825F0E940903DCCF8EE0FBCF83E1F9CFEF
:1053200060E871E0C7010E94793B892BB9F47720CE
:10533000A9F070E060E08A899B890E944924F82ED8
:1053400062E00E9470028F2D0E941902892B09F0E1
:105350007EC040E050E060E87FE3C2CF67E871E0E4
:10536000C7010E94793B892BA1F4E1E0E71588F49D
:1053700070E060E08C899D890E944924F82E70E0DD
:1053800060E08A899B890E9449246F2D0E944918F8
:10539000A3CF6DE871E0C7010E94793B892BA1F48E
:1053A000F1E0F71588F470E060E08C899D890E9437
:1053B0004924F82E70E060E08A899B890E94492484
:1053C0006F2D0E948B0F84CF62E971E0C7010E94AC
:1053D000793B892B01F522E02715E8F470E060E0C5
:1053E0008A899B890E944924D82E70E060E08E89CA
:1053F0009F890E9449247C0170E060E08C899D892E
:105400000E94492441E0EF2809F440E0682F8D2DE7
:105410000E94E41163CF66E971E0C7010E94793B05
:10542000892BC9F4E0904404F0904504E114F104A0
:1054300071F0C7010E94FC0AD701ED91FC91008434
:10544000F185E02DC7010995892B09F082CF40E055
:1054500050E0BA0145CF6EE971E0C7010E94793B87
:10546000892BA9F7CE014E960E94661585E692E03B
:105470000E941407B80188E694E00E9457138CE25A
:105480000E940F0781E1E1E3F2E0DE011196019055
:105490000D928A95E1F710E000E08AA19BA1081720
:1054A000190740F58E8D9F8DF12C009721F0800F0C
:1054B000911FFC01F080EF2DF0E044E0F595E795B9
:1054C0004A95E1F781E090E08C0F9D1FE80FF91FEE
:1054D00080810E940F07EF2DEF70A1E0B0E0AC0FCC
:1054E000BD1FAE0FB11DFD0180810E940F070F5F30
:1054F0001F4FD3CF6BE571E088E694E00E9457130D
:10550000CE014E960E94941190CE65EA71E0C701DB
:105510000E94793B892B09F074C3FE0131966F011B
:10552000F12C69E771E090E080E00E94D630D6016E
:105530008D939D936D01892B09F05EC367EA71E03D
:10554000C8010E94793B892BD9F4B1E0BF15C0F4A2
:1055500070E060E089819A810E944924182F61E0FF
:105560000E94700270E060E08B819C810E9449245F
:1055700061E0892B09F460E0812F0E94420255CE40
:105580006AEA71E0C8010E94793B892B11F5E1E0DC
:10559000EF15F8F470E060E089819A810E94492457
:1055A000182F61E00E94700270E060E08B819C81A6
:1055B0000E9449248F3F910519F014F08FEF90E07D
:1055C00097FF02C090E080E0BC01812F0E94AC02F6
:1055D0002CCE6DEA71E0C8010E94793B892BE1F481
:1055E000F2E0FF15C8F470E060E08D819E810E94BA
:1055F00049248C0170E060E08B819C810E944924E9
:10560000F82E70E060E089819A810E944924A80107
:105610006F2D0E944A0F09CE63EB71E0C8010E9412
:10562000793B892B19F521E02F1500F570E060E03A
:1056300089819A810E9449240E94970E8C01892BAE
:1056400009F4F3CD70E060E08B819C810E944924D5
:10565000853B910514F084EB90E097FF02C090E049
:1056600080E0BC01C8010E94B60BDFCD6BEB71E09E
:10567000C8010E94793B892B91F582E08F1578F55E
:1056800070E060E089819A810E944924182F8093FC
:105690000A0170E060E08D819E810E944924181605
:1056A000190614F081E090E06C01990FEE08FF08F4
:1056B00070E060E08B819C810E94492464E170E08D
:1056C0008431910534F0BC0181329E4414F060E2D3
:1056D0007EE4A7019601812F0E94AE03A6CD69EB5F
:1056E00071E0C8010E94793B892B59F4FF2049F0F1
:1056F00070E060E089819A810E9449240E948203BF
:1057000094CD60EC71E0C8010E94793B892B09F0CF
:1057100040C0B2E0BF15E8F5809176039091770321
:10572000009711F00E94233A70E060E089819A812D
:105730000E944924D82E70E060E08B819C810E94F9
:105740004924E82E70E060E08D819E810E9449240A
:10575000F82E8CE090E00E9487398C01FC011382C6
:10576000128231822082D482E186F286138690935F
:105770007703809376030E94391088E0D8011B9646
:105780008C9360E0C8010E941D0DC8010E942A1080
:105790004CCD69EC71E0C8010E94793B892B59F529
:1057A000B2E0BF1540F5C0907603D0907703C114E6
:1057B000D10409F170E060E089819A810E94492456
:1057C000182F70E060E08B819C810E944924412F5A
:1057D000682FC6010E94F90F6D817E81CE0142962D
:1057E0000E94BA15BE016E5E7F4FC6010E9414066C
:1057F000CE01429687CE62ED71E0C8010E94793BEE
:10580000892B39F48091760390917703009709F002
:10581000BDCF6BED71E0C8010E94793B892B09F087
:105820004CC0E1E0EF1508F048C0009174031091FE
:1058300075030115110589F0D80119968D919C9178
:105840000E94233AF8018681978197FD03C060E0AA
:105850000E947002C8010E94233A70E060E08B81D0
:105860009C810E9449241816190634F46C01CD97C6
:1058700034F03CE3C32E02C0CC24C394D12C70E09E
:1058800060E089819A810E9449247C0186E190E050
:105890000E9487398C01A701B6010E94B5101093B0
:1058A000750300937403C8010E949008C8010E9408
:1058B000AC10C8010E94BB07B8CC64EE71E0C8010F
:1058C0000E94793B892B09F05BC0F3E0FF1508F0DB
:1058D00057C0C0907403D0907503C114D10409F46B
:1058E0004FC070E060E08F8198850E94492410E0ED
:1058F00097FD06C0182F8F3F910511F00CF01FEF98
:1059000070E060E08D819E810E94492400E097FD57
:1059100006C0082F8F3F910511F00CF00FEF70E0DB
:1059200060E08B819C810E94492497FD25C08F3FB8
:10593000910509F01CF5412E512C712C612C502A37
:10594000682A70E060E089819A810E94492470E0B1
:1059500060E097FD0AC0D60112966D917C9161506E
:1059600071098617970708F4BC01A3019201C601CB
:105970000E944F07C6019ECF80E0DDCF8FEFDBCFC7
:105980006BEE71E0C8010E94793B892B59F4C090FD
:105990007403D0907503C114D10421F0C6010E9494
:1059A000AC10E8CF64EF71E0C8010E94793B892B0D
:1059B000A9F5B1E0BF1590F5E2E004E110E0FE16B4
:1059C00079F070E060E08D819E810E9449248C0115
:1059D0004F9714F00EE110E017FF02C010E000E056
:1059E00070E060E08B819C810E944924F82E70E079
:1059F00060E089819A810E9449246F2D0E941211D2
:105A0000882349F0B80186E00E94240E8CE792E0DA
:105A10000E94AC130ACC8DE692E0FACF6DEF71E0F4
:105A2000C8010E94793B892B91F4FF2081F070E03E
:105A300060E089819A810E9449241816190614F0A1
:105A400081E090E0BC0183E00E94240EEECB65E093
:105A500072E0C8010E94793B892B99F4FF2089F0FC
:105A600070E060E089819A810E94492497FD05C019
:105A7000BC014F9724F06EE101C060E070E086E069
:105A8000E3CF6CE072E0C8010E94793B892B21F4DE
:105A900070E060E086E1D8CF64E172E0C8010E9466
:105AA000793B892B09F058C0F2E0FF1508F054C08B
:105AB00000914404109145040115110531F0C8010D
:105AC0000E94E40AC8010E94233A70E060E08981E4
:105AD0009A810E944924F82E70E060E08B819C81BD
