:100000002DC1000053C1000051C100000C946E27A7
:100010000C946E270C946E2749C100000C94BA26EC
:1000200045C1000043C1000041C100000C94E62717
:100030003DC100003BC1000039C1000037C10000D4
:100040000C94702633C100000C943C270C941627A6
:100050002DC100002BC1000029C1000027C10000F4
:100060000C94A22823C1000000407A10F35A00A08B
:10007000724E18090010A5D4E80000E87648170071
:1000800000E40B54020000CA9A3B000000E1F505B1
:10009000000080969800000040420F000000A086FB
:1000A00001000000102700000000E803000000002D
:1000B0006400000000000A000000000001000000D1
:1000C00000002C76D888DC674F0823DFC1DFAE59EB
:1000D000E1B1B796E5E3E453C63AE651997696E87E
:1000E000E6C28426EB898C9B62ED407C6FFCEFBC02
:1000F0009C9F40F2BAA56FA5F490055A2AF75C932D
:100100006B6CF9676DC11BFCE0E40D47FEF520E662
:10011000B500D0ED902E0300943577050080841E45
:10012000080000204E0A000000C80C333333330FA0
:10013000986E12831141EF8D2114893BE65516CF3D
:10014000FEE6DB18D1844B381BF77C1D901DA4BB49
:10015000E424203284725E228100C9F124ECA1E5FE
:100160003D2752454144592C4F4D2C00562C00AE92
:10017000D580A83FD300408D142002A1C8DA128197
:10018000CFD9F1DB40A4A6AF1F111F001F001D1522
:100190001715151F07041F17151D1F151D01011F1A
:1001A0001F151F17151F41542B4E414D45000D0AB9
:1001B0000041542B4E414D453D004C4F472C000211
:1001C000542C004C4F472C004D50335F5245414456
:1001D00059004F4B00455252004F4B00534156457A
:1001E000442C0050524F4752414D5F444154412CE2
:1001F0000050524F4752414D5F5245414459000013
:10020000000000240027002A00000000080002016E
:1002100000000304070000000000000000000000D0
:10022000002300260029000102040810204080015C
:10023000020408102001020408102000000000251C
:100240000028002B00040404040404040402020235
:10025000020202030303030303002D2A11241FBE1D
:10026000CFEFD8E0DEBFCDBF12E0A0E0B1E0EAE022
:10027000F6E702C005900D92A037B107D9F725E047
:10028000A0E7B2E001C01D92A537B207E1F711E087
:10029000CEE2D1E004C02197FE010E940239CD32A6
:1002A000D107C9F70E94A42A0C94033BA9CE089554
:1002B0000895833081F028F4813099F08230A9F0DC
:1002C00008958730A9F08830C9F08430B1F4809166
:1002D00080008F7D03C0809180008F7780938000A5
:1002E000089584B58F7784BD089584B58F7DFBCF45
:1002F0008091B0008F778093B00008958091B00016
:100300008F7DF9CFCF93DF93282F30E0F901E75F9E
:10031000FD4F8491F901E95DFD4FD491F901EB5B4B
:10032000FD4FC491CC2399F08111C3DFEC2FF0E095
:10033000EE0FFF1FE35EFD4FA591B491EC91ED230D
:1003400081E090E009F480E0DF91CF91089580E0B2
:1003500090E0FACF1F93CF93DF93282F30E0F9017D
:10036000E75FFD4F8491F901E95DFD4FD491F901FB
:10037000EB5BFD4FC491CC23A1F0162F811199DFC7
:10038000EC2FF0E0EE0FFF1FE55CFD4FA591B4915F
:100390008FB7F894EC91111108C0D095DE23DC934F
:1003A0008FBFDF91CF911F910895DE2BF8CFCF93B0
:1003B000DF9390E0FC01E95DFD4F24918B5B9D4F45
:1003C000FC0184918823C9F090E0880F991FFC01FB
:1003D000E150FE4FA591B491FC01E55CFD4FC59144
:1003E000D49161110DC09FB7F8948C912095822310
:1003F0008C938881282328839FBFDF91CF91089514
:10040000623051F49FB7F8943C91822F80958323FA
:100410008C93E8812E2BEFCF8FB7F894EC912E2B95
:100420002C938FBFEACF1F93CF93DF93182FEB014D
:1004300061E0BDDF209739F460E0812F8BDFDF9131
:10044000CF911F910895CF3FD10511F461E0F5CF11
:10045000E12FF0E0E75FFD4FE491E33019F140F464
:10046000E130B1F0E230C9F0C038D1057CF7E4CF1B
:10047000E73011F1E83041F1E430B1F780918000CC
:10048000806280938000D0938B00C0938A00D7CF86
:1004900084B5806884BDC7BDD2CF84B5806284BD79
:1004A000C8BDCDCF80918000806880938000D093BC
:1004B0008900C0938800C3CF8091B000806880938A
:1004C000B000C093B300BBCF8091B0008062809336
:1004D000B000C093B400B3CF8E3008F08E50877058
:1004E000806480937C0080917A00806480937A009D
:1004F00080917A0086FDFCCF809178009091790000
:1005000008953FB7F8948091150490911604A09136
:100510001704B091180426B5A89B05C02F3F19F009
:100520000196A11DB11D3FBFBA2FA92F982F882773
:10053000BC01CD01620F711D811D911D42E0660F4E
:10054000771F881F991F4A95D1F708958F929F9220
:10055000AF92BF92CF92DF92EF92FF924B015C017C
:10056000D0DF6B017C01CDDF6C197D098E099F09FD
:10057000683E734081059105B0F321E0821A91082D
:10058000A108B10888EEC80E83E0D81EE11CF11C5A
:1005900081149104A104B10431F7FF90EF90DF9032
:1005A000CF90BF90AF909F908F900895FC012481D1
:1005B00035816217730748F480819181009729F093
:1005C000860F971FFC018081089580E008950895AB
:1005D00090910C0189130BC0EFEBF1E0E4919FEFD8
:1005E00090930C01E13049F028F0E23061F060E0D6
:1005F000B1CE089510926E00FACF90916F009D7F5A
:1006000090936F00F4CF909170009D7F9093700055
:1006100091E09093B0009091B100987F9460909396
:10062000B1001092B300E3CFA5E0B0E0EAE1F3E05F
:100630000C94AC378B0129013A0190910C01891778
:1006400039F09F3F09F46BC02596E0E10C94C83760
:10065000EFEBF1E094919D8397FDF6CF61E0A7DE8B
:100660008D81882321F09D81923009F049C1480194
:10067000B12CA12C60E072E18AE790E0A50198011D
:100680000E947E3729833A834B835C8369017A0118
:1006900081E0C81AD108E108F1089FEFC916D1041A
:1006A000E104F10409F00CF400C160E472E48FE0AD
:1006B00090E0A50198010E947E3769017A0181E0EE
:1006C000C81AD108E108F1089D81923009F0A1C053
:1006D0008FEFC816D104E104F10409F00CF4E7C16E
:1006E00060E970ED83E090E0A50198010E947E37FB
:1006F00069017A0191E0C91AD108E108F1088FEF88
:10070000C816D104E104F10411F00CF080C183E0BB
:100710009091B100987F892B8093B100CEC08093D7
:100720000C01EFEBF1E094919D839F3F09F48CCF96
:10073000913039F148F0923009F445C09D8197FD20
:1007400083CF61E034DE8FCF14BC15BC94B59260CA
:1007500094BD95B5916095BD282F30E0F901EB5B14
:10076000FD4FE491F0E0EE0FFF1FE55CFD4F45917A
:100770005491F901E95DFD4FE491E09338031D8246
:100780006DCF10928000109281009091810098604E
:100790009093810090918100916090938100282F27
:1007A00030E0F901EB5BFD4FE491F0E0EE0FFF1F4D
:1007B000E55CFD4F45915491F901E95DFD4FE491F0
:1007C000E09337034BCF1092B0001092B10090919C
:1007D000B00092609093B0009091B10091609093BE
:1007E000B100282F30E0F901EB5BFD4FE491F0E020
:1007F000EE0FFF1FE55CFD4F45915491509342036E
:1008000040934103F901E95DFD4FE491E093430317
:1008100025CF9FEFC916D104E104F10409F00CF4CF
:100820006DC068E478EE81E090E0A50198010E9437
:100830007E3769017A0181E0C81AD108E108F10820
:100840009D81992309F4FCC08FEFC816D104E104FF
:10085000F10411F00CF0FDC0F1C064E274EF80E02F
:1008600090E0A50194010E947E3769017A0181E040
:10087000C81AD108E108F10885E09FEFC916D10434
:10088000E104F10409F008F443CF62E17AE780E083
:1008900090E0A50194010E947E3769017A0181E010
:1008A000C81AD108E108F108E7C081E09D819111E3
:1008B0002FCF95B5987F892B85BD2FEF3FEFA901ED
:1008C000411451046104710409F045C09D819130C7
:1008D00009F460C0923009F46FC09111B5CEC7BC65
:1008E00020933D0330933E0340933F0350934003D6
:1008F00080916E00826080936E00A6CE82E0D6CF9B
:100900004801B12CA12C60E072E18AE790E0A501DA
:1009100098010E947E3769017A0181E0C81AD108E6
:10092000E108F108C114D10491E0E906F1040CF5E5
:1009300091E08D81813009F0C0CF80918100887F66
:10094000892B809381002FEF3FEFA90141145104BF
:1009500061047104F9F0D801AA0FBB1FA301920131
:100960000E949A3728EE33E040E050E00E945C3766
:10097000ADCF68E478EE81E090E0A50198010E9497
:100980007E3769017A0181E0C81AD108E108F108CF
:1009900093E0CFCFD0928900C09288002093390392
:1009A00030933A0340933B0350933C0380916F0094
:1009B000826080936F0048CEC092B30020934403BE
:1009C0003093450340934603509347038091700052
:1009D00082608093700038CE84E09FEFC916D10406
:1009E000E104F10409F008F464CFC980DA80EB80F7
:1009F000FC808AE0F594E794D794C7948A95D1F760
:100A000081E0C81AD108E108F10885E052CF68E416
:100A100078EE81E090E0A50198010E947E3769019F
:100A20007A0181E0C81AD108E108F1089FEFC916E0
:100A3000D104E104F10411F00CF00FCF84E068CE92
:100A400083E09FEFC916D104E104F10409F00CF42E
:100A500030CF62E17AE780E090E0A50194010E9446
:100A60007E3769017A0181E0C81AD108E108F108EE
:100A70009D81992309F4B0CF86E09FEFC916D10478
:100A8000E104F10409F008F443CEC980DA80EB8078
:100A9000FC809AE0F594E794D794C7949A95D1F79F
:100AA00081E0C81AD108E108F10887E031CE82E080
:100AB0002FCEDB0114964D915C9115976D917C9131
:100AC000DC01ED91FC910280F381E02D0995089500
:100AD000EF92FF920F931F93CF93DF938C017B01D3
:100AE000D0E0C0E0F701EC0FFD1F6491662361F0D8
:100AF000D801ED91FC910190F081E02DC80109959C
:100B0000892B11F02196EECFCE01CDB7DEB7E6E00E
:100B10000C94D237B0E0A0E0E0E9F5E00C94B237F5
:100B20006C017B018B01040F151FEB015E01AE18F8
:100B3000BF08C017D10759F06991D601ED91FC911A
:100B40000190F081E02DC6010995892B79F7C50147
:100B5000CDB7DEB7EAE00C94CE37FC01538D448D5F
:100B6000252F30E0842F90E0821B930B541710F058
:100B7000CF96089501970895FC01918D828D981765
:100B800061F0A28DAE0FBF2FB11D5D968C91928D3D
:100B90009F5F9F73928F90E008958FEF9FEF08956E
:100BA000FC01918D828D981731F0828DE80FF11D37
:100BB000858D90E008958FEF9FEF0895FC01918D52
:100BC000228D892F90E0805C9F4F821B91098F734B
:100BD0009927089583E994E0F1DF21E0892B09F456
:100BE00020E0822F089580E090E0892B21F0F2DF51
:100BF00081110E9400000895FC01A48DA80FB92F57
:100C0000B11DA35ABF4F2C91848D90E001968F7334
:100C10009927848FA689B7892C93A089B1898C9153
:100C2000837080648C93938D848D981306C00288A2
:100C3000F389E02D80818F7D80830895EF92FF926C
:100C40000F931F93CF93DF93EC0181E0888F9B8DEF
:100C50008C8D981318C0E889F989808185FF13C0AD
:100C60009FB7F894EE89FF896083E889F9898081CC
:100C70008370806480839FBF81E090E0CDB7DEB752
:100C8000E6E00C94D237F62E0B8D10E00F5F1F4F6D
:100C90000F731127E02E8C8D8E110BC00FB607FC41
:100CA000FACFE889F989808185FFF5CFCE01A4DFED
:100CB000F2CFEB8DEC0FFD2FF11DE35AFF4FF082C9
:100CC0009FB7F8940B8FEA89FB8980818062D2CF2D
:100CD000682F83E994E0B2CF0895CF93DF93EC01BE
:100CE000888D8823B1F0AA89BB89E889F9898C911C
:100CF00085FD03C0808186FD0CC00FB607FCF7CFD1
:100D00008C9185FFF2CF808185FFEDCFCE0174DF1E
:100D1000EACFDF91CF910895A9E0B0E0E2E9F6E0F3
:100D20000C94B4378C01DC0119968D919C91892B20
:100D300009F471C0E6DBF801C784D088E188F28845
:100D40006C157D058E059F0520F46787708B818B60
:100D5000928BF801C784D088E188F2886C197D09EC
:100D60008E099F096C3271408105910518F3F89442
:100D7000D80114968D919C9115979A838983199621
:100D8000ED91FC917F01BFEFEB1AFB0A808189870F
:100D9000F80190810388F489E02DD80155968C9153
:100DA000992309F43CC09081982B98879081809575
:100DB00089238F838F818C8388E08B8358856F8113
:100DC00049853B812C8189819A81D701508347FDD8
:100DD000252F3A952083262F39F0441F00C00000AC
:100DE0006083000000C0F2CF38E04D9160830000C6
:100DF000019761F7D8015496FC93EE935397498776
:100E00003B832C839A83898378947BDBF801678703
:100E1000708B818B928B2996E8E00C94D03790816F
:100E2000982B98879081809589238F838F818E83DB
:100E300088E08D8358856F8149853D812E81898128
:100E40009A81D701508347FD252F00C000C0208321
:100E500000C000C000C000C000C060830000262F9A
:100E60003A9541F0441F000000C000C000C000C01F
:100E700000C0E8CF38E04D9100C0608300C001970A
:100E800009F7D8015496FC93EE93539749873D8315
:100E90002E83B8CFCF93DF93EC018E819F8197FD96
:100EA0000AC061E084DA60E08E8154DA81E08983EF
:100EB000DF91CF910895198280E0FACF2091350318
:100EC000309136032817390771F4909134038091DB
:100ED0003303981741F0E0913403F0E0ED50FD4FFB
:100EE000808190E008958FEF9FEF08950895EF922D
:100EF000FF920F931F93CF93DF93DC015C96ED90ED
:100F0000FC905D97E114F10469F481E090E01396A0
:100F10009C938E93129790E080E0CDB7DEB7E6E029
:100F20000C94D2375196ED91FC91529750968C913A
:100F30005097982F90950FB75E962C915E97122F31
:100F4000127021FD6095F8942081112319F1282B4E
:100F50002083E7012197F1F728E0462F50E0308108
:100F600060FF1AC0382B3083E7012197F1F7BA01EF
:100F700075956795215089F7112381F08081892328
:100F800080830FBF5C968D919C910197F1F781E072
:100F900090E0C3CF2923DCCF3923E5CF9081892B83
:100FA000EFCF20913503309136032817390761F4CC
:100FB000809133032091340390E0805C9F4F821B2B
:100FC00091098F739927089590E080E0089520910A
:100FD00035033091360328173907B9F4909134035B
:100FE00080913303981789F0E0913403F0E0ED50DD
:100FF000FD4F80812091340330E02F5F3F4F2F73EE
:1010000033272093340390E008958FEF9FEF0895E6
:101010001F93CF93DF93EC01162F60E0812FC7D988
:101020008E8D81FD03C061E0812F94D91C87812FB3
:1010300090E0FC01E95DFD4FE491ED87FC01EB5B85
:10104000FD4FE491F0E0EE0FFF1FE35EFD4F859151
:1010500094919F878E87DF91CF911F9108951F9361
:10106000CF93DF93EC01162F6E8D6695617081E052
:101070006827812F6FD961E0812F99D9812F90E066
:10108000FC01E95DFD4FE491E88BFC01EB5BFD4F5A
:10109000E491F0E0EE0FFF1FE55CFD4F8591949128
:1010A0009A8B898BDF91CF911F910895FC018CE180
:1010B00091E0918380838091350390913603E81706
:1010C000F90759F4A389B4899C918589809589236E
:1010D0008C9310923603109235030895CF93DF93CB
:1010E000FC01828D938D892B41F1A0913503B09144
:1010F0003603AE17BF0709F1109751F05396CD9103
:10110000DC915497988155968C918095892388839A
:10111000868D8E7F868F1092330310923403F09366
:101120003603E0933503A389B4898C919589892B83
:101130008C9381E0DF91CF91089580E0FBCFCF9336
:10114000DF93EC019A01AB011B8E1A8E198E188E5B
:101150001F8A1E8A60E079E08DE390E00E947E376E
:10116000F901C90103972430310510F481E090E0C2
:101170009D8F8C8F6C85663108F053C0C9019695A0
:1011800087958431910508F451C043979F8B8E8BCE
:10119000C9010597369710F481E090E0998F888F08
:1011A000C901880F991F280F391F36952795369545
:1011B00027952D30310508F43CC02C5031093B8F68
:1011C0002A8F9091680084E0683048F021E06E300A
:1011D00008F420E081E001C0880F2A95EAF7892B06
:1011E000809368009C852DE630E0983050F02BE627
:1011F00030E09E3030F02CE630E0963110F030E0F8
:1012000020E03C8B2B8B292F30E09830A8F481E034
:1012100001C0880F9A95EAF78D8B8C8D9D8D019773
:10122000F1F7CE015BDFDF91CF91089581E090E08F
:10123000ADCF21E030E0C3CF9E3040F428503109DB
:1012400081E001C0880F2A95EAF7E6CF2E503109D8
:10125000F7CFCF92DF92EF92FF92CF93DF93EC0123
:10126000603282E07807CCF5653B710514F064EBE1
:1012700070E0898128E830E0281B310987FD33952B
:10128000220F331F220F331F6901330FEE08FF08AF
:101290008A8128E532E0281B310987FD3395220F2A
:1012A000331F220F331F032E000C440B550B2C1938
:1012B0003D094E095F09DB0177FF02C0B0E0A0E005
:1012C0000E94A43724EB30E040E050E00E947E37DB
:1012D000C20ED31EE41EF51EB601E881EC3070F597
:1012E000298188E890E0821B910927FD9395880F5A
:1012F000991F880F991F681779077CF02A8188E564
:1013000092E0821B910927FD9395880F991F880F02
:10131000991F681779070CF4CB010297880F991F62
:101320004FB7F8942E2F30E0F901EE0FFF1FE20FB8
:10133000F31FE45CFA4F928381834FBFDF91CF911B
:10134000FF90EF90DF90CF9008952091CF02260F6D
:101350003327331F21323105ECF420916904FC015D
:1013600090E080E0243069F082E00895A091CF02FF
:101370002191AC0141555D4FA40FB52FB11D2C93A8
:101380000196861798F38091CF02680F6093CF0281
:1013900080E0089581E008951092690481E08093CF
:1013A00068041092430461E082E10E94AA0161E0B6
:1013B00083E10E94AA01E9EBF0E080818E7F8083C7
:1013C00080818D7F808388E48093B80085E480935A
:1013D000BC000895109242041092410410927004CF
:1013E00010929204D9DF87E591E0909340048093B6
:1013F0003F0488E591E090933E0480933D04089576
:10140000CF93DF9391E09093AE028823B1F0C09127
:10141000B800D091BA008091BC008A7B8093BC0058
:1014200060E082E10E94AA0160E083E10E94AA01DB
:10143000B3DFD093BA00C093B800DF91CF91089585
:10144000B0E0A0E0E6E2FAE00C94B437D091920468
:1014500081E0D13208F098C0C091910452D86B015C
:101460007C018091690481116AC082E080936904E3
:1014700081E0809368048FEF809367041092660484
:10148000D0936504A1E7B4E0E5E4F4E080E0D8138C
:1014900086C01092440480914404CC0FC82BC093A2
:1014A000440480914304813009F07DC010924304CC
:1014B00028D86B017C01809144048093BB0080910B
:1014C0006B0490916C04A0916D04B0916E04892B13
:1014D0008A2B8B2B99F015D800916B0410916C041A
:1014E00020916D0430916E046C197D098E099F095D
:1014F000061717072807390708F442C08091BC0077
:1015000083FDD9CF85EC8093BC000E9481026B01E2
:101510007C0180916904823009F447C0809167049E
:101520008F3F09F464C080916704803209F461C080
:1015300080916704803309F45EC084E025C0809107
:101540006B0490916C04A0916D04B0916E04892B92
:101550008A2B8B2B09F485CF0E94810200916B04AA
:1015600010916C0420916D0430916E046C197D090A
:101570008E099F09061717072807390708F071CF4A
:1015800080916A043DDF85E010927004109292040D
:1015900010926F04CDB7DEB7E8E00C94D0379D9180
:1015A00091938F5F74CF85EEAECF80916B04909155
:1015B0006C04A0916D04B0916E04892B8A2B8B2B47
:1015C00009F4A7CF0E94810200916B0410916C0472
:1015D00020916D0430916E046C197D098E099F096C
:1015E000061717072807390708F093CFC9CF80E0FF
:1015F000CBCF82E0C9CF83E0C7CFE0914204809196
:101600004104E81730F4F0E0E257FD4F808190E0AC
:1016100008958FEF9FEF08959091420480914104C7
:101620002FEF3FEF981748F4E92FF0E0E257FD4F16
:10163000208130E09F5F90934204C901089580911A
:10164000410490914204891B990B0895B0E0A0E0F9
:10165000ECE2FBE00C94B4377C01CB018A012091D1
:101660006F04222389F0EB016B01C40ED51ECC154B
:10167000DD0561F06991D701ED91FC910190F08158
:10168000E02DC7010995F3CF642F5FDEC801CDB708
:10169000DEB7E8E00C94D037A1E0B0E0E2E5FBE093
:1016A0000C94BA37698320916F042223F9F02091BA
:1016B0009204203258F021E030E0FC013383228391
:1016C00090E080E02196E2E00C94D637809170049F
:1016D000E82FF0E0EF58FB4F998190838F5F809364
:1016E00070048093920481E090E0ECCF61E0CE0141
:1016F00001962BDEF8CF682F80E395E0CDCF0895DB
:1017000090E080E00895FF920F931F93CF93DF93B3
:101710000091190410911A040115110519F1FC0129
:1017200024813581232BF1F0F62EEC01C801D6DCA3
:10173000F1E0FF121CC061EB71E0C801C9D9BE0124
:101740008091190490911A04B4D96EEA71E08091E5
:10175000190490911A04BCD968EE73E080E090E01F
:101760000E94A602CDB7DEB7E5E00C94D33766EA57
:1017700071E0C801ADD9BE018091190490911A049D
:1017800098D9EACFCF93FC012285222339F0C1E01A
:1017900080859185892B81F4C0E00EC060817181C4
:1017A000828193819F77C1E02CEA35EC47E257E3D1
:1017B0000E94EE38181684F78C2FCF910895B0E070
:1017C000A0E0E5EEFBE00C94B037EC010A850023C5
:1017D00009F47DC0249670E060E0CE010E94D6023C
:1017E00011E08D3211F000E010E0C12CD12C760117
:1017F000612F70E0CE010E94D602B82E082E000C98
:10180000990BC0970A9708F51F5F20E030E040E28F
:1018100051E4C701B6010E9483366B017C016B2D38
:10182000BB0C770B880B990B0E9424369B01AC01F3
:10183000C701B6010E94F13720E030E040E452E4F5
:101840000E94F0376B017C01D3CF8EE2B81232C018
:101850008DEC882E8CEC982EA92C8DE3B82E1F5F72
:10186000612F70E0CE010E94D602682F880F770B9F
:10187000605371096A307105E8F4072E000C880B7B
:10188000990B0E942436A50194010E9483369B0186
:10189000AC01C701B6010E94F1376B017C012DEC50
:1018A0003CEC4CEC5DE3C501B4010E9483364B0176
:1018B0005C01D5CF002321F0F7FAF094F7F8F0940B
:1018C000C701B601CDB7DEB7ECE00C94CC37C880C9
:1018D000D980EA80FB80F4CF9091060121E020932B
:1018E0006F04909391041092700410929204886097
:1018F00090E001DFA5CD08952F923F925F926F9205
:101900007F928F929F92AF92BF92CF92DF92EF928F
:10191000FF920F931F93CF93DF93E0914903F091D0
:101920004A03309741F1A281B381109721F18F3F93
:10193000910599F197FD9FC0ED012197C817D9072F
:1019400010F48FEF8A0F77247394780E28C020E06C
:101950002EC040E034C060E03AC0880F991F880F65
:10196000991FE80EF91EC701810F911DEC01188225
:101970006CC0CF01D1D9DF91CF911F910F91FF9012
:10198000EF90DF90CF90BF90AF909F908F907F901F
:101990006F905F903F902F9008957A2E80E037FDF2
:1019A000D6CF2F3F310519F014F02FEF30E057FD5F
:1019B000D0CF4F3F510519F014F04FEF50E077FDB5
:1019C000CACF6F3F710519F014F06FEF70E0822EEF
:1019D000912CB12CA12C942AA62AA5016627772741
:1019E000542E292DBA01482F50E0DA01312C212C38
:1019F000682CA71508F0BDCF82819381A817B9077D
:101A0000A8F5C62C8085D22E352D882371F0869FAF
:101A10008001879F100D1124312F829F8001112496
:101A2000D12E889DC0011124C92E1685E184F2842F
:101A30000385CA01820D931D10138FCF8C01000FF7
:101A4000111F800F911FE80EF91E83858E0D9F2DAB
:101A5000911DEC01388384858E0D9F2D911DEC0125
:101A6000D8828585E80EF11CE701C8828FEF281A1D
:101A7000380A1196BECF80E066CFCF93C82F8091F1
:101A8000040191E090936F0480939104109270048C
:101A90001092920490E080E02EDE6C2F80E395E0BF
:101AA000FBDDCEDCCF910895CF93C82F862F806BBE
:101AB000E4DF8C2F8F70E1DF8C2F82958F70806137
:101AC000DCDFCF910895A3E0B0E0E9E6FDE00C94FF
:101AD000AA376C01142F80914B03882309F4CFC0DF
:101AE00090910501603108F06FE0092F000F000FA1
:101AF000609F002D1124923009F05EC0143008F070
:101B000013E0110F612F802FCFDF612C54E0E52E01
:101B10006AE0462E70E1372E5E0184E0A80EB11C0B
:101B2000662D70E0F601848195816817790708F0C9
:101B3000A6C0C6010E94D60219821A821B8290EDAD
:101B4000980F9A3008F03DC0082E000C990BC097F2
:101B50009C01220F331F820F931FDE01119630E08C
:101B600020E088579E4FFC01E20FF31FE491ED93B4
:101B70002F5F3F4F23303105B1F750900401809122
:101B800005018130A1F580936F0450929104109269
:101B900070041092920480E490E0ADDD43E050E0E8
:101BA000BE016F5F7F4F80E395E050DD90E080E005
:101BB000A2DD46DC6394B4CF183008F4A3CF17E05D
:101BC000A1CF8D3221F4EB82EA82E982D6CF8E3228
:101BD00011F43A82D2CF8A3311F44A82CECF8532C1
:101BE00061F6F9E1F983EA8283E18B83C6CF712C38
:101BF00022242394612F670D802F56DF20926F04DB
:101C000050929104109270041092920480E490E03B
:101C100072DDFE0131964F01F40181914F01711087
:101C200028C08F70F4E08F9F90011124822B837362
:101C3000F82EFF0C8F298575F82EFF0CF82A6F2DD2
:101C400080E395E029DD6F2D80E395E025DDA81484
:101C5000B90411F790E080E04EDD90E080E04BDDCC
:101C6000EFDB81E0781202C0085FA4CF7724739481
:101C7000C1CFF12C84FFE3CF83E0F82EE0CF239691
:101C8000E2E10C94C6370F931F93CF93DF938091BB
:101C90004B03882311F1C0E001E06C2F80E004DFEA
:101CA000D8E08091040100936F0480939104109216
:101CB00070041092920480E490E01DDD10E190E049
:101CC00080E019DD1150D9F7BBDBD15051F7CF5F60
:101CD000C83019F760E080E0E7DEDF91CF911F9117
:101CE0000F910895CF93DF9380930401623009F040
:101CF00061E0609305016EDBCFE6D1E0FE018491E7
:101D0000BCDE2196F1E0C838DF07C1F781E080939F
:101D10004B03B9DFDF91CF910895AAE0B0E0E3E98A
:101D2000FEE00C94B8370091700210917102011519
:101D3000110581F11E821D829EE799839FEF9A8390
:101D400096E09B839FEE9A878C83272F30E07E83DB
:101D50006F8390E08B5F9E4F820F931F860F911DC4
:101D600091958195910998878987C801B7D9D8013C
:101D7000ED91FC910280F381E02D4AE050E0BE013C
:101D80006F5F7F4FC801099568E770E080E090E0E1
:101D90000E94A6022A96E4E00C94D437CF93C0E0C8
:101DA00080917202C81758F4EC2FF0E0E85FFE4F04
:101DB00070E060E080810E941302CF5FF1CF8091DC
:101DC0000D0187FF0E94E8028091700290917102DC
:101DD000892B21F070E060E086E19FDFCF910895CC
:101DE000CF92DF92EF92FF921F93CF93DF93E0E0C9
:101DF000F1E0DF01D0E0C0E0482F50E02D91022E4D
:101E0000000C330B2417350781F4CE01880F991F7E
:101E1000C80FD91FCF59DA4FCE01DF91CF911F9153
:101E2000FF90EF90DF90CF9008952196C430D105B8
:101E300029F7F12CE12C919197FF63C0F701E05055
:101E4000FF4F80836701CC0CDD1CE601CE0DDF1D4A
:101E5000CF59DA4F98819C30F8F6182F61E00E9434
:101E6000D7018881282F30E0F901EE0FFF1FE20F24
:101E7000F31FE45CFA4F1F739081907C192B108341
:101E800019821A822CE0622F0E94F638829FB001DC
:101E9000112430E020E0AB01420F531FFA01EE0F96
:101EA000FF1FE40FF51FE45CFA4F908196FD16C00A
:101EB0002F5F3F4F2C30310571F781110FC0109209
:101EC000800082E08093810010928500109284004F
:101ED000B19A80916F00826080936F00F601EE0DE1
:101EE000FF1DEF59FA4FE0818E2F90E0FC01EE0FBD
:101EF000FF1FE80FF91FE45CFA4F80818064808344
:101F00008BCF9FEFE91AF90A94E0E916F10409F082
:101F100092CFD0E0C0E080CFE0917202A8E0B1E0C3
:101F200090E0E91729F02D91281761F09F5FF9CF14
:101F3000E43040F491E09E0F90937202F0E0E85F8D
:101F4000FE4F80830895EF92FF920F931F93CF93DC
:101F5000DF93082F162F7A01EA014F3F510519F040
:101F600014F0CFEFD0E0C1308FEFD80714F4C1E008
:101F7000DFEF802FD1DF812FCFDF61E0802F0E9444
:101F8000D70161E0812F0E94D701BE01802F1E146E
:101F90001F049CF070E060E0E114F10471F00E9415
:101FA0001302662777276C1B7D0B812F0E9413027B
:101FB000CDB7DEB7E6E00C94D2370E94130270E092
:101FC00060E0F3CFA8E0B0E0E8EEFFE00C94B837B3
:101FD00018861F8295E599839AEA9A8391E19B83FB
:101FE00092E09C838D836E837F83FE0131969E01F8
:101FF000285F3F4F8F0191918885890F8887E2176D
:10200000F307C9F7E7D981E080936F0482E38093F7
:102010009104109270041092920448E050E0B801CC
:1020200080E395E013DB0CDA2896E4E00C94D437D7
:102030000F931F93CF93DF93D82FC62F61E00E9499
:10204000D70160E08D2F0E94AA018BE594E00197F3
:10205000F1F78C2FC63008F085E0825F0E946C0299
:102060008C018BE990E00197F1F761E08D2F0E94E0
:10207000AA018BE397E90197F1F7C801DF91CF91AE
:102080001F910F910895DC0114968D919C911597E5
:102090006817790750F4ED91FC911197E60FF71F3F
:1020A00015967C936E93149710820895CF93807F3A
:1020B000C82FC62B8C2F10DC8C2F84600DDC8C2F4E
:1020C0000BDC83EC90E00197F1F7CF910895CF936B
:1020D000DF93C82FD62FEADF6D2F8C2F8295807F5C
:1020E000E5DFDF91CF9108951F93CF93DF93209188
:1020F0004C03222381F0EC0110E0612F70E08C8111
:102100009D816817790738F4CE010E94D60261E0FC
:10211000DEDF1F5FF2CFDF91CF911F910895909185
:102120000701891710F08FEF890F643008F063E022
:10213000E62FF0E0EC5EFE4F9081890F60E0806852
:10214000C6CF089580914C03882339F060E081E088
:10215000BEDF8BE39FE10197F1F708951F93CF93C3
:10216000DF93142F809306016093070133D962E354
:1021700070E080E090E00E94A60260E080E396DFDD
:10218000CBE4D6E4CE010197F1F760E080E38EDF87
:102190002197F1F760E080E389DF83E592E0019722
:1021A000F1F760E080E282DF80E2123008F088E23E
:1021B00060E08DDF60E08CE08ADF60E086E087DF52
:1021C00081E080934C03BEDFDF91CF911F91089592
:1021D000A0E1B0E0EEEEF0E10C94AA37882E962E46
:1021E000C72E93E0E92EDD24D39477247A942FE050
:1021F000622E6AE070E080E090E00E94A6020E94F9
:1022000081021B012C0180916904811162C0D0926E
:102210006904D09268047092670410926604609218
:102220006504D092440480914404846680934404FD
:1022300080914304813009F084C0109243040E94CD
:1022400081021B012C01809144048093BB0080918A
:102250006B0490916C04A0916D04B0916E04892B75
:102260008A2B8B2BA1F00E94810200916B041091AC
:102270006C0420916D0430916E0462197309840915
:102280009509061717072807390708F443C08091F6
:10229000BC0083FDD8CF85EC8093BC000E948102F6
:1022A0001B012C0180916904813009F44EC080919A
:1022B0006604803108F06BC0F0906604A5E4B4E0D9
:1022C000EEE8F2E080E08F1549F19D9191938F5FE8
:1022D000FACF80916B0490916C04A0916D04B09141
:1022E0006E04892B8A2B8B2B09F48DCF0E948102DF
:1022F00000916B0410916C0420916D0430916E0478
:102300006219730984099509061717072807390701
:1023100008F079CF80916A0473D8F12C10924204AE
:10232000F09241048E010F5F1F4F58018A2D801BD0
:102330008F1580F580E395E06FD9F50181935F01FA
:10234000F5CFA5EEA093BC00A9CF80916B0490912E
:102350006C04A0916D04B0916E04892B8A2B8B2B99
:1023600009F4A0CF0E94810200916B0410916C04CB
:1023700020916D0430916E046219730984099509E6
:10238000061717072807390708F08CCFC3CF80E15D
:10239000F82E94CFF0E1FF1203C08D81881529F04B
:1023A000EA94E11026CF80E016C0E92DFC2D9801BB
:1023B000265F3F4FD80116968C91169715969C91E3
:1023C000892798278927819391930E5F1F4F2017A4
:1023D000310781F781E06096E2E10C94C637CF9235
:1023E000DF92EF92FF921F93CF93DF93CDB7DEB7CB
:1023F0002A970FB6F894DEBF0FBECDBF6C01162F23
:102400007A01BC0187E2DEDDBE016F5F7F4F89E2AA
:10241000DFDE81110FC080E02A960FB6F894DEBF90
:102420000FBECDBFDF91CF911F91FF90EF90DF9056
:10243000CF90089589819A811816190664F7BE0114
:102440006F5F7F4F8AE2C4DE882329F329853A85AE
:102450002C153D0501F721E030E0112379F0212F03
:102460002150330BB901660F771FE1E0F0E0EC0F6C
:10247000FD1F6E0F7F1FFB0120813181F70131832A
:102480002083CACFFC014481558170E060E08185E2
:1024900092850C94EC3A0895B0E0A0E0E2E5F2E118
:1024A0000C94B437EC016B01F42EE52E19821886DA
:1024B0001F86188A198A1A8A81E08E878B871C8664
:1024C00092E09D8788838B01000F111F060F171F55
:1024D0001D830C83C8010E9408399A878987009759
:1024E00069F1A80170E060E00E94EC3ADB82CA82E8
:1024F000FE82EF828981882341F061E08F2D0E9466
:10250000D70160E08F2D0E94AA018F2D9E2DFC0126
:10251000EB5BFD4FE491F0E0EE0FFF1FE55CFD4F3C
:10252000259134913C8B2B8BFC01E95DFD4FE491AF
:10253000ED8BCDB7DEB7E8E00C94D0371D821C825E
:102540001B821A82D5CF0F931F93CF93DF938C01F9
:10255000EB01FC01808191810097E1F06881798134
:1025600061157105A9F0428153812C813D8142178B
:10257000530770F00E94FC3A8C819D81F80195838D
:1025800084831D821C82DF91CF911F910F9108954A
:102590000E94A43988819981F801918380838A817E
:1025A0009B81938382838C819D819583848319820F
:1025B00018821B821A82E5CFB0E0A0E0E2EEF2E1E1
:1025C0000C94B437EC018B01FB01C190D190E190E8
:1025D000F190BF01FC01C192D192E192F192CF0141
:1025E0006E177F0709F0AFDFF80182858A87CE0179
:1025F000CDB7DEB7E8E00C94D037CF93DF93EC0192
:1026000088819981009711F00E94A439198218825B
:102610001D821C821B821A82DF91CF910895FC01DA
:1026200080819181009711F00C94A43908950F9343
:102630001F93CF93DF93861306C080E0DF91CF9185
:102640001F910F910895062F182FC0917002D091FD
:102650007102209731F0CE010E945608CE010E94EF
:10266000A4398FE190E00E940839EC011B821A82A4
:1026700088EE93E0A0E0B0E08C839D83AE83BF83BF
:102680008CE191E0998388831F8A1E8A198E188EA7
:102690001B8E1A8E1D8E1C8E8E8D8E7F8D7F8E8F43
:1026A000602FCE010E942F08612FCE010E940808E2
:1026B000D0937102C0937002209709F4BECF40E816
:1026C00055E260E070E0CE010E949F08CE010E94BA
:1026D0006E0864E670E080E090E00E94A60270E080
:1026E00060E08CE01ADB68E978E080E090E00E942E
:1026F000A60262E070E089E010DB6CE271E080E04D
:1027000090E00E94A60281E099CF0F931F93762F4D
:1027100089019A0190E0FC01E95DFD4F6491FC01A3
:10272000EB5BFD4FE4917111762FF0E0EE0FFF1F90
:10273000E35EFD4F85919491472F0E94C129611559
:1027400071058105910529F06F5F7F4F8F4F9F4F76
:102750009F701F910F910895A5E0B0E0E2EBF3E1C7
:102760000C94B237182F062FF42ECE0101966C016F
:1027700085E0F60111928A95E9F761E0812F0E94C8
:10278000D70160E0812F0E94AA0164E170E080E03F
:1027900090E0063121F462E070E080E090E00E9479
:1027A000A60261E0812F0E94AA0183E790E00197D1
:1027B000F1F762E0812F0E94D70128EE33E040E07C
:1027C00050E060E0812FA1DF672B682B692B41F47B
:1027D00060E070EC89E794EC2596EAE00C94CE3743
:1027E00028EE33E040E050E061E0812F8EDF672B80
:1027F000682B692B69F3B12CA12C28EE33E040E063
:1028000050E060E0812F81DF672B682B692B01F39B
:1028100028EE33E040E050E061E0812F76DF611583
:10282000710581059105A1F2F50123E0F595E79584
:102830002A95E1F7EC0DFD1D2081220F693271050B
:102840008105910508F03EC02083FFEFAF1ABF0A53
:1028500088E2A816B10489F6B9806A811B819C813F
:102860008B2D860F810F890F2D818213B1CF0631F9
:1028700069F582E090E0FF2011F090E080E08C0D9F
:102880009D1DFC01008110E0102F0027E3E0F0E027
:10289000FF2011F0E1E0F0E0EC0DFD1D8081082B40
:1028A000B8017F7790E080E00E9422362DEC3CEC6E
:1028B0004CEC5DE30E948336F1108ECF17FF8CCF76
:1028C00090588ACF822F81608083BFCFFF20D1F0C4
:1028D00070E090E080E00E9424362DEC3CEC4CEC63
:1028E0005DE30E9483366B017C016B2D70E090E00C
:1028F00080E00E9424369B01AC01C701B6010E9412
:10290000F1376ACF692F70E090E080E00E942436B2
:102910002DEC3CEC4CEC5DE30E9483366B017C01BA
:10292000612FE4CFCF93DF93C82FD62F61E00E94B1
:10293000D70160E08D2F0E94D70160E08C2F0E94AC
:10294000AA0183E090E00197F1F761E08C2F0E94EB
:10295000AA0183E290E00197F1F760E08C2F0E94DA
:10296000AA0120E335E740E050E061E08D2FCDDEA5
:1029700020E030E0A901611571058105910531F074
:102980002AE330E040E050E00E945C37CA01B90120
:10299000DF91CF910895FC0124813581FB014481B1
:1029A000558124173507A0F0FC01808191810097A3
:1029B00079F0FB01608171816115710549F0241B7B
:1029C000350B820F931F0E94F33A21E0892B09F007
:1029D00020E0822F0895CF93DF93EC01A881B98185
:1029E000EB01E881F9811097E9F03097B1F4EC013F
:1029F0008C819D81892BC1F08C9190E00BC0DB0113
:102A000014968D919C91892B79F0808190E091951D
:102A100081959109DF91CF910895BF01CD010E9469
:102A2000F33AF8CF309759F790E080E0F3CFFB010D
:102A300001900020E9F73197AF01461B570BDC01ED
:102A4000ED91FC910280F381E02D099508958F921C
:102A50009F92AF92BF920F931F93CF93DF93CDB707
:102A6000DEB7A1970FB6F894DEBF0FBECDBF19A297
:102A7000423008F44AE08E010F5D1F4F842E912CE6
:102A8000B12CA12CA50194010E945C37E62FB9015D
:102A9000CA01EA30FCF4E05DD801EE938D01232BEE
:102AA000242B252B79F790E080E0109721F0BD01D1
:102AB00083E994E0BCDFA1960FB6F894DEBF0FBEA9
:102AC000CDBFDF91CF911F910F91BF90AF909F909D
:102AD0008F900895E95CE0CFCF93DF93BC0183E949
:102AE00094E00E946805EC016EE471E083E994E0F3
:102AF0009EDF8C0F9D1FDF91CF9108950F931F9341
:102B0000CF93DF93EC010E9459058C016EE471E0D4
:102B1000CE018DDF800F911FDF91CF911F910F911B
:102B200008958F929F92AF92BF92CF92DF92EF92D1
:102B3000FF925C016A017B016CE671E083E994E03D
:102B40000E946805A114B10421F0B50183E994E065
:102B50006EDF8CE20E946806A7019601C701B601EC
:102B60000E94F23861E571E081111AC046015701F7
:102B7000E894B7F82FEF3FEF4FE75FE7C501B401E7
:102B80000E94F23881111DC02FEF3FEF4FE75FE742
:102B9000C501B4010E941E3618169CF465E571E06B
:102BA00083E994E044DF6EE471E083E994E03FDF81
:102BB000FF90EF90DF90CF90BF90AF909F908F905D
:102BC00008952FEF3FEF4FE75FE4C701B6010E9482
:102BD000EE3818161CF469E571E0E2CF2FEF3FEFF5
:102BE0004FE75FECC701B6010E941E3687FDF3CFA9
:102BF00020E030E0A901C701B6010E941E3687FF20
:102C000007C08DE20E946806F7FAF094F7F8F09496
:102C10002AE037ED43EA5BE3C701B6010E94F137D2
:102C20004B015C010E94C2386B017C010E9422367C
:102C30009B01AC01C501B4010E94F0374B015C015E
:102C40004AE0C701B60103DF8EE20E94680620E079
:102C500030E040E251E4C501B4010E9483364B01EB
:102C60005C010E94C2386B01F12CE12C4AE0C701E3
:102C7000B601EDDEC701B6010E9422369B01AC0110
:102C8000C501B4010E94F03720E030E040E251E499
:102C90000E9483360E94C23890E080E04AE0D7DE8E
:102CA00082CF62E671E083E994E00E9468056DE5F9
:102CB00071E083E994E0BBDE6EE471E083E994E0C7
:102CC000B6CE08950F931F93CF93DF93EC018881C5
:102CD0009981009759F02A813B812617370730F0F8
:102CE00081E0DF91CF911F910F9108958B016F5F6C
:102CF0007F4F0E942D3A009759F0998388831B8358
:102D00000A832C813D81232B59F7FC011082E8CFE7
:102D100080E0E7CFA2E0B0E0E0E9F6E10C94B6375E
:102D20008C0169831A82FC01E480F580FFEFEF1AC1
:102D3000FF0AB701C7DF882381F0F80120813181C4
:102D400084819581BE016F5F7F4F820F931F0E9428
:102D5000FC3AF801F582E48281E02296E6E00C94E8
:102D6000D237EF92FF920F931F93CF93DF93EC0133
:102D70007B018A01BA01A6DF811108C0CE013DDCCA
:102D8000CE01CDB7DEB7E6E00C94D2371D830C83BD
:102D9000B701888199810E94FC3AF2CFCF93DF93EB
:102DA000EC016115710569F0FB0101900020E9F764
:102DB0003197AF01461B570BD4DFCE01DF91CF9186
:102DC00008951BDCFACFCF93DF93EC01FB0186174C
:102DD000970741F0608171816115710539F0448177
:102DE0005581BFDFCE01DF91CF91089506DCFACF88
:102DF0000F931F93CF93DF93EC018B01FB01819124
:102E00009191A191B191BF0188839983AA83BB83DA
:102E10001D821C821F821E8219861886CE0104968E
:102E2000D2DFF80182858A87DF91CF911F910F91C0
:102E30000895FC011182108213821282158214827D
:102E4000FB0101900020E9F73197AF01461B570BBA
:102E500088CF0895CF92DF92EF92FF92CF93DF93C6
:102E6000EC0160E571E0E5DF8091190490911A04AE
:102E7000009709F441C00E946E088FB7F894C09083
:102E80001104D0901204E0901304F09014048FBF4A
:102E90002FB7F8948091110490911204A09113041B
:102EA000B09114042FBF8C199D09AE09BF0980355C
:102EB0009105A105B10500F58091190490911A04BE
:102EC000DC01ED91FC910084F185E02D0995892BC1
:102ED000F9F28091190490911A04DC01ED91FC91B2
:102EE0000284F385E02D09958D3011F08A3061F46C
:102EF0008C819D81892B01F3CE01DF91CF91FF90D1
:102F0000EF90DF90CF900895682FCE0103DFD4CFEC
:102F100060E571E004968DCF0895A3E0B0E0E3E9A9
:102F2000F7E10C94B2376C018B0160E571E081DF51
:102F30000115110549F1F80101900020E9F73197D9
:102F40005F01A01AB10AB50176956795C601BADE90
:102F5000EE24E394F12CEA14FB04B0F41B82F80194
:102F60008081898381818A8340E150E070E060E064
:102F7000CE0101960E946B32C601CCDEF2E0EF0E6C
:102F8000F11C0E5F1F4FE7CFC6012396EAE00C94B9
:102F9000CE3785ED8093BC0080916B0490916C04DA
:102FA000A0916D04B0916E040796A11DB11D23E0A0
:102FB000B695A795979587952A95D1F72091BC004E
:102FC00024FD03C010926904089540916B04509150
:102FD0006C0460916D0470916E04452B462B472B59
:102FE00069F30097A105B10541F02AE22A95F1F7AE
:102FF00000C00197A109B109E1CF80916A040C9446
:10300000000A08951F93CF93DF93EC01162F0E94BF
:103010003737181721F0612FCE010E943F37DF911B
:10302000CF911F9108950C9437370895B0E0A0E038
:10303000ECE1F8E10C94B23710925A0383E090E08F
:10304000F2DFC82F84E090E0EEDFD82FD0934E035C
:10305000C0934D0385E090E0E6DF082F86E090E026
:10306000E2DF182F10938C0200938B0287E090E030
:10307000DADFA82E88E090E0D6DFB82E90E080E07E
:10308000D2DF8F3409F044C081E090E0CCDF8D3492
:1030900009F03EC082E090E0C6DF8130C9F5CE0184
:1030A0000197873F9340A0F5C017D10788F1D12C35
:1030B000C12CF12CE12CC7010996B5DFC80ED11C3B
:1030C0008FEFE81AF80ACE15DF05A9F7AC14BD0496
:1030D000F9F4EBE1F4E080E2DF011D928A95E9F773
:1030E00010924803109256031092570310925803FF
:1030F0001092590381E00115110509F080E08093D9
:103100008D0210923C0410923B0481E080935A039C
:10311000CDB7DEB7EAE00C94CE3720914D03309165
:103120004E038217930718F409967DCF089580E027
:103130000895A9E3B0E0EFE9F8E10C94AC377C0125
:10314000FB018285882381F0F701118210821382AE
:103150001282158214826C5F7F4FC70134DEC70173
:10316000E996E0E10C94C83780809180A280B3801A
:1031700020E030E0A901C501B4010E94EE3820E052
:1031800030E040E05FE387FD38C0C501B4010E9434
:10319000F1370E94BD380E9424362B013C01AC015E
:1031A0009B01C501B4010E94F0379F772FE632E101
:1031B00043E85AE30E941E369E012F5F3F4F69018C
:1031C00087FF20C0F70111821082138212821582BC
:1031D0001482C301B2010E94BD382AE0A6010E94F8
:1031E000A033F60101900020E9F73197AF014C19A7
:1031F0005D09B601C701B5DDB2CFC501B4010E94BA
:10320000F037C7CF1DAA1CAA1FAA1EAA19AE18AE56
:10321000890122E044E0C501B4010E944E32BC01A4
:10322000CE01C496BBDD63E671E0C60102DEB601E5
:10323000CE01C496B0DBB82EC601F1D9BB2049F04F
:1032400068AD79AD61507109CE01C4960E944310FA
:10325000EACF65E671E0C601ECDDB601CE01C496A9
:103260009ADBB82EC601DBD9BB2041F068AD79AD41
:1032700061507109CE01C4960E944310F70111827A
:1032800010821382128215821482BE016C5C7F4F01
:10329000C70159D9CE01C496C2D961CFA7EAB0E01F
:1032A000E4E5F9E10C94AA371C0180913B0490916C
:1032B0003C048C010F5F1F4F10933C0400933B04B0
:1032C0002CDF9801280F311DC556DF4F3983288325
:1032D000CB59D040CE0101967C018E01075A1F4F79
:1032E0006C01C70115DE9BE0E90EF11CE016F1064A
:1032F000C1F7F12CA4E6B0E0AC0FBD1F1496C05688
:10330000DF4FB983A883C05AD040EFE6F0E0EC0F5E
:10331000FD1F3496CC55DF4FF983E883C45AD04063
:103320002AE730E02C0F3D1F2C5F3F4FCA55DF4F7F
:1033300039832883C65AD040A0903B04B0903C0407
:10334000C556DF4F88819981CB59D040A816B90660
:1033500008F095C645019FEF891A990A90923C049E
:1033600080923B04C501D9DEE82EA1E08A1328C073
:10337000B7E0BF1508F348015801E4E0AE0EB11CF8
:1033800080913B0490913C049C012F5F3F4F309310
:103390003C0420933B04C1DED4018D934D01AA1659
:1033A000BB0671F7F80180809180A280B380C801CC
:1033B000AFDDD8018D929D92AD92BC921397C0C0A3
:1033C000E2E08E135AC0F2E0AF0EB11CB0923C04A2
:1033D000A0923B04C401A1DEE82E60E571E0CE01BD
:1033E0008C599F4F26DD6E2D70E0CE018C599F4F7A
:1033F00069DCEE20E1F080913B0490913C04EA947A
:10340000C556DF4F28813981CB59D04082179307A9
:1034100070F49C012F5F3F4F30933C0420933B049A
:103420007CDE682FCE018C599F4F74DCE2CF37E0F1
:103430003F15F0F0C8016CDDD8011D921D921D9260
:103440001D925D01BE016C597F4FCD01BCDC81E056
:10345000F8018287EE24E394EF0CB801C601FBE08B
:10346000FF9E800D911D1124A7D8C501D8D8FE2C30
:10347000CE018C599F4FD3D85FCF23E0821332C047
:1034800032E0A30EB11CB0923C04A0923B04C401F4
:1034900044DE97E09F1508F44FCF883008F031C123
:1034A000A4E08A9FF0011124E55EFB4F80809180AB
:1034B000A280B380C8012CDDF80180829182A282B3
:1034C000B3821286EE24E394EF0CB801C601FBE050
:1034D000FF9E800D911D11246FD8C80104969FD8BE
:1034E000FE2C2ACF24E0821338C032E0A30EB11C98
:1034F000B0923C04A0923B04C4010FDE97E09F15FC
:1035000008F41ACF90E0B0E0A0E086309105A10564
:10351000B10524F085E090E0A0E0B0E0825F0E9479
:103520006C025C01C801F4DCB501BB0C880B990B83
:103530000E942436D8016D937D938D939C931397AD
:103540001A961C92EE24E394EF0CB801C601BBE07E
:10355000FB9E800D911D1124BFCFE5E08E1315C099
:10356000F2E0AF0EB11CB0923C04A0923B04C40147
:10357000D4DDE82E60E00E94D70127E02F1508F483
:10358000DBCE8E2D0E948201CCCFE6E08E1321C0CF
:10359000F2E0AF0EB11CB0923C04A0923B04C40117
:1035A000BCDDE82E60E00E94D70127E02F1508F46B
:1035B000C3CE8E2D0E948201812C912CB0E8AB2EBF
:1035C000BFE3BB2E019709F4F2CE812C912C54015C
:1035D000EECEE7E08E1322C03501F2E06F0E711CD3
:1035E00070923C0460923B04C40197DDE82E23E016
:1035F000A20EB11CB0923C04A0923B04C3018DDD2D
:1036000037E03F1508F498CE682F8E2D8BD94B01EB
:103610005C01C8017DDCC501B4018ACFE8E08E13EE
:103620002DC03501F2E06F0E711C70923C04609267
:103630003B04C40172DDE82E450123E0820E911C9B
:1036400090923C0480923B04C30167DD782E34E005
:10365000A30EB11CB0923C04A0923B04C4015DDDFA
:1036600097E09F1508F468CE41E0811101C040E069
:10367000672D8E2D71D84B015C0199CEE9E08E1338
:103680001DC03501F2E06F0E711C70923C04609217
:103690003B04C40142DDE82E23E0A20EB11CB0922F
:1036A0003C04A0923B04C30138DD37E03F1508F429
:1036B00043CE682F8E2D0E94181033CFEAE08E1370
:1036C00024C0A0901904B0901A04A114B10409F404
:1036D00008C5C5010E946E08F7E0FF1508F42CCE5E
:1036E000D501ED91FC910084F185E02DC50109958E
:1036F000812C912CA0E8AA2EAFE3BA2E892B09F0D9
:10370000D9CE812C912C5401D5CE2BE082132DC023
:1037100037E03F1508F410CECE018C599F4F9ADB4D
:10372000C801F6DBD8011D921D921D921D925D010C
:10373000BE016C597F4FCD0146DB81E0F8018287E5
:10374000992493949F0CB801C601FE9C800D911D95
:1037500011240E94DC12C5010E940F13CE018C5966
:103760009F4F0E940F13F92CE7CDF4EF7F2E780EB8
:10377000F4E0F71508F449C0FF2009F4DDCDC601D7
:103780002BE0F29E800D911D1124DC011B975D0141
:10379000CD010E94DF0B0E94BD384B0177FD32C086
:1037A000C5010E94DF0BA6961FAE1EAEA697BCE019
:1037B000EB1201C0712CAE014C595F4F672DC40153
:1037C0000E94EF11412C512C3201882361F0A69602
:1037D0006EAD7FADA697072E000C880B990B0E944B
:1037E00024362B013C01C80193DBF8014082518251
:1037F000628273821286B801C5010E94DC12C80180
:10380000049639CE912C812CCECFFAE28F1320C0B2
:10381000FF2009F491CDC6012BE0F29E800D911D91
:103820001124DC011B975D01CD010E94C20BE82E23
:10383000C8016EDB61E0E6266E2D70E090E080E06E
:103840000E942236F8016083718382839383D2CFF2
:10385000F1E0FF1508F070CD2FEF2F0DC356DF4FAD
:103860002883CD59D040EBE0BE2EB6012B9D600DD4
:10387000711D1124CE0186589F4FBADAFA94FA943A
:103880008F2D90E0CE55DF4F99838883C25AD04068
:10389000FB9CD0011124C256DF4FB983A883CE59B7
:1038A000D040BD016C0D7D1DCE0181599F4FA0DA26
:1038B000CE018C599F4F2CDBA8961CAE1DAE1EAEC0
:1038C0001FAEA897AF961FAEAF97CE0181599F4FFD
:1038D0000E94DF0B4B015C01CE0186589F4F0E9476
:1038E000DF0B2B013C01ECEEEE0DE93108F003C1DA
:1038F000F0E0E358F34E0C940239961CA71CC41C4C
:10390000CB1CDB1C7B1D7B1D7B1D7B1D7B1D231DA1
:10391000E21D451E541E631E6F1E7B1D7B1D7B1DFD
:103920007B1D7B1E981E7B1DB41E441FAC019B019A
:10393000C501B4010E94F1374B015C01C801E8DA0E
:10394000F80180829182A282B382128612C0AC01F9
:103950009B01C501B4010E94F0374B015C01C80115
:10396000D7DAD8018D929D92AD92BC9213971A9698
:103970001C92B801CE018C599F4F0E94DC12C801E5
:1039800004960E940F13B7C0AC019B01C501B4019E
:103990000E948336D1CF2CEA35EC47E257E39F777C
:1039A0000E941E3687FD97C1A3019201C501B40193
:1039B0000E945538D2CF0E94BD382B013C0180E0D7
:1039C00090E0A0E8BFE3C956DF4F88839983AA83BC
:1039D000BB83C759D04014141504160417041CF5F2
:1039E00040FE14C0A5019401C956DF4F688179815A
:1039F0008A819B81C759D0400E948336C956DF4FC8
:103A0000688379838A839B83C759D040A501940139
:103A1000C501B4010E9483364B015C017594679423
:103A200057944794D8CFC80173DAC956DF4F8881BD
:103A30009981AA81BB81C759D040F80180839183C5
:103A4000A283B38382CFEA968FADEA97811108C033
:103A5000CC57DF4FE880C458D040EE2009F499C01D
:103A6000BE0166587F4FCE018B579F4F62DBBE0170
:103A700061597F4FCE0185579F4F5BDBC157DF4FA9
:103A800028813981CF58D040C757DF4F888199812D
:103A9000C958D0402817390759F4BE016B577F4FDA
:103AA000CE0185579F4F0E94EB1461E0892B09F0EE
:103AB00060E070E090E080E00E9424364B015C0101
:103AC000EE24E394C80124DAD8018D929D92AD9240
:103AD000BC9213971A961C92B801CE018C599F4F35
:103AE0000E94DC12C80104960E940F13CE01855774
:103AF0009F4FE110BDC1F7E0FF15A0F18BE0CE555F
:103B0000DF4F28813981C25AD040829F7001839F44
:103B1000F00C1124EC0CFD1CA8968CAD9DADAEAD47
:103B2000BFADA897F70180839183A283B383C25668
:103B3000DF4F88819981CE59D0400496C056DF4F1F
:103B400068817981C05AD0408C0D9D1D3CD9AF96BB
:103B50008FADAF97D7011A968C93C356DF4FF8807D
:103B6000CD59D040C056DF4F88819981C05AD0408E
:103B70000E940F13CC55DF4F88819981C45AD040E1
:103B80000E940F13CA55DF4F88819981C65AD040D1
:103B900072CCA3019201C501B4010E94F0379F7756
:103BA0002CEA35EC47E257E30E941E36812C912C1B
:103BB00060E8A62E6FE3B62E87FD84CF812C912C72
:103BC000540180CFEA968FADEA97811108C0CC5797
:103BD000DF4FE880C458D040EE2009F43DC0BE015C
:103BE00066587F4FCE018B579F4FA3DABE016159B4
:103BF0007F4FCE0185579F4F9CDAC157DF4F2881F9
:103C00003981CF58D040C757DF4F88819981C95833
:103C1000D0402817390759F4BE016B577F4FCE01AA
:103C200085579F4F0E94EB1461E0892B09F060E0FB
:103C300081E0682770E090E080E00E9424364B012C
:103C40005C01EE24E394C80163D9F801808291827B
:103C5000A282B382128640CFA3019201C501B401B2
:103C60000E94F0379F772CEA35EC47E257E30E9439
:103C7000EE38812C912C50E8A52E5FE3B52E87FFFE
:103C8000E2CF812C912C5401DECFAC019B01C50108
:103C9000B4010E941E3687FF1EC0812C912C40E883
:103CA000A42E4FE3B42E5BCEAC019B01C501B40141
:103CB0000E941E361816DCF0812C912C30E8A32EC1
:103CC0003FE3B32E3BCEAC019B01C501B4010E9482
:103CD000EE38181614F3812C912C540140CEAC010F
:103CE0009B01C501B4010E94EE3887FFE5CF812C0E
:103CF000912C540123CECE0181599F4F0E94C20BBB
:103D0000E82E882331F0CE0186589F4F0E94C20BC7
:103D1000E82EC801FDD86E2D70E090E080E00E9492
:103D20002236D8016D937D938D939C9313971FCE6C
:103D3000CE0181599F4F0E94C20BE82E811106C00F
:103D4000CE0186589F4F0E94C20BE82EC801E0D8D2
:103D50006E2D70E090E080E00E942236F8016083D2
:103D6000718382839383F1CDBE0166587F4FCE016C
:103D70008B579F4FDED9BE0161597F4FCE018F56C1
:103D80009F4FD7D9C557DF4F19821882CB58D040E3
:103D9000C357DF4F19821882CD58D040C157DF4F2B
:103DA00019821882CF58D040BE016F567F4FCE0186
:103DB00085579F4F08D8CB57DF4F88809980C558CB
:103DC000D0408114910409F459C0C757DF4FA8802F
:103DD000B980C958D040A114B10441F1C157DF4F97
:103DE00088819981CF58D040A80EB91EB501CE0167
:103DF00085579F4F0E946216882309F43FC0C5571C
:103E0000DF4F28813981CB58D040C157DF4F88819F
:103E10009981CF58D040B401820F931F0E94FC3A81
:103E2000C157DF4FB982A882CF58D040C80170D89F
:103E3000D8011D921D921D921D925D01BE01655714
:103E40007F4FCD010E94E31681E0F8018287B8011F
:103E5000CE018C599F4F0E94DC12C5010E940F13A6
:103E6000CE0185579F4F0E940F13CE018F569F4F53
:103E70000E940F13CE018B579F4F83CDCE018557E4
:103E80009F4F0E94FD12D2CFC501B4010E94BD38E0
:103E90005B01613471051CF020E4A22EB12C1A14D0
:103EA0001B041CF0AA24A394B12CC301B2010E94EC
:103EB000BD384B01A616B7060CF4450118141904B9
:103EC0001CF088248394912CCE018F569F4F0E9422
:103ED0002A17CB56DF4F68807980C559D040A61489
:103EE000B7040CF4350160E571E0C8010E941917B0
:103EF000CB56DF4F88819981C559D040009709F191
:103F00008615970508F43C01CF56DF4FE881F9810B
:103F1000C159D040E60DF71DE0801082CF56DF4F2B
:103F200068817981C159D040C8010E94CE16CF5610
:103F3000DF4F88819981C159D040680E791ED30125
:103F4000EC92B801CE018F569F4F0E94A312C80178
:103F50000E940F135401CB56DF4F88819981C559B8
:103F6000D0408815990508F46EC03401B1E06B1A91
:103F700071088614970410F05301340160E571E074
:103F8000CE018B579F4F0E941917CB56DF4F888069
:103F90009980C559D040A814B90428F5681479044B
:103FA00008F44301CF56DF4FE881F981C159D04071
:103FB000E80DF91DE0801082CF56DF4F68817981CE
:103FC000C159D0406A0D7B1DCE018B579F4F0E9477
:103FD000CE16CF56DF4F88819981C159D040880EC7
:103FE000991EF401E082C8010E948817D8011D9231
:103FF0001D921D921D92CD01BE016B577F4F0E94F5
:10400000E31681E0F8018287B12CEE24E394B80135
:10401000CE018C599F4F0E94DC12C80104960E9469
:104020000F13BB2029F0CE0185579F4F0E940F131D
:10403000EE2029F0CE018B579F4F0E940F13CE0127
:104040008F569F4F9ECC60E571E0CE0185579F4F04
:104050000E941917C8010E948817D8011D921D924D
:104060001D921D92CD01BE0165577F4F0E94E31640
:1040700081E0F8018287BB24B394E12CC8CFC556F8
:10408000DF4FE881F981CB59D040F0933C04E093B5
:104090003B04FF20D1F0B601FBE0FF9E600D711DD7
:1040A00011246B507109C1010E94F8160B501109BF
:1040B000C80104960E940F13C016D106B9F7C101BA
:1040C000C955DF4FE2E10C94C637C1010E94881741
:1040D000D1011D921D921D921C9213971A961C924B
:1040E000E5CFB7E0BF1508F427C90BCBA5E1B0E0D9
:1040F000ECE7F0E20C94AC371092560310925703A1
:10410000109258031092590320918D02A0904D03F4
:10411000B0904E03211104C0A0908B02B0908C028D
:1041200080913B0490913C048A159B05B8F4E09083
:104130003B04F0903C0467012FEFC21AD20AD092E0
:104140003C04C0923B04C7010E948D18182F8111B6
:104150001FC0B0923C04A0923B0416C010924803CA
:1041600080918B0290918C02211103C021E0209359
:104170008D0290933C0480933B0420914D03309139
:104180004E038217930798F26596E0E10C94C837C6
:104190008130D9F5CE01019681D8CE0101960E94D9
:1041A000DF0B6B017C01CE0105960E940F1320E00E
:1041B00030E0A901C701B6010E941E3687FF03C087
:1041C000C12CD12C76018FB7F89480901104909077
:1041D0001204A0901304B09014048FBF20E030E0CC
:1041E0004AE754E4C701B6010E9483360E94C238F0
:1041F000860E971EA81EB91E8092560390925703F2
:10420000A0925803B0925903BFCF8EEF810F823036
:10421000D8F562E0E60EF11CF0923C04E0923B041B
:10422000C6010E948D18082FCE01019637D8CE0105
:1042300001960E94DF0B6B017C01CE0105960E9466
:104240000F13083008F0A0CF74E0079FC0011124BD
:10425000123041F4855E9B4FFC01C082D182E28224
:10426000F38292CF8C01055E1B4FA7019601F801E6
:1042700060817181828193810E94F137F8016083AE
:1042800071838283938380CF143019F55701F2E054
:10429000AF0EB11CB0923C04A0923B04C6010E9438
:1042A0008D18182F23E0E20EF11CF0923C04E092EE
:1042B0003B04C5010E948D18082F61E0812F0E94E8
:1042C000D70161E0011101C060E0812F0E94AA01C5
:1042D0005BCF153099F562E0E60EF11CF0923C04DC
:1042E000E0923B04C6010E948D18182F61E00E94E5
:1042F000D701CE0101960E944E19CE0101960E946F
:10430000DF0B6B017C01CE0105960E940F13C701E4
:10431000B6010E94BD386F3F71058105910529F0F6
:1043200024F06FEF70E080E090E097FF03C060E062
:1043300070E0CB01812F0E94130226CF163009F0C6
:1043400042C087010E5F1F4F10933C0400933B0453
:10435000C6010E948D18D82E73E0E70EF11CF09272
:104360003C04E0923B04C8010E948D18182FCE0136
:1043700001960E944E19CE0101960E94DF0B4B015F
:104380005C01CE0105960E940F13C501B4010E9485
:10439000BD386F3F71058105910529F024F06FEF5D
:1043A00070E080E090E06130EFEF7E078E079E07BF
:1043B00024F461E07FEF8FEF9FEFAB01612F8D2D34
:1043C0000E94A30FE1CE1730A9F5F2E0EF0EF11C29
:1043D000F0923C04E0923B04C6010E948D180E94BA
:1043E000F00E8C01CE0101960E944E19CE0101966D
:1043F0000E94DF0B6B017C01CE0105960E940F131A
:104400000115110509F4C0CEC701B6010E94BD38DF
:10441000653B71058105910524F064EB70E080E057
:1044200090E097FF03C060E070E0CB01C8010E94FC
:104430002909AACE183009F06DC022E0E20EF11C65
:10444000F0923C04E0923B04C6010E948D18182FA4
:10445000CE0101960E944E19CE0101960E94DF0BFB
:104460006B017C01CE0105960E940F13C701B601B6
:104470000E94BD386B017C0161E2C6166EE4D6066F
:10448000E104F10434F050E2C52E5EE4D52EE12CB7
:10449000F12C74E1C716D104E104F1042CF444E1D9
:1044A000C42ED12CE12CF12CCE0101960E944E1984
:1044B000CE0101960E94DF0B4B015C01CE010596F7
:1044C0000E940F1320E030E0A901C501B4010E9451
:1044D0001E3687FF03C0812C912C540120E030E070
:1044E0004AE754E4C501B4010E9483360E94C238F1
:1044F0009B01AC0110930D012115310541055105BA
:1045000021F421E030E040E050E0B601812F0E942C
:1045100014033ACE193069F482E0E80EF11CF092EF
:104520003C04E0923B04C6010E948D180E94E80200
:104530002BCE1A3039F55701E2E0AE0EB11CB09225
:104540003C04A0923B04C6010E948D18D82E87011E
:104550000D5F1F4F10933C0400933B04C5010E9464
:104560008D18C82EF4E0EF0EF11CF0923C04E0929E
:104570003B04C8010E948D18482F6C2D8D2D0E9480
:10458000AE1002CE1B3009F065C0CE0101960E942C
:104590004E19CE0101960E94DF0B6B017C01CE010A
:1045A00005960E940F13CE0101960E944E19CE016E
:1045B00001960E94DF0B4B015C01CE0105960E9423
:1045C0000F13CE0101960E944E19BE016F5F7F4FFF
:1045D000CE010C960E949918CE0105960E940F13E9
:1045E00080914C03882389F1C701B6010E94BD3830
:1045F0006B017C0124E0C216D104E104F1042CF02B
:1046000033E0C32ED12CE12CF12CF7FE03C0C12CDA
:10461000D12C7601C501B4010E94BD38DC01CB016B
:1046200084319105A105B10524F083E190E0A0E07B
:10463000B0E0B7FF03C080E090E0DC016C2D0E9489
:104640008F10CE010C960E947410CE010C960E9421
:104650000F139ACD1C3019F40E94A21095CD1D3174
:10466000D1F487010E5F1F4F10933C0400933B046D
:10467000C6010E948D18D82E63E0E60EF11CF09260
:104680003C04E0923B04C8010E948D18682F8D2DD8
:104690000E94720E79CD1E3109F059C0CE010196EB
:1046A0000E944E19CE0101960E94DF0B6B017C0126
:1046B000CE0105960E940F13CE0101960E944E195D
:1046C000CE0101960E94DF0B4B015C01CE010596E5
:1046D0000E940F13CE0101960E944E19BE016F5F1A
:1046E0007F4FCE010C960E949918CE0105960E942C
:1046F0000F13C701B6010E94BD386B017C0178E041
:10470000C716D104E104F1042CF027E0C22ED12C0D
:10471000E12CF12CF7FE03C0C12CD12C7601C50190
:10472000B4010E94BD38603171058105910524F006
:104730006FE070E080E090E097FF03C060E070E021
:10474000CB014C2DCE010C960E94630D7ECF1F3104
:1047500019F40E94430E18CD1032C9F482E0E80E1D
:10476000F11CF0923C04E0923B04C6010E948D18BB
:10477000873008F086E0682F70E08DE20E94E20F3B
:104780006CE271E080E090E00E94A602FDCC1D305A
:1047900009F062C0E2E0EE0EF11CF0923C04E092FF
:1047A0003B04C6010E948D18B82ECE0101960E94CE
:1047B0004E19CE0101960E94DF0B6B017C01CE01E8
:1047C00005960E940F13C701B6010E94BD386B0108
:1047D0007C01FDE3CF16D104E104F1042CF09CE34D
:1047E000C92ED12CE12CF12C1C141D041E041F0415
:1047F00024F0C12CD12C7601C3940091490310916F
:104800004A030115110581F0F801818592850E9406
:10481000A439F8018681978197FD03C060E00E946A
:10482000D701C8010E94A43986E190E00E940839AE
:104830008C014B2D50E0B6010E944C1210934A039C
:1048400000934903C8010E944A07C8010E9442120E
:10485000C8010E948C0698CC1E3009F059C0CE01C8
:1048600001960E944E19CE0101960E94DF0B6A8BC1
:104870007B8B8C8B9D8BCE0105960E940F13CE01F6
:1048800001960E944E19CE0101960E94DF0B6B012A
:104890007C01CE0105960E940F13CE0101960E9465
:1048A0004E19CE0101960E94DF0B4B015C01CE0137
:1048B00005960E940F13CE0101960E944E19CE015B
:1048C00001960E94DF0B2B013C01CE0105960E9450
:1048D0000F13C301B2010E94BD382B013C01C50179
:1048E000B4010E94BD384B015C01C701B6010E94B2
:1048F000BD386B017C016A897B898C899D890E9406
:10490000BD38CB019201A401B6010E947C0C3CCCC5
:104910001F3049F40091490310914A030115110514
:1049200009F093CF31CC103109F03FC087010E5F01
:104930001F4F10933C0400933B04C6010E948D1846
:10494000B82EF3E0EF0EF11CF0923C04E0923B0431
:10495000C8010E948D18182FCE0101960E944E1991
:10496000CE0101960E94DF0B6B017C01CE01059602
:104970000E940F13612F8B2D0E941713882309F4B7
:1049800003CCC701B6010E94BD386F3171058105A6
:10499000910524F06EE170E080E090E097FF03C0A5
:1049A00060E070E0CB0186E01EC01131F9F4CE0169
:1049B00001960E944E19CE0101960E94DF0B6B01F9
:1049C0007C01CE0105960E940F13C701B6010E941B
:1049D000BD38161617061806190624F061E070E0B7
:1049E00080E090E083E00E948D0ECECB123179F40E
:1049F000CE0101960E944E19CE0101960E94DF0B56
:104A00006B017C01CE0105960E940F13BACF70E0B6
:104A100060E086E1133139F3143109F058C08701A1
:104A20000E5F1F4F10933C0400933B04C6010E948D
:104A30008D18D82E23E0E20EF11CF0923C04E09297
:104A40003B04C8010E948D18C82EE0D48C01E09070
:104A50001904F0901A04E114F10431F0C7010E9426
:104A60005608C7010E94A4398FE190E00E940839DE
:104A70007C01FC011382128288EE93E0A0E0B0E09A
:104A800084839583A683B7838CE191E091838083AF
:104A9000178A168A118E108E138E128E158E148E12
:104AA000868D8E7F8D7F868F6C2DC7010E942F088B
:104AB0006D2DC7010E940808F0921A04E0921904B3
:104AC000A80170E060E0C7010E949F085DCB15312E
:104AD00011F50091190410911A0401151105C9F17D
:104AE000C8010E946E08CE0101960E944E19BE01B7
:104AF0006F5F7F4FCE010C960E949918BE01645FD4
:104B00007F4FC8010E947E15CE010C960E940F13A4
:104B1000CE0105969CCD1B3109F500911904109129
:104B20001A0401151105A9F0C8010E946E08CE01F2
:104B300001960E944E19BE016F5F7F4FCE010C9609
:104B40000E949918BE01645F7F4FC8010E945905F9
:104B5000DBCFCE0101960E944E19DACF1C3111F540
:104B6000F2E0EF0EF11CF0923C04E0923B04C6012F
:104B70000E948D18182FCE0101960E944E19BE0179
:104B80006F5F7F4FCE010C960E949918612FCE0166
:104B90000C960E94830BCE010C960E940F13CE013F
:104BA000059655CD1631C9F46AEB71E083E994E0BE
:104BB0000E946805CE0101960E944E19BE016F5FEA
:104BC0007F4FCE010C960E949918BE01645F7F4F03
:104BD00083E994E00E947E15DECF173131F416D4BC
:104BE00090933C0480933B04CFCA183189F4CE01E2
:104BF00001960E944E19CE0101960E94C20B182FF9
:104C0000CE0105960E940F1301D41111BDCAE8CF41
:104C10001931A1F5CE0101960E944E19CE010196DF
:104C20000E94DF0B0E94BD386B017C01CE0105960E
:104C30000E940F13EBD39C011C141D041E041F04BF
:104C40002CF030933C0420933B049ECA909148037F
:104C50009430B8F726E0929FF0011124ED58FD4FF3
:104C600020913B0430913C0431832083C282D38263
:104C7000E482F5829F5F9093480386CA1A3131F52A
:104C8000C5D39C0190914803992309F47DCA692FEB
:104C90006150770B86E0869FF001879FF00D11240D
:104CA000ED58FD4F42815381648175814150510916
:104CB0006109710942835383648375831416150651
:104CC000160617060CF4BDCF9150D5CF10925A039B
:104CD0005BCA009719F00E945133BC01CB010895C3
:104CE0001F920F920FB60F9211242F933F938F9321
:104CF0009F93AF93BF938091110490911204A09160
:104D00001304B09114043091100423E0230F2D37C5
:104D100058F50196A11DB11D209310048093110434
:104D200090931204A0931304B0931404809115047B
:104D300090911604A0911704B09118040196A11D3A
:104D4000B11D8093150490931604A0931704B0939B
:104D50001804BF91AF919F918F913F912F910F9028
:104D60000FBE0F901F90189526E8230F0296A11DE5
:104D7000B11DD2CF1F920F920FB60F9211242F9315
:104D80003F934F935F936F937F938F939F93AF93D3
:104D9000BF93EF93FF938091440390914503A091BB
:104DA0004603B0914703892B8A2B8B2BD1F190912D
:104DB0004303E0914103F09142038081892780837E
:104DC0008091440390914503A0914603B09147031D
:104DD000181619061A061B069CF48091440390913C
:104DE0004503A0914603B09147030197A109B1097A
:104DF0008093440390934503A0934603B0934703E5
:104E0000FF91EF91BF91AF919F918F917F916F91A2
:104E10005F914F913F912F910F900FBE0F901F9078
:104E2000189580910C010E94E802EACF1F920F9220
:104E30000FB60F9211242F933F934F935F936F936D
:104E40007F938F939F93AF93BF93EF93FF9383E9E8
:104E500094E00E94FC05FF91EF91BF91AF919F916B
:104E60008F917F916F915F914F913F912F910F9013
:104E70000FBE0F901F9018951F920F920FB60F92B2
:104E800011242F938F939F93EF93FF93E091A304AB
:104E9000F091A4048081E091A904F091AA0482FD1C
:104EA0001BC090818091AC048F5F8F732091AD0403
:104EB000821741F0E091AC04F0E0ED56FB4F958F86
:104EC0008093AC04FF91EF919F918F912F910F9060
:104ED0000FBE0F901F9018958081F4CF1F920F92F4
:104EE0000FB60F9211242F933F934F935F936F93BD
:104EF0007F938F939F93AF93BF93EF93FF93E09133
:104F00003503F0913603309749F0A685B78585853E
:104F1000968D91FF14C09C918923A1F4FF91EF918C
:104F2000BF91AF919F918F917F916F915F914F91C1
:104F30003F912F910F900FBE0F901F9018959C914D
:104F4000892361F7A389B4899C91858980958923F8
:104F50008C93868997890197F1F7608D718DA6856D
:104F6000B785558538E020E0CB010197F1F7822F16
:104F700090E095958795282F4C91452309F020685E
:104F8000315091F7868D81FD20958091330390E01B
:104F900001968F73992730913403381799F0A091B7
:104FA0003303B0E0AD50BD4F2C9380933303828D1B
:104FB000938D0197F1F7A389B4898C919589892BF9
:104FC0008C93ACCF868D8160868FF1CF1F920F922C
:104FD0000FB60F9211242F933F934F935F936F93CC
:104FE0007F938F939F93AF93BF93CF93DF93EF9371
:104FF000FF938091F202C0916005D0E087FF24C04A
:1050000010928500109284008091F2028F5F80934D
:10501000F2028091F202082E000C990B8C179D076A
:1050200024F48091F2028C30C4F18091840090913C
:105030008500049680349C4908F47AC080918400ED
:1050400090918500049676C08091F202082E000CA3
:10505000990B8C179D07C4F6E091F2028E2FEE0F8C
:10506000990BFC01EE0FFF1FE80FF91FE45CFA4FEC
:10507000808186FFC9CFE091F2028E2FEE0F990B4F
:10508000FC01EE0FFF1FE80FF91FE45CFA4F80816F
:1050900060E08F730E94AA01B7CF20918400309105
:1050A0008500E091F2028E2FEE0F990BFC01EE0FBE
:1050B000FF1FE80FF91FE45CFA4F81819281820F94
:1050C000931F9093890080938800E091F2028E2FC5
:1050D000EE0F990BFC01EE0FFF1FE80FF91FE45CC8
:1050E000FA4F808186FF11C0E091F2028E2FEE0F01
:1050F000990BFC01EE0FFF1FE80FF91FE45CFA4F5C
:10510000808161E08F730E94AA01FF91EF91DF918E
:10511000CF91BF91AF919F918F917F916F915F914F
:105120004F913F912F910F900FBE0F901F901895A8
:1051300080E49CE990938900809388008FEF8093AE
:10514000F202E3CF1F920F920FB60F9211242F930A
:105150003F934F935F936F937F938F939F93AF93FF
:10516000BF93EF93FF938091B900887F803609F455
:105170004AC0F0F5883209F4A7C018F5803109F467
:105180009BC0B8F4882309F4F9C0883009F494C0AE
:10519000FF91EF91BF91AF919F918F917F916F910F
:1051A0005F914F913F912F910F900FBE0F901F90E5
:1051B0001895883109F488C0803251F780936704CC
:1051C00014C0803409F49DC040F48033B9F38833AF
:1051D000F9F68093670485ECB0C0803509F485C08A
:1051E000883509F496C0883499F60E94C917D0CF43
:1051F000883909F48CC038F5883729F050F488369E
:1052000011F0803729F683E0809369041092F1024F
:1052100057C0883809F47BC0803919F0803809F00C
:10522000B7CF8091F102803208F071C0E091F102B5
:1052300081E08E0F8093F1028091BB00F0E0EF528D
:10524000FD4F80833DC0803B39F0E0F4803A09F4A3
:1052500079C0883A09F09CCF84E080936904109269
:10526000D0021092CF02E0913F04F09140040995E2
:105270008091CF0281110FC081E08093CF02109204
:10528000AF0209C0803C09F4A6CF883C09F4A3CF43
:10529000883B09F07DCFE091D00281E08E0F8093B2
:1052A000D002F0E0E155FD4F80818093BB009091EA
:1052B000D0028091CF0229C0809144048093BB002A
:1052C00085EC8093BC0064CF909166048091650466
:1052D000981758F5E091660481E08E0F809366047C
:1052E000F0E0EB5BFB4F8081E9CFE091660481E069
:1052F0008E0F809366048091BB00F0E0EB5BFB4F68
:10530000808390916604809165049817C8F285E8BF
:10531000D8CFE091660481E08E0F8093660480917F
:10532000BB00F0E0EB5BFB4F808380916804811150
:105330005CCF81E08093430484EA8093BC001092A8
:10534000690426CF85EC8093BC001092690480919B
:10535000F102803230F4E091F102F0E0EF52FD4FC3
:1053600010826091F10270E0E0913D04F0913E0402
:1053700081ED92E009951092F1020ACF1092670434
:1053800034CFCF92DF92EF92FF920F931F93E82FCB
:10539000F92F05C0015011092109310961F19081EE
:1053A00096239417B9F305C0015011092109310959
:1053B00011F1908196239413F7CFC12CD12CE12CBD
:1053C000F12C0AC08FEFC81AD80AE80AF80A0C159F
:1053D0001D052E053F0579F080818623841791F302
:1053E0006C2D7D2D8E2D9F2D1F910F91FF90EF9095
:1053F000DF90CF90089560E070E080E090E01F9132
:105400000F91FF90EF90DF90CF900895EF92FF9271
:105410000F931F93CF93DF93C0913B04D0913C0433
:105420007E012FEFE21AF20AF0923C04E0923B0474
:10543000CE010E948D18082F10E02296D0933C04D4
:10544000C0933B04C7010E948D189801382BC901F5
:10545000CDB7DEB7E6E00C94D237109296041092E6
:10546000950488EE93E0A0E0B0E0809397049093D9
:105470009804A0939904B0939A042EE231E03093FB
:1054800094042093930425EC30E03093A0042093FF
:105490009F0424EC30E03093A2042093A10420EC7C
:1054A00030E03093A4042093A30421EC30E0309347
:1054B000A6042093A50422EC30E03093A8042093A6
:1054C000A70426EC30E03093AA042093A90410929C
:1054D000AC041092AD041092AE041092AF0410927E
:1054E0003305109232058093340590933505A093CF
:1054F0003605B093370580E491E0909331058093B1
:105500003005E1E6F5E02DE635E04FEF68EB7BE0B6
:10551000809160058C30B0F491E0980F9093600515
:10552000808390E0DC01AA0FBB1FA80FB91FA45C09
:10553000BA4F12967C936E93119733962E173F07AE
:1055400039F708954083F9CFA3E2B0E0EAEAFAE23E
:105550000C94AA37789484B5826084BD84B5816048
:1055600084BD85B5826085BD85B5816085BD80912E
:105570006E00816080936E001092810080918100A6
:10558000826080938100809181008160809381009E
:10559000809180008160809380008091B100846060
:1055A0008093B1008091B00081608093B0008091C1
:1055B0007A00846080937A0080917A008260809380
:1055C0007A0080917A00816080937A0080917A00DD
:1055D000806880937A001092C100E091A304F0915A
:1055E000A40482E08083E0919F04F091A0041082E3
:1055F000E091A104F091A20480E180831092AB04B9
:10560000E091A704F091A80486E08083E091A504CE
:10561000F091A604808180618083E091A504F091DF
:10562000A604808188608083E091A504F091A6049F
:10563000808180688083E091A504F091A604808138
:105640008F7D80836EE571E080E090E00E94A6028D
:105650000E9451160E94161878EE872E73E0972E3E
:10566000A12CB12C6CE1262E61E0362E83E994E06A
:105670000E94DE05892B09F4D8C683E994E00E94D4
:10568000BC058D3099F3E0910F048A3009F0C1C652
:10569000AE2FB0E0A55ABC4F1C92EE2351F067E646
:1056A00071E08BE593E00E94F33A892B29F40E9484
:1056B000511610920F04DACF6CE671E08BE593E09F
:1056C0000E9476337C016CE671E090E080E00E94FD
:1056D00076338C01E114F10461F3892B51F36EE60A
:1056E00071E0C7010E94F33A892B09F074C16CE69E
:1056F00071E090E080E0FAD77C016E0122E1C20EF9
:10570000D11C712C6CE671E090E080E0EFD7D601FF
:105710008D939D936D01892B21F07394B6E07B12DC
:10572000F1CFE114F10429F260E771E0C7010E94B2
:10573000F33A892BD1F47720C1F070E060E08A89D8
:105740009B89C7DAF82E60E00E94D7018F2D0E9456
:105750008201BC01990F880B990B0E942436AB0182
:10576000BC01C8010E949115A4CF61ED71E0C70191
:105770000E94F33A892BA1F4772091F070E060E069
:105780008A899B89A6DA97FD07C08630910534F493
:10579000825F0E946C02DDCF8EE0FBCF83E1F9CF08
:1057A00063E771E0C7010E94F33A892BB1F47720D7
:1057B000A1F070E060E08A899B898BDAF82E60E0C6
:1057C0000E94D7018F2D0E948201019709F0A6C087
:1057D00040E050E060E87FE3C4CF6AE771E0C701D2
:1057E0000E94F33A892B91F4E1E0E71578F470E038
:1057F00060E08C899D896DDAF82E70E060E08A891E
:105800009B8967DA6F2D0E949214A7CF60E871E040
:10581000C7010E94F33A892B91F4F1E0F71578F46F
:1058200070E060E08C899D8954DAF82E70E060E0C9
:105830008A899B894EDA6F2D0E9418108ACF65E8FD
:1058400071E0C7010E94F33A892BE9F422E02715A1
:10585000D0F470E060E08A899B893BDAD82E70E052
:1058600060E08E899F8935DA7C0170E060E08C8988
:105870009D892FDA41E0EF2809F440E0682F8D2D53
:105880000E94AC136CCF69E871E0C7010E94F33A43
:10589000892B41F581E0871528F51A82198270E07D
:1058A00060E08C899D8915DAF12C97FD05C0F82EF2
:1058B000059714F054E0F52E70E060E08A899B892A
:1058C00008DA97FF02C090E080E0AE014F5F5F4FC3
:1058D0006F2D0E94EF1169817A81072E000C880BD1
:1058E000990B3BCF6FE871E0C7010E94F33A892B17
:1058F000C9F4E0901904F0901A04E114F10471F075
:10590000C7010E946E08D701ED91FC910084F185DA
:10591000E02DC7010995892B09F05ACF40E050E0EE
:10592000BA011FCF67E971E0C7010E94F33A892BE2
:10593000A9F7CE014E960E942A1760EC71E083E928
:1059400094E00E946805B80183E994E00E9417156D
:105950008CE20E94680681E1EEE5F2E0DE0111963C
:1059600001900D928A95E1F710E000E08AA19BA1D9
:105970000817190728F5B801CE014E960E94D602E5
:10598000F82EE82FF0E044E0F595E7954A95E1F729
:1059900081E090E08C0F9D1FE80FF91F80810E942D
:1059A0006806EF2DEF70A1E0B0E0AC0FBD1FAE0FA9
:1059B000B11DFD0180810E9468060F5F1F4FD6CF89
:1059C0006EE471E083E994E00E941715CE014E96D3
:1059D0000E940F136ECE6EE971E0C7010E94F33A88
:1059E000892B09F0B7C3FE0131966F01F12C6CE6EB
:1059F00071E090E080E07AD6D6018D939D936D01A1
:105A0000892B09F0A2C360EA71E0C8010E94F33A51
:105A1000892BC9F4B1E0BF15B0F470E060E0898172
:105A20009A8157D9182F61E00E94D70170E060E099
:105A30008B819C814ED961E0892B09F460E0812F34
:105A40000E94AA0136CE63EA71E0C8010E94F33ACF
:105A5000892B01F5E1E0EF15E8F470E060E0898161
:105A60009A8137D9182F61E00E94D70170E060E079
:105A70008B819C812ED98F3F910519F014F08FEF07
:105A800090E097FF02C090E080E0BC01812F0E946F
:105A900013020FCE66EA71E0C8010E94F33A892B27
:105AA000C9F4F2E0FF15B0F470E060E08D819E81F2
:105AB00010D97C0170E060E08B819C810AD9182F9D
:105AC00070E060E089819A8104D9A701612F0E946A
:105AD000A30FEFCD6CEA71E0C8010E94F33A892B65
