:100000000C94AF010C94D7010C94D7010C941727D2
:100010000C9417270C9417270C94D7010C94632683
:100020000C94D7010C94D7010C94D7010C948F2712
:100030000C94D7010C94D7010C94D7010C94D701E0
:100040000C9419260C94D7010C94E5260C94BF2629
:100050000C94D7010C94D7010C94D7010C94D701C0
:100060000C944B280C94D70107634236B79BD8A752
:100070001A39685618AEBAAB558C1D3CB7CC5763CD
:10008000BD6DEDFD753EF6177231BF000000803F7B
:1000900008000000BE922449123EABAAAA2ABECD97
:1000A000CCCC4C3E00000080BEABAAAAAA3E000009
:1000B0000000BF000000803F000000000008417801
:1000C000D3BB4387D1133D190E3CC3BD4282AD2B38
:1000D0003E68EC8276BED98FE1A93E4C80EFFFBE30
:1000E00001C4FF7F3F00000000004E414E494E49D1
:1000F0005459494E46CDCCCC3D0AD7233C17B7D1F5
:100100003877CC2B329595E6241FB14F0A0000209A
:10011000410000C84200401C4620BCBE4CCA1B0E19
:100120005AAEC59D7400407A10F35A00A0724E1862
:10013000090010A5D4E80000E87648170000E40B99
:1001400054020000CA9A3B000000E1F5050000805F
:10015000969800000040420F000000A086010000B9
:1001600000102700000000E8030000000064000009
:100170000000000A00000000000100000000002C48
:1001800076D888DC674F0823DFC1DFAE59E1B1B70D
:1001900096E5E3E453C63AE651997696E8E6C284DA
:1001A00026EB898C9B62ED407C6FFCEFBC9C9F40F2
:1001B000F2BAA56FA5F490055A2AF75C936B6CF917
:1001C000676DC11BFCE0E40D47FEF520E6B500D0ED
:1001D000ED902E0300943577050080841E08000002
:1001E000204E0A000000C80C333333330F986E12D0
:1001F000831141EF8D2114893BE65516CFFEE6DBD6
:1002000018D1844B381BF77C1D901DA4BBE424201F
:100210003284725E228100C9F124ECA1E53D2752AF
:10022000454144592C4F4D2C00562C00AED580A88A
:100230003FD300408D142002A1C8DA1281CFD9F13A
:10024000DB40A4A6AF1F111F001F001D15171515B9
:100250001F07041F17151D1F151D01011F1F151F47
:1002600017151F41542B4E414D45000D0A004154B6
:100270002B4E414D453D004552522C4F50004C4FA6
:10028000472C0002542C004C4F472C004552522C56
:100290004D5033004D50335F5245414459004F4B50
:1002A0002C434C454152004552522C454D50545917
:1002B000004F4B2C52554E0053415645442C00459F
:1002C00052522C434845434B0050524F4752414DE8
:1002D0005F444154412C004552522C52414E4745F7
:1002E000004552522C53495A450050524F475241F3
:1002F0004D5F5245414459004552522C4C4F4E4798
:100300000000000000240027002A00000000080070
:1003100002010000030407000000000000000000CC
:1003200000000023002600290001020408102040DC
:1003300080010204081020010204081020000000BF
:1003400000250028002B0004040404040404040213
:10035000020202020203030303030300D82911244B
:100360001FBECFEFD8E0DEBFCDBF12E0A0E0B1E00E
:10037000E0E5FCE702C005900D92AE36B107D9F773
:1003800025E0AEE6B2E001C01D92A437B207E1F766
:1003900011E0CFEAD1E004C02197FE010E941E3C8B
:1003A000CE3AD107C9F70E944F2A0C94263E0C94EE
:1003B0000000833081F028F4813099F08230A9F078
:1003C00008958730A9F08830C9F08430B1F4809165
:1003D00080008F7D03C0809180008F7780938000A4
:1003E000089584B58F7784BD089584B58F7DFBCF44
:1003F0008091B0008F778093B00008958091B00015
:100400008F7DF9CFCF93DF93282F30E0F901E55F9F
:10041000FC4F8491F901E75DFC4FD491F901E95B50
:10042000FC4FC491CC23A1F081110E94D901EC2F83
:10043000F0E0EE0FFF1FE15EFC4FA591B491EC914F
:10044000ED2381E090E009F480E0DF91CF91089501
:1004500080E090E0FACF1F93CF93DF93282F30E016
:10046000F901E55FFC4F8491F901E75DFC4FD49100
:10047000F901E95BFC4FC491CC23A9F0162F81113F
:100480000E94D901EC2FF0E0EE0FFF1FE35CFC4F60
:10049000A591B4918FB7F894EC91111108C0D09543
:1004A000DE23DC938FBFDF91CF911F910895DE2B68
:1004B000F8CFCF93DF9390E0FC01E75DFC4F2491F0
:1004C000895B9C4FFC0184918823C9F090E0880FE0
:1004D000991FFC01EF5FFC4FA591B491FC01E35C17
:1004E000FC4FC591D49161110DC09FB7F8948C91C8
:1004F000209582238C938881282328839FBFDF91B6
:10050000CF910895623051F49FB7F8943C91822FB7
:10051000809583238C93E8812E2BEFCF8FB7F894AF
:10052000EC912E2B2C938FBFEACF1F93CF93DF93A9
:10053000182FEB0161E00E945902209739F460E026
:10054000812FDF91CF911F910C942B02CF3FD105CA
:1005500011F461E0F5CFE12FF0E0E55FFC4FE491AD
:10056000E33031F140F4E130B1F0E230E1F0C03895
:10057000D1057CF7E4CFE73029F1E83059F1E430D8
:10058000B1F780918000806280938000D0938B00CF
:10059000C0938A0004C084B5806884BDC7BDDF9164
:1005A000CF911F91089584B5806284BDC8BDF7CFF7
:1005B00080918000806880938000D0938900C093F0
:1005C0008800EDCF8091B00080688093B000C09328
:1005D000B300E5CF8091B00080628093B000C093FB
:1005E000B400DDCF8E3008F08E5087708064809329
:1005F0007C0080917A00806480937A0080917A00F8
:1006000086FDFCCF809178009091790008953FB7E6
:10061000F89480911A0490911B04A0911C04B0914D
:100620001D0426B5A89B05C02F3F19F00196A11DFA
:10063000B11D3FBFBA2FA92F982F8827BC01CD012C
:10064000620F711D811D911D42E0660F771F881F8B
:10065000991F4A95D1F708958F929F92AF92BF92BA
:10066000CF92DF92EF92FF924B015C010E94070351
:100670006B017C010E9407036C197D098E099F099B
:10068000683E734081059105A8F321E0821A910824
:10069000A108B10888EEC80E83E0D81EE11CF11C49
:1006A00081149104A104B10429F7FF90EF90DF9029
:1006B000CF90BF90AF909F908F90089508959091A4
:1006C000090189130BC0E3E8F2E0E4919FEF9093F6
:1006D0000901E13049F028F0E23061F060E00C946B
:1006E0002B0210926E00FACF90916F009D7F909335
:1006F0006F00F4CF909170009D7F9093700091E017
:100700009093B0009091B100987F94609093B10065
:100710001092B300E3CF4F925F926F927F928F92CD
:100720009F92AF92BF92CF92DF92EF92FF920F9380
:100730001F93CF93DF9300D000D01F92CDB7DEB7C9
:100740008B0129013A01909109018917C9F09F3F56
:1007500009F47EC00F900F900F900F900F90DF91D3
:10076000CF911F910F91FF90EF90DF90CF90BF90AE
:10077000AF909F908F907F906F905F904F90089573
:10078000E3E8F2E094919D8397FDE4CF61E00E945D
:1007900059028D81882321F09D81923009F04AC150
:1007A0004801B12CA12C60E072E18AE790E0A5013C
:1007B00098010E94F63829833A834B835C83690150
:1007C0007A0181E0C81AD108E108F1089FEFC91643
:1007D000D104E104F10409F00CF401C160E472E415
:1007E0008FE090E0A50198010E94F63869017A0136
:1007F00081E0C81AD108E108F1089D81923009F022
:10080000A2C08FEFC816D104E104F10409F00CF482
:10081000E6C160E970ED83E090E0A50198010E94D7
:10082000F63869017A0191E0C91AD108E108F108A6
:100830008FEFC816D104E104F10411F00CF07FC170
:1008400083E09091B100987F892B8093B100CFC055
:1008500080930901E3E8F2E094919D839F3F09F4BE
:1008600079CF913041F150F0923009F446C09D812A
:1008700097FD70CF61E00E9459028ECF14BC15BC69
:1008800094B5926094BD95B5916095BD282F30E0E8
:10089000F901E95BFC4FE491F0E0EE0FFF1FE35C30
:1008A000FC4F45915491F901E75DFC4FE491E093D1
:1008B0003C031D826BCF10928000109281009091BA
:1008C0008100986090938100909181009160909355
:1008D0008100282F30E0F901E95BFC4FE491F0E062
:1008E000EE0FFF1FE35CFC4F45915491F901E75D6A
:1008F000FC4FE491E0933B0349CF1092B00010927B
:10090000B1009091B00092609093B0009091B100CE
:1009100091609093B100282F30E0F901E95BFC4F22
:10092000E491F0E0EE0FFF1FE35CFC4F4591549122
:100930005093460340934503F901E75DFC4FE49172
:10094000E093470323CF9FEFC916D104E104F104DC
:1009500009F00CF46DC068E478EE81E090E0A50148
:1009600098010E94F63869017A0181E0C81AD1081D
:10097000E108F1089D81992309F4FAC08FEFC816A8
:10098000D104E104F10411F00CF0FBC0EFC064E20B
:1009900074EF80E090E0A50194010E94F6386901AF
:1009A0007A0181E0C81AD108E108F10885E09FEFDB
:1009B000C916D104E104F10409F008F442CF62E160
:1009C0007AE780E090E0A50194010E94F638690181
:1009D0007A0181E0C81AD108E108F108E5C081E098
:1009E0009D8191112ECF95B5987F892B85BD2FEFD5
:1009F0003FEFA901411451046104710409F043C09F
:100A00009D81913009F45EC0923009F46DC091115E
:100A1000A1CEC7BC209341033093420340934303CC
:100A20005093440380916E00826080936E0092CE5A
:100A300082E0D6CFB12CA12C60E072E18AE790E091
:100A4000A50198010E94F63869017A0181E0C81A6F
:100A5000D108E108F108C114D10491E0E906F104DC
:100A600004F591E08D81813011F680918100887FBD
:100A7000892B809381002FEF3FEFA901411451048E
:100A800061047104F9F0D801AA0FBB1FA301920100
:100A90000E94153928EE33E040E050E00E94D4383F
:100AA000AFCF68E478EE81E090E0A50198010E9464
:100AB000F63869017A0181E0C81AD108E108F10825
:100AC00093E0D0CFD0928900C092880020933D035C
:100AD00030933E0340933F035093400380916F0057
:100AE000826080936F0036CEC092B300209348039B
:100AF0003093490340934A0350934B038091700015
:100B000082608093700026CE84E09FEFC916D104E6
:100B1000E104F10409F008F466CFC980DA80EB80C3
:100B2000FC808AE0F594E794D794C7948A95D1F72E
:100B300081E0C81AD108E108F10885E054CF68E4E3
:100B400078EE81E090E0A50198010E94F6386901F5
:100B50007A0181E0C81AD108E108F1089FEFC916AF
:100B6000D104E104F10411F00CF011CF84E069CE5E
:100B700083E09FEFC916D104E104F10409F00CF4FD
:100B800032CF62E17AE780E090E0A50194010E9413
:100B9000F63869017A0181E0C81AD108E108F10844
:100BA0009D81992309F4B0CF86E09FEFC916D10447
:100BB000E104F10409F008F444CEC980DA80EB8046
:100BC000FC809AE0F594E794D794C7949A95D1F76E
:100BD00081E0C81AD108E108F10887E032CE82E04E
:100BE00030CEDB0114964D915C9115976D917C91FF
:100BF000DC01ED91FC910280F381E02D0994EF92EC
:100C0000FF920F931F93CF93DF938C017B01D0E072
:100C1000C0E0F701EC0FFD1F6491662361F0D8017D
:100C2000ED91FC910190F081E02DC8010995892B8F
:100C300011F02196EECFCE01DF91CF911F910F9150
:100C4000FF90EF900895AF92BF92CF92DF92EF9214
:100C5000FF920F931F93CF93DF936C017B018B0166
:100C6000040F151FEB015E01AE18BF08C017D107B6
:100C700059F06991D601ED91FC910190F081E02D40
:100C8000C6010995892B79F7C501DF91CF911F9195
:100C90000F91FF90EF90DF90CF90BF90AF900895AD
:100CA000FC01538D448D252F30E0842F90E0821B72
:100CB000930B541710F0CF96089501970895FC01F7
:100CC000918D828D981761F0A28DAE0FBF2FB11D4F
:100CD0005D968C91928D9F5F9F73928F90E00895A7
:100CE0008FEF9FEF0895FC01918D828D981731F061
:100CF000828DE80FF11D858D90E008958FEF9FEFB5
:100D00000895FC01918D228D892F90E0805C9F4F8A
:100D1000821B91098F739927089582E994E00E94BC
:100D2000810621E0892B09F420E0822F089580E0DC
:100D300090E0892B29F00E948D0681110C9400000F
:100D40000895FC01A48DA80FB92FB11DA35ABF4F60
:100D50002C91848D90E001968F739927848FA689BA
:100D6000B7892C93A089B1898C91837080648C930E
:100D7000938D848D981306C00288F389E02D8081BD
:100D80008F7D80830895EF92FF920F931F93CF93EF
:100D9000DF93EC0181E0888F9B8D8C8D98131AC0B6
:100DA000E889F989808185FF15C09FB7F894EE899D
:100DB000FF896083E889F9898081837080648083FA
:100DC0009FBF81E090E0DF91CF911F910F91FF9045
:100DD000EF900895F62E0B8D10E00F5F1F4F0F73ED
:100DE0001127E02E8C8D8E110CC00FB607FCFACFA8
:100DF000E889F989808185FFF5CFCE010E94A1069F
:100E0000F1CFEB8DEC0FFD2FF11DE35AFF4FF08278
:100E10009FB7F8940B8FEA89FB8980818062CFCFDE
:100E2000682F82E994E00C94C306CF93DF93EC0122
:100E3000888D8823B9F0AA89BB89E889F9898C91C2
:100E400085FD03C0808186FD0DC00FB607FCF7CF7E
:100E50008C9185FFF2CF808185FFEDCFCE010E947E
:100E6000A106E9CFDF91CF9108958F929F92AF9223
:100E7000BF92CF92DF92EF92FF921F93CF93DF93B7
:100E8000FC018281938168177907A8F54A01AA2499
:100E9000BB24C82DC32ED42EE52EFF241C2DD22F0B
:100EA0008085882361F0889E40011124C92D8C9D86
:100EB000600111241D2D829FD0011124DB2FA685F6
:100EC000E184F2849385A91322C0CB01880F991F76
:100ED000680F791F6E0D7F1DA385A60FB72FB11D5B
:100EE000CC93A485A60FB72FB11D1C938585680FE1
:100EF000711DFB01D083DF91CF911F91FF90EF9087
:100F0000DF90CF90BF90AF909F908F900895660F25
:100F1000771F660F771F6E0D7F1D252F3327442700
:100F20005527882349F090E0829F7001839FF00C41
:100F3000929FF00C11242F2DA60FB72FB11D2C93CB
:100F4000CBCFCF92DF92EF92FF920F931F93CF936D
:100F5000DF93CDB7DEB729970FB6F894DEBF0FBE8B
:100F6000CDBF8C01DC0119968D919C91892B09F4E0
:100F700073C00E940703F801C784D088E188F28813
:100F80006C157D058E059F0520F46787708B818B1E
:100F9000928BF801C784D088E188F2886C197D09AA
:100FA0008E099F096C3271408105910510F3F89408
:100FB000D80114968D919C9115979A8389831996DF
:100FC000ED91FC917F01BFEFEB1AFB0A80818987CD
:100FD000F80190810388F489E02DD80155968C9111
:100FE000992309F448C09081982B98879081809527
:100FF00089238F838F818C8388E08B8358856F81D1
:1010000049853B812C8189819A81D701508347FD95
:10101000252F3A952083262F39F0441F00C0000069
:101020006083000000C0F2CF38E04D916083000083
:10103000019761F7D8015496FC93EE935397498733
:101040003B832C839A83898378940E940703F80159
:101050006787708B818B928B29960FB6F894DEBFD1
:101060000FBECDBFDF91CF911F910F91FF90EF90F9
:10107000DF90CF9008959081982B988790818095EC
:1010800089238F838F818E8388E08D8358856F813C
:1010900049853D812E8189819A81D701508347FD01
:1010A000252F00C000C0208300C000C000C000C0C9
:1010B00000C060830000262F3A9541F0441F0000D5
:1010C00000C000C000C000C000C0E8CF38E04D91B3
:1010D00000C0608300C0019709F7D8015496FC93C3
:1010E000EE93539749873D832E83ACCFCF93DF9305
:1010F000EC018E819F8197FD0CC061E00E94590236
:1011000060E08E810E942B0281E08983DF91CF9184
:101110000895198280E0FACF08950895209133034D
:10112000309134032817390771F49091320380917C
:101130003103981741F0E0913203F0E0EF50FD4F9A
:10114000808190E008958FEF9FEF08950895EF92CA
:10115000FF920F931F93CF93DF93DC015C96ED908A
:10116000FC905D97E114F10479F481E090E013962E
:101170009C938E93129790E080E0DF91CF911F9126
:101180000F91FF90EF9008955196ED91FC91529739
:1011900050968C915097982F90950FB75E962C9102
:1011A0005E97122F127021FD6095F8942081112313
:1011B00019F1282B2083E7012197F1F728E0462F2A
:1011C00050E0308160FF1AC0382B3083E70121974F
:1011D000F1F7BA0175956795215089F7112381F0D0
:1011E0008081892380830FBF5C968D919C910197AC
:1011F000F1F781E090E0C1CF2923DCCF3923E5CF9F
:101200009081892BEFCF209133033091340328173D
:10121000390761F4809131032091320390E0805CC2
:101220009F4F821B91098F739927089590E080E06A
:101230000895209133033091340328173907B9F406
:101240009091320380913103981789F0E091320335
:10125000F0E0EF50FD4F80812091320330E02F5FAE
:101260003F4F2F7333272093320390E008958FEF81
:101270009FEF08951F93CF93DF93EC01162F60E04B
:10128000812F0E9459028E8D81FD04C061E0812F63
:101290000E942B021C87812F90E0FC01E75DFC4F30
:1012A000E491ED87FC01E95BFC4FE491F0E0EE0F87
:1012B000FF1FE15EFC4F859194919F878E87DF91A0
:1012C000CF911F9108951F93CF93DF93EC01162FB9
:1012D0006E8D6695617081E06827812F0E942B02D8
:1012E00061E0812F0E945902812F90E0FC01E75DAF
:1012F000FC4FE491E88BFC01E95BFC4FE491F0E0EA
:10130000EE0FFF1FE35CFC4F859194919A8B898BC4
:10131000DF91CF911F910895FC018DE191E09183C0
:1013200080838091330390913403E817F90759F4CF
:10133000A389B4899C918589809589238C93109287
:101340003403109233030895CF93DF93FC01828D11
:10135000938D892B41F1A0913303B0913403AE17E3
:10136000BF0709F1109751F05396CD91DC91549736
:10137000988155968C91809589238883868D8E7F60
:10138000868F1092310310923203F0933403E0936E
:101390003303A389B4898C919589892B8C9381E03F
:1013A000DF91CF91089580E0FBCFCF93DF93EC01E5
:1013B0009A01AB011B8E1A8E198E188E1F8A1E8AF7
:1013C00060E079E08DE390E00E94F638F901C90110
:1013D00003972430310510F481E090E09D8F8C8FCD
:1013E0006C85663108F052C0C901969587958431A5
:1013F000910508F450C043979F8B8E8BC9010597C8
:10140000369710F481E090E0998F888FC901880F9A
:10141000991F280F391F36952795369527952D301A
:101420003105E0F12C5031093B8F2A8F90916800F3
:1014300084E0683048F021E06E3008F420E081E07C
:1014400001C0880F2A95EAF7892B809368009C8554
:101450002DE630E0983050F02BE630E09E3030F052
:101460002CE630E0963110F030E020E03C8B2B8B06
:10147000292F30E09830A8F481E001C0880F9A95B8
:10148000EAF78D8B8C8D9D8D0197F1F7CE01DF9161
:10149000CF910C94A40981E090E0AECF21E030E040
:1014A000C3CF9E3040F42850310981E001C0880F3D
:1014B0002A95EAF7E6CF2E503109F7CFCF92DF9287
:1014C000EF92FF92CF93DF93EC01603282E07807D6
:1014D000CCF5653B710514F064EB70E0898128E878
:1014E00030E0281B310987FD3395220F331F220F6F
:1014F000331F6901330FEE08FF088A8128E532E0C7
:10150000281B310987FD3395220F331F220F331F0C
:10151000032E000C440B550B2C193D094E095F0995
:10152000DB0177FF02C0B0E0A0E00E94203924EB8D
:1015300030E040E050E00E94F638C20ED31EE41EB8
:10154000F51EB601E881EC3070F5298188E890E05D
:10155000821B910927FD9395880F991F880F991F6A
:10156000681779077CF02A8188E592E0821B91094F
:1015700027FD9395880F991F880F991F6817790782
:101580000CF4CB010297880F991F4FB7F8942E2FB8
:1015900030E0F901EE0FFF1FE20FF31FE55CFA4F99
:1015A000928381834FBFDF91CF91FF90EF90DF90C7
:1015B000CF9008952091CD02260F3327331F21327B
:1015C0003105ECF420914404FC0190E080E02430EB
:1015D00069F082E00895A091CD022191AC014355BC
:1015E0005D4FA40FB52FB11D2C930196861798F36C
:1015F0008091CD02680F6093CD0280E0089581E074
:1016000008951092440481E08093430410921E04D4
:1016100061E082E10E942B0261E083E10E942B02E3
:10162000E9EBF0E080818E7F808380818D7F8083F5
:1016300088E48093B80085E48093BC000895CF933C
:10164000DF9391E09093AC028823B9F0C091B80089
:10165000D091BA008091BC008A7B8093BC0060E08E
:1016600082E10E942B0260E083E10E942B020E9433
:10167000010BD093BA00C093B800DF91CF910895C9
:10168000CF92DF92EF92FF920F931F93CF93DF934E
:10169000D0916D0481E0D13208F09CC0C0916C04FF
:1016A0000E9407036B017C018091440481116CC08E
:1016B00082E08093440481E0809343048FEF809321
:1016C000420410924104D0934004ACE4B4E0E0E260
:1016D000F4E080E0D8138DC010921F0480911F04A5
:1016E000CC0FC82BC0931F0480911E04813009F0D9
:1016F00084C010921E040E9407036B017C0180913C
:101700001F048093BB008091460490914704A091F0
:101710004804B0914904892B8A2B8B2BA1F00E949D
:10172000070300914604109147042091480430912A
:1017300049046C197D098E099F09061717072807A8
:10174000390708F442C08091BC0083FDD8CF85ECF6
:101750008093BC000E9407036B017C0180914404CC
:10176000823009F44CC0809142048F3F09F469C073
:1017700080914204803209F466C080914204803333
:1017800009F463C084E026C0809146049091470428
:10179000A0914804B0914904892B8A2B8B2B09F422
:1017A00083CF0E94070300914604109147042091C3
:1017B0004804309149046C197D098E099F09061768
:1017C00017072807390708F06FCF809145040E945A
:1017D0001F0B85E010924B0410926D0410924A0486
:1017E000DF91CF911F910F91FF90EF90DF90CF90FD
:1017F00008959D9191938F5F6DCF85EEA9CF8091D4
:10180000460490914704A0914804B0914904892B63
:101810008A2B8B2B09F4A2CF0E9407030091460468
:101820001091470420914804309149046C197D09B6
:101830008E099F09061717072807390708F08ECF6A
:10184000C4CF80E0C7CF82E0C5CF83E0C3CFE091B3
:101850003A0380913903E81730F4F0E0E457FD4F84
:10186000808190E008958FEF9FEF089590913A0363
:10187000809139032FEF3FEF981748F4E92FF0E0FC
:10188000E457FD4F208130E09F5F90933A03C901F8
:1018900008958091390390913A03891B990B08951B
:1018A000CF92DF92EF92FF920F931F93CF93DF932C
:1018B0007C01CB018A0120914A04222389F0EB01AB
:1018C0006B01C40ED51ECC15DD0569F06991D701F9
:1018D000ED91FC910190F081E02DC7010995F3CFC6
:1018E000642F0E94DA0AC801DF91CF911F910F91F6
:1018F000FF90EF90DF90CF900895CF93DF931F92EA
:10190000CDB7DEB7698320914A042223F9F02091F4
:101910006D04203258F021E030E0FC013383228353
:1019200090E080E00F90DF91CF91089580914B047B
:10193000E82FF0E0E45BFB4F998190838F5F809309
:101940004B0480936D0481E090E0ECCF61E0CE0128
:1019500001960E94DA0AF7CF682F8FE295E00C9487
:101960007D0CFC01248131E030934A0420936C0407
:1019700010924B0410926D048385862B90E00E9498
:10198000AC0C0C94400B90E080E00895FF920F9314
:101990001F93CF93DF9300916E0410916F04011594
:1019A0001105C9F1FC0124813581232BA1F1F62E0B
:1019B000EC01C8010E94A409F1E0FF121FC06EE60D
:1019C00072E0C8010E94FF05BE0180916E049091F3
:1019D0006F040E94F1056BE672E080916E049091B5
:1019E0006F040E94FF0568EE73E080E090E0DF91F5
:1019F000CF911F910F91FF900C942C0363E672E03E
:101A0000C8010E94FF05BE0180916E0490916F0491
:101A10000E94F105E8CFDF91CF911F910F91FF90C8
:101A20000895CF93FC012285222339F0C1E08085FF
:101A30009185892B81F4C0E00EC060817181828123
:101A400093819F77C1E02CEA35EC47E257E30E948F
:101A5000833A181684F78C2FCF9108959F92AF92F6
:101A6000BF92CF92DF92EF92FF920F931F93CF938B
:101A7000DF9300D01F92CDB7DEB720914F03222312
:101A800009F474C07C0100E059E1C52E14E063E163
:101A9000B62E7AE0A72EE0E19E2EDD24D394202FEF
:101AA00030E0F701848195812817390708F05EC07E
:101AB00080819181009709F443C0820F931FFC013C
:101AC000208119821A821B8280ED820F8A30D0F524
:101AD000022E000C330B20533109C901880F991FC6
:101AE000280F391FDE01119690E080E02B5B3D4FFF
:101AF000F901E80FF91FE491ED9301968330910508
:101B0000B9F780910401D0924A0480936C0410923A
:101B10004B0410926D0480E490E00E94AC0C43E012
:101B200050E0BE016F5F7F4F8FE295E00E94500C46
:101B300090E080E00E94AC0C0E94400B0F5FAFCFA2
:101B400020E0BFCF2D3221F41B831A831983D9CF14
:101B50002E3211F49A82D5CF2A3311F4AA82D1CF32
:101B6000253279F6C9821A83BB82CBCF0F900F90B2
:101B70000F90DF91CF911F910F91FF90EF90DF9029
:101B8000CF90BF90AF909F900895CF93C82F809132
:101B9000040191E090934A0480936C0410924B04EA
:101BA00010926D0490E080E00E94AC0C6C2F8FE2EC
:101BB00095E00E947D0CCF910C94400BCF93803226
:101BC00008F08FE1C82FCC0FCC0F862F683008F0BB
:101BD00087E0806B0E94C50D8C2F8C700E94C50D14
:101BE0008C2F82958F708061CF910C94C50D0F93CF
:101BF0001F93CF93DF9380914F03882359F1C0E067
:101C000001E06C2F80E00E94DE0DD8E0809104019D
:101C100000934A0480936C0410924B0410926D045C
:101C200080E490E00E94AC0C10E190E080E00E9423
:101C3000AC0C1150D1F70E94400BD15039F7CF5F57
:101C4000C830F9F660E080E0DF91CF911F910F91ED
:101C50000C94DE0DDF91CF911F910F910895CF93DA
:101C6000DF938093040110923A031092390310928B
:101C70004B0410926D040E94010B8CE898E0909345
:101C80003603809335038DE898E090933803809372
:101C90003703CCE2D2E0FE0184910E94C50D21966B
:101CA000F2E0C534DF07B9F781E080934F03DF919D
:101CB000CF910C94F70D0F931F93CF93DF93CDB774
:101CC000DEB72A970FB6F894DEBF0FBECDBF0091E6
:101CD0006E0210916F020115110589F11E821D829D
:101CE0009EE799839FEF9A8396E09B839FEE9A8766
:101CF0008C83272F30E07E836F8390E08B5F9E4F35
:101D0000820F931F860F911D919581959109988758
:101D10008987C8010E94A409D801ED91FC91028035
:101D2000F381E02D4AE050E0BE016F5F7F4FC801B4
:101D3000099568E770E080E090E00E942C032A9605
:101D40000FB6F894DEBF0FBECDBFDF91CF911F91CC
:101D50000F910895CF93C0E080917002C81758F496
:101D6000EC2FF0E0EB5FFE4F70E060E080810E94BE
:101D70009502CF5FF1CF80910A0187FF0E945F0338
:101D800080916E0290916F02892B31F070E060E0DB
:101D900086E1CF910C945B0ECF910895CF92DF92A4
:101DA000EF92FF921F93CF93DF93E0E0F1E0DF012A
:101DB000D0E0C0E0482F50E02D91022E000C330BF4
:101DC0002417350781F4CE01880F991FC80FD91F3A
:101DD000C05ADA4FCE01DF91CF911F91FF90EF9063
:101DE000DF90CF9008952196C430D10529F7F12CCA
:101DF000E12C919197FF63C0F701E050FF4F808382
:101E00006701CC0CDD1CE601CE0DDF1DC05ADA4F98
:101E100098819C30F8F6182F61E00E945902888161
:101E2000282F30E0F901EE0FFF1FE20FF31FE55CF2
:101E3000FA4F1F739081907C192B108319821A829C
:101E40002CE0622F0E94123C829FB001112430E0EE
:101E500020E0AB01420F531FFA01EE0FFF1FE40F0A
:101E6000F51FE55CFA4F908196FD16C02F5F3F4F3E
:101E70002C30310571F781110FC01092800082E083
:101E8000809381001092850010928400B19A809115
:101E90006F00826080936F00F601EE0DFF1DE05A27
:101EA000FA4FE0818E2F90E0FC01EE0FFF1FE80F4C
:101EB000F91FE55CFA4F8081806480838BCF9FEFB0
:101EC000E91AF90A94E0E916F10409F092CFD0E09A
:101ED000C0E080CFE0917002A5E0B1E090E0E917AA
:101EE00029F02D91281761F09F5FF9CFE43040F47D
:101EF00091E09E0F90937002F0E0EB5FFE4F8083C5
:101F00000895EF92FF920F931F93CF93DF93082FC3
:101F1000162F7A01EA014F3F510519F014F0CFEF67
:101F2000D0E0C1308FEFD80714F4C1E0DFEF802F8D
:101F30000E946A0F812F0E946A0F61E0802F0E9429
:101F4000590261E0812F0E945902BE01802F1E14A8
:101F50001F049CF070E060E0EF2879F00E94950289
:101F6000662777276C1B7D0B812FDF91CF911F9107
:101F70000F91FF90EF900C9495020E94950270E0F3
:101F800060E0F2CF0F931F93CF93DF93D82FC62F2C
:101F900061E00E94590260E08D2F0E942B028BE5C8
:101FA00094E00197F1F78C2FC63008F085E0825F4E
:101FB0000E94F2028C018BE990E00197F1F761E059
:101FC0008D2F0E942B028BE397E90197F1F7C8014F
:101FD000DF91CF911F910F910895DC0114968D919F
:101FE0009C9115976817790750F4ED91FC91119722
:101FF000E60FF71F15967C936E9314971082089541
:102000000F931F93CF938C01C62F0E94B10C6C2F9E
:102010006460C8010E94B10C6C2F6B7FC8010E94E4
:10202000B10C83EC90E00197F1F7CF911F910F91E4
:1020300008950F931F93CF93DF938C01D62FC42F56
:10204000607F642B0E94001080E1D89FB0011124B2
:102050006C2BC801DF91CF911F910F910C94001050
:10206000CF93DF93CDB7DEB728970FB6F894DEBFD6
:102070000FBECDBF28E0E1E1F1E0DE011196019055
:102080000D922A95E1F7FC012085241710F44FEFFB
:10209000420F50E0440F551F21E030E02C0F3D1F50
:1020A000420F531FFA012081620F606840E02896BA
:1020B0000FB6F894DEBF0FBECDBFDF91CF910C9469
:1020C000191040E061E00E9419108BE39FE1019735
:1020D000F1F7089541E00E94191081E090E0089521
:1020E0000F931F93CF93DF93EC0110923A0310925A
:1020F000390310924B0410926D040E94010B8CE87E
:1021000098E090933603809335038DE898E09093A0
:102110003803809337031D828A85823010F098E05F
:102120009D83888762E370E080E090E00E942C034A
:102130006B85CE010E94B10C68EE73E080E090E008
:102140000E942C0360E3CE010E9400100BE416E411
:10215000C8010197F1F760E3CE010E940010C801A9
:102160000197F1F760E3CE010E94001083E592E051
:102170000197F1F760E2CE010E9400106D8160626C
:1021800040E0CE010E94191084E08E8340E06CE0B4
:10219000CE010E941910CE010E94611082E08F834F
:1021A00040E066E0CE010E94191040E062E0CE01FE
:1021B0000E9419108BE39FE10197F1F7DF91CF9116
:1021C0001F910F910895FC014481558170E060E0FA
:1021D000818592850C940F3ECF92DF92EF92FF9211
:1021E0000F931F93CF93DF93EC016B01F42EE52E39
:1021F000198218861F86188A198A1A8A81E08E87A2
:102200008B871C8692E09D8788838B01000F111FAE
:10221000060F171F1D830C83C8010E94243C9A8758
:102220008987009789F1A80170E060E00E940F3E65
:10223000DB82CA82FE82EF828981882341F061E0DD
:102240008F2D0E94590260E08F2D0E942B028F2D4E
:102250009E2DFC01E95BFC4FE491F0E0EE0FFF1FC7
:10226000E35CFC4F259134913C8B2B8BFC01E75DAB
:10227000FC4FE491ED8BDF91CF911F910F91FF9077
:10228000EF90DF90CF9008951D821C821B821A82EE
:10229000D1CF0F931F93CF93DF938C01EB01FC0100
:1022A000808191810097E1F06881798161157105E4
:1022B000A9F0428153812C813D814217530770F070
:1022C0000E941F3E8C819D81F801958384831D822D
:1022D0001C82DF91CF911F910F9108950E94C03C05
:1022E00088819981F801918380838A819B8193837E
:1022F00082838C819D8195838483198218821B82BD
:102300001A82E5CFCF92DF92EF92FF920F931F9345
:10231000CF93DF93EC018B01FB01C190D190E19051
:10232000F190BF01FC01C192D192E192F192CF01F3
:102330006E177F0711F00E944911F80182858A8784
:10234000CE01DF91CF911F910F91FF90EF90DF9021
:10235000CF900895CF93DF93EC0188819981009706
:1023600011F00E94C03C198218821D821C821B82BF
:102370001A82DF91CF910895FC01808191810097AD
:1023800011F00C94C03C08950F931F93CF93DF93EB
:10239000861306C080E0DF91CF911F910F910895C1
:1023A000062F182FC0916E02D0916F02209731F046
:1023B000CE010E948C09CE010E94C03C8FE190E0CA
:1023C0000E94243CEC011B821A8288EE93E0A0E07C
:1023D000B0E08C839D83AE83BF838DE191E09983D0
:1023E00088831F8A1E8A198E188E1B8E1A8E1D8E48
:1023F0001C8E8E8D8E7F8D7F8E8F602FCE010E94E2
:102400006309612FCE010E943A09D0936F02C093F5
:102410006E02209709F4BECF40E855E260E070E01C
:10242000CE010E94D509CE010E94A40964E670E0A5
:1024300080E090E00E942C0370E060E08CE00E945D
:102440005B0E68E978E080E090E00E942C0362E097
:1024500070E089E00E945B0E6CE271E080E090E049
:102460000E942C0381E097CF0F931F93762F890151
:102470009A0190E0FC01E75DFC4F6491FC01E95B8F
:10248000FC4FE4917111762FF0E0EE0FFF1FE15E3B
:10249000FC4F85919491472F0E946A29611571051F
:1024A0008105910529F06F5F7F4F8F4F9F4F9F7080
:1024B0001F910F910895AF92BF92CF92DF92EF924A
:1024C000FF920F931F93CF93DF9300D000D01F9202
:1024D000CDB7DEB7182F062FF42ECE0101966C0172
:1024E00085E0F60111928A95E9F761E0812F0E945B
:1024F000590260E0812F0E942B0264E170E080E0CD
:1025000090E0063121F462E070E080E090E00E940B
:102510002C0361E0812F0E942B0283E790E001975A
:10252000F1F762E0812F0E94590228EE33E040E08B
:1025300050E060E0812F0E943412672B682B692BDA
:10254000A1F460E070EC89E794EC0F900F900F908D
:102550000F900F90DF91CF911F910F91FF90EF900F
:10256000DF90CF90BF90AF90089528EE33E040E029
:1025700050E061E0812F0E943412672B682B692B99
:1025800001F3B12CA12C28EE33E040E050E060E0F4
:10259000812F0E943412672B682B692B91F228EE51
:1025A00033E040E050E061E0812F0E943412611579
:1025B00071058105910529F2F50123E0F595E7956F
:1025C0002A95E1F7EC0DFD1D2081220F693271057E
:1025D0008105910508F03EC02083FFEFAF1ABF0AC6
:1025E00088E2A816B10479F6B9806A811B819C81C2
:1025F0008B2D860F810F890F2D818213A2CF06317B
:1026000069F582E090E0FF2011F090E080E08C0D11
:102610009D1DFC01008110E0102F0027E3E0F0E099
:10262000FF2011F0E1E0F0E0EC0DFD1D8081082BB2
:10263000B8017F7790E080E00E948F372DEC3CEC72
:102640004CEC5DE30E94F037F1107FCF17FF7DCF98
:1026500090587BCF822F81608083BFCFFF20D1F045
:1026600070E090E080E00E9491372DEC3CEC4CEC67
:102670005DE30E94F0376B017C016B2D70E090E010
:1026800080E00E9491379B01AC01C701B6010E9416
:102690006F395BCF692F70E090E080E00E94913746
:1026A0002DEC3CEC4CEC5DE30E94F0376B017C01BF
:1026B000612FE4CFCF93DF93C82FD62F61E00E9424
:1026C000590260E08D2F0E94590260E08C2F0E9419
:1026D0002B0283E090E00197F1F761E08C2F0E94DC
:1026E0002B0283E290E00197F1F760E08C2F0E94CB
:1026F0002B0220E335E740E050E061E08D2F0E949F
:10270000341220E030E0A9016115710581059105C1
:1027100031F02AE330E040E050E00E94D438CA01B2
:10272000B901DF91CF910895FC0124813581FB012E
:102730004481558124173507A0F0FC0180819181E7
:10274000009779F0FB01608171816115710549F095
:10275000241B350B820F931F0E94163E21E0892B0C
:1027600009F020E0822F0895CF93DF93EC01A88138
:10277000B981EB01E881F9811097F1F03097B1F45C
:10278000EC018C819D81892BC9F08C9190E00BC06C
:10279000DB0114968D919C91892B81F0808190E0D2
:1027A000919581959109DF91CF910895BF01CD0158
:1027B000DF91CF910C94163E309751F790E080E076
:1027C000F2CFFB0101900020E9F73197AF01461BE2
:1027D000570BDC01ED91FC910280F381E02D09940F
:1027E0008F929F92AF92BF920F931F93CF93DF93DD
:1027F000CDB7DEB7A1970FB6F894DEBF0FBECDBF41
:1028000019A2423008F44AE08E010F5D1F4F842E5A
:10281000912CB12CA12CA50194010E94D438E62F53
:10282000B901CA01EA3004F5E05DD801EE938D01EB
:10283000232B242B252B79F790E080E0109729F0AB
:10284000BD0182E994E00E94E113A1960FB6F894CD
:10285000DEBF0FBECDBFDF91CF911F910F91BF9013
:10286000AF909F908F900895E95CDFCFCF93DF9377
:10287000BC0182E994E00E94FF05EC016BE571E088
:1028800082E994E00E94E1138C0F9D1FDF91CF91AC
:1028900008950F931F93CF93DF93EC010E94F105EE
:1028A0008C016BE571E0CE010E94E113800F911F56
:1028B000DF91CF911F910F9108958F929F92AF92C8
:1028C000BF92CF92DF92EF92FF925C016A017B018F
:1028D00069E272E082E994E00E94FF05A114B1046C
:1028E00029F0B50182E994E00E94E1138CE20E9494
:1028F0001007A7019601C701B6010E94D83A6EE5FC
:1029000071E081111AC046015701E894B7F82FEF22
:102910003FEF4FE75FE7C501B4010E94D83A81114C
:102920001EC02FEF3FEF4FE75FE7C501B4010E94E4
:102930008A371816A4F462E671E082E994E00E94F6
:10294000E1136BE571E082E994E0FF90EF90DF9096
:10295000CF90BF90AF909F908F900C94E1132FEF8A
:102960003FEF4FE75FE4C701B6010E94833A1816B4
:102970001CF466E671E0E1CF2FEF3FEF4FE75FEC2D
:10298000C701B6010E948A3787FDF3CF20E030E00F
:10299000A901C701B6010E948A3787FF07C08DE2EF
:1029A0000E941007F7FAF094F7F8F0942AE037ED58
:1029B00043EA5BE3C701B6010E946F394B015C013A
:1029C0000E94543A6B017C010E948F379B01AC013D
:1029D000C501B4010E946E394B015C014AE0C70198
:1029E000B6010E94F0138EE20E94100720E030E052
:1029F00040E251E4C501B4010E94F0374B015C0193
:102A00000E94543A6B01F12CE12C4AE0C701B60157
:102A10000E94F013C701B6010E948F379B01AC01E1
:102A2000C501B4010E946E3920E030E040E251E47B
:102A30000E94F0370E94543A90E080E04AE00E9401
:102A4000F0137FCF6FE172E082E994E00E94FF050E
:102A50006AE671E082E994E00E94E1136BE571E0BF
:102A600082E994E00C94E1130F931F93CF93DF93CB
:102A7000EC0188819981009759F02A813B812617C2
:102A8000370730F081E0DF91CF911F910F910895CA
:102A90008B016F5F7F4F0E94493D009759F09983EA
:102AA00088831B830A832C813D81232B59F7FC01EA
:102AB0001082E8CF80E0E7CFEF92FF920F931F9351
:102AC000CF93DF9300D0CDB7DEB78C0169831A8234
:102AD000FC01E480F580FFEFEF1AFF0AB7010E94C6
:102AE0003415882381F0F80120813181848195811A
:102AF000BE016F5F7F4F820F931F0E941F3EF80140
:102B0000F582E48281E00F900F90DF91CF911F91C9
:102B10000F91FF90EF900895EF92FF920F931F9304
:102B2000CF93DF93EC017B018A01BA010E94341537
:102B300081110BC0CE010E94AA11CE01DF91CF916D
:102B40001F910F91FF90EF9008951D830C83B701A3
:102B5000888199810E941F3EF0CFCF93DF93EC01D3
:102B60006115710571F0FB0101900020E9F73197C3
:102B7000AF01461B570B0E948C15CE01DF91CF9100
:102B800008950E94AA11F9CFCF93DF93EC01FB01C6
:102B90008617970749F0608171816115710541F0D1
:102BA000448155810E948C15CE01DF91CF9108950B
:102BB0000E94AA11F9CF0F931F93CF93DF93EC01DB
:102BC0008B01FB0181919191A191B191BF0188830A
:102BD0009983AA83BB831D821C821F821E82198651
:102BE0001886CE0104960E94C415F80182858A8752
:102BF000DF91CF911F910F910895FC0111821082F6
:102C00001382128215821482FB0101900020E9F7E1
:102C10003197AF01461B570B0C948C15CF92DF9266
:102C2000EF92FF92CF93DF93EC016DE571E00E948C
:102C3000FD1580916E0490916F04009709F441C0D6
:102C40000E94A4098FB7F894C0901604D09017047E
:102C5000E0901804F09019048FBF2FB7F89480917A
:102C6000160490911704A0911804B09119042FBF75
:102C70008C199D09AE09BF0980359105A105B105E3
:102C800000F580916E0490916F04DC01ED91FC9150
:102C90000084F185E02D0995892BF9F280916E046D
:102CA00090916F04DC01ED91FC910284F385E02D9D
:102CB00009958D3011F08A3061F48C819D81892BCA
:102CC00001F3CE01DF91CF91FF90EF90DF90CF9095
:102CD0000895682FCE010E945C15D3CF6DE571E099
:102CE00004960C94FD15AF92BF92CF92DF92EF92B3
:102CF000FF920F931F93CF93DF9300D01F92CDB716
:102D0000DEB76C018B016DE571E00E94FD150115C8
:102D1000110559F1F80101900020E9F731975F01A1
:102D2000A01AB10AB50176956795C6010E943415BF
:102D3000EE24E394F12CEA14FB04B8F41B82F801AE
:102D40008081898381818A8340E150E070E060E086
:102D5000CE0101960E945D32C6010E945C15F2E030
:102D6000EF0EF11C0E5F1F4FE6CFC6010F900F90C4
:102D70000F90DF91CF911F910F91FF90EF90DF9017
:102D8000CF90BF90AF90089585ED8093BC00809167
:102D9000460490914704A0914804B09149040796D5
:102DA000A11DB11D23E0B695A795979587952A9506
:102DB000D1F72091BC0024FD03C010924404089573
:102DC0004091460450914704609148047091490431
:102DD000452B462B472B69F30097A105B10541F020
:102DE0002AE22A95F1F700C00197A109B109E1CFC4
:102DF000809145040C941F0B1F93CF93DF93EC013C
:102E0000162F0E94AE38181739F0612FCE01DF91CE
:102E1000CF911F910C94B638DF91CF911F910895F7
:102E20000C94AE38AF92BF92CF92DF92EF92FF92A6
:102E30000F931F93CF93DF9310925F0383E090E093
:102E40000E941017C82F84E090E00E941017D82F1E
:102E5000D0935303C093520385E090E00E94101773
:102E6000082F86E090E00E941017182F10938A0216
:102E70000093890287E090E00E941017A82E88E056
:102E800090E00E941017B82E90E080E00E9410178A
:102E90008F3409F046C081E090E00E9410178D3415
:102EA00009F03FC082E090E00E9410178130C9F520
:102EB000CE010197873F9340A0F5C017D10788F155
:102EC000D12CC12CF12CE12CC70109960E941017BE
:102ED000C80ED11C8FEFE81AF80ACE15DF05A1F74E
:102EE000AC14BD04F1F4E0E7F4E080E2DF011D92F0
:102EF0008A95E9F710924C0310925B0310925C03E1
:102F000010925D0310925E0381E0012B09F080E0D6
:102F100080938B02109291041092900481E0809330
:102F20005F03DF91CF911F910F91FF90EF90DF90A2
:102F3000CF90BF90AF9008952091520330915303EA
:102F40008217930718F409960C94101780E00895DF
:102F50004F925F926F927F928F929F92AF92BF92A9
:102F6000CF92DF92EF92FF920F931F93CF93DF9355
:102F7000CDB7DEB7E9970FB6F894DEBF0FBECDBF71
:102F80007C01FB018285882321F1F70111821082E7
:102F900013821282158214826C5F7F4FC7010E94D8
:102FA000C415C701E9960FB6F894DEBF0FBECDBFBA
:102FB000DF91CF911F910F91FF90EF90DF90CF9015
:102FC000BF90AF909F908F907F906F905F904F9049
:102FD000089580809180A280B38020E030E0A90134
:102FE000C501B4010E94833A20E030E040E05FE395
:102FF00087FD39C0C501B4010E946F390E944D3A66
:103000000E9491372B013C01AC019B01C501B40129
:103010000E946E399F772FE632E143E85AE30E941F
:103020008A379E012F5F3F4F690187FF21C0F7015B
:10303000118210821382128215821482C301B2019E
:103040000E944D3A2AE0A6010E949F33F6010190AA
:103050000020E9F73197AF014C195D09B601C701AE
:103060000E948C159ECFC501B4010E946E39C6CF57
:103070001DAA1CAA1FAA1EAA19AE18AE890122E019
:1030800044E0C501B4010E943F32BC01CE01C496A8
:103090000E94AD1560E771E0C6010E94FD15B60102
:1030A000CE01C4960E949413B82EC6010E94BC1192
:1030B000BB2049F068AD79AD61507109CE01C4966D
:1030C0000E94ED0FE7CF62E771E0C6010E94FD1597
:1030D000B601CE01C4960E949413B82EC6010E9478
:1030E000BC11BB2041F068AD79AD61507109CE01D2
:1030F000C4960E94ED0FF701118210821382128292
:1031000015821482BE016C5C7F4FC7010E94491179
:10311000CE01C4960E94BC1144CFFC018285882355
:1031200031F084819581009739F00C9448336081A7
:10313000718182819381089560E070E0CB010895F0
:103140000F931F93CF93DF93EC018B010E946E16B8
:10315000F80180819181009799F00E944833FE0127
:103160006193719381939193B801CF010E94C4152B
:1031700081E08A87CE01DF91CF911F910F91089551
:1031800060E070E0CB01EBCF2F923F924F925F92C5
:103190006F927F928F929F92AF92BF92CF92DF9267
:1031A000EF92FF920F931F93CF93DF93CDB7DEB7CC
:1031B000C35AD1090FB6F894DEBF0FBECDBF4C0184
:1031C00080919004909191041C012FEF221A320AF1
:1031D00030929104209290040E949C17280E311C7A
:1031E000CE0101967C018E01075A1F4FC956DF4F51
:1031F00099838883C759D040C7010E946E169BE00F
:10320000E90EF11CE016F106B9F7F12CA4E6B0E0E6
:10321000AC0FBD1F1496C456DF4FB983A883CC5999
:10322000D040EFE6F0E0EC0FFD1F3496C056DF4FC4
:10323000F983E883C05AD0402AE730E02C0F3D1FC5
:103240002C5F3F4FCE55DF4F39832883C25AD04081
:10325000C0909004D0909104C214D30408F01DC60D
:1032600036013FEF631A730A7092910460929004E2
:10327000C6010E949C17E82E81E0E81237C097E053
:103280009F1530F338016801A4E0CA0ED11C80916B
:103290009004909191049C012F5F3F4F30939104D3
:1032A000209390040E949C17F30181933F01CE1656
:1032B000DF0669F7D8014D905D906D907C90C80154
:1032C0000E946E16F80140825182628273821286D9
:1032D000EE24E394EF0CB80181E090E08C0F9D1F89
:1032E000FBE0FF9E800D911D11248FC022E0E212B1
:1032F00056C032E0C30ED11CD0929104C09290040B
:10330000C3010E949C17E82E6DE571E0CE018C5937
:103310009F4F0E94FD156E2D70E0CE018C599F4F7E
:103320000E943415EE20C1F0809190049091910498
:10333000EA948215930580F49C012F5F3F4F3093F0
:103340009104209390040E949C17682FCE018C5901
:103350009F4F0E945C15E6CF87E08F15D0F0BE012D
:103360006C597F4FC8010E94A018EE24E394EF0C23
:10337000B80181E090E08C0F9D1FABE0FA9E800DBC
:10338000911D11240E948211C80104960E94BC1153
:10339000FE2CCE018C599F4F0E94BC1159CFB3E037
:1033A000EB123BC0E2E0CE0ED11CD0929104C09251
:1033B0009004C3010E949C17F7E0FF1508F448CF62
:1033C000883008F095C024E0829FF0011124E05974
:1033D000FB4F4080518062807380C8010E946E164E
:1033E000D8014D925D926D927C9213971A961C9221
:1033F000EE24E394EF0CB80181E090E08C0F9D1F68
:10340000BBE0FB9E800D911D11240E948211C8011A
:1034100004960E94BC11FE2C1BCFE4E0EE122EC0DD
:10342000F2E0CF0ED11CD0929104C0929004C3015F
:103430000E949C1727E02F1508F40ACF90E0B0E017
:10344000A0E086309105A105B10524F085E090E06B
:10345000A0E0B0E0825F0E94F2026C01C8010E940D
:103460006E16B601DD0C880B990B0E949137D801BE
:103470006D937D938D939C931397B8CFE5E0EE12F7
:1034800016C0F2E0CF0ED11CD0929104C0929004ED
:10349000C3010E949C17E82E60E00E94590227E0B9
:1034A0002F1508F4D5CE8E2D0E940202D6CFE6E06D
:1034B000EE1222C0F2E0CF0ED11CD0929104C09245
:1034C0009004C3010E949C17E82E60E00E945902FC
:1034D00027E02F1508F4BCCE8E2D0E940202412C4D
:1034E000512CF0E86F2EFFE37F2E019709F475CF82
:1034F000412C512C320171CFE7E0EE1226C026019B
:10350000F2E04F0E511C5092910440929004C3017E
:103510000E949C17E82E23E0C20ED11CD092910489
:10352000C0929004C2010E949C1737E03F1508F436
:103530008FCE682F8E2D0E945A132B013C01C8019B
:103540000E946E16C301B20190CFE8E0EE1231C0C6
:103550002601F2E04F0E511C5092910440929004CB
:10356000C3010E949C17E82E360123E0620E711CF5
:103570007092910460929004C2010E949C17582E90
:1035800034E0C30ED11CD0929104C0929004C301C8
:103590000E949C1797E09F1508F45ACE41E08111D4
:1035A00001C040E0652D8E2D0E945B122B013C0175
:1035B00014CFE9E0EE121FC02601F2E04F0E511CBD
:1035C0005092910440929004C3010E949C17E82EEF
:1035D00023E0C20ED11CD0929104C0929004C2018B
:1035E0000E949C1737E03F1508F432CE682F8E2DCD
:1035F0000E94C20F32CFEAE0EE1224C0C0906E04E7
:10360000D0906F04C114D10409F48FC4C6010E9484
:10361000A409F7E0FF1508F41BCED601ED91FC914B
:103620000084F185E02DC6010995412C512CE0E87C
:103630006E2EEFE37E2E892B09F041CE412C512CCA
:1036400032013DCE2BE0E21228C037E03F1508F4EE
:10365000FFCDCE018C599F4F0E940E16BE016C59B2
:103660007F4FC8010E94A018DD24D394DF0CB8015D
:1036700081E090E08C0F9D1FFE9C800D911D112418
:103680000E948211C80104960E94BC11CE018C597F
:103690009F4F0E94BC11FD2CDBCD8AE2E8122DC0A9
:1036A000FF2009F4D5CD81E090E08C0F9D1FABE0A9
:1036B000FA9E800D911D1124FC013B976F01CF01F3
:1036C0000E94110DE82EC8010E946E1661E0E626E8
:1036D0006E2D70E090E080E00E948F37D8016D93EE
:1036E0007D938D939C9313971A961C92B801C601F3
:1036F0000E948211C80104964FCEB1E0BF1508F0B8
:10370000A7CDEFEFEF0DC756DF4FE883C959D04083
:103710007BE0D72E61E070E06C0F7D1FED9D600DAA
:10372000711D1124CE0186589F4F0E94DB15FA941B
:10373000FA942F2D30E0C256DF4F39832883CE59BB
:10374000D040FD9CC0011124C656DF4F9983888369
:10375000CA59D04061E070E06C0F7D1F680F791F7F
:10376000CE0181599F4F0E94DB15CE018C599F4F8E
:103770000E946E16A8961CAE1DAE1EAE1FAEA89778
:10378000AF961FAEAF97CE0181599F4F0E948D1803
:103790005B016C01CE0186589F4F0E948D182B0152
:1037A0003C01ECEEEE0DE93108F0C5C0F0E0E55269
:1037B000F44E0C941E3CF41B081C241C2B1C3B1CBC
:1037C0009B1C9B1C9B1C9B1C9B1C421C071D6F1D58
:1037D0007E1D8D1D991D9B1C9B1C9B1C9B1CA51D50
:1037E000C21D9B1CE01D681EAC019B01C601B501FA
:1037F0000E946F392B013C01C8010E946E16D8014E
:103800004D925D926D927C9213971A961C9211C004
:10381000AC019B01C601B5010E946E392B013C0130
:10382000C8010E946E16F801408251826282738242
:103830001286B801CE018C599F4F0E948211C80197
:1038400004960E94BC1177C0AC019B01C601B50172
:103850000E94F037CFCF2CEA35EC47E257E39F7751
:103860000E948A3787FD61C1A3019201C601B5019B
:103870000E94DB39D3CFAC019B01C601B5010E9488
:10388000883AB8CFEA968FADEA97811108C0CC5735
:10389000DF4FE880C458D040EE2009F49FC0BE013D
:1038A00066587F4FCE018B579F4F0E94A817BE01CD
:1038B00061597F4FCE0185579F4F0E94A817C1576E
:1038C000DF4F28813981CF58D040C757DF4F8881DB
:1038D0009981C958D0402817390759F4BE016B5750
:1038E0007F4FCE0185579F4F0E94B41361E0892B13
:1038F00009F060E070E090E080E00E9491372B01D9
:103900003C01EE24E394C8010E946E16F801408247
:103910005182628273821286B801CE018C599F4F08
:103920000E948211C80104960E94BC11CE018557E5
:103930009F4FE110C1C1B7E0BF15C8F18BE0C2567F
:10394000DF4FE881F981CE59D0408E9F70018F9F63
:10395000F00C112421E030E02C0F3D1FE20EF31E8D
:10396000A8968CAD9DADAEADBFADA897F701808395
:103970009183A283B383C656DF4F88819981CA5948
:10398000D0400496C456DF4F68817981CC59D0402D
:10399000820F931F0E94C415AF968FADAF97D701CA
:1039A0001A968C93C756DF4FF880C959D040C45639
:1039B000DF4F88819981CC59D0400E94BC11C056FC
:1039C000DF4F88819981C05AD0400E94BC11CE55EA
:1039D000DF4F88819981C25AD040DECCA301920189
:1039E000C601B5010E946E399F772CEA35EC47E29B
:1039F00057E30E948A37412C512C60E8662E6FE312
:103A0000762E87FD80CF412C512C32017CCFEA9657
:103A10008FADEA97811108C0CC57DF4FE880C458BA
:103A2000D040EE2009F442C0BE0166587F4FCE015F
:103A30008B579F4F0E94A817BE0161597F4FCE013F
:103A400085579F4F0E94A817C157DF4F28813981A2
:103A5000CF58D040C757DF4F88819981C958D0408F
:103A60002817390759F4BE016B577F4FCE01855790
:103A70009F4F0E94B41361E0892B09F060E081E060
:103A8000682770E090E080E00E9491372B013C01B4
:103A9000EE24E394C8010E946E16D8014D925D9207
:103AA0006D927C9213971A961C9236CFA3019201C5
:103AB000C601B5010E946E399F772CEA35EC47E2CA
:103AC00057E30E94833A412C512C50E8652E5FE366
:103AD000752E87FFDFCF412C512C3201DBCFAC019B
:103AE0009B01C601B5010E948A3787FF1EC0412C89
:103AF000512C40E8642E4FE3742E92CEAC019B0112
:103B0000C601B5010E948A371816DCF0412C512CF1
:103B100030E8632E3FE3732E6FCEAC019B01C601EC
:103B2000B5010E94833A181614F3412C512C32012E
:103B300077CEAC019B01C601B5010E94833A87FF95
:103B4000E5CF412C512C320157CECE0181599F4FE8
:103B50000E94110DE82E882331F0CE0186589F4F28
:103B60000E94110DE82EC8010E946E166E2D70E0A5
:103B700090E080E00E948F37F80160837183828338
:103B8000938356CECE0181599F4F0E94110DE82E8E
:103B9000811106C0CE0186589F4F0E94110DE82E5C
:103BA000C8010E946E166E2D70E090E080E00E94C9
:103BB0008F37D8016D937D938D939C93139725CE6A
:103BC000BE0166587F4FCE018B579F4F0E94A817AA
:103BD000BE0161597F4FCE018F569F4F0E94A8179B
:103BE000C557DF4F19821882CB58D040C357DF4FDB
:103BF00019821882CD58D040C157DF4F19821882E0
:103C0000CF58D040BE016F567F4FCE0185579F4F92
:103C10000E94C415CB57DF4F68807980C558D040CB
:103C20006114710409F44EC0C757DF4FC880D980B2
:103C3000C958D040C114D10439F1C157DF4F888130
:103C40009981CF58D040C80ED91EB601CE018557F4
:103C50009F4F0E9434158823A9F1C557DF4F288153
:103C60003981CB58D040C157DF4F88819981CF58D7
:103C7000D040B301820F931F0E941F3EC157DF4FF8
:103C8000D982C882CF58D040BE0165577F4FC80146
:103C90000E94A018B801CE018C599F4F0E9482113A
:103CA000C80104960E94BC11CE0185579F4F0E9407
:103CB000BC11CE018F569F4F0E94BC11CE018B5775
:103CC0009F4FBFCDCE0185579F4F0E94AA11DCCFD9
:103CD000C601B5010E944D3A6B01613471051CF0BB
:103CE00020E4C22ED12C1C141D041CF0CC24C3943F
:103CF000D12CC301B2010E944D3A3B01C616D70632
:103D00000CF43601161417041CF066246394712C0D
:103D1000CE018F569F4F0E940E16CB56DF4F488024
:103D20005980C559D040C414D5040CF426016DE562
:103D300071E0C8010E94FD15CB56DF4F8881998143
:103D4000C559D040009709F18415950508F42C0158
:103D5000CF56DF4FE881F981C159D040E40DF51D00
:103D6000E0801082CF56DF4F68817981C159D04001
:103D7000C8010E94AD15CF56DF4F88819981C15986
:103D8000D040480E591EF201E082B801CE018F5694
:103D90009F4F0E944911C8010E94BC116301CB567C
:103DA000DF4F88819981C559D0408615970508F461
:103DB00063C02301F1E04F1A51086414750410F038
:103DC000620123016DE571E0CE018B579F4F0E9488
:103DD000FD15CB56DF4F68807980C559D040C61499
:103DE000D70428F54614570408F43201CF56DF4FA4
:103DF000E881F981C159D040E60DF71DE0801082BD
:103E0000CF56DF4F68817981C159D0406C0D7D1D3F
:103E1000CE018B579F4F0E94AD15CF56DF4F888143
:103E20009981C159D040680E791ED301EC92BE0130
:103E30006B577F4FC8010E94A018D12CEE24E39449
:103E4000B801CE018C599F4F0E948211C80104967F
:103E50000E94BC11DD2029F0CE0185579F4F0E94A2
:103E6000BC11EE2029F0CE018B579F4F0E94BC1150
:103E7000CE018F569F4FE5CC6DE571E0CE018557A1
:103E80009F4F0E94FD15BE0165577F4FC8010E94DC
:103E9000A018DD24D394E12CD3CF3092910420924A
:103EA0009004FF20C1F161E070E06C0F7D1FBBE06A
:103EB000FB9E600D711D11246B507109C4010E949D
:103EC000DB150B501109C80104960E94BC11C9569C
:103ED000DF4F28813981C759D0402017310789F732
:103EE000C401CD55DF4F0FB6F894DEBF0FBECDBF76
:103EF000DF91CF911F910F91FF90EF90DF90CF90C6
:103F0000BF90AF909F908F907F906F905F904F90F9
:103F10003F902F900895C4010E946E16F401108204
:103F20001182128213821286CCCF37E03F1508F43B
:103F30008FC984CB2F923F924F925F926F927F9264
:103F40008F929F92AF92BF92CF92DF92EF92FF92A9
:103F50000F931F93CF93DF93CDB7DEB765970FB65F
:103F6000F894DEBF0FBECDBF10925B0310925C03CE
:103F700010925D0310925E0320918B02A090520379
:103F8000B0905303211104C0A0908902B0908A021E
:103F900080919004909191048A159B05B8F400914A
:103FA00090041091910468012FEFC21AD20AD092A6
:103FB0009104C0929004C8010E949C17F82E8111B0
:103FC00034C0B0929104A092900416C010924C0399
:103FD0008091890290918A02211103C021E02093EF
:103FE0008B0290939104809390042091520330911E
:103FF00053038217930798F265960FB6F894DEBFC5
:104000000FBECDBFDF91CF911F910F91FF90EF9029
:10401000DF90CF90BF90AF909F908F907F906F90E8
:104020005F904F903F902F90089561E086133CC0C1
:10403000CE0101960E94C418CE0101960E948D18EF
:104040006B017C01CE0105960E94BC1120E030E09E
:10405000A901C701B6010E948A3787FF03C0C12C9E
:10406000D12C76018FB7F8948090160490901704A5
:10407000A0901804B09019048FBF20E030E04AE708
:1040800054E4C701B6010E94F0370E94543A860EEC
:10409000971EA81EB91E80925B0390925C03A092AB
:1040A0005D03B0925E03A8CF8EEF8F0D8230C8F50E
:1040B0000E5F1F4F1093910400939004C6010E945D
:1040C0009C17082FCE0101960E94C418CE010196BC
:1040D0000E948D184B015C01CE0105960E94BC1117
:1040E000083008F089CF74E0079F8001112482E036
:1040F00000591B4FF81206C0F80180829182A282FB
:10410000B3827ACFA5019401F80160817181828127
:1041100093810E946F39F801608371838283938356
:104120006BCFF4E0FF1222C0580122E0A20EB11CB6
:10413000B0929104A0929004C6010E949C17F82EA0
:104140000D5F1F4F1093910400939004C5010E94CE
:104150009C17182F61E08F2D0E94590261E0111108
:1041600001C060E08F2D0E942B0246CF65E0F61261
:1041700032C00E5F1F4F1093910400939004C6014C
:104180000E949C17182F61E00E945902CE010196EF
:104190000E94C418CE0101960E948D186B017C010B
:1041A000CE0105960E94BC11C701B6010E944D3A8E
:1041B0006F3F71058105910529F024F06FEF70E0E4
:1041C00080E090E097FF03C060E070E0CB01812FBA
:1041D0000E94950211CF76E0F71242C0780182E08A
:1041E000E80EF11CF0929104E0929004C6010E9446
:1041F0009C17D82E0D5F1F4F1093910400939004CD
:10420000C7010E949C17182FCE0101960E94C41866
:10421000CE0101960E948D184B015C01CE010596DE
:104220000E94BC11C501B4010E944D3A6F3F710557
:104230008105910529F024F06FEF70E080E090E0B7
:104240006130AFEF7A078A079A0724F461E07FEFC5
:104250008FEF9FEFAB01612F8D2D0E94810FCCCE90
:10426000E7E0FE1234C00E5F1F4F109391040093DD
:104270009004C6010E949C170E94CE0E8C01CE01B4
:1042800001960E94C418CE0101960E948D186B0100
:104290007C01CE0105960E94BC110115110509F49F
:1042A000ABCEC701B6010E944D3A653B7105810551
:1042B000910524F064EB70E080E090E097FF03C08C
:1042C00060E070E0CB01C8010E945E0A95CEF8E084
:1042D000FF126CC00E5F1F4F109391040093900467
:1042E000C6010E949C17182FCE0101960E94C41887
:1042F000CE0101960E948D186B017C01CE010596BE
:104300000E94BC11C701B6010E944D3A6B017C01AD
:1043100021E2C2162EE4D206E104F10434F050E2A8
:10432000C52E5EE4D52EE12CF12C64E1C616D10435
:10433000E104F1042CF444E1C42ED12CE12CF12C45
:10434000CE0101960E94C418CE0101960E948D18DC
:104350004B015C01CE0105960E94BC1120E030E0CB
:10436000A901C501B4010E948A3787FF03C0812CCF
:10437000912C540120E030E04AE754E4C501B40137
:104380000E94F0370E94543A9B01AC0110930A013D
:10439000211531054105510521F421E030E040E0CF
:1043A00050E0B601812F0E948B0326CE79E0F712F0
:1043B0000CC00E5F1F4F1093910400939004C60130
:1043C0000E949C170E945F0317CE8AE0F8124CC02F
:1043D0005801A2E0AA0EB11CB0929104A0929004E0
:1043E000C6010E949C17C82E7801E3E0EE0EF11C76
:1043F000F0929104E0929004C5010E949C17D82E7F
:104400000C5F1F4F1093910400939004C7010E940A
:104410009C17F82E8091500390915103009711F052
:104420000E94C03C8CE090E00E94243C8C01FC0186
:10443000138212828FE291E091838083C482D186BD
:10444000F28613861093510300935003C8010E9413
:10445000701088E0F801838760E0C8010E94B10C09
:10446000C8010E946110C8CDFBE0FF1269C0CE01F7
:1044700001960E94C418CE0101960E948D186B010E
:104480007C01CE0105960E94BC11CE0101960E94CE
:10449000C418CE0101960E948D184B015C01CE011B
:1044A00005960E94BC11CE0101960E94C418BE015F
:1044B0006F5F7F4FCE010C960E94A817CE01059624
:1044C0000E94BC1100915003109151030115110578
:1044D00091F1C701B6010E944D3A6B017C0124E0C5
:1044E000C216D104E104F1042CF033E0C32ED12C28
:1044F000E12CF12CF7FE03C0C12CD12C7601C501B3
:10450000B4010E944D3A643171058105910524F092
:1045100063E170E080E090E097FF03C060E070E04E
:10452000CB014C2DC8010E943010BE01645F7F4F4B
:10453000C8010E94F105CE010C960E94BC115CCD11
:104540006CE0F61208C080915003909151030097DF
:1045500009F087CF51CD7DE1F7120CC00E5F1F4FE0
:104560001093910400939004C6010E949C170E942E
:104570002F0E42CD8EE1F81262C0CE0101960E944C
:10458000C418CE0101960E948D186B017C01CE01EA
:1045900005960E94BC11CE0101960E94C418CE015E
:1045A00001960E948D184B015C01CE0105960E9478
:1045B000BC11CE0101960E94C418BE016F5F7F4FEF
:1045C000CE010C960E94A817CE0105960E94BC1140
:1045D00080914F03882309F4AECFC701B6010E9432
:1045E0004D3A6B017C01A8E0CA16D104E104F10444
:1045F0002CF027E0C22ED12CE12CF12CF7FE03C0C9
:10460000C12CD12C7601C501B4010E944D3ADC01C8
:10461000CB0180319105A105B10524F08FE090E038
:10462000A0E0B0E0B7FF03C080E090E0DC016C2DBB
:104630000E94DE0DCE010C960E942E0D7CCFEFE184
:10464000FE1203C00E94F70DD7CCFDE0FF125EC042
:104650000E5F1F4F1093910400939004C6010E94B7
:104660009C17B82ECE0101960E94C418CE01019667
:104670000E948D186B017C01CE0105960E94BC1131
:10468000C701B6010E944D3A6B017C012DE3C216B1
:10469000D104E104F1042CF09CE3C92ED12CE12CCF
:1046A000F12C1C141D041E041F0424F0C12CD12C59
:1046B0007601C39400914D0310914E03011511052D
:1046C00081F0F801818592850E94C03CF8018681C5
:1046D000978197FD03C060E00E945902C8010E94C3
:1046E000C03C86E190E00E94243C8C014B2D50E0C0
:1046F000B6010E94EC1010934E0300934D03C801C5
:104700000E947608C8010E94E3108FC0FEE0FF12ED
:1047100093C0CE0101960E94C418CE0101960E945A
:104720008D186A8B7B8B8C8B9D8BCE0105960E949E
:10473000BC11CE0101960E94C418CE0101960E94C0
:104740008D186B017C01CE0105960E94BC11CE0133
:1047500001960E94C418CE0101960E948D184B014B
:104760005C01CE0105960E94BC11CE0101960E940B
:10477000C418CE0101960E948D182B013C01CE0178
:1047800005960E94BC1100914D0310914E03011536
:10479000110509F431CCF801228033802114310451
:1047A00009F42ACCC301B2010E944D3A712C77FD65
:1047B00007C06F3F710519F014F06FEF70E0762EAF
:1047C000C501B4010E944D3AB12C77FD07C06F3F7F
:1047D000710519F014F06FEF70E0B62EC701B60145
:1047E0000E944D3AF12C77FD07C06F3F710519F01B
:1047F00014F06FEF70E0F62E6A897B898C899D89B1
:104800000E944D3A272D30E050E040E03B294F29EF
:1048100077FD0FC0A1E02A1A31086215730508F46C
:104820001B01B101C8010E943507C8010E94A10700
:10483000E3CB312C212CF5CFEFE0FE1209C0009123
:104840004D0310914E030115110509F05BCFD4CB38
:10485000F0E1FF123FC0780122E0E20EF11CF0927D
:104860009104E0929004C6010E949C17B82E0D5F3F
:104870001F4F1093910400939004C7010E949C174E
:10488000182FCE0101960E94C418CE0101960E94F5
:104890008D186B017C01CE0105960E94BC11612F21
:1048A0008B2D0E94C411882309F4A6CBC701B60141
:1048B0000E944D3A6F3171058105910524F06EE13A
:1048C00070E080E090E097FF03C060E070E0CB0113
:1048D00086E01FC061E1F6121FC0CE0101960E9462
:1048E000C418CE0101960E948D186B017C01CE0187
:1048F00005960E94BC11C701B6010E944D3A1616DA
:1049000017061806190624F061E070E080E090E0D8
:1049100083E00E945B0E70CB72E1F7120FC0CE01F4
:1049200001960E94C418CE0101960E948D186B0159
:104930007C01CE0105960E94BC11B8CF83E1F8122C
:1049400004C070E060E086E1E4CFA4E1FA1259C04F
:104950007801E2E0EE0EF11CF0929104E0929004F6
:10496000C6010E949C17D82E0D5F1F4F1093910413
:1049700000939004C7010E949C17C82E0E94AF2983
:104980007C0100916E0410916F040115110531F046
:10499000C8010E948C09C8010E94C03C8FE190E0D0
:1049A0000E94243C8C01FC011382128288EE93E069
:1049B000A0E0B0E084839583A683B7838DE191E086
:1049C00091838083178A168A118E108E138E128E11
:1049D000158E148E868D8E7F8D7F868F6C2DC801EF
:1049E0000E9463096D2DC8010E943A0910936F045B
:1049F00000936E04A70170E060E0C8010E94D50931
:104A0000FBCAF5E1FF1222C000916E0410916F0401
:104A100001151105D1F1C8010E94A409CE0101962A
:104A20000E94C418BE016F5F7F4FCE010C960E949A
:104A3000A817BE01645F7F4FC8010E944914CE01D0
:104A40000C960E94BC11CE01059677CD2BE1F21297
:104A500021C000916E0410916F0401151105A9F099
:104A6000C8010E94A409CE0101960E94C418BE018B
:104A70006F5F7F4FCE010C960E94A817BE01645F46
:104A80007F4FC8010E94F105DACFCE0101960E9446
:104A9000C418D9CF6CE1F61221C00E5F1F4F1093DE
:104AA000910400939004C6010E949C17182FCE0118
:104AB00001960E94C418BE016F5F7F4FCE010C9615
:104AC0000E94A817612FCE010C960E94C60CCE0141
:104AD0000C960E94BC11CE0105962FCD76E1F712FF
:104AE00019C06EE772E082E994E00E94FF05CE01F2
:104AF00001960E94C418BE016F5F7F4FCE010C96D5
:104B00000E94A817BE01645F7F4F82E994E00E9473
:104B10004914DDCF87E1F81207C00E94AF299093B6
:104B200091048093900468CAA8E1FA1212C0CE01E1
:104B300001960E94C418CE0101960E94110D182FF3
:104B4000CE0105960E94BC110E94AF29111154CAD2
:104B5000E6CFE9E1FE1235C0CE0101960E94C418ED
:104B6000CE0101960E948D180E944D3A6B017C0186
:104B7000CE0105960E94BC110E94AF299C011C1415
:104B80001D041E041F042CF0309391042093900404
:104B900033CA90914C039430B8F726E0929FF0010D
:104BA0001124EF58FD4F20919004309191043183EE
:104BB0002083C282D382E482F5829F5F90934C036C
:104BC0001BCA6AE1F61228C00E94AF299C0190918D
:104BD0004C03992309F410CAE92FE150FF0BAF01F0
:104BE00086E0849FF001859FF00D1124EF58FD4F62
:104BF0004281538164817581415051096109710974
:104C000042835383648375831416150616061706AC
:104C10000CF4BACF9150D2CF10925F0387E792E0A5
:104C20000E943614E9C9009711F00C944C33CB0163
:104C300008951F920F920FB60F9211242F933F9356
:104C40008F939F93AF93BF93809116049091170415
:104C5000A0911804B09119043091150423E0230F9A
:104C60002D3758F50196A11DB11D20931504809391
:104C7000160490931704A0931804B093190480911C
:104C80001A0490911B04A0911C04B0911D0401967C
:104C9000A11DB11D80931A0490931B04A0931C04C2
:104CA000B0931D04BF91AF919F918F913F912F9130
:104CB0000F900FBE0F901F90189526E8230F0296B5
:104CC000A11DB11DD2CF1F920F920FB60F921124CA
:104CD0002F933F934F935F936F937F938F939F9304
:104CE000AF93BF93EF93FF93809148039091490353
:104CF000A0914A03B0914B03892B8A2B8B2BD1F1C6
:104D000090914703E0914503F09146038081892704
:104D100080838091480390914903A0914A03B09108
:104D20004B03181619061A061B069CF480914803BB
:104D300090914903A0914A03B0914B030197A109B7
:104D4000B1098093480390934903A0934A03B09319
:104D50004B03FF91EF91BF91AF919F918F917F9105
:104D60006F915F914F913F912F910F900FBE0F90D8
:104D70001F901895809109010E945F03EACF1F924E
:104D80000F920FB60F9211242F933F934F935F937F
:104D90006F937F938F939F93AF93BF93EF93FF9303
:104DA00082E994E00E94A106FF91EF91BF91AF913B
:104DB0009F918F917F916F915F914F913F912F9133
:104DC0000F900FBE0F901F9018951F920F920FB665
:104DD0000F9211242F938F939F93EF93FF93E09162
:104DE000A204F091A3048081E091A804F091A904A9
:104DF00082FD1BC090818091AB048F5F8F732091E7
:104E0000AC04821741F0E091AB04F0E0EE56FB4FAA
:104E1000958F8093AB04FF91EF919F918F912F918C
:104E20000F900FBE0F901F9018958081F4CF1F92A6
:104E30000F920FB60F9211242F933F934F935F93CE
:104E40006F937F938F939F93AF93BF93EF93FF9352
:104E5000E0913303F0913403309749F0A685B7858C
:104E60008585968D91FF14C09C918923A1F4FF91B3
:104E7000EF91BF91AF919F918F917F916F915F91D2
:104E80004F913F912F910F900FBE0F901F9018954B
:104E90009C91892361F7A389B4899C918589809528
:104EA00089238C93868997890197F1F7608D718D9D
:104EB000A685B785558538E020E0CB010197F1F74D
:104EC000822F90E095958795282F4C91452309F0E6
:104ED0002068315091F7868D81FD209580913103B6
:104EE00090E001968F73992730913203381799F02B
:104EF000A0913103B0E0AF50BD4F2C9380933103AC
:104F0000828D938D0197F1F7A389B4898C9195894E
:104F1000892B8C93ACCF868D8160868FF1CF1F92C9
:104F20000F920FB60F9211242F933F934F935F93DD
:104F30006F937F938F939F93AF93BF93CF93DF93A1
:104F4000EF93FF938091F002C0915F05D0E087FF5F
:104F500024C010928500109284008091F0028F5F2F
:104F60008093F0028091F002082E000C990B8C17B0
:104F70009D0724F48091F0028C30C4F1809184006C
:104F800090918500049680349C4908F47AC0809101
:104F9000840090918500049676C08091F002082EDE
:104FA000000C990B8C179D07C4F6E091F0028E2F30
:104FB000EE0F990BFC01EE0FFF1FE80FF91FE55CE8
:104FC000FA4F808186FFC9CFE091F0028E2FEE0F5D
:104FD000990BFC01EE0FFF1FE80FF91FE55CFA4F7C
:104FE000808160E08F730E942B02B7CF20918400F4
:104FF00030918500E091F0028E2FEE0F990BFC01AD
:10500000EE0FFF1FE80FF91FE55CFA4F81819281D7
:10501000820F931F9093890080938800E091F002A3
:105020008E2FEE0F990BFC01EE0FFF1FE80FF91FFB
:10503000E55CFA4F808186FF11C0E091F0028E2F6F
:10504000EE0F990BFC01EE0FFF1FE80FF91FE55C57
:10505000FA4F808161E08F730E942B02FF91EF91E4
:10506000DF91CF91BF91AF919F918F917F916F9180
:105070005F914F913F912F910F900FBE0F901F9016
:10508000189580E49CE990938900809388008FEFC5
:105090008093F002E3CF1F920F920FB60F9211246C
:1050A0002F933F934F935F936F937F938F939F9330
:1050B000AF93BF93EF93FF938091B900887F8036C1
:1050C00009F44AC0F0F5883209F4A7C018F5803118
:1050D00009F49BC0B8F4882309F4F9C0883009F4B6
:1050E00094C0FF91EF91BF91AF919F918F917F916C
:1050F0006F915F914F913F912F910F900FBE0F9045
:105100001F901895883109F488C0803251F7809338
:10511000420414C0803409F49DC040F48033B9F3D4
:105120008833F9F68093420485ECB0C0803509F4E9
:1051300085C0883509F496C0883499F60E94C41653
:10514000D0CF883909F48CC038F5883729F050F46D
:10515000883611F0803729F683E08093440410925A
:10516000EF0257C0883809F47BC0803919F08038C5
:1051700009F0B7CF8091EF02803208F071C0E09162
:10518000EF0281E08E0F8093EF028091BB00F0E090
:10519000E153FD4F80833DC0803B39F0E0F4803A1D
:1051A00009F479C0883A09F09CCF84E080934404E4
:1051B0001092CE021092CD02E0913503F0913603A9
:1051C00009958091CD0281110FC081E08093CD02BD
:1051D0001092AD0209C0803C09F4A6CF883C09F4C6
:1051E000A3CF883B09F07DCFE091CE0281E08E0F06
:1051F0008093CE02F0E0E355FD4F80818093BB00A9
:105200009091CE028091CD0229C080911F0480939D
:10521000BB0085EC8093BC0064CF909141048091E9
:105220004004981758F5E091410481E08E0F809377
:105230004104F0E0E05EFB4F8081E9CFE091410462
:1052400081E08E0F809341048091BB00F0E0E05E2E
:10525000FB4F808390914104809140049817C8F2DD
:1052600085E8D8CFE091410481E08E0F809341041E
:105270008091BB00F0E0E05EFB4F808380914304AF
:1052800081115CCF81E080931E0484EA8093BC008E
:105290001092440426CF85EC8093BC001092440405
:1052A0008091EF02803230F4E091EF02F0E0E153C0
:1052B000FD4F10826091EF0270E0E0913703F091B2
:1052C00038038FEC92E009951092EF020ACF10920A
:1052D000420434CFCF92DF92EF92FF920F931F934D
:1052E000E82FF92F05C0015011092109310961F199
:1052F000908196239417B9F305C001501109210933
:10530000310911F1908196239413F7CFC12CD12C40
:10531000E12CF12C0AC08FEFC81AD80AE80AF80A63
:105320000C151D052E053F0579F080818623841715
:1053300091F36C2D7D2D8E2D9F2D1F910F91FF9040
:10534000EF90DF90CF90089560E070E080E090E013
:105350001F910F91FF90EF90DF90CF900895EF9203
:10536000FF920F931F93CF93DF93C0919004D0913E
:1053700091047E012FEFE21AF20AF0929104E0927A
:105380009004CE010E949C17082F10E02296D09323
:105390009104C0939004C7010E949C179801382B78
:1053A000C901DF91CF911F910F91FF90EF90089568
:1053B000109295041092940488EE93E0A0E0B0E07F
:1053C0008093960490939704A0939804B0939904C3
:1053D0002BE331E0309393042093920425EC30E0EA
:1053E00030939F0420939E0424EC30E03093A1047A
:1053F0002093A00420EC30E03093A3042093A20477
:1054000021EC30E03093A5042093A40422EC30E09A
:105410003093A7042093A60426EC30E03093A9042F
:105420002093A8041092AB041092AC041092AD0427
:105430001092AE041092320510923105809333051C
:1054400090933405A0933505B09336058DE491E033
:105450009093300580932F05E0E6F5E02CE635E0EB
:105460004FEF68EB7BE080915F058C30B0F491E00A
:10547000980F90935F05808390E0DC01AA0FBB1F1B
:10548000A80FB91FA55CBA4F12967C936E93119723
:1054900033962E173F0739F708954083F9CFCF93FE
:1054A000DF93CDB7DEB7A3970FB6F894DEBF0FBE7C
:1054B000CDBF789484B5826084BD84B5816084BD9D
:1054C00085B5826085BD85B5816085BD80916E00A2
:1054D000816080936E0010928100809181008260D3
:1054E0008093810080918100816080938100809110
:1054F00080008160809380008091B10084608093FF
:10550000B1008091B00081608093B00080917A00FA
:10551000846080937A0080917A00826080937A0020
:1055200080917A00816080937A0080917A0080680F
:1055300080937A001092C100E091A204F091A3043C
:1055400082E08083E0919E04F0919F041082E091BC
:10555000A004F091A10480E180831092AA04E0915C
:10556000A604F091A70486E08083E091A404F09162
:10557000A504808180618083E091A404F091A5045A
:10558000808188608083E091A404F091A5048081EB
:1055900080688083E091A404F091A50480818F7DD0
:1055A00080836EE571E080E090E00E942C030E9411
:1055B00022150E94121768EE862E63E0962EA12C0B
:1055C000B12C5FE2252E51E0352E82E994E00E9455
:1055D0008106892B09F41AC782E994E00E945F06CC
:1055E0008D3099F3E09114048A3009F0FDC6AE2F96
:1055F000B0E0A05ABC4F1C92EE2351F064E771E07A
:1056000080E693E00E94163E892B29F40E94221521
:1056100010921404DACF69E771E080E693E00E940B
:1056200073337C0169E771E090E080E00E9473339E
:105630008C01E114F10461F3892B51F36BE771E004
:10564000C7010E94163E892B09F054C169E771E039
:1056500090E080E00E9473337C016E0122E1C20E73
:10566000D11C712C69E771E090E080E00E947333F7
:10567000D6018D939D936D01892B21F07394B6E033
:105680007B12F0CFE114F10419F26DE771E0C7016C
:105690000E94163E892BD9F47720C9F070E060E0B3
:1056A0008A899B890E941326F82E60E00E94590285
:1056B0008F2D0E940202BC01990F880B990B0E944A
:1056C0009137AB01BC01C8010E945D14A1CF68ED08
:1056D00071E0C7010E94163E892BA9F4772099F04A
:1056E00070E060E08A899B890E94132697FD07C0BD
:1056F0008630910534F4825F0E94F202DCCF8EE0A6
:10570000FBCF83E1F9CF60E871E0C7010E94163E4C
:10571000892BB9F47720A9F070E060E08A899B8931
:105720000E941326F82E60E00E9459028F2D0E94DD
:105730000202019709F07EC040E050E060E87FE39C
:10574000C2CF67E871E0C7010E94163E892BA1F421
:10575000E1E0E71588F470E060E08C899D890E94A3
:105760001326F82E70E060E08A899B890E94132638
:105770006F2D0E945A13A3CF6DE871E0C7010E94FC
:10578000163E892BA1F4F1E0F71588F470E060E093
:105790008C899D890E941326F82E70E060E08A892A
:1057A0009B890E9413266F2D0E94C20F84CF62E94D
:1057B00071E0C7010E94163E892B01F522E02715F2
:1057C000E8F470E060E08A899B890E941326D82E55
:1057D00070E060E08E899F890E9413267C0170E052
:1057E00060E08C899D890E94132641E0EF2809F42E
:1057F00040E0682F8D2D0E945B1263CF66E971E057
:10580000C7010E94163E892BC9F4E0906E04F09007
:105810006F04E114F10471F0C7010E94A409D701DB
:10582000ED91FC910084F185E02DC7010995892B4C
:1058300009F082CF40E050E0BA0145CF6EE971E057
:10584000C7010E94163E892BA9F7CE014E960E94F1
:105850000E1664E872E082E994E00E94FF05B80148
:1058600082E994E00E94E1138CE20E94100781E13A
:10587000ECE5F2E0DE01119601900D928A95E1F7D8
:1058800010E000E08AA19BA10817190740F58E8D52
:105890009F8DF12C009721F0800F911FFC01F0806B
:1058A000EF2DF0E044E0F595E7954A95E1F781E0CA
:1058B00090E08C0F9D1FE80FF91F80810E94100758
:1058C000EF2DEF70A1E0B0E0AC0FBD1FAE0FB11D2A
:1058D000FD0180810E9410070F5F1F4FD3CF6BE542
:1058E00071E082E994E00E94E113CE014E960E949D
:1058F000BC118ECE65EA71E0C7010E94163E892B6D
:1059000009F007C4FE0131966F01F12C69E771E0DF
:1059100090E080E00E947333D6018D939D936D01DA
:10592000892B09F0F1C367EA71E0C8010E94163EB5
:10593000892BD9F4B1E0BF15C0F470E060E0898133
:105940009A810E941326182F61E00E94590270E08C
:1059500060E08B819C810E94132661E0892B09F411
:1059600060E0812F0E942B0253CE6AEA71E0C801E9
:105970000E94163E892B11F5E1E0EF15F8F470E076
:1059800060E089819A810E941326182F61E00E94AD
:10599000590270E060E08B819C810E9413268F3F4A
:1059A000910519F014F08FEF90E097FF02C090E09E
:1059B00080E0BC01812F0E9495022ACE6DEA71E041
:1059C000C8010E94163E892BE1F4F2E0FF15C8F4ED
:1059D00070E060E08D819E810E9413268C0170E052
:1059E00060E08B819C810E941326F82E70E060E0BD
:1059F00089819A810E941326A8016F2D0E94810F30
:105A000007CE63EB71E0C8010E94163E892B19F5A1
:105A100021E02F1500F570E060E089819A810E94F5
:105A200013260E94CE0E8C01892B09F4F1CD70E073
:105A300060E08B819C810E941326853B910514F0C8
:105A400084EB90E097FF02C090E080E0BC01C801C9
:105A50000E945E0ADDCD6BEB71E0C8010E94163E2C
:105A6000892B91F582E08F1578F570E060E08981EF
:105A70009A810E941326182F80930A0170E060E03B
:105A80008D819E810E9413261816190614F081E05C
:105A900090E06C01990FEE08FF0870E060E08B81E8
:105AA0009C810E94132664E170E08431910534F0FA
:105AB000BC0181329E4414F060E27EE4A7019601AD
:105AC000812F0E948B03A4CD69EB71E0C8010E9475
:105AD000163E892B59F4FF2049F070E060E089817F
