:100000002DC1000053C1000051C100000C94A6276F
:100010000C94A6270C94A62749C100000C94F22644
:1000200045C1000043C1000041C100000C941E28DE
:100030003DC100003BC1000039C1000037C10000D4
:100040000C94A82633C100000C9474270C944E27FE
:100050002DC100002BC1000029C1000027C10000F4
:100060000C94DA2823C1000000407A10F35A00A053
:10007000724E18090010A5D4E80000E87648170071
:1000800000E40B54020000CA9A3B000000E1F505B1
:10009000000080969800000040420F000000A086FB
:1000A00001000000102700000000E803000000002D
:1000B0006400000000000A000000000001000000D1
:1000C00000002C76D888DC674F0823DFC1DFAE59EB
:1000D000E1B1B796E5E3E453C63AE651997696E87E
:1000E000E6C28426EB898C9B62ED407C6FFCEFBC02
:1000F0009C9F40F2BAA56FA5F490055A2AF75C932D
:100100006B6CF9676DC11BFCE0E40D47FEF520E662
:10011000B500D0ED902E0300943577050080841E45
:10012000080000204E0A000000C80C333333330FA0
:10013000986E12831141EF8D2114893BE65516CF3D
:10014000FEE6DB18D1844B381BF77C1D901DA4BB49
:10015000E424203284725E228100C9F124ECA1E5FE
:100160003D2752454144592C4F4D2C00562C00AE92
:10017000D580A83FD300408D142002A1C8DA128197
:10018000CFD9F1DB40A4A6AF1F111F001F001D1522
:100190001715151F07041F17151D1F151D01011F1A
:1001A0001F151F17151F41542B4E414D45000D0AB9
:1001B0000041542B4E414D453D004C4F472C000211
:1001C000542C004C4F472C004D50335F5245414456
:1001D00059004F4B00455252004F4B00534156457A
:1001E000442C0050524F4752414D5F444154412CE2
:1001F0000050524F4752414D5F5245414459000013
:10020000000000240027002A000000000023002630
:10021000002900000000080002010000030407009C
:1002200000000000000000010204081020408001CE
:10023000020408102001020408102000000000251C
:100240000028002B00040404040404040402020235
:1002500002020203030303030300652A11241FBEE5
:10026000CFEFD8E0DEBFCDBF12E0A0E0B1E0EEE816
:10027000F6E702C005900D92AE36B107D9F725E03A
:10028000AEE6B2E001C01D92A038B207E1F711E07E
:10029000CEE2D1E004C02197FE010E944439CD3264
:1002A000D107C9F70E94DC2A0C94453BA9CE0895DA
:1002B0000895833081F028F4813099F08230A9F0DC
:1002C00008958730A9F08830C9F08430B1F4809166
:1002D00080008F7D03C0809180008F7780938000A5
:1002E000089584B58F7784BD089584B58F7DFBCF45
:1002F0008091B0008F778093B00008958091B00016
:100300008F7DF9CFCF93DF93282F30E0F901ED5E99
:10031000FD4F8491F901E95DFD4FD491F901EB5B4B
:10032000FD4FC491CC2399F08111C3DFEC2FF0E095
:10033000EE0FFF1FE75FFD4FA591B491EC91ED2308
:1003400081E090E009F480E0DF91CF91089580E0B2
:1003500090E0FACF1F93CF93DF93282F30E0F9017D
:10036000ED5EFD4F8491F901E95DFD4FD491F901F6
:10037000EB5BFD4FC491CC23A1F0162F811199DFC7
:10038000EC2FF0E0EE0FFF1FE55CFD4FA591B4915F
:100390008FB7F894EC91111108C0D095DE23DC934F
:1003A0008FBFDF91CF911F910895DE2BF8CFCF93B0
:1003B000DF9390E0FC01E95DFD4F24918B5B9D4F45
:1003C000FC0184918823C9F090E0880F991FFC01FB
:1003D000E150FE4FA591B491FC01E55CFD4FC59144
:1003E000D49161110DC09FB7F8948C912095822310
:1003F0008C938881282328839FBFDF91CF91089514
:10040000623051F49FB7F8943C91822F80958323FA
:100410008C93E8812E2BEFCF8FB7F894EC912E2B95
:100420002C938FBFEACF1F93CF93DF93182FEB014D
:1004300061E0BDDF209739F460E0812F8BDFDF9131
:10044000CF911F910895CF3FD10511F461E0F5CF11
:10045000E12FF0E0ED5EFD4FE491E33019F140F45F
:10046000E130B1F0E230C9F0C038D1057CF7E4CF1B
:10047000E73011F1E83041F1E430B1F780918000CC
:10048000806280938000D0938B00C0938A00D7CF86
:1004900084B5806884BDC7BDD2CF84B5806284BD79
:1004A000C8BDCDCF80918000806880938000D093BC
:1004B0008900C0938800C3CF8091B000806880938A
:1004C000B000C093B300BBCF8091B0008062809336
:1004D000B000C093B400B3CF8E3008F08E50877058
:1004E000806480937C0080917A00806480937A009D
:1004F00080917A0086FDFCCF809178009091790000
:1005000008953FB7F8948091200490912104A09120
:100510002204B091230426B5A89B05C02F3F19F0F3
:100520000196A11DB11D3FBFBA2FA92F982F882773
:10053000BC01CD01620F711D811D911D42E0660F4E
:10054000771F881F991F4A95D1F708958F929F9220
:10055000AF92BF92CF92DF92EF92FF926B017C013C
:10056000D0DF4B015C01C114D104E104F104B1F00E
:10057000C8DF681979098A099B09683E73408105BB
:10058000910588F321E0C21AD108E108F10888EE4C
:10059000880E83E0981EA11CB11CE5CFFF90EF9060
:1005A000DF90CF90BF90AF909F908F9008952FB71E
:1005B000F89460911C0470911D0480911E04909128
:1005C0001F042FBF0895FC01248135816217730732
:1005D00048F480819181009729F0860F971FFC01D4
:1005E0008081089580E00895089590910C01891309
:1005F0000BC0EFEBF1E0E4919FEF90930C01E13041
:1006000049F028F0E23061F060E0A4CE0895109245
:100610006E00FACF90916F009D7F90936F00F4CFA2
:10062000909170009D7F9093700091E09093B00046
:100630009091B100987F94609093B1001092B300B4
:10064000E3CFA5E0B0E0E7E2F3E00C94EE378B01F6
:1006500029013A0190910C01891739F09F3F09F463
:100660006BC02596E0E10C940A38EFEBF1E0949131
:100670009D8397FDF6CF61E09ADE8D81882321F07E
:100680009D81923009F049C14801B12CA12C60E054
:1006900072E18AE790E0A50198010E94C0372983A2
:1006A0003A834B835C8369017A0181E0C81AD108DF
:1006B000E108F1089FEFC916D104E104F10409F043
:1006C0000CF400C160E472E48FE090E0A5019801B1
:1006D0000E94C03769017A0181E0C81AD108E10897
:1006E000F1089D81923009F0A1C08FEFC816D104A6
:1006F000E104F10409F00CF4E7C160E970ED83E076
:1007000090E0A50198010E94C03769017A0191E04B
:10071000C91AD108E108F1088FEFC816D104E10425
:10072000F10411F00CF080C183E09091B100987F4A
:10073000892B8093B100CEC080930C01EFEBF1E0E8
:1007400094919D839F3F09F48CCF913039F148F00B
:10075000923009F445C09D8197FD83CF61E027DE8B
:100760008FCF14BC15BC94B5926094BD95B59160C3
:1007700095BD282F30E0F901EB5BFD4FE491F0E0EF
:10078000EE0FFF1FE55CFD4F45915491F901E95DC6
:10079000FD4FE491E09343031D826DCF10928000E2
:1007A00010928100909181009860909381009091C7
:1007B0008100916090938100282F30E0F901EB5B7C
:1007C000FD4FE491F0E0EE0FFF1FE55CFD4F45911A
:1007D0005491F901E95DFD4FE491E09342034BCF61
:1007E0001092B0001092B1009091B000926090937E
:1007F000B0009091B10091609093B100282F30E04B
:10080000F901EB5BFD4FE491F0E0EE0FFF1FE55CBB
:10081000FD4F4591549150934D0340934C03F90182
:10082000E95DFD4FE491E0934E0325CF9FEFC9169C
:10083000D104E104F10409F00CF46DC068E478EE31
:1008400081E090E0A50198010E94C03769017A011A
:1008500081E0C81AD108E108F1089D81992309F4C3
:10086000FCC08FEFC816D104E104F10411F00CF0C4
:10087000FDC0F1C064E274EF80E090E0A501940156
:100880000E94C03769017A0181E0C81AD108E108E5
:10089000F10885E09FEFC916D104E104F10409F0E5
:1008A00008F443CF62E17AE780E090E0A50194018B
:1008B0000E94C03769017A0181E0C81AD108E108B5
:1008C000F108E7C081E09D8191112FCF95B5987F08
:1008D000892B85BD2FEF3FEFA9014114510461041D
:1008E000710409F045C09D81913009F460C09230D7
:1008F00009F46FC09111B5CEC7BC20934803309363
:10090000490340934A0350934B0380916E008260E9
:1009100080936E00A6CE82E0D6CF4801B12CA12CE8
:1009200060E072E18AE790E0A50198010E94C0377B
:1009300069017A0181E0C81AD108E108F108C114FF
:10094000D10491E0E906F1040CF591E08D8181304C
:1009500009F0C0CF80918100887F892B809381002E
:100960002FEF3FEFA9014114510461047104F9F024
:10097000D801AA0FBB1FA30192010E94DC3728EE09
:1009800033E040E050E00E949E37ADCF68E478EE5F
:1009900081E090E0A50198010E94C03769017A01C9
:1009A00081E0C81AD108E108F10893E0CFCFD092D6
:1009B0008900C092880020934403309345034093FC
:1009C00046035093470380916F00826080936F00CD
:1009D00048CEC092B30020934F033093500340930E
:1009E0005103509352038091700082608093700095
:1009F00038CE84E09FEFC916D104E104F10409F078
:100A000008F464CFC980DA80EB80FC808AE0F5943A
:100A1000E794D794C7948A95D1F781E0C81AD10892
:100A2000E108F10885E052CF68E478EE81E090E0DB
:100A3000A50198010E94C03769017A0181E0C81AB6
:100A4000D108E108F1089FEFC916D104E104F104CF
:100A500011F00CF00FCF84E068CE83E09FEFC91651
:100A6000D104E104F10409F00CF430CF62E17AE73B
:100A700080E090E0A50194010E94C03769017A01ED
:100A800081E0C81AD108E108F1089D81992309F491
:100A9000B0CF86E09FEFC916D104E104F10409F05C
:100AA00008F443CEC980DA80EB80FC809AE0F594AC
:100AB000E794D794C7949A95D1F781E0C81AD108E2
:100AC000E108F10887E031CE82E02FCEDB011496F9
:100AD0004D915C9115976D917C91DC01ED91FC91AC
:100AE0000280F381E02D09950895EF92FF920F9314
:100AF0001F93CF93DF938C017B01D0E0C0E0F7011F
:100B0000EC0FFD1F6491662361F0D801ED91FC911B
:100B10000190F081E02DC8010995892B11F02196F3
:100B2000EECFCE01CDB7DEB7E6E00C941438B0E0DE
:100B3000A0E0EDE9F5E00C94F4376C017B018B014A
:100B4000040F151FEB015E01AE18BF08C017D107D7
:100B500059F06991D601ED91FC910190F081E02D61
:100B6000C6010995892B79F7C501CDB7DEB7EAE053
:100B70000C941038FC01538D448D252F30E0842FC8
:100B800090E0821B930B541710F0CF9608950197B5
:100B90000895FC01918D828D981761F0A28DAE0FA2
:100BA000BF2FB11D5D968C91928D9F5F9F73928F29
:100BB00090E008958FEF9FEF0895FC01918D828D55
:100BC000981731F0828DE80FF11D858D90E0089522
:100BD0008FEF9FEF0895FC01918D228D892F90E07A
:100BE000805C9F4F821B91098F73992708958EE92E
:100BF00094E0F1DF21E0892B09F420E0822F0895B1
:100C000080E090E0892B21F0F2DF81110E9400004A
:100C10000895FC01A48DA80FB92FB11DA35ABF4F91
:100C20002C91848D90E001968F739927848FA689EB
:100C3000B7892C93A089B1898C91837080648C933F
:100C4000938D848D981306C00288F389E02D8081EE
:100C50008F7D80830895EF92FF920F931F93CF9320
:100C6000DF93EC0181E0888F9B8D8C8D981318C0E9
:100C7000E889F989808185FF13C09FB7F894EE89D0
:100C8000FF896083E889F98980818370806480832B
:100C90009FBF81E090E0CDB7DEB7E6E00C9414385A
:100CA000F62E0B8D10E00F5F1F4F0F731127E02EF4
:100CB0008C8D8E110BC00FB607FCFACFE889F9892D
:100CC000808185FFF5CFCE01A4DFF2CFEB8DEC0F55
:100CD000FD2FF11DE35AFF4FF0829FB7F8940B8F61
:100CE000EA89FB8980818062D2CF682F8EE994E007
:100CF000B2CF0895CF93DF93EC01888D8823B1F0B4
:100D0000AA89BB89E889F9898C9185FD03C0808116
:100D100086FD0CC00FB607FCF7CF8C9185FFF2CF94
:100D2000808185FFEDCFCE0174DFEACFDF91CF91D7
:100D30000895A9E0B0E0EFE9F6E00C94F6378C01F5
:100D4000DC0119968D919C91892B09F471C0D9DB36
:100D5000F801C784D088E188F2886C157D058E057E
:100D60009F0520F46787708B818B928BF801C78475
:100D7000D088E188F2886C197D098E099F096C3250
:100D800071408105910518F3F894D80114968D915E
:100D90009C9115979A8389831996ED91FC917F0117
:100DA000BFEFEB1AFB0A80818987F80190810388E5
:100DB000F489E02DD80155968C91992309F43CC013
:100DC0009081982B98879081809589238F838F813C
:100DD0008C8388E08B8358856F8149853B812C818A
:100DE00089819A81D701508347FD252F3A95208329
:100DF000262F39F0441F00C000006083000000C0AF
:100E0000F2CF38E04D9160830000019761F7D8017F
:100E10005496FC93EE93539749873B832C839A8394
:100E2000898378946EDBF8016787708B818B928B56
:100E30002996E8E00C9412389081982B988790813D
:100E4000809589238F838F818E8388E08D83588559
:100E50006F8149853D812E8189819A81D701508397
:100E600047FD252F00C000C0208300C000C000C087
:100E700000C000C060830000262F3A9541F0441F57
:100E8000000000C000C000C000C000C0E8CF38E0D3
:100E90004D9100C0608300C0019709F7D8015496B6
:100EA000FC93EE93539749873D832E83B8CFCF931E
:100EB000DF93EC018E819F8197FD0AC061E077DAB4
:100EC00060E08E8147DA81E08983DF91CF910895D8
:100ED000198280E0FACF2091400330914103281716
:100EE000390771F490913F0380913E03981741F0C8
:100EF000E0913F03F0E0E250FD4F808190E00895E3
:100F00008FEF9FEF08950895EF92FF920F931F9335
:100F1000CF93DF93DC015C96ED90FC905D97E1143C
:100F2000F10469F481E090E013969C938E931297FC
:100F300090E080E0CDB7DEB7E6E00C94143851962F
:100F4000ED91FC91529750968C915097982F9095D7
:100F50000FB75E962C915E97122F127021FD60954F
:100F6000F8942081112319F1282B2083E701219780
:100F7000F1F728E0462F50E0308160FF1AC0382B8F
:100F80003083E7012197F1F7BA01759567952150F4
:100F900089F7112381F08081892380830FBF5C96BC
:100FA0008D919C910197F1F781E090E0C3CF2923C7
:100FB000DCCF3923E5CF9081892BEFCF20914003FF
:100FC000309141032817390761F480913E03209145
:100FD0003F0390E0805C9F4F821B91098F7399279C
:100FE000089590E080E008952091400330914103FE
:100FF00028173907B9F490913F0380913E03981761
:1010000089F0E0913F03F0E0E250FD4F80812091B4
:101010003F0330E02F5F3F4F2F73332720933F0371
:1010200090E008958FEF9FEF08951F93CF93DF9384
:10103000EC01162F60E0812FBAD98E8D81FD03C09F
:1010400061E0812F87D91C87812F90E0FC01E95D49
:10105000FD4FE491ED87FC01EB5BFD4FE491F0E087
:10106000EE0FFF1FE75FFD4F859194919F878E875D
:10107000DF91CF911F9108951F93CF93DF93EC01E0
:10108000162F6E8D6695617081E06827812F62D979
:1010900061E0812F8CD9812F90E0FC01E95DFD4F4B
:1010A000E491E88BFC01EB5BFD4FE491F0E0EE0F87
:1010B000FF1FE55CFD4F859194919A8B898BDF91A1
:1010C000CF911F910895FC018CE191E09183808381
:1010D0008091400390914103E817F90759F4A389DF
:1010E000B4899C918589809589238C9310924103C2
:1010F000109240030895CF93DF93FC01828D938D6E
:10110000892B41F1A0914003B0914103AE17BF0775
:1011100009F1109751F05396CD91DC915497988135
:1011200055968C91809589238883868D8E7F868FB6
:1011300010923E0310923F03F0934103E09340036B
:10114000A389B4898C919589892B8C9381E0DF9157
:10115000CF91089580E0FBCFCF93DF93EC019A010C
:10116000AB011B8E1A8E198E188E1F8A1E8A60E0A4
:1011700079E08DE390E00E94C037F901C90103973F
:101180002430310510F481E090E09D8F8C8F6C85C8
:10119000663108F053C0C901969587958431910551
:1011A00008F451C043979F8B8E8BC90105973697E2
:1011B00010F481E090E0998F888FC901880F991F02
:1011C000280F391F36952795369527952D303105EF
:1011D00008F43CC02C5031093B8F2A8F9091680055
:1011E00084E0683048F021E06E3008F420E081E0CF
:1011F00001C0880F2A95EAF7892B809368009C85A7
:101200002DE630E0983050F02BE630E09E3030F0A4
:101210002CE630E0963110F030E020E03C8B2B8B58
:10122000292F30E09830A8F481E001C0880F9A950A
:10123000EAF78D8B8C8D9D8D0197F1F7CE015BDFE9
:10124000DF91CF91089581E090E0ADCF21E030E0D3
:10125000C3CF9E3040F42850310981E001C0880F8F
:101260002A95EAF7E6CF2E503109F7CFCF92DF92D9
:10127000EF92FF92CF93DF93EC01603282E0780728
:10128000CCF5653B710514F064EB70E0898128E8CA
:1012900030E0281B310987FD3395220F331F220FC1
:1012A000331F6901330FEE08FF088A8128E532E019
:1012B000281B310987FD3395220F331F220F331F5F
:1012C000032E000C440B550B2C193D094E095F09E8
:1012D000DB0177FF02C0B0E0A0E00E94E63724EB1C
:1012E00030E040E050E00E94C037C20ED31EE41E42
:1012F000F51EB601E881EC3070F5298188E890E0B0
:10130000821B910927FD9395880F991F880F991FBC
:10131000681779077CF02A8188E592E0821B9109A1
:1013200027FD9395880F991F880F991F68177907D4
:101330000CF4CB010297880F991F4FB7F8942E2F0A
:1013400030E0F901EE0FFF1FE20FF31FE95BFA4FE8
:10135000928381834FBFDF91CF91FF90EF90DF9019
:10136000CF9008952091DA02260F3327331F2132C0
:101370003105ECF420917404FC0190E080E024300D
:1013800069F082E00895A091DA022191AC014654FF
:101390005D4FA40FB52FB11D2C930196861798F3BE
:1013A0008091DA02680F6093DA0280E0089581E0AC
:1013B00008951092740481E08093730410924E0497
:1013C00061E082E10E94AA0161E083E10E94AA013A
:1013D000E9EBF0E080818E7F808380818D7F808348
:1013E00088E48093B80085E48093BC00089510924F
:1013F0004D0410924C0410927B0410929D04D9DF8E
:1014000087E591E090934B0480934A0488E591E04E
:1014100090934904809348040895CF93DF9391E01B
:101420009093B9028823B1F0C091B800D091BA006E
:101430008091BC008A7B8093BC0060E082E10E94C6
:10144000AA0160E083E10E94AA01B3DFD093BA0051
:10145000C093B800DF91CF910895B0E0A0E0E3E33E
:10146000FAE00C94F637D0919D0481E0D13208F077
:1014700098C0C0919C0445D86B017C018091740494
:1014800081116AC082E08093740481E080937304C8
:101490008FEF8093720410927104D0937004ACE7C4
:1014A000B4E0E0E5F4E080E0D81386C010924F0489
:1014B00080914F04CC0FC82BC0934F0480914E04F1
:1014C000813009F07DC010924E041BD86B017C0165
:1014D00080914F048093BB008091760490917704B3
:1014E000A0917804B0917904892B8A2B8B2B99F0E9
:1014F00008D80091760410917704209178043091F7
:1015000079046C197D098E099F09061717072807AA
:10151000390708F442C08091BC0083FDD9CF85EC27
:101520008093BC000E9481026B017C018091740455
:10153000823009F447C0809172048F3F09F464C07F
:1015400080917204803209F461C08091720480330A
:1015500009F45EC084E025C0809176049091770400
:10156000A0917804B0917904892B8A2B8B2B09F4F4
:1015700085CF0E948102009176041091770420911A
:101580007804309179046C197D098E099F0906173A
:1015900017072807390708F071CF809175043DDFE0
:1015A00085E010927B0410929D0410927A04CDB7CE
:1015B000DEB7E8E00C9412389D9191938F5F74CF61
:1015C00085EEAECF8091760490917704A091780457
:1015D000B0917904892B8A2B8B2B09F4A7CF0E9419
:1015E0008102009176041091770420917804309163
:1015F00079046C197D098E099F09061717072807BA
:10160000390708F093CFC9CF80E0CBCF82E0C9CFB4
:1016100083E0C7CFE0914D0480914C04E81730F48B
:10162000F0E0E756FD4F808190E008958FEF9FEF47
:10163000089590914D0480914C042FEF3FEF98173F
:1016400048F4E92FF0E0E756FD4F208130E09F5F3E
:1016500090934D04C901089580914C0490914D04DC
:10166000891B990B0895B0E0A0E0E9E3FBE00C943E
:10167000F6377C01CB018A0120917A04222389F07C
:10168000EB016B01C40ED51ECC15DD0561F069912F
:10169000D701ED91FC910190F081E02DC7010995F2
:1016A000F3CF642F5FDEC801CDB7DEB7E8E00C945E
:1016B0001238A1E0B0E0EFE5FBE00C94FC37698361
:1016C00020917A042223F9F020919D04203258F0D1
:1016D00021E030E0FC013383228390E080E021961A
:1016E000E2E00C94183880917B04E82FF0E0E45895
:1016F000FB4F998190838F5F80937B0480939D043F
:1017000081E090E0ECCF61E0CE0101962BDEF8CFD6
:10171000682F8BE395E0CDCF089590E080E00895A9
:10172000FF920F931F93CF93DF93009124041091A6
:1017300025040115110519F1FC0124813581232BA4
:10174000F1F0F62EEC01C801D6DCF1E0FF121CC06E
:1017500061EB71E0C801C9D9BE0180912404909168
:101760002504B4D96EEA71E0809124049091250497
:10177000BCD968EE73E080E090E00E94A602CDB78D
:10178000DEB7E5E00C94153866EA71E0C801ADD922
:10179000BE01809124049091250498D9EACF0F933B
:1017A0001F93CF93DF93D82FC0E0062F10E08D2F2B
:1017B0000E9482018017910721F4CF5FCF3FB9F7D4
:1017C000C0E08C2FDF91CF911F910F910895B0E071
:1017D000A0E0EDEEFBE00C94F637C82F162FD42FC7
:1017E00080917C02882329F080917A028C1709F479
:1017F0007BC081E080937C02C0937A0262E08C2FF0
:101800000E94D70160ED77E080E090E00E94A602A0
:1018100010937B020E94D702609371027093720250
:10182000809373029093740210927D0261E08C2F7A
:101830000E94D70160E08C2F0E94AA0162E070E054
:1018400080E090E0163121F064E170E080E090E00B
:101850000E94A602DFB6F89461E08C2F0E94AA01D4
:1018600083E790E00197F1F762E08C2F0E94D701A7
:1018700061E08C2F94DF60E08C2F91DF882331F0C2
:1018800061E08C2F8CDF91E0811101C090E0F12CA0
:10189000E12C992309F449C088E2E816F10409F41F
:1018A00044C060E08C2F7BDF082F61E08C2F77DF56
:1018B000002319F091E0811101C090E0F70133E0BD
:1018C000F595E7953A95E1F7EB58FD4F208130E02B
:1018D000220F331F41E0081708F040E0242B20833B
:1018E0002FEFE21AF20AD5CF0E94D702C090710200
:1018F000D0907202E0907302F09074026C197D092E
:101900008E099F09603D77408105910508F080CFE1
:1019100080917B028117F1F060E070EC89E794EC34
:10192000CDB7DEB7E8E00C941238DFBE992381F022
:101930008091750290917602890F90917702890FBC
:1019400090917802890F91E020917902821390E0C2
:1019500090937D0280917D028823F1F2F0E0E0E037
:10196000D11102C0E2E0F0E0EB58FD4F908181819F
:101970001631F1F4692F70E0762F662766277F779E
:10198000682B892F881F8827881FD11104C019F060
:10199000719561957109072E000C880B990B0E94B7
:1019A00066362DEC3CEC4CEC5DE30E94C536B8CFBE
:1019B000682F6F7770E02AE0929F600D711D1124EF
:1019C000E1CFCF93FC012285222339F0C1E080854D
:1019D0009185892B81F4C0E00EC060817181828184
:1019E00093819F77C1E02CEA35EC47E257E30E94F0
:1019F0003039181684F78C2FCF910895B0E0A0E00D
:101A0000E4E0FDE00C94F237EC010A85002309F4D0
:101A10007DC0249670E060E0CE010E94E30211E0F8
:101A20008D3211F000E010E0C12CD12C7601612F35
:101A300070E0CE010E94E302B82E082E000C990B34
:101A4000C0970A9708F51F5F20E030E040E251E4BC
:101A5000C701B6010E94C5366B017C016B2DBB0C22
:101A6000770B880B990B0E9466369B01AC01C7016E
:101A7000B6010E94333820E030E040E452E40E9496
:101A800032386B017C01D3CF8EE2B81232C08DECBC
:101A9000882E8CEC982EA92C8DE3B82E1F5F612F19
:101AA00070E0CE010E94E302682F880F770B60532D
:101AB00071096A307105E8F4072E000C880B990B48
:101AC0000E946636A50194010E94C5369B01AC01B7
:101AD000C701B6010E9433386B017C012DEC3CEC50
:101AE0004CEC5DE3C501B4010E94C5364B015C01BD
:101AF000D5CF002321F0F7FAF094F7F8F094C7015E
:101B0000B601CDB7DEB7ECE00C940E38C880D980B2
:101B1000EA80FB80F4CF9091060121E020937A04C3
:101B200090939C0410927B0410929D04886090E036
:101B3000EFDD93CC08952F923F925F926F927F9248
:101B40008F929F92AF92BF92CF92DF92EF92FF92CD
:101B50000F931F93CF93DF93E0915403F0915503BC
:101B6000309741F1A281B381109721F18F3F910508
:101B700099F197FD9FC0ED012197C817D90710F47F
:101B80008FEF8A0F77247394780E28C020E02EC040
:101B900040E034C060E03AC0880F991F880F991F59
:101BA000E80EF91EC701810F911DEC0118826CC06F
:101BB000CF01BFD8DF91CF911F910F91FF90EF9090
:101BC000DF90CF90BF90AF909F908F907F906F905D
:101BD0005F903F902F9008957A2E80E037FDD6CF0A
:101BE0002F3F310519F014F02FEF30E057FDD0CF23
:101BF0004F3F510519F014F04FEF50E077FDCACF79
:101C00006F3F710519F014F06FEF70E0822E912C88
:101C1000B12CA12C942AA62AA50166277727542E39
:101C2000292DBA01482F50E0DA01312C212C682CE3
:101C3000A71508F0BDCF82819381A817B907A8F531
:101C4000C62C8085D22E352D882371F0869F800189
:101C5000879F100D1124312F829F80011124D12ED6
:101C6000889DC0011124C92E1685E184F284038564
:101C7000CA01820D931D10138FCF8C01000F111F0D
:101C8000800F911FE80EF91E83858E0D9F2D911DEB
:101C9000EC01388384858E0D9F2D911DEC01D88237
:101CA0008585E80EF11CE701C8828FEF281A380AF3
:101CB0001196BECF80E066CFCF93C82F80910401EC
:101CC00091E090937A0480939C0410927B0410928C
:101CD0009D0490E080E01CDD6C2F8BE395E0E9DC57
:101CE000BCDBCF910895CF93C82F862F806BE4DFA4
:101CF0008C2F8F70E1DF8C2F82958F708061DCDFFD
:101D0000CF910895A3E0B0E0E8E8FEE00C94EC3752
:101D10006C01142F80915603882309F4CFC0909151
:101D20000501603108F06FE0092F000F000F609F80
:101D3000002D1124923009F05EC0143008F013E039
:101D4000110F612F802FCFDF612C54E0E52E6AE068
:101D5000462E70E1372E5E0184E0A80EB11C662D80
:101D600070E0F601848195816817790708F0A6C0B4
:101D7000C6010E94E30219821A821B8290ED980F1D
:101D80009A3008F03DC0082E000C990BC0979C01BA
:101D9000220F331F820F931FDE01119630E020E0E7
:101DA00088579E4FFC01E20FF31FE491ED932F5FE4
:101DB0003F4F23303105B1F7509004018091050168
:101DC0008130A1F580937A0450929C0410927B0498
:101DD00010929D0480E490E09BDC43E050E0BE0163
:101DE0006F5F7F4F8BE395E03EDC90E080E090DC1E
:101DF00034DB6394B4CF183008F4A3CF17E0A1CF3D
:101E00008D3221F4EB82EA82E982D6CF8E3211F450
:101E10003A82D2CF8A3311F44A82CECF853261F62C
:101E2000F9E1F983EA8283E18B83C6CF712C222406
:101E30002394612F670D802F56DF20927A045092F1
:101E40009C0410927B0410929D0480E490E060DC7E
:101E5000FE0131964F01F40181914F01711028C0AC
:101E60008F70F4E08F9F90011124822B8373F82EE2
:101E7000FF0C8F298575F82EFF0CF82A6F2D8BE348
:101E800095E017DC6F2D8BE395E013DCA814B90403
:101E900011F790E080E03CDC90E080E039DCDDDAB6
:101EA00081E0781202C0085FA4CF77247394C1CF79
:101EB000F12C84FFE3CF83E0F82EE0CF2396E2E11C
:101EC0000C9408380F931F93CF93DF9380915603A0
:101ED000882311F1C0E001E06C2F80E004DFD8E03E
:101EE0008091040100937A0480939C0410927B04F7
:101EF00010929D0480E490E00BDC10E190E080E023
:101F000007DC1150D9F7A9DAD15051F7CF5FC830AB
:101F100019F760E080E0E7DEDF91CF911F910F912C
:101F20000895CF93DF9380930401623009F061E05C
:101F3000609305015CDACFE6D1E0FE018491BCDE5E
:101F40002196F1E0C838DF07C1F781E0809356039E
:101F5000B9DFDF91CF910895AAE0B0E0E2EBFFE0B6
:101F60000C94FA3700916E0210916F020115110561
:101F700081F11E821D829EE799839FEF9A8396E0EE
:101F80009B839FEE9A878C83272F30E07E836F831D
:101F900090E08B5F9E4F820F931F860F911D91954E
:101FA0008195910998878987C801A5D8D801ED91B5
:101FB000FC910280F381E02D4AE050E0BE016F5FAA
:101FC0007F4FC801099568E770E080E090E00E94CB
:101FD000A6022A96E4E00C941638CF93C0E08091D4
:101FE0007002C81758F4EC2FF0E0E85FFE4F70E085
:101FF00060E080810E941302CF5FF1CF85B1807FC6
:1020000085B980910D0187FF0E94F50280916E02D3
:1020100090916F02892B21F070E060E086E19CDFF7
:10202000CF910895CF92DF92EF92FF921F93CF93BB
:10203000DF93E0E0F1E0DF01D0E0C0E0482F50E0C6
:102040002D91022E000C330B2417350781F4CE019D
:10205000880F991FC80FD91FC459DA4FCE01DF91DD
:10206000CF911F91FF90EF90DF90CF900895219630
:10207000C430D10529F7F12CE12C919197FF63C071
:10208000F701E050FF4F80836701CC0CDD1CE601B7
:10209000CE0DDF1DC459DA4F98819C30F8F6182F09
:1020A00061E00E94D7018881282F30E0F901EE0F0E
:1020B000FF1FE20FF31FE95BFA4F1F739081907CC3
:1020C000192B108319821A822CE0622F0E94383952
:1020D000829FB001112430E020E0AB01420F531F7A
:1020E000FA01EE0FFF1FE40FF51FE95BFA4F908135
:1020F00096FD16C02F5F3F4F2C30310571F78111CF
:102100000FC01092800082E08093810010928500C1
:1021100010928400B19A80916F00826080936F006A
:10212000F601EE0DFF1DE459FA4FE0818E2F90E08D
:10213000FC01EE0FFF1FE80FF91FE95BFA4F8081EA
:10214000806480838BCF9FEFE91AF90A94E0E91647
:10215000F10409F092CFD0E0C0E080CFE0917002AE
:10216000A8E0B1E090E0E91729F02D91281761F07F
:102170009F5FF9CFE43040F491E09E0F909370029E
:10218000F0E0E85FFE4F80830895EF92FF920F9397
:102190001F93CF93DF93082F162F7A01EA014F3F49
:1021A000510519F014F0CFEFD0E0C1308FEFD80710
:1021B00014F4C1E0DFEF802FD1DF812FCFDF61E0AA
:1021C000802F0E94D70161E0812F0E94D701BE01BC
:1021D000802F1E141F049CF070E060E0E114F104F5
:1021E00071F00E941302662777276C1B7D0B812FED
:1021F0000E941302CDB7DEB7E6E00C9414380E94BB
:10220000130270E060E0F3CFA8E0B0E0EAE0F1E1B3
:102210000C94FA3718861F8295E599839AEA9A8377
:1022200091E19B8392E09C838D836E837F83FE018B
:1022300031969E01285F3F4F8F0191918885890FCC
:102240008887E217F307C9F7D2D881E080937A0430
:1022500082E380939C0410927B0410929D0448E0DA
:1022600050E0B8018BE395E0FED9F7D82896E4E07A
:102270000C9416380F931F93CF93DF93D82FC62F4C
:1022800061E00E94D70160E08D2F0E94AA018BE5DA
:1022900094E00197F1F78C2FC63008F085E0825F5B
:1022A0000E946C028C018BE990E00197F1F761E0EC
:1022B0008D2F0E94AA018BE397E90197F1F7C801DE
:1022C000DF91CF911F910F910895DC0114968D91AC
:1022D0009C9115976817790750F4ED91FC9111972F
:1022E000E60FF71F15967C936E931497108208954E
:1022F000CF93807FC82FC62B8C2F0DDC8C2F846052
:102300000ADC8C2F08DC83EC90E00197F1F7CF9189
:102310000895CF93DF93C82FD62FEADF6D2F8C2F30
:102320008295807FE5DFDF91CF9108951F93CF9352
:10233000DF9320915703222381F0EC0110E0612FFD
:1023400070E08C819D816817790738F4CE010E9476
:10235000E30261E0DEDF1F5FF2CFDF91CF911F91DB
:10236000089590910701891710F08FEF890F64305D
:1023700008F063E0E62FF0E0EC5EFE4F9081890FFD
:1023800060E08068C6CF089580915703882339F0B4
:1023900060E081E0BEDF8BE39FE10197F1F70895F4
:1023A0001F93CF93DF93142F80930601609307014F
:1023B0001ED862E370E080E090E00E94A60260E038
:1023C00080E396DFCBE4D6E4CE010197F1F760E03D
:1023D00080E38EDF2197F1F760E080E389DF83E51A
:1023E00092E00197F1F760E080E282DF80E2123054
:1023F00008F088E260E08DDF60E08CE08ADF60E07A
:1024000086E087DF81E080935703BEDFDF91CF91C5
:102410001F910895A0E1B0E0E0E1F2E10C94EC3707
:10242000882E962EC72E93E0E92EDD24D3947724B0
:102430007A942FE0622E6AE070E080E090E00E94E3
:10244000A6020E9481021B012C018091740481115B
:1024500062C0D0927404D09273047092720410928D
:10246000710460927004D0924F0480914F0484668E
:1024700080934F0480914E04813009F085C0109202
:102480004E040E9481021B012C0180914F04809315
:10249000BB008091760490917704A0917804B0916C
:1024A0007904892B8A2B8B2BA1F00E948102009149
:1024B00076041091770420917804309179046219A0
:1024C000730984099509061717072807390708F4BF
:1024D00043C08091BC0083FDD8CF85EC8093BC00C5
:1024E0000E9481021B012C0180917404813009F447
:1024F0004FC080917104803108F06CC0F09071047D
:10250000A0E5B4E0E9E9F2E080E08F1551F19D919A
:1025100091938F5FFACF8091760490917704A09188
:102520007804B0917904892B8A2B8B2B09F48DCFF9
:102530000E94810200917604109177042091780422
:1025400030917904621973098409950906171707F0
:102550002807390708F079CF809175040E940D0A89
:10256000F12C10924D04F0924C048E010F5F1F4F1E
:1025700058018A2D801B8F1580F58BE395E059D883
:10258000F50181935F01F5CFA5EEA093BC00A8CF24
:102590008091760490917704A0917804B0917904A9
:1025A000892B8A2B8B2B09F49FCF0E9481020091EB
:1025B000760410917704209178043091790462199F
:1025C000730984099509061717072807390708F0C2
:1025D0008BCFC2CF80E1F82E93CFF0E1FF1203C082
:1025E0008D81881529F0EA94E11025CF80E016C08E
:1025F000E92DFC2D9801265F3F4FD80116968C914E
:10260000169715969C9189279827892781939193EE
:102610000E5F1F4F2017310781F781E06096E2E1DE
:102620000C940838CF92DF92EF92FF921F93CF93D2
:10263000DF93CDB7DEB72A970FB6F894DEBF0FBE93
:10264000CDBF6C01162F7A01BC0187E2DDDDBE0132
:102650006F5F7F4F89E2DEDE81110FC080E02A9636
:102660000FB6F894DEBF0FBECDBFDF91CF911F91A3
:10267000FF90EF90DF90CF90089589819A8118168E
:10268000190664F7BE016F5F7F4F8AE2C3DE8823BD
:1026900029F329853A852C153D0501F721E030E025
:1026A000112379F0212F2150330BB901660F771FC9
:1026B000E1E0F0E0EC0FFD1F6E0F7F1FFB012081BA
:1026C0003181F70131832083CACFFC0144815581D8
:1026D00070E060E0818592850C942E3B0895B0E017
:1026E000A0E0E5E7F3E10C94F637EC016B01F42E82
:1026F000E52E198218861F86188A198A1A8A81E09F
:102700008E878B871C8692E09D8788838B01000FC4
:10271000111F060F171F1D830C83C8010E944A3921
:102720009A878987009769F1A80170E060E00E94AC
:102730002E3BDB82CA82FE82EF828981882341F0B0
:1027400061E08F2D0E94D70160E08F2D0E94AA01C9
:102750008F2D9E2DFC01EB5BFD4FE491F0E0EE0F21
:10276000FF1FE55CFD4F259134913C8B2B8BFC01C9
:10277000E95DFD4FE491ED8BCDB7DEB7E8E00C9459
:1027800012381D821C821B821A82D5CF0F931F9391
:10279000CF93DF938C01EB01FC0180819181009745
:1027A000E1F06881798161157105A9F04281538159
:1027B0002C813D814217530770F00E943E3B8C8173
:1027C0009D81F801958384831D821C82DF91CF91C6
:1027D0001F910F9108950E94E63988819981F8012F
:1027E000918380838A819B81938382838C819D8165
:1027F00095838483198218821B821A82E5CFB0E008
:10280000A0E0E5E0F4E10C94F637EC018B01FB016C
:10281000C190D190E190F190BF01FC01C192D192A1
:10282000E192F192CF016E177F0709F0AFDFF80157
:1028300082858A87CE01CDB7DEB7E8E00C941238E6
:10284000CF93DF93EC0188819981009711F00E946A
:10285000E639198218821D821C821B821A82DF913E
:10286000CF910895FC0180819181009711F00C9423
:10287000E63908950F931F93CF93DF93861306C015
:1028800080E0DF91CF911F910F910895062F182FAF
:10289000C0916E02D0916F02209731F0CE010E945C
:1028A0006308CE010E94E6398FE190E00E944A3928
:1028B000EC011B821A8288EE93E0A0E0B0E08C83EA
:1028C0009D83AE83BF838CE191E0998388831F8AC7
:1028D0001E8A198E188E1B8E1A8E1D8E1C8E8E8D42
:1028E0008E7F8D7F8E8F602FCE010E943C08612FDE
:1028F000CE010E941508D0936F02C0936E022097FC
:1029000009F4BECF40E855E260E070E0CE010E94DD
:10291000AC08CE010E947B0864E670E080E090E0A5
:102920000E94A60270E060E08CE016DB68E978E0C7
:1029300080E090E00E94A60262E070E089E00CDB9B
:102940006CE271E080E090E00E94A60281E099CF05
:10295000FC0124813581FB01448155812417350711
:10296000A0F0FC0180819181009779F0FB016081EA
:1029700071816115710549F0241B350B820F931F7E
:102980000E94353B21E0892B09F020E0822F089539
:10299000CF93DF93EC01A881B981EB01E881F98144
:1029A0001097E9F03097B1F4EC018C819D81892B6F
:1029B000C1F08C9190E00BC0DB0114968D919C913D
:1029C000892B79F0808190E0919581959109DF9133
:1029D000CF910895BF01CD010E94353BF8CF3097CC
:1029E00059F790E080E0F3CFFB0101900020E9F778
:1029F0003197AF01461B570BDC01ED91FC91028032
:102A0000F381E02D099508958F929F92AF92BF9226
:102A10000F931F93CF93DF93CDB7DEB7A1970FB678
:102A2000F894DEBF0FBECDBF19A2423008F44AE0D1
:102A30008E010F5D1F4F842E912CB12CA12CA5016E
:102A400094010E949E37E62FB901CA01EA30FCF4D6
:102A5000E05DD801EE938D01232B242B252B79F7F4
:102A600090E080E0109721F0BD018EE994E0BCDF9A
:102A7000A1960FB6F894DEBF0FBECDBFDF91CF9108
:102A80001F910F91BF90AF909F908F900895E95C38
:102A9000E0CFCF93DF93BC018EE994E00E947505EF
:102AA000EC016EE471E08EE994E09EDF8C0F9D1FD7
:102AB000DF91CF9108950F931F93CF93DF93EC0194
:102AC0000E9466058C016EE471E0CE018DDF800FFF
:102AD000911FDF91CF911F910F9108958F929F9237
:102AE000AF92BF92CF92DF92EF92FF925C016A01A8
:102AF0007B016CE671E08EE994E00E947505A114FB
:102B0000B10421F0B5018EE994E06EDF8CE20E9401
:102B10007506A7019601C701B6010E94343961E527
:102B200071E081111AC046015701E894B7F82FEF00
:102B30003FEF4FE75FE7C501B4010E9434398111CF
:102B40001DC02FEF3FEF4FE75FE7C501B4010E94C3
:102B5000603618169CF465E571E08EE994E044DF78
:102B60006EE471E08EE994E03FDFFF90EF90DF903C
:102B7000CF90BF90AF909F908F9008952FEF3FEF31
:102B80004FE75FE4C701B6010E94303918161CF404
:102B900069E571E0E2CF2FEF3FEF4FE75FECC70150
:102BA000B6010E94603687FDF3CF20E030E0A90136
:102BB000C701B6010E94603687FF07C08DE20E9400
:102BC0007506F7FAF094F7F8F0942AE037ED43EA47
:102BD0005BE3C701B6010E9433384B015C010E94E0
:102BE00004396B017C010E9464369B01AC01C50174
:102BF000B4010E9432384B015C014AE0C701B601C2
:102C000003DF8EE20E94750620E030E040E251E4EE
:102C1000C501B4010E94C5364B015C010E94043914
:102C20006B01F12CE12C4AE0C701B601EDDEC701D2
:102C3000B6010E9464369B01AC01C501B4010E943B
:102C4000323820E030E040E251E40E94C5360E9474
:102C5000043990E080E04AE0D7DE82CF62E671E09E
:102C60008EE994E00E9475056DE571E08EE994E0CF
:102C7000BBDE6EE471E08EE994E0B6CE08950F936A
:102C80001F93CF93DF93EC0188819981009759F0CE
:102C90002A813B812617370730F081E0DF91CF9101
:102CA0001F910F9108958B016F5F7F4F0E946F3AC4
:102CB000009759F0998388831B830A832C813D8177
:102CC000232B59F7FC011082E8CF80E0E7CFA2E088
:102CD000B0E0EDE6F6E10C94F8378C0169831A82D6
:102CE000FC01E480F580FFEFEF1AFF0AB701C7DFB0
:102CF000882381F0F8012081318184819581BE0192
:102D00006F5F7F4F820F931F0E943E3BF801F58259
:102D1000E48281E02296E6E00C941438EF92FF9270
:102D20000F931F93CF93DF93EC017B018A01BA01CC
:102D3000A6DF811108C0CE0183DDCE01CDB7DEB79D
:102D4000E6E00C9414381D830C83B70188819981C7
:102D50000E943E3BF2CFCF93DF93EC0161157105EA
:102D600069F0FB0101900020E9F73197AF01461BA4
:102D7000570BD4DFCE01DF91CF91089561DDFACFFB
:102D8000CF93DF93EC01FB018617970741F0608139
:102D900071816115710539F044815581BFDFCE0124
:102DA000DF91CF9108954CDDFACF0F931F93CF930E
:102DB000DF93EC018B01FB0181919191A191B19184
:102DC000BF0188839983AA83BB831D821C821F82D3
:102DD0001E8219861886CE010496D2DFF8018285FC
:102DE0008A87DF91CF911F910F910895FC01118285
:102DF00010821382128215821482FB01019000203E
:102E0000E9F73197AF01461B570B88CF0895CF9252
:102E1000DF92EF92FF92CF93DF93EC0160E571E0D8
:102E2000E5DF8091240490912504009789F10E94A8
:102E30007B080E94D7026B017C010E94D7026C19AB
:102E40007D098E099F09603571058105910500F5A1
:102E50008091240490912504DC01ED91FC91008483
:102E6000F185E02D0995892B41F3809124049091FF
:102E70002504DC01ED91FC910284F385E02D099598
:102E80008D3011F08A3061F48C819D81892B01F3A2
:102E9000CE01DF91CF91FF90EF90DF90CF9008951A
:102EA000682FCE0114DFD4CF60E571E004969ECF89
:102EB0000895A3E0B0E0EFE5F7E10C94F4376C017E
:102EC0008B0160E571E092DF0115110549F1F80110
:102ED00001900020E9F731975F01A01AB10AB5010E
:102EE00076956795C601CBDEEE24E394F12CEA14C7
:102EF000FB04B0F41B82F8018081898381818A837D
:102F000040E150E070E060E0CE0101960E94AD32F9
:102F1000C601DDDEF2E0EF0EF11C0E5F1F4FE7CFC2
:102F2000C6012396EAE00C94103885ED8093BC002E
:102F30008091760490917704A0917804B0917904FF
:102F40000796A11DB11D23E0B695A7959795879586
:102F50002A95D1F72091BC0024FD03C0109274047F
:102F600008954091760450917704609178047091AF
:102F70007904452B462B472B69F30097A105B10532
:102F800041F02AE22A95F1F700C00197A109B109A1
:102F9000E1CF809175040C940D0A08951F93CF938F
:102FA000DF93EC01162F0E947937181721F0612F5B
:102FB000CE010E948137DF91CF911F9108950C942B
:102FC00079370895B0E0A0E0E8EEF7E10C94F4372B
:102FD0001092650383E090E0F2DFC82F84E090E078
:102FE000EEDFD82FD0935903C093580385E090E0CB
:102FF000E6DF082F86E090E0E2DF182F10939702BB
:103000000093960287E090E0DADFA82E88E090E057
:10301000D6DFB82E90E080E0D2DF8F3409F044C0D4
:1030200081E090E0CCDF8D3409F03EC082E090E09A
:10303000C6DF8130C9F5CE010197873F9340A0F5E7
:10304000C017D10788F1D12CC12CF12CE12CC7017C
:103050000996B5DFC80ED11C8FEFE81AF80ACE1515
:10306000DF05A9F7AC14BD04F9F4E6E2F4E080E270
:10307000DF011D928A95E9F71092530310926103C4
:1030800010926203109263031092640381E00115B1
:10309000110509F080E08093980210924704109285
:1030A000460481E080936503CDB7DEB7EAE00C9477
:1030B000103820915803309159038217930718F460
:1030C00009967DCF089580E00895A9E3B0E0EBE68E
:1030D000F8E10C94EE377C01FB018285882381F0B6
:1030E000F7011182108213821282158214826C5FA2
:1030F0007F4FC70145DEC701E996E0E10C940A382D
:1031000080809180A280B38020E030E0A901C501D9
:10311000B4010E94303920E030E040E05FE387FDF9
:1031200038C0C501B4010E9433380E94FF380E94A4
:1031300066362B013C01AC019B01C501B4010E9424
:1031400032389F772FE632E143E85AE30E94603637
:103150009E012F5F3F4F690187FF20C0F701118259
:1031600010821382128215821482C301B2010E945E
:10317000FF382AE0A6010E94E233F6010190002008
:10318000E9F73197AF014C195D09B601C701C6DDFA
:10319000B2CFC501B4010E943238C7CF1DAA1CAA04
:1031A0001FAA1EAA19AE18AE890122E044E0C5018B
:1031B000B4010E949032BC01CE01C496CCDD62E61F
:1031C00071E0C60113DEB601CE01C496C1DBB82E94
:1031D000C60148DBBB2041F068AD79AD6150710993
:1031E000CE01C49672D8EBCF64E671E0C601FEDD75
:1031F000B601CE01C496ACDBB82EC60133DBBB20D2
:1032000039F068AD79AD61507109CE01C4965DD8D1
:10321000F701118210821382128215821482BE017C
:103220006C5C7F4FC701B2DACE01C4961BDB63CF63
:103230000F931F93CF93DF93D82FC62F61E00E9487
:10324000D70160E08C2F0E94D70160E08D2F0E9493
:10325000AA0183E090E00197F1F761E08D2F0E94D1
:10326000AA0183E290E00197F1F760E08D2F0E94C0
:10327000AA01D0E0FE01E95DFD4F6491FE01EB5B28
:10328000FD4FE491F0E0EE0FFF1FE75FFD4F8591EA
:10329000949100E315E720E030E0462F0E94F929E1
:1032A0006115710581059105B9F06F5F7F4F8F4FF3
:1032B0009F4F9F70611571058105910569F02AE3A3
:1032C00030E040E050E00E949E37CA01B901DF9132
:1032D000CF911F910F91089520E030E0A901F5CF23
:1032E000A7EAB0E0E6E7F9E10C94EC371C01809125
:1032F0004604909147048C010F5F1F4F10934704C1
:1033000000934604D6DE9801280F311DC556DF4FC5
:1033100039832883CB59D040CE0101967C018E01A0
:10332000075A1F4F6C01C701BFDD9BE0E90EF11C7E
:10333000E016F106C1F7F12CA4E6B0E0AC0FBD1F1A
:103340001496C056DF4FB983A883C05AD040EFE629
:10335000F0E0EC0FFD1F3496CC55DF4FF983E88386
:10336000C45AD0402AE730E02C0F3D1F2C5F3F4F5E
:10337000CA55DF4F39832883C65AD040A0904604EF
:10338000B0904704C556DF4F88819981CB59D04012
:10339000A816B90608F09FC645019FEF891A990A39
:1033A0009092470480924604C50183DEE82EA1E096
:1033B0008A1328C0B7E0BF1508F348015801E4E0BC
:1033C000AE0EB11C80914604909147049C012F5F82
:1033D0003F4F30934704209346046BDED4018D9316
:1033E0004D01AA16BB0671F7F80180809180A2807A
:1033F000B380C80159DDD8018D929D92AD92BC92E7
:103400001397C0C0E2E08E135AC0F2E0AF0EB11CB9
:10341000B0924704A0924604C4014BDEE82E60E55A
:1034200071E0CE018C599F4FE1DC6E2D70E0CE0132
:103430008C599F4F24DCEE20E1F08091460490915E
:103440004704EA94C556DF4F28813981CB59D040D3
:103450008217930770F49C012F5F3F4F309347040E
:103460002093460426DE682FCE018C599F4F2FDC17
:10347000E2CF37E03F15F0F0C80116DDD8011D920C
:103480001D921D921D925D01BE016C597F4FCD01B1
:1034900077DC81E0F8018287EE24E394EF0CB80139
:1034A000C601FBE0FF9E800D911D1124A8D9C50126
:1034B000D9D9FE2CCE018C599F4FD4D95FCF23E0B0
:1034C000821332C032E0A30EB11CB0924704A09226
:1034D0004604C401EEDD97E09F1508F44FCF883015
:1034E00008F03DC1A4E08A9FF0011124EA5DFB4F82
:1034F00080809180A280B380C801D6DCF8018082F0
:103500009182A282B3821286EE24E394EF0CB8017A
:10351000C601FBE0FF9E800D911D112470D9C801EA
:103520000496A0D9FE2C2ACF24E0821338C032E0C2
:10353000A30EB11CB0924704A0924604C401B9DDA9
:1035400097E09F1508F41ACF90E0B0E0A0E0863035
:103550009105A105B10524F085E090E0A0E0B0E080
:10356000825F0E946C025C01C8019EDCB501BB0C4D
:10357000880B990B0E946636D8016D937D938D93CD
:103580009C9313971A961C92EE24E394EF0CB801C7
:10359000C601BBE0FB9E800D911D1124BFCFE5E06D
:1035A0008E1315C0F2E0AF0EB11CB0924704A0928A
:1035B0004604C4017EDDE82E60E00E94D70127E0CA
:1035C0002F1508F4DBCE8E2D0E948201CCCFE6E0D1
:1035D0008E1321C0F2E0AF0EB11CB0924704A0924E
:1035E0004604C40166DDE82E60E00E94D70127E0B2
:1035F0002F1508F4C3CE8E2D0E948201812C912CB0
:103600005401019709F0F5CE812C912C80E8A82E69
:103610008FE3B82EEECEE7E08E1322C03501F2E044
:103620006F0E711C7092470460924604C40141DD24
:10363000E82E23E0A20EB11CB0924704A0924604EB
:10364000C30137DD37E03F1508F498CE682F8E2D83
:10365000EFDD4B015C01C80127DCC501B4018ACF55
:10366000E8E08E1339C03501F2E06F0E711C7092E4
:10367000470460924604C4011CDDE82E450123E0A6
:10368000820E911C9092470480924604C30111DD82
:10369000782E34E0A30EB11CB0924704A0924604E9
:1036A000C40107DD97E09F1508F468CEA3E1812CE3
:1036B000B0EC9B2EB9E7AB2EB4ECBB2EAE1508F4E4
:1036C0001BCF41E0811101C040E0672D8E2D0E948B
:1036D000E70B4B015C0110CF29E082131DC03501BF
:1036E00032E0630E711C7092470460924604C4017C
:1036F000E0DCE82E83E0A80EB11CB0924704A09253
:103700004604C301D6DC97E09F1508F437CE682F36
:103710008E2D0E943A1127CFEAE08E1324C0A0908C
:103720002404B0902504A114B10409F406C5C50110
:103730000E947B08F7E0FF1508F420CED501ED913B
:10374000FC910084F185E02DC5010995812C912C17
:10375000A0E8AA2EAFE3BA2E892B09F0CDCE812C9A
:10376000912C5401C9CE2BE082132AC037E03F15BB
:1037700008F404CECE018C599F4F49DBC80194DB7D
:10378000D8011D921D921D921D925D01BE016C59C2
:103790007F4FCD01F5DA81E0F80182879924939477
:1037A0009F0CB801C601FE9C800D911D112427D8E5
:1037B000C50158D8CE018C599F4F54D8F92CDECD75
:1037C000F4EF7F2E780EF4E0F71508F449C0FF20DF
:1037D00009F4D4CDC6012BE0F29E800D911D112479
:1037E000DC011B975D01CD010E94FE0C0E94FF3899
:1037F0004B0177FD32C0C5010E94FE0CA6961FAE9C
:103800001EAEA697BCE0EB1201C0712CAE014C5964
:103810005F4F672DC4010E941213412C512C3201BD
:10382000882361F0A6966EAD7FADA697072E000C9B
:10383000880B990B0E9466362B013C01C80134DBD2
:10384000F80140825182628273821286B801C501FA
:103850000E94FF13C801049630CE912C812CCECF4C
:10386000FAE28F1320C0FF2009F488CDC6012BE0B7
:10387000F29E800D911D1124DC011B975D01CD018D
:103880000E94E10CE82EC8010FDB61E0E6266E2DF8
:1038900070E090E080E00E946436F80160837183FC
:1038A00082839383D2CFF1E0FF1508F067CD2FEF2D
:1038B0002F0DC356DF4F2883CD59D040EBE0BE2EED
:1038C000B6012B9D600D711D1124CE0186589F4FAE
:1038D0006CDAFA94FA948F2D90E0CE55DF4F9983ED
:1038E0008883C25AD040FB9CD0011124C256DF4FBE
:1038F000B983A883CE59D040BD016C0D7D1DCE018A
:1039000081599F4F52DACE018C599F4FCDDAA8963C
:103910001CAE1DAE1EAE1FAEA897AF961FAEAF97E2
:10392000CE0181599F4F0E94FE0C4B015C01CE01DC
:1039300086589F4F0E94FE0C2B013C01ECEEEE0DD1
:10394000E93108F003C1F0E0E855F34E0C94443936
:10395000C11CD21CEF1CF61C061DA61DA61DA61D13
:10396000A61DA61D4E1D0D1E701E7F1E8E1E9A1EAC
:10397000A61DA61DA61DA61DA61EC31EA61DDF1ED6
:10398000701FAC019B01C501B4010E9433384B018B
:103990005C01C80189DAF80180829182A282B38237
:1039A000128612C0AC019B01C501B4010E943238DD
:1039B0004B015C01C80178DAD8018D929D92AD92DD
:1039C000BC9213971A961C92B801CE018C599F4F46
:1039D0000E94FF13C80104960E943214B7C0AC01C4
:1039E0009B01C501B4010E94C536D1CF2CEA35EC4C
:1039F00047E257E39F770E94603687FD97C1A30196
:103A00009201C501B4010E949738D2CF0E94FF38BD
:103A10002B013C0180E090E0A0E8BFE3C956DF4FF6
:103A200088839983AA83BB83C759D0401414150493
:103A3000160417041CF540FE14C0A5019401C956D4
:103A4000DF4F688179818A819B81C759D0400E946C
:103A5000C536C956DF4F688379838A839B83C759EC
:103A6000D040A5019401C501B4010E94C5364B01A7
:103A70005C017594679457944794D8CFC80114DAC1
:103A8000C956DF4F88819981AA81BB81C759D0402F
:103A9000F80180839183A283B38382CFEA968FADAE
:103AA000EA97811108C0CC57DF4FE880C458D04056
:103AB000EE2009F499C0BE0166587F4FCE018B57A6
:103AC0009F4F03DBBE0161597F4FCE0185579F4F4A
:103AD000FCDAC157DF4F28813981CF58D040C75712
:103AE000DF4F88819981C958D0402817390759F488
:103AF000BE016B577F4FCE0185579F4F0E94C81460
:103B000061E0892B09F060E070E090E080E00E94C5
:103B100066364B015C01EE24E394C801C5D9D80197
:103B20008D929D92AD92BC9213971A961C92B801F9
:103B3000CE018C599F4F0E94FF13C80104960E942A
:103B40003214CE0185579F4FE110BEC1F7E0FF153B
:103B5000A0F18BE0CE55DF4F28813981C25AD04089
:103B6000829F7001839FF00C1124EC0CFD1CA89621
:103B70008CAD9DADAEADBFADA897F70180839183AD
:103B8000A283B383C256DF4F88819981CE59D0403A
:103B90000496C056DF4F68817981C05AD0408C0DA1
:103BA0009D1DEED8AF968FADAF97D7011A968C9327
:103BB000C356DF4FF880CD59D040C056DF4F8881C3
:103BC0009981C05AD0400E943214CC55DF4F888171
:103BD0009981C45AD0400E943214CA55DF4F88815F
:103BE0009981C65AD04069CCA3019201C501B401A4
:103BF0000E9432389F772CEA35EC47E257E30E9467
:103C00006036812C912C60E8A62E6FE3B62E87FDDE
:103C100084CF812C912C540180CFEA968FADEA9706
:103C2000811108C0CC57DF4FE880C458D040EE2047
:103C300009F43DC0BE0166587F4FCE018B579F4FA0
:103C400044DABE0161597F4FCE0185579F4F3DDA5F
:103C5000C157DF4F28813981CF58D040C757DF4F38
:103C600088819981C958D0402817390759F4BE0175
:103C70006B577F4FCE0185579F4F0E94C81461E05C
:103C8000892B09F060E081E0682770E090E080E037
:103C90000E9466364B015C01EE24E394C80104D90E
:103CA000F80180829182A282B382128640CFA30162
:103CB0009201C501B4010E9432389F772CEA35EC9D
:103CC00047E257E30E943039812C912C50E8A52E11
:103CD0005FE3B52E87FFE2CF812C912C5401DECF1C
:103CE000AC019B01C501B4010E94603687FF1EC074
:103CF000812C912C40E8A42E4FE3B42E5BCEAC0176
:103D00009B01C501B4010E9460361816DCF0812CBD
:103D1000912C30E8A32E3FE3B32E3BCEAC019B01A8
:103D2000C501B4010E943039181614F3812C912C6E
:103D3000540140CEAC019B01C501B4010E94303951
:103D400087FFE5CF812C912C540123CECE018159E0
:103D50009F4F0E94E10CE82E882331F0CE01865857
:103D60009F4F0E94E10CE82EC8019ED86E2D70E096
:103D700090E080E00E946436D8016D937D938D932E
:103D80009C9313971FCECE0181599F4F0E94E10C47
:103D9000E82E811106C0CE0186589F4F0E94E10C8B
:103DA000E82EC80181D86E2D70E090E080E00E947E
:103DB0006436F8016083718382839383F1CDBE0101
:103DC00066587F4FCE018B579F4F7FD9BE016159F7
:103DD0007F4FCE018F569F4F78D9C557DF4F19823D
:103DE0001882CB58D040C357DF4F19821882CD5864
:103DF000D040C157DF4F19821882CF58D040BE0142
:103E00006F567F4FCE0185579F4F0E94C016CB57EC
:103E1000DF4F88809980C558D0408114910409F4FF
:103E200059C0C757DF4FA880B980C958D040A114E6
:103E3000B10441F1C157DF4F88819981CF58D040FB
:103E4000A80EB91EB501CE0185579F4F0E943F169F
:103E5000882309F43FC0C557DF4F28813981CB58EB
:103E6000D040C157DF4F88819981CF58D040B401ED
:103E7000820F931F0E943E3BC157DF4FB982A88239
:103E8000CF58D040C80110D8D8011D921D921D9264
:103E90001D925D01BE0165577F4FCD010E94C01686
:103EA00081E0F8018287B801CE018C599F4F0E94B2
:103EB000FF13C5010E943214CE0185579F4F0E9407
:103EC0003214CE018F569F4F0E943214CE018B5771
:103ED0009F4F82CDCE0185579F4F0E942014D2CF95
:103EE000C501B4010E94FF385B01613471051CF00B
:103EF00020E4A22EB12C1A141B041CF0AA24A394B3
:103F0000B12CC301B2010E94FF384B01A616B706BF
:103F10000CF44501181419041CF088248394912C86
:103F2000CE018F569F4F0E940717CB56DF4F6880F8
:103F30007980C559D040A614B7040CF4350160E56A
:103F400071E0C8010E94F616CB56DF4F8881998137
:103F5000C559D040009709F18615970508F43C0132
:103F6000CF56DF4FE881F981C159D040E60DF71DEA
:103F7000E0801082CF56DF4F68817981C159D040EF
:103F8000C8010E94AB16CF56DF4F88819981C15975
:103F9000D040680E791ED301EC92B801CE018F5645
:103FA0009F4F0E94C613C8010E9432145401CB5681
:103FB000DF4F88819981C559D0408815990508F44B
:103FC0006EC03401B1E06B1A71088614970410F0CA
:103FD0005301340160E571E0CE018B579F4F0E9481
:103FE000F616CB56DF4F88809980C559D040A8146B
:103FF000B90428F56814790408F44301CF56DF4F5B
:10400000E881F981C159D040E80DF91DE0801082A6
:10401000CF56DF4F68817981C159D0406A0D7B1D31
:10402000CE018B579F4F0E94AB16CF56DF4F888132
:104030009981C159D040880E991EF401E082C801CF
:104040000E945417D8011D921D921D921D92CD0100
:10405000BE016B577F4F0E94C01681E0F801828736
:10406000B12CEE24E394B801CE018C599F4F0E94ED
:10407000FF13C80104960E943214BB2029F0CE0120
:1040800085579F4F0E943214EE2029F0CE018B57A6
:104090009F4F0E943214CE018F569F4F9DCC60E5FA
:1040A00071E0CE0185579F4F0E94F616C8010E940D
:1040B0005417D8011D921D921D921D92CD01BE0173
:1040C00065577F4F0E94C01681E0F8018287BB24AC
:1040D000B394E12CC8CFC556DF4FE881F981CB59A5
:1040E000D040F0934704E0934604FF20D1F0B6019E
:1040F000FBE0FF9E600D711D11246B507109C10121
:104100000E94D5160B501109C80104960E94321462
:10411000C016D106B9F7C101C955DF4FE2E10C94D1
:104120000838C1010E945417D1011D921D921D92A1
:104130001C9213971A961C92E5CFB7E0BF1508F4AE
:104140001DC90DCBA5E1B0E0E8EAF0E20C94EE3732
:104150001092610310926203109263031092640341
:1041600020919802A0905803B0905903211104C0E7
:10417000A0909602B09097028091460490914704D7
:104180008A159B05B8F4E0904604F0904704670157
:104190002FEFC21AD20AD0924704C0924604C70138
:1041A0000E945918182F81111FC0B0924704A09285
:1041B000460416C010925303809196029091970284
:1041C000211103C021E0209398029093470480932B
:1041D000460420915803309159038217930798F2AF
:1041E0006596E0E10C940A388130A1F5CE01019684
:1041F00077D8CE0101960E94FE0C6B017C01CE01A6
:1042000005960E94321420E030E0A901C701B601F2
:104210000E94603687FF03C0C12CD12C76010E941A
:10422000D7024B015C0120E030E04AE754E4C701CB
:10423000B6010E94C5360E940439860E971EA81E3C
:10424000B91E8092610390926203A0926303B092C0
:104250006403C6CF8EEF810F8230E8F562E0E60E90
:10426000F11CF0924704E0924604C6010E945918DE
:10427000082FCE01019634D8CE0101960E94FE0C83
:104280006B017C01CE0105960E943214083008F0C3
:10429000A7CF74E0079FC0011124123049F48A5D52
:1042A0009B4FDC01CD92DD92ED92FC92139798CF5B
:1042B0008C010A5D1B4FA7019601F8016081718195
:1042C000828193810E943338D8016D937D938D93C1
:1042D0009C93139785CF143019F55701B2E0AB0EBC
:1042E000B11CB0924704A0924604C6010E9459181E
:1042F000182FE3E0EE0EF11CF0924704E092460422
:10430000C5010E945918082F61E0812F0E94D70132
:1043100061E0011101C060E0812F0E94AA0160CF1D
:10432000153099F5F2E0EF0EF11CF0924704E0929F
:104330004604C6010E945918182F61E00E94D70157
:10434000CE0101960E947019CE0101960E94FE0CCA
:104350006B017C01CE0105960E943214C701B601A3
:104360000E94FF386F3F71058105910529F024F007
:104370006FEF70E080E090E097FF03C060E070E0D6
:10438000CB01812F0E9413022BCF163009F042C0BF
:1043900087010E5F1F4F1093470400934604C60128
:1043A0000E945918D82E23E0E20EF11CF092470427
:1043B000E0924604C8010E945918182FCE010196B8
:1043C0000E947019CE0101960E94FE0C4B015C0107
:1043D000CE0105960E943214C501B4010E94FF3837
:1043E0006F3F71058105910529F024F06FEF70E0B2
:1043F00080E090E06130AFEF7A078A079A0724F4F3
:1044000061E07FEF8FEF9FEFAB01612F8D2D0E9459
:10441000C510E6CE173009F041C0B2E0EB0EF11C3A
:10442000F0924704E0924604C6010E9459180E9487
:1044300012108C01CE0101960E947019CE010196D6
:104440000E94FE0C6B017C01CE0105960E94321485
:104450000115110509F4C4CEC701B6010E94FF3849
:1044600097FF0FC0D801EC918E2F90E0FC01EE0F6A
:10447000FF1FE80FF91FE95BFA4F80818F7B808374
:10448000AFCE653B71058105910524F064EB70E0CA
:1044900080E090E0C8010E943609A2CE183009F0F1
:1044A0006DC0B2E0EB0EF11CF0924704E0924604BE
:1044B000C6010E945918182FCE0101960E9470194A
:1044C000CE0101960E94FE0C6B017C01CE01059687
:1044D0000E943214C701B6010E94FF386B017C01B3
:1044E000E1E2CE16EEE4DE06E104F10434F050E23F
:1044F000C52E5EE4D52EE12CF12CF4E1CF16D104CB
:10450000E104F1042CF444E1C42ED12CE12CF12C73
:10451000CE0101960E947019CE0101960E94FE0CF8
:104520004B015C01CE0105960E94321420E030E080
:10453000A901C501B4010E94603687FF03C0812C28
:10454000912C540120E030E04AE754E4C501B40165
:104550000E94C5360E9404399B01AC0110930D01E5
:10456000211531054105510521F421E030E040E0FD
:1045700050E0B601812F0E94210332CE193069F438
:1045800022E0E20EF11CF0924704E0924604C601DC
:104590000E9459180E94F50223CE1A3039F55701AE
:1045A00062E0A60EB11CB0924704A0924604C60178
:1045B0000E945918D82E87010D5F1F4F1093470492
:1045C00000934604C5010E945918C82E74E0E70EF6
:1045D000F11CF0924704E0924604C8010E94591869
:1045E000482F6C2D8D2D0E94D011FACD1B3009F073
:1045F00065C0CE0101960E947019CE0101960E94FD
:10460000FE0C6B017C01CE0105960E943214CE0196
:1046100001960E947019CE0101960E94FE0C4B017A
:104620005C01CE0105960E943214CE0101960E94D3
:104630007019BE016F5F7F4FCE010C960E94651806
:10464000CE0105960E94321480915703882389F188
:10465000C701B6010E94FF386B017C0184E0C816D7
:10466000D104E104F1042CF033E0C32ED12CE12C71
:10467000F12CF7FE03C0C12CD12C7601C501B40189
:104680000E94FF38DC01CB0184319105A105B10501
:1046900024F083E190E0A0E0B0E0B7FF03C080E049
:1046A00090E0DC016C2D0E94B111CE010C960E94AD
:1046B0009611CE010C960E94321492CD1C3019F442
:1046C0000E94C4118DCD1D31D1F487010E5F1F4FA3
:1046D0001093470400934604C6010E945918D82E2F
:1046E000A3E0EA0EF11CF0924704E0924604C801F0
:1046F0000E945918682F8D2D0E94910F71CD1E3187
:1047000009F059C0CE0101960E947019CE010196A0
:104710000E94FE0C6B017C01CE0105960E943214B2
:10472000CE0101960E947019CE0101960E94FE0CE6
:104730004B015C01CE0105960E943214CE01019618
:104740000E947019BE016F5F7F4FCE010C960E94D0
:104750006518CE0105960E943214C701B6010E9469
:10476000FF386B017C01B8E0CB16D104E104F10401
:104770002CF027E0C22ED12CE12CF12CF7FE03C047
:10478000C12CD12C7601C501B4010E94FF386031E3
:1047900071058105910524F06FE070E080E090E004
:1047A00097FF03C060E070E0CB014C2DCE010C966A
:1047B0000E94820E7ECF1F3119F40E94620F10CD2D
:1047C0001032C9F4E2E0EE0EF11CF0924704E092E0
:1047D0004604C6010E945918873008F086E0682F09
:1047E00070E08DE20E9404116CE271E080E090E0E4
:1047F0000E94A602F5CC1D3009F063C0F2E0EF0E76
:10480000F11CF0924704E0924604C6010E94591838
:10481000B82ECE0101960E947019CE0101960E9419
:10482000FE0C6B017C01CE0105960E943214C7017B
:10483000B6010E94FF386B017C012DE3C216D10442
:10484000E104F1042CF09CE3C92ED12CE12CF12CD5
:104850001C141D041E041F0424F0C12CD12C76014D
:10486000C39400915403109155030115110589F06B
:10487000D80119968D919C910E94E639F8018681A4
:10488000978197FD03C060E00E94D701C8010E9494
:10489000E63986E190E00E944A398C014B2D50E0C8
:1048A000B6010E946F131093550300935403C8017F
:1048B0000E945707C8010E946513C8010E9499060B
:1048C0008FCC1E3009F059C0CE0101960E9470199C
:1048D000CE0101960E94FE0C6A8B7B8B8C8B9D8B8C
:1048E000CE0105960E943214CE0101960E947019E5
:1048F000CE0101960E94FE0C6B017C01CE01059653
:104900000E943214CE0101960E947019CE010196C8
:104910000E94FE0C4B015C01CE0105960E943214F0
:10492000CE0101960E947019CE0101960E94FE0CE4
:104930002B013C01CE0105960E943214C301B20145
:104940000E94FF382B013C01C501B4010E94FF38D1
:104950004B015C01C701B6010E94FF386B017C016D
:104960006A897B898C899D890E94FF38CB019201DD
:10497000A401B6010E949B0D33CC1F3049F4009175
:104980005403109155030115110509F093CF28CC5C
:10499000103109F03FC087010E5F1F4F109347048D
:1049A00000934604C6010E945918B82EF3E0EF0E9A
:1049B000F11CF0924704E0924604C8010E94591885
:1049C000182FCE0101960E947019CE0101960E9407
:1049D000FE0C6B017C01CE0105960E943214612F02
:1049E0008B2D0E943A14882309F4FACBC701B60133
:1049F0000E94FF386F3171058105910524F06EE149
:104A000070E080E090E097FF03C060E070E0CB01D1
:104A100086E01EC01131F9F4CE0101960E94701992
:104A2000CE0101960E94FE0C6B017C01CE01059621
:104A30000E943214C701B6010E94FF3816161706ED
:104A40001806190624F061E070E080E090E083E051
:104A50000E94AC0FC5CB123179F4CE0101960E94B1
:104A60007019CE0101960E94FE0C6B017C01CE01F3
:104A700005960E943214BACF70E060E086E11331EF
:104A800039F3143109F05BC087010E5F1F4F10939B
:104A9000470400934604C6010E945918D82E23E00B
:104AA000E20EF11CF0924704E0924604C8010E9415
:104AB0005918C82EE3D48C01E0902404F09025040A
:104AC000E114F10431F0C7010E946308C7010E949C
:104AD000E6398FE190E00E944A397C01DC011396AF
:104AE0001C921E92129788EE93E0A0E0B0E0F701CE
:104AF00084839583A683B7838CE191E0918380833F
:104B0000178A168A118E108E138E128E158E148EA1
:104B1000868D8E7F8D7F868F6C2DC7010E943C080D
:104B20006D2DC7010E941508F0922504E09224041F
:104B3000A80170E060E0C7010E94AC0851CB1531BC
:104B400011F5009124041091250401151105C9F1F6
:104B5000C8010E947B08CE0101960E947019BE0117
:104B60006F5F7F4FCE010C960E946518BE01645F97
:104B70007F4FC8010E945B15CE010C960E94321433
:104B8000CE01059698CD1B3109F5009124041091B2
:104B9000250401151105A9F0C8010E947B08CE016A
:104BA00001960E947019BE016F5F7F4FCE010C9677
:104BB0000E946518BE01645F7F4FC8010E946605B0
:104BC000DBCFCE0101960E947019DACF1C3111F5AE
:104BD000F2E0EF0EF11CF0924704E0924604C601A9
:104BE0000E945918182FCE0101960E947019BE011B
:104BF0006F5F7F4FCE010C960E946518612FCE012A
:104C00000C960E94900BCE010C960E943214CE019D
:104C1000059651CD1631C9F46AEB71E08EE994E046
:104C20000E947505CE0101960E947019BE016F5F4A
:104C30007F4FCE010C960E946518BE01645F7F4FC6
:104C40008EE994E00E945B15DECF173131F416D463
:104C50009093470480934604C3CA183189F4CE0167
:104C600001960E947019CE0101960E94E10C182F46
:104C7000CE0105960E94321401D41111B1CAE8CFB9
:104C80001931A1F5CE0101960E947019CE0101964D
:104C90000E94FE0C0E94FF386B017C01CE0105963C
:104CA0000E943214EBD39C011C141D041E041F042B
:104CB0002CF0309347042093460492CA90915303FA
:104CC0009430B8F726E0929FF0011124E258FD4F8E
:104CD000209146043091470431832083C282D382DD
:104CE000E482F5829F5F909353037ACA1A3131F5BB
:104CF000C5D39C0190915303992309F471CA692F7C
:104D00006150770B86E0869FF001879FF00D11249C
:104D1000E258FD4F428153816481758141505109B0
:104D200061097109428353836483758314161506E0
:104D3000160617060CF4BDCF9150D5CF109265031F
:104D40004FCA009719F00E949333BC01CB0108951C
:104D50001F920F920FB60F9211242F933F938F93B0
:104D60009F93AF93BF9380911C0490911D04A091D9
:104D70001E04B0911F0430911B0423E0230F2D3734
:104D800058F50196A11DB11D20931B0480931C04AE
:104D900090931D04A0931E04B0931F0480912004DF
:104DA00090912104A0912204B09123040196A11DA9
:104DB000B11D8093200490932104A0932204B0930A
:104DC0002304BF91AF919F918F913F912F910F90AD
:104DD0000FBE0F901F90189526E8230F0296A11D75
:104DE000B11DD2CF1F920F920FB60F9211242F93A5
:104DF0003F934F935F936F937F938F939F93AF9363
:104E0000BF93EF93FF9380914F0390915003A09134
:104E10005103B0915203892B8A2B8B2BD1F19091A6
:104E20004E03E0914C03F0914D03808189278083EC
:104E300080914F0390915003A0915103B091520380
:104E4000181619061A061B069CF480914F039091C0
:104E50005003A0915103B09152030197A109B109E8
:104E600080934F0390935003A0935103B093520348
:104E7000FF91EF91BF91AF919F918F917F916F9132
:104E80005F914F913F912F910F900FBE0F901F9008
:104E9000189580910C010E94F502EACF1F920F92A3
:104EA0000FB60F9211242F933F934F935F936F93FD
:104EB0007F938F939F93AF93BF93EF93FF938EE96D
:104EC00094E00E940906FF91EF91BF91AF919F91ED
:104ED0008F917F916F915F914F913F912F910F90A3
:104EE0000FBE0F901F9018951F920F920FB60F9242
:104EF00011242F938F939F93EF93FF93E091AE0430
:104F0000F091AF048081E091B404F091B50482FD8A
:104F10001BC090818091B7048F5F8F732091B8047C
:104F2000821741F0E091B704F0E0E256FB4F958F15
:104F30008093B704FF91EF919F918F912F910F90E4
:104F40000FBE0F901F9018958081F4CF1F920F9283
:104F50000FB60F9211242F933F934F935F936F934C
:104F60007F938F939F93AF93BF93EF93FF93E091C2
:104F70004003F0914103309749F0A685B7858585B8
:104F8000968D91FF14C09C918923A1F4FF91EF911C
:104F9000BF91AF919F918F917F916F915F914F9151
:104FA0003F912F910F900FBE0F901F9018959C91DD
:104FB000892361F7A389B4899C9185898095892388
:104FC0008C93868997890197F1F7608D718DA685FD
:104FD000B785558538E020E0CB010197F1F7822FA6
:104FE00090E095958795282F4C91452309F02068EE
:104FF000315091F7868D81FD209580913E0390E0A0
:1050000001968F73992730913F03381799F0A0913B
:105010003E03B0E0A250BD4F2C9380933E03828D9F
:10502000938D0197F1F7A389B4898C919589892B88
:105030008C93ACCF868D8160868FF1CF1F920F92BB
:105040000FB60F9211242F933F934F935F936F935B
:105050007F938F939F93AF93BF93CF93DF93EF9300
:10506000FF938091FD02C0916B05D0E087FF24C0C3
:1050700010928500109284008091FD028F5F8093D2
:10508000FD028091FD02082E000C990B8C179D07E4
:1050900024F48091FD028C30C4F1809184009091C1
:1050A0008500049680349C4908F47AC0809184007D
:1050B00090918500049676C08091FD02082E000C28
:1050C000990B8C179D07C4F6E091FD028E2FEE0F11
:1050D000990BFC01EE0FFF1FE80FF91FE95BFA4F78
:1050E000808186FFC9CFE091FD028E2FEE0F990BD4
:1050F000FC01EE0FFF1FE80FF91FE95BFA4F8081FB
:1051000060E08F730E94AA01B7CF20918400309194
:105110008500E091FD028E2FEE0F990BFC01EE0F42
:10512000FF1FE80FF91FE95BFA4F81819281820F1F
:10513000931F9093890080938800E091FD028E2F49
:10514000EE0F990BFC01EE0FFF1FE80FF91FE95B53
:10515000FA4F808186FF11C0E091FD028E2FEE0F85
:10516000990BFC01EE0FFF1FE80FF91FE95BFA4FE7
:10517000808161E08F730E94AA01FF91EF91DF911E
:10518000CF91BF91AF919F918F917F916F915F91DF
:105190004F913F912F910F900FBE0F901F90189538
:1051A00080E49CE990938900809388008FEF80933E
:1051B000FD02E3CF1F920F920FB60F9211242F938F
:1051C0003F934F935F936F937F938F939F93AF938F
:1051D000BF93EF93FF938091B900887F803609F4E5
:1051E0004AC0F0F5883209F4A7C018F5803109F4F7
:1051F0009BC0B8F4882309F4F9C0883009F494C03E
:10520000FF91EF91BF91AF919F918F917F916F919E
:105210005F914F913F912F910F900FBE0F901F9074
:105220001895883109F488C0803251F78093720450
:1052300014C0803409F49DC040F48033B9F388333E
:10524000F9F68093720485ECB0C0803509F485C00E
:10525000883509F496C0883499F60E949517D0CF06
:10526000883909F48CC038F5883729F050F488362D
:1052700011F0803729F683E0809374041092FC02C9
:1052800057C0883809F47BC0803919F0803809F09C
:10529000B7CF8091FC02803208F071C0E091FC022F
:1052A00081E08E0F8093FC028091BB00F0E0E4521D
:1052B000FD4F80833DC0803B39F0E0F4803A09F433
:1052C00079C0883A09F09CCF84E0809374041092EE
:1052D000DB021092DA02E0914A04F0914B04099546
:1052E0008091DA0281110FC081E08093DA0210927E
:1052F000BA0209C0803C09F4A6CF883C09F4A3CFC8
:10530000883B09F07DCFE091DB0281E08E0F809336
:10531000DB02F0E0E654FD4F80818093BB0090916A
:10532000DB028091DA0229C080914F048093BB0098
:1053300085EC8093BC0064CF9091710480917004DF
:10534000981758F5E091710481E08E0F80937104F5
:10535000F0E0E05BFB4F8081E9CFE091710481E0F8
:105360008E0F809371048091BB00F0E0E05BFB4FF7
:10537000808390917104809170049817C8F285E839
:10538000D8CFE091710481E08E0F809371048091F9
:10539000BB00F0E0E05BFB4F8083809173048111E0
:1053A0005CCF81E080934E0484EA8093BC0010922D
:1053B000740426CF85EC8093BC0010927404809115
:1053C000FC02803230F4E091FC02F0E0E452FD4F48
:1053D00010826091FC0270E0E0914804F091490471
:1053E0008CED92E009951092FC020ACF10927204A3
:1053F00034CFCF92DF92EF92FF920F931F93E82F5B
:10540000F92F05C0015011092109310961F190817D
:1054100096239417B9F305C00150110921093109E8
:1054200011F1908196239413F7CFC12CD12CE12C4C
:10543000F12C0AC08FEFC81AD80AE80AF80A0C152E
:105440001D052E053F0579F080818623841791F391
:105450006C2D7D2D8E2D9F2D1F910F91FF90EF9024
:10546000DF90CF90089560E070E080E090E01F91C1
:105470000F91FF90EF90DF90CF900895EF92FF9201
:105480000F931F93CF93DF93C0914604D0914704AD
:105490007E012FEFE21AF20AF0924704E0924604EE
:1054A000CE010E945918082F10E02296D09347048D
:1054B000C0934604C7010E9459189801382BC901AE
:1054C000CDB7DEB7E6E00C9414381092A104109228
:1054D000A00488EE93E0A0E0B0E08093A204909353
:1054E000A304A093A404B093A5042EE231E030936A
:1054F0009F0420939E0425EC30E03093AB0420936E
:10550000AA0424EC30E03093AD042093AC0420ECEA
:1055100030E03093AF042093AE0421EC30E03093C0
:10552000B1042093B00422EC30E03093B304209314
:10553000B20426EC30E03093B5042093B40410920A
:10554000B7041092B8041092B9041092BA041092E1
:105550003E0510923D0580933F0590934005A09332
:105560004105B093420580E491E090933C0580931F
:105570003B05ECE6F5E028E735E04FEF68EB7BE034
:1055800080916B058C30B0F491E0980F90936B058F
:10559000808390E0DC01AA0FBB1FA80FB91FA95B95
:1055A000BA4F12967C936E93119733962E173F073E
:1055B00039F708954083F9CFA3E2B0E0E2EEFAE2D2
:1055C0000C94EC37789484B5826084BD84B5816096
:1055D00084BD85B5826085BD85B5816085BD8091BE
:1055E0006E00816080936E00109281008091810036
:1055F000826080938100809181008160809381002E
:10560000809180008160809380008091B1008460EF
:105610008093B1008091B00081608093B000809150
:105620007A00846080937A0080917A00826080930F
:105630007A0080917A00816080937A0080917A006C
:10564000806880937A001092C100E091AE04F091DE
:10565000AF0482E08083E091AA04F091AB04108251
:10566000E091AC04F091AD0480E180831092B60427
:10567000E091B204F091B30486E08083E091B0043D
:10568000F091B104808180618083E091B004F09159
:10569000B104808188608083E091B004F091B1040E
:1056A000808180688083E091B004F091B1048081B2
:1056B0008F7D80836EE571E080E090E00E94A6021D
:1056C0000E942E160E94E217E8EE8E2EE3E09E2E38
:1056D000A12CB12C7CE1272E71E0372E8EE994E0CD
:1056E0000E94EB05892B09F4F2C68EE994E00E9432
:1056F000C9058D3099F3E0911A048A3009F0DBC6B0
:10570000AE2FB0E0AA59BC4F1C92EE2351F066E6D2
:1057100071E086E693E00E94353B892B29F40E94D4
:105720002E1610921A04DACF6BE671E086E693E04B
:105730000E94B8337C016BE671E090E080E00E944B
:10574000B8338C01E114F10461F3892B51F36DE658
:1057500071E0C7010E94353B892B09F07DC16BE6E2
:1057600071E090E080E00E94B8337C016E0122E19C
:10577000C20ED11C712C6BE671E090E080E0F8D78E
:10578000D6018D939D936D01892B21F07394B6E022
:105790007B12F1CFE114F10421F26FE671E0C70151
:1057A0000E94353B892BD1F47720C1F070E060E096
:1057B0008A899B89C6DAF82E60E00E94D7018F2D76
:1057C0000E948201BC01990F880B990B0E946636DA
:1057D000AB01BC01C8010E946E15A3CF60ED71E062
:1057E000C7010E94353B892BA1F4772091F070E02E
:1057F00060E08A899B89A5DA97FD07C0863091050C
:1058000034F4825F0E946C02DDCF8EE0FBCF83E137
:10581000F9CF62E771E0C7010E94353B892BB1F4F3
:105820007720A1F070E060E08A899B898ADAF82EFF
:1058300060E00E94D7018F2D0E948201019709F03C
:10584000AEC040E050E060E87FE3C4CF69E771E0BC
:10585000C7010E94353B892B91F4E1E0E71578F40C
:1058600070E060E08C899D896CDAF82E70E060E071
:105870008A899B8966DA6F2D0E941819A7CF6FE776
:1058800071E0C7010E94353B892B91F4F1E0F715D7
:1058900078F470E060E08C899D8953DAF82E70E02E
:1058A00060E08A899B894DDA6F2D0E943A118ACF78
:1058B00064E871E0C7010E94353B892B29F522E09D
:1058C000271510F570E060E08A899B893ADAD82EB6
:1058D00070E060E08E899F8934DA7C0170E060E0DE
:1058E0008C899D892EDA93E140E050EC69E774ECF5
:1058F0009D1508F46FCF41E0EF2809F440E0682FD0
:105900008D2D0E94E70B64CF68E871E0C7010E940B
:10591000353B892B41F5A1E0A71528F51A8219829C
:1059200070E060E08C899D890CDAF12C97FD05C050
:10593000F82E059714F064E0F62E70E060E08A8996
:105940009B89FFD997FF02C090E080E0AE014F5FD6
:105950005F4F6F2D0E94121369817A81072E000C10
:10596000880B990B33CF6EE871E0C7010E94353B7D
:10597000892BC9F4E0902404F0902504E114F1048B
:1059800071F0C7010E947B08D701ED91FC91008462
:10599000F185E02DC7010995892B09F052CF40E030
:1059A00050E0BA0117CF66E971E0C7010E94353BAC
:1059B000892BA9F7CE014E960E94071760EC71E083
:1059C0008EE994E00E947505B8018EE994E00E948A
:1059D000F4148CE20E94750681E1EDE5F2E0DE014F
:1059E000119601900D928A95E1F710E000E08AA1EE
:1059F0009BA10817190728F5B801CE014E960E9401
:105A0000E302F82EE82FF0E054E0F595E7955A957B
:105A1000E1F781E090E08C0F9D1FE80FF91F808176
:105A20000E947506EF2DEF70A1E0B0E0AC0FBD1F36
:105A3000AE0FB11DFD0180810E9475060F5F1F4FE3
:105A4000D6CF6EE471E08EE994E00E94F414CE01AA
:105A50004E960E94321465CE6DE971E0C7010E9436
:105A6000353B892B09F0C8C3FE0131966F01F12C3B
:105A70006BE671E090E080E07BD6D6018D939D933C
:105A80006D01892B09F0B3C36FE971E0C8010E9471
:105A9000353B892BC9F4B1E0BF15B0F470E060E08C
:105AA00089819A814ED9182F61E00E94D70170E058
:105AB00060E08B819C8145D961E0892B09F460E02D
:105AC000812F0E94AA012DCE62EA71E0C8010E94D6
:105AD000353B892B01F5E1E0EF15E8F470E060E07B
