:100000000C94D0010C94F8010C94F8010C94F32694
:100010000C94F3260C94F3260C94F8010C943F26D0
:100020000C94F8010C94F8010C94F8010C946B27D3
:100030000C94F8010C94F8010C94F8010C94F8015C
:100040000C94F5250C94F8010C94C1260C949B2675
:100050000C94F8010C94F8010C94F8010C94F8013C
:100060000C9427280C94F80107634236B79BD8A755
:100070001A39685618AEBAAB558C1D3CB7CC5763CD
:10008000BD6DEDFD753EF6177231BF000000803F7B
:1000900008000000BE922449123EABAAAA2ABECD97
:1000A000CCCC4C3E00000080BEABAAAAAA3E000009
:1000B0000000BF000000803F000000000008417801
:1000C000D3BB4387D1133D190E3CC3BD4282AD2B38
:1000D0003E68EC8276BED98FE1A93E4C80EFFFBE30
:1000E00001C4FF7F3F00000000004E414E494E49D1
:1000F0005459494E46CDCCCC3D0AD7233C17B7D1F5
:100100003877CC2B329595E6241FB14F0A0000209A
:10011000410000C84200401C4620BCBE4CCA1B0E19
:100120005AAEC59D7400407A10F35A00A0724E1862
:10013000090010A5D4E80000E87648170000E40B99
:1001400054020000CA9A3B000000E1F5050000805F
:10015000969800000040420F000000A086010000B9
:1001600000102700000000E8030000000064000009
:100170000000000A00000000000100000000002C48
:1001800076D888DC674F0823DFC1DFAE59E1B1B70D
:1001900096E5E3E453C63AE651997696E8E6C284DA
:1001A00026EB898C9B62ED407C6FFCEFBC9C9F40F2
:1001B000F2BAA56FA5F490055A2AF75C936B6CF917
:1001C000676DC11BFCE0E40D47FEF520E6B500D0ED
:1001D000ED902E0300943577050080841E08000002
:1001E000204E0A000000C80C333333330F986E12D0
:1001F000831141EF8D2114893BE65516CFFEE6DBD6
:1002000018D1844B381BF77C1D901DA4BBE424201F
:100210003284725E228100C9F124ECA1E53D2752AF
:10022000454144592C4F6E654D616B65722041729A
:100230006475696E6F2052756E74696D652C005619
:100240002C0041542B4E414D45000D0A0041542BCA
:100250004E414D453D0050524F4752414D5F455232
:10026000524F522C696E76616C69642D6F70636FAA
:100270006465004C4F472C0002542C004C4F472C17
:10028000004552524F522C6D70332D70696E7300C1
:100290004D50335F52454144590050524F475241EF
:1002A0004D5F434C45415245440050524F475241E7
:1002B0004D5F4552524F522C656D7074790050520B
:1002C0004F4752414D5F52554E4E494E47005341A4
:1002D0005645442C0050524F4752414D5F455252B3
:1002E0004F522C636865636B73756D0050524F47B6
:1002F00052414D5F444154412C0050524F475241AE
:100300004D5F4552524F522C72616E6765005052DC
:100310004F4752414D5F4552524F522C73697A6597
:100320000050524F4752414D5F524541445900459C
:1003300052524F522C6C696E652D746F6F2D6C6F1D
:100340006E670000000000240027002A0000000063
:100350000023002600290000000008000201000020
:100360000304070000000000000000010204081060
:10037000204080010204081020010204081020001F
:10038000000000250028002B0004040404040404D9
:1003900004020202020202030303030303008B2987
:1003A00011241FBECFEFD8E0DEBFCDBF12E0A0E02A
:1003B000B1E0E6EEFAE702C005900D92A035B10774
:1003C000D9F725E0A0E5B2E001C01D92A835B2073B
:1003D000E1F711E0C0EDD1E004C02197FE010E94D9
:1003E000693BCF3CD107C9F70E94022A0C94713DAA
:1003F0000C940000833081F028F4813099F0823031
:10040000A9F008958730A9F08830C9F08430B1F49C
:10041000809180008F7D03C0809180008F778093D2
:100420008000089584B58F7784BD089584B58F7D4D
:10043000FBCF8091B0008F778093B00008958091BA
:10044000B0008F7DF9CFCF93DF93282F30E0F901F3
:10045000E95AFC4F8491F901E559FC4FD491F90117
:10046000E757FC4FC491CC23A1F081110E94FA01FF
:10047000EC2FF0E0EE0FFF1FE35BFC4FA591B49172
:10048000EC91ED2381E090E009F480E0DF91CF91E1
:10049000089580E090E0FACF1F93CF93DF93282F49
:1004A00030E0F901E95AFC4F8491F901E559FC4F1C
:1004B000D491F901E757FC4FC491CC23A9F0162F32
:1004C00081110E94FA01EC2FF0E0EE0FFF1FE158BE
:1004D000FC4FA591B4918FB7F894EC91111108C01D
:1004E000D095DE23DC938FBFDF91CF911F910895CC
:1004F000DE2BF8CFCF93DF9390E0FC01E559FC4F62
:10050000249187579C4FFC0184918823C9F090E087
:10051000880F991FFC01ED5BFC4FA591B491FC0184
:10052000E158FC4FC591D49161110DC09FB7F8946B
:100530008C91209582238C938881282328839FBFC8
:10054000DF91CF910895623051F49FB7F8943C91B8
:10055000822F809583238C93E8812E2BEFCF8FB74A
:10056000F894EC912E2B2C938FBFEACF1F93CF934F
:10057000DF93182FEB0161E00E947A02209739F493
:1005800060E0812FDF91CF911F910C944C02CF3FFF
:10059000D10511F461E0F5CFE12FF0E0E95AFC4F0D
:1005A000E491E33031F140F4E130B1F0E230E1F0D8
:1005B000C038D1057CF7E4CFE73029F1E83059F1B4
:1005C000E430B1F780918000806280938000D09306
:1005D0008B00C0938A0004C084B5806884BDC7BD09
:1005E000DF91CF911F91089584B5806284BDC8BD0D
:1005F000F7CF80918000806880938000D09389003D
:10060000C0938800EDCF8091B00080688093B000E7
:10061000C093B300E5CF8091B00080628093B000BA
:10062000C093B400DDCF8E3008F08E5087708064A8
:1006300080937C0080917A00806480937A0080911E
:100640007A0086FDFCCF8091780090917900089522
:100650003FB7F89480914E0490914F04A0915004BC
:10066000B091510426B5A89B05C02F3F19F0019603
:10067000A11DB11D3FBFBA2FA92F982F8827BC01FC
:10068000CD01620F711D811D911D42E0660F771F24
:10069000881F991F4A95D1F708958F929F92AF9224
:1006A000BF92CF92DF92EF92FF924B015C010E94CA
:1006B00028036B017C010E9428036C197D098E09B7
:1006C0009F09683E734081059105A8F321E0821AD5
:1006D0009108A108B10888EEC80E83E0D81EE11C7D
:1006E000F11C81149104A104B10429F7FF90EF904B
:1006F000DF90CF90BF90AF909F908F9008952FB7CD
:10070000F89460914A0470914B0480914C0490914C
:100710004D042FBF089508959091090189130BC0CE
:10072000E8E7F2E0E4919FEF90930901E13049F0AE
:1007300028F0E23061F060E00C944C0210926E0000
:10074000FACF90916F009D7F90936F00F4CF9091BE
:1007500070009D7F9093700091E09093B000909115
:10076000B100987F94609093B1001092B300E3CFF2
:100770004F925F926F927F928F929F92AF92BF92B1
:10078000CF92DF92EF92FF920F931F93CF93DF935D
:1007900000D000D01F92CDB7DEB78B0129013A01FE
:1007A000909109018917C9F09F3F09F47EC00F900D
:1007B0000F900F900F900F90DF91CF911F910F919D
:1007C000FF90EF90DF90CF90BF90AF909F908F9071
:1007D0007F906F905F904F900895E8E7F2E09491DA
:1007E0009D8397FDE4CF61E00E947A028D8188238A
:1007F00021F09D81923009F04AC14801B12CA12C11
:1008000060E072E18AE790E0A50198010E9441381A
:1008100029833A834B835C8369017A0181E0C81A9A
:10082000D108E108F1089FEFC916D104E104F104F1
:1008300009F00CF401C160E472E48FE090E0A501DE
:1008400098010E94413869017A0181E0C81AD108F3
:10085000E108F1089D81923009F0A2C08FEFC8161F
:10086000D104E104F10409F00CF4E6C160E970ED93
:1008700083E090E0A50198010E94413869017A0166
:1008800091E0C91AD108E108F1088FEFC816D10428
:10089000E104F10411F00CF07FC183E09091B1000C
:1008A000987F892B8093B100CFC080930901E8E73E
:1008B000F2E094919D839F3F09F479CF913041F10B
:1008C00050F0923009F446C09D8197FD70CF61E0F1
:1008D0000E947A028ECF14BC15BC94B5926094BD70
:1008E00095B5916095BD282F30E0F901E757FC4F91
:1008F000E491F0E0EE0FFF1FE158FC4F4591549159
:10090000F901E559FC4FE491E09371031D826BCF2F
:1009100010928000109281009091810098609093D5
:10092000810090918100916090938100282F30E0A8
:10093000F901E757FC4FE491F0E0EE0FFF1FE1589B
:10094000FC4F45915491F901E559FC4FE491E09336
:10095000700349CF1092B0001092B1009091B00096
:1009600092609093B0009091B10091609093B1002B
:10097000282F30E0F901E757FC4FE491F0E0EE0F4B
:10098000FF1FE158FC4F4591549150937B034093D6
:100990007A03F901E559FC4FE491E0937C0323CFFE
:1009A0009FEFC916D104E104F10409F00CF46DC005
:1009B00068E478EE81E090E0A50198010E9441385A
:1009C00069017A0181E0C81AD108E108F1089D8126
:1009D000992309F4FAC08FEFC816D104E104F10499
:1009E00011F00CF0FBC0EFC064E274EF80E090E027
:1009F000A50194010E94413869017A0181E0C81A79
:100A0000D108E108F10885E09FEFC916D104E1049F
:100A1000F10409F008F442CF62E17AE780E090E067
:100A2000A50194010E94413869017A0181E0C81A48
:100A3000D108E108F108E5C081E09D8191112ECF38
:100A400095B5987F892B85BD2FEF3FEFA901411404
:100A500051046104710409F043C09D81913009F48F
:100A60005EC0923009F46DC09111A1CEC7BC209335
:100A70007603309377034093780350937903809102
:100A80006E00826080936E0092CE82E0D6CFB12C51
:100A9000A12C60E072E18AE790E0A50198010E9434
:100AA000413869017A0181E0C81AD108E108F108EA
:100AB000C114D10491E0E906F10404F591E08D81BF
:100AC000813011F680918100887F892B809381008D
:100AD0002FEF3FEFA9014114510461047104F9F0B3
:100AE000D801AA0FBB1FA30192010E94603828EE13
:100AF00033E040E050E00E941F38AFCF68E478EE6A
:100B000081E090E0A50198010E94413869017A01D5
:100B100081E0C81AD108E108F10893E0D0CFD09263
:100B20008900C0928800209372033093730340932E
:100B300074035093750380916F00826080936F00FF
:100B400036CEC092B30020937D0330937E03409352
:100B50007F035093800380917000826080937000C7
:100B600026CE84E09FEFC916D104E104F10409F018
:100B700008F466CFC980DA80EB80FC808AE0F594C7
:100B8000E794D794C7948A95D1F781E0C81AD10821
:100B9000E108F10885E054CF68E478EE81E090E068
:100BA000A50198010E94413869017A0181E0C81AC3
:100BB000D108E108F1089FEFC916D104E104F1045E
:100BC00011F00CF011CF84E069CE83E09FEFC916DD
:100BD000D104E104F10409F00CF432CF62E17AE7C8
:100BE00080E090E0A50194010E94413869017A01FA
:100BF00081E0C81AD108E108F1089D81992309F420
:100C0000B0CF86E09FEFC916D104E104F10409F0EA
:100C100008F444CEC980DA80EB80FC809AE0F59439
:100C2000E794D794C7949A95D1F781E0C81AD10870
:100C3000E108F10887E032CE82E030CEDB01149685
:100C40004D915C9115976D917C91DC01ED91FC913A
:100C50000280F381E02D0994EF92FF920F931F938E
:100C6000CF93DF938C017B01D0E0C0E0F701EC0F64
:100C7000FD1F6491662361F0D801ED91FC91019014
:100C8000F081E02DC8010995892B11F02196EECF56
:100C9000CE01DF91CF911F910F91FF90EF900895BA
:100CA000AF92BF92CF92DF92EF92FF920F931F937A
:100CB000CF93DF936C017B018B01040F151FEB01B8
:100CC0005E01AE18BF08C017D10759F06991D6016F
:100CD000ED91FC910190F081E02DC6010995892BE1
:100CE00079F7C501DF91CF911F910F91FF90EF90A0
:100CF000DF90CF90BF90AF900895FC01538D448D4D
:100D0000252F30E0842F90E0821B930B541710F0B6
:100D1000CF96089501970895FC01918D828D9817C3
:100D200061F0A28DAE0FBF2FB11D5D968C91928D9B
:100D30009F5F9F73928F90E008958FEF9FEF0895CC
:100D4000FC01918D828D981731F0828DE80FF11D95
:100D5000858D90E008958FEF9FEF0895FC01918DB0
:100D6000228D892F90E0805C9F4F821B91098F73A9
:100D70009927089586E794E00E94AE0621E0892B2A
:100D800009F420E0822F089580E090E0892B29F07B
:100D90000E94BA0681110C9400000895FC01A48DF4
:100DA000A80FB92FB11DA35ABF4F2C91848D90E08D
:100DB00001968F739927848FA689B7892C93A08970
:100DC000B1898C91837080648C93938D848D9813FA
:100DD00006C00288F389E02D80818F7D808308958D
:100DE000EF92FF920F931F93CF93DF93EC0181E07B
:100DF000888F9B8D8C8D98131AC0E889F989808122
:100E000085FF15C09FB7F894EE89FF896083E88954
:100E1000F98980818370806480839FBF81E090E046
:100E2000DF91CF911F910F91FF90EF900895F62ED3
:100E30000B8D10E00F5F1F4F0F731127E02E8C8D6D
:100E40008E110CC00FB607FCFACFE889F9898081B2
:100E500085FFF5CFCE010E94CE06F1CFEB8DEC0FD2
:100E6000FD2FF11DE35AFF4FF0829FB7F8940B8FCF
:100E7000EA89FB8980818062CFCF682F86E794E082
:100E80000C94F006CF93DF93EC01888D8823B9F0A2
:100E9000AA89BB89E889F9898C9185FD03C0808185
:100EA00086FD0DC00FB607FCF7CF8C9185FFF2CF02
:100EB000808185FFEDCFCE010E94CE06E9CFDF9184
:100EC000CF9108958F929F92AF92BF92CF92DF926F
:100ED000EF92FF921F93CF93DF93FC018281938166
:100EE00068177907A8F54A01AA24BB24C82DC32E88
:100EF000D42EE52EFF241C2DD22F8085882361F06F
:100F0000889E40011124C92D8C9D600111241D2D46
:100F1000829FD0011124DB2FA685E184F284938582
:100F2000A91322C0CB01880F991F680F791F6E0D7E
:100F30007F1DA385A60FB72FB11DCC93A485A60F47
:100F4000B72FB11D1C938585680F711DFB01D083E0
:100F5000DF91CF911F91FF90EF90DF90CF90BF90E6
:100F6000AF909F908F900895660F771F660F771F41
:100F70006E0D7F1D252F332744275527882349F0E1
:100F800090E0829F7001839FF00C929FF00C1124DF
:100F90002F2DA60FB72FB11D2C93CBCFCF92DF9261
:100FA000EF92FF920F931F93CF93DF93CDB7DEB7EE
:100FB00029970FB6F894DEBF0FBECDBF8C01DC01C0
:100FC00019968D919C91892B09F473C00E94280376
:100FD000F801C784D088E188F2886C157D058E05FC
:100FE0009F0520F46787708B818B928BF801C784F3
:100FF000D088E188F2886C197D098E099F096C32CE
:1010000071408105910510F3F894D80114968D91E3
:101010009C9115979A8389831996ED91FC917F0194
:10102000BFEFEB1AFB0A80818987F8019081038862
:10103000F489E02DD80155968C91992309F448C084
:101040009081982B98879081809589238F838F81B9
:101050008C8388E08B8358856F8149853B812C8107
:1010600089819A81D701508347FD252F3A952083A6
:10107000262F39F0441F00C000006083000000C02C
:10108000F2CF38E04D9160830000019761F7D801FD
:101090005496FC93EE93539749873B832C839A8312
:1010A000898378940E942803F8016787708B818B6D
:1010B000928B29960FB6F894DEBF0FBECDBFDF919D
:1010C000CF911F910F91FF90EF90DF90CF900895F7
:1010D0009081982B98879081809589238F838F8129
:1010E0008E8388E08D8358856F8149853D812E816F
:1010F00089819A81D701508347FD252F00C000C008
:10110000208300C000C000C000C000C06083000099
:10111000262F3A9541F0441F000000C000C000C0D7
:1011200000C000C0E8CF38E04D9100C0608300C02F
:10113000019709F7D8015496FC93EE93539749878A
:101140003D832E83ACCFCF93DF93EC018E819F81C3
:1011500097FD0CC061E00E947A0260E08E810E94DF
:101160004C0281E08983DF91CF910895198280E05C
:10117000FACF08950895CF92DF92EF92FF92CF9326
:10118000DF93DC011796CC911797D0E06111DC2F2B
:1011900018962C91189730E0220F331F235B3C4F99
:1011A00050E040E0F90185919491FC01F080BA0192
:1011B00090E080E0EF2DEC23ED1310C04F5F5F4F08
:1011C0001D96CD90DD90ED90FC9050976C157D05AF
:1011D0008E059F0538F36FEF7FEFCB01DF91CF9145
:1011E000FF90EF90DF90CF9008958F929F92AF92F3
:1011F000BF92CF92DF92EF92FF920F931F93CF9304
:10120000DF93CDB7DEB7C054D1400FB6F894DEBF40
:101210000FBECDBF8C010E947F03F801C184D28430
:10122000E384F4849B01AC012C193D094E095F094C
:1012300069017A0130EDC31637E0D306E104F10409
:10124000A8F48189C05CDE4F0FB6F894DEBF0FBEF4
:10125000CDBFDF91CF911F910F91FF90EF90DF9065
:10126000CF90BF90AF909F908F90089561877287C5
:10127000838794871482138212821182108262E023
:1012800085810E947A0261E070E080E090E00E9437
:101290004D0361E0F80185810E947A0260E0F80167
:1012A00085810E944C02F80186818551823028F5A3
:1012B0008BE291E10197F1F762E0F80185810E94EC
:1012C0007A02F801828990E08230910538F0880F27
:1012D000991F880F991F05970197F1F7F89460E01F
:1012E000C8010E94BB086F3F7F4F8F4F9F4F61F433
:1012F000F801118A789480E0A5CF64E170E080E085
:1013000090E00E944D03D8CF61E0C8010E94BB0865
:101310006F3F7F4F8F4F9F4F59F39E012F5F3F4F7E
:1013200079015E013FEBA31A3EEFB30A670160E06B
:10133000C8010E94BB08F601608371838283938396
:1013400061E0C8010E94BB08F6016483758386834F
:101350009783F8E0CF0ED11CCA14DB0441F77894D0
:1013600030E020E0F70180809180A280B38044814A
:10137000558166817781FFEF8F169F06AF06BF0606
:1013800031F04F3F8FEF58076807780719F4F801DD
:10139000118AB1CFF90183E0F595E7958A95E1F7D8
:1013A000E00FF11F8081880F84169506A606B70608
:1013B000F0F080832F5F3F4FF8E0EF0EF11C2832F2
:1013C000310581F6F801448120818181280F33277E
:1013D000331F8281280F311D8381820F932F911D2E
:1013E00099274817190699F681E0818B2BCF8160E8
:1013F000E0CF20911803309119032817390771F4B1
:101400009091170380911603981741F0E09117030C
:10141000F0E0EA52FD4F808190E008958FEF9FEF5A
:1014200008950895EF92FF920F931F93CF93DF9348
:10143000DC015C96ED90FC905D97E114F10479F489
:1014400081E090E013969C938E93129790E080E059
:10145000DF91CF911F910F91FF90EF9008955196DA
:10146000ED91FC91529750968C915097982F9095B2
:101470000FB75E962C915E97122F127021FD60952A
:10148000F8942081112319F1282B2083E70121975B
:10149000F1F728E0462F50E0308160FF1AC0382B6A
:1014A0003083E7012197F1F7BA01759567952150CF
:1014B00089F7112381F08081892380830FBF5C9697
:1014C0008D919C910197F1F781E090E0C1CF2923A4
:1014D000DCCF3923E5CF9081892BEFCF2091180302
:1014E000309119032817390761F480911603209170
:1014F000170390E0805C9F4F821B91098F7399279F
:10150000089590E080E00895209118033091190328
:1015100028173907B9F4909117038091160398178B
:1015200089F0E0911703F0E0EA52FD4F80812091AD
:10153000170330E02F5F3F4F2F733327209317039C
:1015400090E008958FEF9FEF08951F93CF93DF935F
:10155000EC01162F60E0812F0E947A028E8D81FDB2
:1015600004C061E0812F0E944C021C87812F90E013
:10157000FC01E559FC4FE491ED87FC01E757FC4F76
:10158000E491F0E0EE0FFF1FE35BFC4F8591949137
:101590009F878E87DF91CF911F9108951F93CF93DF
:1015A000DF93EC01162F6E8D6695617081E06827E0
:1015B000812F0E944C0261E0812F0E947A02812FCC
:1015C00090E0FC01E559FC4FE491E88BFC01E75702
:1015D000FC4FE491F0E0EE0FFF1FE158FC4F8591C6
:1015E00094919A8B898BDF91CF911F910895FC0183
:1015F0008DE191E09183808380911803909119038C
:10160000E817F90759F4A389B4899C9185898095D5
:1016100089238C9310921903109218030895CF9385
:10162000DF93FC01828D938D892B41F1A0911803EA
:10163000B0911903AE17BF0709F1109751F05396F7
:10164000CD91DC915497988155968C918095892302
:101650008883868D8E7F868F1092160310921703D3
:10166000F0931903E0931803A389B4898C919589A9
:10167000892B8C9381E0DF91CF91089580E0FBCF9F
:10168000CF93DF93EC019A01AB011B8E1A8E198E5A
:10169000188E1F8A1E8A60E079E08DE390E00E9438
:1016A0004138F901C90103972430310510F481E074
:1016B00090E09D8F8C8F6C85663108F052C0C90117
:1016C000969587958431910508F450C043979F8B78
:1016D0008E8BC9010597369710F481E090E0998FC1
:1016E000888FC901880F991F280F391F36952795B4
:1016F000369527952D303105E0F12C5031093B8F7F
:101700002A8F9091680084E0683048F021E06E30C4
:1017100008F420E081E001C0880F2A95EAF7892BC0
:10172000809368009C852DE630E0983050F02BE6E1
:1017300030E09E3030F02CE630E0963110F030E0B2
:1017400020E03C8B2B8B292F30E09830A8F481E0EF
:1017500001C0880F9A95EAF78D8B8C8D9D8D01972E
:10176000F1F7CE01DF91CF910C940F0B81E090E067
:10177000AECF21E030E0C3CF9E3040F42850310995
:1017800081E001C0880F2A95EAF7E6CF2E50310993
:10179000F7CFCF92DF92EF92FF92CF93DF93EC01DE
:1017A000603282E07807CCF5653B710514F064EB9C
:1017B00070E0898128E830E0281B310987FD3395E6
:1017C000220F331F220F331F6901330FEE08FF086A
:1017D0008A8128E532E0281B310987FD3395220FE5
:1017E000331F220F331F032E000C440B550B2C19F3
:1017F0003D094E095F09DB0177FF02C0B0E0A0E0C0
:101800000E946B3824EB30E040E050E00E94413809
:10181000C20ED31EE41EF51EB601E881EC3070F551
:10182000298188E890E0821B910927FD9395880F14
:10183000991F880F991F681779077CF02A8188E51E
:1018400092E0821B910927FD9395880F991F880FBD
:10185000991F681779070CF4CB010297880F991F1D
:101860004FB7F8942E2F30E0F901EE0FFF1FE20F73
:10187000F31FE15EFA4F928381834FBFDF91CF91D7
:10188000FF90EF90DF90CF9008952091B202260F45
:101890003327331F21323105ECF420914603FC013C
:1018A00090E080E0243069F082E00895A091B202D7
:1018B0002191AC014E565D4FA40FB52FB11D2C9355
:1018C0000196861798F38091B202680F6093B20276
:1018D00080E0089581E008951092460381E08093AE
:1018E00045031092200361E082E10E944C0261E016
:1018F00083E10E944C02E9EBF0E080818E7F8083DF
:1019000080818D7F808388E48093B80085E4809314
:10191000BC000895CF93DF9391E0909391028823C8
:10192000B9F0C091B800D091BA008091BC008A7B18
:101930008093BC0060E082E10E944C0260E083E1A1
:101940000E944C020E946C0CD093BA00C093B80065
:10195000DF91CF910895E0911F0380911E03E81756
:1019600030F4F0E0EF58FD4F808190E008958FEF64
:101970009FEF089590911F0380911E032FEF3FEF7B
:10198000981748F4E92FF0E0EF58FD4F208130E040
:101990009F5F90931F03C901089580911E0390914A
:1019A0001F03891B990B0895CF92DF92EF92FF924C
:1019B0000F931F93CF93DF937C01CB018A0120917A
:1019C0004C03222389F0EB016B01C40ED51ECC150C
:1019D000DD0569F06991D701ED91FC910190F081ED
:1019E000E02DC7010995F3CF642F0E94450CC80173
:1019F000DF91CF911F910F91FF90EF90DF90CF90EB
:101A00000895CF93DF931F92CDB7DEB769832091FE
:101A10004C032223F9F020916F03203258F021E08B
:101A200030E0FC013383228390E080E00F90DF916F
:101A3000CF91089580914D03E82FF0E0E25BFC4FD9
:101A4000998190838F5F80934D0380936F0381E032
:101A500090E0ECCF61E0CE0101960E94450CF7CFFB
:101A6000CF92DF92EF92FF920F931F93CF93DF936A
:101A7000FC01C48121E020934C03C0936E031092BB
:101A80004D0310926F038385682B83E195E00E94DC
:101A9000010DD0916F03D13208F092C00E9428034B
:101AA0006B017C0180914603811165C082E08093C7
:101AB000460381E0809345038FEF809344031092A7
:101AC0004303D0934203AEE4B3E0E2E2F3E080E00C
:101AD000D81385C01092210380912103CC0FC82B0D
:101AE000C093210380912003813009F07CC01092C3
:101AF00020030E9428036B017C01809121038093C5
:101B0000BB008091480390914903A0914A03B09192
:101B10004B03892B8A2B8B2B99F00E942803009171
:101B200048031091490320914A0330914B036C19EB
:101B30007D098E099F090617170728073907E0F165
:101B40008091BC0083FDD9CF85EC8093BC000E94BE
:101B500028036B017C0180914603823009F445C063
:101B6000809144038F3F61F180914403803241F1C1
:101B70008091440325C08091480390914903A0912E
:101B80004A03B0914B03892B8A2B8B2B09F48ACF04
:101B90000E942803009148031091490320914A03B1
:101BA00030914B036C197D098E099F0906171707A1
:101BB0002807390708F076CF809147030E948A0CE6
:101BC00010924D0310926F0310924C03DF91CF914E
:101BD0001F910F91FF90EF90DF90CF9008959D910E
:101BE00091938F5F75CF85EEB0CF80914803909130
:101BF0004903A0914A03B0914B03892B8A2B8B2B6D
:101C000009F4A9CF0E9428030091480310914903C9
:101C100020914A0330914B036C197D098E099F096D
:101C2000061717072807390708F095CFC5CF90E0AA
:101C300080E00895FF920F931F93CF93DF9300915D
:101C400052041091530401151105C9F1FC012481BE
:101C50003581232BA1F1F62EEC01C8010E940F0B58
:101C6000F1E0FF121FC06DE472E0C8010E942C0673
:101C7000BE0180915204909153040E941E066AE4B2
:101C800072E080915204909153040E942C0668EEF9
:101C900073E080E090E0DF91CF911F910F91FF9072
:101CA0000C944D0362E472E0C8010E942C06BE0150
:101CB00080915204909153040E941E06E8CFDF9158
:101CC000CF911F910F91FF900895CF93FC01228532
:101CD000222339F0C1E080859185892B81F4C0E011
:101CE0000EC060817181828193819F77C1E02CEA6F
:101CF00035EC47E257E30E94CE39181684F78C2F53
:101D0000CF9108950F931F93CF93DF93CDB7DEB795
:101D10002A970FB6F894DEBF0FBECDBF00915302D5
:101D2000109154020115110589F11E821D829EE752
:101D300099839FEF9A8396E09B839FEE9A878C838B
:101D4000272F30E07E836F8390E08B5F9E4F820F62
:101D5000931F860F911D9195819591099887898789
:101D6000C8010E940F0BD801ED91FC910280F38114
:101D7000E02D4AE050E0BE016F5F7F4FC80109953A
:101D800068E770E080E090E00E944D032A960FB66D
:101D9000F894DEBF0FBECDBFDF91CF911F910F91A1
:101DA0000895CF93C0E080915502C81758F4EC2FE6
:101DB000F0E0EB5FFE4F70E060E080810E94B602D1
:101DC000CF5FF1CF80910A0187FF0E948C03809141
:101DD000530290915402892B31F070E060E086E16B
:101DE000CF910C94820ECF910895CF92DF92EF9213
:101DF000FF921F93CF93DF93E0E0F1E0DF01D0E0AB
:101E0000C0E0482F50E02D91022E000C330B241718
:101E1000350781F4CE01880F991FC80FD91FCC5BFD
:101E2000DA4FCE01DF91CF911F91FF90EF90DF90BD
:101E3000CF9008952196C430D10529F7F12CE12CDB
:101E4000919197FF63C0F701E050FF4F80836701D6
:101E5000CC0CDD1CE601CE0DDF1DCC5BDA4F98818A
:101E60009C30F8F6182F61E00E947A028881282FB2
:101E700030E0F901EE0FFF1FE20FF31FE15EFA4FB2
:101E80001F739081907C192B108319821A822CE089
:101E9000622F0E945D3B829FB001112430E020E060
:101EA000AB01420F531FFA01EE0FFF1FE40FF51FA6
:101EB000E15EFA4F908196FD16C02F5F3F4F2C30A8
:101EC000310571F781110FC01092800082E080937C
:101ED00081001092850010928400B19A80916F0069
:101EE000826080936F00F601EE0DFF1DEC5BFA4FF0
:101EF000E0818E2F90E0FC01EE0FFF1FE80FF91F2D
:101F0000E15EFA4F8081806480838BCF9FEFE91A76
:101F1000F90A94E0E916F10409F092CFD0E0C0E0AC
:101F200080CFE0915502A5E0B1E090E0E91729F0FB
:101F30002D91281761F09F5FF9CFE43040F491E0D4
:101F40009E0F90935502F0E0EB5FFE4F8083089563
:101F5000EF92FF920F931F93CF93DF93082F162FCB
:101F60007A01EA014F3F510519F014F0CFEFD0E0AC
:101F7000C1308FEFD80714F4C1E0DFEF802F0E944B
:101F8000910F812F0E94910F61E0802F0E947A02B1
:101F900061E0812F0E947A02BE01802F1E141F046F
:101FA0009CF070E060E0EF2879F00E94B6026627AE
:101FB00077276C1B7D0B812FDF91CF911F910F91A4
:101FC000FF90EF900C94B6020E94B60270E060E0C1
:101FD000F2CF0F931F93CF93DF93D82FC62F61E0DB
:101FE0000E947A0260E08D2F0E944C028BE594E003
:101FF0000197F1F78C2FC63008F085E0825F0E94D0
:1020000013038C018BE990E00197F1F761E08D2FCC
:102010000E944C028BE397E90197F1F7C801DF9129
:10202000CF911F910F910895DC0114968D919C9191
:1020300015976817790750F4ED91FC911197E60F09
:10204000F71F15967C936E931497108208950F9343
:102050001F93CF938C01C62F0E94300D6C2F6460AC
:10206000C8010E94300D6C2F6B7FC8010E94300D9B
:1020700083EC90E00197F1F7CF911F910F910895B4
:102080000F931F93CF93DF938C01D62FC42F607FC4
:10209000642B0E94271080E1D89FB00111246C2B83
:1020A000C801DF91CF911F910F910C942710CF930E
:1020B000DF93CDB7DEB728970FB6F894DEBF0FBE1B
:1020C000CDBF28E0E1E1F1E0DE01119601900D9233
:1020D0002A95E1F7FC012085241710F44FEF420FF9
:1020E00050E0440F551F21E030E02C0F3D1F420F00
:1020F000531FFA012081620F606840E028960FB6F6
:10210000F894DEBF0FBECDBFDF91CF910C9440108D
:1021100040E061E00E9440108BE39FE10197F1F7FE
:10212000089541E00E94401081E090E008950F93EF
:102130001F93CF93DF93EC0110921F0310921E03A5
:1021400010924D0310926F030E946C0C89EB98E083
:1021500090931D0380931C038AEB98E090931B03DC
:1021600080931A031D828A85823010F098E09D8347
:10217000888762E370E080E090E00E944D036B8509
:10218000CE010E94300D68EE73E080E090E00E9486
:102190004D0360E3CE010E9427100BE416E4C80152
:1021A0000197F1F760E3CE010E942710C801019763
:1021B000F1F760E3CE010E94271083E592E00197DA
:1021C000F1F760E2CE010E9427106D81606240E06D
:1021D000CE010E94401084E08E8340E06CE0CE018E
:1021E0000E944010CE010E94881082E08F8340E060
:1021F00066E0CE010E94401040E062E0CE010E9405
:1022000040108BE39FE10197F1F7DF91CF911F9190
:102210000F910895FC014481558170E060E0818553
:1022200092850C945A3DCF92DF92EF92FF920F93DA
:102230001F93CF93DF93EC016B01F42EE52E1982EF
:1022400018861F86188A198A1A8A81E08E878B87DA
:102250001C8692E09D8788838B01000F111F060F5B
:10226000171F1D830C83C8010E946F3B9A878987C3
:10227000009789F1A80170E060E00E945A3DDB827E
:10228000CA82FE82EF828981882341F061E08F2D2E
:102290000E947A0260E08F2D0E944C028F2D9E2DAD
:1022A000FC01E757FC4FE491F0E0EE0FFF1FE1580F
:1022B000FC4F259134913C8B2B8BFC01E559FC4F55
:1022C000E491ED8BDF91CF911F910F91FF90EF90F3
:1022D000DF90CF9008951D821C821B821A82D1CF7D
:1022E0000F931F93CF93DF938C01EB01FC0180814F
:1022F00091810097E1F06881798161157105A9F0FC
:10230000428153812C813D814217530770F00E9416
:102310006A3D8C819D81F801958384831D821C8296
:10232000DF91CF911F910F9108950E940B3C8881FE
:102330009981F801918380838A819B819383828331
:102340008C819D8195838483198218821B821A82D5
:10235000E5CFCF92DF92EF92FF920F931F93CF932F
:10236000DF93EC018B01FB01C190D190E190F190E2
:10237000BF01FC01C192D192E192F192CF016E179F
:102380007F0711F00E947011F80182858A87CE01C3
:10239000DF91CF911F910F91FF90EF90DF90CF9041
:1023A0000895CF93DF93EC0188819981009711F014
:1023B0000E940B3C198218821D821C821B821A8289
:1023C000DF91CF910895FC0180819181009711F0F8
:1023D0000C940B3C0895CF92DF92EF92FF920F93F3
:1023E0001F93CF93DF93E82EF62ED42E86E1681745
:1023F00011F02BE0F22E80915102909152020E2D9D
:1024000010E0009779F020910401022E000C330BAC
:102410002017310729F4209150022F1509F439C0F3
:102420000E940B3C83E190E00E946F3BEC01ED8247
:10243000FE82F801E559FC4FE491EF83F801E7577C
:10244000FC4FE491E88780E89EE3A0E0B0E08D8750
:102450009E87AF87B88BD0935202C0935102E0920F
:102460000401F092500262E08E2D0E947A020E94D6
:102470007F03605D77408109910969877A878B873F
:102480009C8787E38A8B64E170E080E090E00E94A3
:102490004D03C0915102D0915202CE01DD2009F4CA
:1024A00053C00E94F508811112C0C12C90ECD92EA6
:1024B00099E7E92E94ECF92EC701B601DF91CF918F
:1024C0001F910F91FF90EF90DF90CF9008958E8134
:1024D0008B3058F38D30E8F08551823030F76881C9
:1024E000798176276727762790E080E00E94DA36A8
:1024F0002DEC3CEC4CEC5DE30E943B376B017C0126
:10250000A7019601C701B6010E94233A8823A1F2D0
:10251000CCCF698170E090E080E00E94DC362DEC49
:102520003CEC4CEC5DE30E943B376B017C01688125
:1025300070E090E080E00E94DC369B01AC01C701B6
:10254000B6010E94BA38DACF0E94F508882309F450
:10255000ACCF8E818C3009F441C040F58B3009F04E
:10256000A4CF6A8170E090E080E00E94DA366B01CF
:102570007C01CB81C7FF0AC0AC019B0160E070E029
:1025800080E89FEB0E94B9386B017C01CF706C2F03
:1025900070E090E080E00E94DC362DEC3CEC4CECEE
:1025A0005DE30E943B37A7019601CBCF8551823076
:1025B00008F07BCF1A81612F70E0762F662766279F
:1025C0007F778B81682B90E080E00E94DA362DECDB
:1025D0003CEC4CEC5DE30E943B371AC01A81612F42
:1025E00070E090E080E00E94DA366B017C016B8144
:1025F0006F7070E090E080E00E94DC362DEC3CECE7
:102600004CEC5DE30E943B37A70196010E94BA386B
:102610006B017C0117FF74CFF7FAF094F7F8F09490
:102620006FCF0F931F93CF93DF93861306C080E085
:10263000DF91CF911F910F910895062F182FC09110
:102640005302D0915402209731F0CE010E94F70A34
:10265000CE010E940B3C8FE190E00E946F3BEC01A9
:102660001B821A8288EE93E0A0E0B0E08C839D8309
:10267000AE83BF838DE191E0998388831F8A1E8A90
:10268000198E188E1B8E1A8E1D8E1C8E8E8D8E7F2F
:102690008D7F8E8F602FCE010E94CE0A612FCE01DA
:1026A0000E94A50AD0935402C0935302209709F4C4
:1026B000BECF40E855E260E070E0CE010E94400BE2
:1026C000CE010E940F0B64E670E080E090E00E9473
:1026D0004D0370E060E08CE00E94820E68E978E0D3
:1026E00080E090E00E944D0362E070E089E00E948B
:1026F000820E6CE271E080E090E00E944D0381E088
:1027000097CFFC0124813581FB0144815581241739
:102710003507A0F0FC0180819181009779F0FB01E1
:10272000608171816115710549F0241B350B820FA1
:10273000931F0E94613D21E0892B09F020E0822F48
:102740000895CF93DF93EC01A881B981EB01E88173
:10275000F9811097F1F03097B1F4EC018C819D81F3
:10276000892BC9F08C9190E00BC0DB0114968D9100
:102770009C91892B81F0808190E0919581959109C0
:10278000DF91CF910895BF01CD01DF91CF910C94DE
:10279000613D309751F790E080E0F2CFFB0101906E
:1027A0000020E9F73197AF01461B570BDC01ED9193
:1027B000FC910280F381E02D09948F929F92AF9259
:1027C000BF920F931F93CF93DF93CDB7DEB7A1973F
:1027D0000FB6F894DEBF0FBECDBF19A2423008F489
:1027E0004AE08E010F5D1F4F842E912CB12CA12C3D
:1027F000A50194010E941F38E62FB901CA01EA30F1
:1028000004F5E05DD801EE938D01232B242B252BBD
:1028100079F790E080E0109729F0BD0186E794E019
:102820000E94CE13A1960FB6F894DEBF0FBECDBFA7
:10283000DF91CF911F910F91BF90AF909F908F909C
:102840000895E95CDFCFCF93DF93BC0186E794E086
:102850000E942C06EC016BE571E086E794E00E9493
:10286000CE138C0F9D1FDF91CF9108950F931F936F
:10287000CF93DF93EC010E941E068C016BE571E0A3
:10288000CE010E94CE13800F911FDF91CF911F9137
:102890000F9108958F929F92AF92BF92CF92DF9245
:1028A000EF92FF925C016A017B016FE372E086E7C1
:1028B00094E00E942C06A114B10429F0B50186E72A
:1028C00094E00E94CE138CE20E943D07A70196017E
:1028D000C701B6010E94233A6EE571E081111AC06A
:1028E00046015701E894B7F82FEF3FEF4FE75FE756
:1028F000C501B4010E94233A81111EC02FEF3FEFA2
:102900004FE75FE7C501B4010E94D5361816A4F45D
:1029100062E671E086E794E00E94CE136BE571E019
:1029200086E794E0FF90EF90DF90CF90BF90AF905C
:102930009F908F900C94CE132FEF3FEF4FE75FE403
:10294000C701B6010E94CE3918161CF466E671E084
:10295000E1CF2FEF3FEF4FE75FECC701B6010E94D9
:10296000D53687FDF3CF20E030E0A901C701B601DD
:102970000E94D53687FF07C08DE20E943D07F7FA17
:10298000F094F7F8F0942AE037ED43EA5BE3C701EF
:10299000B6010E94BA384B015C010E949F396B015D
:1029A0007C010E94DA369B01AC01C501B4010E9492
:1029B000B9384B015C014AE0C701B6010E94DD1342
:1029C0008EE20E943D0720E030E040E251E4C50184
:1029D000B4010E943B374B015C010E949F396B019F
:1029E000F12CE12C4AE0C701B6010E94DD13C701BA
:1029F000B6010E94DA369B01AC01C501B4010E9408
:102A0000B93820E030E040E251E40E943B370E94B8
:102A10009F3990E080E04AE00E94DD137FCF6FE1B4
:102A200072E086E794E00E942C066AE671E086E791
:102A300094E00E94CE136BE571E086E794E00C947D
:102A4000CE130F931F93CF93DF93EC01888199816D
:102A5000009759F02A813B812617370730F081E033
:102A6000DF91CF911F910F9108958B016F5F7F4F81
:102A70000E94943C009759F0998388831B830A83B2
:102A80002C813D81232B59F7FC011082E8CF80E097
:102A9000E7CFEF92FF920F931F93CF93DF9300D076
:102AA000CDB7DEB78C0169831A82FC01E480F58022
:102AB000FFEFEF1AFF0AB7010E942115882381F06A
:102AC000F8012081318184819581BE016F5F7F4F44
:102AD000820F931F0E946A3DF801F582E48281E033
:102AE0000F900F90DF91CF911F910F91FF90EF907A
:102AF0000895EF92FF920F931F93CF93DF93EC0112
:102B00007B018A01BA010E94211581110BC0CE01FF
:102B10000E94D111CE01DF91CF911F910F91FF90B3
:102B2000EF9008951D830C83B701888199810E94DD
:102B30006A3DF0CFCF93DF93EC016115710571F021
:102B4000FB0101900020E9F73197AF01461B570BBD
:102B50000E947915CE01DF91CF9108950E94D11185
:102B6000F9CFCF93DF93EC01FB018617970749F06C
:102B7000608171816115710541F0448155810E9428
:102B80007915CE01DF91CF9108950E94D111F9CF2F
:102B90000F931F93CF93DF93EC018B01FB01819186
:102BA0009191A191B191BF0188839983AA83BB833D
:102BB0001D821C821F821E8219861886CE010496F1
:102BC0000E94B115F80182858A87DF91CF911F910C
:102BD0000F910895FC0111821082138212821582D6
:102BE0001482FB0101900020E9F73197AF01461BE9
:102BF000570B0C947915CF92DF92EF92FF92CF93FF
:102C0000DF93EC016DE571E00E94EA1580915204BA
:102C100090915304009789F10E940F0B0E947F034B
:102C20006B017C010E947F036C197D098E099F094D
:102C3000603571058105910500F5809152049091F0
:102C40005304DC01ED91FC910084F185E02D0995A0
:102C5000892B41F38091520490915304DC01ED9152
:102C6000FC910284F385E02D09958D3011F08A30B6
:102C700061F48C819D81892B01F3CE01DF91CF918D
:102C8000FF90EF90DF90CF900895682FCE010E94C3
:102C90004915D3CF6DE571E004960C94EA15AF9217
:102CA000BF92CF92DF92EF92FF920F931F93CF9339
:102CB000DF9300D01F92CDB7DEB76C018B016DE5BD
:102CC00071E00E94EA150115110559F1F801019012
:102CD0000020E9F731975F01A01AB10AB501769596
:102CE0006795C6010E942115EE24E394F12CEA14A5
:102CF000FB04B8F41B82F8018081898381818A8377
:102D000040E150E070E060E0CE0101960E94A83101
:102D1000C6010E944915F2E0EF0EF11C0E5F1F4F35
:102D2000E6CFC6010F900F900F90DF91CF911F91CA
:102D30000F91FF90EF90DF90CF90BF90AF900895EC
:102D400085ED8093BC008091480390914903A09148
:102D50004A03B0914B030796A11DB11D23E0B69520
:102D6000A795979587952A95D1F72091BC0024FDCA
:102D700003C01092460308954091480350914903BF
:102D800060914A0370914B03452B462B472B69F307
:102D90000097A105B10541F02AE22A95F1F700C09C
:102DA0000197A109B109E1CF809147030C948A0CE6
:102DB0001F93CF93DF93EC01162F0E94F93718175A
:102DC00039F0612FCE01DF91CF911F910C94013822
:102DD000DF91CF911F9108950C94F937AF92BF9274
:102DE000CF92DF92EF92FF920F931F93CF93DF93D7
:102DF0001092930383E090E00E94EC16C82F84E0C9
:102E000090E00E94EC16D82FD0938703C0938603DE
:102E100085E090E00E94EC16082F86E090E00E948A
:102E2000EC16182F10936F0200936E0287E090E06B
:102E30000E94EC16A82E88E090E00E94EC16B82EB6
:102E400090E080E00E94EC168F3409F046C081E0EB
:102E500090E00E94EC168D3409F03FC082E090E0D3
:102E60000E94EC168130C9F5CE010197873F93404F
:102E7000A0F5C017D10788F1D12CC12CF12CE12C81
:102E8000C70109960E94EC16C80ED11C8FEFE81AF4
:102E9000F80ACE15DF05A1F7AC14BD04F1F4E4E5A2
:102EA000F4E080E2DF011D928A95E9F71092810338
:102EB00010928F031092900310929103109292033C
:102EC00081E0012B09F080E080937002109275047C
:102ED0001092740481E080939303DF91CF911F914E
:102EE0000F91FF90EF90DF90CF90BF90AF9008953B
:102EF00020918603309187038217930718F409966F
:102F00000C94EC1680E00895EF92FF920F931F93BC
:102F1000CF93DF93C0917404D09175047E012FEF9D
:102F2000E21AF20AF0927504E0927404CE010E9453
:102F30007817082F10E02296D0937504C09374047C
:102F4000C7010E9478179801382BC901DF91CF91F2
:102F50001F910F91FF90EF9008954F925F926F92A3
:102F60007F928F929F92AF92BF92CF92DF92EF9219
:102F7000FF920F931F93CF93DF93CDB7DEB7E997FF
:102F80000FB6F894DEBF0FBECDBF7C01FB0182857A
:102F9000882321F1F7011182108213821282158297
:102FA00014826C5F7F4FC7010E94B115C701E9967B
:102FB0000FB6F894DEBF0FBECDBFDF91CF911F914A
:102FC0000F91FF90EF90DF90CF90BF90AF909F90C8
:102FD0008F907F906F905F904F9008958080918048
:102FE000A280B38020E030E0A901C501B4010E94B5
:102FF000CE3920E030E040E05FE387FD39C0C50115
:10300000B4010E94BA380E9498390E94DC362B0124
:103010003C01AC019B01C501B4010E94B9389F7706
:103020002FE632E143E85AE30E94D5369E012F5F36
:103030003F4F690187FF21C0F7011182108213827F
:10304000128215821482C301B2010E9498392AE0CB
:10305000A6010E94EA32F60101900020E9F73197BB
:10306000AF014C195D09B601C7010E9479159ECFC9
:10307000C501B4010E94B938C6CF1DAA1CAA1FAA57
:103080001EAA19AE18AE890122E044E0C501B401C0
:103090000E948A31BC01CE01C4960E949A1560E755
:1030A00071E0C6010E94EA15B601CE01C4960E94E5
:1030B0008113B82EC6010E94E311BB2049F068AD10
:1030C00079AD61507109CE01C4960E941410E7CF0A
:1030D00062E771E0C6010E94EA15B601CE01C4960E
:1030E0000E948113B82EC6010E94E311BB2041F05B
:1030F00068AD79AD61507109CE01C4960E9414107B
:10310000F701118210821382128215821482BE018D
:103110006C5C7F4FC7010E947011CE01C4960E9463
:10312000E31144CFFC018285882331F084819581AD
:10313000009739F00C949332608171818281938180
:10314000089560E070E0CB0108950F931F93CF9333
:10315000DF93EC018B010E944A16F8018081918176
:10316000009799F00E949332FE01619371938193CD
:103170009193B801CF010E94B11581E08A87CE01F9
:10318000DF91CF911F910F91089560E070E0CB0126
:10319000EBCF0F931F93CF93DF93D82FC62F61E010
:1031A0000E947A0260E08C2F0E947A0260E08D2FEC
:1031B0000E944C0283E090E00197F1F761E08D2FCF
:1031C0000E944C0283E290E00197F1F760E08D2FBE
:1031D0000E944C02D0E0FE01E559FC4F6491FE01D3
:1031E000E757FC4FE491F0E0EE0FFF1FE35BFC4F6D
:1031F0008591949100E315E720E030E0462F0E948E
:1032000046296115710581059105B9F06F5F7F4F02
:103210008F4F9F4F9F70611571058105910569F072
:103220002AE330E040E050E00E941F38CA01B901B3
:10323000DF91CF911F910F91089520E030E0A90117
:10324000F5CF2F923F924F925F926F927F928F9223
:103250009F92AF92BF92CF92DF92EF92FF920F9325
:103260001F93CF93DF93CDB7DEB7C35AD1090FB603
:10327000F894DEBF0FBECDBF4C01809174049091D5
:1032800075041C012FEF221A320A30927504209225
:1032900074040E947817280E311CCE0101967C011F
:1032A0008E01075A1F4FC956DF4F99838883C7592C
:1032B000D040C7010E944A169BE0E90EF11CE016BF
:1032C000F106B9F7F12CA4E6B0E0AC0FBD1F1496DF
:1032D000C456DF4FB983A883CC59D040EFE6F0E065
:1032E000EC0FFD1F3496C056DF4FF983E883C05AB8
:1032F000D0402AE730E02C0F3D1F2C5F3F4FCE55CA
:10330000DF4F39832883C25AD040C0907404D090D4
:103310007504C214D30408F01DC636013FEF631ACA
:10332000730A7092750460927404C6010E94781743
:10333000E82E81E0E81237C097E09F1530F338019E
:103340006801A4E0CA0ED11C8091740490917504A8
:103350009C012F5F3F4F30937504209374040E94AB
:103360007817F30181933F01CE16DF0669F7D80184
:103370004D905D906D907C90C8010E944A16F801B6
:1033800040825182628273821286EE24E394EF0CB3
:10339000B80181E090E08C0F9D1FFBE0FF9E800D47
:1033A000911D11248FC022E0E21256C032E0C30EFC
:1033B000D11CD0927504C0927404C3010E94781786
:1033C000E82E6DE571E0CE018C599F4F0E94EA1501
:1033D0006E2D70E0CE018C599F4F0E942115EE207A
:1033E000C1F08091740490917504EA94821593055C
:1033F00080F49C012F5F3F4F309375042093740439
:103400000E947817682FCE018C599F4F0E94491552
:10341000E6CF87E08F15D0F0BE016C597F4FC80111
:103420000E94A518EE24E394EF0CB80181E090E02F
:103430008C0F9D1FABE0FA9E800D911D11240E9400
:10344000A911C80104960E94E311FE2CCE018C59EB
:103450009F4F0E94E31159CFB3E0EB123BC0E2E073
:10346000CE0ED11CD0927504C0927404C3010E9488
:103470007817F7E0FF1508F448CF883008F095C0BA
:1034800024E0829FF0011124EC5AFB4F40805180D0
:1034900062807380C8010E944A16D8014D925D92E5
:1034A0006D927C9213971A961C92EE24E394EF0C83
:1034B000B80181E090E08C0F9D1FBBE0FB9E800D6A
:1034C000911D11240E94A911C80104960E94E311C4
:1034D000FE2C1BCFE4E0EE122EC0F2E0CF0ED11C8A
:1034E000D0927504C0927404C3010E94781727E03B
:1034F0002F1508F40ACF90E0B0E0A0E086309105E7
:10350000A105B10524F085E090E0A0E0B0E0825F85
:103510000E9413036C01C8010E944A16B601DD0C1B
:10352000880B990B0E94DC36D8016D937D938D93A7
:103530009C931397B8CFE5E0EE1216C0F2E0CF0EE1
:10354000D11CD0927504C0927404C3010E947817F4
:10355000E82E60E00E947A0227E02F1508F4D5CE0D
:103560008E2D0E942302D6CFE6E0EE1222C0F2E0BA
:10357000CF0ED11CD0927504C0927404C3010E9476
:103580007817E82E60E00E947A0227E02F1508F4F1
:10359000BCCE8E2D0E942302412C512CF0E86F2EC0
:1035A000FFE37F2E019709F475CF412C512C320196
:1035B00071CFE7E0EE1226C02601F2E04F0E511C5B
:1035C0005092750440927404C3010E947817E82E4B
:1035D00023E0C20ED11CD0927504C0927404C201C3
:1035E0000E94781737E03F1508F48FCE682F8E2D94
:1035F0000E94C9182B013C01C8010E944A16C30150
:10360000B20190CFE8E0EE1231C02601F2E04F0E99
:10361000511C5092750440927404C3010E947817A3
:10362000E82E360123E0620E711C709275046092E0
:103630007404C2010E947817582E34E0C30ED11CC6
:10364000D0927504C0927404C3010E94781797E069
:103650009F1508F45ACE41E0811101C040E0652D6C
:103660008E2D0E94EB112B013C0114CFE9E0EE12EC
:103670001FC02601F2E04F0E511C5092750440927B
:103680007404C3010E947817E82E23E0C20ED11CF7
:10369000D0927504C0927404C2010E94781737E07A
:1036A0003F1508F432CE682F8E2D0E94E90F32CFDD
:1036B000EAE0EE1224C0C0905204D0905304C1142A
:1036C000D10409F48FC4C6010E940F0BF7E0FF1567
:1036D00008F41BCED601ED91FC910084F185E02D1C
:1036E000C6010995412C512CE0E86E2EEFE37E2EA9
:1036F000892B09F041CE412C512C32013DCE2BE0DB
:10370000E21228C037E03F1508F4FFCDCE018C59F6
:103710009F4F0E94FB15BE016C597F4FC8010E944C
:10372000A518DD24D394DF0CB80181E090E08C0F64
:103730009D1FFE9C800D911D11240E94A911C8019E
:1037400004960E94E311CE018C599F4F0E94E31111
:10375000FD2CDBCD8AE2E8122DC0FF2009F4D5CD87
:1037600081E090E08C0F9D1FABE0FA9E800D911DD3
:103770001124FC013B976F01CF010E94650EE82EDA
:10378000C8010E944A1661E0E6266E2D70E090E0C6
:1037900080E00E94DA36D8016D937D938D939C93DF
:1037A00013971A961C92B801C6010E94A911C8016C
:1037B00004964FCEB1E0BF1508F0A7CDEFEFEF0DA7
:1037C000C756DF4FE883C959D0407BE0D72E61E070
:1037D00070E06C0F7D1FED9D600D711D1124CE01F9
:1037E00086589F4F0E94C815FA94FA942F2D30E006
:1037F000C256DF4F39832883CE59D040FD9CC0018B
:103800001124C656DF4F99838883CA59D04061E09E
:1038100070E06C0F7D1F680F791FCE0181599F4F9B
:103820000E94C815CE018C599F4F0E944A16A89637
:103830001CAE1DAE1EAE1FAEA897AF961FAEAF97C3
:10384000CE0181599F4F0E9492185B016C01CE01FD
:1038500086589F4F0E9492182B013C01ECEEEE0D12
:10386000E93108F0C5C0F0E0E85CF34E0C94693B28
:10387000511C651C811C881C981CF81CF81CF81C29
:10388000F81CF81C9F1C641DCC1DDB1DEA1DF61DD9
:10389000F81CF81CF81CF81C021E1F1EF81C3D1E0C
:1038A000C51EAC019B01C601B5010E94BA382B01AF
:1038B0003C01C8010E944A16D8014D925D926D925A
:1038C0007C9213971A961C9211C0AC019B01C60101
:1038D000B5010E94B9382B013C01C8010E944A166B
:1038E000F80140825182628273821286B801CE0151
:1038F0008C599F4F0E94A911C80104960E94E311A0
:1039000077C0AC019B01C601B5010E943B37CFCF08
:103910002CEA35EC47E257E39F770E94D53687FDC6
:1039200061C1A3019201C601B5010E942639D3CF1E
:10393000AC019B01C601B5010E94D339B8CFEA960C
:103940008FADEA97811108C0CC57DF4FE880C4588B
:10395000D040EE2009F49FC0BE0166587F4FCE01D3
:103960008B579F4F0E94AD17BE0161597F4FCE010B
:1039700085579F4F0E94AD17C157DF4F288139816E
:10398000CF58D040C757DF4F88819981C958D04060
:103990002817390759F4BE016B577F4FCE01855761
:1039A0009F4F0E94A11361E0892B09F060E070E055
:1039B00090E080E00E94DC362B013C01EE24E39491
:1039C000C8010E944A16F8014082518262827382C5
:1039D0001286B801CE018C599F4F0E94A911C801CF
:1039E00004960E94E311CE0185579F4FE110C1C19B
:1039F000B7E0BF15C8F18BE0C256DF4FE881F9810F
:103A0000CE59D0408E9F70018F9FF00C112421E081
:103A100030E02C0F3D1FE20EF31EA8968CAD9DAD3D
:103A2000AEADBFADA897F70180839183A283B38326
:103A3000C656DF4F88819981CA59D0400496C45632
:103A4000DF4F68817981CC59D040820F931F0E944B
:103A5000B115AF968FADAF97D7011A968C93C75615
:103A6000DF4FF880C959D040C456DF4F8881998113
:103A7000CC59D0400E94E311C056DF4F8881998114
:103A8000C05AD0400E94E311CE55DF4F8881998102
:103A9000C25AD040DECCA3019201C601B5010E94FA
:103AA000B9389F772CEA35EC47E257E30E94D536C8
:103AB000412C512C60E8662E6FE3762E87FD80CF77
:103AC000412C512C32017CCFEA968FADEA978111BF
:103AD00008C0CC57DF4FE880C458D040EE2009F42E
:103AE00042C0BE0166587F4FCE018B579F4F0E9448
:103AF000AD17BE0161597F4FCE0185579F4F0E9480
:103B0000AD17C157DF4F28813981CF58D040C757F3
:103B1000DF4F88819981C958D0402817390759F457
:103B2000BE016B577F4FCE0185579F4F0E94A11357
:103B300061E0892B09F060E081E0682770E090E0A7
:103B400080E00E94DC362B013C01EE24E394C801A6
:103B50000E944A16D8014D925D926D927C92139705
:103B60001A961C9236CFA3019201C601B5010E949C
:103B7000B9389F772CEA35EC47E257E30E94CE39FB
:103B8000412C512C50E8652E5FE3752E87FFDFCF67
:103B9000412C512C3201DBCFAC019B01C601B50198
:103BA0000E94D53687FF1EC0412C512C40E8642E60
:103BB0004FE3742E92CEAC019B01C601B5010E9469
:103BC000D5361816DCF0412C512C30E8632E3FE33B
:103BD000732E6FCEAC019B01C601B5010E94CE3998
:103BE000181614F3412C512C320177CEAC019B01F5
:103BF000C601B5010E94CE3987FFE5CF412C512C7B
:103C0000320157CECE0181599F4F0E94650EE82E9A
:103C1000882331F0CE0186589F4F0E94650EE82E12
:103C2000C8010E944A166E2D70E090E080E00E946C
:103C3000DA36F801608371838283938356CECE0196
:103C400081599F4F0E94650EE82E811106C0CE015A
:103C500086589F4F0E94650EE82EC8010E944A16A2
:103C60006E2D70E090E080E00E94DA36D8016D930E
:103C70007D938D939C93139725CEBE0166587F4FFD
:103C8000CE018B579F4F0E94AD17BE0161597F4FE8
:103C9000CE018F569F4F0E94AD17C557DF4F198237
:103CA0001882CB58D040C357DF4F19821882CD58A5
:103CB000D040C157DF4F19821882CF58D040BE0183
:103CC0006F567F4FCE0185579F4F0E94B115CB573E
:103CD000DF4F68807980C558D0406114710409F4C1
:103CE0004EC0C757DF4FC880D980C958D040C114D3
:103CF000D10439F1C157DF4F88819981CF58D04025
:103D0000C80ED91EB601CE0185579F4F0E942115BE
:103D10008823A9F1C557DF4F28813981CB58D0407E
:103D2000C157DF4F88819981CF58D040B301820FAE
:103D3000931F0E946A3DC157DF4FD982C882CF5876
:103D4000D040BE0165577F4FC8010E94A518B80139
:103D5000CE018C599F4F0E94A911C80104960E9460
:103D6000E311CE0185579F4F0E94E311CE018F567C
:103D70009F4F0E94E311CE018B579F4FBFCDCE01C5
:103D800085579F4F0E94D111DCCFC601B5010E941B
:103D900098396B01613471051CF020E4C22ED12CDE
:103DA0001C141D041CF0CC24C394D12CC301B201FB
:103DB0000E9498393B01C616D7060CF4360116143A
:103DC00017041CF066246394712CCE018F569F4F0C
:103DD0000E94FB15CB56DF4F48805980C559D04013
:103DE000C414D5040CF426016DE571E0C8010E94ED
:103DF000EA15CB56DF4F88819981C559D04000978D
:103E000009F18415950508F42C01CF56DF4FE881A0
:103E1000F981C159D040E40DF51DE0801082CF56E4
:103E2000DF4F68817981C159D040C8010E949A153D
:103E3000CF56DF4F88819981C159D040480E591E15
:103E4000F201E082B801CE018F569F4F0E9470119F
:103E5000C8010E94E3116301CB56DF4F888199812D
:103E6000C559D0408615970508F463C02301F1E0D9
:103E70004F1A51086414750410F0620123016DE5B6
:103E800071E0CE018B579F4F0E94EA15CB56DF4F52
:103E900068807980C559D040C614D70428F54614E7
:103EA000570408F43201CF56DF4FE881F981C15938
:103EB000D040E60DF71DE0801082CF56DF4F6881BD
:103EC0007981C159D0406C0D7D1DCE018B579F4F1C
:103ED0000E949A15CF56DF4F88819981C159D040F1
:103EE000680E791ED301EC92BE016B577F4FC8015B
:103EF0000E94A518D12CEE24E394B801CE018C5970
:103F00009F4F0E94A911C80104960E94E311DD2071
:103F100029F0CE0185579F4F0E94E311EE2029F032
:103F2000CE018B579F4F0E94E311CE018F569F4FBA
:103F3000E5CC6DE571E0CE0185579F4F0E94EA15F3
:103F4000BE0165577F4FC8010E94A518DD24D39498
:103F5000E12CD3CF3092750420927404FF20C1F17C
:103F600061E070E06C0F7D1FBBE0FB9E600D711D7A
:103F700011246B507109C4010E94C8150B5011091E
:103F8000C80104960E94E311C956DF4F2881398188
:103F9000C759D0402017310789F7C401CD55DF4FED
:103FA0000FB6F894DEBF0FBECDBFDF91CF911F914A
:103FB0000F91FF90EF90DF90CF90BF90AF909F90C8
:103FC0008F907F906F905F904F903F902F900895CB
:103FD000C4010E944A16F4011082118212821382D7
:103FE0001286CCCF37E03F1508F48FC984CB2F92CF
:103FF0003F924F925F926F927F928F929F92AF9279
:10400000BF92CF92DF92EF92FF920F931F93CF93C5
:10401000DF93CDB7DEB765970FB6F894DEBF0FBE5E
:10402000CDBF10928F0310929003109291031092C3
:10403000920320917002A0908603B0908703211113
:1040400004C0A0906E02B0906F02809174049091B1
:1040500075048A159B05B8F40091740410917504D9
:1040600068012FEFC21AD20AD0927504C09274046C
:10407000C8010E947817F82E811134C0B0927504DF
:10408000A092740416C01092810380916E029091E8
:104090006F02211103C021E02093700290937504F8
:1040A00080937404209186033091870382179307CD
:1040B00098F265960FB6F894DEBF0FBECDBFDF91C4
:1040C000CF911F910F91FF90EF90DF90CF90BF9015
:1040D000AF909F908F907F906F905F904F903F90A8
:1040E0002F90089561E0861335C0CE0101960E949D
:1040F0002119CE0101960E9492186B017C01CE011C
:1041000005960E94E31120E030E0A901C701B60145
:104110000E94D53687FF03C0C12CD12C76010E94A6
:104120007F034B015C0120E030E04AE754E4C70123
:10413000B6010E943B370E949F39860E971EA81E2B
:10414000B91E80928F0390929003A0929103B09237
:104150009203AFCF8EEF8F0D8230C8F50E5F1F4FE9
:104160001093750400937404C6010E947817082FF9
:10417000CE0101960E942119CE0101960E9492184B
:104180004B015C01CE0105960E94E311083008F056
:1041900090CF74E0079F8001112482E00C5A1B4FDE
:1041A000F81206C0F80180829182A282B38281CF88
:1041B000A5019401F80160817181828193810E943F
:1041C000BA38F801608371838283938372CFF4E0FD
:1041D000FF1222C0580122E0A20EB11CB092750459
:1041E000A0927404C6010E947817F82E0D5F1F4F2D
:1041F0001093750400937404C5010E947817182F5A
:1042000061E08F2D0E947A0261E0111101C060E02F
:104210008F2D0E944C024DCF65E0F61232C00E5F2A
:104220001F4F1093750400937404C6010E94781701
:10423000182F61E00E947A02CE0101960E94211996
:10424000CE0101960E9492186B017C01CE01059669
:104250000E94E311C701B6010E9498396F3F7105B2
:104260008105910529F024F06FEF70E080E090E087
:1042700097FF03C060E070E0CB01812F0E94B6027F
:1042800018CF76E0F71242C0780182E0E80EF11C08
:10429000F0927504E0927404C6010E947817D82E3B
:1042A0000D5F1F4F1093750400937404C7010E94A3
:1042B0007817182FCE0101960E942119CE01019680
:1042C0000E9492184B015C01CE0105960E94E311F9
:1042D000C501B4010E9498396F3F710581059105B0
:1042E00029F024F06FEF70E080E090E06130AFEFF4
:1042F0007A078A079A0724F461E07FEF8FEF9FEF38
:10430000AB01612F8D2D0E94A80FD3CEE7E0FE12E6
:1043100034C00E5F1F4F1093750400937404C601E0
:104320000E9478170E94F50E8C01CE0101960E9422
:104330002119CE0101960E9492186B017C01CE01D9
:1043400005960E94E3110115110509F4B2CEC701CB
:10435000B6010E949839653B71058105910524F0ED
:1043600064EB70E080E090E097FF03C060E070E0F5
:10437000CB01C8010E94C90B9CCEF8E0FF126CC0B3
:104380000E5F1F4F1093750400937404C6010E94C2
:104390007817182FCE0101960E942119CE0101969F
:1043A0000E9492186B017C01CE0105960E94E311D8
:1043B000C701B6010E9498396B017C0121E2C21647
:1043C0002EE4D206E104F10434F040E2C42E4EE4BF
:1043D000D42EE12CF12C64E1C616D104E104F104E1
:1043E0002CF434E1C32ED12CE12CF12CCE0101961A
:1043F0000E942119CE0101960E9492184B015C0186
:10440000CE0105960E94E31120E030E0A901C5012C
:10441000B4010E94D53687FF03C0812C912C540132
:1044200020E030E04AE754E4C501B4010E943B3784
:104430000E949F399B01AC0110930A01211531059F
:104440004105510521F421E030E040E050E0B601A3
:10445000812F0E94B8032DCE79E0F7120CC00E5FB9
:104460001F4F1093750400937404C6010E947817BF
:104470000E948C031ECE8AE0F8124CC05801A2E0C4
:10448000AA0EB11CB0927504A0927404C6010E94D9
:104490007817C82E7801E3E0EE0EF11CF092750457
:1044A000E0927404C5010E947817D82E0C5F1F4F4C
:1044B0001093750400937404C7010E947817F82EB6
:1044C0008091840390918503009711F00E940B3C2A
:1044D0008CE090E00E946F3B8C01FC011382128201
:1044E0008FE291E091838083C482D186F286138625
:1044F0001093850300938403C8010E94971088E0FD
:10450000F801838760E0C8010E94300DC8010E9455
:104510008810CFCDFBE0FF1269C0CE0101960E944A
:104520002119CE0101960E9492186B017C01CE01E7
:1045300005960E94E311CE0101960E942119CE0139
:1045400001960E9492184B015C01CE0105960E94D3
:10455000E311CE0101960E942119BE016F5F7F4FCA
:10456000CE010C960E94AD17CE0105960E94E31174
:1045700000918403109185030115110591F1C70184
:10458000B6010E9498396B017C0124E0C216D10467
:10459000E104F1042CF023E0C22ED12CE12CF12C0B
:1045A000F7FE03C0C12CD12C7601C501B4010E94D5
:1045B0009839643171058105910524F063E170E05B
:1045C00080E090E097FF03C060E070E0CB014C2DED
:1045D000C8010E945710BE01645F7F4FC8010E944E
:1045E0001E06CE010C960E94E31163CD6CE0F6121C
:1045F00008C08091840390918503009709F087CFCC
:1046000058CD7DE0F7125EC00E5F1F4F109375040A
:1046100000937404C6010E947817B82ECE0101964B
:104620000E942119CE0101960E9492186B017C0113
:10463000CE0105960E94E311C701B6010E94983988
:104640006B017C018DE3C816D104E104F1042CF068
:104650009CE3C92ED12CE12CF12C1C141D041E044A
:104660001F0424F0C12CD12C7601C3940091820345
:10467000109183030115110581F0F8018185928560
:104680000E940B3CF8018681978197FD03C060E092
:104690000E947A02C8010E940B3C86E190E00E94D1
:1046A0006F3B8C014B2D50E0B6010E94131110930B
:1046B000830300938203C8010E94A308C8010E94DB
:1046C0000A118FC0FEE0FF1293C0CE0101960E9436
:1046D0002119CE0101960E9492186A8B7B8B8C8BDC
:1046E0009D8BCE0105960E94E311CE0101960E949A
:1046F0002119CE0101960E9492186B017C01CE0116
:1047000005960E94E311CE0101960E942119CE0167
:1047100001960E9492184B015C01CE0105960E9401
:10472000E311CE0101960E942119CE0101960E944B
:1047300092182B013C01CE0105960E94E3110091D5
:104740008203109183030115110509F4B2CCF8011D
:10475000228033802114310409F4ABCCC301B201AF
:104760000E949839712C77FD07C06F3F710519F0D1
:1047700014F06FEF70E0762EC501B4010E949839F5
:10478000B12C77FD07C06F3F710519F014F06FEF82
:1047900070E0B62EC701B6010E949839F12C77FD62
:1047A00007C06F3F710519F014F06FEF70E0F62E3F
:1047B0006A897B898C899D890E949839272D30E0F0
:1047C00050E040E03B294F2977FD0FC0A1E02A1AB5
:1047D00031086215730508F41B01B101C8010E947C
:1047E0006207C8010E94CE0764CC312C212CF5CF82
:1047F000EFE0FE1209C000918203109183030115BE
:10480000110509F05BCF55CCF0E1FF123FC07801F4
:1048100022E0E20EF11CF0927504E0927404C601ED
:104820000E947817B82E0D5F1F4F109375040093E8
:104830007404C7010E947817182FCE0101960E94B8
:104840002119CE0101960E9492186B017C01CE01C4
:1048500005960E94E311612F8B2D0E94111388236E
:1048600009F427CCC701B6010E9498396F31710550
:104870008105910524F06EE170E080E090E097FF03
:1048800003C060E070E0CB0186E01FC061E1F6127A
:104890001FC0CE0101960E942119CE0101960E94EF
:1048A00092186B017C01CE0105960E94E311C701AD
:1048B000B6010E949839161617061806190624F034
:1048C00061E070E080E090E083E00E94820EF1CB36
:1048D00072E1F7120FC0CE0101960E942119CE019C
:1048E00001960E9492186B017C01CE0105960E94F0
:1048F000E311B8CF83E1F81204C070E060E086E114
:10490000E4CFA4E1FA1259C07801E2E0EE0EF11C06
:10491000F0927504E0927404C6010E947817D82EB4
:104920000D5F1F4F1093750400937404C7010E941C
:104930007817C82E0E9484177C01009152041091B0
:1049400053040115110531F0C8010E94F70AC8018E
:104950000E940B3C8FE190E00E946F3B8C01FC01B8
:104960001382128288EE93E0A0E0B0E08483958306
:10497000A683B7838DE191E091838083178A168A9D
:10498000118E108E138E128E158E148E868D8E7F44
:104990008D7F868F6C2DC8010E94CE0A6D2DC801B7
:1049A0000E94A50A1093530400935204A70170E0DB
:1049B00060E0C8010E94400B7CCBF5E1FF1222C0F1
:1049C000009152041091530401151105D1F1C80151
:1049D0000E940F0BCE0101960E942119BE016F5F4C
:1049E0007F4FCE010C960E94AD17BE01645F7F4FD2
:1049F000C8010E943614CE010C960E94E311CE012C
:104A00000596F1CD2BE1F21221C0009152041091D4
:104A1000530401151105A9F0C8010E940F0BCE0126
:104A200001960E942119BE016F5F7F4FCE010C9647
:104A30000E94AD17BE01645F7F4FC8010E941E0631
:104A4000DACFCE0101960E942119D9CF6CE1F6127E
:104A500021C00E5F1F4F1093750400937404C601AC
:104A60000E947817182FCE0101960E942119BE01CD
:104A70006F5F7F4FCE010C960E94AD17612FCE0164
:104A80000C960E941A0ECE010C960E94E311CE01E4
:104A90000596A9CD76E1F71219C063E772E086E7C3
:104AA00094E00E942C06CE0101960E942119BE01BD
:104AB0006F5F7F4FCE010C960E94AD17BE01645F01
:104AC0007F4F86E794E00E943614DDCF87E1F8122D
:104AD00007C00E9484179093750480937404E9CAF8
:104AE000A8E1FA1212C0CE0101960E942119CE014E
:104AF00001960E94650E182FCE0105960E94E311C3
:104B00000E9484171111D5CAE6CFE9E1FE1235C023
:104B1000CE0101960E942119CE0101960E949218A1
:104B20000E9498396B017C01CE0105960E94E31129
:104B30000E9484179C011C141D041E041F042CF0E9
:104B40003093750420937404B4CA90918103943017
:104B5000B8F726E0929FF0011124EA5AFD4F209108
:104B600074043091750431832083C282D382E4823D
:104B7000F5829F5F909381039CCA6AE1F61228C078
:104B80000E9484179C0190918103992309F491CA92
:104B9000E92FE150FF0BAF0186E0849FF001859F74
:104BA000F00D1124EA5AFD4F4281538164817581D1
:104BB00041505109610971094283538364837583AC
:104BC00014161506160617060CF4BACF9150D2CF5C
:104BD0001092930386E592E00E9423146ACA00971C
:104BE00011F00C949732CB0108951F920F920FB6DB
:104BF0000F9211242F933F938F939F93AF93BF9363
:104C000080914A0490914B04A0914C04B0914D04C2
:104C10003091490423E0230F2D3758F50196A11D4B
:104C2000B11D2093490480934A0490934B04A093B0
:104C30004C04B0934D0480914E0490914F04A09188
:104C40005004B09151040196A11DB11D80934E04F2
:104C500090934F04A0935004B0935104BF91AF912F
:104C60009F918F913F912F910F900FBE0F901F90AA
:104C7000189526E8230F0296A11DB11DD2CF1F92D1
:104C80000F920FB60F9211242F933F934F935F9380
:104C90006F937F938F939F93AF93BF93EF93FF9304
:104CA00080917D0390917E03A0917F03B09180035A
:104CB000892B8A2B8B2BD1F190917C03E0917A0385
:104CC000F0917B0380818927808380917D0390917F
:104CD0007E03A0917F03B0918003181619061A066F
:104CE0001B069CF480917D0390917E03A0917F032D
:104CF000B09180030197A109B10980937D0390933E
:104D00007E03A0937F03B0938003FF91EF91BF9147
:104D1000AF919F918F917F916F915F914F913F9153
:104D20002F910F900FBE0F901F9018958091090141
:104D30000E948C03EACF1F920F920FB60F9211249C
:104D40002F933F934F935F936F937F938F939F9393
:104D5000AF93BF93EF93FF9386E794E00E94CE0654
:104D6000FF91EF91BF91AF919F918F917F916F9143
:104D70005F914F913F912F910F900FBE0F901F9019
:104D800018951F920F920FB60F9211242F938F93A5
:104D90009F93EF93FF93E0918604F09187048081C5
:104DA000E0918C04F0918D0482FD1BC09081809174
:104DB0008F048F5F8F7320919004821741F0E091F0
:104DC0008F04F0E0EA58FB4F958F80938F04FF919A
:104DD000EF919F918F912F910F900FBE0F901F9089
:104DE00018958081F4CF1F920F920FB60F92112465
:104DF0002F933F934F935F936F937F938F939F93E3
:104E0000AF93BF93EF93FF93E0911803F0911903D1
:104E1000309749F0A685B7858585968D91FF14C09A
:104E20009C918923A1F4FF91EF91BF91AF919F9144
:104E30008F917F916F915F914F913F912F910F9043
:104E40000FBE0F901F9018959C91892361F7A3893D
:104E5000B4899C918589809589238C9386899789CB
:104E60000197F1F7608D718DA685B785558538E07E
:104E700020E0CB010197F1F7822F90E0959587957F
:104E8000282F4C91452309F02068315091F7868DE9
:104E900081FD20958091160390E001968F739927EC
:104EA00030911703381799F0A0911603B0E0AA5279
:104EB000BD4F2C9380931603828D938D0197F1F74C
:104EC000A389B4898C919589892B8C93ACCF868DDD
:104ED0008160868FF1CF1F920F920FB60F9211242F
:104EE0002F933F934F935F936F937F938F939F93F2
:104EF000AF93BF93CF93DF93EF93FF938091D5024E
:104F0000C0914305D0E087FF24C010928500109225
:104F100084008091D5028F5F8093D5028091D50265
:104F2000082E000C990B8C179D0724F48091D50254
:104F30008C30C4F180918400909185000496803477
:104F40009C4908F47AC08091840090918500049671
:104F500076C08091D502082E000C990B8C179D0706
:104F6000C4F6E091D5028E2FEE0F990BFC01EE0FE7
:104F7000FF1FE80FF91FE15EFA4F808186FFC9CF5E
:104F8000E091D5028E2FEE0F990BFC01EE0FFF1F63
:104F9000E80FF91FE15EFA4F808160E08F730E9495
:104FA0004C02B7CF2091840030918500E091D5026A
:104FB0008E2FEE0F990BFC01EE0FFF1FE80FF91F6C
:104FC000E15EFA4F81819281820F931F9093890055
:104FD00080938800E091D5028E2FEE0F990BFC0193
:104FE000EE0FFF1FE80FF91FE15EFA4F808186FF89
:104FF00011C0E091D5028E2FEE0F990BFC01EE0F40
:10500000FF1FE80FF91FE15EFA4F808161E08F73A7
:105010000E944C02FF91EF91DF91CF91BF91AF9130
:105020009F918F917F916F915F914F913F912F91C0
:105030000F900FBE0F901F90189580E49CE99093FD
:105040008900809388008FEF8093D502E3CF1F9271
:105050000F920FB60F9211242F933F934F935F93AC
:105060006F937F938F939F93AF93BF93EF93FF9330
:105070008091B900887F803609F44AC0F0F5883203
:1050800009F4A7C018F5803109F49BC0B8F488234F
:1050900009F4F9C0883009F494C0FF91EF91BF91F1
:1050A000AF919F918F917F916F915F914F913F91C0
:1050B0002F910F900FBE0F901F901895883109F413
:1050C00088C0803251F78093440314C0803409F4BF
:1050D0009DC040F48033B9F38833F9F680934403DC
:1050E00085ECB0C0803509F485C0883509F496C0D8
:1050F000883499F60E94A016D0CF883909F48CC064
:1051000038F5883729F050F4883611F0803729F6C1
:1051100083E0809346031092D40257C0883809F484
:105120007BC0803919F0803809F0B7CF8091D40264
:10513000803208F071C0E091D40281E08E0F80933C
:10514000D4028091BB00F0E0EC54FD4F80833DC061
:10515000803B39F0E0F4803A09F479C0883A09F0EC
:105160009CCF84E0809346031092B3021092B20267
:10517000E0911C03F0911D0309958091B202811109
:105180000FC081E08093B2021092920209C0803C6D
:1051900009F4A6CF883C09F4A3CF883B09F07DCF62
:1051A000E091B30281E08E0F8093B302F0E0EE56FF
:1051B000FD4F80818093BB009091B3028091B20239
:1051C00029C0809121038093BB0085EC8093BC00B3
:1051D00064CF9091430380914203981758F5E09172
:1051E000430381E08E0F80934303F0E0EE5DFC4FBC
:1051F0008081E9CFE091430381E08E0F80934303E8
:105200008091BB00F0E0EE5DFC4F80839091430302
:10521000809142039817C8F285E8D8CFE091430304
:1052200081E08E0F809343038091BB00F0E0EE5D40
:10523000FC4F80838091450381115CCF81E0809396
:10524000200384EA8093BC001092460326CF85ECAD
:105250008093BC00109246038091D402803230F4D7
:10526000E091D402F0E0EC54FD4F10826091D40242
:1052700070E0E0911A03F0911B0384EB92E0099532
:105280001092D4020ACF1092440334CFCF92DF920F
:10529000EF92FF920F931F93E82FF92F05C0015053
:1052A00011092109310961F1908196239417B9F30D
:1052B00005C0015011092109310911F1908196238E
:1052C0009413F7CFC12CD12CE12CF12C0AC08FEF15
:1052D000C81AD80AE80AF80A0C151D052E053F055C
:1052E00079F080818623841791F36C2D7D2D8E2D8E
:1052F0009F2D1F910F91FF90EF90DF90CF90089519
:1053000060E070E080E090E01F910F91FF90EF90DF
:10531000DF90CF900895109279041092780488EE6F
:1053200093E0A0E0B0E080937A0490937B04A09394
:105330007C04B0937D042BE331E030937704209319
:10534000760425EC30E0309383042093820424EC2F
:1053500030E0309385042093840420EC30E03093D7
:1053600087042093860421EC30E030938904209355
:10537000880422EC30E030938B0420938A0426ECDE
:1053800030E030938D0420938C0410928F0410929F
:1053900090041092910410929204109216051092AB
:1053A00015058093170590931805A0931905B093E0
:1053B0001A058DE491E09093140580931305E4E4BD
:1053C000F5E020E535E04FEF68EB7BE080914305A9
:1053D0008C30B0F491E0980F90934305808390E077
:1053E000DC01AA0FBB1FA80FB91FA15EBA4F12960E
:1053F0007C936E93119733962E173F0739F70895D4
:105400004083F9CFCF93DF93CDB7DEB7A3970FB625
:10541000F894DEBF0FBECDBF789484B5826084BDA2
:1054200084B5816084BD85B5826085BD85B58160A8
:1054300085BD80916E00816080936E001092810026
:1054400080918100826080938100809181008160E1
:1054500080938100809180008160809380008091A2
:10546000B10084608093B1008091B000816080932E
:10547000B00080917A00846080937A0080917A00F5
:10548000826080937A0080917A00816080937A00B4
:1054900080917A00806880937A001092C100E09138
:1054A0008604F091870482E08083E0918204F09189
:1054B00083041082E0918404F091850480E180836C
:1054C00010928E04E0918A04F0918B0486E0808330
:1054D000E0918804F0918904808180618083E0916B
:1054E0008804F0918904808188608083E091880439
:1054F000F0918904808180688083E0918804F09134
:10550000890480818F7D80836EE571E080E090E08A
:105510000E944D030E940F150E94EE1668EE862E23
:1055200063E0962EA12CB12C5FE2252E51E0352EA2
:1055300086E794E00E94AE06892B09F4C2C686E78E
:1055400094E00E948C068D3099F3E09148048A30F3
:1055500009F0A5C6AE2FB0E0AC56BC4F1C92EE23AE
:1055600051F064E771E084E993E00E94613D892B8A
:1055700029F40E940F1510924804DACF69E771E010
:1055800084E993E00E94BE327C0169E771E090E01B
:1055900080E00E94BE328C01E114F10461F3892B9A
:1055A00051F36BE771E0C7010E94613D892B09F05F
:1055B00054C169E771E090E080E00E94BE327C0156
:1055C0006E0122E1C20ED11C712C69E771E090E0FE
:1055D00080E00E94BE32D6018D939D936D01892B90
:1055E00021F07394B6E07B12F0CFE114F10419F2CC
:1055F0006DE771E0C7010E94613D892BD9F47720E6
:10560000C9F070E060E08A899B890E94EF25F82E3E
:1056100060E00E947A028F2D0E942302BC01990F44
:10562000880B990B0E94DC36AB01BC01C8010E94BB
:105630004A14A1CF68ED71E0C7010E94613D892B3A
:10564000A9F4772099F070E060E08A899B890E9434
:10565000EF2597FD07C08630910534F4825F0E94E4
:105660001303DCCF8EE0FBCF83E1F9CF60E871E07C
:10567000C7010E94613D892BB9F47720A9F070E041
:1056800060E08A899B890E94EF25F82E60E00E94E5
:105690007A028F2D0E942302019709F07EC040E01C
:1056A00050E060E87FE3C2CF67E871E0C7010E9485
:1056B000613D892BA1F4E1E0E71588F470E060E03A
:1056C0008C899D890E94EF25F82E70E060E08A8920
:1056D0009B890E94EF256F2D0E94C918A3CF6DE80A
:1056E00071E0C7010E94613D892BA1F4F1E0F7153B
:1056F00088F470E060E08C899D890E94EF25F82E87
:1057000070E060E08A899B890E94EF256F2D0E94DE
:10571000E90F84CF62E971E0C7010E94613D892BE6
:1057200001F522E02715E8F470E060E08A899B89A2
:105730000E94EF25D82E70E060E08E899F890E943C
:10574000EF257C0170E060E08C899D890E94EF2547
:1057500041E0EF2809F440E0682F8D2D0E94EB1105
:1057600063CF66E971E0C7010E94613D892BC9F4EE
:10577000E0905204F0905304E114F10471F0C70179
:105780000E940F0BD701ED91FC910084F185E02D73
:10579000C7010995892B09F082CF40E050E0BA019A
:1057A00045CF6EE971E0C7010E94613D892BA9F7E1
:1057B000CE014E960E94FB1569E772E086E794E001
:1057C0000E942C06B80186E794E00E94CE138CE27A
:1057D0000E943D0781E1EEE3F2E0DE0111960190C7
:1057E0000D928A95E1F710E000E08AA19BA10817CD
:1057F000190740F58E8D9F8DF12C009721F0800FB9
:10580000911FFC01F080EF2DF0E044E0F595E79565
:105810004A95E1F781E090E08C0F9D1FE80FF91F9A
:1058200080810E943D07EF2DEF70A1E0B0E0AC0F4A
:10583000BD1FAE0FB11DFD0180810E943D070F5FAE
:105840001F4FD3CF6BE571E086E794E00E94CE1343
:10585000CE014E960E94E3118ECE65EA71E0C7013B
:105860000E94613D892B09F0AFC3FE0131966F01A3
:10587000F12C69E771E090E080E00E94BE32D60131
:105880008D939D936D01892B09F099C367EA71E0AF
:10589000C8010E94613D892BD9F4B1E0BF15C0F465
:1058A00070E060E089819A810E94EF25182F61E005
:1058B0000E947A0270E060E08B819C810E94EF255B
:1058C00061E0892B09F460E0812F0E944C0253CEE5
:1058D0006AEA71E0C8010E94613D892B11F5E1E09F
:1058E000EF15F8F470E060E089819A810E94EF255D
:1058F000182F61E00E947A0270E060E08B819C8149
:105900000E94EF258F3F910519F014F08FEF90E082
:1059100097FF02C090E080E0BC01812F0E94B60298
:105920002ACE6DEA71E0C8010E94613D892BE1F445
:10593000F2E0FF15C8F470E060E08D819E810E9466
:10594000EF258C0170E060E08B819C810E94EF2547
:10595000F82E70E060E089819A810E94EF25A8010D
:105960006F2D0E94A80F07CE63EB71E0C8010E9463
:10597000613D892B19F521E02F1500F570E060E0FD
:1059800089819A810E94EF250E94F50E8C01892B56
:1059900009F4F1CD70E060E08B819C810E94EF25DD
:1059A000853B910514F084EB90E097FF02C090E0F6
:1059B00080E0BC01C8010E94C90BDDCD6BEB71E03A
:1059C000C8010E94613D892B91F582E08F1578F521
:1059D00070E060E089819A810E94EF25182F809302
:1059E0000A0170E060E08D819E810E94EF2518160B
:1059F000190614F081E090E06C01990FEE08FF08A1
:105A000070E060E08B819C810E94EF2564E170E092
:105A10008431910534F0BC0181329E4414F060E27F
:105A20007EE4A7019601812F0E94B803A4CD69EB03
:105A300071E0C8010E94613D892B59F4FF2049F0B3
:105A400070E060E089819A810E94EF250E948C03BA
:105A500092CD60EC71E0C8010E94613D892B09F094
:105A600040C0B2E0BF15E8F58091840390918503B2
:105A7000009711F00E940B3C70E060E089819A81F0
:105A80000E94EF25D82E70E060E08B819C810E94FF
:105A9000EF25E82E70E060E08D819E810E94EF2569
:105AA000F82E8CE090E00E946F3B8C01FC01138289
:105AB000128231822082D482E186F286138690930C
:105AC0008503809384030E94971088E0D8011B9679
:105AD0008C9360E0C8010E94300DC8010E948810BC
