:100000000C9482000C94AA000C94AA000C94500D3D
:100010000C94500D0C94500D0C94AA000C949C0C54
:100020000C94AA000C94AA000C94AA000C94C80D7D
:100030000C94AA000C94AA000C94AA000C94AA0098
:100040000C94520C0C94AA000C941E0D0C94F80CF9
:100050000C94AA000C94AA000C94AA000C94AA0078
:100060000C94840E0C94AA0052454144592C4F6EB6
:10007000654D616B65722041726475696E6F2052C7
:10008000756E74696D652C00562C00542C00024C62
:100090004F472C004552524F522C6C696E652D749F
:1000A0006F6F2D6C6F6E670000000000240027004A
:1000B0002A000000000800020100000304070000FD
:1000C00000000000000000000000230026002900BE
:1000D00000000000250028002B0004040404040490
:1000E00004040202020202020303030303030102E7
:1000F00004081020408001020408102001020408B6
:100100001020E80F11241FBECFEFD8E0DEBFCDBF17
:1001100012E0A0E0B1E0ECEBF4E402C005900D9237
:10012000A033B107D9F724E0A0E3B2E001C01D92EB
:10013000AC3EB207E1F710E0C2E8D0E004C021977E
:10014000FE010E945420C138D107C9F70E945F10F8
:100150000C945C220C940000833081F028F48130F0
:1001600099F08230A9F008958730A9F08830C9F05D
:100170008430B1F4809180008F7D03C08091800035
:100180008F7780938000089584B58F7784BD08951C
:1001900084B58F7DFBCF8091B0008F778093B000C6
:1001A00008958091B0008F7DF9CFCF93DF93282FF2
:1001B00030E0F901EE54FF4F8491F901E251FF4F15
:1001C000D491F901E652FF4FC491CC23A1F08111E3
:1001D0000E94AC00EC2FF0E0EE0FFF1FEA53FF4F40
:1001E000A591B491EC91ED2381E090E009F480E0D9
:1001F000DF91CF91089580E090E0FACF1F93CF93E5
:10020000DF93282F30E0F901EE54FF4F8491F9017C
:10021000E251FF4FD491F901E652FF4FC491CC2334
:10022000A9F0162F81110E94AC00EC2FF0E0EE0F28
:10023000FF1FE053FF4FA591B4918FB7F894EC9155
:10024000111108C0D095DE23DC938FBFDF91CF91D1
:100250001F910895DE2BF8CFCF93DF9390E0FC0140
:10026000E251FF4F249186529F4FFC0184918823D5
:10027000C9F090E0880F991FFC01E855FF4FA59148
:10028000B491FC01E053FF4FC591D49161110DC0B1
:100290009FB7F8948C91209582238C938881282392
:1002A00028839FBFDF91CF910895623051F49FB7AB
:1002B000F8943C91822F809583238C93E8812E2B98
:1002C000EFCF8FB7F894EC912E2B2C938FBFEACF02
:1002D0000F931F93CF93DF93EC01162F042F1B82F4
:1002E0001A8288EE93E0A0E0B0E08C839D83AE8319
:1002F000BF8389E291E0998388831F8A1E8A198EC1
:10030000188E1B8E1A8E1D8E1C8E6E8D6E7F6D7FCD
:100310006E8F6695617081E06827842F0E94FE00D1
:1003200061E0802F0E942C01802F90E0FC01E251BF
:10033000FF4FE491E88BFC01E652FF4FE491F0E0BF
:10034000EE0FFF1FE053FF4F859194919A8B898B9D
:1003500060E0812F0E942C018E8D81FD04C061E040
:10036000812F0E94FE001C87812F90E0FC01E2514A
:10037000FF4FE491ED87FC01E652FF4FE491F0E07E
:10038000EE0FFF1FEA53FF4F859194919F878E8751
:10039000DF91CF911F910F9108951F93CF93DF931A
:1003A000182FEB0161E00E942C01209739F460E0E6
:1003B000812FDF91CF911F910C94FE00CF3FD1058B
:1003C00011F461E0F5CFE12FF0E0EE54FF4FE4913E
:1003D000E33031F140F4E130B1F0E230E1F0C03827
:1003E000D1057CF7E4CFE73029F1E83059F1E4306A
:1003F000B1F780918000806280938000D0938B0061
:10040000C0938A0004C084B5806884BDC7BDDF91F5
:10041000CF911F91089584B5806284BDC8BDF7CF88
:1004200080918000806880938000D0938900C09381
:100430008800EDCF8091B00080688093B000C093B9
:10044000B300E5CF8091B00080628093B000C0938C
:10045000B400DDCF8E3008F08E50877080648093BA
:100460007C0080917A00806480937A0080917A0089
:1004700086FDFCCF809178009091790008953FB778
:10048000F8948091020490910304A0910404B09127
:10049000050426B5A89B05C02F3F19F00196A11DA4
:1004A000B11D3FBFBA2FA92F982F8827BC01CD01BE
:1004B000620F711D811D911D42E0660F771F881F1D
:1004C000991F4A95D1F708958F929F92AF92BF924C
:1004D000CF92DF92EF92FF924B015C010E943F02AC
:1004E0006B017C010E943F026C197D098E099F09F6
:1004F000683E734081059105A8F321E0821A9108B6
:10050000A108B10888EEC80E83E0D81EE11CF11CDA
:1005100081149104A104B10429F7FF90EF90DF90BA
:10052000CF90BF90AF909F908F90089508950895B9
:100530009091050189130BC0EEE8F0E0E4919FEF84
:1005400090930501E13049F028F0E23061F060E07D
:100550000C94FE0010926E00FACF90916F009D7F78
:1005600090936F00F4CF909170009D7F90937000F6
:1005700091E09093B0009091B100987F9460909337
:10058000B1001092B300E3CFAF92BF92CF92DF924F
:10059000EF92FF920F931F93CF93DF936C017B0138
:1005A0008B01040F151FEB015E01AE18BF08C017C9
:1005B000D10759F06991D601ED91FC910190F0813C
:1005C000E02DC6010995892B79F7C501DF91CF91FF
:1005D0001F910F91FF90EF90DF90CF90BF90AF9061
:1005E0000895FC01538D448D252F30E0842F90E039
:1005F000821B930B541710F0CF960895019708951E
:10060000FC01918D828D981761F0A28DAE0FBF2FE6
:10061000B11D5D968C91928D9F5F9F73928F90E03C
:1006200008958FEF9FEF0895FC01918D828D9817AB
:1006300031F0828DE80FF11D858D90E008958FEFE8
:100640009FEF0895FC01918D228D892F90E0805CB1
:100650009F4F821B91098F73992708958AE094E038
:100660000E94220321E0892B09F420E0822F0895C3
:1006700080E090E0892B29F00E942E0381110C94D8
:1006800000000895FC01A48DA80FB92FB11DA35A35
:10069000BF4F2C91848D90E001968F739927848FA2
:1006A000A689B7892C93A089B1898C9183708064C5
:1006B0008C93938D848D981306C00288F389E02D66
:1006C00080818F7D80830895EF92FF920F931F9317
:1006D000CF93DF93EC0181E0888F9B8D8C8D9813F5
:1006E0001AC0E889F989808185FF15C09FB7F89401
:1006F000EE89FF896083E889F9898081837080644D
:1007000080839FBF81E090E0DF91CF911F910F9197
:10071000FF90EF900895F62E0B8D10E00F5F1F4FA6
:100720000F731127E02E8C8D8E110CC00FB607FCB5
:10073000FACFE889F989808185FFF5CFCE010E9443
:100740004203F1CFEB8DEC0FFD2FF11DE35AFF4F6C
:10075000F0829FB7F8940B8FEA89FB8980818062D1
:10076000CFCF682F8AE094E00C9464030F931F931B
:10077000CF93DF938C01D0E0C0E0F801EC0FFD1FB8
:100780006491662341F08AE094E00E946403892B1F
:1007900011F02196F2CFCE01DF91CF911F910F91F1
:1007A0000895CF93DF93EC01888D8823B9F0AA894F
:1007B000BB89E889F9898C9185FD03C0808186FD1C
:1007C0000DC00FB607FCF7CF8C9185FFF2CF80816B
:1007D00085FFEDCFCE010E944203E9CFDF91CF919B
:1007E0000895CF92DF92EF92FF920F931F93CF93D2
:1007F000DF93CDB7DEB729970FB6F894DEBF0FBEF3
:10080000CDBF8C01DC0119968D919C91892B09F447
:1008100073C00E943F02F801C784D088E188F28843
:100820006C157D058E059F0520F46787708B818B85
:10083000928BF801C784D088E188F2886C197D0911
:100840008E099F096C3271408105910510F3F8946F
:10085000D80114968D919C9115979A838983199646
:10086000ED91FC917F01BFEFEB1AFB0A8081898734
:10087000F80190810388F489E02DD80155968C9178
:10088000992309F448C09081982B9887908180958E
:1008900089238F838F818C8388E08B8358856F8138
:1008A00049853B812C8189819A81D701508347FDFD
:1008B000252F3A952083262F39F0441F00C00000D1
:1008C0006083000000C0F2CF38E04D9160830000EB
:1008D000019761F7D8015496FC93EE93539749879B
:1008E0003B832C839A83898378940E943F02F8018A
:1008F0006787708B818B928B29960FB6F894DEBF39
:100900000FBECDBFDF91CF911F910F91FF90EF9060
:10091000DF90CF9008959081982B98879081809553
:1009200089238F838F818E8388E08D8358856F81A3
:1009300049853D812E8189819A81D701508347FD68
:10094000252F00C000C0208300C000C000C000C030
:1009500000C060830000262F3A9541F0441F00003C
:1009600000C000C000C000C000C0E8CF38E04D911A
:1009700000C0608300C0019709F7D8015496FC932A
:10098000EE93539749873D832E83ACCF0895CF9242
:10099000DF92EF92FF92CF93DF93DC011796CC9119
:1009A0001797D0E06111DC2F18962C91189730E042
:1009B000220F331F2A533F4F50E040E0F901859149
:1009C0009491FC01F080BA0190E080E0EF2DEC23DF
:1009D000ED1310C04F5F5F4F1D96CD90DD90ED90F1
:1009E000FC9050976C157D058E059F0538F36FEFD1
:1009F0007FEFCB01DF91CF91FF90EF90DF90CF9011
:100A000008958F929F92AF92BF92CF92DF92EF9212
:100A1000FF920F931F93CF93DF93CDB7DEB7C054F0
:100A2000D1400FB6F894DEBF0FBECDBF2FB7F894FC
:100A300040910604509107046091080470910904E4
:100A40002FBFFC0101851285238534856A017B0156
:100A5000C01AD10AE20AF30A97018601003D174045
:100A600021053105B0F4FC018189C05CDE4F0FB671
:100A7000F894DEBF0FBECDBFDF91CF911F910F91D4
:100A8000FF90EF90DF90CF90BF90AF909F908F90AE
:100A900008958C01FC014187528763877487148213
:100AA000138212821182108262E085810E942C01E1
:100AB00061E070E080E090E00E94640261E0F80193
:100AC00085810E942C0160E0F80185810E94FE0072
:100AD000F80186818551823028F58BE291E10197FA
:100AE000F1F762E0F80185810E942C01F80182890A
:100AF00090E08230910538F0880F991F880F991F78
:100B000005970197F1F7F89460E0C8010E94C704C7
:100B10006F3F7F4F8F4F9F4F61F4F801118A789498
:100B200080E0A3CF64E170E080E090E00E94640286
:100B3000D8CF61E0C8010E94C7046F3F7F4F8F4F3D
:100B40009F4F59F3CE0101967C015E019FEBA91ADC
:100B50009EEFB90A670160E0C8010E94C704F60170
:100B6000608371838283938361E0C8010E94C7041C
:100B7000F6016483758386839783F8E0CF0ED11CDA
:100B8000CA14DB0441F7789430E020E0F70180805C
:100B90009180A280B3804481558166817781FFEF87
:100BA0008F169F06AF06BF0631F04F3F8FEF5807F5
:100BB0006807780719F4F801118AB2CFF90183E0C8
:100BC000F595E7958A95E1F7E00FF11F8081880F91
:100BD00084169506A606B706F0F080832F5F3F4F78
:100BE000F8E0EF0EF11C2832310581F6F80144815E
:100BF00020818181280F3327331F8281280F311DE7
:100C00008381820F932F911D99274817190699F612
:100C100081E0818B2ACF8160E0CF2091D702309193
:100C2000D8022817390771F49091D6028091D50225
:100C3000981741F0E091D602F0E0EB56FD4F80812D
:100C400090E008958FEF9FEF08950895EF92FF923F
:100C50000F931F93CF93DF93DC015C96ED90FC9094
:100C60005D97E114F10479F481E090E013969C9390
:100C70008E93129790E080E0DF91CF911F910F91BA
:100C8000FF90EF9008955196ED91FC9152975096F8
:100C90008C915097982F90950FB75E962C915E97F8
:100CA000122F127021FD6095F8942081112319F103
:100CB000282B2083E7012197F1F728E0462F50E009
:100CC000308160FF1AC0382B3083E7012197F1F79C
:100CD000BA0175956795215089F7112381F08081BC
:100CE000892380830FBF5C968D919C910197F1F7CA
:100CF00081E090E0C1CF2923DCCF3923E5CF90817B
:100D0000892BEFCF2091D7023091D80228173907CD
:100D100061F48091D5022091D60290E0805C9F4FD3
:100D2000821B91098F739927089590E080E00895C0
:100D30002091D7023091D80228173907B9F4909141
:100D4000D6028091D502981789F0E091D602F0E0A2
:100D5000EB56FD4F80812091D60230E02F5F3F4F50
:100D60002F7333272093D60290E008958FEF9FEFE3
:100D70000895FC0189E291E0918380838091D702FC
:100D80009091D802E817F90759F4A389B4899C9186
:100D90008589809589238C931092D8021092D7026E
:100DA0000895CF93DF93FC01828D938D892B41F1C0
:100DB000A091D702B091D802AE17BF0709F11097E2
:100DC00051F05396CD91DC915497988155968C9122
:100DD000809589238883868D8E7F868F1092D50299
:100DE0001092D602F093D802E093D702A389B48977
:100DF0008C919589892B8C9381E0DF91CF91089517
:100E000080E0FBCFCF93DF93EC019A01AB011B8E07
:100E10001A8E198E188E1F8A1E8A60E079E08DE383
:100E200090E00E94231FF901C90103972430310586
:100E300010F481E090E09D8F8C8F6C85663108F016
:100E400052C0C901969587958431910508F450C028
:100E500043979F8B8E8BC9010597369710F481E0DD
:100E600090E0998F888FC901880F991F280F391F2B
:100E700036952795369527952D303105E0F12C5084
:100E800031093B8F2A8F9091680084E0683048F0E8
:100E900021E06E3008F420E081E001C0880F2A953F
:100EA000EAF7892B809368009C852DE630E0983026
:100EB00050F02BE630E09E3030F02CE630E09631FA
:100EC00010F030E020E03C8B2B8B292F30E0983065
:100ED000A8F481E001C0880F9A95EAF78D8B8C8D7C
:100EE0009D8D0197F1F7CE01DF91CF910C94D10642
:100EF00081E090E0AECF21E030E0C3CF9E3040F4FF
:100F00002850310981E001C0880F2A95EAF7E6CF21
:100F10002E503109F7CF20917102260F3327331F4E
:100F200021323105ECF42091FF02FC0190E080E0D9
:100F3000243069F082E00895A09171022191AC0102
:100F40004F5A5D4FA40FB52FB11D2C9301968617F4
:100F500098F380917102680F6093710280E00895A8
:100F600081E008951092FF0281E08093FE021092CA
:100F7000D90261E082E10E94FE0061E083E10E940B
:100F8000FE00E9EBF0E080818E7F808380818D7FA1
:100F9000808388E48093B80085E48093BC00089542
:100FA000CF93DF9391E0909350028823B9F0C091E2
:100FB000B800D091BA008091BC008A7B8093BC00BD
:100FC00060E082E10E94FE0060E083E10E94FE009A
:100FD0000E94B207D093BA00C093B800DF91CF91BE
:100FE0000895E091320380913103E81730F4F0E086
:100FF000E05DFD4F808190E008958FEF9FEF0895B1
:1010000090913203809131032FEF3FEF981748F40E
:10101000E92FF0E0E05DFD4F208130E09F5F90938D
:101020003203C90108958091310390913203891BE5
:10103000990B0895CF92DF92EF92FF920F931F9337
:10104000CF93DF937C01CB018A01209105032223FA
:1010500089F0EB016B01C40ED51ECC15DD0569F0DE
:101060006991D701ED91FC910190F081E02DC701CC
:101070000995F3CF642F0E948B07C801DF91CF91B0
:101080001F910F91FF90EF90DF90CF900895CF9335
:10109000DF931F92CDB7DEB769832091050322232A
:1010A000F9F020912F03203258F021E030E0FC01CC
:1010B0003383228390E080E00F90DF91CF910895F9
:1010C00080913003E82FF0E0EA5FFC4F9981908334
:1010D0008F5F8093300380932F0381E090E0ECCF0B
:1010E00061E0CE0101960E948B07F7CFCF92DF928D
:1010F000EF92FF920F931F93CF93DF93FC01C48174
:1011000021E020930503C093260310923003109230
:101110002F038385682B87EA94E00E944708D091CB
:101120002F03D13208F092C00E943F026B017C0174
:101130008091FF02811165C082E08093FF0281E00F
:101140008093FE028FEF8093FD021092FC02D093F9
:10115000FB02A6E0B3E0EBEDF2E080E0D81385C03F
:101160001092DA028091DA02CC0FC82BC093DA0217
:101170008091D902813009F07CC01092D9020E947E
:101180003F026B017C018091DA028093BB00809169
:10119000010390910203A0910303B0910403892BF2
:1011A0008A2B8B2B99F00E943F0200910103109132
:1011B000020320910303309104036C197D098E0909
:1011C0009F090617170728073907E0F18091BC002F
:1011D00083FDD9CF85EC8093BC000E943F026B0158
:1011E0007C018091FF02823009F445C08091FD02AC
:1011F0008F3F61F18091FD02803241F18091FD02CB
:1012000025C08091010390910203A0910303B09146
:101210000403892B8A2B8B2B09F48ACF0E943F026F
:101220000091010310910203209103033091040304
:101230006C197D098E099F090617170728073907BA
:1012400008F076CF809100030E94D00710923003FF
:1012500010922F0310920503DF91CF911F910F91F0
:10126000FF90EF90DF90CF9008959D9191938F5FC5
:1012700075CF85EEB0CF8091010390910203A091CC
:101280000303B0910403892B8A2B8B2B09F4A9CF7C
:101290000E943F0200910103109102032091030379
:1012A000309104036C197D098E099F0906171707F1
:1012B0002807390708F095CFC5CF90E080E0089562
:1012C0000F931F93CF93DF93CDB7DEB72A970FB657
:1012D000F894DEBF0FBECDBF0091460310914703C7
:1012E0000115110589F11E821D829EE799839FEFEA
:1012F0009A8396E09B839FEE9A878C83272F30E01A
:101300007E836F8390E08B5F9E4F820F931F860FCB
:10131000911D91958195910998878987C8010E94AF
:10132000D106D801ED91FC910280F381E02D4AE0D5
:1013300050E0BE016F5F7F4FC801099568E770E01C
:1013400080E090E00E9464022A960FB6F894DEBF17
:101350000FBECDBFDF91CF911F910F910895E09106
:101360002A03A1E0B1E090E0E91729F02D912817B8
:1013700061F09F5FF9CFE43040F491E09E0F9093CD
:101380002A03F0E0EF5FFE4F80830895FB01019098
:101390000020E9F73197AF01461B570BDC01ED91B7
:1013A000FC910280F381E02D09948F929F92AF927D
:1013B000BF920F931F93CF93DF93CDB7DEB7A19763
:1013C0000FB6F894DEBF0FBECDBF19A2423008F4AD
:1013D0004AE08E010F5D1F4F842E912CB12CA12C61
:1013E000A50194010E94011FE62FB901CA01EA304C
:1013F00004F5E05DD801EE938D01232B242B252BE2
:1014000079F790E080E0109729F0BD018AE094E040
:101410000E94C609A1960FB6F894DEBF0FBECDBFDD
:10142000DF91CF911F910F91BF90AF909F908F90C0
:101430000895E95CDFCF0F931F93CF93DF93EC0107
:10144000FB014481558160817181E881F9810280CD
:10145000F381E02D09958C016BE571E0CE010E94CE
:10146000C609800F911FDF91CF911F910F910895B1
:1014700088E690E00E94B6036EE571E08AE094E0B1
:101480000E94C6096BE571E08AE094E00C94C609FD
:10149000FC0180819181009711F00C94F620089551
:1014A0000F931F93CF938C01C62F0E9476086C2F49
:1014B0006460C8010E9476086C2F6B7FC8010E948F
:1014C000760883EC90E00197F1F7CF911F910F918F
:1014D00008950F931F93CF93DF938C01D62FC42FC2
:1014E000607F642B0E94500A80E1D89FB0011124D4
:1014F0006C2BC801DF91CF911F910F910C94500A72
:1015000040E061E00E94690A8BE39FE10197F1F7F7
:10151000089541E00E94690A81E090E008958F9269
:101520009F92AF92BF92CF92DF92EF92FF925C01B7
:101530006A017B0188E890E00E94B603A114B1041F
:1015400029F0B5018AE094E00E94C6098CE20E946D
:10155000B103A7019601C701B6010E943C2064E6D1
:1015600071E081111AC046015701E894B7F82FEFD6
:101570003FEF4FE75FE7C501B4010E943C208111B6
:101580001EC02FEF3FEF4FE75FE7C501B4010E9498
:10159000CD1D1816A4F468E671E08AE094E00E947C
:1015A000C6096BE571E08AE094E0FF90EF90DF9070
:1015B000CF90BF90AF909F908F900C94C6092FEF63
:1015C0003FEF4FE75FE4C701B6010E9437201816CE
:1015D0001CF46CE671E0E1CF2FEF3FEF4FE75FECDB
:1015E000C701B6010E94CD1D87FDF3CF20E030E09A
:1015F000A901C701B6010E94CD1D87FF07C08DE27A
:101600000E94B103F7FAF094F7F8F0942AE037ED6E
:1016100043EA5BE3C701B6010E949C1F4B015C01DA
:101620000E9408206B017C010E94D21D9B01AC012D
:10163000C501B4010E949B1F4B015C014AE0C70138
:10164000B6010E94D5098EE20E94B10320E030E08D
:1016500040E251E4C501B4010E94331E4B015C011C
:101660000E9408206B01F12CE12C4AE0C701B60171
:101670000E94D509C701B6010E94D21D9B01AC0191
:10168000C501B4010E949B1F20E030E040E251E41C
:101690000E94331E0E94082090E080E04AE00E94F1
:1016A000D5097FCF0F931F93CF93DF93EC018881F0
:1016B0009981009759F02A813B812617370730F02E
:1016C00081E0DF91CF911F910F9108958B016F5FA2
:1016D0007F4F0E947F21009759F0998388831B8355
:1016E0000A832C813D81232B59F7FC011082E8CF1E
:1016F00080E0E7CFCF93DF93EC01198218821B8241
:101700001A821D821C8270E060E00E94520B2881C8
:10171000398181110FC02115310519F0C9010E94CD
:10172000F620198218821D821C821B821A82DF9188
:10173000CF9108951D821C826DE571E0C901DF9192
:10174000CF910C94552285ED8093BC0080910103CC
:1017500090910203A0910303B09104030796A11D89
:10176000B11D23E0B695A795979587952A95D1F752
:101770002091BC0024FD03C01092FF020895409107
:101780000103509102036091030370910403452B00
:10179000462B472B69F30097A105B10541F02AE2DA
:1017A0002A95F1F700C00197A109B109E1CF809115
:1017B00000030C94D0078F929F92AF92BF92CF926A
:1017C000DF92EF92FF920F931F93CF93DF9300D09E
:1017D00000D01F92CDB7DEB76C018B010E947A0B4F
:1017E0000115110509F445C0F80101900020E9F741
:1017F00031975F01A01AB10AB50176956795C601C8
:101800000E94520B88248394912C8A149B0488F59F
:101810001B82F8018081898381818A8340E150E0C5
:1018200070E060E0CE0101960E94841C6C831D82F2
:10183000F601E480F580FFEFEF1AFF0AB701C60159
:101840000E94520B882379F0F60120813181848136
:101850009581BE016C5F7F4F820F931F0E945522BE
:10186000F601F582E482F2E08F0E911C0E5F1F4FAD
:10187000CCCFC6010F900F900F900F900F90DF917B
:10188000CF911F910F91FF90EF90DF90CF90BF907D
:10189000AF909F908F900895009711F00C946F1D5A
:1018A000CB0108951F920F920FB60F9211242F9320
:1018B0003F938F939F93AF93BF9380910604909132
:1018C0000704A0910804B09109043091010423E0B9
:1018D000230F2D3758F50196A11DB11D209301044A
:1018E0008093060490930704A0930804B09309041E
:1018F0008091020490910304A0910404B091050426
:101900000196A11DB11D8093020490930304A0933E
:101910000404B0930504BF91AF919F918F913F91C3
:101920002F910F900FBE0F901F90189526E8230F50
:101930000296A11DB11DD2CF1F920F920FB60F922A
:1019400011242F933F934F935F936F937F938F93C4
:101950009F93AF93BF93EF93FF9380913803909140
:101960003903A0913A03B0913B03892B8A2B8B2B2F
:10197000D1F190913303E0913403F09135038081EC
:10198000892780838091380390913903A0913A038D
:10199000B0913B03181619061A061B069CF4809199
:1019A000380390913903A0913A03B0913B0301971A
:1019B000A109B1098093380390933903A0933A03A6
:1019C000B0933B03FF91EF91BF91AF919F918F91A6
:1019D0007F916F915F914F913F912F910F900FBE2B
:1019E0000F901F901895809105010E949802EACFF0
:1019F0001F920F920FB60F9211242F933F934F9384
:101A00005F936F937F938F939F93AF93BF93EF9366
:101A1000FF938AE094E00E944203FF91EF91BF910F
:101A2000AF919F918F917F916F915F914F913F9176
:101A30002F910F900FBE0F901F9018951F920F922D
:101A40000FB60F9211242F938F939F93EF93FF93D1
:101A5000E0911A04F0911B048081E0912004F09140
:101A6000210482FD1BC09081809123048F5F8F73BE
:101A700020912404821741F0E0912304F0E0E65F16
:101A8000FB4F958F80932304FF91EF919F918F914E
:101A90002F910F900FBE0F901F9018958081F4CF5B
:101AA0001F920F920FB60F9211242F933F934F93D3
:101AB0005F936F937F938F939F93AF93BF93EF93B6
:101AC000FF93E091D702F091D802309749F0A685B4
:101AD000B7858585968D91FF14C09C918923A1F4CB
:101AE000FF91EF91BF91AF919F918F917F916F91F6
:101AF0005F914F913F912F910F900FBE0F901F90CC
:101B000018959C91892361F7A389B4899C91858953
:101B1000809589238C93868997890197F1F7608D49
:101B2000718DA685B785558538E020E0CB010197FA
:101B3000F1F7822F90E095958795282F4C914523BA
:101B400009F02068315091F7868D81FD20958091B4
:101B5000D50290E001968F7399273091D6023817FD
:101B600099F0A091D502B0E0AB56BD4F2C93809375
:101B7000D502828D938D0197F1F7A389B4898C9159
:101B80009589892B8C93ACCF868D8160868FF1CF20
:101B90001F920F920FB60F9211242F933F934F93E2
:101BA0005F936F937F938F939F93AF93BF93CF93E5
:101BB000DF93EF93FF9380919402C091D704D0E01C
:101BC00087FF24C0109285001092840080919402B7
:101BD0008F5F8093940280919402082E000C990BE1
:101BE0008C179D0724F4809194028C30C4F180916D
:101BF000840090918500049680349C4908F47AC052
:101C00008091840090918500049676C08091940222
:101C1000082E000C990B8C179D07C4F6E0919402D6
:101C20008E2FEE0F990BFC01EE0FFF1FE80FF91F2F
:101C3000ED54FB4F808186FFC9CFE09194028E2F37
:101C4000EE0F990BFC01EE0FFF1FE80FF91FED548B
:101C5000FB4F808160E08F730E94FE00B7CF209120
:101C6000840030918500E09194028E2FEE0F990B45
:101C7000FC01EE0FFF1FE80FF91FED54FB4F8181B0
:101C80009281820F931F9093890080938800E09146
:101C900094028E2FEE0F990BFC01EE0FFF1FE80F41
:101CA000F91FED54FB4F808186FF11C0E091940233
:101CB0008E2FEE0F990BFC01EE0FFF1FE80FF91F9F
:101CC000ED54FB4F808161E08F730E94FE00FF9115
:101CD000EF91DF91CF91BF91AF919F918F917F91C4
:101CE0006F915F914F913F912F910F900FBE0F9089
:101CF0001F90189580E49CE9909389008093880058
:101D00008FEF80939402E3CF1F920F920FB60F9242
:101D100011242F933F934F935F936F937F938F93F0
:101D20009F93AF93BF93EF93FF938091B900887F08
:101D3000803609F44AC0F0F5883209F4A7C018F5D6
:101D4000803109F49BC0B8F4882309F4F9C08830C5
:101D500009F494C0FF91EF91BF91AF919F918F9142
:101D60007F916F915F914F913F912F910F900FBE97
:101D70000F901F901895883109F488C0803251F770
:101D80008093FD0214C0803409F49DC040F4803378
:101D9000B9F38833F9F68093FD0285ECB0C0803545
:101DA00009F485C0883509F496C0883499F60E94F4
:101DB000A30BD0CF883909F48CC038F5883729F0C7
:101DC00050F4883611F0803729F683E08093FF02C3
:101DD0001092930257C0883809F47BC0803919F0FB
:101DE000803809F0B7CF80919302803208F071C03B
:101DF000E091930281E08E0F809393028091BB006B
:101E0000F0E0ED58FD4F80833DC0803B39F0E0F4B9
:101E1000803A09F479C0883A09F09CCF84E0809335
:101E2000FF021092720210927102E0912D03F09164
:101E30002E0309958091710281110FC081E080937A
:101E400071021092510209C0803C09F4A6CF883C6F
:101E500009F4A3CF883B09F07DCFE091720281E0C5
:101E60008E0F80937202F0E0EF5AFD4F80818093D5
:101E7000BB00909172028091710229C08091DA02B8
:101E80008093BB0085EC8093BC0064CF9091FC02F2
:101E90008091FB02981758F5E091FC0281E08E0FCB
:101EA0008093FC02F0E0E552FD4F8081E9CFE091A4
:101EB000FC0281E08E0F8093FC028091BB00F0E079
:101EC000E552FD4F80839091FC028091FB029817B0
:101ED000C8F285E8D8CFE091FC0281E08E0F8093B4
:101EE000FC028091BB00F0E0E552FD4F80838091C1
:101EF000FE0281115CCF81E08093D90284EA809355
:101F0000BC001092FF0226CF85EC8093BC0010929B
:101F1000FF0280919302803230F4E0919302F0E06E
:101F2000ED58FD4F10826091930270E0E0912B0319
:101F3000F0912C0383E792E00995109293020ACF67
:101F40001092FD0234CFCF92DF92EF92FF920F9367
:101F50001F93E82FF92F05C00150110921093109FC
:101F600061F1908196239417B9F305C001501109CE
:101F70002109310911F1908196239413F7CFC12CD7
:101F8000D12CE12CF12C0AC08FEFC81AD80AE80A2C
:101F9000F80A0C151D052E053F0579F08081862372
:101FA000841791F36C2D7D2D8E2D9F2D1F910F91F8
:101FB000FF90EF90DF90CF90089560E070E080E0B8
:101FC00090E01F910F91FF90EF90DF90CF900895D8
:101FD00010920D0410920C0488EE93E0A0E0B0E0A3
:101FE00080930E0490930F04A0931004B0931104F7
:101FF0002BE331E030930B0420930A0425EC30E00E
:10200000309317042093160424EC30E03093190425
:102010002093180420EC30E030931B0420931A0422
:1020200021EC30E030931D0420931C0422EC30E0BE
:1020300030931F0420931E0426EC30E030932104DB
:10204000209320041092230410922404109225045B
:10205000109226041092AA041092A9048093AB0453
:102060009093AC04A093AD04B093AE048DE491E0E2
:102070009093A8048093A704E8EDF4E024EE34E004
:102080004FEF68EB7BE08091D7048C30B0F491E0A7
:10209000980F9093D704808390E0DC01AA0FBB1FB8
:1020A000A80FB91FAD54BB4F12967C936E93119736
:1020B00033962E173F0739F708954083F9CFCF9312
:1020C000DF93CDB7DEB7A8970FB6F894DEBF0FBE8B
:1020D000CDBF789484B5826084BD84B5816084BDB1
:1020E00085B5826085BD85B5816085BD80916E00B6
:1020F000816080936E0010928100809181008260E7
:102100008093810080918100816080938100809123
:1021100080008160809380008091B1008460809312
:10212000B1008091B00081608093B00080917A000E
:10213000846080937A0080917A00826080937A0034
:1021400080917A00816080937A0080917A00806823
:1021500080937A001092C100E0911A04F0911B0460
:1021600082E08083E0911604F09117041082E091E0
:102170001804F091190480E1808310922204E09108
:102180001E04F0911F0486E08083E0911C04F0910E
:102190001D04808180618083E0911C04F0911D0406
:1021A000808188608083E0911C04F0911D0480810F
:1021B00080688083E0911C04F0911D0480818F7DF4
:1021C00080836EE571E080E090E00E9464020E94EE
:1021D000380AB8E44B2EB8EE5B2E66246394712C5B
:1021E0008AE094E00E942203892B11F40C94741C61
:1021F0008AE094E00E9400038D3091F3E0910004A6
:102200008A3011F00C945A1CAE2FB0E0A45BBC4F86
:102210001C92EE2351F060E771E08CE493E00E94A1
:102220004C22892B29F40E94380A10920004D8CF3E
:1022300065E771E08CE493E00E94961D8C0165E7F0
:1022400071E090E080E00E94961D7C01011511056F
:1022500061F3892B51F367E771E0C8010E944C22BA
:10226000892B09F052C365E771E090E080E00E949D
:10227000961D8C016E0122E1C20ED11CB12C65E7C6
:1022800071E090E080E00E94961DD6018D939D93B1
:102290006D01892B21F0B394B6E0BB12F0CF01158C
:1022A000110519F269E771E0C8010E944C22892BDF
:1022B000D9F4BB20C9F070E060E08A899B890E9454
:1022C0004C0C182F60E00E942C01812F0E94D50039
:1022D000BC01990F880B990B0E94D41DAB01BC0166
:1022E000C7010E948F0AA1CF64ED71E0C8010E946E
:1022F0004C22892BA9F4BB2099F070E060E08A8918
:102300009B890E944C0C97FD07C08630910534F4E0
:10231000825F0E942A02DCCF8EE0FBCF83E1F9CFFF
:102320006CE771E0C8010E944C22892BB9F4BB20F4
:10233000A9F070E060E08A899B890E944C0C182FFC
:1023400062E00E942C01812F0E94D500892B09F0A8
:102350001AC240E050E060E87FE3C2CF63E871E07A
:10236000C8010E944C22892B09F060C0E1E0EB1506
:1023700008F05CC070E060E08C899D890E944C0C84
:102380008C0170E060E08A899B890E944C0CD82EF9
:1023900061E00E942C0160E0802F0E942C0160E02F
:1023A0008D2D0E94FE0083E090E00197F1F761E03F
:1023B0008D2D0E94FE0083E290E00197F1F760E02E
:1023C0008D2D0E94FE001127F801E251FF4F64910C
:1023D000F801E652FF4FE491F0E0EE0FFF1FEA53E1
:1023E000FF4F8591949100E315E720E030E0462F00
:1023F0000E94A30F611571058105910599F06F5F2A
:102400007F4F8F4F9F4F9F7061157105810591051B
:1024100049F02AE330E040E050E00E94011FCA0189
:10242000B9015ACF20E030E0A901F9CF69E871E0A5
:10243000C8010E944C22892BA9F5F1E0FB1590F50B
:1024400070E060E08C899D890E944C0C182F70E030
:1024500060E08A899B890E944C0CD82E61E00E9422
:102460002C0160E08D2D0E94FE008BE594E0019729
:10247000F1F7812F163008F085E0825F0E942A0272
:102480008C018BE990E00197F1F761E08D2D0E94BE
:10249000FE008BE397E90197F1F7B801110F880B64
:1024A000990B1ACF6EE871E0C8010E944C22892B6B
:1024B00009F04DC122E02B1508F049C170E060E041
:1024C0008A899B890E944C0C5C0170E060E08C89D9
:1024D0009D890E944C0C76E1972E469711F06BE097
:1024E000962E80912803909129036501DD240097A1
:1024F00079F020910001022E000C330BC216D30696
:1025000029F420912703291509F44CC00E94F620D4
:1025100083E190E00E945A208C01DC011596AC9278
:10252000159716969C921697F601E251FF4FE4918B
:102530001796EC931797F601E652FF4FE491189621
:10254000EC9380E89EE3A0E0B0E0F80185879687F1
:10255000A787B08B1093290300932803A092000152
:102560009092270362E08A2D0E942C012FB7F894E5
:102570008091060490910704A0910804B091090489
:102580002FBF805D9740A109B109F801818792872B
:10259000A387B48787E3828B64E170E080E090E0FA
:1025A0000E94640270E060E08E899F890E944C0C5A
:1025B0000091280310912903892B09F451C0C80107
:1025C0000E94010581110AC0812C50EC952E59E71B
:1025D000A52E54ECB52EB501A40182CED8011696D5
:1025E0008C918B3088F38D30F0F08551823060F71C
:1025F000F8016081718176276727762790E080E077
:102600000E94D21D2DEC3CEC4CEC5DE30E94331E8D
:102610004B015C01A5019401C501B4010E943C205D
:102620008823C9F2D1CFF801618170E090E080E0A9
:102630000E94D41D2DEC3CEC4CEC5DE30E94331E5B
:102640004B015C01D8016C9170E090E080E00E9449
:10265000D41D9B01AC01C501B4010E949C1FD8CFC1
:10266000C8010E940105882309F4AECFD80116964F
:102670008C918C3009F445C058F58B3009F0A4CF0B
:10268000F801628170E090E080E00E94D21D4B0171
:102690005C01D80113961C9117FF0AC0AC019B0185
:1026A00060E070E080E89FEB0E949B1F4B015C01A3
:1026B0001F70612F70E090E080E00E94D41D2DEC2F
:1026C0003CEC4CEC5DE30E94331EA5019401C5CFA8
:1026D0008551823008F078CFF801D2806D2D70E0FE
:1026E000762F662766277F778381682B90E080E0CE
:1026F0000E94D21D2DEC3CEC4CEC5DE30E94331E9D
:102700001DC0F801D2806D2D70E090E080E00E9445
:10271000D21D4B015C01D80113966C916F7070E073
:1027200090E080E00E94D41D2DEC3CEC4CEC5DE38D
:102730000E94331EA50194010E949C1F4B015C0165
:10274000D7FE68CFB7FAB094B7F8B09463CF62E918
:1027500071E0C8010E944C22892BC9F40091440306
:10276000109145030115110571F0C8010E94D106B1
:10277000D801ED91FC910084F185E02DC801099507
:10278000892B09F0E6CD40E050E0BA01A9CD6AE915
:1027900071E0C8010E944C22892BA9F7CE014E9608
:1027A0000E947A0B8091440390914503009709F4AD
:1027B0005DC00E94D1068FB7F89480900604909077
:1027C0000704A0900804B09009048FBF2FB7F894B5
:1027D0008091060490910704A0910804B091090427
:1027E0002FBF88199909AA09BB0980359105A10550
:1027F000B105E0F58091440390914503DC01ED9132
:10280000FC910084F185E02D0995892BF9F28091E6
:10281000440390914503DC01ED91FC910284F38522
:10282000E02D09958D3011F08A3029F48AA19BA101
:10283000892B01F3CBCF0AA11BA189831A820F5FD9
:102840001F4FB801CE014E960E94520B882391F281
:102850002E8D3F8D8AA19BA1BE016F5F7F4F820F9E
:10286000931F0E9455221BA30AA3C4CF8BE890E0BC
:102870000E94B603B7018AE094E00E94C6098CE288
:102880000E94B10381E1EFE1F2E0DE0111960190D7
:102890000D928A95E1F710E000E08AA19BA108174C
:1028A000190740F58E8D9F8DF12C009721F0800F38
:1028B000911FFC01F080EF2DF0E034E0F595E795F5
:1028C0003A95E1F781E090E08C0F9D1FE80FF91F2A
:1028D00080810E94B103EF2DEF70A1E0B0E0AC0F5A
:1028E000BD1FAE0FB11DFD0180810E94B1030F5FBE
:1028F0001F4FD3CF6BE571E08AE094E00E94C609D8
:10290000CE014E960E94480A90CC61EA71E0C8015F
:102910000E944C22892B09F088CC8E010F5F1F4F3B
:10292000B12C680165E771E090E080E00E94961D9F
:10293000F801819391938F01892B09F0B5C763EA60
:1029400071E0C7010E944C22892BD9F4F1E0FB15FC
:10295000C0F470E060E089819A810E944C0C182FCD
:1029600061E00E942C0170E060E08B819C810E94FC
:102970004C0C61E0892B09F460E0812F0E94FE007D
:1029800054CC66EA71E0C7010E944C22892B11F5F4
:1029900021E02B15F8F470E060E089819A810E94B3
:1029A0004C0C182F61E00E942C0170E060E08B81DC
:1029B0009C810E944C0C8F3F910519F014F08FEF11
:1029C00090E097FF02C090E080E0BC01812F0E9460
:1029D000CD012BCC69EA71E0C7010E944C22892B02
:1029E00009F04CC082E08B1508F048C070E060E050
:1029F0008D819E810E944C0C7C0170E060E08B8197
:102A00009C810E944C0CD82E70E060E089819A81F4
:102A10000E944C0CC82E87019FEFE916F10419F0B3
:102A200014F00FEF10E00130AFEF1A0714F401E0DB
:102A30001FEF8C2D0E94AF098D2D0E94AF0961E020
:102A40008C2D0E942C0161E08D2D0E942C011E1402
:102A50001F0444F4B8018C2D0E94CD0170E060E0A9
:102A60008D2DB5CF70E060E08C2DEF28A9F30E948A
:102A7000CD0166277727601B710BF2CF6FEA71E0FB
:102A8000C7010E944C22892B09F000C1B1E0BB159F
:102A900008F0FCC070E060E089819A810E944C0CD3
:102AA000E6E0F1E0DF0110E000E06C01DD242D91B3
:102AB000022E000C330B2C153D0509F06BC0C8012C
:102AC000880F991F080F191F08521B4F70E060E014
:102AD0008B819C810E944C0CD801DC90BBE0BD1521
:102AE00008F4A3CBF8012281B8E5EB2EB2E0FB2E6F
:102AF000E21AF10827FDF394EE0CFF1CEE0CFF1C0C
:102B0000218108E810E0021B110927FD1395000F31
:102B1000111F000F111F4801012E000CAA08BB084D
:102B2000DC01853B910514F0A4EBB0E0B7FF02C0D7
:102B3000B0E0A0E097010F2C000C440B550B2819B6
:102B400039094A095B090E944D1F24EB30E040E03F
:102B500050E00E94231F820E931EA41EB51E8016F5
:102B600091062CF087018E149F040CF4840102500E
:102B70001109000F111F2FB7F8948D2D90E0FC0163
:102B8000EE0FFF1FE80FF91FED54FB4F1283018377
:102B90002FBF4BCB0F5F1F4F0430110509F087CFBC
:102BA000F12CE12C219127FF68C0F701EA5FFE4F6D
:102BB00080835701AA0CBB1C85010E0D1F1D0852F6
:102BC0001B4FF80120812C3008F080CF61E00E947B
:102BD0002C01D8018C91282F30E0F901EE0FFF1F56
:102BE000E20FF31FED54FB4FBC2DBF73CB2E908132
:102BF000907CC92AC082F801118212822CE0622FD7
:102C00000E944120829FB001112430E020E0AB01FE
:102C1000420F531FFA01EE0FFF1FE40FF51FED5493
:102C2000FB4F908196FD16C02F5F3F4F2C30310532
:102C300071F781110FC01092800082E080938100B3
:102C40001092850010928400B19A80916F0082608A
:102C500080936F00F501EE0DFF1DE852FB4FE08100
:102C60008E2F90E0FC01EE0FFF1FE80FF91FED54CF
:102C7000FB4F80818064808329CF2FEFE21AF20A14
:102C8000A4E0EA16F10409F08DCFCFCA67EB71E03A
:102C9000C7010E944C22892B09F024C2F2E0FB15E7
:102CA00008F020C270E060E089819A810E944C0C9B
:102CB0007C0180930A0170E060E08D819E810E941A
:102CC0004C0C082F98A770E060E08B819C810E94DB
:102CD0004C0C64E1262E312C8431910544F01C010A
:102CE00081329E4424F050E2252E5EE4352E809100
:102CF00005018E11B1C0EEE8F0E0149117FD95CA00
:102D000061E08E2D0E942C01112369F0B12CA12CC1
:102D100060E072E18AE790E0A50191010E94231F23
:102D2000123009F097C14101B12CA12C60E072E191
:102D30008AE790E0A50191010E94231F2CA33DA3E7
:102D40004EA35FA360E472E48FE090E0A5019101DF
:102D50000E94231F69017A0181E0C81AD108E108A5
:102D6000F108123009F0F5C09FEFC916D104E10453
:102D7000F10409F00CF466C160E970ED83E090E0C5
:102D8000A50191010E94231F69017A01A1E0CA1ADD
:102D9000D108E108F10883E0BFEFCB16D104E104CC
:102DA000F10409F00CF44FC1C301B201A501910176
:102DB0000E94231F69017A0181E0C81AD108E10845
:102DC000F10884E09FEFC916D104E104F10409F091
:102DD0000CF439C164E274EF80E090E0A501940145
:102DE0000E94231F69017A0181E0C81AD108E10815
:102DF000F10885E09FEFC916D104E104F10409F060
:102E000008F421C162E17AE780E090E0A501940135
:102E10000E94231F69017A01F1E0CF1AD108E1086D
:102E2000F10886E02FEFC216D104E104F10409F0A5
:102E30000CF409C1CCA0DDA0EEA0FFA09AE0F594AF
:102E4000E794D794C7949A95D1F7F1E0CF1AD108B7
:102E5000E108F10887E0F7C08F3F09F0E6C9E0928A
:102E60000501EEE8F0E014911F3F09F4DEC91130CE
:102E700041F150F0123009F446C017FDD6C961E0A7
:102E80008E2D0E942C0142CF14BC15BC84B58260EB
:102E900084BD85B5816085BDC7019927FC01E652D7
:102EA000FF4FE491F0E0EE0FFF1FE053FF4F25913D
:102EB0003491FC01E251FF4FE491E093370310E0BD
:102EC0001FCF109280001092810080918100886055
:102ED0008093810080918100816080938100C7018F
:102EE0009927FC01E652FF4FE491F0E0EE0FFF1F3F
:102EF000E053FF4F25913491FC01E251FF4FE491E3
:102F0000E0933603FDCE1092B0001092B100809194
:102F1000B00082608093B0008091B10081608093A6
:102F2000B100C7019927FC01E652FF4FE491F0E0A0
:102F3000EE0FFF1FE053FF4F25913491309335037F
:102F400020933403FC01E251FF4FE491E0933303FB
:102F5000D7CEEFEFCE16D104E104F10409F00CF462
:102F600041C0C301B201A50191010E94231F690163
:102F70007A01F1E0CF1AD108E108F10884E01111DB
:102F800039CF93E0EFEFCE16D104E104F10469F1FB
:102F900064F162E17AE780E090E0A50194010E948B
:102FA000231F69017A01A1E0CA1AD108E108F108DA
:102FB00094E0BFEFCB16D104E104F104B1F0ACF022
:102FC000CCA0DDA0EEA0FFA02AE0F594E794D79472
:102FD000C7942A95D1F7E1E0CE1AD108E108F108AB
:102FE00095E003C011112EC092E085B5887F892B32
:102FF00085BDA02FB8A51A161B0614F0A1E0B0E0FD
:103000009101220F331F0E944D2028EE33E040E053
:1030100050E00E94011F113009F442C0123009F43F
:1030200051C0111102C9C7BC209340033093410322
:10303000409342035093430380916E0082608093DB
:103040006E00F3C882E09091B100987F892B809345
:10305000B100CFCF69017A0191E0C91AD108E10826
:10306000F10891E0C114D104A1E0EA06F10474F082
:10307000C301B201A50191010E94231F69017A01D8
:10308000B1E0CB1AD108E108F10893E0113009F062
:10309000B0CF80918100887F892B80938100A9CF58
:1030A000D0928900C092880020933C0330933D0366
:1030B00040933E0350933F0380916F008260809362
:1030C0006F00B3C8C092B300209338033093390324
:1030D00040933A0350933B03809170008260809349
:1030E0007000A3C865EB71E0C7010E944C22892BD8
:1030F00059F4BB2049F070E060E089819A810E9418
:103100004C0C0E94980291C86CEB71E0C7010E94C0
:103110004C22892B09F0BFC0E2E0EB1508F0BBC0E0
:1031200080914A0390914B03009711F00E94F62082
:1031300070E060E089819A810E944C0CD82E70E08A
:1031400060E08B819C810E944C0CE82E70E060E076
:103150008D819E810E944C0CF82E8CE090E00E94A4
:103160005A208C01DC0113961C921E9212978DE15D
:1031700091E011969C938E931496DC921497199675
:10318000EC9219971A96FC921A971B961C92109320
:103190004B0300934A0310923203109231031092B2
:1031A000300310922F030E94B20786E992E09093B9
:1031B0002E0380932D0387E992E090932C03809354
:1031C0002B03F80115828285823010F098E09583F8
:1031D000D80118968C9362E370E080E090E00E9442
:1031E0006402F8016385C8010E94760868EE73E006
:1031F00080E090E00E94640260E3C8010E94500AEF
:10320000BBE4EB2EB6E4FB2EC7010197F1F760E3B8
:10321000C8010E94500AC7010197F1F760E3C80195
:103220000E94500A83E592E00197F1F760E2C8013D
:103230000E94500AD80115966C91606240E0C80166
:103240000E94690A84E0F801868340E06CE0C801CE
:103250000E94690AC8010E94800A82E0D80117967C
:103260008C9340E066E0C8010E94690A40E062E099
:10327000C8010E94690A8BE39FE10197F1F788E09A
:10328000F801838760E0C8010E947608C8010E94A7
:10329000800A0C94151165EC71E0C7010E944C2264
:1032A000892B09F04DC0F2E0FB1508F049C00091F0
:1032B0004A0310914B030115110509F441C070E058
:1032C00060E089819A810E944C0CF82E70E060E0E9
:1032D0008B819C810E944C0C98E0E1E1F1E0DE01E1
:1032E000529601900D929A95E1F7D80118969C910B
:1032F0009F1518F4FF24FA94F90E2F2D30E0220FB9
:10330000331FC20ED31EF6016189680F606840E06A
:10331000C8010E94690A6D817E81CE0142960E9499
:10332000DB0B4E895F896A897B89D801ED91FC911D
:103330000280F381E02DC8010995CE014296E2CAD0
:103340006EEC71E0C7010E944C22892B39F4809108
:103350004A0390914B03009709F099CF67ED71E014
:10336000C7010E944C22892B09F0B8C0B1E0BB15FF
:1033700008F0B4C0009148031091490301151105EC
:1033800089F0F801818592850E94F620D801169671
:103390008D919C9197FD03C060E00E942C01C801B3
:1033A0000E94F62070E060E08B819C810E944C0CB2
:1033B000EE24E394F12C1816190634F47C01CD9711
:1033C0001CF0ECE3EE2EF12C70E060E089819A8134
:1033D0000E944C0CB82EA92E86E190E00E945A2043
:1033E0008C01FC01118210861786108A118A128ABC
:1033F00081E086878387148692E0958780836701C2
:10340000CC0CDD1CCE0CDF1CD582C482C6010E9410
:103410005A20F80192878187009709F457C0A601C6
:1034200070E060E00E944522D8011396FC92EE9273
:103430001297D8011696BC9216971796AC921797CA
:1034400011968C91882341F061E08B2D0E942C0114
:1034500060E08B2D0E94FE008B2D9A2DFC01E65220
:10346000FF4FE491F0E0EE0FFF1FE053FF4F259177
:103470003491F801348B238BFC01E251FF4FE4912E
:10348000D8015596EC935597109349030093480340
:1034900016968D919C9197FD1EC061E00E942C01B3
:1034A00060E0F80186810E94FE0081E0D80111965B
:1034B0008C93D80114964D915C91159770E060E063
:1034C00019968D919C910E944522B1C0158214825B
:1034D00013821282AECFF8011182EBCF60EE71E061
:1034E000C7010E944C22892B09F0B1C0B3E0BB1583
:1034F00008F0ADC000914803109149030115110572
:1035000009F4A5C070E060E08F8198850E944C0CA2
:10351000F12C97FD07C0F82E8F3F910519F014F09C
:10352000FF24FA9470E060E08D819E810E944C0C33
:10353000D12C97FD07C0D82E8F3F910519F014F0BC
:10354000DD24DA9470E060E08B819C810E944C0C59
:10355000E12C97FD07C0E82E8F3F910519F014F07C
:10356000EE24EA9470E060E089819A810E944C0C1C
:10357000F8014281538130E020E097FD07C09A01B5
:10358000215031098217930708F49C01241735074D
:1035900008F04DC08F2D90E0B0E0A0E09D29AE294D
:1035A0004D01AA24BB24682DC92EDA2EEB2EFF2450
:1035B0005C2D482FF8013084332091F0632D70E0AA
:1035C000689DA001699D500D789D500D1124652FB7
:1035D0003C9C600111245D2D389EC0011124492FAF
:1035E000D8011E969C911E971996ED91FC911A9701
:1035F0001B968C91981320C0C901880F991F820FC8
:10360000931FE80FF91FD8011B968C91DF01A80FBB
:10361000B11D6C93D8011C968C91DF01A80FB11DD0
:103620005C93D8011D962C91E20FF11D4083C801D7
:103630000E94F1030C941511220F331F220F331F28
:10364000E20FF31FDF01A90FB11D1C92DCCF67EE63
:1036500071E0C7010E944C22892B79F40091480344
:10366000109149030115110541F0F801448155817C
:1036700070E060E08185928526CF60EF71E0C70140
:103680000E944C22892BA1F5F1E0FB1588F50091F1
:103690004603109147030115110531F0C8010E943E
:1036A000B906C8010E94F62070E060E089819A8125
:1036B0000E944C0CF82E70E060E08B819C810E948F
:1036C0004C0CE82E8FE190E00E945A208C014E2D88
:1036D0006F2D0E946801109347030093460340E852
:1036E00055E260E070E0C8010E9402070C941511D9
:1036F00069EF71E0C7010E944C22892B99F4BB202D
:1037000089F070E060E089819A810E944C0C181663
:10371000190614F081E090E0BC0183E00E9460098A
:103720000C94151161E072E0C7010E944C22892BB4
:1037300099F4BB2089F070E060E089819A810E9451
:103740004C0C97FD05C0BC014F9724F06EE101C001
:1037500060E070E086E0E2CF68E072E0C7010E94BE
:103760004C22892B21F470E060E086E1D7CF60E144
:1037700072E0C7010E944C22892BB1F522E02B1583
:1037800098F500914403109145030115110531F09E
:10379000C8010E94B906C8010E94F62070E060E0EE
:1037A00089819A810E944C0CF82E70E060E08B8138
:1037B0009C810E944C0CE82E8FE190E00E945A20E0
:1037C0008C014E2D6F2D0E946801109345030093CC
:1037D000440360E875E28D819E810E944C0CAC012F
:1037E000990F660B770B7FCF68E172E0C7010E94EB
:1037F0004C22892BC9F4BB20B9F0009144031091ED
:1038000045030115110581F0C8010E94D1066981A7
:103810007A81CE0142960E94DB0BBE016E5E7F4F25
:10382000C8010E941B0A89CD68EC71E0C7010E94A3
:103830004C22892B91F4BB2081F08FE890E00E940C
:10384000B60369817A81CE0142960E94DB0BBE01EC
:103850006E5E7F4F8AE094E0E4CF6BE072E0C701D8
:103860000E944C22892B11F00C94151110E08091CC
:103870002A03181758F4E12FF0E0EF5FFE4F70E0D5
:1038800060E080810E94CD011F5FF1CF80910A012D
:1038900087FF0E9498028091460390914703892BED
:1038A00009F061CF0C941511B39487E0B8120C9411
:1038B000921445C8E33B50F491E09E0F90930004AE
:1038C000F0E0E45BFC4F80830C94F0101092000455
:1038D00084E990E00E94B6036BE571E08AE094E031
:1038E0000E94C6090C94F01080E090E0892B11F43E
:1038F0000C94F0100E942E03882311F40C94E9100C
:103900000E9400000C94E910B0E0A0E0EAE8FCE1BD
:103910000C94561F5C016B017A016115710519F059
:10392000FB0191838083E114F10449F0C701029700
:10393000839728F060E070E0CB019CC05E01E50158
:103940002196F5011081812F90E00E948D1D892B19
:10395000A9F71D3209F056C02196F501118101E049
:10396000E114F10409F4AEC0F0E1EF16F10409F03E
:103970008EC0103341F488818F7D883509F083C073
:10398000198122960260E0E1EE2EF12C88248A94BF
:10399000982CA82CFFE0BF2E20E060E070E0CB0167
:1039A00027010F2C000C66087708FE0150ED352E1C
:1039B000310E39E0331538F43FEB310F3A31A0F5D1
:1039C00049EC342E310E3E141F04BCF52F3FB9F0E4
:1039D00086169706A806B90670F1A30192010E9407
:1039E000F11E232D30E050E040E0620F731F841F72
:1039F000951F6217730784079507E8F021E0219669
:103A00001081D3CF1B3221F4E5012296F5011181FB
:103A100000E0A6CF78E0E72EF12C88248A94982C39
:103A2000A82C6FE1B62EB8CF3FE9310F3A3128F418
:103A300039EA332EC7CF2FEFE2CFC114D10431F0D2
:103A40002223E9F02197F601D183C08300FF07C04C
:103A500090958095709561957F4F8F4F9F4F2F3F29
:103A600049F482E290E09093E7048093E6046FEFDC
:103A70007FEFCB01CDB7DEB7E1E10C94721F01FF00
:103A8000E5CF2297E0CF10E3E114F10419F23AE018
:103A9000E316F104E9F080E1E816F10409F473CFCC
:103AA000E8E0EE16F10409F4B8CF6FEF7FEFCB0139
:103AB00097010F2C000C440B550B0E94011F49016C
:103AC0005A016ACF103309F456CF9AE0E92EF12C4F
:103AD00089E9882E982CA82C89E1B82E5DCFFC01AD
:103AE00088279927E89421912032E9F3293010F0B2
:103AF0002E30C8F32B3241F02D3239F4689404C0D3
:103B00000E94C21D820F911D219120532A30C0F3C3
:103B10001EF4909581959F4F089591110C94CA1DA4
:103B2000803219F089508550C8F7089544EE54E06A
:103B30000E949B1D0895FA01A191B081009719F48C
:103B40001097E1F0CD01DC01CD010D90002011F4C2
:103B5000C00113C0FB012191222319F02015D9F7D0
:103B6000F3CFFB012191201519F41E92119606C086
:103B70002223C1F70D900020A1F7D001FA01A193F3
:103B8000B08308957AE0979F902D879F802D910DA7
:103B9000112408959927882708950E940F1E08F47C
:103BA00081E00895E89409C097FB3EF490958095D4
:103BB000709561957F4F8F4F9F4F9923A9F0F92FF3
:103BC00096E9BB279395F695879577956795B79571
:103BD000F111F8CFFAF4BB0F11F460FF1BC06F5F57
:103BE0007F4F8F4F9F4F16C0882311F096E911C069
:103BF000772321F09EE8872F762F05C0662371F08A
:103C000096E8862F70E060E02AF09A95660F771F9D
:103C1000881FDAF7880F9695879597F90895990F79
:103C20000008550FAA0BE0E8FEEF16161706E80786
:103C3000F907C0F012161306E407F50798F0621BA7
:103C4000730B840B950B39F40A2661F0232B242B7C
:103C5000252B21F408950A2609F4A140A6958FEF9B
:103C6000811D811D08950E94461E0C94B71E0E945E
:103C7000A91E38F00E94B01E20F0952311F00C947C
:103C8000A01E0C94A61E11240C94EB1E0E94C81EAC
:103C900070F3959FC1F3950F50E0551F629FF0019F
:103CA000729FBB27F00DB11D639FAA27F00DB11DB8
:103CB000AA1F649F6627B00DA11D661F829F222741
:103CC000B00DA11D621F739FB00DA11D621F839FC8
:103CD000A00D611D221F749F3327A00D611D231F9E
:103CE000849F600D211D822F762F6A2F11249F57EC
:103CF00050409AF0F1F088234AF0EE0FFF1FBB1FEF
:103D0000661F771F881F91505040A9F79E3F5105AD
:103D100080F00C94A01E0C94EB1E5F3FE4F3983EE1
:103D2000D4F3869577956795B795F795E7959F5F57
:103D3000C1F7FE2B880F911D9695879597F90895E9
:103D400097F99F6780E870E060E008959FEF80EC4E
:103D5000089500240A9416161706180609060895F1
:103D600000240A9412161306140605060895092E57
:103D70000394000C11F4882352F0BB0F40F4BF2BC6
:103D800011F460FF04C06F5F7F4F8F4F9F4F089506
:103D900057FD9058440F551F59F05F3F71F04795FC
:103DA000880F97FB991F61F09F3F79F087950895E1
:103DB000121613061406551FF2CF4695F1DF08C000
:103DC000161617061806991FF1CF8695710561051D
:103DD00008940895E894BB2766277727CB0197F9C5
:103DE0000895DB018F939F930E94421FBF91AF9173
:103DF000A29F800D911DA39F900DB29F900D112445
:103E00000895A1E21A2EAA1BBB1BFD010DC0AA1F1B
:103E1000BB1FEE1FFF1FA217B307E407F50720F033
:103E2000A21BB30BE40BF50B661F771F881F991FAE
:103E30001A9469F760957095809590959B01AC01F7
:103E4000BD01CF010895052E97FB1EF400940E943A
:103E50003A1F57FD07D00E94011F07FC03D04EF404
:103E60000C943A1F50954095309521953F4F4F4FF8
:103E70005F4F089590958095709561957F4F8F4F16
:103E80009F4F08950E948C1FA59F900DB49F900D89
:103E9000A49F800D911D11240895B7FF0C94421F1B
:103EA0000E94421F821B930B08952F923F924F92C4
:103EB0005F926F927F928F929F92AF92BF92CF92BA
:103EC000DF92EF92FF920F931F93CF93DF93CDB7C3
:103ED000DEB7CA1BDB0B0FB6F894DEBF0FBECDBF3B
:103EE00009942A88398848885F846E847D848C840C
:103EF0009B84AA84B984C884DF80EE80FD800C8115
:103F00001B81AA81B981CE0FD11D0FB6F894DEBFF7
:103F10000FBECDBFED010895A29FB001B39FC001B8
:103F2000A39F700D811D1124911DB29F700D811DE5
:103F30001124911D08955058BB27AA270E94B31F32
:103F40000C94B71E0E94A91E38F00E94B01E20F0EB
:103F500039F49F3F19F426F40C94A61E0EF4E09554
:103F6000E7FB0C94A01EE92F0E94C81E58F3BA1755
:103F7000620773078407950720F079F4A6F50C947F
:103F8000EA1E0EF4E0950B2EBA2FA02D0B01B901FD
:103F900090010C01CA01A0011124FF27591B99F0BF
:103FA000593F50F4503E68F11A16F040A22F232FCB
:103FB000342F4427585FF3CF469537952795A7951B
:103FC000F0405395C9F77EF41F16BA0B620B730BC2
:103FD000840BBAF09150A1F0FF0FBB1F661F771F33
:103FE000881FC2F70EC0BA0F621F731F841F48F4E8
:103FF000879577956795B795F7959E3F08F0B0CF71
:104000009395880F08F09927EE0F97958795089557
:104010000E94D01E88F09F5798F0B92F9927B7516A
:10402000B0F0E1F0660F771F881F991F1AF0BA955C
:10403000C9F714C0B13091F00E94EA1EB1E00895B2
:104040000C94EA1E672F782F8827B85F39F0B93FA4
:10405000CCF3869577956795B395D9F73EF490950F
:104060008095709561957F4F8F4F9F4F08950E9467
:104070000F1E08F48FEF08950E940F1E880B990BF6
:104080000895991B79E004C0991F961708F0961BB4
:10409000881F7A95C9F7809508950E948C1FB7FFF5
:1040A0000895821B930B0895EE0FFF1F0590F49166
:1040B000E02D09940F931F93CF93DF9382309105E6
:1040C00010F482E090E0E091EA04F091EB0430E03B
:1040D00020E0B0E0A0E0309799F42115310509F413
:1040E0004AC0281B390B24303105D8F58A819B81C1
:1040F0006115710589F1FB0193838283FE0111C073
:10410000408151810281138148175907E0F0481717
:10411000590799F4109761F012960C931297139621
:104120001C933296CF01DF91CF911F910F9108958B
:104130000093EA041093EB04F4CF2115310551F0FC
:104140004217530738F0A901DB019A01BD01DF01D5
:10415000F801C1CFEF01F9CF9093EB048093EA040B
:10416000CDCFFE01E20FF31F8193919322503109CD
:1041700039832883D7CF2091E8043091E904232B99
:1041800041F420910D0130910E013093E904209308
:10419000E80420910B0130910C012115310541F407
:1041A0002DB73EB740910F0150911001241B350BE4
:1041B000E091E804F091E904E217F307A0F42E1B64
:1041C0003F0B2817390778F0AC014E5F5F4F24177B
:1041D000350748F04E0F5F1F5093E9044093E80401
:1041E000819391939FCFF0E0E0E09CCFCF93DF935A
:1041F0000097E9F0FC01329713821282A091EA0441
:10420000B091EB04ED0130E020E01097A1F42081A3
:104210003181820F931F2091E8043091E90428171F
:10422000390709F061C0F093E904E093E804DF91F5
:10423000CF910895EA01CE17DF07E8F54A815B8147
:104240009E0141155105B1F7E901FB83EA834991CC
:104250005991C40FD51FEC17FD0761F4808191813E
:104260000296840F951FE901998388838281938147
:104270009B838A83F0E0E0E012968D919C911397E6
:104280000097B9F52D913C911197CD010296820FBF
:10429000931F2091E8043091E9042817390739F673
:1042A000309751F51092EB041092EA04B093E904B0
:1042B000A093E804BCCFD383C28340815181840F93
:1042C000951FC817D90761F44E5F5F4F88819981A8
:1042D000480F591F518340838A819B819383828336
:1042E0002115310509F0B0CFF093EB04E093EA0417
:1042F0009ECFFD01DC01C0CF13821282D7CFB0E088
:10430000A0E0E5E8F1E20C94571F8C01009751F40E
:10431000CB010E945A208C01C801CDB7DEB7E0E185
:104320000C94731FFC01E60FF71F9C01225031090A
:10433000E217F30708F49DC0D901CD91DC911197E4
:10434000C617D70798F0C530D10530F3CE010497D2
:104350008617970708F3C61BD70B2297C193D193F3
:104360006D937C93CF010E94F620D6CF5B01AC1AEF
:10437000BD0A4C018C0E9D1EA091EA04B091EB0485
:10438000512C412CF12CE12C109731F58091E8044F
:104390009091E9048815990509F05CC04616570606
:1043A00008F058C080910B0190910C01009741F4E6
:1043B0008DB79EB740910F0150911001841B950B52
:1043C000E817F90708F055C0F093E904E093E80412
:1043D000F90171836083A0CF8D919C911197129602
:1043E0006C90129713967C901397A815B90559F500
:1043F0006C0142E0C40ED11CCA14DB0420F1AC01F4
:104400004A195B09DA011296159780F0628273826D
:1044100051834083D9016D937C93E114F10471F0D1
:10442000D7011396FC93EE93129776CF22968C0FBA
:104430009D1FF90191838083F301EFCFF093EB048B
:10444000E093EA0469CF4816590608F42C017D016F
:10445000D3019ACFCB010E945A207C01009749F0EA
:10446000AE01B8010E943C22C8010E94F6208701DB
:1044700053CF10E000E050CFFB01DC0102C00190FF
:104480000D9241505040D8F70895DC0101C06D9362
:1044900041505040E0F70895FB01DC018D910190FF
:1044A00080190110D9F3990B0895FB01DC010190EB
:0C44B0000D920020E1F70895F894FFCF72
:1044BC00FFFFFFFFFFFFFFFFFFFFFF0000EC04808B
:1044CC0000000040001400540000000000890AC4E1
:1044DC00025D09C604000000002606C4025D092521
:1044EC0006820698060D06000000006403C402F163
:1044FC0002D1032203000314030000000047081A32
:10450C00085D09250613080008F1070D0A00312E75
:10451C00302E30006E616E00696E66006F7666003C
:10452C0050494E47002C00510044520042555454FF
:10453C004F4E00534F4E4152004455535400444883
:10454C0054004254415641494C0042545245414456
:10455C000043004457005057004D4F544F520053E6
:10456C004552564F004E4F544F4E45004C4344421B
:10457C004547494E004C43445052494E54004C431D
:10458C0044434C454152004E454F424547494E002D
:10459C004E454F534554004E454F434C45415200F8
:1045AC004D5033424547494E004D5033504C4159C4
:1045BC00004D5033564F4C004D503353544F500018
:1045CC004254424547494E00425453454E440030F4
:1045DC00313233343536373839616263646566009D
:00000001FF
